{
  "contractName": "Gacha",
  "abi": [
    {
      "inputs": [
        {
          "internalType": "uint256",
          "name": "_price",
          "type": "uint256"
        },
        {
          "internalType": "uint256",
          "name": "_posibility",
          "type": "uint256"
        },
        {
          "internalType": "address",
          "name": "_reward",
          "type": "address"
        },
        {
          "internalType": "address",
          "name": "_nft",
          "type": "address"
        },
        {
          "internalType": "address",
          "name": "_hotpot",
          "type": "address"
        }
      ],
      "stateMutability": "nonpayable",
      "type": "constructor"
    },
    {
      "anonymous": false,
      "inputs": [
        {
          "indexed": true,
          "internalType": "address",
          "name": "_owner",
          "type": "address"
        }
      ],
      "name": "GachaNothing",
      "type": "event"
    },
    {
      "anonymous": false,
      "inputs": [
        {
          "indexed": true,
          "internalType": "address",
          "name": "_owner",
          "type": "address"
        },
        {
          "indexed": true,
          "internalType": "uint256",
          "name": "_tokenId",
          "type": "uint256"
        },
        {
          "indexed": true,
          "internalType": "uint8",
          "name": "_grade",
          "type": "uint8"
        }
      ],
      "name": "GachaTicket",
      "type": "event"
    },
    {
      "anonymous": false,
      "inputs": [
        {
          "indexed": true,
          "internalType": "address",
          "name": "previousOwner",
          "type": "address"
        },
        {
          "indexed": true,
          "internalType": "address",
          "name": "newOwner",
          "type": "address"
        }
      ],
      "name": "OwnershipTransferred",
      "type": "event"
    },
    {
      "inputs": [],
      "name": "baseURI",
      "outputs": [
        {
          "internalType": "string",
          "name": "",
          "type": "string"
        }
      ],
      "stateMutability": "view",
      "type": "function",
      "constant": true
    },
    {
      "inputs": [],
      "name": "erc20",
      "outputs": [
        {
          "internalType": "contract IERC20",
          "name": "",
          "type": "address"
        }
      ],
      "stateMutability": "view",
      "type": "function",
      "constant": true
    },
    {
      "inputs": [],
      "name": "erc721",
      "outputs": [
        {
          "internalType": "contract IERC721Enumerable",
          "name": "",
          "type": "address"
        }
      ],
      "stateMutability": "view",
      "type": "function",
      "constant": true
    },
    {
      "inputs": [],
      "name": "hotpot",
      "outputs": [
        {
          "internalType": "contract IHotPot",
          "name": "",
          "type": "address"
        }
      ],
      "stateMutability": "view",
      "type": "function",
      "constant": true
    },
    {
      "inputs": [],
      "name": "initPosibility",
      "outputs": [
        {
          "internalType": "uint256",
          "name": "",
          "type": "uint256"
        }
      ],
      "stateMutability": "view",
      "type": "function",
      "constant": true
    },
    {
      "inputs": [],
      "name": "owner",
      "outputs": [
        {
          "internalType": "address",
          "name": "",
          "type": "address"
        }
      ],
      "stateMutability": "view",
      "type": "function",
      "constant": true
    },
    {
      "inputs": [],
      "name": "price",
      "outputs": [
        {
          "internalType": "uint256",
          "name": "",
          "type": "uint256"
        }
      ],
      "stateMutability": "view",
      "type": "function",
      "constant": true
    },
    {
      "inputs": [],
      "name": "renounceOwnership",
      "outputs": [],
      "stateMutability": "nonpayable",
      "type": "function"
    },
    {
      "inputs": [],
      "name": "rewardAddress",
      "outputs": [
        {
          "internalType": "address",
          "name": "",
          "type": "address"
        }
      ],
      "stateMutability": "view",
      "type": "function",
      "constant": true
    },
    {
      "inputs": [
        {
          "internalType": "address",
          "name": "newOwner",
          "type": "address"
        }
      ],
      "name": "transferOwnership",
      "outputs": [],
      "stateMutability": "nonpayable",
      "type": "function"
    },
    {
      "inputs": [
        {
          "internalType": "address",
          "name": "_addr",
          "type": "address"
        }
      ],
      "name": "setRewardAddress",
      "outputs": [],
      "stateMutability": "nonpayable",
      "type": "function"
    },
    {
      "inputs": [
        {
          "internalType": "string",
          "name": "_uri",
          "type": "string"
        }
      ],
      "name": "setBaseURI",
      "outputs": [],
      "stateMutability": "nonpayable",
      "type": "function"
    },
    {
      "inputs": [
        {
          "internalType": "address",
          "name": "_addr",
          "type": "address"
        }
      ],
      "name": "setHotPotNFT",
      "outputs": [],
      "stateMutability": "nonpayable",
      "type": "function"
    },
    {
      "inputs": [
        {
          "internalType": "address",
          "name": "_addr",
          "type": "address"
        }
      ],
      "name": "setHotPot",
      "outputs": [],
      "stateMutability": "nonpayable",
      "type": "function"
    },
    {
      "inputs": [],
      "name": "pull",
      "outputs": [],
      "stateMutability": "nonpayable",
      "type": "function"
    },
    {
      "inputs": [],
      "name": "pull10",
      "outputs": [],
      "stateMutability": "nonpayable",
      "type": "function"
    },
    {
      "inputs": [],
      "name": "getPosibilityNow",
      "outputs": [
        {
          "internalType": "uint256",
          "name": "",
          "type": "uint256"
        }
      ],
      "stateMutability": "view",
      "type": "function",
      "constant": true
    }
  ],
  "bytecode": "0x6001600555600860065560a060408190526000608081905262000025916007916200029e565b5060016008553480156200003857600080fd5b5060405162001b8a38038062001b8a833981810160405260a08110156200005e57600080fd5b508051602082015160408301516060840151608090940151929391929091906000620000926001600160e01b036200029316565b600080546001600160a01b0319166001600160a01b0383169081178255604051929350917f8be0079c531659141344cd1fd0a4f28419497f9722a3daafe3b4186f6b6457e0908290a350600684905560058590556001600160a01b038316620000fa57600080fd5b6001600160a01b0382166200010e57600080fd5b6001600160a01b0381166200012257600080fd5b62000141826001600160a01b03166200029860201b62000de71760201c565b62000182576040805162461bcd60e51b815260206004820152601a602482015260008051602062001b6a833981519152604482015290519081900360640190fd5b620001a1836001600160a01b03166200029860201b62000de71760201c565b620001e2576040805162461bcd60e51b815260206004820152601a602482015260008051602062001b6a833981519152604482015290519081900360640190fd5b62000201816001600160a01b03166200029860201b62000de71760201c565b62000242576040805162461bcd60e51b815260206004820152601a602482015260008051602062001b6a833981519152604482015290519081900360640190fd5b600380546001600160a01b03199081166001600160a01b0393841617909155600180548216938316938417905560028054821690931790925560048054909216921691909117905550620003409050565b335b90565b3b151590565b828054600181600116156101000203166002900490600052602060002090601f016020900481019282601f10620002e157805160ff191683800117855562000311565b8280016001018555821562000311579182015b8281111562000311578251825591602001919060010190620002f4565b506200031f92915062000323565b5090565b6200029591905b808211156200031f57600081556001016200032a565b61181a80620003506000396000f3fe608060405234801561001057600080fd5b506004361061011b5760003560e01c8063715018a6116100b2578063a035b1fe11610081578063bca6ce6411610066578063bca6ce64146102f7578063cc013b44146102ff578063f2fde38b146103075761011b565b8063a035b1fe146102c9578063b6dd044d146102d15761011b565b8063715018a6146102a9578063785e9e86146102b15780638cf57cb9146102b95780638da5cb5b146102c15761011b565b80633ea01982116100ee5780633ea019821461018e57806355f804b3146101965780635e00e679146102065780636c0360eb1461022c5761011b565b8063049b205b1461012057806315ea88c4146101485780632bc633b01461016c578063329eb83914610186575b600080fd5b6101466004803603602081101561013657600080fd5b50356001600160a01b031661032d565b005b610150610434565b604080516001600160a01b039092168252519081900360200190f35b610174610443565b60408051918252519081900360200190f35b610146610449565b610146610599565b610146600480360360208110156101ac57600080fd5b8101906020810181356401000000008111156101c757600080fd5b8201836020820111156101d957600080fd5b803590602001918460018302840111640100000000831117156101fb57600080fd5b509092509050610766565b6101466004803603602081101561021c57600080fd5b50356001600160a01b03166107e1565b6102346108e8565b6040805160208082528351818301528351919283929083019185019080838360005b8381101561026e578181015183820152602001610256565b50505050905090810190601f16801561029b5780820380516001836020036101000a031916815260200191505b509250505060405180910390f35b610146610994565b610150610a60565b610150610a6f565b610150610a7e565b610174610a8e565b610146600480360360208110156102e757600080fd5b50356001600160a01b0316610a94565b610150610ba5565b610174610bb4565b6101466004803603602081101561031d57600080fd5b50356001600160a01b0316610cc1565b610335610de3565b6000546001600160a01b03908116911614610397576040805162461bcd60e51b815260206004820181905260248201527f4f776e61626c653a2063616c6c6572206973206e6f7420746865206f776e6572604482015290519081900360640190fd5b6103a9816001600160a01b0316610de7565b6103fa576040805162461bcd60e51b815260206004820152601a60248201527f49742773206e6f7420636f6e7472616374206164647265737321000000000000604482015290519081900360640190fd5b600380547fffffffffffffffffffffffff0000000000000000000000000000000000000000166001600160a01b0392909216919091179055565b6001546001600160a01b031681565b60065481565b600554600354604080517f70a08231000000000000000000000000000000000000000000000000000000008152336004820152905183926001600160a01b0316916370a08231916024808301926020929190829003018186803b1580156104af57600080fd5b505afa1580156104c3573d6000803e3d6000fd5b505050506040513d60208110156104d957600080fd5b5051101561052e576040805162461bcd60e51b815260206004820152601d60248201527f57616c6c65742062616c616e6365206973206e6f7420656e6f75676821000000604482015290519081900360640190fd5b6000610538610ded565b90508061056b5760405133907fa11b25bd936fddbe6d3ef9056a0da37ae243b87c72f36ee37304627e321e578e90600090a25b600454600554600354610595926001600160a01b039182169233929091169063ffffffff61109a16565b5050565b6105d460646105c8605f60ff166105bc600a60055461112890919063ffffffff16565b9063ffffffff61112816565b9063ffffffff61118a16565b600354604080517f70a08231000000000000000000000000000000000000000000000000000000008152336004820152905183926001600160a01b0316916370a08231916024808301926020929190829003018186803b15801561063757600080fd5b505afa15801561064b573d6000803e3d6000fd5b505050506040513d602081101561066157600080fd5b505110156106b6576040805162461bcd60e51b815260206004820152601d60248201527f57616c6c65742062616c616e6365206973206e6f7420656e6f75676821000000604482015290519081900360640190fd5b6000805b600a8110156106e35760006106cd610ded565b905080156106da57600192505b506001016106ba565b50806107155760405133907fa11b25bd936fddbe6d3ef9056a0da37ae243b87c72f36ee37304627e321e578e90600090a25b6004546005546105959133916001600160a01b039091169061074c906064906105c890605f906105bc90600a63ffffffff61112816565b6003546001600160a01b031692919063ffffffff61109a16565b61076e610de3565b6000546001600160a01b039081169116146107d0576040805162461bcd60e51b815260206004820181905260248201527f4f776e61626c653a2063616c6c6572206973206e6f7420746865206f776e6572604482015290519081900360640190fd5b6107dc600783836116bd565b505050565b6107e9610de3565b6000546001600160a01b0390811691161461084b576040805162461bcd60e51b815260206004820181905260248201527f4f776e61626c653a2063616c6c6572206973206e6f7420746865206f776e6572604482015290519081900360640190fd5b61085d816001600160a01b0316610de7565b6108ae576040805162461bcd60e51b815260206004820152601a60248201527f49742773206e6f7420636f6e7472616374206164647265737321000000000000604482015290519081900360640190fd5b600480547fffffffffffffffffffffffff0000000000000000000000000000000000000000166001600160a01b0392909216919091179055565b6007805460408051602060026001851615610100027fffffffffffffffffffffffffffffffffffffffffffffffffffffffffffffffff0190941693909304601f8101849004840282018401909252818152929183018282801561098c5780601f106109615761010080835404028352916020019161098c565b820191906000526020600020905b81548152906001019060200180831161096f57829003601f168201915b505050505081565b61099c610de3565b6000546001600160a01b039081169116146109fe576040805162461bcd60e51b815260206004820181905260248201527f4f776e61626c653a2063616c6c6572206973206e6f7420746865206f776e6572604482015290519081900360640190fd5b600080546040516001600160a01b03909116907f8be0079c531659141344cd1fd0a4f28419497f9722a3daafe3b4186f6b6457e0908390a3600080547fffffffffffffffffffffffff0000000000000000000000000000000000000000169055565b6003546001600160a01b031681565b6004546001600160a01b031681565b6000546001600160a01b03165b90565b60055481565b610a9c610de3565b6000546001600160a01b03908116911614610afe576040805162461bcd60e51b815260206004820181905260248201527f4f776e61626c653a2063616c6c6572206973206e6f7420746865206f776e6572604482015290519081900360640190fd5b610b10816001600160a01b0316610de7565b610b61576040805162461bcd60e51b815260206004820152601a60248201527f49742773206e6f7420636f6e7472616374206164647265737321000000000000604482015290519081900360640190fd5b600180546001600160a01b039092167fffffffffffffffffffffffff0000000000000000000000000000000000000000928316811790915560028054909216179055565b6002546001600160a01b031681565b600080600260009054906101000a90046001600160a01b03166001600160a01b03166318160ddd6040518163ffffffff1660e01b815260040160206040518083038186803b158015610c0557600080fd5b505afa158015610c19573d6000803e3d6000fd5b505050506040513d6020811015610c2f57600080fd5b5051600654909150600b821015610c495750600654610cbb565b6015821015610c5e5750600654600202610cbb565b6033821015610c735750600654600402610cbb565b6065821015610c885750600654600802610cbb565b60c9821015610c9d5750600654601002610cbb565b6101f5821015610cb35750600654602002610cbb565b506006546040025b91505090565b610cc9610de3565b6000546001600160a01b03908116911614610d2b576040805162461bcd60e51b815260206004820181905260248201527f4f776e61626c653a2063616c6c6572206973206e6f7420746865206f776e6572604482015290519081900360640190fd5b6001600160a01b038116610d705760405162461bcd60e51b81526004018080602001828103825260268152602001806117746026913960400191505060405180910390fd5b600080546040516001600160a01b03808516939216917f8be0079c531659141344cd1fd0a4f28419497f9722a3daafe3b4186f6b6457e091a3600080547fffffffffffffffffffffffff0000000000000000000000000000000000000000166001600160a01b0392909216919091179055565b3390565b3b151590565b60006103e8600260009054906101000a90046001600160a01b03166001600160a01b03166318160ddd6040518163ffffffff1660e01b815260040160206040518083038186803b158015610e4057600080fd5b505afa158015610e54573d6000803e3d6000fd5b505050506040513d6020811015610e6a57600080fd5b50511115610ebf576040805162461bcd60e51b815260206004820181905260248201527f43616e6e6f7420637265617465206d6f7265204e465420616e79206d6f726521604482015290519081900360640190fd5b6000306001600160a01b031663cc013b446040518163ffffffff1660e01b815260040160206040518083038186803b158015610efa57600080fd5b505afa158015610f0e573d6000803e3d6000fd5b505050506040513d6020811015610f2457600080fd5b5051600880546001019081905560408051426020828101919091523360601b8284015260548083019490945282518083039094018452607490910191829052825193945060009360108602936002939092909182918401908083835b60208310610fbd57805182527fffffffffffffffffffffffffffffffffffffffffffffffffffffffffffffffe09092019160209182019101610f80565b51815160209384036101000a7fffffffffffffffffffffffffffffffffffffffffffffffffffffffffffffffff01801990921691161790526040519190930194509192505080830381855afa15801561101a573d6000803e3d6000fd5b5050506040513d602081101561102f57600080fd5b50518161103857fe5b069050601081101561108f57806001141561105c5761105760036111cc565b611084565b60058110801561106b57508015155b1561107a5761105760026111cc565b61108460016111cc565b600192505050610a8b565b600092505050610a8b565b604080516001600160a01b0380861660248301528416604482015260648082018490528251808303909101815260849091019091526020810180517bffffffffffffffffffffffffffffffffffffffffffffffffffffffff167f23b872dd000000000000000000000000000000000000000000000000000000001790526111229085906113c8565b50505050565b60008261113757506000611184565b8282028284828161114457fe5b04146111815760405162461bcd60e51b815260040180806020018281038252602181526020018061179a6021913960400191505060405180910390fd5b90505b92915050565b600061118183836040518060400160405280601a81526020017f536166654d6174683a206469766973696f6e206279207a65726f000000000000815250611479565b600254604080517f18160ddd00000000000000000000000000000000000000000000000000000000815290516000926001600160a01b0316916318160ddd916004808301926020929190829003018186803b15801561122a57600080fd5b505afa15801561123e573d6000803e3d6000fd5b505050506040513d602081101561125457600080fd5b5051600180546040517f644acc6000000000000000000000000000000000000000000000000000000000815233600482018181528486016024840181905260ff891660448501526080606485019081526007805460027fffffffffffffffffffffffffffffffffffffffffffffffffffffffffffffffff99821615610100029990990116979097046084860181905297985090966001600160a01b039095169563644acc6095939488948b9492939160a40190849080156113565780601f1061132b57610100808354040283529160200191611356565b820191906000526020600020905b81548152906001019060200180831161133957829003601f168201915b505095505050505050600060405180830381600087803b15801561137957600080fd5b505af115801561138d573d6000803e3d6000fd5b505060405160ff8616925083915033907ff1fdafe85c8e689e94a05437caf59e85e24ded6101fd5edf045c1e98befb2dc890600090a4505050565b606061141d826040518060400160405280602081526020017f5361666545524332303a206c6f772d6c6576656c2063616c6c206661696c6564815250856001600160a01b031661151b9092919063ffffffff16565b8051909150156107dc5780806020019051602081101561143c57600080fd5b50516107dc5760405162461bcd60e51b815260040180806020018281038252602a8152602001806117bb602a913960400191505060405180910390fd5b600081836115055760405162461bcd60e51b81526004018080602001828103825283818151815260200191508051906020019080838360005b838110156114ca5781810151838201526020016114b2565b50505050905090810190601f1680156114f75780820380516001836020036101000a031916815260200191505b509250505060405180910390fd5b50600083858161151157fe5b0495945050505050565b606061152a8484600085611532565b949350505050565b606061153d85610de7565b61158e576040805162461bcd60e51b815260206004820152601d60248201527f416464726573733a2063616c6c20746f206e6f6e2d636f6e7472616374000000604482015290519081900360640190fd5b60006060866001600160a01b031685876040518082805190602001908083835b602083106115eb57805182527fffffffffffffffffffffffffffffffffffffffffffffffffffffffffffffffe090920191602091820191016115ae565b6001836020036101000a03801982511681845116808217855250505050505090500191505060006040518083038185875af1925050503d806000811461164d576040519150601f19603f3d011682016040523d82523d6000602084013e611652565b606091505b5091509150811561166657915061152a9050565b8051156116765780518082602001fd5b60405162461bcd60e51b81526020600482018181528651602484015286518793919283926044019190850190808383600083156114ca5781810151838201526020016114b2565b828054600181600116156101000203166002900490600052602060002090601f016020900481019282601f1061171c578280017fffffffffffffffffffffffffffffffffffffffffffffffffffffffffffffff00823516178555611749565b82800160010185558215611749579182015b8281111561174957823582559160200191906001019061172e565b50611755929150611759565b5090565b610a8b91905b80821115611755576000815560010161175f56fe4f776e61626c653a206e6577206f776e657220697320746865207a65726f2061646472657373536166654d6174683a206d756c7469706c69636174696f6e206f766572666c6f775361666545524332303a204552433230206f7065726174696f6e20646964206e6f742073756363656564a26469706673582212203cbda7f05ce20fd18475fc3e0001cda9020c8fbd05b7f015a58131f6fe2d2eb064736f6c6343000602003349742773206e6f7420636f6e7472616374206164647265737321000000000000",
  "source": "pragma solidity ^0.6.0;\n\nimport \"@openzeppelin/contracts/token/ERC721/IERC721Enumerable.sol\";\nimport \"../common/hotpotinterface.sol\";\nimport \"@openzeppelin/contracts/math/Math.sol\";\nimport \"@openzeppelin/contracts/math/SafeMath.sol\";\nimport \"@openzeppelin/contracts/token/ERC20/IERC20.sol\";\nimport \"@openzeppelin/contracts/token/ERC20/SafeERC20.sol\";\nimport \"@openzeppelin/contracts/access/Ownable.sol\";\nimport \"@openzeppelin/contracts/utils/Address.sol\";\n\ncontract Gacha is Ownable {\n    using SafeMath for uint256;\n    using SafeERC20 for IERC20;\n    using Address for address;\n\n    IHotPot public hotpot;\n    IERC721Enumerable public erc721;\n    IERC20 public erc20;\n\n    address public rewardAddress;\n\n    uint256 public price = 1;\n\n    uint8 constant gradeNormal = 1;\n\n    uint8 constant gradeVIP = 2;\n\n    uint8 constant gradeVVIP = 3;\n\n    uint8 constant discount10Pull = 95;\n\n    uint8 constant posibilityDevide = 4;\n\n    uint256 public initPosibility = 8;\n\n    uint256 constant MAX_NFT = 1000;\n\n    string public baseURI = \"\";\n\n    uint256 internal randomSeed = 1;\n\n    event GachaTicket(\n        address indexed _owner,\n        uint256 indexed _tokenId,\n        uint8 indexed _grade\n    );\n\n    event GachaNothing(address indexed _owner);\n\n    modifier ensurePull(uint256 _price) {\n        // check balance\n        require(\n            erc20.balanceOf(msg.sender) >= _price,\n            \"Wallet balance is not enough!\"\n        );\n        _;\n    }\n\n    /**\n        ensure NFT amount is less than 1000\n     */\n    modifier checkNFTCount() {\n        require(\n            erc721.totalSupply() <= MAX_NFT,\n            \"Cannot create more NFT any more!\"\n        );\n        _;\n    }\n\n    function setRewardAddress(address _addr) external onlyOwner {\n        require(_addr.isContract(), \"It's not contract address!\");\n        rewardAddress = _addr;\n    }\n\n    function setBaseURI(string calldata _uri) external onlyOwner {\n        baseURI = _uri;\n    }\n\n    function setHotPotNFT(address _addr) external onlyOwner {\n        require(_addr.isContract(), \"It's not contract address!\");\n\n        hotpot = IHotPot(_addr);\n        erc721 = IERC721Enumerable(_addr);\n    }\n\n    function setHotPot(address _addr) external onlyOwner {\n        require(_addr.isContract(), \"It's not contract address!\");\n        erc20 = IERC20(_addr);\n    }\n\n    constructor(\n        uint256 _price,\n        uint256 _posibility,\n        address _reward,\n        address _nft,\n        address _hotpot\n    ) public {\n        initPosibility = _posibility;\n        price = _price;\n\n        require(_reward != address(0));\n        require(_nft != address(0));\n        require(_hotpot != address(0));\n        require(_nft.isContract(), \"It's not contract address!\");\n        require(_reward.isContract(), \"It's not contract address!\");\n        require(_hotpot.isContract(), \"It's not contract address!\");\n\n        erc20 = IERC20(_hotpot);\n        hotpot = IHotPot(_nft);\n        erc721 = IERC721Enumerable(_nft);\n        rewardAddress = _reward;\n    }\n\n    /**\n        1 pull\n     */\n    function pull() external ensurePull(price) {\n        bool res = _pull();\n        if (!res) {\n            emit GachaNothing(msg.sender);\n        }\n        //1. get token first\n        erc20.safeTransferFrom(msg.sender, rewardAddress, price);\n    }\n\n    /**\n        10 pulls\n     */\n\n    function pull10() external ensurePull(price.mul(10).mul(discount10Pull).div(100)) {\n        bool gacha = false;\n        for (uint256 i = 0; i < 10; i++) {\n            bool res = _pull();\n            if (res) {\n                gacha = true;\n            }\n        }\n        if (!gacha) {\n            emit GachaNothing(msg.sender);\n        }\n        //1. get token first\n        erc20.safeTransferFrom(\n            msg.sender,\n            rewardAddress,\n            price.mul(10).mul(discount10Pull).div(100)\n        );\n    }\n\n    function getPosibilityNow() external view returns(uint256){\n        //1.check the nft amount\n        uint256 count = erc721.totalSupply();\n        // emit GachaStart(count);\n        uint256 posibility = initPosibility;\n        if (count < 11) {\n            posibility = initPosibility; //8\n        } else if (count < 21) {\n            posibility = initPosibility * 2; //16\n        } else if (count < 51) {\n            posibility = initPosibility * 4; //32\n        } else if (count < 101) {\n            posibility = initPosibility * 8; //64\n        } else if (count < 201) {\n            posibility = initPosibility * 16; //128\n        } else if (count < 501) {\n            posibility = initPosibility * 32; //256\n        } else {\n            posibility = initPosibility * 64; //512\n        }\n        return posibility;\n    }\n\n    /**\n        trigger 1 pull\n     */\n    function _pull() internal checkNFTCount returns (bool) {\n        uint256 posibility = this.getPosibilityNow();\n\n        randomSeed++;\n        //generate random number\n        //it is not that safe\n        uint256 random = uint256(\n            sha256(abi.encodePacked(now, msg.sender, randomSeed))\n        ) % (posibility * posibilityDevide * posibilityDevide);\n\n        // emit GachaRandom(random);\n\n        if (random < posibilityDevide * posibilityDevide) {\n            if (random == 1) {\n                //generate grade 3\n                _generateNFT(gradeVVIP);\n            } else if (random < posibilityDevide+1 && random!=0) {\n                //generate grade 2\n                _generateNFT(gradeVIP);\n            } else {\n                //generate grade 1\n                _generateNFT(gradeNormal);\n            }\n            return true;\n        } else {\n            return false;\n        }\n    }\n\n    function _generateNFT(uint8 _grade) internal {\n        uint256 count = erc721.totalSupply();\n        uint256 tokenId = count + 1;\n        hotpot.mint(msg.sender, tokenId, _grade, baseURI);\n        emit GachaTicket(msg.sender, tokenId, _grade);\n    }\n}\n",
  "sourcePath": "/Users/junhu/git/hotpotcontract/truffle/contracts/gacha/Gacha.sol",
  "compiler": {
    "name": "solc",
    "version": "0.6.2+commit.bacdbe57.Emscripten.clang"
  },
  "schemaVersion": "3.3.0",
  "updatedAt": "2020-10-23T06:04:21.589Z",
  "networkType": "ethereum",
  "devdoc": {
    "methods": {
      "owner()": {
        "details": "Returns the address of the current owner."
      },
      "renounceOwnership()": {
        "details": "Leaves the contract without owner. It will not be possible to call `onlyOwner` functions anymore. Can only be called by the current owner.     * NOTE: Renouncing ownership will leave the contract without an owner, thereby removing any functionality that is only available to the owner."
      },
      "transferOwnership(address)": {
        "details": "Transfers ownership of the contract to a new account (`newOwner`). Can only be called by the current owner."
      }
    }
  },
  "userdoc": {
    "methods": {
      "pull()": {
        "notice": "1 pull"
      },
      "pull10()": {
        "notice": "10 pulls"
      }
    }
  }
}