{
  "contractName": "Gacha",
  "abi": [
    {
      "inputs": [
        {
          "internalType": "uint256",
          "name": "_price",
          "type": "uint256"
        },
        {
          "internalType": "uint256",
          "name": "_posibility",
          "type": "uint256"
        },
        {
          "internalType": "address",
          "name": "_reward",
          "type": "address"
        },
        {
          "internalType": "address",
          "name": "_nft",
          "type": "address"
        },
        {
          "internalType": "address",
          "name": "_hotpot",
          "type": "address"
        }
      ],
      "stateMutability": "nonpayable",
      "type": "constructor"
    },
    {
      "anonymous": false,
      "inputs": [
        {
          "indexed": true,
          "internalType": "address",
          "name": "_owner",
          "type": "address"
        }
      ],
      "name": "GachaNothing",
      "type": "event"
    },
    {
      "anonymous": false,
      "inputs": [
        {
          "indexed": true,
          "internalType": "address",
          "name": "_owner",
          "type": "address"
        },
        {
          "indexed": true,
          "internalType": "uint256",
          "name": "_tokenId",
          "type": "uint256"
        },
        {
          "indexed": true,
          "internalType": "uint8",
          "name": "_grade",
          "type": "uint8"
        }
      ],
      "name": "GachaTicket",
      "type": "event"
    },
    {
      "anonymous": false,
      "inputs": [
        {
          "indexed": true,
          "internalType": "address",
          "name": "previousOwner",
          "type": "address"
        },
        {
          "indexed": true,
          "internalType": "address",
          "name": "newOwner",
          "type": "address"
        }
      ],
      "name": "OwnershipTransferred",
      "type": "event"
    },
    {
      "inputs": [],
      "name": "baseURI",
      "outputs": [
        {
          "internalType": "string",
          "name": "",
          "type": "string"
        }
      ],
      "stateMutability": "view",
      "type": "function",
      "constant": true
    },
    {
      "inputs": [],
      "name": "erc20",
      "outputs": [
        {
          "internalType": "contract IERC20",
          "name": "",
          "type": "address"
        }
      ],
      "stateMutability": "view",
      "type": "function",
      "constant": true
    },
    {
      "inputs": [],
      "name": "erc721",
      "outputs": [
        {
          "internalType": "contract IERC721Enumerable",
          "name": "",
          "type": "address"
        }
      ],
      "stateMutability": "view",
      "type": "function",
      "constant": true
    },
    {
      "inputs": [],
      "name": "hotpot",
      "outputs": [
        {
          "internalType": "contract IHotPot",
          "name": "",
          "type": "address"
        }
      ],
      "stateMutability": "view",
      "type": "function",
      "constant": true
    },
    {
      "inputs": [],
      "name": "initPosibility",
      "outputs": [
        {
          "internalType": "uint256",
          "name": "",
          "type": "uint256"
        }
      ],
      "stateMutability": "view",
      "type": "function",
      "constant": true
    },
    {
      "inputs": [],
      "name": "owner",
      "outputs": [
        {
          "internalType": "address",
          "name": "",
          "type": "address"
        }
      ],
      "stateMutability": "view",
      "type": "function",
      "constant": true
    },
    {
      "inputs": [],
      "name": "price",
      "outputs": [
        {
          "internalType": "uint256",
          "name": "",
          "type": "uint256"
        }
      ],
      "stateMutability": "view",
      "type": "function",
      "constant": true
    },
    {
      "inputs": [],
      "name": "renounceOwnership",
      "outputs": [],
      "stateMutability": "nonpayable",
      "type": "function"
    },
    {
      "inputs": [],
      "name": "rewardAddress",
      "outputs": [
        {
          "internalType": "address",
          "name": "",
          "type": "address"
        }
      ],
      "stateMutability": "view",
      "type": "function",
      "constant": true
    },
    {
      "inputs": [
        {
          "internalType": "address",
          "name": "newOwner",
          "type": "address"
        }
      ],
      "name": "transferOwnership",
      "outputs": [],
      "stateMutability": "nonpayable",
      "type": "function"
    },
    {
      "inputs": [
        {
          "internalType": "uint256",
          "name": "_posibility",
          "type": "uint256"
        }
      ],
      "name": "setPosibility",
      "outputs": [],
      "stateMutability": "nonpayable",
      "type": "function"
    },
    {
      "inputs": [
        {
          "internalType": "address",
          "name": "_addr",
          "type": "address"
        }
      ],
      "name": "setRewardAddress",
      "outputs": [],
      "stateMutability": "nonpayable",
      "type": "function"
    },
    {
      "inputs": [
        {
          "internalType": "string",
          "name": "_uri",
          "type": "string"
        }
      ],
      "name": "setBaseURI",
      "outputs": [],
      "stateMutability": "nonpayable",
      "type": "function"
    },
    {
      "inputs": [
        {
          "internalType": "address",
          "name": "_addr",
          "type": "address"
        }
      ],
      "name": "setHotPotTicket",
      "outputs": [],
      "stateMutability": "nonpayable",
      "type": "function"
    },
    {
      "inputs": [
        {
          "internalType": "address",
          "name": "_addr",
          "type": "address"
        }
      ],
      "name": "setHotPot",
      "outputs": [],
      "stateMutability": "nonpayable",
      "type": "function"
    },
    {
      "inputs": [
        {
          "internalType": "uint256",
          "name": "_price",
          "type": "uint256"
        }
      ],
      "name": "setPrice",
      "outputs": [],
      "stateMutability": "nonpayable",
      "type": "function"
    },
    {
      "inputs": [],
      "name": "pull",
      "outputs": [],
      "stateMutability": "nonpayable",
      "type": "function"
    },
    {
      "inputs": [],
      "name": "pull10",
      "outputs": [],
      "stateMutability": "nonpayable",
      "type": "function"
    }
  ],
  "bytecode": "0x6080604052620186a060055560086006556040518060200160405280600081525060079080519060200190620000379291906200051f565b5060006008553480156200004a57600080fd5b5060405162002bd038038062002bd0833981810160405260a08110156200007057600080fd5b8101908080519060200190929190805190602001909291908051906020019092919080519060200190929190805190602001909291905050506000620000bb6200050460201b60201c565b9050806000806101000a81548173ffffffffffffffffffffffffffffffffffffffff021916908373ffffffffffffffffffffffffffffffffffffffff1602179055508073ffffffffffffffffffffffffffffffffffffffff16600073ffffffffffffffffffffffffffffffffffffffff167f8be0079c531659141344cd1fd0a4f28419497f9722a3daafe3b4186f6b6457e060405160405180910390a3508360068190555084600581905550600073ffffffffffffffffffffffffffffffffffffffff168373ffffffffffffffffffffffffffffffffffffffff161415620001a257600080fd5b600073ffffffffffffffffffffffffffffffffffffffff168273ffffffffffffffffffffffffffffffffffffffff161415620001dd57600080fd5b600073ffffffffffffffffffffffffffffffffffffffff168173ffffffffffffffffffffffffffffffffffffffff1614156200021857600080fd5b620002448273ffffffffffffffffffffffffffffffffffffffff166200050c60201b62001a581760201c565b620002b7576040517f08c379a000000000000000000000000000000000000000000000000000000000815260040180806020018281038252601a8152602001807f49742773206e6f7420636f6e747261637420616464726573732100000000000081525060200191505060405180910390fd5b620002e38373ffffffffffffffffffffffffffffffffffffffff166200050c60201b62001a581760201c565b62000356576040517f08c379a000000000000000000000000000000000000000000000000000000000815260040180806020018281038252601a8152602001807f49742773206e6f7420636f6e747261637420616464726573732100000000000081525060200191505060405180910390fd5b620003828173ffffffffffffffffffffffffffffffffffffffff166200050c60201b62001a581760201c565b620003f5576040517f08c379a000000000000000000000000000000000000000000000000000000000815260040180806020018281038252601a8152602001807f49742773206e6f7420636f6e747261637420616464726573732100000000000081525060200191505060405180910390fd5b80600360006101000a81548173ffffffffffffffffffffffffffffffffffffffff021916908373ffffffffffffffffffffffffffffffffffffffff16021790555081600160006101000a81548173ffffffffffffffffffffffffffffffffffffffff021916908373ffffffffffffffffffffffffffffffffffffffff16021790555081600260006101000a81548173ffffffffffffffffffffffffffffffffffffffff021916908373ffffffffffffffffffffffffffffffffffffffff16021790555082600460006101000a81548173ffffffffffffffffffffffffffffffffffffffff021916908373ffffffffffffffffffffffffffffffffffffffff1602179055505050505050620005ce565b600033905090565b600080823b905060008111915050919050565b828054600181600116156101000203166002900490600052602060002090601f016020900481019282601f106200056257805160ff191683800117855562000593565b8280016001018555821562000593579182015b828111156200059257825182559160200191906001019062000575565b5b509050620005a29190620005a6565b5090565b620005cb91905b80821115620005c7576000816000905550600101620005ad565b5090565b90565b6125f280620005de6000396000f3fe608060405234801561001057600080fd5b50600436106101165760003560e01c8063785e9e86116100a2578063953f094711610071578063953f094714610431578063a035b1fe1461045f578063bca6ce641461047d578063e6db6a30146104c7578063f2fde38b1461050b57610116565b8063785e9e86146103255780638cf57cb91461036f5780638da5cb5b146103b957806391b7f5ed1461040357610116565b80633ea01982116100e95780633ea01982146101d157806355f804b3146101db5780635e00e679146102545780636c0360eb14610298578063715018a61461031b57610116565b8063049b205b1461011b57806315ea88c41461015f5780632bc633b0146101a9578063329eb839146101c7575b600080fd5b61015d6004803603602081101561013157600080fd5b81019080803573ffffffffffffffffffffffffffffffffffffffff16906020019092919050505061054f565b005b6101676106ed565b604051808273ffffffffffffffffffffffffffffffffffffffff1673ffffffffffffffffffffffffffffffffffffffff16815260200191505060405180910390f35b6101b1610713565b6040518082815260200191505060405180910390f35b6101cf610719565b005b6101d9610ab8565b005b610252600480360360208110156101f157600080fd5b810190808035906020019064010000000081111561020e57600080fd5b82018360208201111561022057600080fd5b8035906020019184600183028401116401000000008311171561024257600080fd5b9091929391929390505050610eab565b005b6102966004803603602081101561026a57600080fd5b81019080803573ffffffffffffffffffffffffffffffffffffffff169060200190929190505050610f8a565b005b6102a0611128565b6040518080602001828103825283818151815260200191508051906020019080838360005b838110156102e05780820151818401526020810190506102c5565b50505050905090810190601f16801561030d5780820380516001836020036101000a031916815260200191505b509250505060405180910390f35b6103236111c6565b005b61032d61134e565b604051808273ffffffffffffffffffffffffffffffffffffffff1673ffffffffffffffffffffffffffffffffffffffff16815260200191505060405180910390f35b610377611374565b604051808273ffffffffffffffffffffffffffffffffffffffff1673ffffffffffffffffffffffffffffffffffffffff16815260200191505060405180910390f35b6103c161139a565b604051808273ffffffffffffffffffffffffffffffffffffffff1673ffffffffffffffffffffffffffffffffffffffff16815260200191505060405180910390f35b61042f6004803603602081101561041957600080fd5b81019080803590602001909291905050506113c3565b005b61045d6004803603602081101561044757600080fd5b810190808035906020019092919050505061150c565b005b610467611638565b6040518082815260200191505060405180910390f35b61048561163e565b604051808273ffffffffffffffffffffffffffffffffffffffff1673ffffffffffffffffffffffffffffffffffffffff16815260200191505060405180910390f35b610509600480360360208110156104dd57600080fd5b81019080803573ffffffffffffffffffffffffffffffffffffffff169060200190929190505050611664565b005b61054d6004803603602081101561052157600080fd5b81019080803573ffffffffffffffffffffffffffffffffffffffff169060200190929190505050611843565b005b610557611a50565b73ffffffffffffffffffffffffffffffffffffffff166000809054906101000a900473ffffffffffffffffffffffffffffffffffffffff1673ffffffffffffffffffffffffffffffffffffffff1614610618576040517f08c379a00000000000000000000000000000000000000000000000000000000081526004018080602001828103825260208152602001807f4f776e61626c653a2063616c6c6572206973206e6f7420746865206f776e657281525060200191505060405180910390fd5b6106378173ffffffffffffffffffffffffffffffffffffffff16611a58565b6106a9576040517f08c379a000000000000000000000000000000000000000000000000000000000815260040180806020018281038252601a8152602001807f49742773206e6f7420636f6e747261637420616464726573732100000000000081525060200191505060405180910390fd5b80600360006101000a81548173ffffffffffffffffffffffffffffffffffffffff021916908373ffffffffffffffffffffffffffffffffffffffff16021790555050565b600160009054906101000a900473ffffffffffffffffffffffffffffffffffffffff1681565b60065481565b60055480600360009054906101000a900473ffffffffffffffffffffffffffffffffffffffff1673ffffffffffffffffffffffffffffffffffffffff1663dd62ed3e33306040518363ffffffff1660e01b8152600401808373ffffffffffffffffffffffffffffffffffffffff1673ffffffffffffffffffffffffffffffffffffffff1681526020018273ffffffffffffffffffffffffffffffffffffffff1673ffffffffffffffffffffffffffffffffffffffff1681526020019250505060206040518083038186803b1580156107f057600080fd5b505afa158015610804573d6000803e3d6000fd5b505050506040513d602081101561081a57600080fd5b81019080805190602001909291905050501161089e576040517f08c379a00000000000000000000000000000000000000000000000000000000081526004018080602001828103825260188152602001807f416c6c6f77616e6365206973206e6f7420656e6f75676821000000000000000081525060200191505060405180910390fd5b80600360009054906101000a900473ffffffffffffffffffffffffffffffffffffffff1673ffffffffffffffffffffffffffffffffffffffff166370a08231336040518263ffffffff1660e01b8152600401808273ffffffffffffffffffffffffffffffffffffffff1673ffffffffffffffffffffffffffffffffffffffff16815260200191505060206040518083038186803b15801561093e57600080fd5b505afa158015610952573d6000803e3d6000fd5b505050506040513d602081101561096857600080fd5b8101908080519060200190929190505050116109ec576040517f08c379a000000000000000000000000000000000000000000000000000000000815260040180806020018281038252601d8152602001807f57616c6c65742062616c616e6365206973206e6f7420656e6f7567682100000081525060200191505060405180910390fd5b60006109f6611a6b565b905080610a41573373ffffffffffffffffffffffffffffffffffffffff167fa11b25bd936fddbe6d3ef9056a0da37ae243b87c72f36ee37304627e321e578e60405160405180910390a25b610ab433600460009054906101000a900473ffffffffffffffffffffffffffffffffffffffff16600554600360009054906101000a900473ffffffffffffffffffffffffffffffffffffffff1673ffffffffffffffffffffffffffffffffffffffff16611e55909392919063ffffffff16565b5050565b6064605f60ff16600a600554020281610acd57fe5b0480600360009054906101000a900473ffffffffffffffffffffffffffffffffffffffff1673ffffffffffffffffffffffffffffffffffffffff1663dd62ed3e33306040518363ffffffff1660e01b8152600401808373ffffffffffffffffffffffffffffffffffffffff1673ffffffffffffffffffffffffffffffffffffffff1681526020018273ffffffffffffffffffffffffffffffffffffffff1673ffffffffffffffffffffffffffffffffffffffff1681526020019250505060206040518083038186803b158015610ba257600080fd5b505afa158015610bb6573d6000803e3d6000fd5b505050506040513d6020811015610bcc57600080fd5b810190808051906020019092919050505011610c50576040517f08c379a00000000000000000000000000000000000000000000000000000000081526004018080602001828103825260188152602001807f416c6c6f77616e6365206973206e6f7420656e6f75676821000000000000000081525060200191505060405180910390fd5b80600360009054906101000a900473ffffffffffffffffffffffffffffffffffffffff1673ffffffffffffffffffffffffffffffffffffffff166370a08231336040518263ffffffff1660e01b8152600401808273ffffffffffffffffffffffffffffffffffffffff1673ffffffffffffffffffffffffffffffffffffffff16815260200191505060206040518083038186803b158015610cf057600080fd5b505afa158015610d04573d6000803e3d6000fd5b505050506040513d6020811015610d1a57600080fd5b810190808051906020019092919050505011610d9e576040517f08c379a000000000000000000000000000000000000000000000000000000000815260040180806020018281038252601d8152602001807f57616c6c65742062616c616e6365206973206e6f7420656e6f7567682100000081525060200191505060405180910390fd5b600080905060008090505b600a811015610dd7576000610dbc611a6b565b90508015610dc957600192505b508080600101915050610da9565b5080610e21573373ffffffffffffffffffffffffffffffffffffffff167fa11b25bd936fddbe6d3ef9056a0da37ae243b87c72f36ee37304627e321e578e60405160405180910390a25b610ea733600460009054906101000a900473ffffffffffffffffffffffffffffffffffffffff166064605f60ff16600a600554020281610e5d57fe5b04600360009054906101000a900473ffffffffffffffffffffffffffffffffffffffff1673ffffffffffffffffffffffffffffffffffffffff16611e55909392919063ffffffff16565b5050565b610eb3611a50565b73ffffffffffffffffffffffffffffffffffffffff166000809054906101000a900473ffffffffffffffffffffffffffffffffffffffff1673ffffffffffffffffffffffffffffffffffffffff1614610f74576040517f08c379a00000000000000000000000000000000000000000000000000000000081526004018080602001828103825260208152602001807f4f776e61626c653a2063616c6c6572206973206e6f7420746865206f776e657281525060200191505060405180910390fd5b818160079190610f859291906124a5565b505050565b610f92611a50565b73ffffffffffffffffffffffffffffffffffffffff166000809054906101000a900473ffffffffffffffffffffffffffffffffffffffff1673ffffffffffffffffffffffffffffffffffffffff1614611053576040517f08c379a00000000000000000000000000000000000000000000000000000000081526004018080602001828103825260208152602001807f4f776e61626c653a2063616c6c6572206973206e6f7420746865206f776e657281525060200191505060405180910390fd5b6110728173ffffffffffffffffffffffffffffffffffffffff16611a58565b6110e4576040517f08c379a000000000000000000000000000000000000000000000000000000000815260040180806020018281038252601a8152602001807f49742773206e6f7420636f6e747261637420616464726573732100000000000081525060200191505060405180910390fd5b80600460006101000a81548173ffffffffffffffffffffffffffffffffffffffff021916908373ffffffffffffffffffffffffffffffffffffffff16021790555050565b60078054600181600116156101000203166002900480601f0160208091040260200160405190810160405280929190818152602001828054600181600116156101000203166002900480156111be5780601f10611193576101008083540402835291602001916111be565b820191906000526020600020905b8154815290600101906020018083116111a157829003601f168201915b505050505081565b6111ce611a50565b73ffffffffffffffffffffffffffffffffffffffff166000809054906101000a900473ffffffffffffffffffffffffffffffffffffffff1673ffffffffffffffffffffffffffffffffffffffff161461128f576040517f08c379a00000000000000000000000000000000000000000000000000000000081526004018080602001828103825260208152602001807f4f776e61626c653a2063616c6c6572206973206e6f7420746865206f776e657281525060200191505060405180910390fd5b600073ffffffffffffffffffffffffffffffffffffffff166000809054906101000a900473ffffffffffffffffffffffffffffffffffffffff1673ffffffffffffffffffffffffffffffffffffffff167f8be0079c531659141344cd1fd0a4f28419497f9722a3daafe3b4186f6b6457e060405160405180910390a360008060006101000a81548173ffffffffffffffffffffffffffffffffffffffff021916908373ffffffffffffffffffffffffffffffffffffffff160217905550565b600360009054906101000a900473ffffffffffffffffffffffffffffffffffffffff1681565b600460009054906101000a900473ffffffffffffffffffffffffffffffffffffffff1681565b60008060009054906101000a900473ffffffffffffffffffffffffffffffffffffffff16905090565b6113cb611a50565b73ffffffffffffffffffffffffffffffffffffffff166000809054906101000a900473ffffffffffffffffffffffffffffffffffffffff1673ffffffffffffffffffffffffffffffffffffffff161461148c576040517f08c379a00000000000000000000000000000000000000000000000000000000081526004018080602001828103825260208152602001807f4f776e61626c653a2063616c6c6572206973206e6f7420746865206f776e657281525060200191505060405180910390fd5b60008111611502576040517f08c379a000000000000000000000000000000000000000000000000000000000815260040180806020018281038252601c8152602001807f5072696365206d7573742062652067726561746572207468616e20300000000081525060200191505060405180910390fd5b8060058190555050565b611514611a50565b73ffffffffffffffffffffffffffffffffffffffff166000809054906101000a900473ffffffffffffffffffffffffffffffffffffffff1673ffffffffffffffffffffffffffffffffffffffff16146115d5576040517f08c379a00000000000000000000000000000000000000000000000000000000081526004018080602001828103825260208152602001807f4f776e61626c653a2063616c6c6572206973206e6f7420746865206f776e657281525060200191505060405180910390fd5b6000811161162e576040517f08c379a00000000000000000000000000000000000000000000000000000000081526004018080602001828103825260228152602001806125716022913960400191505060405180910390fd5b8060068190555050565b60055481565b600260009054906101000a900473ffffffffffffffffffffffffffffffffffffffff1681565b61166c611a50565b73ffffffffffffffffffffffffffffffffffffffff166000809054906101000a900473ffffffffffffffffffffffffffffffffffffffff1673ffffffffffffffffffffffffffffffffffffffff161461172d576040517f08c379a00000000000000000000000000000000000000000000000000000000081526004018080602001828103825260208152602001807f4f776e61626c653a2063616c6c6572206973206e6f7420746865206f776e657281525060200191505060405180910390fd5b61174c8173ffffffffffffffffffffffffffffffffffffffff16611a58565b6117be576040517f08c379a000000000000000000000000000000000000000000000000000000000815260040180806020018281038252601a8152602001807f49742773206e6f7420636f6e747261637420616464726573732100000000000081525060200191505060405180910390fd5b80600160006101000a81548173ffffffffffffffffffffffffffffffffffffffff021916908373ffffffffffffffffffffffffffffffffffffffff16021790555080600260006101000a81548173ffffffffffffffffffffffffffffffffffffffff021916908373ffffffffffffffffffffffffffffffffffffffff16021790555050565b61184b611a50565b73ffffffffffffffffffffffffffffffffffffffff166000809054906101000a900473ffffffffffffffffffffffffffffffffffffffff1673ffffffffffffffffffffffffffffffffffffffff161461190c576040517f08c379a00000000000000000000000000000000000000000000000000000000081526004018080602001828103825260208152602001807f4f776e61626c653a2063616c6c6572206973206e6f7420746865206f776e657281525060200191505060405180910390fd5b600073ffffffffffffffffffffffffffffffffffffffff168173ffffffffffffffffffffffffffffffffffffffff161415611992576040517f08c379a000000000000000000000000000000000000000000000000000000000815260040180806020018281038252602681526020018061254b6026913960400191505060405180910390fd5b8073ffffffffffffffffffffffffffffffffffffffff166000809054906101000a900473ffffffffffffffffffffffffffffffffffffffff1673ffffffffffffffffffffffffffffffffffffffff167f8be0079c531659141344cd1fd0a4f28419497f9722a3daafe3b4186f6b6457e060405160405180910390a3806000806101000a81548173ffffffffffffffffffffffffffffffffffffffff021916908373ffffffffffffffffffffffffffffffffffffffff16021790555050565b600033905090565b600080823b905060008111915050919050565b60006103e8600260009054906101000a900473ffffffffffffffffffffffffffffffffffffffff1673ffffffffffffffffffffffffffffffffffffffff166318160ddd6040518163ffffffff1660e01b815260040160206040518083038186803b158015611ad857600080fd5b505afa158015611aec573d6000803e3d6000fd5b505050506040513d6020811015611b0257600080fd5b81019080805190602001909291905050501115611b87576040517f08c379a00000000000000000000000000000000000000000000000000000000081526004018080602001828103825260208152602001807f43616e6e6f7420637265617465206d6f7265204e465420616e79206d6f72652181525060200191505060405180910390fd5b6000600260009054906101000a900473ffffffffffffffffffffffffffffffffffffffff1673ffffffffffffffffffffffffffffffffffffffff166318160ddd6040518163ffffffff1660e01b815260040160206040518083038186803b158015611bf157600080fd5b505afa158015611c05573d6000803e3d6000fd5b505050506040513d6020811015611c1b57600080fd5b8101908080519060200190929190505050905060006006549050600b821015611c48576006549050611cc5565b6015821015611c5e576002600654029050611cc4565b6033821015611c74576004600654029050611cc3565b6065821015611c8a576008600654029050611cc2565b60c9821015611ca0576010600654029050611cc1565b6101f5821015611cb7576020600654029050611cc0565b60406006540290505b5b5b5b5b5b6008600081548092919060010191905055506000600460ff16600460ff1683020260024233600854604051602001808481526020018373ffffffffffffffffffffffffffffffffffffffff1673ffffffffffffffffffffffffffffffffffffffff1660601b815260140182815260200193505050506040516020818303038152906040526040518082805190602001908083835b60208310611d7c5780518252602082019150602081019050602083039250611d59565b6001836020036101000a038019825116818451168082178552505050505050905001915050602060405180830381855afa158015611dbe573d6000803e3d6000fd5b5050506040513d6020811015611dd357600080fd5b810190808051906020019092919050505060001c81611dee57fe5b0690506004800260ff16811015611e4a576000811415611e1757611e126003611f42565b611e3e565b600460ff16811015611e3257611e2d6002611f42565b611e3d565b611e3c6001611f42565b5b5b60019350505050611e52565b600093505050505b90565b611f3c846323b872dd60e01b858585604051602401808473ffffffffffffffffffffffffffffffffffffffff1673ffffffffffffffffffffffffffffffffffffffff1681526020018373ffffffffffffffffffffffffffffffffffffffff1673ffffffffffffffffffffffffffffffffffffffff1681526020018281526020019350505050604051602081830303815290604052907bffffffffffffffffffffffffffffffffffffffffffffffffffffffff19166020820180517bffffffffffffffffffffffffffffffffffffffffffffffffffffffff8381831617835250505050612198565b50505050565b6000600260009054906101000a900473ffffffffffffffffffffffffffffffffffffffff1673ffffffffffffffffffffffffffffffffffffffff166318160ddd6040518163ffffffff1660e01b815260040160206040518083038186803b158015611fac57600080fd5b505afa158015611fc0573d6000803e3d6000fd5b505050506040513d6020811015611fd657600080fd5b810190808051906020019092919050505090506000600182019050600160009054906101000a900473ffffffffffffffffffffffffffffffffffffffff1673ffffffffffffffffffffffffffffffffffffffff1663644acc6033838660076040518563ffffffff1660e01b8152600401808573ffffffffffffffffffffffffffffffffffffffff1673ffffffffffffffffffffffffffffffffffffffff1681526020018481526020018360ff1660ff168152602001806020018281038252838181546001816001161561010002031660029004815260200191508054600181600116156101000203166002900480156121105780601f106120e557610100808354040283529160200191612110565b820191906000526020600020905b8154815290600101906020018083116120f357829003601f168201915b505095505050505050600060405180830381600087803b15801561213357600080fd5b505af1158015612147573d6000803e3d6000fd5b505050508260ff16813373ffffffffffffffffffffffffffffffffffffffff167ff1fdafe85c8e689e94a05437caf59e85e24ded6101fd5edf045c1e98befb2dc860405160405180910390a4505050565b60606121fa826040518060400160405280602081526020017f5361666545524332303a206c6f772d6c6576656c2063616c6c206661696c65648152508573ffffffffffffffffffffffffffffffffffffffff166122879092919063ffffffff16565b90506000815111156122825780806020019051602081101561221b57600080fd5b8101908080519060200190929190505050612281576040517f08c379a000000000000000000000000000000000000000000000000000000000815260040180806020018281038252602a815260200180612593602a913960400191505060405180910390fd5b5b505050565b6060612296848460008561229f565b90509392505050565b60606122aa85611a58565b61231c576040517f08c379a000000000000000000000000000000000000000000000000000000000815260040180806020018281038252601d8152602001807f416464726573733a2063616c6c20746f206e6f6e2d636f6e747261637400000081525060200191505060405180910390fd5b600060608673ffffffffffffffffffffffffffffffffffffffff1685876040518082805190602001908083835b6020831061236c5780518252602082019150602081019050602083039250612349565b6001836020036101000a03801982511681845116808217855250505050505090500191505060006040518083038185875af1925050503d80600081146123ce576040519150601f19603f3d011682016040523d82523d6000602084013e6123d3565b606091505b509150915081156123e857809250505061249d565b6000815111156123fb5780518082602001fd5b836040517f08c379a00000000000000000000000000000000000000000000000000000000081526004018080602001828103825283818151815260200191508051906020019080838360005b83811015612462578082015181840152602081019050612447565b50505050905090810190601f16801561248f5780820380516001836020036101000a031916815260200191505b509250505060405180910390fd5b949350505050565b828054600181600116156101000203166002900490600052602060002090601f016020900481019282601f106124e657803560ff1916838001178555612514565b82800160010185558215612514579182015b828111156125135782358255916020019190600101906124f8565b5b5090506125219190612525565b5090565b61254791905b8082111561254357600081600090555060010161252b565b5090565b9056fe4f776e61626c653a206e6577206f776e657220697320746865207a65726f2061646472657373506f736962696c697479206d7573742062652067726561746572207468616e2030215361666545524332303a204552433230206f7065726174696f6e20646964206e6f742073756363656564a2646970667358221220e537bcb13d4a0a87151f2e80fc5614830ff491d6fd072ba98daae3b7887911d764736f6c63430006020033",
  "source": "pragma solidity ^0.6.0;\n\nimport \"@openzeppelin/contracts/token/ERC721/IERC721Enumerable.sol\";\nimport \"../common/hotpotinterface.sol\";\nimport \"@openzeppelin/contracts/math/Math.sol\";\nimport \"@openzeppelin/contracts/math/SafeMath.sol\";\nimport \"@openzeppelin/contracts/token/ERC20/IERC20.sol\";\nimport \"@openzeppelin/contracts/token/ERC20/SafeERC20.sol\";\nimport \"@openzeppelin/contracts/access/Ownable.sol\";\nimport \"@openzeppelin/contracts/utils/Address.sol\";\n\ncontract Gacha is Ownable {\n    using SafeMath for uint256;\n    using SafeERC20 for IERC20;\n    using Address for address;\n\n    IHotPot public hotpot;\n    IERC721Enumerable public erc721;\n    IERC20 public erc20;\n\n    address public rewardAddress;\n\n    uint256 public price = 100000;\n\n    uint8 constant gradeNormal = 1;\n\n    uint8 constant gradeVIP = 2;\n\n    uint8 constant gradeVVIP = 3;\n\n    uint8 constant discount10Pull = 95;\n\n    uint8 constant posibilityDevide = 4;\n\n    uint256 public initPosibility = 8;\n\n    uint256 constant MAX_NFT = 1000;\n\n    string public baseURI = \"\";\n\n    uint256 internal randomSeed = 0;\n\n    event GachaTicket(\n        address indexed _owner,\n        uint256 indexed _tokenId,\n        uint8 indexed _grade\n    );\n\n    event GachaNothing(address indexed _owner);\n\n    // event GachaRandom(uint256 indexed _random);\n\n    // event GachaStart(uint256 _total);\n\n    modifier ensurePull(uint256 _price) {\n        // check allowance\n        require(\n            erc20.allowance(msg.sender, address(this)) > _price,\n            \"Allowance is not enough!\"\n        );\n        // check balance\n        require(\n            erc20.balanceOf(msg.sender) > _price,\n            \"Wallet balance is not enough!\"\n        );\n        _;\n    }\n\n    /**\n        ensure NFT amount is less than 1000\n     */\n    modifier checkNFTCount() {\n        require(\n            erc721.totalSupply() <= MAX_NFT,\n            \"Cannot create more NFT any more!\"\n        );\n        _;\n    }\n\n    function setPosibility(uint256 _posibility) external onlyOwner {\n        require(_posibility > 0, \"Posibility must be greater than 0!\");\n        initPosibility = _posibility;\n    }\n\n    function setRewardAddress(address _addr) external onlyOwner {\n        require(_addr.isContract(), \"It's not contract address!\");\n        rewardAddress = _addr;\n    }\n\n    function setBaseURI(string calldata _uri) external onlyOwner {\n        baseURI = _uri;\n    }\n\n    function setHotPotTicket(address _addr) external onlyOwner {\n        require(_addr.isContract(), \"It's not contract address!\");\n\n        hotpot = IHotPot(_addr);\n        erc721 = IERC721Enumerable(_addr);\n    }\n\n    function setHotPot(address _addr) external onlyOwner {\n        require(_addr.isContract(), \"It's not contract address!\");\n        erc20 = IERC20(_addr);\n    }\n\n    function setPrice(uint256 _price) external onlyOwner {\n        require(_price > 0, \"Price must be greater than 0\");\n\n        price = _price;\n    }\n\n    constructor(\n        uint256 _price,\n        uint256 _posibility,\n        address _reward,\n        address _nft,\n        address _hotpot\n    ) public {\n        initPosibility = _posibility;\n        price = _price;\n\n        require(_reward != address(0));\n        require(_nft != address(0));\n        require(_hotpot != address(0));\n        require(_nft.isContract(), \"It's not contract address!\");\n        require(_reward.isContract(), \"It's not contract address!\");\n        require(_hotpot.isContract(), \"It's not contract address!\");\n\n        erc20 = IERC20(_hotpot);\n        hotpot = IHotPot(_nft);\n        erc721 = IERC721Enumerable(_nft);\n        rewardAddress = _reward;\n    }\n\n    /**\n        1 pull\n     */\n    function pull() external ensurePull(price) {\n        bool res = _pull();\n        if (!res) {\n            emit GachaNothing(msg.sender);\n        }\n        //1. get token first\n        erc20.safeTransferFrom(msg.sender, rewardAddress, price);\n    }\n\n    /**\n        10 pulls\n     */\n    function pull10() external ensurePull((price * 10 * discount10Pull) / 100) {\n        bool gacha = false;\n        for (uint256 i = 0; i < 10; i++) {\n            bool res = _pull();\n            if (res) {\n                gacha = true;\n            }\n        }\n        if (!gacha) {\n            emit GachaNothing(msg.sender);\n        }\n        //1. get token first\n        erc20.safeTransferFrom(\n            msg.sender,\n            rewardAddress,\n            (price * 10 * discount10Pull) / 100\n        );\n    }\n\n    /**\n        trigger 1 pull\n     */\n    function _pull() internal checkNFTCount returns (bool) {\n        //1.check the nft amount\n        uint256 count = erc721.totalSupply();\n        // emit GachaStart(count);\n        uint256 posibility = initPosibility;\n        if (count < 11) {\n            posibility = initPosibility; //8\n        } else if (count < 21) {\n            posibility = initPosibility * 2; //16\n        } else if (count < 51) {\n            posibility = initPosibility * 4; //32\n        } else if (count < 101) {\n            posibility = initPosibility * 8; //64\n        } else if (count < 201) {\n            posibility = initPosibility * 16; //128\n        } else if (count < 501) {\n            posibility = initPosibility * 32; //256\n        } else {\n            posibility = initPosibility * 64; //512\n        }\n\n        randomSeed++;\n        //generate random number\n        //it is not that safe\n        uint256 random = uint256(\n            sha256(abi.encodePacked(now, msg.sender, randomSeed))\n        ) % (posibility * posibilityDevide * posibilityDevide);\n\n        // emit GachaRandom(random);\n\n        if (random < posibilityDevide * posibilityDevide) {\n            if (random == 0) {\n                //generate grade 3\n                _generateNFT(gradeVVIP);\n            } else if (random < posibilityDevide) {\n                //generate grade 2\n                _generateNFT(gradeVIP);\n            } else {\n                //generate grade 1\n                _generateNFT(gradeNormal);\n            }\n            return true;\n        } else {\n            return false;\n        }\n    }\n\n    function _generateNFT(uint8 _grade) internal {\n        uint256 count = erc721.totalSupply();\n        uint256 tokenId = count + 1;\n        hotpot.mint(msg.sender, tokenId, _grade, baseURI);\n        emit GachaTicket(msg.sender, tokenId, _grade);\n    }\n}\n",
  "sourcePath": "/Users/junhu/git/hotpotcontract/truffle/contracts/gacha/Gacha.sol",
  "compiler": {
    "name": "solc",
    "version": "0.6.2+commit.bacdbe57.Emscripten.clang"
  },
  "schemaVersion": "3.3.0",
  "updatedAt": "2020-10-18T09:35:18.119Z",
  "networkType": "ethereum",
  "devdoc": {
    "methods": {
      "owner()": {
        "details": "Returns the address of the current owner."
      },
      "renounceOwnership()": {
        "details": "Leaves the contract without owner. It will not be possible to call `onlyOwner` functions anymore. Can only be called by the current owner.     * NOTE: Renouncing ownership will leave the contract without an owner, thereby removing any functionality that is only available to the owner."
      },
      "transferOwnership(address)": {
        "details": "Transfers ownership of the contract to a new account (`newOwner`). Can only be called by the current owner."
      }
    }
  },
  "userdoc": {
    "methods": {
      "pull()": {
        "notice": "1 pull"
      },
      "pull10()": {
        "notice": "10 pulls"
      }
    }
  }
}