{
  "contractName": "Gacha",
  "abi": [
    {
      "inputs": [
        {
          "internalType": "uint256",
          "name": "_price",
          "type": "uint256"
        },
        {
          "internalType": "uint256",
          "name": "_posibility",
          "type": "uint256"
        },
        {
          "internalType": "address",
          "name": "_reward",
          "type": "address"
        },
        {
          "internalType": "address",
          "name": "_nft",
          "type": "address"
        },
        {
          "internalType": "address",
          "name": "_hotpot",
          "type": "address"
        },
        {
          "internalType": "address",
          "name": "_invite",
          "type": "address"
        }
      ],
      "stateMutability": "nonpayable",
      "type": "constructor"
    },
    {
      "anonymous": false,
      "inputs": [
        {
          "indexed": true,
          "internalType": "address",
          "name": "_owner",
          "type": "address"
        }
      ],
      "name": "GachaNothing",
      "type": "event"
    },
    {
      "anonymous": false,
      "inputs": [
        {
          "indexed": true,
          "internalType": "address",
          "name": "_owner",
          "type": "address"
        },
        {
          "indexed": true,
          "internalType": "uint256",
          "name": "_tokenId",
          "type": "uint256"
        },
        {
          "indexed": true,
          "internalType": "uint8",
          "name": "_grade",
          "type": "uint8"
        }
      ],
      "name": "GachaTicket",
      "type": "event"
    },
    {
      "anonymous": false,
      "inputs": [
        {
          "indexed": true,
          "internalType": "address",
          "name": "previousOwner",
          "type": "address"
        },
        {
          "indexed": true,
          "internalType": "address",
          "name": "newOwner",
          "type": "address"
        }
      ],
      "name": "OwnershipTransferred",
      "type": "event"
    },
    {
      "anonymous": false,
      "inputs": [
        {
          "indexed": false,
          "internalType": "address",
          "name": "account",
          "type": "address"
        }
      ],
      "name": "Paused",
      "type": "event"
    },
    {
      "anonymous": false,
      "inputs": [
        {
          "indexed": false,
          "internalType": "address",
          "name": "account",
          "type": "address"
        }
      ],
      "name": "Unpaused",
      "type": "event"
    },
    {
      "inputs": [],
      "name": "baseURI",
      "outputs": [
        {
          "internalType": "string",
          "name": "",
          "type": "string"
        }
      ],
      "stateMutability": "view",
      "type": "function",
      "constant": true
    },
    {
      "inputs": [],
      "name": "erc20",
      "outputs": [
        {
          "internalType": "contract IERC20",
          "name": "",
          "type": "address"
        }
      ],
      "stateMutability": "view",
      "type": "function",
      "constant": true
    },
    {
      "inputs": [],
      "name": "erc721",
      "outputs": [
        {
          "internalType": "contract IERC721Enumerable",
          "name": "",
          "type": "address"
        }
      ],
      "stateMutability": "view",
      "type": "function",
      "constant": true
    },
    {
      "inputs": [],
      "name": "hotpot",
      "outputs": [
        {
          "internalType": "contract IHotPot",
          "name": "",
          "type": "address"
        }
      ],
      "stateMutability": "view",
      "type": "function",
      "constant": true
    },
    {
      "inputs": [],
      "name": "initPosibility",
      "outputs": [
        {
          "internalType": "uint256",
          "name": "",
          "type": "uint256"
        }
      ],
      "stateMutability": "view",
      "type": "function",
      "constant": true
    },
    {
      "inputs": [],
      "name": "invite",
      "outputs": [
        {
          "internalType": "contract IInvite",
          "name": "",
          "type": "address"
        }
      ],
      "stateMutability": "view",
      "type": "function",
      "constant": true
    },
    {
      "inputs": [],
      "name": "owner",
      "outputs": [
        {
          "internalType": "address",
          "name": "",
          "type": "address"
        }
      ],
      "stateMutability": "view",
      "type": "function",
      "constant": true
    },
    {
      "inputs": [],
      "name": "paused",
      "outputs": [
        {
          "internalType": "bool",
          "name": "",
          "type": "bool"
        }
      ],
      "stateMutability": "view",
      "type": "function",
      "constant": true
    },
    {
      "inputs": [],
      "name": "price",
      "outputs": [
        {
          "internalType": "uint256",
          "name": "",
          "type": "uint256"
        }
      ],
      "stateMutability": "view",
      "type": "function",
      "constant": true
    },
    {
      "inputs": [],
      "name": "renounceOwnership",
      "outputs": [],
      "stateMutability": "nonpayable",
      "type": "function"
    },
    {
      "inputs": [],
      "name": "rewardAddress",
      "outputs": [
        {
          "internalType": "address",
          "name": "",
          "type": "address"
        }
      ],
      "stateMutability": "view",
      "type": "function",
      "constant": true
    },
    {
      "inputs": [
        {
          "internalType": "address",
          "name": "newOwner",
          "type": "address"
        }
      ],
      "name": "transferOwnership",
      "outputs": [],
      "stateMutability": "nonpayable",
      "type": "function"
    },
    {
      "inputs": [
        {
          "internalType": "address",
          "name": "_addr",
          "type": "address"
        }
      ],
      "name": "setRewardAddress",
      "outputs": [],
      "stateMutability": "nonpayable",
      "type": "function"
    },
    {
      "inputs": [
        {
          "internalType": "string",
          "name": "_uri",
          "type": "string"
        }
      ],
      "name": "setBaseURI",
      "outputs": [],
      "stateMutability": "nonpayable",
      "type": "function"
    },
    {
      "inputs": [
        {
          "internalType": "address",
          "name": "_addr",
          "type": "address"
        }
      ],
      "name": "setHotPotNFT",
      "outputs": [],
      "stateMutability": "nonpayable",
      "type": "function"
    },
    {
      "inputs": [
        {
          "internalType": "address",
          "name": "_addr",
          "type": "address"
        }
      ],
      "name": "setHotPot",
      "outputs": [],
      "stateMutability": "nonpayable",
      "type": "function"
    },
    {
      "inputs": [
        {
          "internalType": "address",
          "name": "_addr",
          "type": "address"
        }
      ],
      "name": "setInvite",
      "outputs": [],
      "stateMutability": "nonpayable",
      "type": "function"
    },
    {
      "inputs": [],
      "name": "pull",
      "outputs": [],
      "stateMutability": "nonpayable",
      "type": "function"
    },
    {
      "inputs": [],
      "name": "pull10",
      "outputs": [],
      "stateMutability": "nonpayable",
      "type": "function"
    },
    {
      "inputs": [],
      "name": "getPosibilityNow",
      "outputs": [
        {
          "internalType": "uint256",
          "name": "",
          "type": "uint256"
        }
      ],
      "stateMutability": "view",
      "type": "function",
      "constant": true
    },
    {
      "inputs": [],
      "name": "pause",
      "outputs": [],
      "stateMutability": "nonpayable",
      "type": "function"
    },
    {
      "inputs": [],
      "name": "unpause",
      "outputs": [],
      "stateMutability": "nonpayable",
      "type": "function"
    }
  ],
  "bytecode": "0x60016007556008805560a060408190526000608081905262000024916009916200032d565b506001600a553480156200003757600080fd5b50604051620022e8380380620022e8833981810160405260c08110156200005d57600080fd5b508051602082015160408301516060840151608085015160a09095015193949293919290916000620000976001600160e01b036200032216565b600080546001600160a01b0319166001600160a01b0383169081178255604051929350917f8be0079c531659141344cd1fd0a4f28419497f9722a3daafe3b4186f6b6457e0908290a350600180556002805460ff19169055600885905560078690556001600160a01b0384166200010d57600080fd5b6001600160a01b0383166200012157600080fd5b6001600160a01b0382166200013557600080fd5b62000154836001600160a01b03166200032760201b620013451760201c565b62000195576040805162461bcd60e51b815260206004820152601a6024820152600080516020620022c8833981519152604482015290519081900360640190fd5b620001b4846001600160a01b03166200032760201b620013451760201c565b620001f5576040805162461bcd60e51b815260206004820152601a6024820152600080516020620022c8833981519152604482015290519081900360640190fd5b62000214826001600160a01b03166200032760201b620013451760201c565b62000255576040805162461bcd60e51b815260206004820152601a6024820152600080516020620022c8833981519152604482015290519081900360640190fd5b62000274816001600160a01b03166200032760201b620013451760201c565b620002b5576040805162461bcd60e51b815260206004820152601a6024820152600080516020620022c8833981519152604482015290519081900360640190fd5b600480546001600160a01b03199081166001600160a01b039485161790915560028054610100600160a81b03191661010095851695860217905560038054821690941790935560058054841691831691909117905560068054909216921691909117905550620003cf9050565b335b90565b3b151590565b828054600181600116156101000203166002900490600052602060002090601f016020900481019282601f106200037057805160ff1916838001178555620003a0565b82800160010185558215620003a0579182015b82811115620003a057825182559160200191906001019062000383565b50620003ae929150620003b2565b5090565b6200032491905b80821115620003ae5760008155600101620003b9565b611ee980620003df6000396000f3fe608060405234801561001057600080fd5b50600436106101825760003560e01c8063715018a6116100d8578063a035b1fe1161008c578063cc013b4411610066578063cc013b44146103b8578063eec30bfd146103c0578063f2fde38b146103c857610182565b8063a035b1fe14610382578063b6dd044d1461038a578063bca6ce64146103b057610182565b80638456cb59116100bd5780638456cb591461036a5780638cf57cb9146103725780638da5cb5b1461037a57610182565b8063715018a61461035a578063785e9e861461036257610182565b80633f4ba83a1161013a5780635cab2c08116101145780635cab2c08146102915780635e00e679146102b75780636c0360eb146102dd57610182565b80633f4ba83a146101fd57806355f804b3146102055780635c975abb1461027557610182565b80632bc633b01161016b5780632bc633b0146101d3578063329eb839146101ed5780633ea01982146101f557610182565b8063049b205b1461018757806315ea88c4146101af575b600080fd5b6101ad6004803603602081101561019d57600080fd5b50356001600160a01b03166103ee565b005b6101b76104f5565b604080516001600160a01b039092168252519081900360200190f35b6101db610509565b60408051918252519081900360200190f35b6101ad61050f565b6101ad610816565b6101ad610a9c565b6101ad6004803603602081101561021b57600080fd5b81019060208101813564010000000081111561023657600080fd5b82018360208201111561024857600080fd5b8035906020019184600183028401116401000000008311171561026a57600080fd5b509092509050610b10565b61027d610b8b565b604080519115158252519081900360200190f35b6101ad600480360360208110156102a757600080fd5b50356001600160a01b0316610b95565b6101ad600480360360208110156102cd57600080fd5b50356001600160a01b0316610c9c565b6102e5610da3565b6040805160208082528351818301528351919283929083019185019080838360005b8381101561031f578181015183820152602001610307565b50505050905090810190601f16801561034c5780820380516001836020036101000a031916815260200191505b509250505060405180910390f35b6101ad610e4f565b6101b7610f1b565b6101ad610f2a565b6101b7610f9c565b6101b7610fab565b6101db610fba565b6101ad600480360360208110156103a057600080fd5b50356001600160a01b0316610fc0565b6101b76110f5565b6101db611104565b6101b7611210565b6101ad600480360360208110156103de57600080fd5b50356001600160a01b031661121f565b6103f6611341565b6000546001600160a01b03908116911614610458576040805162461bcd60e51b815260206004820181905260248201527f4f776e61626c653a2063616c6c6572206973206e6f7420746865206f776e6572604482015290519081900360640190fd5b61046a816001600160a01b0316611345565b6104bb576040805162461bcd60e51b815260206004820152601a60248201527f49742773206e6f7420636f6e7472616374206164647265737321000000000000604482015290519081900360640190fd5b600480547fffffffffffffffffffffffff0000000000000000000000000000000000000000166001600160a01b0392909216919091179055565b60025461010090046001600160a01b031681565b60085481565b60075460048054604080517f70a0823100000000000000000000000000000000000000000000000000000000815233938101939093525183926001600160a01b03909216916370a08231916024808301926020929190829003018186803b15801561057957600080fd5b505afa15801561058d573d6000803e3d6000fd5b505050506040513d60208110156105a357600080fd5b505110156105f8576040805162461bcd60e51b815260206004820152601d60248201527f57616c6c65742062616c616e6365206973206e6f7420656e6f75676821000000604482015290519081900360640190fd5b60026001541415610650576040805162461bcd60e51b815260206004820152601f60248201527f5265656e7472616e637947756172643a207265656e7472616e742063616c6c00604482015290519081900360640190fd5b600260018190555460ff16156106ad576040805162461bcd60e51b815260206004820152601060248201527f5061757361626c653a2070617573656400000000000000000000000000000000604482015290519081900360640190fd5b60006106b761134b565b9050806106ea5760405133907fa11b25bd936fddbe6d3ef9056a0da37ae243b87c72f36ee37304627e321e578e90600090a25b600654600754600454610714926001600160a01b039182169233929091169063ffffffff6115f716565b600554604080517fe400423500000000000000000000000000000000000000000000000000000000815233600482015290516001600160a01b039092169163e40042359160248082019260009290919082900301818387803b15801561077957600080fd5b505af115801561078d573d6000803e3d6000fd5b5050600554604080517f1299a2e200000000000000000000000000000000000000000000000000000000815233600482015290516001600160a01b039092169350631299a2e2925060248082019260009290919082900301818387803b1580156107f657600080fd5b505af115801561080a573d6000803e3d6000fd5b50506001805550505050565b6108516064610845605f60ff16610839600a60075461168590919063ffffffff16565b9063ffffffff61168516565b9063ffffffff6116e716565b60048054604080517f70a0823100000000000000000000000000000000000000000000000000000000815233938101939093525183926001600160a01b03909216916370a08231916024808301926020929190829003018186803b1580156108b857600080fd5b505afa1580156108cc573d6000803e3d6000fd5b505050506040513d60208110156108e257600080fd5b50511015610937576040805162461bcd60e51b815260206004820152601d60248201527f57616c6c65742062616c616e6365206973206e6f7420656e6f75676821000000604482015290519081900360640190fd5b6002600154141561098f576040805162461bcd60e51b815260206004820152601f60248201527f5265656e7472616e637947756172643a207265656e7472616e742063616c6c00604482015290519081900360640190fd5b600260018190555460ff16156109ec576040805162461bcd60e51b815260206004820152601060248201527f5061757361626c653a2070617573656400000000000000000000000000000000604482015290519081900360640190fd5b6000805b600a811015610a19576000610a0361134b565b90508015610a1057600192505b506001016109f0565b5080610a4b5760405133907fa11b25bd936fddbe6d3ef9056a0da37ae243b87c72f36ee37304627e321e578e90600090a25b6006546007546107149133916001600160a01b0390911690610a829060649061084590605f9061083990600a63ffffffff61168516565b6004546001600160a01b031692919063ffffffff6115f716565b610aa4611341565b6000546001600160a01b03908116911614610b06576040805162461bcd60e51b815260206004820181905260248201527f4f776e61626c653a2063616c6c6572206973206e6f7420746865206f776e6572604482015290519081900360640190fd5b610b0e611729565b565b610b18611341565b6000546001600160a01b03908116911614610b7a576040805162461bcd60e51b815260206004820181905260248201527f4f776e61626c653a2063616c6c6572206973206e6f7420746865206f776e6572604482015290519081900360640190fd5b610b8660098383611d8c565b505050565b60025460ff165b90565b610b9d611341565b6000546001600160a01b03908116911614610bff576040805162461bcd60e51b815260206004820181905260248201527f4f776e61626c653a2063616c6c6572206973206e6f7420746865206f776e6572604482015290519081900360640190fd5b610c11816001600160a01b0316611345565b610c62576040805162461bcd60e51b815260206004820152601a60248201527f49742773206e6f7420636f6e7472616374206164647265737321000000000000604482015290519081900360640190fd5b600580547fffffffffffffffffffffffff0000000000000000000000000000000000000000166001600160a01b0392909216919091179055565b610ca4611341565b6000546001600160a01b03908116911614610d06576040805162461bcd60e51b815260206004820181905260248201527f4f776e61626c653a2063616c6c6572206973206e6f7420746865206f776e6572604482015290519081900360640190fd5b610d18816001600160a01b0316611345565b610d69576040805162461bcd60e51b815260206004820152601a60248201527f49742773206e6f7420636f6e7472616374206164647265737321000000000000604482015290519081900360640190fd5b600680547fffffffffffffffffffffffff0000000000000000000000000000000000000000166001600160a01b0392909216919091179055565b6009805460408051602060026001851615610100027fffffffffffffffffffffffffffffffffffffffffffffffffffffffffffffffff0190941693909304601f81018490048402820184019092528181529291830182828015610e475780601f10610e1c57610100808354040283529160200191610e47565b820191906000526020600020905b815481529060010190602001808311610e2a57829003601f168201915b505050505081565b610e57611341565b6000546001600160a01b03908116911614610eb9576040805162461bcd60e51b815260206004820181905260248201527f4f776e61626c653a2063616c6c6572206973206e6f7420746865206f776e6572604482015290519081900360640190fd5b600080546040516001600160a01b03909116907f8be0079c531659141344cd1fd0a4f28419497f9722a3daafe3b4186f6b6457e0908390a3600080547fffffffffffffffffffffffff0000000000000000000000000000000000000000169055565b6004546001600160a01b031681565b610f32611341565b6000546001600160a01b03908116911614610f94576040805162461bcd60e51b815260206004820181905260248201527f4f776e61626c653a2063616c6c6572206973206e6f7420746865206f776e6572604482015290519081900360640190fd5b610b0e6117ee565b6006546001600160a01b031681565b6000546001600160a01b031690565b60075481565b610fc8611341565b6000546001600160a01b0390811691161461102a576040805162461bcd60e51b815260206004820181905260248201527f4f776e61626c653a2063616c6c6572206973206e6f7420746865206f776e6572604482015290519081900360640190fd5b61103c816001600160a01b0316611345565b61108d576040805162461bcd60e51b815260206004820152601a60248201527f49742773206e6f7420636f6e7472616374206164647265737321000000000000604482015290519081900360640190fd5b600280547fffffffffffffffffffffff0000000000000000000000000000000000000000ff166101006001600160a01b0393909316928302179055600380547fffffffffffffffffffffffff0000000000000000000000000000000000000000169091179055565b6003546001600160a01b031681565b600080600360009054906101000a90046001600160a01b03166001600160a01b03166318160ddd6040518163ffffffff1660e01b815260040160206040518083038186803b15801561115557600080fd5b505afa158015611169573d6000803e3d6000fd5b505050506040513d602081101561117f57600080fd5b5051600854909150600b821015611199575060085461120a565b60158210156111ae575060085460020261120a565b60338210156111c3575060085460040261120a565b60658210156111d75750600880540261120a565b60c98210156111ec575060085460100261120a565b6101f5821015611202575060085460200261120a565b506008546040025b91505090565b6005546001600160a01b031681565b611227611341565b6000546001600160a01b03908116911614611289576040805162461bcd60e51b815260206004820181905260248201527f4f776e61626c653a2063616c6c6572206973206e6f7420746865206f776e6572604482015290519081900360640190fd5b6001600160a01b0381166112ce5760405162461bcd60e51b8152600401808060200182810382526026815260200180611e436026913960400191505060405180910390fd5b600080546040516001600160a01b03808516939216917f8be0079c531659141344cd1fd0a4f28419497f9722a3daafe3b4186f6b6457e091a3600080547fffffffffffffffffffffffff0000000000000000000000000000000000000000166001600160a01b0392909216919091179055565b3390565b3b151590565b60006103e8600360009054906101000a90046001600160a01b03166001600160a01b03166318160ddd6040518163ffffffff1660e01b815260040160206040518083038186803b15801561139e57600080fd5b505afa1580156113b2573d6000803e3d6000fd5b505050506040513d60208110156113c857600080fd5b5051111561141d576040805162461bcd60e51b815260206004820181905260248201527f43616e6e6f7420637265617465206d6f7265204e465420616e79206d6f726521604482015290519081900360640190fd5b6000306001600160a01b031663cc013b446040518163ffffffff1660e01b815260040160206040518083038186803b15801561145857600080fd5b505afa15801561146c573d6000803e3d6000fd5b505050506040513d602081101561148257600080fd5b5051600a805460029081019182905560408051426020828101919091528183019490945233606090811b9082015281516054818303018152607490910191829052805194955060009460108702949192918291908401908083835b6020831061151a57805182527fffffffffffffffffffffffffffffffffffffffffffffffffffffffffffffffe090920191602091820191016114dd565b51815160209384036101000a7fffffffffffffffffffffffffffffffffffffffffffffffffffffffffffffffff01801990921691161790526040519190930194509192505080830381855afa158015611577573d6000803e3d6000fd5b5050506040513d602081101561158c57600080fd5b50518161159557fe5b06905060108110156115ec5780600114156115b9576115b4600361189a565b6115e1565b6005811080156115c857508015155b156115d7576115b4600261189a565b6115e1600161189a565b600192505050610b92565b600092505050610b92565b604080516001600160a01b0380861660248301528416604482015260648082018490528251808303909101815260849091019091526020810180517bffffffffffffffffffffffffffffffffffffffffffffffffffffffff167f23b872dd0000000000000000000000000000000000000000000000000000000017905261167f908590611a97565b50505050565b600082611694575060006116e1565b828202828482816116a157fe5b04146116de5760405162461bcd60e51b8152600401808060200182810382526021815260200180611e696021913960400191505060405180910390fd5b90505b92915050565b60006116de83836040518060400160405280601a81526020017f536166654d6174683a206469766973696f6e206279207a65726f000000000000815250611b48565b60025460ff16611780576040805162461bcd60e51b815260206004820152601460248201527f5061757361626c653a206e6f7420706175736564000000000000000000000000604482015290519081900360640190fd5b600280547fffffffffffffffffffffffffffffffffffffffffffffffffffffffffffffff001690557f5db9ee0a495bf2e6ff9c91a7834c1ba4fdd244a5e8aa4e537bd38aeae4b073aa6117d1611341565b604080516001600160a01b039092168252519081900360200190a1565b60025460ff1615611846576040805162461bcd60e51b815260206004820152601060248201527f5061757361626c653a2070617573656400000000000000000000000000000000604482015290519081900360640190fd5b600280547fffffffffffffffffffffffffffffffffffffffffffffffffffffffffffffff001660011790557f62e78cea01bee320cd4e420270b5ea74000d11b0c9f74754ebdbfc544b05a2586117d1611341565b600354604080517f18160ddd00000000000000000000000000000000000000000000000000000000815290516000926001600160a01b0316916318160ddd916004808301926020929190829003018186803b1580156118f857600080fd5b505afa15801561190c573d6000803e3d6000fd5b505050506040513d602081101561192257600080fd5b5051600280546040517f644acc60000000000000000000000000000000000000000000000000000000008152336004820181815260018087016024850181905260ff8a166044860152608060648601908152600980546101009481161585027fffffffffffffffffffffffffffffffffffffffffffffffffffffffffffffffff011698909804608487018190529899509097919095046001600160a01b03169563644acc6095939488948b949293909160a4019084908015611a255780601f106119fa57610100808354040283529160200191611a25565b820191906000526020600020905b815481529060010190602001808311611a0857829003601f168201915b505095505050505050600060405180830381600087803b158015611a4857600080fd5b505af1158015611a5c573d6000803e3d6000fd5b505060405160ff8616925083915033907ff1fdafe85c8e689e94a05437caf59e85e24ded6101fd5edf045c1e98befb2dc890600090a4505050565b6060611aec826040518060400160405280602081526020017f5361666545524332303a206c6f772d6c6576656c2063616c6c206661696c6564815250856001600160a01b0316611bea9092919063ffffffff16565b805190915015610b8657808060200190516020811015611b0b57600080fd5b5051610b865760405162461bcd60e51b815260040180806020018281038252602a815260200180611e8a602a913960400191505060405180910390fd5b60008183611bd45760405162461bcd60e51b81526004018080602001828103825283818151815260200191508051906020019080838360005b83811015611b99578181015183820152602001611b81565b50505050905090810190601f168015611bc65780820380516001836020036101000a031916815260200191505b509250505060405180910390fd5b506000838581611be057fe5b0495945050505050565b6060611bf98484600085611c01565b949350505050565b6060611c0c85611345565b611c5d576040805162461bcd60e51b815260206004820152601d60248201527f416464726573733a2063616c6c20746f206e6f6e2d636f6e7472616374000000604482015290519081900360640190fd5b60006060866001600160a01b031685876040518082805190602001908083835b60208310611cba57805182527fffffffffffffffffffffffffffffffffffffffffffffffffffffffffffffffe09092019160209182019101611c7d565b6001836020036101000a03801982511681845116808217855250505050505090500191505060006040518083038185875af1925050503d8060008114611d1c576040519150601f19603f3d011682016040523d82523d6000602084013e611d21565b606091505b50915091508115611d35579150611bf99050565b805115611d455780518082602001fd5b60405162461bcd60e51b8152602060048201818152865160248401528651879391928392604401919085019080838360008315611b99578181015183820152602001611b81565b828054600181600116156101000203166002900490600052602060002090601f016020900481019282601f10611deb578280017fffffffffffffffffffffffffffffffffffffffffffffffffffffffffffffff00823516178555611e18565b82800160010185558215611e18579182015b82811115611e18578235825591602001919060010190611dfd565b50611e24929150611e28565b5090565b610b9291905b80821115611e245760008155600101611e2e56fe4f776e61626c653a206e6577206f776e657220697320746865207a65726f2061646472657373536166654d6174683a206d756c7469706c69636174696f6e206f766572666c6f775361666545524332303a204552433230206f7065726174696f6e20646964206e6f742073756363656564a2646970667358221220864fb6ec7008744fed2f9aa31c6eca76295fb924b6b946628605594fe7c0f0f264736f6c6343000602003349742773206e6f7420636f6e7472616374206164647265737321000000000000",
  "source": "pragma solidity ^0.6.0;\n\nimport \"@openzeppelin/contracts/token/ERC721/IERC721Enumerable.sol\";\nimport \"../common/hotpotinterface.sol\";\nimport \"../common/IInvite.sol\";\nimport \"@openzeppelin/contracts/math/Math.sol\";\nimport \"@openzeppelin/contracts/math/SafeMath.sol\";\nimport \"@openzeppelin/contracts/token/ERC20/IERC20.sol\";\nimport \"@openzeppelin/contracts/token/ERC20/SafeERC20.sol\";\nimport \"@openzeppelin/contracts/access/Ownable.sol\";\nimport \"@openzeppelin/contracts/utils/Address.sol\";\nimport \"@openzeppelin/contracts/utils/ReentrancyGuard.sol\";\nimport \"@openzeppelin/contracts/utils/Pausable.sol\";\n\n\ncontract Gacha is Ownable, ReentrancyGuard, Pausable{\n    using SafeMath for uint256;\n    using SafeERC20 for IERC20;\n    using Address for address;\n\n    IHotPot public hotpot;\n    IERC721Enumerable public erc721;\n    IERC20 public erc20;\n    IInvite public invite;\n\n    address public rewardAddress;\n\n    uint256 public price = 1;\n\n    uint8 constant gradeNormal = 1;\n\n    uint8 constant gradeVIP = 2;\n\n    uint8 constant gradeVVIP = 3;\n\n    uint8 constant discount10Pull = 95;\n\n    uint8 constant posibilityDevide = 4;\n\n    uint256 public initPosibility = 8;\n\n    uint256 constant MAX_NFT = 1000;\n\n    string public baseURI = \"\";\n\n    uint256 internal randomSeed = 1;\n\n    event GachaTicket(\n        address indexed _owner,\n        uint256 indexed _tokenId,\n        uint8 indexed _grade\n    );\n\n    event GachaNothing(address indexed _owner);\n\n    modifier ensurePull(uint256 _price) {\n        // check balance\n        require(\n            erc20.balanceOf(msg.sender) >= _price,\n            \"Wallet balance is not enough!\"\n        );\n        _;\n    }\n\n    /**\n        ensure NFT amount is less than 1000\n     */\n    modifier checkNFTCount() {\n        require(\n            erc721.totalSupply() <= MAX_NFT,\n            \"Cannot create more NFT any more!\"\n        );\n        _;\n    }\n\n    function setRewardAddress(address _addr) external onlyOwner {\n        require(_addr.isContract(), \"It's not contract address!\");\n        rewardAddress = _addr;\n    }\n\n    function setBaseURI(string calldata _uri) external onlyOwner {\n        baseURI = _uri;\n    }\n\n    function setHotPotNFT(address _addr) external onlyOwner {\n        require(_addr.isContract(), \"It's not contract address!\");\n\n        hotpot = IHotPot(_addr);\n        erc721 = IERC721Enumerable(_addr);\n    }\n\n    function setHotPot(address _addr) external onlyOwner {\n        require(_addr.isContract(), \"It's not contract address!\");\n        erc20 = IERC20(_addr);\n    }\n\n    function setInvite(address _addr) external onlyOwner {\n        require(_addr.isContract(), \"It's not contract address!\");\n        invite = IInvite(_addr);\n    }\n\n    constructor(\n        uint256 _price,\n        uint256 _posibility,\n        address _reward,\n        address _nft,\n        address _hotpot,\n        address _invite\n    ) public {\n        initPosibility = _posibility;\n        price = _price;\n\n        require(_reward != address(0));\n        require(_nft != address(0));\n        require(_hotpot != address(0));\n        require(_nft.isContract(), \"It's not contract address!\");\n        require(_reward.isContract(), \"It's not contract address!\");\n        require(_hotpot.isContract(), \"It's not contract address!\");\n        require(_invite.isContract(), \"It's not contract address!\");\n\n        erc20 = IERC20(_hotpot);\n        hotpot = IHotPot(_nft);\n        erc721 = IERC721Enumerable(_nft);\n        invite  = IInvite(_invite);\n        rewardAddress = _reward;\n    }\n\n    /**\n        1 pull\n     */\n    function pull() external ensurePull(price) nonReentrant whenNotPaused{\n        bool res = _pull();\n        if (!res) {\n            emit GachaNothing(msg.sender);\n        }\n        //1. get token first\n        erc20.safeTransferFrom(msg.sender, rewardAddress, price);\n\n        invite.validCode(msg.sender);\n        invite.generateCode(msg.sender);\n    }\n\n    /**\n        10 pulls\n     */\n\n    function pull10()\n        external\n        ensurePull(price.mul(10).mul(discount10Pull).div(100))\n        nonReentrant\n        whenNotPaused\n    {\n        bool gacha = false;\n        for (uint256 i = 0; i < 10; i++) {\n            bool res = _pull();\n            if (res) {\n                gacha = true;\n            }\n        }\n        if (!gacha) {\n            emit GachaNothing(msg.sender);\n        }\n        //1. get token first\n        erc20.safeTransferFrom(\n            msg.sender,\n            rewardAddress,\n            price.mul(10).mul(discount10Pull).div(100)\n        );\n        \n        invite.validCode(msg.sender);\n        invite.generateCode(msg.sender);\n    }\n\n    function getPosibilityNow() external view returns (uint256) {\n        //1.check the nft amount\n        uint256 count = erc721.totalSupply();\n        // emit GachaStart(count);\n        uint256 posibility = initPosibility;\n        if (count < 11) {\n            posibility = initPosibility; //8\n        } else if (count < 21) {\n            posibility = initPosibility * 2; //16\n        } else if (count < 51) {\n            posibility = initPosibility * 4; //32\n        } else if (count < 101) {\n            posibility = initPosibility * 8; //64\n        } else if (count < 201) {\n            posibility = initPosibility * 16; //128\n        } else if (count < 501) {\n            posibility = initPosibility * 32; //256\n        } else {\n            posibility = initPosibility * 64; //512\n        }\n        return posibility;\n    }\n\n    /**\n        trigger 1 pull\n     */\n    function _pull() internal checkNFTCount returns (bool) {\n        uint256 posibility = this.getPosibilityNow();\n\n        randomSeed += 2;\n        //generate random number\n        //it is not that safe\n        uint256 random = uint256(\n            sha256(abi.encodePacked(now, randomSeed, msg.sender))\n        ) % (posibility * posibilityDevide * posibilityDevide);\n\n        // emit GachaRandom(random);\n\n        if (random < posibilityDevide * posibilityDevide) {\n            if (random == 1) {\n                //generate grade 3\n                _generateNFT(gradeVVIP);\n            } else if (random < posibilityDevide + 1 && random != 0) {\n                //generate grade 2\n                _generateNFT(gradeVIP);\n            } else {\n                //generate grade 1\n                _generateNFT(gradeNormal);\n            }\n            return true;\n        } else {\n            return false;\n        }\n    }\n\n    function _generateNFT(uint8 _grade) internal {\n        uint256 count = erc721.totalSupply();\n        uint256 tokenId = count + 1;\n        hotpot.mint(msg.sender, tokenId, _grade, baseURI);\n        emit GachaTicket(msg.sender, tokenId, _grade);\n    }\n\n    function pause() external onlyOwner{\n        _pause();\n    }\n\n    function unpause() external onlyOwner{\n        _unpause();\n    }\n}\n",
  "sourcePath": "/Users/junhu/git/hotpotcontract/truffle/contracts/gacha/Gacha.sol",
  "compiler": {
    "name": "solc",
    "version": "0.6.2+commit.bacdbe57.Emscripten.clang"
  },
  "schemaVersion": "3.3.0",
  "updatedAt": "2020-11-02T06:06:34.255Z",
  "networkType": "ethereum",
  "devdoc": {
    "methods": {
      "owner()": {
        "details": "Returns the address of the current owner."
      },
      "paused()": {
        "details": "Returns true if the contract is paused, and false otherwise."
      },
      "renounceOwnership()": {
        "details": "Leaves the contract without owner. It will not be possible to call `onlyOwner` functions anymore. Can only be called by the current owner.     * NOTE: Renouncing ownership will leave the contract without an owner, thereby removing any functionality that is only available to the owner."
      },
      "transferOwnership(address)": {
        "details": "Transfers ownership of the contract to a new account (`newOwner`). Can only be called by the current owner."
      }
    }
  },
  "userdoc": {
    "methods": {
      "pull()": {
        "notice": "1 pull"
      },
      "pull10()": {
        "notice": "10 pulls"
      }
    }
  }
}