{
  "contractName": "Gacha",
  "abi": [
    {
      "inputs": [
        {
          "internalType": "uint256",
          "name": "_price",
          "type": "uint256"
        },
        {
          "internalType": "uint256",
          "name": "_posibility",
          "type": "uint256"
        },
        {
          "internalType": "address",
          "name": "_reward",
          "type": "address"
        },
        {
          "internalType": "address",
          "name": "_nft",
          "type": "address"
        },
        {
          "internalType": "address",
          "name": "_hotpot",
          "type": "address"
        }
      ],
      "stateMutability": "nonpayable",
      "type": "constructor"
    },
    {
      "anonymous": false,
      "inputs": [
        {
          "indexed": true,
          "internalType": "address",
          "name": "_owner",
          "type": "address"
        }
      ],
      "name": "GachaNothing",
      "type": "event"
    },
    {
      "anonymous": false,
      "inputs": [
        {
          "indexed": true,
          "internalType": "address",
          "name": "_owner",
          "type": "address"
        },
        {
          "indexed": true,
          "internalType": "uint256",
          "name": "_tokenId",
          "type": "uint256"
        },
        {
          "indexed": true,
          "internalType": "uint8",
          "name": "_grade",
          "type": "uint8"
        }
      ],
      "name": "GachaTicket",
      "type": "event"
    },
    {
      "anonymous": false,
      "inputs": [
        {
          "indexed": true,
          "internalType": "address",
          "name": "previousOwner",
          "type": "address"
        },
        {
          "indexed": true,
          "internalType": "address",
          "name": "newOwner",
          "type": "address"
        }
      ],
      "name": "OwnershipTransferred",
      "type": "event"
    },
    {
      "inputs": [],
      "name": "baseURI",
      "outputs": [
        {
          "internalType": "string",
          "name": "",
          "type": "string"
        }
      ],
      "stateMutability": "view",
      "type": "function",
      "constant": true
    },
    {
      "inputs": [],
      "name": "erc20",
      "outputs": [
        {
          "internalType": "contract IERC20",
          "name": "",
          "type": "address"
        }
      ],
      "stateMutability": "view",
      "type": "function",
      "constant": true
    },
    {
      "inputs": [],
      "name": "erc721",
      "outputs": [
        {
          "internalType": "contract IERC721Enumerable",
          "name": "",
          "type": "address"
        }
      ],
      "stateMutability": "view",
      "type": "function",
      "constant": true
    },
    {
      "inputs": [],
      "name": "hotpot",
      "outputs": [
        {
          "internalType": "contract IHotPot",
          "name": "",
          "type": "address"
        }
      ],
      "stateMutability": "view",
      "type": "function",
      "constant": true
    },
    {
      "inputs": [],
      "name": "initPosibility",
      "outputs": [
        {
          "internalType": "uint256",
          "name": "",
          "type": "uint256"
        }
      ],
      "stateMutability": "view",
      "type": "function",
      "constant": true
    },
    {
      "inputs": [],
      "name": "owner",
      "outputs": [
        {
          "internalType": "address",
          "name": "",
          "type": "address"
        }
      ],
      "stateMutability": "view",
      "type": "function",
      "constant": true
    },
    {
      "inputs": [],
      "name": "price",
      "outputs": [
        {
          "internalType": "uint256",
          "name": "",
          "type": "uint256"
        }
      ],
      "stateMutability": "view",
      "type": "function",
      "constant": true
    },
    {
      "inputs": [],
      "name": "renounceOwnership",
      "outputs": [],
      "stateMutability": "nonpayable",
      "type": "function"
    },
    {
      "inputs": [],
      "name": "rewardAddress",
      "outputs": [
        {
          "internalType": "address",
          "name": "",
          "type": "address"
        }
      ],
      "stateMutability": "view",
      "type": "function",
      "constant": true
    },
    {
      "inputs": [
        {
          "internalType": "address",
          "name": "newOwner",
          "type": "address"
        }
      ],
      "name": "transferOwnership",
      "outputs": [],
      "stateMutability": "nonpayable",
      "type": "function"
    },
    {
      "inputs": [
        {
          "internalType": "uint256",
          "name": "_posibility",
          "type": "uint256"
        }
      ],
      "name": "setPosibility",
      "outputs": [],
      "stateMutability": "nonpayable",
      "type": "function"
    },
    {
      "inputs": [
        {
          "internalType": "address",
          "name": "_addr",
          "type": "address"
        }
      ],
      "name": "setRewardAddress",
      "outputs": [],
      "stateMutability": "nonpayable",
      "type": "function"
    },
    {
      "inputs": [
        {
          "internalType": "string",
          "name": "_uri",
          "type": "string"
        }
      ],
      "name": "setBaseURI",
      "outputs": [],
      "stateMutability": "nonpayable",
      "type": "function"
    },
    {
      "inputs": [
        {
          "internalType": "address",
          "name": "_addr",
          "type": "address"
        }
      ],
      "name": "setHotPotTicket",
      "outputs": [],
      "stateMutability": "nonpayable",
      "type": "function"
    },
    {
      "inputs": [
        {
          "internalType": "address",
          "name": "_addr",
          "type": "address"
        }
      ],
      "name": "setHotPot",
      "outputs": [],
      "stateMutability": "nonpayable",
      "type": "function"
    },
    {
      "inputs": [
        {
          "internalType": "uint256",
          "name": "_price",
          "type": "uint256"
        }
      ],
      "name": "setPrice",
      "outputs": [],
      "stateMutability": "nonpayable",
      "type": "function"
    },
    {
      "inputs": [],
      "name": "pull",
      "outputs": [],
      "stateMutability": "nonpayable",
      "type": "function"
    },
    {
      "inputs": [],
      "name": "pull10",
      "outputs": [],
      "stateMutability": "nonpayable",
      "type": "function"
    },
    {
      "inputs": [],
      "name": "getPosibilityNow",
      "outputs": [
        {
          "internalType": "uint256",
          "name": "",
          "type": "uint256"
        }
      ],
      "stateMutability": "view",
      "type": "function",
      "constant": true
    }
  ],
  "bytecode": "0x620186a0600555600860065560a06040819052600060808190526200002791600791620002a0565b5060016008553480156200003a57600080fd5b5060405162001de438038062001de4833981810160405260a08110156200006057600080fd5b508051602082015160408301516060840151608090940151929391929091906000620000946001600160e01b036200029516565b600080546001600160a01b0319166001600160a01b0383169081178255604051929350917f8be0079c531659141344cd1fd0a4f28419497f9722a3daafe3b4186f6b6457e0908290a350600684905560058590556001600160a01b038316620000fc57600080fd5b6001600160a01b0382166200011057600080fd5b6001600160a01b0381166200012457600080fd5b62000143826001600160a01b03166200029a60201b620011461760201c565b62000184576040805162461bcd60e51b815260206004820152601a602482015260008051602062001dc4833981519152604482015290519081900360640190fd5b620001a3836001600160a01b03166200029a60201b620011461760201c565b620001e4576040805162461bcd60e51b815260206004820152601a602482015260008051602062001dc4833981519152604482015290519081900360640190fd5b62000203816001600160a01b03166200029a60201b620011461760201c565b62000244576040805162461bcd60e51b815260206004820152601a602482015260008051602062001dc4833981519152604482015290519081900360640190fd5b600380546001600160a01b03199081166001600160a01b0393841617909155600180548216938316938417905560028054821690931790925560048054909216921691909117905550620003429050565b335b90565b3b151590565b828054600181600116156101000203166002900490600052602060002090601f016020900481019282601f10620002e357805160ff191683800117855562000313565b8280016001018555821562000313579182015b8281111562000313578251825591602001919060010190620002f6565b506200032192915062000325565b5090565b6200029791905b808211156200032157600081556001016200032c565b611a7280620003526000396000f3fe608060405234801561001057600080fd5b50600436106101515760003560e01c8063785e9e86116100cd578063a035b1fe11610081578063cc013b4411610066578063cc013b4414610349578063e6db6a3014610351578063f2fde38b1461037757610151565b8063a035b1fe14610339578063bca6ce641461034157610151565b80638da5cb5b116100b25780638da5cb5b146102f757806391b7f5ed146102ff578063953f09471461031c57610151565b8063785e9e86146102e75780638cf57cb9146102ef57610151565b80633ea01982116101245780635e00e679116101095780635e00e6791461023c5780636c0360eb14610262578063715018a6146102df57610151565b80633ea01982146101c457806355f804b3146101cc57610151565b8063049b205b1461015657806315ea88c41461017e5780632bc633b0146101a2578063329eb839146101bc575b600080fd5b61017c6004803603602081101561016c57600080fd5b50356001600160a01b031661039d565b005b6101866104a4565b604080516001600160a01b039092168252519081900360200190f35b6101aa6104b3565b60408051918252519081900360200190f35b61017c6104b9565b61017c6106ef565b61017c600480360360208110156101e257600080fd5b8101906020810181356401000000008111156101fd57600080fd5b82018360208201111561020f57600080fd5b8035906020019184600183028401116401000000008311171561023157600080fd5b509092509050610953565b61017c6004803603602081101561025257600080fd5b50356001600160a01b03166109ce565b61026a610ad5565b6040805160208082528351818301528351919283929083019185019080838360005b838110156102a457818101518382015260200161028c565b50505050905090810190601f1680156102d15780820380516001836020036101000a031916815260200191505b509250505060405180910390f35b61017c610b81565b610186610c4d565b610186610c5c565b610186610c6b565b61017c6004803603602081101561031557600080fd5b5035610c7b565b61017c6004803603602081101561033257600080fd5b5035610d3f565b6101aa610ded565b610186610df3565b6101aa610e02565b61017c6004803603602081101561036757600080fd5b50356001600160a01b0316610f0f565b61017c6004803603602081101561038d57600080fd5b50356001600160a01b0316611020565b6103a5611142565b6000546001600160a01b03908116911614610407576040805162461bcd60e51b815260206004820181905260248201527f4f776e61626c653a2063616c6c6572206973206e6f7420746865206f776e6572604482015290519081900360640190fd5b610419816001600160a01b0316611146565b61046a576040805162461bcd60e51b815260206004820152601a60248201527f49742773206e6f7420636f6e7472616374206164647265737321000000000000604482015290519081900360640190fd5b600380547fffffffffffffffffffffffff0000000000000000000000000000000000000000166001600160a01b0392909216919091179055565b6001546001600160a01b031681565b60065481565b600554600354604080517fdd62ed3e000000000000000000000000000000000000000000000000000000008152336004820152306024820152905183926001600160a01b03169163dd62ed3e916044808301926020929190829003018186803b15801561052557600080fd5b505afa158015610539573d6000803e3d6000fd5b505050506040513d602081101561054f57600080fd5b5051116105a3576040805162461bcd60e51b815260206004820152601860248201527f416c6c6f77616e6365206973206e6f7420656e6f756768210000000000000000604482015290519081900360640190fd5b600354604080517f70a08231000000000000000000000000000000000000000000000000000000008152336004820152905183926001600160a01b0316916370a08231916024808301926020929190829003018186803b15801561060657600080fd5b505afa15801561061a573d6000803e3d6000fd5b505050506040513d602081101561063057600080fd5b505111610684576040805162461bcd60e51b815260206004820152601d60248201527f57616c6c65742062616c616e6365206973206e6f7420656e6f75676821000000604482015290519081900360640190fd5b600061068e61114c565b9050806106c15760405133907fa11b25bd936fddbe6d3ef9056a0da37ae243b87c72f36ee37304627e321e578e90600090a25b6004546005546003546106eb926001600160a01b039182169233929091169063ffffffff6113f916565b5050565b600554600354604080517fdd62ed3e000000000000000000000000000000000000000000000000000000008152336004820152306024820152905160646103b6909402939093049283926001600160a01b03169163dd62ed3e916044808301926020929190829003018186803b15801561076857600080fd5b505afa15801561077c573d6000803e3d6000fd5b505050506040513d602081101561079257600080fd5b5051116107e6576040805162461bcd60e51b815260206004820152601860248201527f416c6c6f77616e6365206973206e6f7420656e6f756768210000000000000000604482015290519081900360640190fd5b600354604080517f70a08231000000000000000000000000000000000000000000000000000000008152336004820152905183926001600160a01b0316916370a08231916024808301926020929190829003018186803b15801561084957600080fd5b505afa15801561085d573d6000803e3d6000fd5b505050506040513d602081101561087357600080fd5b5051116108c7576040805162461bcd60e51b815260206004820152601d60248201527f57616c6c65742062616c616e6365206973206e6f7420656e6f75676821000000604482015290519081900360640190fd5b6000805b600a8110156108f45760006108de61114c565b905080156108eb57600192505b506001016108cb565b50806109265760405133907fa11b25bd936fddbe6d3ef9056a0da37ae243b87c72f36ee37304627e321e578e90600090a25b6004546005546003546106eb926001600160a01b039182169233929091169060646103b6909102046113f9565b61095b611142565b6000546001600160a01b039081169116146109bd576040805162461bcd60e51b815260206004820181905260248201527f4f776e61626c653a2063616c6c6572206973206e6f7420746865206f776e6572604482015290519081900360640190fd5b6109c960078383611914565b505050565b6109d6611142565b6000546001600160a01b03908116911614610a38576040805162461bcd60e51b815260206004820181905260248201527f4f776e61626c653a2063616c6c6572206973206e6f7420746865206f776e6572604482015290519081900360640190fd5b610a4a816001600160a01b0316611146565b610a9b576040805162461bcd60e51b815260206004820152601a60248201527f49742773206e6f7420636f6e7472616374206164647265737321000000000000604482015290519081900360640190fd5b600480547fffffffffffffffffffffffff0000000000000000000000000000000000000000166001600160a01b0392909216919091179055565b6007805460408051602060026001851615610100027fffffffffffffffffffffffffffffffffffffffffffffffffffffffffffffffff0190941693909304601f81018490048402820184019092528181529291830182828015610b795780601f10610b4e57610100808354040283529160200191610b79565b820191906000526020600020905b815481529060010190602001808311610b5c57829003601f168201915b505050505081565b610b89611142565b6000546001600160a01b03908116911614610beb576040805162461bcd60e51b815260206004820181905260248201527f4f776e61626c653a2063616c6c6572206973206e6f7420746865206f776e6572604482015290519081900360640190fd5b600080546040516001600160a01b03909116907f8be0079c531659141344cd1fd0a4f28419497f9722a3daafe3b4186f6b6457e0908390a3600080547fffffffffffffffffffffffff0000000000000000000000000000000000000000169055565b6003546001600160a01b031681565b6004546001600160a01b031681565b6000546001600160a01b03165b90565b610c83611142565b6000546001600160a01b03908116911614610ce5576040805162461bcd60e51b815260206004820181905260248201527f4f776e61626c653a2063616c6c6572206973206e6f7420746865206f776e6572604482015290519081900360640190fd5b60008111610d3a576040805162461bcd60e51b815260206004820152601c60248201527f5072696365206d7573742062652067726561746572207468616e203000000000604482015290519081900360640190fd5b600555565b610d47611142565b6000546001600160a01b03908116911614610da9576040805162461bcd60e51b815260206004820181905260248201527f4f776e61626c653a2063616c6c6572206973206e6f7420746865206f776e6572604482015290519081900360640190fd5b60008111610de85760405162461bcd60e51b81526004018080602001828103825260228152602001806119f16022913960400191505060405180910390fd5b600655565b60055481565b6002546001600160a01b031681565b600080600260009054906101000a90046001600160a01b03166001600160a01b03166318160ddd6040518163ffffffff1660e01b815260040160206040518083038186803b158015610e5357600080fd5b505afa158015610e67573d6000803e3d6000fd5b505050506040513d6020811015610e7d57600080fd5b5051600654909150600b821015610e975750600654610f09565b6015821015610eac5750600654600202610f09565b6033821015610ec15750600654600402610f09565b6065821015610ed65750600654600802610f09565b60c9821015610eeb5750600654601002610f09565b6101f5821015610f015750600654602002610f09565b506006546040025b91505090565b610f17611142565b6000546001600160a01b03908116911614610f79576040805162461bcd60e51b815260206004820181905260248201527f4f776e61626c653a2063616c6c6572206973206e6f7420746865206f776e6572604482015290519081900360640190fd5b610f8b816001600160a01b0316611146565b610fdc576040805162461bcd60e51b815260206004820152601a60248201527f49742773206e6f7420636f6e7472616374206164647265737321000000000000604482015290519081900360640190fd5b600180546001600160a01b039092167fffffffffffffffffffffffff0000000000000000000000000000000000000000928316811790915560028054909216179055565b611028611142565b6000546001600160a01b0390811691161461108a576040805162461bcd60e51b815260206004820181905260248201527f4f776e61626c653a2063616c6c6572206973206e6f7420746865206f776e6572604482015290519081900360640190fd5b6001600160a01b0381166110cf5760405162461bcd60e51b81526004018080602001828103825260268152602001806119cb6026913960400191505060405180910390fd5b600080546040516001600160a01b03808516939216917f8be0079c531659141344cd1fd0a4f28419497f9722a3daafe3b4186f6b6457e091a3600080547fffffffffffffffffffffffff0000000000000000000000000000000000000000166001600160a01b0392909216919091179055565b3390565b3b151590565b60006103e8600260009054906101000a90046001600160a01b03166001600160a01b03166318160ddd6040518163ffffffff1660e01b815260040160206040518083038186803b15801561119f57600080fd5b505afa1580156111b3573d6000803e3d6000fd5b505050506040513d60208110156111c957600080fd5b5051111561121e576040805162461bcd60e51b815260206004820181905260248201527f43616e6e6f7420637265617465206d6f7265204e465420616e79206d6f726521604482015290519081900360640190fd5b6000306001600160a01b031663cc013b446040518163ffffffff1660e01b815260040160206040518083038186803b15801561125957600080fd5b505afa15801561126d573d6000803e3d6000fd5b505050506040513d602081101561128357600080fd5b5051600880546001019081905560408051426020828101919091523360601b8284015260548083019490945282518083039094018452607490910191829052825193945060009360108602936002939092909182918401908083835b6020831061131c57805182527fffffffffffffffffffffffffffffffffffffffffffffffffffffffffffffffe090920191602091820191016112df565b51815160209384036101000a7fffffffffffffffffffffffffffffffffffffffffffffffffffffffffffffffff01801990921691161790526040519190930194509192505080830381855afa158015611379573d6000803e3d6000fd5b5050506040513d602081101561138e57600080fd5b50518161139757fe5b06905060108110156113ee5780600114156113bb576113b66003611487565b6113e3565b6005811080156113ca57508015155b156113d9576113b66002611487565b6113e36001611487565b600192505050610c78565b600092505050610c78565b604080516001600160a01b0380861660248301528416604482015260648082018490528251808303909101815260849091019091526020810180517bffffffffffffffffffffffffffffffffffffffffffffffffffffffff167f23b872dd00000000000000000000000000000000000000000000000000000000179052611481908590611683565b50505050565b600254604080517f18160ddd00000000000000000000000000000000000000000000000000000000815290516000926001600160a01b0316916318160ddd916004808301926020929190829003018186803b1580156114e557600080fd5b505afa1580156114f9573d6000803e3d6000fd5b505050506040513d602081101561150f57600080fd5b5051600180546040517f644acc6000000000000000000000000000000000000000000000000000000000815233600482018181528486016024840181905260ff891660448501526080606485019081526007805460027fffffffffffffffffffffffffffffffffffffffffffffffffffffffffffffffff99821615610100029990990116979097046084860181905297985090966001600160a01b039095169563644acc6095939488948b9492939160a40190849080156116115780601f106115e657610100808354040283529160200191611611565b820191906000526020600020905b8154815290600101906020018083116115f457829003601f168201915b505095505050505050600060405180830381600087803b15801561163457600080fd5b505af1158015611648573d6000803e3d6000fd5b505060405160ff8616925083915033907ff1fdafe85c8e689e94a05437caf59e85e24ded6101fd5edf045c1e98befb2dc890600090a4505050565b60606116d8826040518060400160405280602081526020017f5361666545524332303a206c6f772d6c6576656c2063616c6c206661696c6564815250856001600160a01b03166117349092919063ffffffff16565b8051909150156109c9578080602001905160208110156116f757600080fd5b50516109c95760405162461bcd60e51b815260040180806020018281038252602a815260200180611a13602a913960400191505060405180910390fd5b6060611743848460008561174b565b949350505050565b606061175685611146565b6117a7576040805162461bcd60e51b815260206004820152601d60248201527f416464726573733a2063616c6c20746f206e6f6e2d636f6e7472616374000000604482015290519081900360640190fd5b60006060866001600160a01b031685876040518082805190602001908083835b6020831061180457805182527fffffffffffffffffffffffffffffffffffffffffffffffffffffffffffffffe090920191602091820191016117c7565b6001836020036101000a03801982511681845116808217855250505050505090500191505060006040518083038185875af1925050503d8060008114611866576040519150601f19603f3d011682016040523d82523d6000602084013e61186b565b606091505b5091509150811561187f5791506117439050565b80511561188f5780518082602001fd5b8360405162461bcd60e51b81526004018080602001828103825283818151815260200191508051906020019080838360005b838110156118d95781810151838201526020016118c1565b50505050905090810190601f1680156119065780820380516001836020036101000a031916815260200191505b509250505060405180910390fd5b828054600181600116156101000203166002900490600052602060002090601f016020900481019282601f10611973578280017fffffffffffffffffffffffffffffffffffffffffffffffffffffffffffffff008235161785556119a0565b828001600101855582156119a0579182015b828111156119a0578235825591602001919060010190611985565b506119ac9291506119b0565b5090565b610c7891905b808211156119ac57600081556001016119b656fe4f776e61626c653a206e6577206f776e657220697320746865207a65726f2061646472657373506f736962696c697479206d7573742062652067726561746572207468616e2030215361666545524332303a204552433230206f7065726174696f6e20646964206e6f742073756363656564a26469706673582212209d1b8a4f95d8bd9de2d0fc2b435ef709443bb5b24a7220109f1a7c4d9e74218d64736f6c6343000602003349742773206e6f7420636f6e7472616374206164647265737321000000000000",
  "source": "pragma solidity ^0.6.0;\n\nimport \"@openzeppelin/contracts/token/ERC721/IERC721Enumerable.sol\";\nimport \"../common/hotpotinterface.sol\";\nimport \"@openzeppelin/contracts/math/Math.sol\";\nimport \"@openzeppelin/contracts/math/SafeMath.sol\";\nimport \"@openzeppelin/contracts/token/ERC20/IERC20.sol\";\nimport \"@openzeppelin/contracts/token/ERC20/SafeERC20.sol\";\nimport \"@openzeppelin/contracts/access/Ownable.sol\";\nimport \"@openzeppelin/contracts/utils/Address.sol\";\n\ncontract Gacha is Ownable {\n    using SafeMath for uint256;\n    using SafeERC20 for IERC20;\n    using Address for address;\n\n    IHotPot public hotpot;\n    IERC721Enumerable public erc721;\n    IERC20 public erc20;\n\n    address public rewardAddress;\n\n    uint256 public price = 100000;\n\n    uint8 constant gradeNormal = 1;\n\n    uint8 constant gradeVIP = 2;\n\n    uint8 constant gradeVVIP = 3;\n\n    uint8 constant discount10Pull = 95;\n\n    uint8 constant posibilityDevide = 4;\n\n    uint256 public initPosibility = 8;\n\n    uint256 constant MAX_NFT = 1000;\n\n    string public baseURI = \"\";\n\n    uint256 internal randomSeed = 1;\n\n    event GachaTicket(\n        address indexed _owner,\n        uint256 indexed _tokenId,\n        uint8 indexed _grade\n    );\n\n    event GachaNothing(address indexed _owner);\n\n    // event GachaRandom(uint256 indexed _random);\n\n    // event GachaStart(uint256 _total);\n\n    modifier ensurePull(uint256 _price) {\n        // check allowance\n        require(\n            erc20.allowance(msg.sender, address(this)) > _price,\n            \"Allowance is not enough!\"\n        );\n        // check balance\n        require(\n            erc20.balanceOf(msg.sender) > _price,\n            \"Wallet balance is not enough!\"\n        );\n        _;\n    }\n\n    /**\n        ensure NFT amount is less than 1000\n     */\n    modifier checkNFTCount() {\n        require(\n            erc721.totalSupply() <= MAX_NFT,\n            \"Cannot create more NFT any more!\"\n        );\n        _;\n    }\n\n    function setPosibility(uint256 _posibility) external onlyOwner {\n        require(_posibility > 0, \"Posibility must be greater than 0!\");\n        initPosibility = _posibility;\n    }\n\n    function setRewardAddress(address _addr) external onlyOwner {\n        require(_addr.isContract(), \"It's not contract address!\");\n        rewardAddress = _addr;\n    }\n\n    function setBaseURI(string calldata _uri) external onlyOwner {\n        baseURI = _uri;\n    }\n\n    function setHotPotTicket(address _addr) external onlyOwner {\n        require(_addr.isContract(), \"It's not contract address!\");\n\n        hotpot = IHotPot(_addr);\n        erc721 = IERC721Enumerable(_addr);\n    }\n\n    function setHotPot(address _addr) external onlyOwner {\n        require(_addr.isContract(), \"It's not contract address!\");\n        erc20 = IERC20(_addr);\n    }\n\n    function setPrice(uint256 _price) external onlyOwner {\n        require(_price > 0, \"Price must be greater than 0\");\n\n        price = _price;\n    }\n\n    constructor(\n        uint256 _price,\n        uint256 _posibility,\n        address _reward,\n        address _nft,\n        address _hotpot\n    ) public {\n        initPosibility = _posibility;\n        price = _price;\n\n        require(_reward != address(0));\n        require(_nft != address(0));\n        require(_hotpot != address(0));\n        require(_nft.isContract(), \"It's not contract address!\");\n        require(_reward.isContract(), \"It's not contract address!\");\n        require(_hotpot.isContract(), \"It's not contract address!\");\n\n        erc20 = IERC20(_hotpot);\n        hotpot = IHotPot(_nft);\n        erc721 = IERC721Enumerable(_nft);\n        rewardAddress = _reward;\n    }\n\n    /**\n        1 pull\n     */\n    function pull() external ensurePull(price) {\n        bool res = _pull();\n        if (!res) {\n            emit GachaNothing(msg.sender);\n        }\n        //1. get token first\n        erc20.safeTransferFrom(msg.sender, rewardAddress, price);\n    }\n\n    /**\n        10 pulls\n     */\n    function pull10() external ensurePull((price * 10 * discount10Pull) / 100) {\n        bool gacha = false;\n        for (uint256 i = 0; i < 10; i++) {\n            bool res = _pull();\n            if (res) {\n                gacha = true;\n            }\n        }\n        if (!gacha) {\n            emit GachaNothing(msg.sender);\n        }\n        //1. get token first\n        erc20.safeTransferFrom(\n            msg.sender,\n            rewardAddress,\n            (price * 10 * discount10Pull) / 100\n        );\n    }\n\n    function getPosibilityNow() external view returns(uint256){\n        //1.check the nft amount\n        uint256 count = erc721.totalSupply();\n        // emit GachaStart(count);\n        uint256 posibility = initPosibility;\n        if (count < 11) {\n            posibility = initPosibility; //8\n        } else if (count < 21) {\n            posibility = initPosibility * 2; //16\n        } else if (count < 51) {\n            posibility = initPosibility * 4; //32\n        } else if (count < 101) {\n            posibility = initPosibility * 8; //64\n        } else if (count < 201) {\n            posibility = initPosibility * 16; //128\n        } else if (count < 501) {\n            posibility = initPosibility * 32; //256\n        } else {\n            posibility = initPosibility * 64; //512\n        }\n        return posibility;\n    }\n\n    /**\n        trigger 1 pull\n     */\n    function _pull() internal checkNFTCount returns (bool) {\n        uint256 posibility = this.getPosibilityNow();\n\n        randomSeed++;\n        //generate random number\n        //it is not that safe\n        uint256 random = uint256(\n            sha256(abi.encodePacked(now, msg.sender, randomSeed))\n        ) % (posibility * posibilityDevide * posibilityDevide);\n\n        // emit GachaRandom(random);\n\n        if (random < posibilityDevide * posibilityDevide) {\n            if (random == 1) {\n                //generate grade 3\n                _generateNFT(gradeVVIP);\n            } else if (random < posibilityDevide+1 && random!=0) {\n                //generate grade 2\n                _generateNFT(gradeVIP);\n            } else {\n                //generate grade 1\n                _generateNFT(gradeNormal);\n            }\n            return true;\n        } else {\n            return false;\n        }\n    }\n\n    function _generateNFT(uint8 _grade) internal {\n        uint256 count = erc721.totalSupply();\n        uint256 tokenId = count + 1;\n        hotpot.mint(msg.sender, tokenId, _grade, baseURI);\n        emit GachaTicket(msg.sender, tokenId, _grade);\n    }\n}\n",
  "sourcePath": "/Users/junhu/git/hotpotcontract/truffle/contracts/gacha/Gacha.sol",
  "compiler": {
    "name": "solc",
    "version": "0.6.2+commit.bacdbe57.Emscripten.clang"
  },
  "schemaVersion": "3.3.0",
  "updatedAt": "2020-10-20T06:27:52.895Z",
  "networkType": "ethereum",
  "devdoc": {
    "methods": {
      "owner()": {
        "details": "Returns the address of the current owner."
      },
      "renounceOwnership()": {
        "details": "Leaves the contract without owner. It will not be possible to call `onlyOwner` functions anymore. Can only be called by the current owner.     * NOTE: Renouncing ownership will leave the contract without an owner, thereby removing any functionality that is only available to the owner."
      },
      "transferOwnership(address)": {
        "details": "Transfers ownership of the contract to a new account (`newOwner`). Can only be called by the current owner."
      }
    }
  },
  "userdoc": {
    "methods": {
      "pull()": {
        "notice": "1 pull"
      },
      "pull10()": {
        "notice": "10 pulls"
      }
    }
  }
}