{
  "contractName": "HotPotLPStakePool",
  "abi": [
    {
      "inputs": [
        {
          "internalType": "address",
          "name": "_hotpotNFT",
          "type": "address"
        },
        {
          "internalType": "address",
          "name": "_hotpotERC20",
          "type": "address"
        },
        {
          "internalType": "address",
          "name": "_loan",
          "type": "address"
        },
        {
          "internalType": "uint256",
          "name": "_starttime",
          "type": "uint256"
        },
        {
          "internalType": "uint256",
          "name": "duration",
          "type": "uint256"
        },
        {
          "internalType": "uint256",
          "name": "_rewardAmount",
          "type": "uint256"
        },
        {
          "internalType": "address",
          "name": "_uniFactory",
          "type": "address"
        },
        {
          "internalType": "address",
          "name": "_ethAddress",
          "type": "address"
        }
      ],
      "stateMutability": "nonpayable",
      "type": "constructor"
    },
    {
      "anonymous": false,
      "inputs": [
        {
          "indexed": true,
          "internalType": "address",
          "name": "previousOwner",
          "type": "address"
        },
        {
          "indexed": true,
          "internalType": "address",
          "name": "newOwner",
          "type": "address"
        }
      ],
      "name": "OwnershipTransferred",
      "type": "event"
    },
    {
      "anonymous": false,
      "inputs": [
        {
          "indexed": true,
          "internalType": "address",
          "name": "dst",
          "type": "address"
        },
        {
          "indexed": false,
          "internalType": "uint256",
          "name": "sad",
          "type": "uint256"
        }
      ],
      "name": "Rescue",
      "type": "event"
    },
    {
      "anonymous": false,
      "inputs": [
        {
          "indexed": true,
          "internalType": "address",
          "name": "dst",
          "type": "address"
        },
        {
          "indexed": true,
          "internalType": "address",
          "name": "token",
          "type": "address"
        },
        {
          "indexed": false,
          "internalType": "uint256",
          "name": "sad",
          "type": "uint256"
        }
      ],
      "name": "RescueToken",
      "type": "event"
    },
    {
      "anonymous": false,
      "inputs": [
        {
          "indexed": false,
          "internalType": "uint256",
          "name": "reward",
          "type": "uint256"
        }
      ],
      "name": "RewardAdded",
      "type": "event"
    },
    {
      "anonymous": false,
      "inputs": [
        {
          "indexed": true,
          "internalType": "address",
          "name": "user",
          "type": "address"
        },
        {
          "indexed": false,
          "internalType": "uint256",
          "name": "reward",
          "type": "uint256"
        }
      ],
      "name": "RewardPaid",
      "type": "event"
    },
    {
      "anonymous": false,
      "inputs": [
        {
          "indexed": true,
          "internalType": "address",
          "name": "user",
          "type": "address"
        },
        {
          "indexed": false,
          "internalType": "uint256",
          "name": "amount",
          "type": "uint256"
        }
      ],
      "name": "Staked",
      "type": "event"
    },
    {
      "anonymous": false,
      "inputs": [
        {
          "indexed": true,
          "internalType": "address",
          "name": "user",
          "type": "address"
        },
        {
          "indexed": false,
          "internalType": "uint256",
          "name": "amount",
          "type": "uint256"
        }
      ],
      "name": "Withdrawn",
      "type": "event"
    },
    {
      "inputs": [],
      "name": "DURATION",
      "outputs": [
        {
          "internalType": "uint256",
          "name": "",
          "type": "uint256"
        }
      ],
      "stateMutability": "view",
      "type": "function",
      "constant": true
    },
    {
      "inputs": [
        {
          "internalType": "address",
          "name": "account",
          "type": "address"
        }
      ],
      "name": "balanceOf",
      "outputs": [
        {
          "internalType": "uint256",
          "name": "",
          "type": "uint256"
        }
      ],
      "stateMutability": "view",
      "type": "function",
      "constant": true
    },
    {
      "inputs": [
        {
          "internalType": "address",
          "name": "account",
          "type": "address"
        }
      ],
      "name": "earned",
      "outputs": [
        {
          "internalType": "uint256",
          "name": "",
          "type": "uint256"
        }
      ],
      "stateMutability": "view",
      "type": "function",
      "constant": true
    },
    {
      "inputs": [],
      "name": "erc20",
      "outputs": [
        {
          "internalType": "contract IERC20",
          "name": "",
          "type": "address"
        }
      ],
      "stateMutability": "view",
      "type": "function",
      "constant": true
    },
    {
      "inputs": [],
      "name": "erc721",
      "outputs": [
        {
          "internalType": "contract IERC721",
          "name": "",
          "type": "address"
        }
      ],
      "stateMutability": "view",
      "type": "function",
      "constant": true
    },
    {
      "inputs": [],
      "name": "exit",
      "outputs": [],
      "stateMutability": "nonpayable",
      "type": "function"
    },
    {
      "inputs": [],
      "name": "freeRewardRatio",
      "outputs": [
        {
          "internalType": "uint256",
          "name": "",
          "type": "uint256"
        }
      ],
      "stateMutability": "view",
      "type": "function",
      "constant": true
    },
    {
      "inputs": [],
      "name": "getPoolBalance",
      "outputs": [
        {
          "internalType": "uint256",
          "name": "",
          "type": "uint256"
        }
      ],
      "stateMutability": "view",
      "type": "function",
      "constant": true
    },
    {
      "inputs": [
        {
          "internalType": "uint256",
          "name": "_tokenId",
          "type": "uint256"
        }
      ],
      "name": "getRewardByNFT",
      "outputs": [],
      "stateMutability": "nonpayable",
      "type": "function"
    },
    {
      "inputs": [],
      "name": "getRewardFree",
      "outputs": [],
      "stateMutability": "nonpayable",
      "type": "function"
    },
    {
      "inputs": [],
      "name": "grade1RewardRatio",
      "outputs": [
        {
          "internalType": "uint256",
          "name": "",
          "type": "uint256"
        }
      ],
      "stateMutability": "view",
      "type": "function",
      "constant": true
    },
    {
      "inputs": [],
      "name": "grade2RewardRatio",
      "outputs": [
        {
          "internalType": "uint256",
          "name": "",
          "type": "uint256"
        }
      ],
      "stateMutability": "view",
      "type": "function",
      "constant": true
    },
    {
      "inputs": [],
      "name": "grade3RewardRatio",
      "outputs": [
        {
          "internalType": "uint256",
          "name": "",
          "type": "uint256"
        }
      ],
      "stateMutability": "view",
      "type": "function",
      "constant": true
    },
    {
      "inputs": [],
      "name": "hotpot",
      "outputs": [
        {
          "internalType": "contract IHotPot",
          "name": "",
          "type": "address"
        }
      ],
      "stateMutability": "view",
      "type": "function",
      "constant": true
    },
    {
      "inputs": [],
      "name": "lastRewardTime",
      "outputs": [
        {
          "internalType": "uint256",
          "name": "",
          "type": "uint256"
        }
      ],
      "stateMutability": "view",
      "type": "function",
      "constant": true
    },
    {
      "inputs": [],
      "name": "lastTimeRewardApplicable",
      "outputs": [
        {
          "internalType": "uint256",
          "name": "",
          "type": "uint256"
        }
      ],
      "stateMutability": "view",
      "type": "function",
      "constant": true
    },
    {
      "inputs": [],
      "name": "lastUpdateTime",
      "outputs": [
        {
          "internalType": "uint256",
          "name": "",
          "type": "uint256"
        }
      ],
      "stateMutability": "view",
      "type": "function",
      "constant": true
    },
    {
      "inputs": [],
      "name": "loan",
      "outputs": [
        {
          "internalType": "contract ILoan",
          "name": "",
          "type": "address"
        }
      ],
      "stateMutability": "view",
      "type": "function",
      "constant": true
    },
    {
      "inputs": [
        {
          "internalType": "uint256",
          "name": "reward",
          "type": "uint256"
        }
      ],
      "name": "notifyRewardAmount",
      "outputs": [],
      "stateMutability": "nonpayable",
      "type": "function"
    },
    {
      "inputs": [],
      "name": "owner",
      "outputs": [
        {
          "internalType": "address",
          "name": "",
          "type": "address"
        }
      ],
      "stateMutability": "view",
      "type": "function",
      "constant": true
    },
    {
      "inputs": [],
      "name": "periodFinish",
      "outputs": [
        {
          "internalType": "uint256",
          "name": "",
          "type": "uint256"
        }
      ],
      "stateMutability": "view",
      "type": "function",
      "constant": true
    },
    {
      "inputs": [],
      "name": "renounceOwnership",
      "outputs": [],
      "stateMutability": "nonpayable",
      "type": "function"
    },
    {
      "inputs": [
        {
          "internalType": "address",
          "name": "to_",
          "type": "address"
        },
        {
          "internalType": "contract IERC20",
          "name": "token_",
          "type": "address"
        },
        {
          "internalType": "uint256",
          "name": "amount_",
          "type": "uint256"
        }
      ],
      "name": "rescue",
      "outputs": [],
      "stateMutability": "nonpayable",
      "type": "function"
    },
    {
      "inputs": [
        {
          "internalType": "address payable",
          "name": "to_",
          "type": "address"
        },
        {
          "internalType": "uint256",
          "name": "amount_",
          "type": "uint256"
        }
      ],
      "name": "rescue",
      "outputs": [],
      "stateMutability": "nonpayable",
      "type": "function"
    },
    {
      "inputs": [],
      "name": "rewardContract",
      "outputs": [
        {
          "internalType": "address",
          "name": "",
          "type": "address"
        }
      ],
      "stateMutability": "view",
      "type": "function",
      "constant": true
    },
    {
      "inputs": [],
      "name": "rewardDistribution",
      "outputs": [
        {
          "internalType": "address",
          "name": "",
          "type": "address"
        }
      ],
      "stateMutability": "view",
      "type": "function",
      "constant": true
    },
    {
      "inputs": [],
      "name": "rewardPerToken",
      "outputs": [
        {
          "internalType": "uint256",
          "name": "",
          "type": "uint256"
        }
      ],
      "stateMutability": "view",
      "type": "function",
      "constant": true
    },
    {
      "inputs": [],
      "name": "rewardPerTokenStored",
      "outputs": [
        {
          "internalType": "uint256",
          "name": "",
          "type": "uint256"
        }
      ],
      "stateMutability": "view",
      "type": "function",
      "constant": true
    },
    {
      "inputs": [],
      "name": "rewardRate",
      "outputs": [
        {
          "internalType": "uint256",
          "name": "",
          "type": "uint256"
        }
      ],
      "stateMutability": "view",
      "type": "function",
      "constant": true
    },
    {
      "inputs": [],
      "name": "rewardRatio",
      "outputs": [
        {
          "internalType": "uint256",
          "name": "",
          "type": "uint256"
        }
      ],
      "stateMutability": "view",
      "type": "function",
      "constant": true
    },
    {
      "inputs": [
        {
          "internalType": "address",
          "name": "",
          "type": "address"
        }
      ],
      "name": "rewards",
      "outputs": [
        {
          "internalType": "uint256",
          "name": "",
          "type": "uint256"
        }
      ],
      "stateMutability": "view",
      "type": "function",
      "constant": true
    },
    {
      "inputs": [
        {
          "internalType": "address",
          "name": "_addr",
          "type": "address"
        }
      ],
      "name": "setRewardContract",
      "outputs": [],
      "stateMutability": "nonpayable",
      "type": "function"
    },
    {
      "inputs": [
        {
          "internalType": "address",
          "name": "_rewardDistribution",
          "type": "address"
        }
      ],
      "name": "setRewardDistribution",
      "outputs": [],
      "stateMutability": "nonpayable",
      "type": "function"
    },
    {
      "inputs": [
        {
          "internalType": "uint256",
          "name": "amount",
          "type": "uint256"
        }
      ],
      "name": "stake",
      "outputs": [],
      "stateMutability": "nonpayable",
      "type": "function"
    },
    {
      "inputs": [],
      "name": "starttime",
      "outputs": [
        {
          "internalType": "uint256",
          "name": "",
          "type": "uint256"
        }
      ],
      "stateMutability": "view",
      "type": "function",
      "constant": true
    },
    {
      "inputs": [],
      "name": "tokenAddr",
      "outputs": [
        {
          "internalType": "contract IERC20",
          "name": "",
          "type": "address"
        }
      ],
      "stateMutability": "view",
      "type": "function",
      "constant": true
    },
    {
      "inputs": [],
      "name": "totalSupply",
      "outputs": [
        {
          "internalType": "uint256",
          "name": "",
          "type": "uint256"
        }
      ],
      "stateMutability": "view",
      "type": "function",
      "constant": true
    },
    {
      "inputs": [
        {
          "internalType": "address",
          "name": "newOwner",
          "type": "address"
        }
      ],
      "name": "transferOwnership",
      "outputs": [],
      "stateMutability": "nonpayable",
      "type": "function"
    },
    {
      "inputs": [],
      "name": "uniswapFactory",
      "outputs": [
        {
          "internalType": "contract IUniswapV2Factory",
          "name": "",
          "type": "address"
        }
      ],
      "stateMutability": "view",
      "type": "function",
      "constant": true
    },
    {
      "inputs": [
        {
          "internalType": "address",
          "name": "",
          "type": "address"
        }
      ],
      "name": "userRewardPerTokenPaid",
      "outputs": [
        {
          "internalType": "uint256",
          "name": "",
          "type": "uint256"
        }
      ],
      "stateMutability": "view",
      "type": "function",
      "constant": true
    },
    {
      "inputs": [
        {
          "internalType": "uint256",
          "name": "amount",
          "type": "uint256"
        }
      ],
      "name": "withdraw",
      "outputs": [],
      "stateMutability": "nonpayable",
      "type": "function"
    },
    {
      "inputs": [
        {
          "internalType": "uint256",
          "name": "amount",
          "type": "uint256"
        }
      ],
      "name": "withdrawAndGetReward",
      "outputs": [],
      "stateMutability": "nonpayable",
      "type": "function"
    }
  ],
  "bytecode": "0x608060405262093a80600a55635f734bf0600b556000600c556000600d556005601155600a601255600f60135560148055601e6015553480156200004257600080fd5b5060405162002b6638038062002b6683398181016040526101008110156200006957600080fd5b508051602082015160408301516060840151608085015160a086015160c087015160e090970151959694959394929391929091868881888888886000620000b86001600160e01b03620002a616565b600380546001600160a01b0319166001600160a01b038316908117909155604051919250906000907f8be0079c531659141344cd1fd0a4f28419497f9722a3daafe3b4186f6b6457e0908290a350600080546001600160a01b03808a166001600160a01b0319928316179092556006805489841690831681179091556007805483169091179055600580548884169083161790556008805492871692909116919091179055620001706001600160e01b03620002a616565b600480546001600160a01b0319166001600160a01b0392909216919091179055600b839055600a829055620001a581620002aa565b50505050506001600160a01b03841615159150620001da905057735c69bee701ef814a2b6a3edd4b1652cb9cc5aa6f620001dc565b815b601880546001600160a01b0319166001600160a01b0392831617908190556040805163e6a4390560e01b815284841660048201528a841660248201529051600093929092169163e6a4390591604480820192602092909190829003018186803b1580156200024957600080fd5b505afa1580156200025e573d6000803e3d6000fd5b505050506040513d60208110156200027557600080fd5b5051600080546001600160a01b0319166001600160a01b03909216919091179055506200069b975050505050505050565b3390565b600b54421115620003c057600c544210620002f757620002db600a54826200042b60201b62001a7d1790919060201c565b600d55620002f16001600160e01b036200047e16565b62000372565b60006200031542600c546200049460201b620019db1790919060201c565b9050600062000335600d5483620004de60201b62001a241790919060201c565b90506200036c600a546200035883866200053c60201b62001abf1790919060201c565b6200042b60201b62001a7d1790919060201c565b600d5550505b42600e8190555062000395600a54426200053c60201b62001abf1790919060201c565b600c5560408051828152905160008051602062002b258339815191529181900360200190a162000428565b620003dc600a54826200042b60201b62001a7d1790919060201c565b600d55600b54600e819055600a546200040291906200053c602090811b62001abf17901c565b600c5560408051828152905160008051602062002b258339815191529181900360200190a15b50565b60006200047583836040518060400160405280601a81526020017f536166654d6174683a206469766973696f6e206279207a65726f0000000000008152506200059760201b60201c565b90505b92915050565b60036011556009601255600c601355600f601455565b60006200047583836040518060400160405280601e81526020017f536166654d6174683a207375627472616374696f6e206f766572666c6f7700008152506200063e60201b60201c565b600082620004ef5750600062000478565b82820282848281620004fd57fe5b0414620004755760405162461bcd60e51b815260040180806020018281038252602181526020018062002b456021913960400191505060405180910390fd5b60008282018381101562000475576040805162461bcd60e51b815260206004820152601b60248201527f536166654d6174683a206164646974696f6e206f766572666c6f770000000000604482015290519081900360640190fd5b60008183620006275760405162461bcd60e51b81526004018080602001828103825283818151815260200191508051906020019080838360005b83811015620005eb578181015183820152602001620005d1565b50505050905090810190601f168015620006195780820380516001836020036101000a031916815260200191505b509250505060405180910390fd5b5060008385816200063457fe5b0495945050505050565b60008184841115620006935760405162461bcd60e51b8152602060048201818152835160248401528351909283926044909101919085019080838360008315620005eb578181015183820152602001620005d1565b505050900390565b61247a80620006ab6000396000f3fe608060405234801561001057600080fd5b50600436106102dd5760003560e01c80637a4e4ecf11610186578063abd70aa2116100e3578063df136d6511610097578063f0bc9fa711610071578063f0bc9fa7146105a4578063f2fde38b146105ac578063f44c407a146105d2576102dd565b8063df136d651461058c578063e9fad8ee14610594578063ebe2b12b1461059c576102dd565b8063c8f33c91116100c8578063c8f33c9114610574578063cd3daf9d1461057c578063d285b7b414610584576102dd565b8063abd70aa214610564578063bca6ce641461056c576102dd565b80638bdb2afa1161013a5780638da5cb5b1161011f5780638da5cb5b146105375780639231cf741461053f578063a694fc3a14610547576102dd565b80638bdb2afa146105275780638da588971461052f576102dd565b80637b0a47ee1161016b5780637b0a47ee146104f157806380faa57d146104f95780638b87634714610501576102dd565b80637a4e4ecf146104bd5780637b087fde146104e9576102dd565b8063424ad03d1161023f5780635fbe4d1d116101f357806370a08231116101cd57806370a0823114610487578063715018a6146104ad578063785e9e86146104b5576102dd565b80635fbe4d1d1461046f578063646033bc146104775780636ea69d621461047f576102dd565b806347a005c61161022457806347a005c61461042457806351508f0a146104415780635e0ab68014610467576102dd565b8063424ad03d14610414578063430a06351461041c576102dd565b806318160ddd1161029657806320ff430b1161027b57806320ff430b146103a45780632e1a7d4d146103da5780633c6b16ab146103f7576102dd565b806318160ddd146103945780631be052891461039c576102dd565b80630d68b761116102c75780630d68b76114610340578063101114cf1461036857806315ea88c41461038c576102dd565b80628cc262146102e25780630700037d1461031a575b600080fd5b610308600480360360208110156102f857600080fd5b50356001600160a01b03166105ef565b60408051918252519081900360200190f35b6103086004803603602081101561033057600080fd5b50356001600160a01b0316610675565b6103666004803603602081101561035657600080fd5b50356001600160a01b0316610687565b005b61037061072b565b604080516001600160a01b039092168252519081900360200190f35b61037061073a565b610308610749565b610308610750565b610366600480360360608110156103ba57600080fd5b506001600160a01b03813581169160208101359091169060400135610756565b610366600480360360208110156103f057600080fd5b5035610a0a565b6103666004803603602081101561040d57600080fd5b5035610b54565b610366610c16565b610308610d36565b6103666004803603602081101561043a57600080fd5b5035610d3c565b6103666004803603602081101561045757600080fd5b50356001600160a01b0316611114565b61030861121b565b610370611221565b610308611230565b610370611236565b6103086004803603602081101561049d57600080fd5b50356001600160a01b0316611245565b610366611260565b61037061132c565b610366600480360360408110156104d357600080fd5b506001600160a01b03813516906020013561133b565b6103086114cf565b6103086114d5565b6103086114db565b6103086004803603602081101561051757600080fd5b50356001600160a01b03166114ee565b610370611500565b61030861150f565b610370611515565b610308611524565b6103666004803603602081101561055d57600080fd5b503561152a565b610308611674565b610370611709565b610308611718565b61030861171e565b610370611772565b610308611781565b610366611787565b6103086117a2565b6103086117a8565b610366600480360360208110156105c257600080fd5b50356001600160a01b03166117ae565b610366600480360360208110156105e857600080fd5b50356118d1565b6001600160a01b038116600090815260176020908152604080832054601690925282205461066f919061066390670de0b6b3a764000090610657906106429061063661171e565b9063ffffffff6119db16565b61064b88611245565b9063ffffffff611a2416565b9063ffffffff611a7d16565b9063ffffffff611abf16565b92915050565b60176020526000908152604090205481565b61068f611b19565b6003546001600160a01b039081169116146106f1576040805162461bcd60e51b815260206004820181905260248201527f4f776e61626c653a2063616c6c6572206973206e6f7420746865206f776e6572604482015290519081900360640190fd5b600480547fffffffffffffffffffffffff0000000000000000000000000000000000000000166001600160a01b0392909216919091179055565b6004546001600160a01b031681565b6006546001600160a01b031681565b6001545b90565b600a5481565b61075e611b19565b6003546001600160a01b039081169116146107c0576040805162461bcd60e51b815260206004820181905260248201527f4f776e61626c653a2063616c6c6572206973206e6f7420746865206f776e6572604482015290519081900360640190fd5b6001600160a01b03831661081b576040805162461bcd60e51b815260206004820152600a60248201527f6d757374206e6f74203000000000000000000000000000000000000000000000604482015290519081900360640190fd5b60008111610870576040805162461bcd60e51b815260206004820152600960248201527f6d75737420677420300000000000000000000000000000000000000000000000604482015290519081900360640190fd5b6005546001600160a01b03838116911614156108d3576040805162461bcd60e51b815260206004820152600e60248201527f6d757374206e6f74206572633230000000000000000000000000000000000000604482015290519081900360640190fd5b6000546001600160a01b0383811691161415610936576040805162461bcd60e51b815260206004820152601560248201527f6d757374206e6f74207468697320706c546f6b656e0000000000000000000000604482015290519081900360640190fd5b816001600160a01b031663a9059cbb84836040518363ffffffff1660e01b815260040180836001600160a01b03166001600160a01b0316815260200182815260200192505050602060405180830381600087803b15801561099657600080fd5b505af11580156109aa573d6000803e3d6000fd5b505050506040513d60208110156109c057600080fd5b50506040805182815290516001600160a01b0380851692908616917faabf44ab9d5bef08d1b60f287a337f0d11a248e49741ad189b429e47e98ba9109181900360200190a3505050565b33610a1361171e565b600f55610a1e6114db565b600e556001600160a01b03811615610a6557610a39816105ef565b6001600160a01b038216600090815260176020908152604080832093909355600f546016909152919020555b600b54421015610abc576040805162461bcd60e51b815260206004820152600960248201527f6e6f742073746172740000000000000000000000000000000000000000000000604482015290519081900360640190fd5b60008211610b11576040805162461bcd60e51b815260206004820152601160248201527f43616e6e6f742077697468647261772030000000000000000000000000000000604482015290519081900360640190fd5b610b1a82611b1d565b60408051838152905133917f7084f5476618d8e60b11ef0d7d3f06914655adb8793e28ff7f018d4c76d505d5919081900360200190a25050565b6004546001600160a01b0316610b68611b19565b6001600160a01b031614610bad5760405162461bcd60e51b81526004018080602001828103825260218152602001806123b46021913960400191505060405180910390fd5b6000610bb761171e565b600f55610bc26114db565b600e556001600160a01b03811615610c0957610bdd816105ef565b6001600160a01b038216600090815260176020908152604080832093909355600f546016909152919020555b610c1282611b7e565b5050565b33610c1f61171e565b600f55610c2a6114db565b600e556001600160a01b03811615610c7157610c45816105ef565b6001600160a01b038216600090815260176020908152604080832093909355600f546016909152919020555b600b54421015610cc8576040805162461bcd60e51b815260206004820152600960248201527f6e6f742073746172740000000000000000000000000000000000000000000000604482015290519081900360640190fd5b42601054620151800110610d23576040805162461bcd60e51b815260206004820152601f60248201527f596f7520676574207265776172642077697468696e20323420686f7572732100604482015290519081900360640190fd5b42601055601154610d3390611cc3565b50565b60115481565b33610d4561171e565b600f55610d506114db565b600e556001600160a01b03811615610d9757610d6b816105ef565b6001600160a01b038216600090815260176020908152604080832093909355600f546016909152919020555b600b54421015610dee576040805162461bcd60e51b815260206004820152600960248201527f6e6f742073746172740000000000000000000000000000000000000000000000604482015290519081900360640190fd5b600654604080517f5840e6590000000000000000000000000000000000000000000000000000000081526004810185905290516000926001600160a01b031691635840e659916024808301926020929190829003018186803b158015610e5357600080fd5b505afa158015610e67573d6000803e3d6000fd5b505050506040513d6020811015610e7d57600080fd5b505190507ffffffffffffffffffffffffffffffffffffffffffffffffffffffffffffeae8042018110610ee15760405162461bcd60e51b81526004018080602001828103825260248152602001806123d56024913960400191505060405180910390fd5b600854604080517f3130c3ae0000000000000000000000000000000000000000000000000000000081523360048201526024810186905242604482015290516001600160a01b0390921691633130c3ae91606480820192602092909190829003018186803b158015610f5257600080fd5b505afa158015610f66573d6000803e3d6000fd5b505050506040513d6020811015610f7c57600080fd5b5051610fb95760405162461bcd60e51b81526004018080602001828103825260288152602001806123456028913960400191505060405180910390fd5b600654604080517fe1e0485e0000000000000000000000000000000000000000000000000000000081526004810186905290516000926001600160a01b03169163e1e0485e916024808301926020929190829003018186803b15801561101e57600080fd5b505afa158015611032573d6000803e3d6000fd5b505050506040513d602081101561104857600080fd5b505160125460ff909116915060018214156110665750601254611086565b81600214156110785750601354611086565b816003141561108657506014545b61108f81611cc3565b600654604080517f22142e6c0000000000000000000000000000000000000000000000000000000081526004810188905290516001600160a01b03909216916322142e6c9160248082019260009290919082900301818387803b1580156110f557600080fd5b505af1158015611109573d6000803e3d6000fd5b505050505050505050565b61111c611b19565b6003546001600160a01b0390811691161461117e576040805162461bcd60e51b815260206004820181905260248201527f4f776e61626c653a2063616c6c6572206973206e6f7420746865206f776e6572604482015290519081900360640190fd5b611190816001600160a01b0316611e53565b6111e1576040805162461bcd60e51b815260206004820152601b60248201527f4974206973206e6f7420636f6e74726163742061646472657373210000000000604482015290519081900360640190fd5b600980547fffffffffffffffffffffffff0000000000000000000000000000000000000000166001600160a01b0392909216919091179055565b60145481565b6000546001600160a01b031681565b60155481565b6009546001600160a01b031681565b6001600160a01b031660009081526002602052604090205490565b611268611b19565b6003546001600160a01b039081169116146112ca576040805162461bcd60e51b815260206004820181905260248201527f4f776e61626c653a2063616c6c6572206973206e6f7420746865206f776e6572604482015290519081900360640190fd5b6003546040516000916001600160a01b0316907f8be0079c531659141344cd1fd0a4f28419497f9722a3daafe3b4186f6b6457e0908390a3600380547fffffffffffffffffffffffff0000000000000000000000000000000000000000169055565b6005546001600160a01b031681565b611343611b19565b6003546001600160a01b039081169116146113a5576040805162461bcd60e51b815260206004820181905260248201527f4f776e61626c653a2063616c6c6572206973206e6f7420746865206f776e6572604482015290519081900360640190fd5b6001600160a01b038216611400576040805162461bcd60e51b815260206004820152600a60248201527f6d757374206e6f74203000000000000000000000000000000000000000000000604482015290519081900360640190fd5b60008111611455576040805162461bcd60e51b815260206004820152600960248201527f6d75737420677420300000000000000000000000000000000000000000000000604482015290519081900360640190fd5b6040516001600160a01b0383169082156108fc029083906000818181858888f1935050505015801561148b573d6000803e3d6000fd5b506040805182815290516001600160a01b038416917f542fa6bfee3b4746210fbdd1d83f9e49b65adde3639f8d8f165dd18347938af2919081900360200190a25050565b60135481565b600d5481565b60006114e942600c54611e59565b905090565b60166020526000908152604090205481565b6018546001600160a01b031681565b600b5481565b6003546001600160a01b031690565b60105481565b3361153361171e565b600f5561153e6114db565b600e556001600160a01b0381161561158557611559816105ef565b6001600160a01b038216600090815260176020908152604080832093909355600f546016909152919020555b600b544210156115dc576040805162461bcd60e51b815260206004820152600960248201527f6e6f742073746172740000000000000000000000000000000000000000000000604482015290519081900360640190fd5b60008211611631576040805162461bcd60e51b815260206004820152600e60248201527f43616e6e6f74207374616b652030000000000000000000000000000000000000604482015290519081900360640190fd5b61163a82611e6f565b60408051838152905133917f9e71bc8eea02a63969f509818f2dafb9254532904319f9dbda79b67bd34a5f3d919081900360200190a25050565b600554604080517f70a0823100000000000000000000000000000000000000000000000000000000815230600482015290516000926001600160a01b0316916370a08231916024808301926020929190829003018186803b1580156116d857600080fd5b505afa1580156116ec573d6000803e3d6000fd5b505050506040513d602081101561170257600080fd5b5051905090565b6007546001600160a01b031681565b600e5481565b6000611728610749565b6117355750600f5461074d565b6114e9611763611743610749565b610657670de0b6b3a764000061064b600d5461064b600e546106366114db565b600f549063ffffffff611abf16565b6008546001600160a01b031681565b600f5481565b61179861179333611245565b610a0a565b6117a0610c16565b565b600c5481565b60125481565b6117b6611b19565b6003546001600160a01b03908116911614611818576040805162461bcd60e51b815260206004820181905260248201527f4f776e61626c653a2063616c6c6572206973206e6f7420746865206f776e6572604482015290519081900360640190fd5b6001600160a01b03811661185d5760405162461bcd60e51b815260040180806020018281038252602681526020018061236d6026913960400191505060405180910390fd5b6003546040516001600160a01b038084169216907f8be0079c531659141344cd1fd0a4f28419497f9722a3daafe3b4186f6b6457e090600090a3600380547fffffffffffffffffffffffff0000000000000000000000000000000000000000166001600160a01b0392909216919091179055565b336118da61171e565b600f556118e56114db565b600e556001600160a01b0381161561192c57611900816105ef565b6001600160a01b038216600090815260176020908152604080832093909355600f546016909152919020555b600b54421015611983576040805162461bcd60e51b815260206004820152600960248201527f6e6f742073746172740000000000000000000000000000000000000000000000604482015290519081900360640190fd5b61198c33611245565b8211156119ca5760405162461bcd60e51b81526004018080602001828103825260228152602001806124236022913960400191505060405180910390fd5b6119d382610a0a565b610c12610c16565b6000611a1d83836040518060400160405280601e81526020017f536166654d6174683a207375627472616374696f6e206f766572666c6f770000815250611ed1565b9392505050565b600082611a335750600061066f565b82820282848281611a4057fe5b0414611a1d5760405162461bcd60e51b81526004018080602001828103825260218152602001806123936021913960400191505060405180910390fd5b6000611a1d83836040518060400160405280601a81526020017f536166654d6174683a206469766973696f6e206279207a65726f000000000000815250611f68565b600082820183811015611a1d576040805162461bcd60e51b815260206004820152601b60248201527f536166654d6174683a206164646974696f6e206f766572666c6f770000000000604482015290519081900360640190fd5b3390565b600154611b30908263ffffffff6119db16565b60015533600090815260026020526040902054611b53908263ffffffff6119db16565b336000818152600260205260408120929092559054610d33916001600160a01b039091169083611fcd565b600b54421115611c5857600c544210611bb557600a54611ba590829063ffffffff611a7d16565b600d55611bb061204d565b611c04565b600c54600090611bcb904263ffffffff6119db16565b90506000611be4600d5483611a2490919063ffffffff16565b600a54909150611bfe90610657858463ffffffff611abf16565b600d5550505b42600e819055600a54611c1d919063ffffffff611abf16565b600c556040805182815290517fde88a922e0d3b88b24e9623efeb464919c6bf9f66857a65e2bfcf2ce87a9433d9181900360200190a1610d33565b600a54611c6c90829063ffffffff611a7d16565b600d55600b54600e819055600a54611c8a919063ffffffff611abf16565b600c556040805182815290517fde88a922e0d3b88b24e9623efeb464919c6bf9f66857a65e2bfcf2ce87a9433d9181900360200190a150565b33611ccc61171e565b600f55611cd76114db565b600e556001600160a01b03811615611d1e57611cf2816105ef565b6001600160a01b038216600090815260176020908152604080832093909355600f546016909152919020555b600b54421015611d75576040805162461bcd60e51b815260206004820152600960248201527f6e6f742073746172740000000000000000000000000000000000000000000000604482015290519081900360640190fd5b60648210611d8257600080fd5b6000611d8d336105ef565b90508015611e4e5733600081815260176020526040902060648584028190048085039092556015549192611dde92909190810384025b6005546001600160a01b03169291900463ffffffff611fcd16565b600954601554611dfc916001600160a01b0316906064908402611dc3565b336001600160a01b03167fe2403640ba68fed3a2f88b7557551d1993f84b99bb10ff833f0cf8db0c5e04866064601554606403840281611e3857fe5b60408051929091048252519081900360200190a2505b505050565b3b151590565b6000818310611e685781611a1d565b5090919050565b600154611e82908263ffffffff611abf16565b60015533600090815260026020526040902054611ea5908263ffffffff611abf16565b336000818152600260205260408120929092559054610d33916001600160a01b03909116903084612063565b60008184841115611f605760405162461bcd60e51b81526004018080602001828103825283818151815260200191508051906020019080838360005b83811015611f25578181015183820152602001611f0d565b50505050905090810190601f168015611f525780820380516001836020036101000a031916815260200191505b509250505060405180910390fd5b505050900390565b60008183611fb75760405162461bcd60e51b8152602060048201818152835160248401528351909283926044909101919085019080838360008315611f25578181015183820152602001611f0d565b506000838581611fc357fe5b0495945050505050565b604080516001600160a01b038416602482015260448082018490528251808303909101815260649091019091526020810180517bffffffffffffffffffffffffffffffffffffffffffffffffffffffff167fa9059cbb00000000000000000000000000000000000000000000000000000000179052611e4e9084906120f1565b60036011556009601255600c601355600f601455565b604080516001600160a01b0380861660248301528416604482015260648082018490528251808303909101815260849091019091526020810180517bffffffffffffffffffffffffffffffffffffffffffffffffffffffff167f23b872dd000000000000000000000000000000000000000000000000000000001790526120eb9085906120f1565b50505050565b6060612146826040518060400160405280602081526020017f5361666545524332303a206c6f772d6c6576656c2063616c6c206661696c6564815250856001600160a01b03166121a29092919063ffffffff16565b805190915015611e4e5780806020019051602081101561216557600080fd5b5051611e4e5760405162461bcd60e51b815260040180806020018281038252602a8152602001806123f9602a913960400191505060405180910390fd5b60606121b184846000856121b9565b949350505050565b60606121c485611e53565b612215576040805162461bcd60e51b815260206004820152601d60248201527f416464726573733a2063616c6c20746f206e6f6e2d636f6e7472616374000000604482015290519081900360640190fd5b60006060866001600160a01b031685876040518082805190602001908083835b6020831061227257805182527fffffffffffffffffffffffffffffffffffffffffffffffffffffffffffffffe09092019160209182019101612235565b6001836020036101000a03801982511681845116808217855250505050505090500191505060006040518083038185875af1925050503d80600081146122d4576040519150601f19603f3d011682016040523d82523d6000602084013e6122d9565b606091505b509150915081156122ed5791506121b19050565b8051156122fd5780518082602001fd5b60405162461bcd60e51b8152602060048201818152865160248401528651879391928392604401919085019080838360008315611f25578181015183820152602001611f0d56fe596f7520646f206e6f74206861766520726967687420746f20757365207468697320746f6b656e214f776e61626c653a206e6577206f776e657220697320746865207a65726f2061646472657373536166654d6174683a206d756c7469706c69636174696f6e206f766572666c6f7743616c6c6572206973206e6f742072657761726420646973747269627574696f6e54686973207469636b657420697320757365642077697468696e20323420686f757273215361666545524332303a204552433230206f7065726174696f6e20646964206e6f74207375636365656443616e6e6f7420776974686472617720657863656564207468652062616c616e6365a2646970667358221220093096b5e8c26057aa180cb321efc57df21e3768c8eac27f23ef58d42f98f24364736f6c63430006020033de88a922e0d3b88b24e9623efeb464919c6bf9f66857a65e2bfcf2ce87a9433d536166654d6174683a206d756c7469706c69636174696f6e206f766572666c6f77",
  "source": "pragma solidity ^0.6.0;\n\nimport \"./StakePool.sol\";\nimport \"../uniswap/IUniswapV2Factory.sol\";\nimport \"@openzeppelin/contracts/token/ERC20/IERC20.sol\";\n\n\ncontract HotPotLPStakePool is StakePool{\n    IUniswapV2Factory public uniswapFactory;\n\n    constructor(\n        address _hotpotNFT,\n        address _hotpotERC20,\n        address _loan,\n        uint256 _starttime,\n        uint256 duration,\n        uint256 _rewardAmount,\n        address _uniFactory,\n        address _ethAddress\n    ) public StakePool(_hotpotERC20,_hotpotNFT,_hotpotERC20,_loan,_starttime,duration,_rewardAmount){\n        uniswapFactory = IUniswapV2Factory(_uniFactory != address(0) ? _uniFactory : 0x5C69bEe701ef814a2B6a3EDD4B1652CB9cc5aA6f); \n\n        address pair = uniswapFactory.getPair(_ethAddress,_hotpotERC20);\n        tokenAddr = IERC20(pair);\n    }\n}",
  "sourcePath": "/Users/junhu/git/hotpotcontract/truffle/contracts/stake/HotPotLPStakePool.sol",
  "compiler": {
    "name": "solc",
    "version": "0.6.2+commit.bacdbe57.Emscripten.clang"
  },
  "schemaVersion": "3.3.0",
  "updatedAt": "2020-10-19T03:42:04.722Z",
  "networkType": "ethereum",
  "devdoc": {
    "methods": {
      "owner()": {
        "details": "Returns the address of the current owner."
      },
      "renounceOwnership()": {
        "details": "Leaves the contract without owner. It will not be possible to call `onlyOwner` functions anymore. Can only be called by the current owner.     * NOTE: Renouncing ownership will leave the contract without an owner, thereby removing any functionality that is only available to the owner."
      },
      "transferOwnership(address)": {
        "details": "Transfers ownership of the contract to a new account (`newOwner`). Can only be called by the current owner."
      }
    }
  },
  "userdoc": {
    "methods": {}
  }
}