{
  "contractName": "HotPotLPStakePool",
  "abi": [
    {
      "inputs": [
        {
          "internalType": "address",
          "name": "_hotpotNFT",
          "type": "address"
        },
        {
          "internalType": "address",
          "name": "_hotpotERC20",
          "type": "address"
        },
        {
          "internalType": "address",
          "name": "_loan",
          "type": "address"
        },
        {
          "internalType": "address",
          "name": "_reward",
          "type": "address"
        },
        {
          "internalType": "uint256",
          "name": "_starttime",
          "type": "uint256"
        },
        {
          "internalType": "uint256",
          "name": "duration",
          "type": "uint256"
        },
        {
          "internalType": "uint256",
          "name": "_rewardAmount",
          "type": "uint256"
        },
        {
          "internalType": "address",
          "name": "_uniFactory",
          "type": "address"
        },
        {
          "internalType": "address",
          "name": "_ethAddress",
          "type": "address"
        }
      ],
      "stateMutability": "nonpayable",
      "type": "constructor"
    },
    {
      "anonymous": false,
      "inputs": [
        {
          "indexed": true,
          "internalType": "address",
          "name": "previousOwner",
          "type": "address"
        },
        {
          "indexed": true,
          "internalType": "address",
          "name": "newOwner",
          "type": "address"
        }
      ],
      "name": "OwnershipTransferred",
      "type": "event"
    },
    {
      "anonymous": false,
      "inputs": [
        {
          "indexed": true,
          "internalType": "address",
          "name": "dst",
          "type": "address"
        },
        {
          "indexed": false,
          "internalType": "uint256",
          "name": "sad",
          "type": "uint256"
        }
      ],
      "name": "Rescue",
      "type": "event"
    },
    {
      "anonymous": false,
      "inputs": [
        {
          "indexed": true,
          "internalType": "address",
          "name": "dst",
          "type": "address"
        },
        {
          "indexed": true,
          "internalType": "address",
          "name": "token",
          "type": "address"
        },
        {
          "indexed": false,
          "internalType": "uint256",
          "name": "sad",
          "type": "uint256"
        }
      ],
      "name": "RescueToken",
      "type": "event"
    },
    {
      "anonymous": false,
      "inputs": [
        {
          "indexed": false,
          "internalType": "uint256",
          "name": "reward",
          "type": "uint256"
        }
      ],
      "name": "RewardAdded",
      "type": "event"
    },
    {
      "anonymous": false,
      "inputs": [
        {
          "indexed": true,
          "internalType": "address",
          "name": "user",
          "type": "address"
        },
        {
          "indexed": false,
          "internalType": "uint256",
          "name": "reward",
          "type": "uint256"
        }
      ],
      "name": "RewardPaid",
      "type": "event"
    },
    {
      "anonymous": false,
      "inputs": [
        {
          "indexed": true,
          "internalType": "address",
          "name": "user",
          "type": "address"
        },
        {
          "indexed": false,
          "internalType": "uint256",
          "name": "amount",
          "type": "uint256"
        }
      ],
      "name": "Staked",
      "type": "event"
    },
    {
      "anonymous": false,
      "inputs": [
        {
          "indexed": true,
          "internalType": "address",
          "name": "user",
          "type": "address"
        },
        {
          "indexed": false,
          "internalType": "uint256",
          "name": "amount",
          "type": "uint256"
        }
      ],
      "name": "Withdrawn",
      "type": "event"
    },
    {
      "inputs": [],
      "name": "DURATION",
      "outputs": [
        {
          "internalType": "uint256",
          "name": "",
          "type": "uint256"
        }
      ],
      "stateMutability": "view",
      "type": "function",
      "constant": true
    },
    {
      "inputs": [
        {
          "internalType": "address",
          "name": "account",
          "type": "address"
        }
      ],
      "name": "balanceOf",
      "outputs": [
        {
          "internalType": "uint256",
          "name": "",
          "type": "uint256"
        }
      ],
      "stateMutability": "view",
      "type": "function",
      "constant": true
    },
    {
      "inputs": [
        {
          "internalType": "address",
          "name": "account",
          "type": "address"
        }
      ],
      "name": "earned",
      "outputs": [
        {
          "internalType": "uint256",
          "name": "",
          "type": "uint256"
        }
      ],
      "stateMutability": "view",
      "type": "function",
      "constant": true
    },
    {
      "inputs": [],
      "name": "erc20",
      "outputs": [
        {
          "internalType": "contract IERC20",
          "name": "",
          "type": "address"
        }
      ],
      "stateMutability": "view",
      "type": "function",
      "constant": true
    },
    {
      "inputs": [],
      "name": "erc721",
      "outputs": [
        {
          "internalType": "contract IERC721",
          "name": "",
          "type": "address"
        }
      ],
      "stateMutability": "view",
      "type": "function",
      "constant": true
    },
    {
      "inputs": [],
      "name": "exit",
      "outputs": [],
      "stateMutability": "nonpayable",
      "type": "function"
    },
    {
      "inputs": [],
      "name": "freeRewardRatio",
      "outputs": [
        {
          "internalType": "uint256",
          "name": "",
          "type": "uint256"
        }
      ],
      "stateMutability": "view",
      "type": "function",
      "constant": true
    },
    {
      "inputs": [],
      "name": "getPoolBalance",
      "outputs": [
        {
          "internalType": "uint256",
          "name": "",
          "type": "uint256"
        }
      ],
      "stateMutability": "view",
      "type": "function",
      "constant": true
    },
    {
      "inputs": [
        {
          "internalType": "uint256",
          "name": "_tokenId",
          "type": "uint256"
        }
      ],
      "name": "getRewardByNFT",
      "outputs": [],
      "stateMutability": "nonpayable",
      "type": "function"
    },
    {
      "inputs": [],
      "name": "getRewardFree",
      "outputs": [],
      "stateMutability": "nonpayable",
      "type": "function"
    },
    {
      "inputs": [],
      "name": "grade1RewardRatio",
      "outputs": [
        {
          "internalType": "uint256",
          "name": "",
          "type": "uint256"
        }
      ],
      "stateMutability": "view",
      "type": "function",
      "constant": true
    },
    {
      "inputs": [],
      "name": "grade2RewardRatio",
      "outputs": [
        {
          "internalType": "uint256",
          "name": "",
          "type": "uint256"
        }
      ],
      "stateMutability": "view",
      "type": "function",
      "constant": true
    },
    {
      "inputs": [],
      "name": "grade3RewardRatio",
      "outputs": [
        {
          "internalType": "uint256",
          "name": "",
          "type": "uint256"
        }
      ],
      "stateMutability": "view",
      "type": "function",
      "constant": true
    },
    {
      "inputs": [],
      "name": "hotpot",
      "outputs": [
        {
          "internalType": "contract IHotPot",
          "name": "",
          "type": "address"
        }
      ],
      "stateMutability": "view",
      "type": "function",
      "constant": true
    },
    {
      "inputs": [
        {
          "internalType": "address",
          "name": "",
          "type": "address"
        }
      ],
      "name": "lastRewardTime",
      "outputs": [
        {
          "internalType": "uint256",
          "name": "",
          "type": "uint256"
        }
      ],
      "stateMutability": "view",
      "type": "function",
      "constant": true
    },
    {
      "inputs": [],
      "name": "lastTimeRewardApplicable",
      "outputs": [
        {
          "internalType": "uint256",
          "name": "",
          "type": "uint256"
        }
      ],
      "stateMutability": "view",
      "type": "function",
      "constant": true
    },
    {
      "inputs": [],
      "name": "lastUpdateTime",
      "outputs": [
        {
          "internalType": "uint256",
          "name": "",
          "type": "uint256"
        }
      ],
      "stateMutability": "view",
      "type": "function",
      "constant": true
    },
    {
      "inputs": [],
      "name": "loan",
      "outputs": [
        {
          "internalType": "contract ILoan",
          "name": "",
          "type": "address"
        }
      ],
      "stateMutability": "view",
      "type": "function",
      "constant": true
    },
    {
      "inputs": [
        {
          "internalType": "uint256",
          "name": "reward",
          "type": "uint256"
        }
      ],
      "name": "notifyRewardAmount",
      "outputs": [],
      "stateMutability": "nonpayable",
      "type": "function"
    },
    {
      "inputs": [],
      "name": "owner",
      "outputs": [
        {
          "internalType": "address",
          "name": "",
          "type": "address"
        }
      ],
      "stateMutability": "view",
      "type": "function",
      "constant": true
    },
    {
      "inputs": [],
      "name": "periodFinish",
      "outputs": [
        {
          "internalType": "uint256",
          "name": "",
          "type": "uint256"
        }
      ],
      "stateMutability": "view",
      "type": "function",
      "constant": true
    },
    {
      "inputs": [],
      "name": "renounceOwnership",
      "outputs": [],
      "stateMutability": "nonpayable",
      "type": "function"
    },
    {
      "inputs": [
        {
          "internalType": "address",
          "name": "to_",
          "type": "address"
        },
        {
          "internalType": "contract IERC20",
          "name": "token_",
          "type": "address"
        },
        {
          "internalType": "uint256",
          "name": "amount_",
          "type": "uint256"
        }
      ],
      "name": "rescue",
      "outputs": [],
      "stateMutability": "nonpayable",
      "type": "function"
    },
    {
      "inputs": [
        {
          "internalType": "address payable",
          "name": "to_",
          "type": "address"
        },
        {
          "internalType": "uint256",
          "name": "amount_",
          "type": "uint256"
        }
      ],
      "name": "rescue",
      "outputs": [],
      "stateMutability": "nonpayable",
      "type": "function"
    },
    {
      "inputs": [],
      "name": "rewardContract",
      "outputs": [
        {
          "internalType": "address",
          "name": "",
          "type": "address"
        }
      ],
      "stateMutability": "view",
      "type": "function",
      "constant": true
    },
    {
      "inputs": [],
      "name": "rewardDistribution",
      "outputs": [
        {
          "internalType": "address",
          "name": "",
          "type": "address"
        }
      ],
      "stateMutability": "view",
      "type": "function",
      "constant": true
    },
    {
      "inputs": [],
      "name": "rewardPerToken",
      "outputs": [
        {
          "internalType": "uint256",
          "name": "",
          "type": "uint256"
        }
      ],
      "stateMutability": "view",
      "type": "function",
      "constant": true
    },
    {
      "inputs": [],
      "name": "rewardPerTokenStored",
      "outputs": [
        {
          "internalType": "uint256",
          "name": "",
          "type": "uint256"
        }
      ],
      "stateMutability": "view",
      "type": "function",
      "constant": true
    },
    {
      "inputs": [],
      "name": "rewardRate",
      "outputs": [
        {
          "internalType": "uint256",
          "name": "",
          "type": "uint256"
        }
      ],
      "stateMutability": "view",
      "type": "function",
      "constant": true
    },
    {
      "inputs": [],
      "name": "rewardRatio",
      "outputs": [
        {
          "internalType": "uint256",
          "name": "",
          "type": "uint256"
        }
      ],
      "stateMutability": "view",
      "type": "function",
      "constant": true
    },
    {
      "inputs": [
        {
          "internalType": "address",
          "name": "",
          "type": "address"
        }
      ],
      "name": "rewards",
      "outputs": [
        {
          "internalType": "uint256",
          "name": "",
          "type": "uint256"
        }
      ],
      "stateMutability": "view",
      "type": "function",
      "constant": true
    },
    {
      "inputs": [
        {
          "internalType": "address",
          "name": "_addr",
          "type": "address"
        }
      ],
      "name": "setRewardContract",
      "outputs": [],
      "stateMutability": "nonpayable",
      "type": "function"
    },
    {
      "inputs": [
        {
          "internalType": "address",
          "name": "_rewardDistribution",
          "type": "address"
        }
      ],
      "name": "setRewardDistribution",
      "outputs": [],
      "stateMutability": "nonpayable",
      "type": "function"
    },
    {
      "inputs": [
        {
          "internalType": "uint256",
          "name": "amount",
          "type": "uint256"
        }
      ],
      "name": "stake",
      "outputs": [],
      "stateMutability": "nonpayable",
      "type": "function"
    },
    {
      "inputs": [],
      "name": "starttime",
      "outputs": [
        {
          "internalType": "uint256",
          "name": "",
          "type": "uint256"
        }
      ],
      "stateMutability": "view",
      "type": "function",
      "constant": true
    },
    {
      "inputs": [],
      "name": "tokenAddr",
      "outputs": [
        {
          "internalType": "contract IERC20",
          "name": "",
          "type": "address"
        }
      ],
      "stateMutability": "view",
      "type": "function",
      "constant": true
    },
    {
      "inputs": [],
      "name": "totalSupply",
      "outputs": [
        {
          "internalType": "uint256",
          "name": "",
          "type": "uint256"
        }
      ],
      "stateMutability": "view",
      "type": "function",
      "constant": true
    },
    {
      "inputs": [
        {
          "internalType": "address",
          "name": "newOwner",
          "type": "address"
        }
      ],
      "name": "transferOwnership",
      "outputs": [],
      "stateMutability": "nonpayable",
      "type": "function"
    },
    {
      "inputs": [],
      "name": "uniswapFactory",
      "outputs": [
        {
          "internalType": "contract IUniswapV2Factory",
          "name": "",
          "type": "address"
        }
      ],
      "stateMutability": "view",
      "type": "function",
      "constant": true
    },
    {
      "inputs": [
        {
          "internalType": "address",
          "name": "",
          "type": "address"
        }
      ],
      "name": "userRewardPerTokenPaid",
      "outputs": [
        {
          "internalType": "uint256",
          "name": "",
          "type": "uint256"
        }
      ],
      "stateMutability": "view",
      "type": "function",
      "constant": true
    },
    {
      "inputs": [
        {
          "internalType": "uint256",
          "name": "amount",
          "type": "uint256"
        }
      ],
      "name": "withdraw",
      "outputs": [],
      "stateMutability": "nonpayable",
      "type": "function"
    },
    {
      "inputs": [
        {
          "internalType": "uint256",
          "name": "amount",
          "type": "uint256"
        }
      ],
      "name": "withdrawAndGetReward",
      "outputs": [],
      "stateMutability": "nonpayable",
      "type": "function"
    }
  ],
  "bytecode": "0x608060405262093a80600a55635f734bf0600b556000600c556000600d556005601155600a601255600f60135560148055601e6015553480156200004257600080fd5b5060405162002bc738038062002bc783398181016040526101208110156200006957600080fd5b508051602082015160408301516060840151608085015160a086015160c087015160e08801516101009098015196979596949593949293919290919087898189898989896000620000c26001600160e01b03620002c016565b600380546001600160a01b0319166001600160a01b038316908117909155604051919250906000907f8be0079c531659141344cd1fd0a4f28419497f9722a3daafe3b4186f6b6457e0908290a350600080546001600160a01b03808b166001600160a01b031992831617909255600680548a84169083168117909155600780548316909117905560058054898416908316179055600880548884169083161790556009805492871692909116919091179055620001876001600160e01b03620002c016565b600480546001600160a01b0319166001600160a01b0392909216919091179055600b839055600a829055620001bc81620002c4565b50505050506001600160a01b03851615159250620001f291505057735c69bee701ef814a2b6a3edd4b1652cb9cc5aa6f620001f4565b815b601880546001600160a01b0319166001600160a01b039283161790819055604080516364e329cb60e11b815284841660048201528b841660248201529051600093929092169163c9c653969160448082019260209290919082900301818787803b1580156200026257600080fd5b505af115801562000277573d6000803e3d6000fd5b505050506040513d60208110156200028e57600080fd5b5051600080546001600160a01b0319166001600160a01b0390921691909117905550620006b598505050505050505050565b3390565b600b54421115620003da57600c5442106200031157620002f5600a54826200044560201b62001ac41790919060201c565b600d556200030b6001600160e01b036200049816565b6200038c565b60006200032f42600c54620004ae60201b62001a221790919060201c565b905060006200034f600d5483620004f860201b62001a6b1790919060201c565b905062000386600a546200037283866200055660201b62001b061790919060201c565b6200044560201b62001ac41790919060201c565b600d5550505b42600e81905550620003af600a54426200055660201b62001b061790919060201c565b600c5560408051828152905160008051602062002b868339815191529181900360200190a162000442565b620003f6600a54826200044560201b62001ac41790919060201c565b600d55600b54600e819055600a546200041c919062000556602090811b62001b0617901c565b600c5560408051828152905160008051602062002b868339815191529181900360200190a15b50565b60006200048f83836040518060400160405280601a81526020017f536166654d6174683a206469766973696f6e206279207a65726f000000000000815250620005b160201b60201c565b90505b92915050565b60036011556009601255600c601355600f601455565b60006200048f83836040518060400160405280601e81526020017f536166654d6174683a207375627472616374696f6e206f766572666c6f7700008152506200065860201b60201c565b600082620005095750600062000492565b828202828482816200051757fe5b04146200048f5760405162461bcd60e51b815260040180806020018281038252602181526020018062002ba66021913960400191505060405180910390fd5b6000828201838110156200048f576040805162461bcd60e51b815260206004820152601b60248201527f536166654d6174683a206164646974696f6e206f766572666c6f770000000000604482015290519081900360640190fd5b60008183620006415760405162461bcd60e51b81526004018080602001828103825283818151815260200191508051906020019080838360005b8381101562000605578181015183820152602001620005eb565b50505050905090810190601f168015620006335780820380516001836020036101000a031916815260200191505b509250505060405180910390fd5b5060008385816200064e57fe5b0495945050505050565b60008184841115620006ad5760405162461bcd60e51b815260206004820181815283516024840152835190928392604490910191908501908083836000831562000605578181015183820152602001620005eb565b505050900390565b6124c180620006c56000396000f3fe608060405234801561001057600080fd5b50600436106102dd5760003560e01c8063785e9e8611610186578063abd70aa2116100e3578063df136d6511610097578063f0bc9fa711610071578063f0bc9fa7146105c2578063f2fde38b146105ca578063f44c407a146105f0576102dd565b8063df136d65146105aa578063e9fad8ee146105b2578063ebe2b12b146105ba576102dd565b8063c8f33c91116100c8578063c8f33c9114610592578063cd3daf9d1461059a578063d285b7b4146105a2576102dd565b8063abd70aa214610582578063bca6ce641461058a576102dd565b80638b8763471161013a5780638da588971161011f5780638da58897146105555780638da5cb5b1461055d578063a694fc3a14610565576102dd565b80638b876347146105275780638bdb2afa1461054d576102dd565b80637b087fde1161016b5780637b087fde1461050f5780637b0a47ee1461051757806380faa57d1461051f576102dd565b8063785e9e86146104db5780637a4e4ecf146104e3576102dd565b80633c6b16ab1161023f5780635e0ab680116101f35780636ea69d62116101cd5780636ea69d62146104a557806370a08231146104ad578063715018a6146104d3576102dd565b80635e0ab6801461048d5780635fbe4d1d14610495578063646033bc1461049d576102dd565b8063430a063511610224578063430a06351461044257806347a005c61461044a57806351508f0a14610467576102dd565b80633c6b16ab1461041d578063424ad03d1461043a576102dd565b806318160ddd1161029657806320ff430b1161027b57806320ff430b146103a45780632e1a7d4d146103da5780633b5d441e146103f7576102dd565b806318160ddd146103945780631be052891461039c576102dd565b80630d68b761116102c75780630d68b76114610340578063101114cf1461036857806315ea88c41461038c576102dd565b80628cc262146102e25780630700037d1461031a575b600080fd5b610308600480360360208110156102f857600080fd5b50356001600160a01b031661060d565b60408051918252519081900360200190f35b6103086004803603602081101561033057600080fd5b50356001600160a01b0316610693565b6103666004803603602081101561035657600080fd5b50356001600160a01b03166106a5565b005b610370610749565b604080516001600160a01b039092168252519081900360200190f35b610370610758565b610308610767565b61030861076e565b610366600480360360608110156103ba57600080fd5b506001600160a01b03813581169160208101359091169060400135610774565b610366600480360360208110156103f057600080fd5b5035610a28565b6103086004803603602081101561040d57600080fd5b50356001600160a01b0316610b72565b6103666004803603602081101561043357600080fd5b5035610b84565b610366610c46565b610308610d83565b6103666004803603602081101561046057600080fd5b5035610d89565b6103666004803603602081101561047d57600080fd5b50356001600160a01b0316611161565b610308611268565b61037061126e565b61030861127d565b610370611283565b610308600480360360208110156104c357600080fd5b50356001600160a01b0316611292565b6103666112ad565b610370611379565b610366600480360360408110156104f957600080fd5b506001600160a01b038135169060200135611388565b61030861151c565b610308611522565b610308611528565b6103086004803603602081101561053d57600080fd5b50356001600160a01b031661153b565b61037061154d565b61030861155c565b610370611562565b6103666004803603602081101561057b57600080fd5b5035611571565b6103086116bb565b610370611750565b61030861175f565b610308611765565b6103706117b9565b6103086117c8565b6103666117ce565b6103086117e9565b6103086117ef565b610366600480360360208110156105e057600080fd5b50356001600160a01b03166117f5565b6103666004803603602081101561060657600080fd5b5035611918565b6001600160a01b038116600090815260176020908152604080832054601690925282205461068d919061068190670de0b6b3a7640000906106759061066090610654611765565b9063ffffffff611a2216565b61066988611292565b9063ffffffff611a6b16565b9063ffffffff611ac416565b9063ffffffff611b0616565b92915050565b60176020526000908152604090205481565b6106ad611b60565b6003546001600160a01b0390811691161461070f576040805162461bcd60e51b815260206004820181905260248201527f4f776e61626c653a2063616c6c6572206973206e6f7420746865206f776e6572604482015290519081900360640190fd5b600480547fffffffffffffffffffffffff0000000000000000000000000000000000000000166001600160a01b0392909216919091179055565b6004546001600160a01b031681565b6006546001600160a01b031681565b6001545b90565b600a5481565b61077c611b60565b6003546001600160a01b039081169116146107de576040805162461bcd60e51b815260206004820181905260248201527f4f776e61626c653a2063616c6c6572206973206e6f7420746865206f776e6572604482015290519081900360640190fd5b6001600160a01b038316610839576040805162461bcd60e51b815260206004820152600a60248201527f6d757374206e6f74203000000000000000000000000000000000000000000000604482015290519081900360640190fd5b6000811161088e576040805162461bcd60e51b815260206004820152600960248201527f6d75737420677420300000000000000000000000000000000000000000000000604482015290519081900360640190fd5b6005546001600160a01b03838116911614156108f1576040805162461bcd60e51b815260206004820152600e60248201527f6d757374206e6f74206572633230000000000000000000000000000000000000604482015290519081900360640190fd5b6000546001600160a01b0383811691161415610954576040805162461bcd60e51b815260206004820152601560248201527f6d757374206e6f74207468697320706c546f6b656e0000000000000000000000604482015290519081900360640190fd5b816001600160a01b031663a9059cbb84836040518363ffffffff1660e01b815260040180836001600160a01b03166001600160a01b0316815260200182815260200192505050602060405180830381600087803b1580156109b457600080fd5b505af11580156109c8573d6000803e3d6000fd5b505050506040513d60208110156109de57600080fd5b50506040805182815290516001600160a01b0380851692908616917faabf44ab9d5bef08d1b60f287a337f0d11a248e49741ad189b429e47e98ba9109181900360200190a3505050565b33610a31611765565b600f55610a3c611528565b600e556001600160a01b03811615610a8357610a578161060d565b6001600160a01b038216600090815260176020908152604080832093909355600f546016909152919020555b600b54421015610ada576040805162461bcd60e51b815260206004820152600960248201527f6e6f742073746172740000000000000000000000000000000000000000000000604482015290519081900360640190fd5b60008211610b2f576040805162461bcd60e51b815260206004820152601160248201527f43616e6e6f742077697468647261772030000000000000000000000000000000604482015290519081900360640190fd5b610b3882611b64565b60408051838152905133917f7084f5476618d8e60b11ef0d7d3f06914655adb8793e28ff7f018d4c76d505d5919081900360200190a25050565b60106020526000908152604090205481565b6004546001600160a01b0316610b98611b60565b6001600160a01b031614610bdd5760405162461bcd60e51b81526004018080602001828103825260218152602001806123fb6021913960400191505060405180910390fd5b6000610be7611765565b600f55610bf2611528565b600e556001600160a01b03811615610c3957610c0d8161060d565b6001600160a01b038216600090815260176020908152604080832093909355600f546016909152919020555b610c4282611bc5565b5050565b33610c4f611765565b600f55610c5a611528565b600e556001600160a01b03811615610ca157610c758161060d565b6001600160a01b038216600090815260176020908152604080832093909355600f546016909152919020555b600b54421015610cf8576040805162461bcd60e51b815260206004820152600960248201527f6e6f742073746172740000000000000000000000000000000000000000000000604482015290519081900360640190fd5b33600090815260106020526040902054426201518090910110610d62576040805162461bcd60e51b815260206004820152601f60248201527f596f7520676574207265776172642077697468696e20323420686f7572732100604482015290519081900360640190fd5b336000908152601060205260409020429055601154610d8090611d0a565b50565b60115481565b33610d92611765565b600f55610d9d611528565b600e556001600160a01b03811615610de457610db88161060d565b6001600160a01b038216600090815260176020908152604080832093909355600f546016909152919020555b600b54421015610e3b576040805162461bcd60e51b815260206004820152600960248201527f6e6f742073746172740000000000000000000000000000000000000000000000604482015290519081900360640190fd5b600654604080517f5840e6590000000000000000000000000000000000000000000000000000000081526004810185905290516000926001600160a01b031691635840e659916024808301926020929190829003018186803b158015610ea057600080fd5b505afa158015610eb4573d6000803e3d6000fd5b505050506040513d6020811015610eca57600080fd5b505190507ffffffffffffffffffffffffffffffffffffffffffffffffffffffffffffeae8042018110610f2e5760405162461bcd60e51b815260040180806020018281038252602481526020018061241c6024913960400191505060405180910390fd5b600854604080517f3130c3ae0000000000000000000000000000000000000000000000000000000081523360048201526024810186905242604482015290516001600160a01b0390921691633130c3ae91606480820192602092909190829003018186803b158015610f9f57600080fd5b505afa158015610fb3573d6000803e3d6000fd5b505050506040513d6020811015610fc957600080fd5b50516110065760405162461bcd60e51b815260040180806020018281038252602881526020018061238c6028913960400191505060405180910390fd5b600654604080517fe1e0485e0000000000000000000000000000000000000000000000000000000081526004810186905290516000926001600160a01b03169163e1e0485e916024808301926020929190829003018186803b15801561106b57600080fd5b505afa15801561107f573d6000803e3d6000fd5b505050506040513d602081101561109557600080fd5b505160125460ff909116915060018214156110b357506012546110d3565b81600214156110c557506013546110d3565b81600314156110d357506014545b6110dc81611d0a565b600654604080517f22142e6c0000000000000000000000000000000000000000000000000000000081526004810188905290516001600160a01b03909216916322142e6c9160248082019260009290919082900301818387803b15801561114257600080fd5b505af1158015611156573d6000803e3d6000fd5b505050505050505050565b611169611b60565b6003546001600160a01b039081169116146111cb576040805162461bcd60e51b815260206004820181905260248201527f4f776e61626c653a2063616c6c6572206973206e6f7420746865206f776e6572604482015290519081900360640190fd5b6111dd816001600160a01b0316611e9a565b61122e576040805162461bcd60e51b815260206004820152601b60248201527f4974206973206e6f7420636f6e74726163742061646472657373210000000000604482015290519081900360640190fd5b600980547fffffffffffffffffffffffff0000000000000000000000000000000000000000166001600160a01b0392909216919091179055565b60145481565b6000546001600160a01b031681565b60155481565b6009546001600160a01b031681565b6001600160a01b031660009081526002602052604090205490565b6112b5611b60565b6003546001600160a01b03908116911614611317576040805162461bcd60e51b815260206004820181905260248201527f4f776e61626c653a2063616c6c6572206973206e6f7420746865206f776e6572604482015290519081900360640190fd5b6003546040516000916001600160a01b0316907f8be0079c531659141344cd1fd0a4f28419497f9722a3daafe3b4186f6b6457e0908390a3600380547fffffffffffffffffffffffff0000000000000000000000000000000000000000169055565b6005546001600160a01b031681565b611390611b60565b6003546001600160a01b039081169116146113f2576040805162461bcd60e51b815260206004820181905260248201527f4f776e61626c653a2063616c6c6572206973206e6f7420746865206f776e6572604482015290519081900360640190fd5b6001600160a01b03821661144d576040805162461bcd60e51b815260206004820152600a60248201527f6d757374206e6f74203000000000000000000000000000000000000000000000604482015290519081900360640190fd5b600081116114a2576040805162461bcd60e51b815260206004820152600960248201527f6d75737420677420300000000000000000000000000000000000000000000000604482015290519081900360640190fd5b6040516001600160a01b0383169082156108fc029083906000818181858888f193505050501580156114d8573d6000803e3d6000fd5b506040805182815290516001600160a01b038416917f542fa6bfee3b4746210fbdd1d83f9e49b65adde3639f8d8f165dd18347938af2919081900360200190a25050565b60135481565b600d5481565b600061153642600c54611ea0565b905090565b60166020526000908152604090205481565b6018546001600160a01b031681565b600b5481565b6003546001600160a01b031690565b3361157a611765565b600f55611585611528565b600e556001600160a01b038116156115cc576115a08161060d565b6001600160a01b038216600090815260176020908152604080832093909355600f546016909152919020555b600b54421015611623576040805162461bcd60e51b815260206004820152600960248201527f6e6f742073746172740000000000000000000000000000000000000000000000604482015290519081900360640190fd5b60008211611678576040805162461bcd60e51b815260206004820152600e60248201527f43616e6e6f74207374616b652030000000000000000000000000000000000000604482015290519081900360640190fd5b61168182611eb6565b60408051838152905133917f9e71bc8eea02a63969f509818f2dafb9254532904319f9dbda79b67bd34a5f3d919081900360200190a25050565b600554604080517f70a0823100000000000000000000000000000000000000000000000000000000815230600482015290516000926001600160a01b0316916370a08231916024808301926020929190829003018186803b15801561171f57600080fd5b505afa158015611733573d6000803e3d6000fd5b505050506040513d602081101561174957600080fd5b5051905090565b6007546001600160a01b031681565b600e5481565b600061176f610767565b61177c5750600f5461076b565b6115366117aa61178a610767565b610675670de0b6b3a7640000610669600d54610669600e54610654611528565b600f549063ffffffff611b0616565b6008546001600160a01b031681565b600f5481565b6117df6117da33611292565b610a28565b6117e7610c46565b565b600c5481565b60125481565b6117fd611b60565b6003546001600160a01b0390811691161461185f576040805162461bcd60e51b815260206004820181905260248201527f4f776e61626c653a2063616c6c6572206973206e6f7420746865206f776e6572604482015290519081900360640190fd5b6001600160a01b0381166118a45760405162461bcd60e51b81526004018080602001828103825260268152602001806123b46026913960400191505060405180910390fd5b6003546040516001600160a01b038084169216907f8be0079c531659141344cd1fd0a4f28419497f9722a3daafe3b4186f6b6457e090600090a3600380547fffffffffffffffffffffffff0000000000000000000000000000000000000000166001600160a01b0392909216919091179055565b33611921611765565b600f5561192c611528565b600e556001600160a01b03811615611973576119478161060d565b6001600160a01b038216600090815260176020908152604080832093909355600f546016909152919020555b600b544210156119ca576040805162461bcd60e51b815260206004820152600960248201527f6e6f742073746172740000000000000000000000000000000000000000000000604482015290519081900360640190fd5b6119d333611292565b821115611a115760405162461bcd60e51b815260040180806020018281038252602281526020018061246a6022913960400191505060405180910390fd5b611a1a82610a28565b610c42610c46565b6000611a6483836040518060400160405280601e81526020017f536166654d6174683a207375627472616374696f6e206f766572666c6f770000815250611f18565b9392505050565b600082611a7a5750600061068d565b82820282848281611a8757fe5b0414611a645760405162461bcd60e51b81526004018080602001828103825260218152602001806123da6021913960400191505060405180910390fd5b6000611a6483836040518060400160405280601a81526020017f536166654d6174683a206469766973696f6e206279207a65726f000000000000815250611faf565b600082820183811015611a64576040805162461bcd60e51b815260206004820152601b60248201527f536166654d6174683a206164646974696f6e206f766572666c6f770000000000604482015290519081900360640190fd5b3390565b600154611b77908263ffffffff611a2216565b60015533600090815260026020526040902054611b9a908263ffffffff611a2216565b336000818152600260205260408120929092559054610d80916001600160a01b039091169083612014565b600b54421115611c9f57600c544210611bfc57600a54611bec90829063ffffffff611ac416565b600d55611bf7612094565b611c4b565b600c54600090611c12904263ffffffff611a2216565b90506000611c2b600d5483611a6b90919063ffffffff16565b600a54909150611c4590610675858463ffffffff611b0616565b600d5550505b42600e819055600a54611c64919063ffffffff611b0616565b600c556040805182815290517fde88a922e0d3b88b24e9623efeb464919c6bf9f66857a65e2bfcf2ce87a9433d9181900360200190a1610d80565b600a54611cb390829063ffffffff611ac416565b600d55600b54600e819055600a54611cd1919063ffffffff611b0616565b600c556040805182815290517fde88a922e0d3b88b24e9623efeb464919c6bf9f66857a65e2bfcf2ce87a9433d9181900360200190a150565b33611d13611765565b600f55611d1e611528565b600e556001600160a01b03811615611d6557611d398161060d565b6001600160a01b038216600090815260176020908152604080832093909355600f546016909152919020555b600b54421015611dbc576040805162461bcd60e51b815260206004820152600960248201527f6e6f742073746172740000000000000000000000000000000000000000000000604482015290519081900360640190fd5b60648210611dc957600080fd5b6000611dd43361060d565b90508015611e955733600081815260176020526040902060648584028190048085039092556015549192611e2592909190810384025b6005546001600160a01b03169291900463ffffffff61201416565b600954601554611e43916001600160a01b0316906064908402611e0a565b336001600160a01b03167fe2403640ba68fed3a2f88b7557551d1993f84b99bb10ff833f0cf8db0c5e04866064601554606403840281611e7f57fe5b60408051929091048252519081900360200190a2505b505050565b3b151590565b6000818310611eaf5781611a64565b5090919050565b600154611ec9908263ffffffff611b0616565b60015533600090815260026020526040902054611eec908263ffffffff611b0616565b336000818152600260205260408120929092559054610d80916001600160a01b039091169030846120aa565b60008184841115611fa75760405162461bcd60e51b81526004018080602001828103825283818151815260200191508051906020019080838360005b83811015611f6c578181015183820152602001611f54565b50505050905090810190601f168015611f995780820380516001836020036101000a031916815260200191505b509250505060405180910390fd5b505050900390565b60008183611ffe5760405162461bcd60e51b8152602060048201818152835160248401528351909283926044909101919085019080838360008315611f6c578181015183820152602001611f54565b50600083858161200a57fe5b0495945050505050565b604080516001600160a01b038416602482015260448082018490528251808303909101815260649091019091526020810180517bffffffffffffffffffffffffffffffffffffffffffffffffffffffff167fa9059cbb00000000000000000000000000000000000000000000000000000000179052611e95908490612138565b60036011556009601255600c601355600f601455565b604080516001600160a01b0380861660248301528416604482015260648082018490528251808303909101815260849091019091526020810180517bffffffffffffffffffffffffffffffffffffffffffffffffffffffff167f23b872dd00000000000000000000000000000000000000000000000000000000179052612132908590612138565b50505050565b606061218d826040518060400160405280602081526020017f5361666545524332303a206c6f772d6c6576656c2063616c6c206661696c6564815250856001600160a01b03166121e99092919063ffffffff16565b805190915015611e95578080602001905160208110156121ac57600080fd5b5051611e955760405162461bcd60e51b815260040180806020018281038252602a815260200180612440602a913960400191505060405180910390fd5b60606121f88484600085612200565b949350505050565b606061220b85611e9a565b61225c576040805162461bcd60e51b815260206004820152601d60248201527f416464726573733a2063616c6c20746f206e6f6e2d636f6e7472616374000000604482015290519081900360640190fd5b60006060866001600160a01b031685876040518082805190602001908083835b602083106122b957805182527fffffffffffffffffffffffffffffffffffffffffffffffffffffffffffffffe0909201916020918201910161227c565b6001836020036101000a03801982511681845116808217855250505050505090500191505060006040518083038185875af1925050503d806000811461231b576040519150601f19603f3d011682016040523d82523d6000602084013e612320565b606091505b509150915081156123345791506121f89050565b8051156123445780518082602001fd5b60405162461bcd60e51b8152602060048201818152865160248401528651879391928392604401919085019080838360008315611f6c578181015183820152602001611f5456fe596f7520646f206e6f74206861766520726967687420746f20757365207468697320746f6b656e214f776e61626c653a206e6577206f776e657220697320746865207a65726f2061646472657373536166654d6174683a206d756c7469706c69636174696f6e206f766572666c6f7743616c6c6572206973206e6f742072657761726420646973747269627574696f6e54686973207469636b657420697320757365642077697468696e20323420686f757273215361666545524332303a204552433230206f7065726174696f6e20646964206e6f74207375636365656443616e6e6f7420776974686472617720657863656564207468652062616c616e6365a26469706673582212205f9cea90ee013fbafb9959ded8d247cc16360df57e5c98206baeb020317e546e64736f6c63430006020033de88a922e0d3b88b24e9623efeb464919c6bf9f66857a65e2bfcf2ce87a9433d536166654d6174683a206d756c7469706c69636174696f6e206f766572666c6f77",
  "source": "pragma solidity ^0.6.0;\n\nimport \"./StakePool.sol\";\nimport \"../uniswap/IUniswapV2Factory.sol\";\nimport \"@openzeppelin/contracts/token/ERC20/IERC20.sol\";\n\n\ncontract HotPotLPStakePool is StakePool{\n    IUniswapV2Factory public uniswapFactory;\n\n    constructor(\n        address _hotpotNFT,\n        address _hotpotERC20,\n        address _loan,\n        address _reward,\n        uint256 _starttime,\n        uint256 duration,\n        uint256 _rewardAmount,\n        address _uniFactory,\n        address _ethAddress\n    ) public StakePool(_hotpotERC20,_hotpotNFT,_hotpotERC20,_loan,_reward,_starttime,duration,_rewardAmount){\n        uniswapFactory = IUniswapV2Factory(_uniFactory != address(0) ? _uniFactory : 0x5C69bEe701ef814a2B6a3EDD4B1652CB9cc5aA6f); \n\n        address pair = uniswapFactory.createPair(_ethAddress,_hotpotERC20);\n        tokenAddr = IERC20(pair);\n    }\n}",
  "sourcePath": "/Users/junhu/git/hotpotcontract/truffle/contracts/stake/HotPotLPStakePool.sol",
  "compiler": {
    "name": "solc",
    "version": "0.6.2+commit.bacdbe57.Emscripten.clang"
  },
  "schemaVersion": "3.3.0",
  "updatedAt": "2020-10-20T06:47:38.424Z",
  "networkType": "ethereum",
  "devdoc": {
    "methods": {
      "owner()": {
        "details": "Returns the address of the current owner."
      },
      "renounceOwnership()": {
        "details": "Leaves the contract without owner. It will not be possible to call `onlyOwner` functions anymore. Can only be called by the current owner.     * NOTE: Renouncing ownership will leave the contract without an owner, thereby removing any functionality that is only available to the owner."
      },
      "transferOwnership(address)": {
        "details": "Transfers ownership of the contract to a new account (`newOwner`). Can only be called by the current owner."
      }
    }
  },
  "userdoc": {
    "methods": {}
  }
}