{
  "contractName": "HotPotLPStakePool",
  "abi": [
    {
      "inputs": [
        {
          "internalType": "address",
          "name": "_hotpotNFT",
          "type": "address"
        },
        {
          "internalType": "address",
          "name": "_hotpotERC20",
          "type": "address"
        },
        {
          "internalType": "address",
          "name": "_loan",
          "type": "address"
        },
        {
          "internalType": "address",
          "name": "_reward",
          "type": "address"
        },
        {
          "internalType": "uint256",
          "name": "_starttime",
          "type": "uint256"
        },
        {
          "internalType": "uint256",
          "name": "duration",
          "type": "uint256"
        },
        {
          "internalType": "uint256",
          "name": "_rewardAmount",
          "type": "uint256"
        },
        {
          "internalType": "address",
          "name": "_uniFactory",
          "type": "address"
        },
        {
          "internalType": "address",
          "name": "_ethAddress",
          "type": "address"
        }
      ],
      "stateMutability": "nonpayable",
      "type": "constructor"
    },
    {
      "anonymous": false,
      "inputs": [
        {
          "indexed": true,
          "internalType": "address",
          "name": "previousOwner",
          "type": "address"
        },
        {
          "indexed": true,
          "internalType": "address",
          "name": "newOwner",
          "type": "address"
        }
      ],
      "name": "OwnershipTransferred",
      "type": "event"
    },
    {
      "anonymous": false,
      "inputs": [
        {
          "indexed": true,
          "internalType": "address",
          "name": "dst",
          "type": "address"
        },
        {
          "indexed": false,
          "internalType": "uint256",
          "name": "sad",
          "type": "uint256"
        }
      ],
      "name": "Rescue",
      "type": "event"
    },
    {
      "anonymous": false,
      "inputs": [
        {
          "indexed": true,
          "internalType": "address",
          "name": "dst",
          "type": "address"
        },
        {
          "indexed": true,
          "internalType": "address",
          "name": "token",
          "type": "address"
        },
        {
          "indexed": false,
          "internalType": "uint256",
          "name": "sad",
          "type": "uint256"
        }
      ],
      "name": "RescueToken",
      "type": "event"
    },
    {
      "anonymous": false,
      "inputs": [
        {
          "indexed": false,
          "internalType": "uint256",
          "name": "reward",
          "type": "uint256"
        }
      ],
      "name": "RewardChanged",
      "type": "event"
    },
    {
      "anonymous": false,
      "inputs": [
        {
          "indexed": true,
          "internalType": "address",
          "name": "user",
          "type": "address"
        },
        {
          "indexed": false,
          "internalType": "uint256",
          "name": "reward",
          "type": "uint256"
        }
      ],
      "name": "RewardPaid",
      "type": "event"
    },
    {
      "anonymous": false,
      "inputs": [
        {
          "indexed": true,
          "internalType": "address",
          "name": "user",
          "type": "address"
        },
        {
          "indexed": false,
          "internalType": "uint256",
          "name": "amount",
          "type": "uint256"
        }
      ],
      "name": "Staked",
      "type": "event"
    },
    {
      "anonymous": false,
      "inputs": [
        {
          "indexed": true,
          "internalType": "address",
          "name": "user",
          "type": "address"
        },
        {
          "indexed": false,
          "internalType": "uint256",
          "name": "amount",
          "type": "uint256"
        }
      ],
      "name": "Withdrawn",
      "type": "event"
    },
    {
      "inputs": [],
      "name": "DURATION",
      "outputs": [
        {
          "internalType": "uint256",
          "name": "",
          "type": "uint256"
        }
      ],
      "stateMutability": "view",
      "type": "function",
      "constant": true
    },
    {
      "inputs": [
        {
          "internalType": "address",
          "name": "account",
          "type": "address"
        }
      ],
      "name": "balanceOf",
      "outputs": [
        {
          "internalType": "uint256",
          "name": "",
          "type": "uint256"
        }
      ],
      "stateMutability": "view",
      "type": "function",
      "constant": true
    },
    {
      "inputs": [
        {
          "internalType": "address",
          "name": "account",
          "type": "address"
        }
      ],
      "name": "earned",
      "outputs": [
        {
          "internalType": "uint256",
          "name": "",
          "type": "uint256"
        }
      ],
      "stateMutability": "view",
      "type": "function",
      "constant": true
    },
    {
      "inputs": [],
      "name": "erc20",
      "outputs": [
        {
          "internalType": "contract IERC20",
          "name": "",
          "type": "address"
        }
      ],
      "stateMutability": "view",
      "type": "function",
      "constant": true
    },
    {
      "inputs": [],
      "name": "erc721",
      "outputs": [
        {
          "internalType": "contract IERC721",
          "name": "",
          "type": "address"
        }
      ],
      "stateMutability": "view",
      "type": "function",
      "constant": true
    },
    {
      "inputs": [],
      "name": "freeRewardRatio",
      "outputs": [
        {
          "internalType": "uint256",
          "name": "",
          "type": "uint256"
        }
      ],
      "stateMutability": "view",
      "type": "function",
      "constant": true
    },
    {
      "inputs": [],
      "name": "getBlockTime",
      "outputs": [
        {
          "internalType": "uint256",
          "name": "",
          "type": "uint256"
        }
      ],
      "stateMutability": "view",
      "type": "function",
      "constant": true
    },
    {
      "inputs": [],
      "name": "getPoolBalance",
      "outputs": [
        {
          "internalType": "uint256",
          "name": "",
          "type": "uint256"
        }
      ],
      "stateMutability": "view",
      "type": "function",
      "constant": true
    },
    {
      "inputs": [
        {
          "internalType": "uint256",
          "name": "_tokenId",
          "type": "uint256"
        }
      ],
      "name": "getRewardByNFT",
      "outputs": [],
      "stateMutability": "nonpayable",
      "type": "function"
    },
    {
      "inputs": [],
      "name": "getRewardFree",
      "outputs": [],
      "stateMutability": "nonpayable",
      "type": "function"
    },
    {
      "inputs": [],
      "name": "grade1RewardRatio",
      "outputs": [
        {
          "internalType": "uint256",
          "name": "",
          "type": "uint256"
        }
      ],
      "stateMutability": "view",
      "type": "function",
      "constant": true
    },
    {
      "inputs": [],
      "name": "grade2RewardRatio",
      "outputs": [
        {
          "internalType": "uint256",
          "name": "",
          "type": "uint256"
        }
      ],
      "stateMutability": "view",
      "type": "function",
      "constant": true
    },
    {
      "inputs": [],
      "name": "grade3RewardRatio",
      "outputs": [
        {
          "internalType": "uint256",
          "name": "",
          "type": "uint256"
        }
      ],
      "stateMutability": "view",
      "type": "function",
      "constant": true
    },
    {
      "inputs": [],
      "name": "hotpot",
      "outputs": [
        {
          "internalType": "contract IHotPot",
          "name": "",
          "type": "address"
        }
      ],
      "stateMutability": "view",
      "type": "function",
      "constant": true
    },
    {
      "inputs": [
        {
          "internalType": "address",
          "name": "",
          "type": "address"
        }
      ],
      "name": "lastRewardTime",
      "outputs": [
        {
          "internalType": "uint256",
          "name": "",
          "type": "uint256"
        }
      ],
      "stateMutability": "view",
      "type": "function",
      "constant": true
    },
    {
      "inputs": [],
      "name": "lastTimeRewardApplicable",
      "outputs": [
        {
          "internalType": "uint256",
          "name": "",
          "type": "uint256"
        }
      ],
      "stateMutability": "view",
      "type": "function",
      "constant": true
    },
    {
      "inputs": [],
      "name": "lastUpdateTime",
      "outputs": [
        {
          "internalType": "uint256",
          "name": "",
          "type": "uint256"
        }
      ],
      "stateMutability": "view",
      "type": "function",
      "constant": true
    },
    {
      "inputs": [],
      "name": "loan",
      "outputs": [
        {
          "internalType": "contract ILoan",
          "name": "",
          "type": "address"
        }
      ],
      "stateMutability": "view",
      "type": "function",
      "constant": true
    },
    {
      "inputs": [
        {
          "internalType": "uint256",
          "name": "reward",
          "type": "uint256"
        }
      ],
      "name": "notifyRewardAmount",
      "outputs": [],
      "stateMutability": "nonpayable",
      "type": "function"
    },
    {
      "inputs": [],
      "name": "owner",
      "outputs": [
        {
          "internalType": "address",
          "name": "",
          "type": "address"
        }
      ],
      "stateMutability": "view",
      "type": "function",
      "constant": true
    },
    {
      "inputs": [],
      "name": "periodFinish",
      "outputs": [
        {
          "internalType": "uint256",
          "name": "",
          "type": "uint256"
        }
      ],
      "stateMutability": "view",
      "type": "function",
      "constant": true
    },
    {
      "inputs": [],
      "name": "renounceOwnership",
      "outputs": [],
      "stateMutability": "nonpayable",
      "type": "function"
    },
    {
      "inputs": [
        {
          "internalType": "address",
          "name": "to_",
          "type": "address"
        },
        {
          "internalType": "contract IERC20",
          "name": "token_",
          "type": "address"
        },
        {
          "internalType": "uint256",
          "name": "amount_",
          "type": "uint256"
        }
      ],
      "name": "rescue",
      "outputs": [],
      "stateMutability": "nonpayable",
      "type": "function"
    },
    {
      "inputs": [
        {
          "internalType": "address payable",
          "name": "to_",
          "type": "address"
        },
        {
          "internalType": "uint256",
          "name": "amount_",
          "type": "uint256"
        }
      ],
      "name": "rescue",
      "outputs": [],
      "stateMutability": "nonpayable",
      "type": "function"
    },
    {
      "inputs": [],
      "name": "rewardContract",
      "outputs": [
        {
          "internalType": "address",
          "name": "",
          "type": "address"
        }
      ],
      "stateMutability": "view",
      "type": "function",
      "constant": true
    },
    {
      "inputs": [],
      "name": "rewardDistribution",
      "outputs": [
        {
          "internalType": "address",
          "name": "",
          "type": "address"
        }
      ],
      "stateMutability": "view",
      "type": "function",
      "constant": true
    },
    {
      "inputs": [],
      "name": "rewardPerToken",
      "outputs": [
        {
          "internalType": "uint256",
          "name": "",
          "type": "uint256"
        }
      ],
      "stateMutability": "view",
      "type": "function",
      "constant": true
    },
    {
      "inputs": [],
      "name": "rewardPerTokenStored",
      "outputs": [
        {
          "internalType": "uint256",
          "name": "",
          "type": "uint256"
        }
      ],
      "stateMutability": "view",
      "type": "function",
      "constant": true
    },
    {
      "inputs": [],
      "name": "rewardRate",
      "outputs": [
        {
          "internalType": "uint256",
          "name": "",
          "type": "uint256"
        }
      ],
      "stateMutability": "view",
      "type": "function",
      "constant": true
    },
    {
      "inputs": [],
      "name": "rewardRatio",
      "outputs": [
        {
          "internalType": "uint256",
          "name": "",
          "type": "uint256"
        }
      ],
      "stateMutability": "view",
      "type": "function",
      "constant": true
    },
    {
      "inputs": [
        {
          "internalType": "address",
          "name": "",
          "type": "address"
        }
      ],
      "name": "rewards",
      "outputs": [
        {
          "internalType": "uint256",
          "name": "",
          "type": "uint256"
        }
      ],
      "stateMutability": "view",
      "type": "function",
      "constant": true
    },
    {
      "inputs": [
        {
          "internalType": "address",
          "name": "_addr",
          "type": "address"
        }
      ],
      "name": "setRewardContract",
      "outputs": [],
      "stateMutability": "nonpayable",
      "type": "function"
    },
    {
      "inputs": [
        {
          "internalType": "address",
          "name": "_rewardDistribution",
          "type": "address"
        }
      ],
      "name": "setRewardDistribution",
      "outputs": [],
      "stateMutability": "nonpayable",
      "type": "function"
    },
    {
      "inputs": [
        {
          "internalType": "uint256",
          "name": "amount",
          "type": "uint256"
        }
      ],
      "name": "stake",
      "outputs": [],
      "stateMutability": "nonpayable",
      "type": "function"
    },
    {
      "inputs": [],
      "name": "starttime",
      "outputs": [
        {
          "internalType": "uint256",
          "name": "",
          "type": "uint256"
        }
      ],
      "stateMutability": "view",
      "type": "function",
      "constant": true
    },
    {
      "inputs": [],
      "name": "tokenAddr",
      "outputs": [
        {
          "internalType": "contract IERC20",
          "name": "",
          "type": "address"
        }
      ],
      "stateMutability": "view",
      "type": "function",
      "constant": true
    },
    {
      "inputs": [],
      "name": "totalSupply",
      "outputs": [
        {
          "internalType": "uint256",
          "name": "",
          "type": "uint256"
        }
      ],
      "stateMutability": "view",
      "type": "function",
      "constant": true
    },
    {
      "inputs": [
        {
          "internalType": "address",
          "name": "newOwner",
          "type": "address"
        }
      ],
      "name": "transferOwnership",
      "outputs": [],
      "stateMutability": "nonpayable",
      "type": "function"
    },
    {
      "inputs": [],
      "name": "uniswapFactory",
      "outputs": [
        {
          "internalType": "contract IUniswapV2Factory",
          "name": "",
          "type": "address"
        }
      ],
      "stateMutability": "view",
      "type": "function",
      "constant": true
    },
    {
      "inputs": [
        {
          "internalType": "address",
          "name": "",
          "type": "address"
        }
      ],
      "name": "userRewardPerTokenPaid",
      "outputs": [
        {
          "internalType": "uint256",
          "name": "",
          "type": "uint256"
        }
      ],
      "stateMutability": "view",
      "type": "function",
      "constant": true
    },
    {
      "inputs": [
        {
          "internalType": "uint256",
          "name": "amount",
          "type": "uint256"
        }
      ],
      "name": "withdraw",
      "outputs": [],
      "stateMutability": "nonpayable",
      "type": "function"
    }
  ],
  "bytecode": "0x608060405262093a80600a55635f734bf0600b556000600c556000600d556005601155600a601255600f60135560148055601e6015553480156200004257600080fd5b5060405162002b4638038062002b4683398181016040526101208110156200006957600080fd5b508051602082015160408301516060840151608085015160a086015160c087015160e08801516101009098015196979596949593949293919290919087898189898989896000620000c26001600160e01b03620002c016565b600380546001600160a01b0319166001600160a01b038316908117909155604051919250906000907f8be0079c531659141344cd1fd0a4f28419497f9722a3daafe3b4186f6b6457e0908290a350600080546001600160a01b03808b166001600160a01b031992831617909255600680548a84169083168117909155600780548316909117905560058054898416908316179055600880548884169083161790556009805492871692909116919091179055620001876001600160e01b03620002c016565b600480546001600160a01b0319166001600160a01b0392909216919091179055600b839055600a829055620001bc81620002c4565b50505050506001600160a01b03851615159250620001f291505057735c69bee701ef814a2b6a3edd4b1652cb9cc5aa6f620001f4565b815b601880546001600160a01b0319166001600160a01b039283161790819055604080516364e329cb60e11b815284841660048201528b841660248201529051600093929092169163c9c653969160448082019260209290919082900301818787803b1580156200026257600080fd5b505af115801562000277573d6000803e3d6000fd5b505050506040513d60208110156200028e57600080fd5b5051600080546001600160a01b0319166001600160a01b0390921691909117905550620006a698505050505050505050565b3390565b600b54421115620003da57600c5442106200031157620002f5600a54826200044560201b62001a511790919060201c565b600d556200030b6001600160e01b036200049816565b6200038c565b60006200032f42600c546200049f60201b620019af1790919060201c565b905060006200034f600d5483620004e960201b620019f81790919060201c565b905062000386600a546200037283866200054760201b62001a931790919060201c565b6200044560201b62001a511790919060201c565b600d5550505b42600e81905550620003af600a54426200054760201b62001a931790919060201c565b600c5560408051828152905160008051602062002b268339815191529181900360200190a162000442565b620003f6600a54826200044560201b62001a511790919060201c565b600d55600b54600e819055600a546200041c919062000547602090811b62001a9317901c565b600c5560408051828152905160008051602062002b268339815191529181900360200190a15b50565b60006200048f83836040518060400160405280601a81526020017f536166654d6174683a206469766973696f6e206279207a65726f000000000000815250620005a260201b60201c565b90505b92915050565b6003601155565b60006200048f83836040518060400160405280601e81526020017f536166654d6174683a207375627472616374696f6e206f766572666c6f7700008152506200064960201b60201c565b600082620004fa5750600062000492565b828202828482816200050857fe5b04146200048f5760405162461bcd60e51b815260040180806020018281038252602181526020018062002b056021913960400191505060405180910390fd5b6000828201838110156200048f576040805162461bcd60e51b815260206004820152601b60248201527f536166654d6174683a206164646974696f6e206f766572666c6f770000000000604482015290519081900360640190fd5b60008183620006325760405162461bcd60e51b81526004018080602001828103825283818151815260200191508051906020019080838360005b83811015620005f6578181015183820152602001620005dc565b50505050905090810190601f168015620006245780820380516001836020036101000a031916815260200191505b509250505060405180910390fd5b5060008385816200063f57fe5b0495945050505050565b600081848411156200069e5760405162461bcd60e51b8152602060048201818152835160248401528351909283926044909101919085019080838360008315620005f6578181015183820152602001620005dc565b505050900390565b61244f80620006b66000396000f3fe608060405234801561001057600080fd5b50600436106102d25760003560e01c8063715018a6116101865780638da5cb5b116100e3578063cd3daf9d11610097578063ebe2b12b11610071578063ebe2b12b146105af578063f0bc9fa7146105b7578063f2fde38b146105bf576102d2565b8063cd3daf9d14610597578063d285b7b41461059f578063df136d65146105a7576102d2565b8063abd70aa2116100c8578063abd70aa21461057f578063bca6ce6414610587578063c8f33c911461058f576102d2565b80638da5cb5b1461055a578063a694fc3a14610562576102d2565b806380faa57d1161013a5780638b8763471161011f5780638b876347146105245780638bdb2afa1461054a5780638da5889714610552576102d2565b806380faa57d1461051457806387ceff091461051c576102d2565b80637a4e4ecf1161016b5780637a4e4ecf146104d85780637b087fde146105045780637b0a47ee1461050c576102d2565b8063715018a6146104c8578063785e9e86146104d0576102d2565b80633c6b16ab116102345780635e0ab680116101e8578063646033bc116101cd578063646033bc146104925780636ea69d621461049a57806370a08231146104a2576102d2565b80635e0ab680146104825780635fbe4d1d1461048a576102d2565b8063430a063511610219578063430a06351461043757806347a005c61461043f57806351508f0a1461045c576102d2565b80633c6b16ab14610412578063424ad03d1461042f576102d2565b806318160ddd1161028b57806320ff430b1161027057806320ff430b146103995780632e1a7d4d146103cf5780633b5d441e146103ec576102d2565b806318160ddd146103895780631be0528914610391576102d2565b80630d68b761116102bc5780630d68b76114610335578063101114cf1461035d57806315ea88c414610381576102d2565b80628cc262146102d75780630700037d1461030f575b600080fd5b6102fd600480360360208110156102ed57600080fd5b50356001600160a01b03166105e5565b60408051918252519081900360200190f35b6102fd6004803603602081101561032557600080fd5b50356001600160a01b031661066b565b61035b6004803603602081101561034b57600080fd5b50356001600160a01b031661067d565b005b610365610721565b604080516001600160a01b039092168252519081900360200190f35b610365610730565b6102fd61073f565b6102fd610746565b61035b600480360360608110156103af57600080fd5b506001600160a01b0381358116916020810135909116906040013561074c565b61035b600480360360208110156103e557600080fd5b5035610a00565b6102fd6004803603602081101561040257600080fd5b50356001600160a01b0316610b4a565b61035b6004803603602081101561042857600080fd5b5035610b5c565b61035b610c1e565b6102fd610d5b565b61035b6004803603602081101561045557600080fd5b5035610d61565b61035b6004803603602081101561047257600080fd5b50356001600160a01b031661120f565b6102fd611316565b61036561131c565b6102fd61132b565b610365611331565b6102fd600480360360208110156104b857600080fd5b50356001600160a01b0316611340565b61035b61135b565b610365611427565b61035b600480360360408110156104ee57600080fd5b506001600160a01b038135169060200135611436565b6102fd6115ca565b6102fd6115d0565b6102fd6115d6565b6102fd6115e9565b6102fd6004803603602081101561053a57600080fd5b50356001600160a01b03166115ed565b6103656115ff565b6102fd61160e565b610365611614565b61035b6004803603602081101561057857600080fd5b5035611623565b6102fd61176d565b610365611802565b6102fd611811565b6102fd611817565b61036561186b565b6102fd61187a565b6102fd611880565b6102fd611886565b61035b600480360360208110156105d557600080fd5b50356001600160a01b031661188c565b6001600160a01b0381166000908152601760209081526040808320546016909252822054610665919061065990670de0b6b3a76400009061064d906106389061062c611817565b9063ffffffff6119af16565b61064188611340565b9063ffffffff6119f816565b9063ffffffff611a5116565b9063ffffffff611a9316565b92915050565b60176020526000908152604090205481565b610685611aed565b6003546001600160a01b039081169116146106e7576040805162461bcd60e51b815260206004820181905260248201527f4f776e61626c653a2063616c6c6572206973206e6f7420746865206f776e6572604482015290519081900360640190fd5b600480547fffffffffffffffffffffffff0000000000000000000000000000000000000000166001600160a01b0392909216919091179055565b6004546001600160a01b031681565b6006546001600160a01b031681565b6001545b90565b600a5481565b610754611aed565b6003546001600160a01b039081169116146107b6576040805162461bcd60e51b815260206004820181905260248201527f4f776e61626c653a2063616c6c6572206973206e6f7420746865206f776e6572604482015290519081900360640190fd5b6001600160a01b038316610811576040805162461bcd60e51b815260206004820152600a60248201527f6d757374206e6f74203000000000000000000000000000000000000000000000604482015290519081900360640190fd5b60008111610866576040805162461bcd60e51b815260206004820152600960248201527f6d75737420677420300000000000000000000000000000000000000000000000604482015290519081900360640190fd5b6005546001600160a01b03838116911614156108c9576040805162461bcd60e51b815260206004820152600e60248201527f6d757374206e6f74206572633230000000000000000000000000000000000000604482015290519081900360640190fd5b6000546001600160a01b038381169116141561092c576040805162461bcd60e51b815260206004820152601560248201527f6d757374206e6f74207468697320706c546f6b656e0000000000000000000000604482015290519081900360640190fd5b816001600160a01b031663a9059cbb84836040518363ffffffff1660e01b815260040180836001600160a01b03166001600160a01b0316815260200182815260200192505050602060405180830381600087803b15801561098c57600080fd5b505af11580156109a0573d6000803e3d6000fd5b505050506040513d60208110156109b657600080fd5b50506040805182815290516001600160a01b0380851692908616917faabf44ab9d5bef08d1b60f287a337f0d11a248e49741ad189b429e47e98ba9109181900360200190a3505050565b33610a09611817565b600f55610a146115d6565b600e556001600160a01b03811615610a5b57610a2f816105e5565b6001600160a01b038216600090815260176020908152604080832093909355600f546016909152919020555b600b54421015610ab2576040805162461bcd60e51b815260206004820152600960248201527f6e6f742073746172740000000000000000000000000000000000000000000000604482015290519081900360640190fd5b60008211610b07576040805162461bcd60e51b815260206004820152601160248201527f43616e6e6f742077697468647261772030000000000000000000000000000000604482015290519081900360640190fd5b610b1082611af1565b60408051838152905133917f7084f5476618d8e60b11ef0d7d3f06914655adb8793e28ff7f018d4c76d505d5919081900360200190a25050565b60106020526000908152604090205481565b6004546001600160a01b0316610b70611aed565b6001600160a01b031614610bb55760405162461bcd60e51b81526004018080602001828103825260218152602001806123ab6021913960400191505060405180910390fd5b6000610bbf611817565b600f55610bca6115d6565b600e556001600160a01b03811615610c1157610be5816105e5565b6001600160a01b038216600090815260176020908152604080832093909355600f546016909152919020555b610c1a82611b52565b5050565b33610c27611817565b600f55610c326115d6565b600e556001600160a01b03811615610c7957610c4d816105e5565b6001600160a01b038216600090815260176020908152604080832093909355600f546016909152919020555b600b54421015610cd0576040805162461bcd60e51b815260206004820152600960248201527f6e6f742073746172740000000000000000000000000000000000000000000000604482015290519081900360640190fd5b33600090815260106020526040902054426201518090910110610d3a576040805162461bcd60e51b815260206004820152601f60248201527f596f7520676574207265776172642077697468696e20323420686f7572732100604482015290519081900360640190fd5b336000908152601060205260409020429055601154610d5890611c97565b50565b60115481565b33610d6a611817565b600f55610d756115d6565b600e556001600160a01b03811615610dbc57610d90816105e5565b6001600160a01b038216600090815260176020908152604080832093909355600f546016909152919020555b600b54421015610e13576040805162461bcd60e51b815260206004820152600960248201527f6e6f742073746172740000000000000000000000000000000000000000000000604482015290519081900360640190fd5b600754604080517f6352211e00000000000000000000000000000000000000000000000000000000815260048101859052905184926000926001600160a01b0390911691636352211e91602480820192602092909190829003018186803b158015610e7d57600080fd5b505afa158015610e91573d6000803e3d6000fd5b505050506040513d6020811015610ea757600080fd5b50516001600160a01b03161415610f05576040805162461bcd60e51b815260206004820152601460248201527f54686973206973206e6f74206120746f6b656e21000000000000000000000000604482015290519081900360640190fd5b600654604080517f5840e6590000000000000000000000000000000000000000000000000000000081526004810186905290516000926001600160a01b031691635840e659916024808301926020929190829003018186803b158015610f6a57600080fd5b505afa158015610f7e573d6000803e3d6000fd5b505050506040513d6020811015610f9457600080fd5b505190504262015180820110610fdb5760405162461bcd60e51b81526004018080602001828103825260248152602001806123cc6024913960400191505060405180910390fd5b600854604080517f3130c3ae0000000000000000000000000000000000000000000000000000000081523360048201526024810187905242604482015290516001600160a01b0390921691633130c3ae91606480820192602092909190829003018186803b15801561104c57600080fd5b505afa158015611060573d6000803e3d6000fd5b505050506040513d602081101561107657600080fd5b50516110b35760405162461bcd60e51b815260040180806020018281038252602881526020018061233c6028913960400191505060405180910390fd5b600654604080517fe1e0485e0000000000000000000000000000000000000000000000000000000081526004810187905290516000926001600160a01b03169163e1e0485e916024808301926020929190829003018186803b15801561111857600080fd5b505afa15801561112c573d6000803e3d6000fd5b505050506040513d602081101561114257600080fd5b505160125460ff909116915060018214156111605750601254611180565b81600214156111725750601354611180565b816003141561118057506014545b61118981611c97565b600654604080517f22142e6c0000000000000000000000000000000000000000000000000000000081526004810189905290516001600160a01b03909216916322142e6c9160248082019260009290919082900301818387803b1580156111ef57600080fd5b505af1158015611203573d6000803e3d6000fd5b50505050505050505050565b611217611aed565b6003546001600160a01b03908116911614611279576040805162461bcd60e51b815260206004820181905260248201527f4f776e61626c653a2063616c6c6572206973206e6f7420746865206f776e6572604482015290519081900360640190fd5b61128b816001600160a01b0316611e54565b6112dc576040805162461bcd60e51b815260206004820152601b60248201527f4974206973206e6f7420636f6e74726163742061646472657373210000000000604482015290519081900360640190fd5b600980547fffffffffffffffffffffffff0000000000000000000000000000000000000000166001600160a01b0392909216919091179055565b60145481565b6000546001600160a01b031681565b60155481565b6009546001600160a01b031681565b6001600160a01b031660009081526002602052604090205490565b611363611aed565b6003546001600160a01b039081169116146113c5576040805162461bcd60e51b815260206004820181905260248201527f4f776e61626c653a2063616c6c6572206973206e6f7420746865206f776e6572604482015290519081900360640190fd5b6003546040516000916001600160a01b0316907f8be0079c531659141344cd1fd0a4f28419497f9722a3daafe3b4186f6b6457e0908390a3600380547fffffffffffffffffffffffff0000000000000000000000000000000000000000169055565b6005546001600160a01b031681565b61143e611aed565b6003546001600160a01b039081169116146114a0576040805162461bcd60e51b815260206004820181905260248201527f4f776e61626c653a2063616c6c6572206973206e6f7420746865206f776e6572604482015290519081900360640190fd5b6001600160a01b0382166114fb576040805162461bcd60e51b815260206004820152600a60248201527f6d757374206e6f74203000000000000000000000000000000000000000000000604482015290519081900360640190fd5b60008111611550576040805162461bcd60e51b815260206004820152600960248201527f6d75737420677420300000000000000000000000000000000000000000000000604482015290519081900360640190fd5b6040516001600160a01b0383169082156108fc029083906000818181858888f19350505050158015611586573d6000803e3d6000fd5b506040805182815290516001600160a01b038416917f542fa6bfee3b4746210fbdd1d83f9e49b65adde3639f8d8f165dd18347938af2919081900360200190a25050565b60135481565b600d5481565b60006115e442600c54611e5a565b905090565b4290565b60166020526000908152604090205481565b6018546001600160a01b031681565b600b5481565b6003546001600160a01b031690565b3361162c611817565b600f556116376115d6565b600e556001600160a01b0381161561167e57611652816105e5565b6001600160a01b038216600090815260176020908152604080832093909355600f546016909152919020555b600b544210156116d5576040805162461bcd60e51b815260206004820152600960248201527f6e6f742073746172740000000000000000000000000000000000000000000000604482015290519081900360640190fd5b6000821161172a576040805162461bcd60e51b815260206004820152600e60248201527f43616e6e6f74207374616b652030000000000000000000000000000000000000604482015290519081900360640190fd5b61173382611e70565b60408051838152905133917f9e71bc8eea02a63969f509818f2dafb9254532904319f9dbda79b67bd34a5f3d919081900360200190a25050565b600554604080517f70a0823100000000000000000000000000000000000000000000000000000000815230600482015290516000926001600160a01b0316916370a08231916024808301926020929190829003018186803b1580156117d157600080fd5b505afa1580156117e5573d6000803e3d6000fd5b505050506040513d60208110156117fb57600080fd5b5051905090565b6007546001600160a01b031681565b600e5481565b600061182161073f565b61182e5750600f54610743565b6115e461185c61183c61073f565b61064d670de0b6b3a7640000610641600d54610641600e5461062c6115d6565b600f549063ffffffff611a9316565b6008546001600160a01b031681565b600f5481565b600c5481565b60125481565b611894611aed565b6003546001600160a01b039081169116146118f6576040805162461bcd60e51b815260206004820181905260248201527f4f776e61626c653a2063616c6c6572206973206e6f7420746865206f776e6572604482015290519081900360640190fd5b6001600160a01b03811661193b5760405162461bcd60e51b81526004018080602001828103825260268152602001806123646026913960400191505060405180910390fd5b6003546040516001600160a01b038084169216907f8be0079c531659141344cd1fd0a4f28419497f9722a3daafe3b4186f6b6457e090600090a3600380547fffffffffffffffffffffffff0000000000000000000000000000000000000000166001600160a01b0392909216919091179055565b60006119f183836040518060400160405280601e81526020017f536166654d6174683a207375627472616374696f6e206f766572666c6f770000815250611ed2565b9392505050565b600082611a0757506000610665565b82820282848281611a1457fe5b04146119f15760405162461bcd60e51b815260040180806020018281038252602181526020018061238a6021913960400191505060405180910390fd5b60006119f183836040518060400160405280601a81526020017f536166654d6174683a206469766973696f6e206279207a65726f000000000000815250611f69565b6000828201838110156119f1576040805162461bcd60e51b815260206004820152601b60248201527f536166654d6174683a206164646974696f6e206f766572666c6f770000000000604482015290519081900360640190fd5b3390565b600154611b04908263ffffffff6119af16565b60015533600090815260026020526040902054611b27908263ffffffff6119af16565b336000818152600260205260408120929092559054610d58916001600160a01b039091169083611fce565b600b54421115611c2c57600c544210611b8957600a54611b7990829063ffffffff611a5116565b600d55611b84612053565b611bd8565b600c54600090611b9f904263ffffffff6119af16565b90506000611bb8600d54836119f890919063ffffffff16565b600a54909150611bd29061064d858463ffffffff611a9316565b600d5550505b42600e819055600a54611bf1919063ffffffff611a9316565b600c556040805182815290517fba54ce5940e90276397dfc944292ed6a6a43aa64f9deb96d5f471bef49b78e149181900360200190a1610d58565b600a54611c4090829063ffffffff611a5116565b600d55600b54600e819055600a54611c5e919063ffffffff611a9316565b600c556040805182815290517fba54ce5940e90276397dfc944292ed6a6a43aa64f9deb96d5f471bef49b78e149181900360200190a150565b600b54421015611cee576040805162461bcd60e51b815260206004820152600960248201527f6e6f742073746172740000000000000000000000000000000000000000000000604482015290519081900360640190fd5b60648110611d43576040805162461bcd60e51b815260206004820152601160248201527f63616c20726577617264206572726f7221000000000000000000000000000000604482015290519081900360640190fd5b6000611d4e336105e5565b90508015610c1a576000611d6d606461064d848663ffffffff6119f816565b9050611d7f828263ffffffff6119af16565b33600081815260176020526040902091909155601554611dcd9190611db49060649061064d908690830363ffffffff6119f816565b6005546001600160a01b0316919063ffffffff611fce16565b600954601554611df9916001600160a01b031690611db49060649061064d90869063ffffffff6119f816565b336001600160a01b03167fe2403640ba68fed3a2f88b7557551d1993f84b99bb10ff833f0cf8db0c5e0486611e3e606461064d601554866119f890919063ffffffff16565b60408051918252519081900360200190a2505050565b3b151590565b6000818310611e6957816119f1565b5090919050565b600154611e83908263ffffffff611a9316565b60015533600090815260026020526040902054611ea6908263ffffffff611a9316565b336000818152600260205260408120929092559054610d58916001600160a01b0390911690308461205a565b60008184841115611f615760405162461bcd60e51b81526004018080602001828103825283818151815260200191508051906020019080838360005b83811015611f26578181015183820152602001611f0e565b50505050905090810190601f168015611f535780820380516001836020036101000a031916815260200191505b509250505060405180910390fd5b505050900390565b60008183611fb85760405162461bcd60e51b8152602060048201818152835160248401528351909283926044909101919085019080838360008315611f26578181015183820152602001611f0e565b506000838581611fc457fe5b0495945050505050565b604080516001600160a01b038416602482015260448082018490528251808303909101815260649091019091526020810180517bffffffffffffffffffffffffffffffffffffffffffffffffffffffff167fa9059cbb0000000000000000000000000000000000000000000000000000000017905261204e9084906120e8565b505050565b6003601155565b604080516001600160a01b0380861660248301528416604482015260648082018490528251808303909101815260849091019091526020810180517bffffffffffffffffffffffffffffffffffffffffffffffffffffffff167f23b872dd000000000000000000000000000000000000000000000000000000001790526120e29085906120e8565b50505050565b606061213d826040518060400160405280602081526020017f5361666545524332303a206c6f772d6c6576656c2063616c6c206661696c6564815250856001600160a01b03166121999092919063ffffffff16565b80519091501561204e5780806020019051602081101561215c57600080fd5b505161204e5760405162461bcd60e51b815260040180806020018281038252602a8152602001806123f0602a913960400191505060405180910390fd5b60606121a884846000856121b0565b949350505050565b60606121bb85611e54565b61220c576040805162461bcd60e51b815260206004820152601d60248201527f416464726573733a2063616c6c20746f206e6f6e2d636f6e7472616374000000604482015290519081900360640190fd5b60006060866001600160a01b031685876040518082805190602001908083835b6020831061226957805182527fffffffffffffffffffffffffffffffffffffffffffffffffffffffffffffffe0909201916020918201910161222c565b6001836020036101000a03801982511681845116808217855250505050505090500191505060006040518083038185875af1925050503d80600081146122cb576040519150601f19603f3d011682016040523d82523d6000602084013e6122d0565b606091505b509150915081156122e45791506121a89050565b8051156122f45780518082602001fd5b60405162461bcd60e51b8152602060048201818152865160248401528651879391928392604401919085019080838360008315611f26578181015183820152602001611f0e56fe596f7520646f206e6f74206861766520726967687420746f20757365207468697320746f6b656e214f776e61626c653a206e6577206f776e657220697320746865207a65726f2061646472657373536166654d6174683a206d756c7469706c69636174696f6e206f766572666c6f7743616c6c6572206973206e6f742072657761726420646973747269627574696f6e54686973207469636b657420697320757365642077697468696e20323420686f757273215361666545524332303a204552433230206f7065726174696f6e20646964206e6f742073756363656564a264697066735822122055619322d6667b0c7fdfd5f4647404cee5891a4b9c82eac148acdd4a61a1b88f64736f6c63430006020033536166654d6174683a206d756c7469706c69636174696f6e206f766572666c6f77ba54ce5940e90276397dfc944292ed6a6a43aa64f9deb96d5f471bef49b78e14",
  "source": "pragma solidity ^0.6.0;\n\nimport \"./StakePool.sol\";\nimport \"../uniswap/IUniswapV2Factory.sol\";\nimport \"@openzeppelin/contracts/token/ERC20/IERC20.sol\";\n\n\ncontract HotPotLPStakePool is StakePool{\n    IUniswapV2Factory public uniswapFactory;\n\n    constructor(\n        address _hotpotNFT,\n        address _hotpotERC20,\n        address _loan,\n        address _reward,\n        uint256 _starttime,\n        uint256 duration,\n        uint256 _rewardAmount,\n        address _uniFactory,\n        address _ethAddress\n    ) public StakePool(_hotpotERC20,_hotpotNFT,_hotpotERC20,_loan,_reward,_starttime,duration,_rewardAmount){\n        uniswapFactory = IUniswapV2Factory(_uniFactory != address(0) ? _uniFactory : 0x5C69bEe701ef814a2B6a3EDD4B1652CB9cc5aA6f); \n\n        address pair = uniswapFactory.createPair(_ethAddress,_hotpotERC20);\n        tokenAddr = IERC20(pair);\n    }\n}",
  "sourcePath": "/Users/junhu/git/hotpotcontract/truffle/contracts/stake/HotPotLPStakePool.sol",
  "compiler": {
    "name": "solc",
    "version": "0.6.2+commit.bacdbe57.Emscripten.clang"
  },
  "schemaVersion": "3.3.0",
  "updatedAt": "2020-10-23T06:07:45.035Z",
  "networkType": "ethereum",
  "devdoc": {
    "methods": {
      "owner()": {
        "details": "Returns the address of the current owner."
      },
      "renounceOwnership()": {
        "details": "Leaves the contract without owner. It will not be possible to call `onlyOwner` functions anymore. Can only be called by the current owner.     * NOTE: Renouncing ownership will leave the contract without an owner, thereby removing any functionality that is only available to the owner."
      },
      "transferOwnership(address)": {
        "details": "Transfers ownership of the contract to a new account (`newOwner`). Can only be called by the current owner."
      }
    }
  },
  "userdoc": {
    "methods": {}
  }
}