{
  "contractName": "Invite",
  "abi": [
    {
      "inputs": [],
      "stateMutability": "nonpayable",
      "type": "constructor"
    },
    {
      "anonymous": false,
      "inputs": [
        {
          "indexed": false,
          "internalType": "address",
          "name": "creator",
          "type": "address"
        }
      ],
      "name": "InviteCreated",
      "type": "event"
    },
    {
      "anonymous": false,
      "inputs": [
        {
          "indexed": false,
          "internalType": "address",
          "name": "user",
          "type": "address"
        },
        {
          "indexed": false,
          "internalType": "uint256",
          "name": "code",
          "type": "uint256"
        }
      ],
      "name": "InviteInput",
      "type": "event"
    },
    {
      "anonymous": false,
      "inputs": [
        {
          "indexed": false,
          "internalType": "address",
          "name": "validator",
          "type": "address"
        }
      ],
      "name": "InviteValidate",
      "type": "event"
    },
    {
      "anonymous": false,
      "inputs": [
        {
          "indexed": true,
          "internalType": "address",
          "name": "previousOwner",
          "type": "address"
        },
        {
          "indexed": true,
          "internalType": "address",
          "name": "newOwner",
          "type": "address"
        }
      ],
      "name": "OwnershipTransferred",
      "type": "event"
    },
    {
      "anonymous": false,
      "inputs": [
        {
          "indexed": false,
          "internalType": "address",
          "name": "account",
          "type": "address"
        }
      ],
      "name": "Paused",
      "type": "event"
    },
    {
      "anonymous": false,
      "inputs": [
        {
          "indexed": false,
          "internalType": "address",
          "name": "account",
          "type": "address"
        }
      ],
      "name": "Unpaused",
      "type": "event"
    },
    {
      "inputs": [],
      "name": "generateContract",
      "outputs": [
        {
          "internalType": "address",
          "name": "",
          "type": "address"
        }
      ],
      "stateMutability": "view",
      "type": "function"
    },
    {
      "inputs": [],
      "name": "owner",
      "outputs": [
        {
          "internalType": "address",
          "name": "",
          "type": "address"
        }
      ],
      "stateMutability": "view",
      "type": "function"
    },
    {
      "inputs": [],
      "name": "paused",
      "outputs": [
        {
          "internalType": "bool",
          "name": "",
          "type": "bool"
        }
      ],
      "stateMutability": "view",
      "type": "function"
    },
    {
      "inputs": [],
      "name": "ratioUpdate",
      "outputs": [
        {
          "internalType": "uint256",
          "name": "",
          "type": "uint256"
        }
      ],
      "stateMutability": "view",
      "type": "function"
    },
    {
      "inputs": [],
      "name": "renounceOwnership",
      "outputs": [],
      "stateMutability": "nonpayable",
      "type": "function"
    },
    {
      "inputs": [
        {
          "internalType": "address",
          "name": "newOwner",
          "type": "address"
        }
      ],
      "name": "transferOwnership",
      "outputs": [],
      "stateMutability": "nonpayable",
      "type": "function"
    },
    {
      "inputs": [],
      "name": "validContract",
      "outputs": [
        {
          "internalType": "address",
          "name": "",
          "type": "address"
        }
      ],
      "stateMutability": "view",
      "type": "function"
    },
    {
      "inputs": [
        {
          "internalType": "address",
          "name": "_addr",
          "type": "address"
        }
      ],
      "name": "setValidContract",
      "outputs": [],
      "stateMutability": "nonpayable",
      "type": "function"
    },
    {
      "inputs": [
        {
          "internalType": "address",
          "name": "_addr",
          "type": "address"
        }
      ],
      "name": "setGenerateContract",
      "outputs": [],
      "stateMutability": "nonpayable",
      "type": "function"
    },
    {
      "inputs": [
        {
          "internalType": "uint256",
          "name": "_ratio",
          "type": "uint256"
        }
      ],
      "name": "setRatioUpdate",
      "outputs": [],
      "stateMutability": "nonpayable",
      "type": "function"
    },
    {
      "inputs": [
        {
          "internalType": "address",
          "name": "user",
          "type": "address"
        }
      ],
      "name": "getInviteNum",
      "outputs": [
        {
          "internalType": "uint256",
          "name": "",
          "type": "uint256"
        }
      ],
      "stateMutability": "view",
      "type": "function"
    },
    {
      "inputs": [
        {
          "internalType": "address",
          "name": "user",
          "type": "address"
        }
      ],
      "name": "getMyInviteCode",
      "outputs": [
        {
          "internalType": "uint256",
          "name": "",
          "type": "uint256"
        }
      ],
      "stateMutability": "view",
      "type": "function"
    },
    {
      "inputs": [
        {
          "internalType": "address",
          "name": "user",
          "type": "address"
        }
      ],
      "name": "calValidNum",
      "outputs": [
        {
          "internalType": "uint256",
          "name": "",
          "type": "uint256"
        }
      ],
      "stateMutability": "view",
      "type": "function"
    },
    {
      "inputs": [
        {
          "internalType": "address",
          "name": "user",
          "type": "address"
        }
      ],
      "name": "calRatioUpdate",
      "outputs": [
        {
          "internalType": "uint256",
          "name": "",
          "type": "uint256"
        }
      ],
      "stateMutability": "view",
      "type": "function"
    },
    {
      "inputs": [
        {
          "internalType": "address",
          "name": "user",
          "type": "address"
        }
      ],
      "name": "getInputInviteCode",
      "outputs": [
        {
          "internalType": "uint256",
          "name": "",
          "type": "uint256"
        }
      ],
      "stateMutability": "view",
      "type": "function"
    },
    {
      "inputs": [
        {
          "internalType": "address",
          "name": "user",
          "type": "address"
        }
      ],
      "name": "checkValidated",
      "outputs": [
        {
          "internalType": "bool",
          "name": "",
          "type": "bool"
        }
      ],
      "stateMutability": "view",
      "type": "function"
    },
    {
      "inputs": [
        {
          "internalType": "address",
          "name": "user",
          "type": "address"
        }
      ],
      "name": "validCode",
      "outputs": [],
      "stateMutability": "nonpayable",
      "type": "function"
    },
    {
      "inputs": [
        {
          "internalType": "address",
          "name": "user",
          "type": "address"
        }
      ],
      "name": "generateCode",
      "outputs": [],
      "stateMutability": "nonpayable",
      "type": "function"
    },
    {
      "inputs": [
        {
          "internalType": "uint256",
          "name": "code",
          "type": "uint256"
        }
      ],
      "name": "inputCode",
      "outputs": [],
      "stateMutability": "nonpayable",
      "type": "function"
    },
    {
      "inputs": [],
      "name": "pause",
      "outputs": [],
      "stateMutability": "nonpayable",
      "type": "function"
    },
    {
      "inputs": [],
      "name": "unpause",
      "outputs": [],
      "stateMutability": "nonpayable",
      "type": "function"
    }
  ],
  "bytecode": "0x60806040526103e86003556005600455600060075534801561002057600080fd5b5060006100346001600160e01b0361009016565b600080546001600160a01b0319166001600160a01b0383169081178255604051929350917f8be0079c531659141344cd1fd0a4f28419497f9722a3daafe3b4186f6b6457e0908290a3506000805460ff60a01b19169055610094565b3390565b611459806100a36000396000f3fe608060405234801561001057600080fd5b50600436106101775760003560e01c80638da5cb5b116100d8578063e305d0721161008c578063f6366f6311610066578063f6366f6314610373578063fa08f2a914610399578063fb6fe0fd146103b657610177565b8063e305d0721461031f578063e400423514610327578063f2fde38b1461034d57610177565b8063a727d8ef116100bd578063a727d8ef146102d4578063a9a727e7146102f1578063b96a1f8b146102f957610177565b80638da5cb5b146102a857806398d68578146102cc57610177565b80635c975abb1161012f57806382ddc9901161011457806382ddc9901461025457806383d2959f1461027a5780638456cb59146102a057610177565b80635c975abb14610244578063715018a61461024c57610177565b806334b657161161016057806334b65716146101ca5780633f4ba83a146102045780634a67c80c1461020c57610177565b80630b9628651461017c5780631299a2e2146101a4575b600080fd5b6101a26004803603602081101561019257600080fd5b50356001600160a01b03166103dc565b005b6101a2600480360360208110156101ba57600080fd5b50356001600160a01b03166104e3565b6101f0600480360360208110156101e057600080fd5b50356001600160a01b0316610786565b604080519115158252519081900360200190f35b6101a26107a7565b6102326004803603602081101561022257600080fd5b50356001600160a01b031661081b565b60408051918252519081900360200190f35b6101f0610839565b6101a261085a565b6102326004803603602081101561026a57600080fd5b50356001600160a01b0316610926565b6102326004803603602081101561029057600080fd5b50356001600160a01b0316610950565b6101a261096e565b6102b06109e0565b604080516001600160a01b039092168252519081900360200190f35b6102326109ef565b6101a2600480360360208110156102ea57600080fd5b50356109f5565b6102b0610c47565b6102326004803603602081101561030f57600080fd5b50356001600160a01b0316610c56565b6102b0610d1a565b6101a26004803603602081101561033d57600080fd5b50356001600160a01b0316610d29565b6101a26004803603602081101561036357600080fd5b50356001600160a01b0316610ea4565b6101a26004803603602081101561038957600080fd5b50356001600160a01b0316610fc6565b6101a2600480360360208110156103af57600080fd5b50356110cd565b610232600480360360208110156103cc57600080fd5b50356001600160a01b031661113c565b6103e4611160565b6000546001600160a01b03908116911614610446576040805162461bcd60e51b815260206004820181905260248201527f4f776e61626c653a2063616c6c6572206973206e6f7420746865206f776e6572604482015290519081900360640190fd5b610458816001600160a01b0316611164565b6104a9576040805162461bcd60e51b815260206004820152601d60248201527f546869732061646472657373206973206e6f7420636f6e747261637421000000604482015290519081900360640190fd5b600180547fffffffffffffffffffffffff0000000000000000000000000000000000000000166001600160a01b0392909216919091179055565b60005474010000000000000000000000000000000000000000900460ff1615610553576040805162461bcd60e51b815260206004820152601060248201527f5061757361626c653a2070617573656400000000000000000000000000000000604482015290519081900360640190fd5b6001546001600160a01b0316331461059c5760405162461bcd60e51b815260040180806020018281038252602a8152602001806113fa602a913960400191505060405180910390fd5b6001600160a01b0381166000908152600560205260409020600301546107835760078054600290810191829055604080514260208083019190915281830194909452606085811b7fffffffffffffffffffffffffffffffffffffffff0000000000000000000000001690820152815180820360540181526074909101918290528051600094601494939182918401908083835b6020831061066c57805182527fffffffffffffffffffffffffffffffffffffffffffffffffffffffffffffffe0909201916020918201910161062f565b51815160209384036101000a7fffffffffffffffffffffffffffffffffffffffffffffffffffffffffffffffff01801990921691161790526040519190930194509192505080830381855afa1580156106c9573d6000803e3d6000fd5b5050506040513d60208110156106de57600080fd5b5051816106e757fe5b60038054929091069182018082556001600160a01b0385166000818152600560209081526040808320909501849055838252600681529084902080547fffffffffffffffffffffffff000000000000000000000000000000000000000016831790558351918252925193945090927f4ded452ec6ebaf8bbaf39341bb4d7d2922646b99089caf25626d24123afb742c929181900390910190a150505b50565b6001600160a01b031660009081526005602052604090206002015460ff1690565b6107af611160565b6000546001600160a01b03908116911614610811576040805162461bcd60e51b815260206004820181905260248201527f4f776e61626c653a2063616c6c6572206973206e6f7420746865206f776e6572604482015290519081900360640190fd5b61081961116a565b565b6001600160a01b031660009081526005602052604090206003015490565b60005474010000000000000000000000000000000000000000900460ff1690565b610862611160565b6000546001600160a01b039081169116146108c4576040805162461bcd60e51b815260206004820181905260248201527f4f776e61626c653a2063616c6c6572206973206e6f7420746865206f776e6572604482015290519081900360640190fd5b600080546040516001600160a01b03909116907f8be0079c531659141344cd1fd0a4f28419497f9722a3daafe3b4186f6b6457e0908390a3600080547fffffffffffffffffffffffff0000000000000000000000000000000000000000169055565b6001600160a01b038116600090815260056020526040812061094a90600401611247565b92915050565b6001600160a01b031660009081526005602052604090206001015490565b610976611160565b6000546001600160a01b039081169116146109d8576040805162461bcd60e51b815260206004820181905260248201527f4f776e61626c653a2063616c6c6572206973206e6f7420746865206f776e6572604482015290519081900360640190fd5b610819611252565b6000546001600160a01b031690565b60045481565b60005474010000000000000000000000000000000000000000900460ff1615610a65576040805162461bcd60e51b815260206004820152601060248201527f5061757361626c653a2070617573656400000000000000000000000000000000604482015290519081900360640190fd5b60008181526006602052604090205481906001600160a01b0316610ad0576040805162461bcd60e51b815260206004820152601460248201527f496e76616c696420696e7669746520636f64652e000000000000000000000000604482015290519081900360640190fd5b336000908152600560205260409020546001600160a01b031615610b3b576040805162461bcd60e51b815260206004820152601d60248201527f596f75206861766520696e7669746520636f646520616c72656164792e000000604482015290519081900360640190fd5b6000828152600660205260409020546001600160a01b031633811415610ba8576040805162461bcd60e51b815260206004820152601960248201527f5468697320697320796f757220696e7669746520636f64652e00000000000000604482015290519081900360640190fd5b3360008181526005602052604080822080547fffffffffffffffffffffffff0000000000000000000000000000000000000000166001600160a01b0386169081178255600190910187905582529020610c069160049091019061132a565b50604080513381526020810185905281517fbcf689e4652e43006ca84984d4ce681125d4f93fd93c37e3ab368ca0fadb1490929181900390910190a1505050565b6002546001600160a01b031681565b600080600454306001600160a01b031663fb6fe0fd856040518263ffffffff1660e01b815260040180826001600160a01b03166001600160a01b0316815260200191505060206040518083038186803b158015610cb257600080fd5b505afa158015610cc6573d6000803e3d6000fd5b505050506040513d6020811015610cdc57600080fd5b505102905060648110610ced575060645b6001600160a01b03831660009081526005602052604090206002015460ff161561094a57600a0192915050565b6001546001600160a01b031681565b60005474010000000000000000000000000000000000000000900460ff1615610d99576040805162461bcd60e51b815260206004820152601060248201527f5061757361626c653a2070617573656400000000000000000000000000000000604482015290519081900360640190fd5b6002546001600160a01b03163314610de25760405162461bcd60e51b81526004018080602001828103825260278152602001806113ad6027913960400191505060405180910390fd5b6001600160a01b03808216600090815260056020526040902054168015610ea0576001600160a01b0380831660009081526005602052604080822060020180547fffffffffffffffffffffffffffffffffffffffffffffffffffffffffffffff00166001179055918316815220610e62906006018363ffffffff61132a16565b50604080516001600160a01b038416815290517f9c08d4a089a3386a3acd7626b86c14eb76ba4b5a748612c43286a0d55122d03b9181900360200190a15b5050565b610eac611160565b6000546001600160a01b03908116911614610f0e576040805162461bcd60e51b815260206004820181905260248201527f4f776e61626c653a2063616c6c6572206973206e6f7420746865206f776e6572604482015290519081900360640190fd5b6001600160a01b038116610f535760405162461bcd60e51b81526004018080602001828103825260268152602001806113d46026913960400191505060405180910390fd5b600080546040516001600160a01b03808516939216917f8be0079c531659141344cd1fd0a4f28419497f9722a3daafe3b4186f6b6457e091a3600080547fffffffffffffffffffffffff0000000000000000000000000000000000000000166001600160a01b0392909216919091179055565b610fce611160565b6000546001600160a01b03908116911614611030576040805162461bcd60e51b815260206004820181905260248201527f4f776e61626c653a2063616c6c6572206973206e6f7420746865206f776e6572604482015290519081900360640190fd5b611042816001600160a01b0316611164565b611093576040805162461bcd60e51b815260206004820152601d60248201527f546869732061646472657373206973206e6f7420636f6e747261637421000000604482015290519081900360640190fd5b600280547fffffffffffffffffffffffff0000000000000000000000000000000000000000166001600160a01b0392909216919091179055565b6110d5611160565b6000546001600160a01b03908116911614611137576040805162461bcd60e51b815260206004820181905260248201527f4f776e61626c653a2063616c6c6572206973206e6f7420746865206f776e6572604482015290519081900360640190fd5b600455565b6001600160a01b038116600090815260056020526040812061094a90600601611247565b3390565b3b151590565b60005474010000000000000000000000000000000000000000900460ff166111d9576040805162461bcd60e51b815260206004820152601460248201527f5061757361626c653a206e6f7420706175736564000000000000000000000000604482015290519081900360640190fd5b600080547fffffffffffffffffffffff00ffffffffffffffffffffffffffffffffffffffff1690557f5db9ee0a495bf2e6ff9c91a7834c1ba4fdd244a5e8aa4e537bd38aeae4b073aa61122a611160565b604080516001600160a01b039092168252519081900360200190a1565b600061094a82611346565b60005474010000000000000000000000000000000000000000900460ff16156112c2576040805162461bcd60e51b815260206004820152601060248201527f5061757361626c653a2070617573656400000000000000000000000000000000604482015290519081900360640190fd5b600080547fffffffffffffffffffffff00ffffffffffffffffffffffffffffffffffffffff16740100000000000000000000000000000000000000001790557f62e78cea01bee320cd4e420270b5ea74000d11b0c9f74754ebdbfc544b05a25861122a611160565b600061133f836001600160a01b03841661134a565b9392505050565b5490565b60006113568383611394565b61138c5750815460018181018455600084815260208082209093018490558454848252828601909352604090209190915561094a565b50600061094a565b6000908152600191909101602052604090205415159056fe4f6e6c792076616c6964436f6e74726163742063616e2063616c6c2074686973206d6574686f644f776e61626c653a206e6577206f776e657220697320746865207a65726f20616464726573734f6e6c792067656e6572617465436f6e74726163742063616e2063616c6c2074686973206d6574686f64a2646970667358221220e4213e054a8cf6dde0ec776160fb639f5f9a0e8434c69cc0b7d029a94781d20364736f6c63430006020033",
  "source": "pragma solidity ^0.6.0;\n\nimport \"@openzeppelin/contracts/math/SafeMath.sol\";\nimport \"@openzeppelin/contracts/token/ERC20/IERC20.sol\";\nimport \"@openzeppelin/contracts/token/ERC20/SafeERC20.sol\";\nimport \"@openzeppelin/contracts/utils/EnumerableSet.sol\";\nimport \"@openzeppelin/contracts/token/ERC721/ERC721.sol\";\nimport \"@openzeppelin/contracts/token/ERC721/IERC721Receiver.sol\";\nimport \"@openzeppelin/contracts/access/Ownable.sol\";\nimport \"@openzeppelin/contracts/utils/Strings.sol\";\nimport \"@openzeppelin/contracts/utils/Address.sol\";\nimport \"../common/hotpotinterface.sol\";\nimport \"../common/ILoan.sol\";\nimport \"../common/IInvite.sol\";\nimport \"@openzeppelin/contracts/utils/Pausable.sol\";\n\n//1. generateCode()\n//2. inputCode()\n//3. calValidCode()\n//4. validCode()\n//5.\ncontract Invite is Ownable, IInvite, Pausable {\n    using Address for address;\n    using EnumerableSet for EnumerableSet.AddressSet;\n\n    address public generateContract;\n    address public validContract;\n    uint256 internal lastCode = 1000;\n\n    //100 = 10%\n    uint256 constant MAX_RATIO_UPDATE = 100;\n\n    //5\n    uint256 public ratioUpdate = 5;\n\n    event InviteCreated(address creator);\n    event InviteInput(address user,uint256 code);\n    event InviteValidate(address validator);\n\n    struct InviteInfo {\n        //The user who invites me\n        address inviter;\n        //My inviter's code\n        uint256 inviteCode;\n\n        bool validateInviter;\n        //The invite code I create\n        uint256 myInviteCode;\n        //The user I invited\n        EnumerableSet.AddressSet invites;\n        //The validated user\n        EnumerableSet.AddressSet validatedInvites;\n    }\n\n    mapping(address => InviteInfo) internal inviteInfos;\n    mapping(uint256 => address) internal codeCreators;\n\n    uint256 internal randomSeed = 0;\n\n    constructor() public {\n\n    }\n\n    modifier checkCode(uint256 code) {\n        require(codeCreators[code] != address(0), \"Invalid invite code.\");\n        _;\n    }\n\n    function setValidContract(address _addr) external onlyOwner {\n        require(_addr.isContract(),\"This address is not contract!\");\n        validContract = _addr;\n    }\n\n    function setGenerateContract(address _addr) external onlyOwner {\n        require(_addr.isContract(),\"This address is not contract!\");\n        generateContract = _addr;\n    }\n\n    function setRatioUpdate(uint256 _ratio) external onlyOwner{\n        ratioUpdate = _ratio;\n    }\n\n    function getInviteNum(address user) external view returns (uint256) {\n        return inviteInfos[user].invites.length();\n    }\n\n    function getMyInviteCode(address user) external view returns(uint256){\n        return inviteInfos[user].myInviteCode;\n    }\n\n    function calValidNum(address user)\n        external\n        override\n        view\n        returns (uint256)\n    {\n        return inviteInfos[user].validatedInvites.length();\n    }\n    \n    function calRatioUpdate(address user) external override view returns(uint256){\n        uint256 total = this.calValidNum(user) * ratioUpdate;\n        if(total>=MAX_RATIO_UPDATE){\n            total = MAX_RATIO_UPDATE;\n        }\n        if(inviteInfos[user].validateInviter){\n            total += 10;\n        }\n        return total;\n    }\n\n    function getInputInviteCode(address user) external view returns(uint256){\n        return inviteInfos[user].inviteCode;\n    }\n\n    function checkValidated(address user) external view returns(bool){\n        return inviteInfos[user].validateInviter;\n    }\n\n    function validCode(address user) external override whenNotPaused {\n        require(\n            msg.sender == validContract,\n            \"Only validContract can call this method\"\n        );\n        address inviter = inviteInfos[user].inviter;\n        if (inviter != address(0)) {\n            inviteInfos[user].validateInviter = true;\n            inviteInfos[inviter].validatedInvites.add(user);\n            emit InviteValidate(user);\n        }\n    }\n\n    function generateCode(address user) external override whenNotPaused {\n        require(\n            msg.sender == generateContract,\n            \"Only generateContract can call this method\"\n        );\n        if (inviteInfos[user].myInviteCode == 0) {\n            randomSeed += 2;\n            //generate random number\n            //it is not that safe\n            uint256 random = uint256(\n                sha256(abi.encodePacked(now, randomSeed, user))\n            ) % 20;\n\n            uint256 code = lastCode + random;\n            lastCode = code;\n\n            inviteInfos[user].myInviteCode = code;\n\n            codeCreators[code] = user;\n            emit InviteCreated(user);\n        }\n    }\n\n    function inputCode(uint256 code) external whenNotPaused checkCode(code) {\n        require(\n            inviteInfos[msg.sender].inviter == address(0),\n            \"You have invite code already.\"\n        );\n\n        address creator = codeCreators[code];\n        require(creator != msg.sender, \"This is your invite code.\");\n        inviteInfos[msg.sender].inviter = creator;\n        inviteInfos[msg.sender].inviteCode = code;\n        inviteInfos[creator].invites.add(msg.sender);\n        emit InviteInput(msg.sender,code);\n    }\n\n    function pause() external onlyOwner {\n        _pause();\n    }\n\n    function unpause() external onlyOwner {\n        _unpause();\n    }\n}\n",
  "sourcePath": "/Users/junhu/git/hotpotcontract/truffle/contracts/invide/Invite.sol",
  "compiler": {
    "name": "solc",
    "version": "0.6.2+commit.bacdbe57.Emscripten.clang"
  },
  "schemaVersion": "3.3.0",
  "updatedAt": "2020-10-30T12:46:38.421Z",
  "devdoc": {
    "methods": {
      "owner()": {
        "details": "Returns the address of the current owner."
      },
      "paused()": {
        "details": "Returns true if the contract is paused, and false otherwise."
      },
      "renounceOwnership()": {
        "details": "Leaves the contract without owner. It will not be possible to call `onlyOwner` functions anymore. Can only be called by the current owner.     * NOTE: Renouncing ownership will leave the contract without an owner, thereby removing any functionality that is only available to the owner."
      },
      "transferOwnership(address)": {
        "details": "Transfers ownership of the contract to a new account (`newOwner`). Can only be called by the current owner."
      }
    }
  },
  "userdoc": {
    "methods": {}
  }
}