{
  "contractName": "Invite",
  "abi": [
    {
      "inputs": [
        {
          "internalType": "address",
          "name": "_erc721",
          "type": "address"
        }
      ],
      "stateMutability": "nonpayable",
      "type": "constructor"
    },
    {
      "anonymous": false,
      "inputs": [
        {
          "indexed": false,
          "internalType": "address",
          "name": "creator",
          "type": "address"
        }
      ],
      "name": "InviteCreated",
      "type": "event"
    },
    {
      "anonymous": false,
      "inputs": [
        {
          "indexed": false,
          "internalType": "address",
          "name": "user",
          "type": "address"
        },
        {
          "indexed": false,
          "internalType": "uint256",
          "name": "code",
          "type": "uint256"
        }
      ],
      "name": "InviteInput",
      "type": "event"
    },
    {
      "anonymous": false,
      "inputs": [
        {
          "indexed": false,
          "internalType": "address",
          "name": "validator",
          "type": "address"
        }
      ],
      "name": "InviteValidate",
      "type": "event"
    },
    {
      "anonymous": false,
      "inputs": [
        {
          "indexed": true,
          "internalType": "address",
          "name": "previousOwner",
          "type": "address"
        },
        {
          "indexed": true,
          "internalType": "address",
          "name": "newOwner",
          "type": "address"
        }
      ],
      "name": "OwnershipTransferred",
      "type": "event"
    },
    {
      "anonymous": false,
      "inputs": [
        {
          "indexed": false,
          "internalType": "address",
          "name": "account",
          "type": "address"
        }
      ],
      "name": "Paused",
      "type": "event"
    },
    {
      "anonymous": false,
      "inputs": [
        {
          "indexed": false,
          "internalType": "address",
          "name": "account",
          "type": "address"
        }
      ],
      "name": "Unpaused",
      "type": "event"
    },
    {
      "inputs": [],
      "name": "erc721",
      "outputs": [
        {
          "internalType": "contract ERC721",
          "name": "",
          "type": "address"
        }
      ],
      "stateMutability": "view",
      "type": "function",
      "constant": true
    },
    {
      "inputs": [],
      "name": "generateContract",
      "outputs": [
        {
          "internalType": "address",
          "name": "",
          "type": "address"
        }
      ],
      "stateMutability": "view",
      "type": "function",
      "constant": true
    },
    {
      "inputs": [],
      "name": "owner",
      "outputs": [
        {
          "internalType": "address",
          "name": "",
          "type": "address"
        }
      ],
      "stateMutability": "view",
      "type": "function",
      "constant": true
    },
    {
      "inputs": [],
      "name": "paused",
      "outputs": [
        {
          "internalType": "bool",
          "name": "",
          "type": "bool"
        }
      ],
      "stateMutability": "view",
      "type": "function",
      "constant": true
    },
    {
      "inputs": [],
      "name": "ratioUpdate",
      "outputs": [
        {
          "internalType": "uint256",
          "name": "",
          "type": "uint256"
        }
      ],
      "stateMutability": "view",
      "type": "function",
      "constant": true
    },
    {
      "inputs": [],
      "name": "ratioUpdate2",
      "outputs": [
        {
          "internalType": "uint256",
          "name": "",
          "type": "uint256"
        }
      ],
      "stateMutability": "view",
      "type": "function",
      "constant": true
    },
    {
      "inputs": [],
      "name": "renounceOwnership",
      "outputs": [],
      "stateMutability": "nonpayable",
      "type": "function"
    },
    {
      "inputs": [],
      "name": "stage2Num",
      "outputs": [
        {
          "internalType": "uint256",
          "name": "",
          "type": "uint256"
        }
      ],
      "stateMutability": "view",
      "type": "function",
      "constant": true
    },
    {
      "inputs": [
        {
          "internalType": "address",
          "name": "newOwner",
          "type": "address"
        }
      ],
      "name": "transferOwnership",
      "outputs": [],
      "stateMutability": "nonpayable",
      "type": "function"
    },
    {
      "inputs": [],
      "name": "validContract",
      "outputs": [
        {
          "internalType": "address",
          "name": "",
          "type": "address"
        }
      ],
      "stateMutability": "view",
      "type": "function",
      "constant": true
    },
    {
      "inputs": [
        {
          "internalType": "address",
          "name": "_addr",
          "type": "address"
        }
      ],
      "name": "setERC721",
      "outputs": [],
      "stateMutability": "nonpayable",
      "type": "function"
    },
    {
      "inputs": [
        {
          "internalType": "address",
          "name": "_addr",
          "type": "address"
        }
      ],
      "name": "setValidContract",
      "outputs": [],
      "stateMutability": "nonpayable",
      "type": "function"
    },
    {
      "inputs": [
        {
          "internalType": "address",
          "name": "_addr",
          "type": "address"
        }
      ],
      "name": "setGenerateContract",
      "outputs": [],
      "stateMutability": "nonpayable",
      "type": "function"
    },
    {
      "inputs": [
        {
          "internalType": "uint256",
          "name": "_ratio",
          "type": "uint256"
        }
      ],
      "name": "setRatioUpdate",
      "outputs": [],
      "stateMutability": "nonpayable",
      "type": "function"
    },
    {
      "inputs": [
        {
          "internalType": "uint256",
          "name": "_ratio",
          "type": "uint256"
        }
      ],
      "name": "setRatioUpdate2",
      "outputs": [],
      "stateMutability": "nonpayable",
      "type": "function"
    },
    {
      "inputs": [
        {
          "internalType": "address",
          "name": "user",
          "type": "address"
        }
      ],
      "name": "getInviteNum",
      "outputs": [
        {
          "internalType": "uint256",
          "name": "",
          "type": "uint256"
        }
      ],
      "stateMutability": "view",
      "type": "function",
      "constant": true
    },
    {
      "inputs": [
        {
          "internalType": "address",
          "name": "user",
          "type": "address"
        }
      ],
      "name": "getMyInviteCode",
      "outputs": [
        {
          "internalType": "uint256",
          "name": "",
          "type": "uint256"
        }
      ],
      "stateMutability": "view",
      "type": "function",
      "constant": true
    },
    {
      "inputs": [
        {
          "internalType": "address",
          "name": "user",
          "type": "address"
        }
      ],
      "name": "calValidNum",
      "outputs": [
        {
          "internalType": "uint256",
          "name": "",
          "type": "uint256"
        }
      ],
      "stateMutability": "view",
      "type": "function",
      "constant": true
    },
    {
      "inputs": [
        {
          "internalType": "address",
          "name": "user",
          "type": "address"
        }
      ],
      "name": "calValidNum2",
      "outputs": [
        {
          "internalType": "uint256",
          "name": "",
          "type": "uint256"
        }
      ],
      "stateMutability": "view",
      "type": "function",
      "constant": true
    },
    {
      "inputs": [
        {
          "internalType": "address",
          "name": "user",
          "type": "address"
        }
      ],
      "name": "calRatioUpdate",
      "outputs": [
        {
          "internalType": "uint256",
          "name": "",
          "type": "uint256"
        }
      ],
      "stateMutability": "view",
      "type": "function",
      "constant": true
    },
    {
      "inputs": [
        {
          "internalType": "address",
          "name": "user",
          "type": "address"
        }
      ],
      "name": "getInputInviteCode",
      "outputs": [
        {
          "internalType": "uint256",
          "name": "",
          "type": "uint256"
        }
      ],
      "stateMutability": "view",
      "type": "function",
      "constant": true
    },
    {
      "inputs": [
        {
          "internalType": "address",
          "name": "user",
          "type": "address"
        }
      ],
      "name": "checkValidated",
      "outputs": [
        {
          "internalType": "bool",
          "name": "",
          "type": "bool"
        }
      ],
      "stateMutability": "view",
      "type": "function",
      "constant": true
    },
    {
      "inputs": [
        {
          "internalType": "address",
          "name": "user",
          "type": "address"
        }
      ],
      "name": "validCode",
      "outputs": [],
      "stateMutability": "nonpayable",
      "type": "function"
    },
    {
      "inputs": [
        {
          "internalType": "address",
          "name": "user",
          "type": "address"
        }
      ],
      "name": "generateCode",
      "outputs": [],
      "stateMutability": "nonpayable",
      "type": "function"
    },
    {
      "inputs": [
        {
          "internalType": "uint256",
          "name": "code",
          "type": "uint256"
        }
      ],
      "name": "inputCode",
      "outputs": [],
      "stateMutability": "nonpayable",
      "type": "function"
    },
    {
      "inputs": [],
      "name": "pause",
      "outputs": [],
      "stateMutability": "nonpayable",
      "type": "function"
    },
    {
      "inputs": [],
      "name": "unpause",
      "outputs": [],
      "stateMutability": "nonpayable",
      "type": "function"
    }
  ],
  "bytecode": "0x60806040526103e860035560056004556002600555600060095534801561002557600080fd5b5060405161192d38038061192d8339818101604052602081101561004857600080fd5b5051600061005d6001600160e01b036100d916565b600080546001600160a01b0319166001600160a01b0383169081178255604051929350917f8be0079c531659141344cd1fd0a4f28419497f9722a3daafe3b4186f6b6457e0908290a3506000805460ff60a01b19169055600680546001600160a01b0319166001600160a01b03929092169190911790556100dd565b3390565b611841806100ec6000396000f3fe608060405234801561001057600080fd5b50600436106101b95760003560e01c80638da5cb5b116100f9578063c16d202211610097578063f2fde38b11610071578063f2fde38b14610410578063f6366f6314610436578063fa08f2a91461045c578063fb6fe0fd14610479576101b9565b8063c16d2022146103da578063e305d072146103e2578063e4004235146103ea576101b9565b8063a727d8ef116100d3578063a727d8ef14610387578063a9a727e7146103a4578063b96a1f8b146103ac578063bca6ce64146103d2576101b9565b80638da5cb5b1461033e5780638fb11e351461036257806398d685781461037f576101b9565b80634a67c80c11610166578063715018a611610140578063715018a6146102e257806382ddc990146102ea57806383d2959f146103105780638456cb5914610336576101b9565b80634a67c80c1461028e57806350e4e46e146102b45780635c975abb146102da576101b9565b80631299a2e2116101975780631299a2e21461022657806334b657161461024c5780633f4ba83a14610286576101b9565b8063076663be146101be578063094144a5146101d85780630b96286514610200575b600080fd5b6101c661049f565b60408051918252519081900360200190f35b6101fe600480360360208110156101ee57600080fd5b50356001600160a01b03166104a5565b005b6101fe6004803603602081101561021657600080fd5b50356001600160a01b03166105ac565b6101fe6004803603602081101561023c57600080fd5b50356001600160a01b03166106b3565b6102726004803603602081101561026257600080fd5b50356001600160a01b0316610956565b604080519115158252519081900360200190f35b6101fe610977565b6101c6600480360360208110156102a457600080fd5b50356001600160a01b03166109eb565b6101c6600480360360208110156102ca57600080fd5b50356001600160a01b0316610a09565b610272610a33565b6101fe610a54565b6101c66004803603602081101561030057600080fd5b50356001600160a01b0316610b20565b6101c66004803603602081101561032657600080fd5b50356001600160a01b0316610b44565b6101fe610b62565b610346610bd4565b604080516001600160a01b039092168252519081900360200190f35b6101fe6004803603602081101561037857600080fd5b5035610be3565b6101c6610c52565b6101fe6004803603602081101561039d57600080fd5b5035610c58565b610346610eaa565b6101c6600480360360208110156103c257600080fd5b50356001600160a01b0316610eb9565b610346611021565b6101c6611030565b610346611035565b6101fe6004803603602081101561040057600080fd5b50356001600160a01b0316611044565b6101fe6004803603602081101561042657600080fd5b50356001600160a01b031661128c565b6101fe6004803603602081101561044c57600080fd5b50356001600160a01b03166113ae565b6101fe6004803603602081101561047257600080fd5b50356114b5565b6101c66004803603602081101561048f57600080fd5b50356001600160a01b0316611524565b60055481565b6104ad611548565b6000546001600160a01b0390811691161461050f576040805162461bcd60e51b815260206004820181905260248201527f4f776e61626c653a2063616c6c6572206973206e6f7420746865206f776e6572604482015290519081900360640190fd5b610521816001600160a01b031661154c565b610572576040805162461bcd60e51b815260206004820152601d60248201527f546869732061646472657373206973206e6f7420636f6e747261637421000000604482015290519081900360640190fd5b600680547fffffffffffffffffffffffff0000000000000000000000000000000000000000166001600160a01b0392909216919091179055565b6105b4611548565b6000546001600160a01b03908116911614610616576040805162461bcd60e51b815260206004820181905260248201527f4f776e61626c653a2063616c6c6572206973206e6f7420746865206f776e6572604482015290519081900360640190fd5b610628816001600160a01b031661154c565b610679576040805162461bcd60e51b815260206004820152601d60248201527f546869732061646472657373206973206e6f7420636f6e747261637421000000604482015290519081900360640190fd5b600180547fffffffffffffffffffffffff0000000000000000000000000000000000000000166001600160a01b0392909216919091179055565b60005474010000000000000000000000000000000000000000900460ff1615610723576040805162461bcd60e51b815260206004820152601060248201527f5061757361626c653a2070617573656400000000000000000000000000000000604482015290519081900360640190fd5b6001546001600160a01b0316331461076c5760405162461bcd60e51b815260040180806020018281038252602a8152602001806117e2602a913960400191505060405180910390fd5b6001600160a01b0381166000908152600760205260409020600301546109535760098054600290810191829055604080514260208083019190915281830194909452606085811b7fffffffffffffffffffffffffffffffffffffffff0000000000000000000000001690820152815180820360540181526074909101918290528051600094601494939182918401908083835b6020831061083c57805182527fffffffffffffffffffffffffffffffffffffffffffffffffffffffffffffffe090920191602091820191016107ff565b51815160209384036101000a7fffffffffffffffffffffffffffffffffffffffffffffffffffffffffffffffff01801990921691161790526040519190930194509192505080830381855afa158015610899573d6000803e3d6000fd5b5050506040513d60208110156108ae57600080fd5b5051816108b757fe5b60038054929091069182018082556001600160a01b0385166000818152600760209081526040808320909501849055838252600881529084902080547fffffffffffffffffffffffff000000000000000000000000000000000000000016831790558351918252925193945090927f4ded452ec6ebaf8bbaf39341bb4d7d2922646b99089caf25626d24123afb742c929181900390910190a150505b50565b6001600160a01b031660009081526007602052604090206002015460ff1690565b61097f611548565b6000546001600160a01b039081169116146109e1576040805162461bcd60e51b815260206004820181905260248201527f4f776e61626c653a2063616c6c6572206973206e6f7420746865206f776e6572604482015290519081900360640190fd5b6109e9611552565b565b6001600160a01b031660009081526007602052604090206003015490565b6001600160a01b0381166000908152600760205260408120610a2d9060080161162f565b92915050565b60005474010000000000000000000000000000000000000000900460ff1690565b610a5c611548565b6000546001600160a01b03908116911614610abe576040805162461bcd60e51b815260206004820181905260248201527f4f776e61626c653a2063616c6c6572206973206e6f7420746865206f776e6572604482015290519081900360640190fd5b600080546040516001600160a01b03909116907f8be0079c531659141344cd1fd0a4f28419497f9722a3daafe3b4186f6b6457e0908390a3600080547fffffffffffffffffffffffff0000000000000000000000000000000000000000169055565b6001600160a01b0381166000908152600760205260408120610a2d9060040161162f565b6001600160a01b031660009081526007602052604090206001015490565b610b6a611548565b6000546001600160a01b03908116911614610bcc576040805162461bcd60e51b815260206004820181905260248201527f4f776e61626c653a2063616c6c6572206973206e6f7420746865206f776e6572604482015290519081900360640190fd5b6109e961163a565b6000546001600160a01b031690565b610beb611548565b6000546001600160a01b03908116911614610c4d576040805162461bcd60e51b815260206004820181905260248201527f4f776e61626c653a2063616c6c6572206973206e6f7420746865206f776e6572604482015290519081900360640190fd5b600555565b60045481565b60005474010000000000000000000000000000000000000000900460ff1615610cc8576040805162461bcd60e51b815260206004820152601060248201527f5061757361626c653a2070617573656400000000000000000000000000000000604482015290519081900360640190fd5b60008181526008602052604090205481906001600160a01b0316610d33576040805162461bcd60e51b815260206004820152601460248201527f496e76616c696420696e7669746520636f64652e000000000000000000000000604482015290519081900360640190fd5b336000908152600760205260409020546001600160a01b031615610d9e576040805162461bcd60e51b815260206004820152601d60248201527f596f75206861766520696e7669746520636f646520616c72656164792e000000604482015290519081900360640190fd5b6000828152600860205260409020546001600160a01b031633811415610e0b576040805162461bcd60e51b815260206004820152601960248201527f5468697320697320796f757220696e7669746520636f64652e00000000000000604482015290519081900360640190fd5b3360008181526007602052604080822080547fffffffffffffffffffffffff0000000000000000000000000000000000000000166001600160a01b0386169081178255600190910187905582529020610e6991600490910190611712565b50604080513381526020810185905281517fbcf689e4652e43006ca84984d4ce681125d4f93fd93c37e3ab368ca0fadb1490929181900390910190a1505050565b6002546001600160a01b031681565b600080600454306001600160a01b031663fb6fe0fd856040518263ffffffff1660e01b815260040180826001600160a01b03166001600160a01b0316815260200191505060206040518083038186803b158015610f1557600080fd5b505afa158015610f29573d6000803e3d6000fd5b505050506040513d6020811015610f3f57600080fd5b5051600554604080517f50e4e46e0000000000000000000000000000000000000000000000000000000081526001600160a01b03881660048201529051939092029350600092909130916350e4e46e91602480820192602092909190829003018186803b158015610faf57600080fd5b505afa158015610fc3573d6000803e3d6000fd5b505050506040513d6020811015610fd957600080fd5b50510291820191905060648210610fef57606491505b6001600160a01b03841660009081526007602052604090206002015460ff161561101a57600a820191505b5092915050565b6006546001600160a01b031681565b603281565b6001546001600160a01b031681565b60005474010000000000000000000000000000000000000000900460ff16156110b4576040805162461bcd60e51b815260206004820152601060248201527f5061757361626c653a2070617573656400000000000000000000000000000000604482015290519081900360640190fd5b6002546001600160a01b031633146110fd5760405162461bcd60e51b81526004018080602001828103825260278152602001806117956027913960400191505060405180910390fd5b6001600160a01b03808216600090815260076020526040902054168015611288576001600160a01b0380831660009081526007602090815260409182902060020180547fffffffffffffffffffffffffffffffffffffffffffffffffffffffffffffff0016600117905560065482517f18160ddd000000000000000000000000000000000000000000000000000000008152925160329491909116926318160ddd926004808301939192829003018186803b1580156111bb57600080fd5b505afa1580156111cf573d6000803e3d6000fd5b505050506040513d60208110156111e557600080fd5b5051101561121e576001600160a01b0381166000908152600760205260409020611218906006018363ffffffff61171216565b5061124b565b6001600160a01b0381166000908152600760205260409020611249906008018363ffffffff61171216565b505b604080516001600160a01b038416815290517f9c08d4a089a3386a3acd7626b86c14eb76ba4b5a748612c43286a0d55122d03b9181900360200190a15b5050565b611294611548565b6000546001600160a01b039081169116146112f6576040805162461bcd60e51b815260206004820181905260248201527f4f776e61626c653a2063616c6c6572206973206e6f7420746865206f776e6572604482015290519081900360640190fd5b6001600160a01b03811661133b5760405162461bcd60e51b81526004018080602001828103825260268152602001806117bc6026913960400191505060405180910390fd5b600080546040516001600160a01b03808516939216917f8be0079c531659141344cd1fd0a4f28419497f9722a3daafe3b4186f6b6457e091a3600080547fffffffffffffffffffffffff0000000000000000000000000000000000000000166001600160a01b0392909216919091179055565b6113b6611548565b6000546001600160a01b03908116911614611418576040805162461bcd60e51b815260206004820181905260248201527f4f776e61626c653a2063616c6c6572206973206e6f7420746865206f776e6572604482015290519081900360640190fd5b61142a816001600160a01b031661154c565b61147b576040805162461bcd60e51b815260206004820152601d60248201527f546869732061646472657373206973206e6f7420636f6e747261637421000000604482015290519081900360640190fd5b600280547fffffffffffffffffffffffff0000000000000000000000000000000000000000166001600160a01b0392909216919091179055565b6114bd611548565b6000546001600160a01b0390811691161461151f576040805162461bcd60e51b815260206004820181905260248201527f4f776e61626c653a2063616c6c6572206973206e6f7420746865206f776e6572604482015290519081900360640190fd5b600455565b6001600160a01b0381166000908152600760205260408120610a2d9060060161162f565b3390565b3b151590565b60005474010000000000000000000000000000000000000000900460ff166115c1576040805162461bcd60e51b815260206004820152601460248201527f5061757361626c653a206e6f7420706175736564000000000000000000000000604482015290519081900360640190fd5b600080547fffffffffffffffffffffff00ffffffffffffffffffffffffffffffffffffffff1690557f5db9ee0a495bf2e6ff9c91a7834c1ba4fdd244a5e8aa4e537bd38aeae4b073aa611612611548565b604080516001600160a01b039092168252519081900360200190a1565b6000610a2d8261172e565b60005474010000000000000000000000000000000000000000900460ff16156116aa576040805162461bcd60e51b815260206004820152601060248201527f5061757361626c653a2070617573656400000000000000000000000000000000604482015290519081900360640190fd5b600080547fffffffffffffffffffffff00ffffffffffffffffffffffffffffffffffffffff16740100000000000000000000000000000000000000001790557f62e78cea01bee320cd4e420270b5ea74000d11b0c9f74754ebdbfc544b05a258611612611548565b6000611727836001600160a01b038416611732565b9392505050565b5490565b600061173e838361177c565b61177457508154600181810184556000848152602080822090930184905584548482528286019093526040902091909155610a2d565b506000610a2d565b6000908152600191909101602052604090205415159056fe4f6e6c792076616c6964436f6e74726163742063616e2063616c6c2074686973206d6574686f644f776e61626c653a206e6577206f776e657220697320746865207a65726f20616464726573734f6e6c792067656e6572617465436f6e74726163742063616e2063616c6c2074686973206d6574686f64a2646970667358221220a291b564519633e69316dbd054fdbac175310ac5da754e3ab40576642b88341664736f6c63430006020033",
  "source": "pragma solidity ^0.6.0;\n\nimport \"@openzeppelin/contracts/math/SafeMath.sol\";\nimport \"@openzeppelin/contracts/token/ERC20/IERC20.sol\";\nimport \"@openzeppelin/contracts/token/ERC20/SafeERC20.sol\";\nimport \"@openzeppelin/contracts/utils/EnumerableSet.sol\";\nimport \"@openzeppelin/contracts/token/ERC721/ERC721.sol\";\nimport \"@openzeppelin/contracts/token/ERC721/IERC721Receiver.sol\";\nimport \"@openzeppelin/contracts/access/Ownable.sol\";\nimport \"@openzeppelin/contracts/utils/Strings.sol\";\nimport \"@openzeppelin/contracts/utils/Address.sol\";\nimport \"../common/hotpotinterface.sol\";\nimport \"../common/ILoan.sol\";\nimport \"../common/IInvite.sol\";\nimport \"@openzeppelin/contracts/utils/Pausable.sol\";\n\n//1. generateCode()\n//2. inputCode()\n//3. calValidCode()\n//4. validCode()\n//5. calRatioUpdate()\ncontract Invite is Ownable, IInvite, Pausable {\n    using Address for address;\n    using EnumerableSet for EnumerableSet.AddressSet;\n\n    address public generateContract;\n    address public validContract;\n    uint256 internal lastCode = 1000;\n\n    //100 = 10%\n    uint256 constant MAX_RATIO_UPDATE = 100;\n\n    //5\n    uint256 public ratioUpdate = 5;\n\n    //ratio increase at stage 2,  2\n    uint256 public ratioUpdate2 = 2;\n\n    uint256 constant public stage2Num = 50;\n\n    ERC721 public erc721;\n\n    event InviteCreated(address creator);\n    event InviteInput(address user,uint256 code);\n    event InviteValidate(address validator);\n\n    struct InviteInfo {\n        //The user who invites me\n        address inviter;\n        //My inviter's code\n        uint256 inviteCode;\n\n        bool validateInviter;\n        //The invite code I create\n        uint256 myInviteCode;\n        //The user I invited\n        EnumerableSet.AddressSet invites;\n        //The validated user\n        EnumerableSet.AddressSet validatedInvites;\n        //The validated user at stage 2\n        EnumerableSet.AddressSet validatedInvites2;\n    }\n\n    mapping(address => InviteInfo) internal inviteInfos;\n    mapping(uint256 => address) internal codeCreators;\n\n    uint256 internal randomSeed = 0;\n\n    constructor(address _erc721) public {\n        erc721 = ERC721(_erc721);\n    }\n\n    function setERC721(address _addr) external onlyOwner{\n        require(_addr.isContract(),\"This address is not contract!\");\n        erc721 = ERC721(_addr);\n    }\n\n    modifier checkCode(uint256 code) {\n        require(codeCreators[code] != address(0), \"Invalid invite code.\");\n        _;\n    }\n\n    function setValidContract(address _addr) external onlyOwner {\n        require(_addr.isContract(),\"This address is not contract!\");\n        validContract = _addr;\n    }\n\n    function setGenerateContract(address _addr) external onlyOwner {\n        require(_addr.isContract(),\"This address is not contract!\");\n        generateContract = _addr;\n    }\n\n    function setRatioUpdate(uint256 _ratio) external onlyOwner{\n        ratioUpdate = _ratio;\n    }\n\n    function setRatioUpdate2(uint256 _ratio) external onlyOwner{\n        ratioUpdate2 = _ratio;\n    }\n\n    function getInviteNum(address user) external view returns (uint256) {\n        return inviteInfos[user].invites.length();\n    }\n\n    function getMyInviteCode(address user) external view returns(uint256){\n        return inviteInfos[user].myInviteCode;\n    }\n\n    function calValidNum(address user)\n        external\n        override\n        view\n        returns (uint256)\n    {\n        return inviteInfos[user].validatedInvites.length();\n    }\n\n    function calValidNum2(address user)\n        external\n        override\n        view\n        returns (uint256)\n    {\n        return inviteInfos[user].validatedInvites2.length();\n    }\n    \n    function calRatioUpdate(address user) external override view returns(uint256){\n        uint256 total = this.calValidNum(user) * ratioUpdate;\n        uint256 total2 = this.calValidNum2(user) * ratioUpdate2;\n        total = total + total2;\n        if(total>=MAX_RATIO_UPDATE){\n            total = MAX_RATIO_UPDATE;\n        }\n        if(inviteInfos[user].validateInviter){\n            total += 10;\n        }\n        return total;\n    }\n\n    function getInputInviteCode(address user) external view returns(uint256){\n        return inviteInfos[user].inviteCode;\n    }\n\n    function checkValidated(address user) external view returns(bool){\n        return inviteInfos[user].validateInviter;\n    }\n\n    function validCode(address user) external override whenNotPaused {\n        require(\n            msg.sender == validContract,\n            \"Only validContract can call this method\"\n        );\n        address inviter = inviteInfos[user].inviter;\n        if (inviter != address(0)) {\n            inviteInfos[user].validateInviter = true;\n            if(erc721.totalSupply()<stage2Num){\n                inviteInfos[inviter].validatedInvites.add(user);\n            }else{\n                inviteInfos[inviter].validatedInvites2.add(user);\n            }\n            emit InviteValidate(user);\n        }\n    }\n\n    function generateCode(address user) external override whenNotPaused {\n        require(\n            msg.sender == generateContract,\n            \"Only generateContract can call this method\"\n        );\n        if (inviteInfos[user].myInviteCode == 0) {\n            randomSeed += 2;\n            //generate random number\n            //it is not that safe\n            uint256 random = uint256(\n                sha256(abi.encodePacked(now, randomSeed, user))\n            ) % 20;\n\n            uint256 code = lastCode + random;\n            lastCode = code;\n\n            inviteInfos[user].myInviteCode = code;\n\n            codeCreators[code] = user;\n            emit InviteCreated(user);\n        }\n    }\n\n    function inputCode(uint256 code) external whenNotPaused checkCode(code) {\n        require(\n            inviteInfos[msg.sender].inviter == address(0),\n            \"You have invite code already.\"\n        );\n\n        address creator = codeCreators[code];\n        require(creator != msg.sender, \"This is your invite code.\");\n        inviteInfos[msg.sender].inviter = creator;\n        inviteInfos[msg.sender].inviteCode = code;\n        inviteInfos[creator].invites.add(msg.sender);\n        emit InviteInput(msg.sender,code);\n    }\n\n    function pause() external onlyOwner {\n        _pause();\n    }\n\n    function unpause() external onlyOwner {\n        _unpause();\n    }\n}\n",
  "sourcePath": "/Users/junhu/git/hotpotcontract/truffle/contracts/invide/Invite.sol",
  "compiler": {
    "name": "solc",
    "version": "0.6.2+commit.bacdbe57.Emscripten.clang"
  },
  "schemaVersion": "3.3.0",
  "updatedAt": "2020-11-02T06:09:33.936Z",
  "networkType": "ethereum",
  "devdoc": {
    "methods": {
      "owner()": {
        "details": "Returns the address of the current owner."
      },
      "paused()": {
        "details": "Returns true if the contract is paused, and false otherwise."
      },
      "renounceOwnership()": {
        "details": "Leaves the contract without owner. It will not be possible to call `onlyOwner` functions anymore. Can only be called by the current owner.     * NOTE: Renouncing ownership will leave the contract without an owner, thereby removing any functionality that is only available to the owner."
      },
      "transferOwnership(address)": {
        "details": "Transfers ownership of the contract to a new account (`newOwner`). Can only be called by the current owner."
      }
    }
  },
  "userdoc": {
    "methods": {}
  }
}