{
  "contractName": "Invite",
  "abi": [
    {
      "inputs": [],
      "stateMutability": "nonpayable",
      "type": "constructor"
    },
    {
      "anonymous": false,
      "inputs": [
        {
          "indexed": true,
          "internalType": "address",
          "name": "inviter",
          "type": "address"
        },
        {
          "indexed": false,
          "internalType": "uint256",
          "name": "code",
          "type": "uint256"
        }
      ],
      "name": "InviteCodeGenerate",
      "type": "event"
    },
    {
      "anonymous": false,
      "inputs": [
        {
          "indexed": true,
          "internalType": "address",
          "name": "inviter",
          "type": "address"
        },
        {
          "indexed": true,
          "internalType": "address",
          "name": "invitee",
          "type": "address"
        }
      ],
      "name": "InviteUser",
      "type": "event"
    },
    {
      "anonymous": false,
      "inputs": [
        {
          "indexed": true,
          "internalType": "address",
          "name": "inviter",
          "type": "address"
        },
        {
          "indexed": true,
          "internalType": "address",
          "name": "invitee",
          "type": "address"
        }
      ],
      "name": "InviteValidate",
      "type": "event"
    },
    {
      "anonymous": false,
      "inputs": [
        {
          "indexed": true,
          "internalType": "address",
          "name": "previousOwner",
          "type": "address"
        },
        {
          "indexed": true,
          "internalType": "address",
          "name": "newOwner",
          "type": "address"
        }
      ],
      "name": "OwnershipTransferred",
      "type": "event"
    },
    {
      "anonymous": false,
      "inputs": [
        {
          "indexed": false,
          "internalType": "address",
          "name": "account",
          "type": "address"
        }
      ],
      "name": "Paused",
      "type": "event"
    },
    {
      "anonymous": false,
      "inputs": [
        {
          "indexed": false,
          "internalType": "address",
          "name": "account",
          "type": "address"
        }
      ],
      "name": "Unpaused",
      "type": "event"
    },
    {
      "inputs": [
        {
          "internalType": "uint256",
          "name": "",
          "type": "uint256"
        }
      ],
      "name": "codeCreators",
      "outputs": [
        {
          "internalType": "address",
          "name": "",
          "type": "address"
        }
      ],
      "stateMutability": "view",
      "type": "function",
      "constant": true
    },
    {
      "inputs": [],
      "name": "generateContract",
      "outputs": [
        {
          "internalType": "address",
          "name": "",
          "type": "address"
        }
      ],
      "stateMutability": "view",
      "type": "function",
      "constant": true
    },
    {
      "inputs": [],
      "name": "owner",
      "outputs": [
        {
          "internalType": "address",
          "name": "",
          "type": "address"
        }
      ],
      "stateMutability": "view",
      "type": "function",
      "constant": true
    },
    {
      "inputs": [],
      "name": "paused",
      "outputs": [
        {
          "internalType": "bool",
          "name": "",
          "type": "bool"
        }
      ],
      "stateMutability": "view",
      "type": "function",
      "constant": true
    },
    {
      "inputs": [],
      "name": "ratioUpdate",
      "outputs": [
        {
          "internalType": "uint256",
          "name": "",
          "type": "uint256"
        }
      ],
      "stateMutability": "view",
      "type": "function",
      "constant": true
    },
    {
      "inputs": [],
      "name": "renounceOwnership",
      "outputs": [],
      "stateMutability": "nonpayable",
      "type": "function"
    },
    {
      "inputs": [
        {
          "internalType": "address",
          "name": "newOwner",
          "type": "address"
        }
      ],
      "name": "transferOwnership",
      "outputs": [],
      "stateMutability": "nonpayable",
      "type": "function"
    },
    {
      "inputs": [],
      "name": "validContract",
      "outputs": [
        {
          "internalType": "address",
          "name": "",
          "type": "address"
        }
      ],
      "stateMutability": "view",
      "type": "function",
      "constant": true
    },
    {
      "inputs": [
        {
          "internalType": "address",
          "name": "_addr",
          "type": "address"
        }
      ],
      "name": "setValidContract",
      "outputs": [],
      "stateMutability": "nonpayable",
      "type": "function"
    },
    {
      "inputs": [
        {
          "internalType": "address",
          "name": "_addr",
          "type": "address"
        }
      ],
      "name": "setGenerateContract",
      "outputs": [],
      "stateMutability": "nonpayable",
      "type": "function"
    },
    {
      "inputs": [
        {
          "internalType": "uint256",
          "name": "_ratio",
          "type": "uint256"
        }
      ],
      "name": "setRatioUpdate",
      "outputs": [],
      "stateMutability": "nonpayable",
      "type": "function"
    },
    {
      "inputs": [
        {
          "internalType": "address",
          "name": "user",
          "type": "address"
        }
      ],
      "name": "getInviteNum",
      "outputs": [
        {
          "internalType": "uint256",
          "name": "",
          "type": "uint256"
        }
      ],
      "stateMutability": "view",
      "type": "function",
      "constant": true
    },
    {
      "inputs": [
        {
          "internalType": "address",
          "name": "user",
          "type": "address"
        }
      ],
      "name": "getInviteCode",
      "outputs": [
        {
          "internalType": "uint256",
          "name": "",
          "type": "uint256"
        }
      ],
      "stateMutability": "view",
      "type": "function",
      "constant": true
    },
    {
      "inputs": [
        {
          "internalType": "address",
          "name": "user",
          "type": "address"
        }
      ],
      "name": "calValidNum",
      "outputs": [
        {
          "internalType": "uint256",
          "name": "",
          "type": "uint256"
        }
      ],
      "stateMutability": "view",
      "type": "function",
      "constant": true
    },
    {
      "inputs": [
        {
          "internalType": "address",
          "name": "user",
          "type": "address"
        }
      ],
      "name": "calRatioUpdate",
      "outputs": [
        {
          "internalType": "uint256",
          "name": "",
          "type": "uint256"
        }
      ],
      "stateMutability": "view",
      "type": "function",
      "constant": true
    },
    {
      "inputs": [
        {
          "internalType": "address",
          "name": "user",
          "type": "address"
        }
      ],
      "name": "validCode",
      "outputs": [],
      "stateMutability": "nonpayable",
      "type": "function"
    },
    {
      "inputs": [
        {
          "internalType": "address",
          "name": "user",
          "type": "address"
        }
      ],
      "name": "generateCode",
      "outputs": [],
      "stateMutability": "nonpayable",
      "type": "function"
    },
    {
      "inputs": [
        {
          "internalType": "uint256",
          "name": "code",
          "type": "uint256"
        }
      ],
      "name": "inputCode",
      "outputs": [],
      "stateMutability": "nonpayable",
      "type": "function"
    },
    {
      "inputs": [],
      "name": "pause",
      "outputs": [],
      "stateMutability": "nonpayable",
      "type": "function"
    },
    {
      "inputs": [],
      "name": "unpause",
      "outputs": [],
      "stateMutability": "nonpayable",
      "type": "function"
    }
  ],
  "bytecode": "0x60806040526103e86003556005600455600060075534801561002057600080fd5b5060006100346001600160e01b0361009016565b600080546001600160a01b0319166001600160a01b0383169081178255604051929350917f8be0079c531659141344cd1fd0a4f28419497f9722a3daafe3b4186f6b6457e0908290a3506000805460ff60a01b19169055610094565b3390565b6113bc806100a36000396000f3fe608060405234801561001057600080fd5b506004361061016c5760003560e01c80639bd86c34116100cd578063e400423511610081578063f6366f6311610066578063f6366f6314610339578063fa08f2a91461035f578063fb6fe0fd1461037c5761016c565b8063e4004235146102ed578063f2fde38b146103135761016c565b8063a9a727e7116100b2578063a9a727e7146102b7578063b96a1f8b146102bf578063e305d072146102e55761016c565b80639bd86c3414610274578063a727d8ef1461029a5761016c565b806382ddc99011610124578063849a07aa11610109578063849a07aa1461022b5780638da5cb5b1461026457806398d685781461026c5761016c565b806382ddc990146101eb5780638456cb59146102235761016c565b80633f4ba83a116101555780633f4ba83a146101bf5780635c975abb146101c7578063715018a6146101e35761016c565b80630b962865146101715780631299a2e214610199575b600080fd5b6101976004803603602081101561018757600080fd5b50356001600160a01b03166103a2565b005b610197600480360360208110156101af57600080fd5b50356001600160a01b03166104a9565b61019761074d565b6101cf6107c1565b604080519115158252519081900360200190f35b6101976107e2565b6102116004803603602081101561020157600080fd5b50356001600160a01b03166108ae565b60408051918252519081900360200190f35b6101976108d8565b6102486004803603602081101561024157600080fd5b503561094a565b604080516001600160a01b039092168252519081900360200190f35b610248610965565b610211610974565b6102116004803603602081101561028a57600080fd5b50356001600160a01b031661097a565b610197600480360360208110156102b057600080fd5b5035610998565b610248610bde565b610211600480360360208110156102d557600080fd5b50356001600160a01b0316610bed565b610248610cad565b6101976004803603602081101561030357600080fd5b50356001600160a01b0316610cbc565b6101976004803603602081101561032957600080fd5b50356001600160a01b0316610e07565b6101976004803603602081101561034f57600080fd5b50356001600160a01b0316610f29565b6101976004803603602081101561037557600080fd5b5035611030565b6102116004803603602081101561039257600080fd5b50356001600160a01b031661109f565b6103aa6110c3565b6000546001600160a01b0390811691161461040c576040805162461bcd60e51b815260206004820181905260248201527f4f776e61626c653a2063616c6c6572206973206e6f7420746865206f776e6572604482015290519081900360640190fd5b61041e816001600160a01b03166110c7565b61046f576040805162461bcd60e51b815260206004820152601d60248201527f546869732061646472657373206973206e6f7420636f6e747261637421000000604482015290519081900360640190fd5b600180547fffffffffffffffffffffffff0000000000000000000000000000000000000000166001600160a01b0392909216919091179055565b60005474010000000000000000000000000000000000000000900460ff1615610519576040805162461bcd60e51b815260206004820152601060248201527f5061757361626c653a2070617573656400000000000000000000000000000000604482015290519081900360640190fd5b6001546001600160a01b031633146105625760405162461bcd60e51b815260040180806020018281038252602a81526020018061135d602a913960400191505060405180910390fd5b6001600160a01b03811660009081526005602052604090206001015461074a5760078054600290810191829055604080514260208083019190915281830194909452606085811b7fffffffffffffffffffffffffffffffffffffffff0000000000000000000000001690820152815180820360540181526074909101918290528051600094601494939182918401908083835b6020831061063257805182527fffffffffffffffffffffffffffffffffffffffffffffffffffffffffffffffe090920191602091820191016105f5565b51815160209384036101000a7fffffffffffffffffffffffffffffffffffffffffffffffffffffffffffffffff01801990921691161790526040519190930194509192505080830381855afa15801561068f573d6000803e3d6000fd5b5050506040513d60208110156106a457600080fd5b5051816106ad57fe5b6003805492909106918201908190556001600160a01b0384166000818152600560209081526040808320600101859055848352600682529182902080547fffffffffffffffffffffffff0000000000000000000000000000000000000000168417905581518481529151949550929391927f6a04d48959bfb6e730e8196d9c31134aa246e8ca6c795aee593a571076e6f47792918290030190a250505b50565b6107556110c3565b6000546001600160a01b039081169116146107b7576040805162461bcd60e51b815260206004820181905260248201527f4f776e61626c653a2063616c6c6572206973206e6f7420746865206f776e6572604482015290519081900360640190fd5b6107bf6110cd565b565b60005474010000000000000000000000000000000000000000900460ff1690565b6107ea6110c3565b6000546001600160a01b0390811691161461084c576040805162461bcd60e51b815260206004820181905260248201527f4f776e61626c653a2063616c6c6572206973206e6f7420746865206f776e6572604482015290519081900360640190fd5b600080546040516001600160a01b03909116907f8be0079c531659141344cd1fd0a4f28419497f9722a3daafe3b4186f6b6457e0908390a3600080547fffffffffffffffffffffffff0000000000000000000000000000000000000000169055565b6001600160a01b03811660009081526005602052604081206108d2906002016111aa565b92915050565b6108e06110c3565b6000546001600160a01b03908116911614610942576040805162461bcd60e51b815260206004820181905260248201527f4f776e61626c653a2063616c6c6572206973206e6f7420746865206f776e6572604482015290519081900360640190fd5b6107bf6111b5565b6006602052600090815260409020546001600160a01b031681565b6000546001600160a01b031690565b60045481565b6001600160a01b031660009081526005602052604090206001015490565b60005474010000000000000000000000000000000000000000900460ff1615610a08576040805162461bcd60e51b815260206004820152601060248201527f5061757361626c653a2070617573656400000000000000000000000000000000604482015290519081900360640190fd5b60008181526006602052604090205481906001600160a01b0316610a73576040805162461bcd60e51b815260206004820152601460248201527f496e76616c696420696e7669746520636f64652e000000000000000000000000604482015290519081900360640190fd5b336000908152600560205260409020546001600160a01b031615610ade576040805162461bcd60e51b815260206004820152601d60248201527f596f75206861766520696e7669746520636f646520616c72656164792e000000604482015290519081900360640190fd5b6000828152600660205260409020546001600160a01b031633811415610b4b576040805162461bcd60e51b815260206004820152601960248201527f5468697320697320796f757220696e7669746520636f64652e00000000000000604482015290519081900360640190fd5b3360008181526005602052604080822080547fffffffffffffffffffffffff0000000000000000000000000000000000000000166001600160a01b03861690811790915582529020610ba29160029091019061128d565b5060405133906001600160a01b038316907fa3b893e8761e2f5bdc90c3e9570a65ac9dccb6cdc7db4250e649631e1742e44c90600090a3505050565b6002546001600160a01b031681565b600080600454306001600160a01b031663fb6fe0fd856040518263ffffffff1660e01b815260040180826001600160a01b03166001600160a01b0316815260200191505060206040518083038186803b158015610c4957600080fd5b505afa158015610c5d573d6000803e3d6000fd5b505050506040513d6020811015610c7357600080fd5b505102905060648110610c84575060645b6001600160a01b0383811660009081526005602052604090205416156108d257600a0192915050565b6001546001600160a01b031681565b60005474010000000000000000000000000000000000000000900460ff1615610d2c576040805162461bcd60e51b815260206004820152601060248201527f5061757361626c653a2070617573656400000000000000000000000000000000604482015290519081900360640190fd5b6002546001600160a01b03163314610d755760405162461bcd60e51b81526004018080602001828103825260278152602001806113106027913960400191505060405180910390fd5b6001600160a01b03808216600090815260056020526040902054168015610e03576001600160a01b0381166000908152600560205260409020610dc1906004018363ffffffff61128d16565b50816001600160a01b0316816001600160a01b03167fccf09a22dfdb94e1856d495f2b94352952f6519459560fe2d7e91f8a05c5e22160405160405180910390a35b5050565b610e0f6110c3565b6000546001600160a01b03908116911614610e71576040805162461bcd60e51b815260206004820181905260248201527f4f776e61626c653a2063616c6c6572206973206e6f7420746865206f776e6572604482015290519081900360640190fd5b6001600160a01b038116610eb65760405162461bcd60e51b81526004018080602001828103825260268152602001806113376026913960400191505060405180910390fd5b600080546040516001600160a01b03808516939216917f8be0079c531659141344cd1fd0a4f28419497f9722a3daafe3b4186f6b6457e091a3600080547fffffffffffffffffffffffff0000000000000000000000000000000000000000166001600160a01b0392909216919091179055565b610f316110c3565b6000546001600160a01b03908116911614610f93576040805162461bcd60e51b815260206004820181905260248201527f4f776e61626c653a2063616c6c6572206973206e6f7420746865206f776e6572604482015290519081900360640190fd5b610fa5816001600160a01b03166110c7565b610ff6576040805162461bcd60e51b815260206004820152601d60248201527f546869732061646472657373206973206e6f7420636f6e747261637421000000604482015290519081900360640190fd5b600280547fffffffffffffffffffffffff0000000000000000000000000000000000000000166001600160a01b0392909216919091179055565b6110386110c3565b6000546001600160a01b0390811691161461109a576040805162461bcd60e51b815260206004820181905260248201527f4f776e61626c653a2063616c6c6572206973206e6f7420746865206f776e6572604482015290519081900360640190fd5b600455565b6001600160a01b03811660009081526005602052604081206108d2906004016111aa565b3390565b3b151590565b60005474010000000000000000000000000000000000000000900460ff1661113c576040805162461bcd60e51b815260206004820152601460248201527f5061757361626c653a206e6f7420706175736564000000000000000000000000604482015290519081900360640190fd5b600080547fffffffffffffffffffffff00ffffffffffffffffffffffffffffffffffffffff1690557f5db9ee0a495bf2e6ff9c91a7834c1ba4fdd244a5e8aa4e537bd38aeae4b073aa61118d6110c3565b604080516001600160a01b039092168252519081900360200190a1565b60006108d2826112a9565b60005474010000000000000000000000000000000000000000900460ff1615611225576040805162461bcd60e51b815260206004820152601060248201527f5061757361626c653a2070617573656400000000000000000000000000000000604482015290519081900360640190fd5b600080547fffffffffffffffffffffff00ffffffffffffffffffffffffffffffffffffffff16740100000000000000000000000000000000000000001790557f62e78cea01bee320cd4e420270b5ea74000d11b0c9f74754ebdbfc544b05a25861118d6110c3565b60006112a2836001600160a01b0384166112ad565b9392505050565b5490565b60006112b983836112f7565b6112ef575081546001818101845560008481526020808220909301849055845484825282860190935260409020919091556108d2565b5060006108d2565b6000908152600191909101602052604090205415159056fe4f6e6c792076616c6964436f6e74726163742063616e2063616c6c2074686973206d6574686f644f776e61626c653a206e6577206f776e657220697320746865207a65726f20616464726573734f6e6c792067656e6572617465436f6e74726163742063616e2063616c6c2074686973206d6574686f64a2646970667358221220ae0a6198f7ebb297750da67bb3e32cc2e6f4f4dca15cc37a1faadd6837102bc364736f6c63430006020033",
  "source": "pragma solidity ^0.6.0;\n\nimport \"@openzeppelin/contracts/math/SafeMath.sol\";\nimport \"@openzeppelin/contracts/token/ERC20/IERC20.sol\";\nimport \"@openzeppelin/contracts/token/ERC20/SafeERC20.sol\";\nimport \"@openzeppelin/contracts/utils/EnumerableSet.sol\";\nimport \"@openzeppelin/contracts/token/ERC721/ERC721.sol\";\nimport \"@openzeppelin/contracts/token/ERC721/IERC721Receiver.sol\";\nimport \"@openzeppelin/contracts/access/Ownable.sol\";\nimport \"@openzeppelin/contracts/utils/Strings.sol\";\nimport \"@openzeppelin/contracts/utils/Address.sol\";\nimport \"../common/hotpotinterface.sol\";\nimport \"../common/ILoan.sol\";\nimport \"../common/IInvite.sol\";\nimport \"@openzeppelin/contracts/utils/Pausable.sol\";\n\n//1. generateCode()\n//2. inputCode()\n//3. calValidCode()\n//4. validCode()\n//5.\ncontract Invite is Ownable, IInvite, Pausable {\n    using Address for address;\n    using EnumerableSet for EnumerableSet.AddressSet;\n\n    address public generateContract;\n    address public validContract;\n    uint256 internal lastCode = 1000;\n\n    //100 = 10%\n    uint256 constant MAX_RATIO_UPDATE = 100;\n\n    //5\n    uint256 public ratioUpdate = 5;\n\n    event InviteCodeGenerate(address indexed inviter,uint256 code);\n    event InviteUser(address indexed inviter,address indexed invitee);\n    event InviteValidate(address indexed inviter,address indexed invitee);\n\n    struct InviteInfo {\n        //The user who invites me\n        address inviter;\n        //The invite code I create\n        uint256 myInviteCode;\n        //The user I invited\n        EnumerableSet.AddressSet invites;\n        //The validated user\n        EnumerableSet.AddressSet validatedInvites;\n    }\n\n    mapping(address => InviteInfo) internal inviteInfos;\n    mapping(uint256 => address) public codeCreators;\n\n    uint256 internal randomSeed = 0;\n\n    constructor() public {\n\n    }\n\n    modifier checkCode(uint256 code) {\n        require(codeCreators[code] != address(0), \"Invalid invite code.\");\n        _;\n    }\n\n    function setValidContract(address _addr) external onlyOwner {\n        require(_addr.isContract(),\"This address is not contract!\");\n        validContract = _addr;\n    }\n\n    function setGenerateContract(address _addr) external onlyOwner {\n        require(_addr.isContract(),\"This address is not contract!\");\n        generateContract = _addr;\n    }\n\n    function setRatioUpdate(uint256 _ratio) external onlyOwner{\n        ratioUpdate = _ratio;\n    }\n\n    function getInviteNum(address user) external view returns (uint256) {\n        return inviteInfos[user].invites.length();\n    }\n\n    function getInviteCode(address user) external view returns(uint256){\n        return inviteInfos[user].myInviteCode;\n    }\n\n    function calValidNum(address user)\n        external\n        override\n        view\n        returns (uint256)\n    {\n        return inviteInfos[user].validatedInvites.length();\n    }\n    \n    function calRatioUpdate(address user) external override view returns(uint256){\n        uint256 total = this.calValidNum(user) * ratioUpdate;\n        if(total>=MAX_RATIO_UPDATE){\n            total = MAX_RATIO_UPDATE;\n        }\n        if(inviteInfos[user].inviter!=address(0)){\n            total += 10;\n        }\n        return total;\n    }\n\n    function validCode(address user) external override whenNotPaused {\n        require(\n            msg.sender == validContract,\n            \"Only validContract can call this method\"\n        );\n        address inviter = inviteInfos[user].inviter;\n        if (inviter != address(0)) {\n            inviteInfos[inviter].validatedInvites.add(user);\n            emit InviteValidate(inviter,user);\n        }\n    }\n\n    function generateCode(address user) external override whenNotPaused {\n        require(\n            msg.sender == generateContract,\n            \"Only generateContract can call this method\"\n        );\n        if (inviteInfos[user].myInviteCode == 0) {\n            randomSeed += 2;\n            //generate random number\n            //it is not that safe\n            uint256 random = uint256(\n                sha256(abi.encodePacked(now, randomSeed, user))\n            ) % 20;\n\n            uint256 code = lastCode + random;\n            lastCode = code;\n\n            inviteInfos[user].myInviteCode = code;\n\n            codeCreators[code] = user;\n            emit InviteCodeGenerate(user,code);\n        }\n    }\n\n    function inputCode(uint256 code) external whenNotPaused checkCode(code) {\n        require(\n            inviteInfos[msg.sender].inviter == address(0),\n            \"You have invite code already.\"\n        );\n\n        address creator = codeCreators[code];\n        require(creator != msg.sender, \"This is your invite code.\");\n        inviteInfos[msg.sender].inviter = creator;\n        inviteInfos[creator].invites.add(msg.sender);\n        emit InviteUser(creator,msg.sender);\n    }\n\n    function pause() external onlyOwner {\n        _pause();\n    }\n\n    function unpause() external onlyOwner {\n        _unpause();\n    }\n}\n",
  "sourcePath": "/Users/junhu/git/hotpotcontract/truffle/contracts/invide/Invite.sol",
  "compiler": {
    "name": "solc",
    "version": "0.6.2+commit.bacdbe57.Emscripten.clang"
  },
  "schemaVersion": "3.3.0",
  "updatedAt": "2020-10-29T06:34:34.015Z",
  "networkType": "ethereum",
  "devdoc": {
    "methods": {
      "owner()": {
        "details": "Returns the address of the current owner."
      },
      "paused()": {
        "details": "Returns true if the contract is paused, and false otherwise."
      },
      "renounceOwnership()": {
        "details": "Leaves the contract without owner. It will not be possible to call `onlyOwner` functions anymore. Can only be called by the current owner.     * NOTE: Renouncing ownership will leave the contract without an owner, thereby removing any functionality that is only available to the owner."
      },
      "transferOwnership(address)": {
        "details": "Transfers ownership of the contract to a new account (`newOwner`). Can only be called by the current owner."
      }
    }
  },
  "userdoc": {
    "methods": {}
  }
}