{
  "contractName": "Loan",
  "abi": [
    {
      "inputs": [
        {
          "internalType": "address",
          "name": "_erc721",
          "type": "address"
        },
        {
          "internalType": "address",
          "name": "_erc20",
          "type": "address"
        }
      ],
      "stateMutability": "nonpayable",
      "type": "constructor"
    },
    {
      "anonymous": false,
      "inputs": [
        {
          "indexed": true,
          "internalType": "address",
          "name": "previousOwner",
          "type": "address"
        },
        {
          "indexed": true,
          "internalType": "address",
          "name": "newOwner",
          "type": "address"
        }
      ],
      "name": "OwnershipTransferred",
      "type": "event"
    },
    {
      "anonymous": false,
      "inputs": [
        {
          "indexed": true,
          "internalType": "address",
          "name": "borrower",
          "type": "address"
        },
        {
          "indexed": true,
          "internalType": "uint256",
          "name": "tokenId",
          "type": "uint256"
        },
        {
          "indexed": true,
          "internalType": "uint256",
          "name": "start",
          "type": "uint256"
        },
        {
          "indexed": false,
          "internalType": "uint256",
          "name": "borrowDays",
          "type": "uint256"
        },
        {
          "indexed": false,
          "internalType": "uint256",
          "name": "pricePerDay",
          "type": "uint256"
        }
      ],
      "name": "TokenBorrowed",
      "type": "event"
    },
    {
      "anonymous": false,
      "inputs": [
        {
          "indexed": true,
          "internalType": "address",
          "name": "owner",
          "type": "address"
        },
        {
          "indexed": true,
          "internalType": "uint256",
          "name": "tokenId",
          "type": "uint256"
        },
        {
          "indexed": true,
          "internalType": "uint256",
          "name": "cancleTime",
          "type": "uint256"
        }
      ],
      "name": "TokenCancelDeposit",
      "type": "event"
    },
    {
      "anonymous": false,
      "inputs": [
        {
          "indexed": true,
          "internalType": "address",
          "name": "owner",
          "type": "address"
        },
        {
          "indexed": true,
          "internalType": "uint256",
          "name": "tokenId",
          "type": "uint256"
        },
        {
          "indexed": true,
          "internalType": "uint256",
          "name": "start",
          "type": "uint256"
        },
        {
          "indexed": false,
          "internalType": "uint256",
          "name": "depositDays",
          "type": "uint256"
        },
        {
          "indexed": false,
          "internalType": "uint256",
          "name": "pricePerDay",
          "type": "uint256"
        }
      ],
      "name": "TokenDeposit",
      "type": "event"
    },
    {
      "inputs": [],
      "name": "devAddress",
      "outputs": [
        {
          "internalType": "address",
          "name": "",
          "type": "address"
        }
      ],
      "stateMutability": "view",
      "type": "function"
    },
    {
      "inputs": [],
      "name": "devRatio",
      "outputs": [
        {
          "internalType": "uint256",
          "name": "",
          "type": "uint256"
        }
      ],
      "stateMutability": "view",
      "type": "function"
    },
    {
      "inputs": [],
      "name": "erc20",
      "outputs": [
        {
          "internalType": "contract IERC20",
          "name": "",
          "type": "address"
        }
      ],
      "stateMutability": "view",
      "type": "function"
    },
    {
      "inputs": [],
      "name": "erc721",
      "outputs": [
        {
          "internalType": "contract IERC721",
          "name": "",
          "type": "address"
        }
      ],
      "stateMutability": "view",
      "type": "function"
    },
    {
      "inputs": [],
      "name": "ihotpot",
      "outputs": [
        {
          "internalType": "contract IHotPot",
          "name": "",
          "type": "address"
        }
      ],
      "stateMutability": "view",
      "type": "function"
    },
    {
      "inputs": [],
      "name": "maxLoanDay",
      "outputs": [
        {
          "internalType": "uint256",
          "name": "",
          "type": "uint256"
        }
      ],
      "stateMutability": "view",
      "type": "function"
    },
    {
      "inputs": [],
      "name": "owner",
      "outputs": [
        {
          "internalType": "address",
          "name": "",
          "type": "address"
        }
      ],
      "stateMutability": "view",
      "type": "function"
    },
    {
      "inputs": [],
      "name": "renounceOwnership",
      "outputs": [],
      "stateMutability": "nonpayable",
      "type": "function"
    },
    {
      "inputs": [
        {
          "internalType": "uint256",
          "name": "",
          "type": "uint256"
        }
      ],
      "name": "reservations",
      "outputs": [
        {
          "internalType": "uint256",
          "name": "tokenId",
          "type": "uint256"
        },
        {
          "internalType": "address",
          "name": "borrower",
          "type": "address"
        },
        {
          "internalType": "uint256",
          "name": "borrowEndTime",
          "type": "uint256"
        },
        {
          "internalType": "uint256",
          "name": "pricePerDay",
          "type": "uint256"
        },
        {
          "internalType": "uint256",
          "name": "start",
          "type": "uint256"
        },
        {
          "internalType": "uint256",
          "name": "times",
          "type": "uint256"
        }
      ],
      "stateMutability": "view",
      "type": "function"
    },
    {
      "inputs": [],
      "name": "rewardAddress",
      "outputs": [
        {
          "internalType": "address",
          "name": "",
          "type": "address"
        }
      ],
      "stateMutability": "view",
      "type": "function"
    },
    {
      "inputs": [],
      "name": "rewardRatio",
      "outputs": [
        {
          "internalType": "uint256",
          "name": "",
          "type": "uint256"
        }
      ],
      "stateMutability": "view",
      "type": "function"
    },
    {
      "inputs": [],
      "name": "thresholdTime",
      "outputs": [
        {
          "internalType": "uint256",
          "name": "",
          "type": "uint256"
        }
      ],
      "stateMutability": "view",
      "type": "function"
    },
    {
      "inputs": [
        {
          "internalType": "address",
          "name": "newOwner",
          "type": "address"
        }
      ],
      "name": "transferOwnership",
      "outputs": [],
      "stateMutability": "nonpayable",
      "type": "function"
    },
    {
      "inputs": [
        {
          "internalType": "address",
          "name": "_dev",
          "type": "address"
        }
      ],
      "name": "setDevAddress",
      "outputs": [],
      "stateMutability": "nonpayable",
      "type": "function"
    },
    {
      "inputs": [
        {
          "internalType": "address",
          "name": "_addr",
          "type": "address"
        }
      ],
      "name": "setRewardAddress",
      "outputs": [],
      "stateMutability": "nonpayable",
      "type": "function"
    },
    {
      "inputs": [
        {
          "internalType": "uint256",
          "name": "_ratio",
          "type": "uint256"
        }
      ],
      "name": "setRewardRatio",
      "outputs": [],
      "stateMutability": "nonpayable",
      "type": "function"
    },
    {
      "inputs": [
        {
          "internalType": "uint256",
          "name": "_ratio",
          "type": "uint256"
        }
      ],
      "name": "setDevRatio",
      "outputs": [],
      "stateMutability": "nonpayable",
      "type": "function"
    },
    {
      "inputs": [
        {
          "internalType": "address",
          "name": "_user",
          "type": "address"
        },
        {
          "internalType": "uint256",
          "name": "_tokenId",
          "type": "uint256"
        },
        {
          "internalType": "uint256",
          "name": "_time",
          "type": "uint256"
        }
      ],
      "name": "checkPrivilege",
      "outputs": [
        {
          "internalType": "bool",
          "name": "",
          "type": "bool"
        }
      ],
      "stateMutability": "view",
      "type": "function"
    },
    {
      "inputs": [
        {
          "internalType": "uint256",
          "name": "_tokenId",
          "type": "uint256"
        },
        {
          "internalType": "uint256",
          "name": "_time",
          "type": "uint256"
        }
      ],
      "name": "checkCanSell",
      "outputs": [
        {
          "internalType": "bool",
          "name": "",
          "type": "bool"
        }
      ],
      "stateMutability": "view",
      "type": "function"
    },
    {
      "inputs": [
        {
          "internalType": "uint256",
          "name": "_tokenId",
          "type": "uint256"
        }
      ],
      "name": "cancelDeposit",
      "outputs": [],
      "stateMutability": "nonpayable",
      "type": "function"
    },
    {
      "inputs": [],
      "name": "getLoanSize",
      "outputs": [
        {
          "internalType": "uint256",
          "name": "",
          "type": "uint256"
        }
      ],
      "stateMutability": "view",
      "type": "function"
    },
    {
      "inputs": [],
      "name": "getLoanList",
      "outputs": [
        {
          "internalType": "uint256[]",
          "name": "",
          "type": "uint256[]"
        }
      ],
      "stateMutability": "view",
      "type": "function"
    },
    {
      "inputs": [
        {
          "internalType": "uint256",
          "name": "_tokenId",
          "type": "uint256"
        },
        {
          "internalType": "uint256",
          "name": "_days",
          "type": "uint256"
        },
        {
          "internalType": "uint256",
          "name": "_pricePerDay",
          "type": "uint256"
        }
      ],
      "name": "deposit",
      "outputs": [],
      "stateMutability": "nonpayable",
      "type": "function"
    },
    {
      "inputs": [],
      "name": "getBlockTime",
      "outputs": [
        {
          "internalType": "uint256",
          "name": "",
          "type": "uint256"
        }
      ],
      "stateMutability": "view",
      "type": "function"
    },
    {
      "inputs": [
        {
          "internalType": "uint256",
          "name": "_tokenId",
          "type": "uint256"
        },
        {
          "internalType": "uint256",
          "name": "_days",
          "type": "uint256"
        }
      ],
      "name": "borrow",
      "outputs": [],
      "stateMutability": "nonpayable",
      "type": "function"
    }
  ],
  "bytecode": "0x608060405260026006556004600755610708600b5561016d600c553480156200002757600080fd5b506040516200280e3803806200280e833981810160405260408110156200004d57600080fd5b50805160209091015160006200006b6001600160e01b03620001db16565b600080546001600160a01b0319166001600160a01b0383169081178255604051929350917f8be0079c531659141344cd1fd0a4f28419497f9722a3daafe3b4186f6b6457e0908290a350620000d4826001600160a01b0316620001df60201b6200249b1760201c565b62000126576040805162461bcd60e51b815260206004820152601f60248201527f4552433732312061646472657373206973206e6f7420636f6e74726163742100604482015290519081900360640190fd5b62000145816001600160a01b0316620001df60201b6200249b1760201c565b62000197576040805162461bcd60e51b815260206004820152601a60248201527f4552433230206164647265737320697320636f6e747261637421000000000000604482015290519081900360640190fd5b600180546001600160a01b039384166001600160a01b03199182168117909255600280549390941692811692909217909255600380549091169091179055620001e5565b3390565b3b151590565b61261980620001f56000396000f3fe608060405234801561001057600080fd5b50600436106101a25760003560e01c806372fada5c116100ee5780639930f87611610097578063bca6ce6411610071578063bca6ce6414610411578063c1a816ce14610419578063d0d41fe114610421578063f2fde38b14610447576101a2565b80639930f876146103cf578063a943600d146103d7578063ad1848df146103f4576101a2565b806387ceff09116100c857806387ceff09146103b75780638cf57cb9146103bf5780638da5cb5b146103c7576101a2565b806372fada5c1461038a578063785e9e86146103a757806386615668146103af576101a2565b8063300730bd116101505780635e00e6791161012a5780635e00e67914610354578063646033bc1461037a578063715018a614610382576101a2565b8063300730bd146102c25780633130c3ae1461031a5780633ad10ef61461034c576101a2565b806311102d4d1161018157806311102d4d1461024d57806315b1c382146102675780632cbac7a81461029e576101a2565b8062aeef8a146101a7578063067cf832146101d25780630ecbcdab1461022a575b600080fd5b6101d0600480360360608110156101bd57600080fd5b508035906020810135906040013561046d565b005b6101ef600480360360208110156101e857600080fd5b5035610919565b604080519687526001600160a01b039095166020870152858501939093526060850191909152608084015260a0830152519081900360c00190f35b6101d06004803603604081101561024057600080fd5b5080359060200135610958565b610255611017565b60408051918252519081900360200190f35b61028a6004803603604081101561027d57600080fd5b508035906020013561101d565b604080519115158252519081900360200190f35b6102a661119e565b604080516001600160a01b039092168252519081900360200190f35b6102ca6111ad565b60408051602080825283518183015283519192839290830191858101910280838360005b838110156103065781810151838201526020016102ee565b505050509050019250505060405180910390f35b61028a6004803603606081101561033057600080fd5b506001600160a01b03813516906020810135906040013561122e565b6102a66114f6565b6101d06004803603602081101561036a57600080fd5b50356001600160a01b0316611505565b610255611604565b6101d061160a565b6101d0600480360360208110156103a057600080fd5b50356116d6565b6102a6611a18565b610255611a27565b610255611a2d565b6102a6611a31565b6102a6611a40565b610255611a4f565b6101d0600480360360208110156103ed57600080fd5b5035611a55565b6101d06004803603602081101561040a57600080fd5b5035611b03565b6102a6611bb1565b610255611bc0565b6101d06004803603602081101561043757600080fd5b50356001600160a01b0316611bd1565b6101d06004803603602081101561045d57600080fd5b50356001600160a01b0316611cd0565b600154604080516331a9108f60e11b815260048101869052905185926000926001600160a01b0390911691636352211e91602480820192602092909190829003018186803b1580156104be57600080fd5b505afa1580156104d2573d6000803e3d6000fd5b505050506040513d60208110156104e857600080fd5b50516001600160a01b03161415610546576040805162461bcd60e51b815260206004820152601660248201527f4974206973206e6f742061204e465420746f6b656e2100000000000000000000604482015290519081900360640190fd5b600c5483111561059d576040805162461bcd60e51b815260206004820152601e60248201527f546865206d6178206c6f616e2074696d65206973203336352064617973210000604482015290519081900360640190fd5b600083116105f2576040805162461bcd60e51b815260206004820152601760248201527f43616e206e6f74206c6f616e20666f7220302064617921000000000000000000604482015290519081900360640190fd5b6105fa6124a1565b50600084815260086020908152604091829020825160c0810184528154815260018201546001600160a01b0316928101929092526002810154928201929092526003820154606082015260048201546080820181905260059092015460a082015290156106c65760a08101516080820151426201518090920201106106c6576040805162461bcd60e51b815260206004820152601d60248201527f5468697320746f6b656e20697320696e207265736572766174696f6e21000000604482015290519081900360640190fd5b600154604080516331a9108f60e11b815260048101889052905133926001600160a01b031691636352211e916024808301926020929190829003018186803b15801561071157600080fd5b505afa158015610725573d6000803e3d6000fd5b505050506040513d602081101561073b57600080fd5b50516001600160a01b0316146107825760405162461bcd60e51b81526004018080602001828103825260248152602001806125296024913960400191505060405180910390fd5b600354604080517f5840e65900000000000000000000000000000000000000000000000000000000815260048101889052905142926001600160a01b031691635840e659916024808301926020929190829003018186803b1580156107e657600080fd5b505afa1580156107fa573d6000803e3d6000fd5b505050506040513d602081101561081057600080fd5b5051620151800110610869576040805162461bcd60e51b815260206004820152601f60248201527f54686973206d656d6265722063617264206973207573656420746f6461792100604482015290519081900360640190fd5b60008581526008602052604081208681554260048201556005810186905560028101919091556001810180547fffffffffffffffffffffffff00000000000000000000000000000000000000001690556003018390556108d060098663ffffffff611df216565b50604080518581526020810185905281514292889233927f0cc4e403e8909e2f133bbdf8120cd4ee94c82bd60c8bf7ccd55532643780dd2d929181900390910190a45050505050565b60086020526000908152604090208054600182015460028301546003840154600485015460059095015493946001600160a01b03909316939192909186565b600154604080516331a9108f60e11b815260048101859052905184926000926001600160a01b0390911691636352211e91602480820192602092909190829003018186803b1580156109a957600080fd5b505afa1580156109bd573d6000803e3d6000fd5b505050506040513d60208110156109d357600080fd5b50516001600160a01b03161415610a31576040805162461bcd60e51b815260206004820152601660248201527f4974206973206e6f742061204e465420746f6b656e2100000000000000000000604482015290519081900360640190fd5b600c548210610a87576040805162461bcd60e51b815260206004820152601e60248201527f546865206d6178206c6f616e2074696d65206973203336352064617973210000604482015290519081900360640190fd5b610a8f6124a1565b50600083815260086020908152604091829020825160c0810184528154815260018201546001600160a01b0316928101929092526002810154928201929092526003820154606082015260048201546080820181905260059092015460a082015290610b42576040805162461bcd60e51b815260206004820152601f60248201527f5468697320746f6b656e2063616e206e6f7420626520626f72726f7765642100604482015290519081900360640190fd5b600154604080516331a9108f60e11b815260048101879052905133926001600160a01b031691636352211e916024808301926020929190829003018186803b158015610b8d57600080fd5b505afa158015610ba1573d6000803e3d6000fd5b505050506040513d6020811015610bb757600080fd5b50516001600160a01b03161415610c15576040805162461bcd60e51b815260206004820181905260248201527f596f752061726520746865206f776e6572206f66207468697320746f6b656e21604482015290519081900360640190fd5b42816040015110610c6d576040805162461bcd60e51b815260206004820152601760248201527f5468697320746f6b656e20697320626f72726f77656421000000000000000000604482015290519081900360640190fd5b600b5442018160a00151620151800282608001510111610cd4576040805162461bcd60e51b815260206004820152601b60248201527f5468697320746f6b656e206973206e6f74206c6f616e206e6f77210000000000604482015290519081900360640190fd5b8262015180024201600b548260a00151620151800283608001510162015180010311610d315760405162461bcd60e51b815260040180806020018281038252602b81526020018061256e602b913960400191505060405180910390fd5b6060810151600090610d49908563ffffffff611e0716565b600254604080517f70a08231000000000000000000000000000000000000000000000000000000008152336004820152905192935083926001600160a01b03909216916370a0823191602480820192602092909190829003018186803b158015610db257600080fd5b505afa158015610dc6573d6000803e3d6000fd5b505050506040513d6020811015610ddc57600080fd5b50511015610e31576040805162461bcd60e51b815260206004820152601d60248201527f596f7520646f6e2774206861766520656e6f75676820686f74706f7421000000604482015290519081900360640190fd5b6000610e596064610e4d60065485611e0790919063ffffffff16565b9063ffffffff611e6016565b90506000610e776064610e4d60075486611e0790919063ffffffff16565b90506000610e9b83610e8f868563ffffffff611ea216565b9063ffffffff611ea216565b600154604080516331a9108f60e11b8152600481018c90529051929350610f339233926001600160a01b031691636352211e916024808301926020929190829003018186803b158015610eed57600080fd5b505afa158015610f01573d6000803e3d6000fd5b505050506040513d6020811015610f1757600080fd5b50516002546001600160a01b031691908463ffffffff611ee416565b600454600254610f58916001600160a01b03918216913391168663ffffffff611ee416565b600554600254610f7d916001600160a01b03918216913391168563ffffffff611ee416565b60008881526008602090815260409182902042620151808b0281016002830155600190910180547fffffffffffffffffffffffff00000000000000000000000000000000000000001633908117909155606089015184518c815293840152835191938c9391927f6ac928dde278fc1323b10a16dfbc196aeef1ea86229a7653b0d581edcb4d03709281900390910190a45050505050505050565b60065481565b600154604080516331a9108f60e11b8152600481018590529051600092859284926001600160a01b0390921691636352211e91602480820192602092909190829003018186803b15801561107057600080fd5b505afa158015611084573d6000803e3d6000fd5b505050506040513d602081101561109a57600080fd5b50516001600160a01b031614156110f8576040805162461bcd60e51b815260206004820152601660248201527f4974206973206e6f742061204e465420746f6b656e2100000000000000000000604482015290519081900360640190fd5b6111006124a1565b50600084815260086020908152604091829020825160c0810184528154815260018201546001600160a01b0316928101929092526002810154928201929092526003820154606082015260048201546080820181905260059092015460a082015290611170576001925050611197565b838160a0015162015180028260800151011015611191576001925050611197565b60009250505b5092915050565b6003546001600160a01b031681565b606060006111bb6009611f72565b90506060816040519080825280602002602001820160405280156111e9578160200160208202803883390190505b50905060005b828110156112275761120860098263ffffffff611f7d16565b82828151811061121457fe5b60209081029190910101526001016111ef565b5091505090565b600154604080516331a9108f60e11b8152600481018590529051600092859284926001600160a01b0390921691636352211e91602480820192602092909190829003018186803b15801561128157600080fd5b505afa158015611295573d6000803e3d6000fd5b505050506040513d60208110156112ab57600080fd5b50516001600160a01b03161415611309576040805162461bcd60e51b815260206004820152601660248201527f4974206973206e6f742061204e465420746f6b656e2100000000000000000000604482015290519081900360640190fd5b6113116124a1565b50600084815260086020908152604091829020825160c0810184528154815260018201546001600160a01b0316928101929092526002810154928201929092526003820154606082015260048201546080820181905260059092015460a08201529061140357600154604080516331a9108f60e11b81526004810188905290516001600160a01b03808a16931691636352211e916024808301926020929190829003018186803b1580156113c457600080fd5b505afa1580156113d8573d6000803e3d6000fd5b505050506040513d60208110156113ee57600080fd5b50516001600160a01b03161492506114ee9050565b856001600160a01b031681602001516001600160a01b0316141561143c5783816040015111156114375760019250506114ee565b6114e8565b600154604080516331a9108f60e11b81526004810188905290516001600160a01b0390921691636352211e91602480820192602092909190829003018186803b15801561148857600080fd5b505afa15801561149c573d6000803e3d6000fd5b505050506040513d60208110156114b257600080fd5b50516001600160a01b03878116911614156114e857838160a00151620151800282608001510110156114e85760019250506114ee565b60009250505b509392505050565b6004546001600160a01b031681565b61150d611f89565b6000546001600160a01b0390811691161461156f576040805162461bcd60e51b815260206004820181905260248201527f4f776e61626c653a2063616c6c6572206973206e6f7420746865206f776e6572604482015290519081900360640190fd5b6001600160a01b0381166115ca576040805162461bcd60e51b815260206004820152601560248201527f416464726573732063616e206e6f7420626520302e0000000000000000000000604482015290519081900360640190fd5b600580547fffffffffffffffffffffffff0000000000000000000000000000000000000000166001600160a01b0392909216919091179055565b60075481565b611612611f89565b6000546001600160a01b03908116911614611674576040805162461bcd60e51b815260206004820181905260248201527f4f776e61626c653a2063616c6c6572206973206e6f7420746865206f776e6572604482015290519081900360640190fd5b600080546040516001600160a01b03909116907f8be0079c531659141344cd1fd0a4f28419497f9722a3daafe3b4186f6b6457e0908390a3600080547fffffffffffffffffffffffff0000000000000000000000000000000000000000169055565b600154604080516331a9108f60e11b815260048101849052905183926000926001600160a01b0390911691636352211e91602480820192602092909190829003018186803b15801561172757600080fd5b505afa15801561173b573d6000803e3d6000fd5b505050506040513d602081101561175157600080fd5b50516001600160a01b031614156117af576040805162461bcd60e51b815260206004820152601660248201527f4974206973206e6f742061204e465420746f6b656e2100000000000000000000604482015290519081900360640190fd5b600154604080516331a9108f60e11b815260048101859052905133926001600160a01b031691636352211e916024808301926020929190829003018186803b1580156117fa57600080fd5b505afa15801561180e573d6000803e3d6000fd5b505050506040513d602081101561182457600080fd5b50516001600160a01b03161461186b5760405162461bcd60e51b81526004018080602001828103825260248152602001806125296024913960400191505060405180910390fd5b6118736124a1565b50600082815260086020908152604091829020825160c0810184528154815260018201546001600160a01b0316928101929092526002810154928201929092526003820154606082015260048201546080820181905260059092015460a082015290611926576040805162461bcd60e51b815260206004820152601c60248201527f5468697320746f6b656e206973206e6f74206465706f73697465642100000000604482015290519081900360640190fd5b4281604001511061197e576040805162461bcd60e51b815260206004820152601760248201527f5468697320746f6b656e20697320626f72726f77656421000000000000000000604482015290519081900360640190fd5b60008381526008602052604081208181556001810180547fffffffffffffffffffffffff0000000000000000000000000000000000000000169055600281018290556003810182905560048101829055600501556119e360098463ffffffff611f8d16565b506040514290849033907f8ab7fda4125e30db8c138b15deb711b89e21e1c06d7e1e5bb5111ed59324df3390600090a4505050565b6002546001600160a01b031681565b600c5481565b4290565b6005546001600160a01b031681565b6000546001600160a01b031690565b600b5481565b611a5d611f89565b6000546001600160a01b03908116911614611abf576040805162461bcd60e51b815260206004820181905260248201527f4f776e61626c653a2063616c6c6572206973206e6f7420746865206f776e6572604482015290519081900360640190fd5b600a8110611afe5760405162461bcd60e51b81526004018080602001828103825260218152602001806125c36021913960400191505060405180910390fd5b600755565b611b0b611f89565b6000546001600160a01b03908116911614611b6d576040805162461bcd60e51b815260206004820181905260248201527f4f776e61626c653a2063616c6c6572206973206e6f7420746865206f776e6572604482015290519081900360640190fd5b600a8110611bac5760405162461bcd60e51b81526004018080602001828103825260218152602001806125c36021913960400191505060405180910390fd5b600655565b6001546001600160a01b031681565b6000611bcc6009611f72565b905090565b611bd9611f89565b6000546001600160a01b03908116911614611c3b576040805162461bcd60e51b815260206004820181905260248201527f4f776e61626c653a2063616c6c6572206973206e6f7420746865206f776e6572604482015290519081900360640190fd5b6001600160a01b038116611c96576040805162461bcd60e51b815260206004820152601560248201527f416464726573732063616e206e6f7420626520302e0000000000000000000000604482015290519081900360640190fd5b600480547fffffffffffffffffffffffff0000000000000000000000000000000000000000166001600160a01b0392909216919091179055565b611cd8611f89565b6000546001600160a01b03908116911614611d3a576040805162461bcd60e51b815260206004820181905260248201527f4f776e61626c653a2063616c6c6572206973206e6f7420746865206f776e6572604482015290519081900360640190fd5b6001600160a01b038116611d7f5760405162461bcd60e51b81526004018080602001828103825260268152602001806125036026913960400191505060405180910390fd5b600080546040516001600160a01b03808516939216917f8be0079c531659141344cd1fd0a4f28419497f9722a3daafe3b4186f6b6457e091a3600080547fffffffffffffffffffffffff0000000000000000000000000000000000000000166001600160a01b0392909216919091179055565b6000611dfe8383611f99565b90505b92915050565b600082611e1657506000611e01565b82820282848281611e2357fe5b0414611dfe5760405162461bcd60e51b815260040180806020018281038252602181526020018061254d6021913960400191505060405180910390fd5b6000611dfe83836040518060400160405280601a81526020017f536166654d6174683a206469766973696f6e206279207a65726f000000000000815250611fe3565b6000611dfe83836040518060400160405280601e81526020017f536166654d6174683a207375627472616374696f6e206f766572666c6f770000815250612085565b604080516001600160a01b0380861660248301528416604482015260648082018490528251808303909101815260849091019091526020810180517bffffffffffffffffffffffffffffffffffffffffffffffffffffffff167f23b872dd00000000000000000000000000000000000000000000000000000000179052611f6c9085906120df565b50505050565b6000611e0182612195565b6000611dfe8383612199565b3390565b6000611dfe83836121fd565b6000611fa583836122e1565b611fdb57508154600181810184556000848152602080822090930184905584548482528286019093526040902091909155611e01565b506000611e01565b6000818361206f5760405162461bcd60e51b81526004018080602001828103825283818151815260200191508051906020019080838360005b8381101561203457818101518382015260200161201c565b50505050905090810190601f1680156120615780820380516001836020036101000a031916815260200191505b509250505060405180910390fd5b50600083858161207b57fe5b0495945050505050565b600081848411156120d75760405162461bcd60e51b815260206004820181815283516024840152835190928392604490910191908501908083836000831561203457818101518382015260200161201c565b505050900390565b6060612134826040518060400160405280602081526020017f5361666545524332303a206c6f772d6c6576656c2063616c6c206661696c6564815250856001600160a01b03166122f99092919063ffffffff16565b8051909150156121905780806020019051602081101561215357600080fd5b50516121905760405162461bcd60e51b815260040180806020018281038252602a815260200180612599602a913960400191505060405180910390fd5b505050565b5490565b815460009082106121db5760405162461bcd60e51b81526004018080602001828103825260228152602001806124e16022913960400191505060405180910390fd5b8260000182815481106121ea57fe5b9060005260206000200154905092915050565b600081815260018301602052604081205480156122d75783547fffffffffffffffffffffffffffffffffffffffffffffffffffffffffffffffff808301919081019060009087908390811061224e57fe5b906000526020600020015490508087600001848154811061226b57fe5b60009182526020808320909101929092558281526001898101909252604090209084019055865487908061229b57fe5b60019003818190600052602060002001600090559055866001016000878152602001908152602001600020600090556001945050505050611e01565b6000915050611e01565b60009081526001919091016020526040902054151590565b60606123088484600085612310565b949350505050565b606061231b8561249b565b61236c576040805162461bcd60e51b815260206004820152601d60248201527f416464726573733a2063616c6c20746f206e6f6e2d636f6e7472616374000000604482015290519081900360640190fd5b60006060866001600160a01b031685876040518082805190602001908083835b602083106123c957805182527fffffffffffffffffffffffffffffffffffffffffffffffffffffffffffffffe0909201916020918201910161238c565b6001836020036101000a03801982511681845116808217855250505050505090500191505060006040518083038185875af1925050503d806000811461242b576040519150601f19603f3d011682016040523d82523d6000602084013e612430565b606091505b509150915081156124445791506123089050565b8051156124545780518082602001fd5b60405162461bcd60e51b815260206004820181815286516024840152865187939192839260440191908501908083836000831561203457818101518382015260200161201c565b3b151590565b6040518060c001604052806000815260200160006001600160a01b0316815260200160008152602001600081526020016000815260200160008152509056fe456e756d657261626c655365743a20696e646578206f7574206f6620626f756e64734f776e61626c653a206e6577206f776e657220697320746865207a65726f2061646472657373596f7520617265206e6f7420746865206f776e6572206f66207468697320746f6b656e21536166654d6174683a206d756c7469706c69636174696f6e206f766572666c6f775468697320746f6b656e2063616e206e6f7420626520626f72726f77656420666f7220736f206c6f6e67215361666545524332303a204552433230206f7065726174696f6e20646964206e6f742073756363656564526174696f2063616e206e6f742062652067726561746572207468616e20313021a2646970667358221220991ceb3a23330a912d42cdc7d8cf011130d15096c3d93137db82e61c8ce9816664736f6c63430006020033",
  "source": "pragma solidity ^0.6.0;\n\nimport \"@openzeppelin/contracts/math/SafeMath.sol\";\nimport \"@openzeppelin/contracts/utils/EnumerableSet.sol\";\nimport \"@openzeppelin/contracts/token/ERC20/IERC20.sol\";\nimport \"@openzeppelin/contracts/token/ERC20/SafeERC20.sol\";\nimport \"@openzeppelin/contracts/token/ERC721/IERC721.sol\";\nimport \"@openzeppelin/contracts/token/ERC721/IERC721Receiver.sol\";\nimport \"@openzeppelin/contracts/access/Ownable.sol\";\nimport \"@openzeppelin/contracts/utils/Address.sol\";\nimport \"../common/hotpotinterface.sol\";\nimport \"../common/ILoan.sol\";\n\ncontract Loan is Ownable, ILoan {\n    using Address for address;\n    using SafeERC20 for IERC20;\n    using SafeMath for uint256;\n    using EnumerableSet for EnumerableSet.UintSet;\n\n    IERC721 public erc721;\n    IERC20 public erc20;\n    IHotPot public ihotpot;\n\n    address public devAddress;\n    address public rewardAddress;\n\n    uint256 public devRatio = 2;\n    uint256 public rewardRatio = 4;\n\n    mapping(uint256 => Reservation) public reservations;\n    EnumerableSet.UintSet internal loanSet;\n\n    uint256 public thresholdTime = 30 * 60;\n    uint256 public maxLoanDay = 365;\n\n    event TokenDeposit(\n        address indexed owner,\n        uint256 indexed tokenId,\n        uint256 indexed start,\n        uint256 depositDays,\n        uint256 pricePerDay\n    );\n\n    event TokenCancelDeposit(\n        address indexed owner,\n        uint256 indexed tokenId,\n        uint256 indexed cancleTime\n    );\n\n    event TokenBorrowed(\n        address indexed borrower,\n        uint256 indexed tokenId,\n        uint256 indexed start,\n        uint256 borrowDays,\n        uint256 pricePerDay\n    );\n\n    struct Reservation {\n        uint256 tokenId;\n        address borrower;\n        uint256 borrowEndTime; //borrow end time\n        uint256 pricePerDay;\n        uint256 start; // loan start time\n        uint256 times; //loan for how many days\n    }\n\n    modifier validNFToken(uint256 _tokenId) {\n        require(\n            erc721.ownerOf(_tokenId) != address(0),\n            \"It is not a NFT token!\"\n        );\n        _;\n    }\n\n    constructor(address _erc721, address _erc20) public {\n        require(_erc721.isContract(), \"ERC721 address is not contract!\");\n        require(_erc20.isContract(), \"ERC20 address is contract!\");\n        erc721 = IERC721(_erc721);\n        erc20 = IERC20(_erc20);\n        ihotpot = IHotPot(_erc721);\n    }\n\n    function setDevAddress(address _dev) external onlyOwner{\n        require(_dev!=address(0),\"Address can not be 0.\");\n        devAddress = _dev;\n    }\n\n    function setRewardAddress(address _addr) external onlyOwner{\n        require(_addr!=address(0),\"Address can not be 0.\");\n        rewardAddress = _addr;\n    }\n    \n    function setRewardRatio(uint256 _ratio) external onlyOwner{\n        require(_ratio<10,\"Ratio can not be greater than 10!\");\n        rewardRatio = _ratio;\n    }\n\n    function setDevRatio(uint256 _ratio) external onlyOwner{\n        require(_ratio<10,\"Ratio can not be greater than 10!\");\n        devRatio = _ratio;\n    }\n\n    function checkPrivilege(\n        address _user,\n        uint256 _tokenId,\n        uint256 _time\n    ) external override view validNFToken(_tokenId) returns (bool) {\n        //if the token is borrowed , the owner can not use it\n        Reservation memory r = reservations[_tokenId];\n\n        //The token is not deposited\n        if(r.start==0){\n            //The user must be the token owner\n            return erc721.ownerOf(_tokenId)==_user;\n        }\n        //The token is deposited\n        else{\n            if(r.borrower == _user){\n                //The borrower is borrowing \n                if(r.borrowEndTime>_time){\n                    return true;\n                }\n            }else{\n                if(_user==erc721.ownerOf(_tokenId)){\n                    //The deposit end\n                    if(r.start + r.times*86400<_time){\n                        return true;\n                    }\n                }\n            }\n        }\n        return false;\n    }\n\n    function checkCanSell(\n        uint256 _tokenId,\n        uint256 _time\n    ) external override view validNFToken(_tokenId) returns (bool){\n        Reservation memory r = reservations[_tokenId];\n        if(r.start==0){\n            return true;\n        }else{\n           if(r.start + r.times*86400<_time){\n                return true;\n            }\n        }\n        return false;\n    }\n\n    function cancelDeposit(uint256 _tokenId) external validNFToken(_tokenId){\n        require(\n            erc721.ownerOf(_tokenId) == msg.sender,\n            \"You are not the owner of this token!\"\n        );\n        Reservation memory r = reservations[_tokenId];\n        require(r.start != 0,\"This token is not deposited!\");\n        require(r.borrowEndTime<now,\"This token is borrowed!\");\n        delete reservations[_tokenId];\n        loanSet.remove(_tokenId);\n        emit TokenCancelDeposit(msg.sender,_tokenId,now);\n    }\n\n    function getLoanSize() external view returns(uint256){\n        return loanSet.length();\n    }\n\n    function getLoanList() external view returns (uint256[] memory) {\n        uint256 loanSize = loanSet.length();\n        uint256[] memory data = new uint256[](loanSize);\n        for (uint256 i = 0; i < loanSize; i++) {\n            data[i] = loanSet.at(i);\n        }\n        return data;\n    }\n\n    // struct Reservation {\n    //     uint256 tokenId;\n    //     address borrower;\n    //     uint256 borrowEndTime; //borrow end time\n    //     uint256 pricePerDay;\n    //     uint256 start; // loan start time\n    //     uint256 times; //loan for how many days\n    // }\n    function deposit(\n        uint256 _tokenId,\n        uint256 _days,\n        uint256 _pricePerDay\n    ) external validNFToken(_tokenId) {\n        require(_days <= maxLoanDay, \"The max loan time is 365 days!\");\n        require(_days>0,\"Can not loan for 0 day!\");\n        Reservation memory r = reservations[_tokenId];\n        if (r.start != 0) {\n            require(\n                r.start + r.times * 24 * 60 * 60 < now,\n                \"This token is in reservation!\"\n            );\n        }\n\n        require(\n            erc721.ownerOf(_tokenId) == msg.sender,\n            \"You are not the owner of this token!\"\n        );\n\n        require(ihotpot.getUseTime(_tokenId)+86400<now,\"This member card is used today!\");\n\n        reservations[_tokenId].tokenId = _tokenId;\n        reservations[_tokenId].start = now;\n        reservations[_tokenId].times = _days;\n        reservations[_tokenId].borrowEndTime = 0;\n        reservations[_tokenId].borrower = address(0);\n        reservations[_tokenId].pricePerDay = _pricePerDay;\n\n        loanSet.add(_tokenId);\n        emit TokenDeposit(msg.sender, _tokenId, now, _days, _pricePerDay);\n    }\n\n    function getBlockTime() external view returns(uint256){\n        return now;\n    }\n\n    function borrow(uint256 _tokenId, uint256 _days)\n        external\n        validNFToken(_tokenId)\n    {\n        require(_days < maxLoanDay, \"The max loan time is 365 days!\");\n        Reservation memory r = reservations[_tokenId];\n        require(r.start != 0, \"This token can not be borrowed!\");\n        require(\n            erc721.ownerOf(_tokenId) != msg.sender,\n            \"You are the owner of this token!\"\n        );\n        require(r.borrowEndTime < now, \"This token is borrowed!\");\n        require(\n            //thresholdTime\n            r.start + r.times * 86400 > now +thresholdTime,\n            \"This token is not loan now!\"\n        );\n        require(\n            r.start + r.times * 86400 + 86400 - thresholdTime > now + _days * 86400,\n            \"This token can not be borrowed for so long!\"\n        );\n\n        uint256 totalPrice = r.pricePerDay.mul(_days);\n\n        require(erc20.balanceOf(msg.sender)>=totalPrice,\"You don't have enough hotpot!\");\n\n        uint256 devPrice = totalPrice.mul(devRatio).div(100);\n        uint256 rewardPrice = totalPrice.mul(rewardRatio).div(100);\n\n        uint256 loanPrice = totalPrice.sub(rewardPrice).sub(devPrice);\n\n        erc20.safeTransferFrom(msg.sender, erc721.ownerOf(_tokenId), loanPrice);\n\n        erc20.safeTransferFrom(msg.sender, devAddress, devPrice);\n\n        erc20.safeTransferFrom(msg.sender, rewardAddress, rewardPrice);\n\n        reservations[_tokenId].borrowEndTime = now + _days * 86400;\n        reservations[_tokenId].borrower = msg.sender;\n\n        emit TokenBorrowed(msg.sender, _tokenId, now, _days, r.pricePerDay);\n    }\n}\n",
  "sourcePath": "/Users/junhu/git/hotpotcontract/truffle/contracts/loan/Loan.sol",
  "compiler": {
    "name": "solc",
    "version": "0.6.2+commit.bacdbe57.Emscripten.clang"
  },
  "schemaVersion": "3.3.0",
  "updatedAt": "2020-10-25T06:58:17.966Z",
  "devdoc": {
    "methods": {
      "owner()": {
        "details": "Returns the address of the current owner."
      },
      "renounceOwnership()": {
        "details": "Leaves the contract without owner. It will not be possible to call `onlyOwner` functions anymore. Can only be called by the current owner.     * NOTE: Renouncing ownership will leave the contract without an owner, thereby removing any functionality that is only available to the owner."
      },
      "transferOwnership(address)": {
        "details": "Transfers ownership of the contract to a new account (`newOwner`). Can only be called by the current owner."
      }
    }
  },
  "userdoc": {
    "methods": {}
  }
}