{
  "contractName": "Loan",
  "abi": [
    {
      "inputs": [
        {
          "internalType": "address",
          "name": "_erc721",
          "type": "address"
        },
        {
          "internalType": "address",
          "name": "_erc20",
          "type": "address"
        }
      ],
      "stateMutability": "nonpayable",
      "type": "constructor"
    },
    {
      "anonymous": false,
      "inputs": [
        {
          "indexed": true,
          "internalType": "address",
          "name": "previousOwner",
          "type": "address"
        },
        {
          "indexed": true,
          "internalType": "address",
          "name": "newOwner",
          "type": "address"
        }
      ],
      "name": "OwnershipTransferred",
      "type": "event"
    },
    {
      "anonymous": false,
      "inputs": [
        {
          "indexed": true,
          "internalType": "address",
          "name": "borrower",
          "type": "address"
        },
        {
          "indexed": true,
          "internalType": "uint256",
          "name": "tokenId",
          "type": "uint256"
        },
        {
          "indexed": true,
          "internalType": "uint256",
          "name": "start",
          "type": "uint256"
        },
        {
          "indexed": false,
          "internalType": "uint256",
          "name": "borrowDays",
          "type": "uint256"
        },
        {
          "indexed": false,
          "internalType": "uint256",
          "name": "pricePerDay",
          "type": "uint256"
        }
      ],
      "name": "TokenBorrowed",
      "type": "event"
    },
    {
      "anonymous": false,
      "inputs": [
        {
          "indexed": true,
          "internalType": "address",
          "name": "owner",
          "type": "address"
        },
        {
          "indexed": true,
          "internalType": "uint256",
          "name": "tokenId",
          "type": "uint256"
        },
        {
          "indexed": true,
          "internalType": "uint256",
          "name": "cancleTime",
          "type": "uint256"
        }
      ],
      "name": "TokenCancelDeposit",
      "type": "event"
    },
    {
      "anonymous": false,
      "inputs": [
        {
          "indexed": true,
          "internalType": "address",
          "name": "owner",
          "type": "address"
        },
        {
          "indexed": true,
          "internalType": "uint256",
          "name": "tokenId",
          "type": "uint256"
        },
        {
          "indexed": true,
          "internalType": "uint256",
          "name": "start",
          "type": "uint256"
        },
        {
          "indexed": false,
          "internalType": "uint256",
          "name": "depositDays",
          "type": "uint256"
        },
        {
          "indexed": false,
          "internalType": "uint256",
          "name": "pricePerDay",
          "type": "uint256"
        }
      ],
      "name": "TokenDeposit",
      "type": "event"
    },
    {
      "inputs": [],
      "name": "devAddress",
      "outputs": [
        {
          "internalType": "address",
          "name": "",
          "type": "address"
        }
      ],
      "stateMutability": "view",
      "type": "function",
      "constant": true
    },
    {
      "inputs": [],
      "name": "devRatio",
      "outputs": [
        {
          "internalType": "uint256",
          "name": "",
          "type": "uint256"
        }
      ],
      "stateMutability": "view",
      "type": "function",
      "constant": true
    },
    {
      "inputs": [],
      "name": "erc20",
      "outputs": [
        {
          "internalType": "contract IERC20",
          "name": "",
          "type": "address"
        }
      ],
      "stateMutability": "view",
      "type": "function",
      "constant": true
    },
    {
      "inputs": [],
      "name": "erc721",
      "outputs": [
        {
          "internalType": "contract IERC721",
          "name": "",
          "type": "address"
        }
      ],
      "stateMutability": "view",
      "type": "function",
      "constant": true
    },
    {
      "inputs": [],
      "name": "ihotpot",
      "outputs": [
        {
          "internalType": "contract IHotPot",
          "name": "",
          "type": "address"
        }
      ],
      "stateMutability": "view",
      "type": "function",
      "constant": true
    },
    {
      "inputs": [],
      "name": "maxLoanDay",
      "outputs": [
        {
          "internalType": "uint256",
          "name": "",
          "type": "uint256"
        }
      ],
      "stateMutability": "view",
      "type": "function",
      "constant": true
    },
    {
      "inputs": [],
      "name": "owner",
      "outputs": [
        {
          "internalType": "address",
          "name": "",
          "type": "address"
        }
      ],
      "stateMutability": "view",
      "type": "function",
      "constant": true
    },
    {
      "inputs": [],
      "name": "renounceOwnership",
      "outputs": [],
      "stateMutability": "nonpayable",
      "type": "function"
    },
    {
      "inputs": [
        {
          "internalType": "uint256",
          "name": "",
          "type": "uint256"
        }
      ],
      "name": "reservations",
      "outputs": [
        {
          "internalType": "uint256",
          "name": "tokenId",
          "type": "uint256"
        },
        {
          "internalType": "address",
          "name": "borrower",
          "type": "address"
        },
        {
          "internalType": "uint256",
          "name": "borrowEndTime",
          "type": "uint256"
        },
        {
          "internalType": "uint256",
          "name": "pricePerDay",
          "type": "uint256"
        },
        {
          "internalType": "uint256",
          "name": "start",
          "type": "uint256"
        },
        {
          "internalType": "uint256",
          "name": "times",
          "type": "uint256"
        }
      ],
      "stateMutability": "view",
      "type": "function",
      "constant": true
    },
    {
      "inputs": [],
      "name": "rewardAddress",
      "outputs": [
        {
          "internalType": "address",
          "name": "",
          "type": "address"
        }
      ],
      "stateMutability": "view",
      "type": "function",
      "constant": true
    },
    {
      "inputs": [],
      "name": "rewardRatio",
      "outputs": [
        {
          "internalType": "uint256",
          "name": "",
          "type": "uint256"
        }
      ],
      "stateMutability": "view",
      "type": "function",
      "constant": true
    },
    {
      "inputs": [],
      "name": "thresholdTime",
      "outputs": [
        {
          "internalType": "uint256",
          "name": "",
          "type": "uint256"
        }
      ],
      "stateMutability": "view",
      "type": "function",
      "constant": true
    },
    {
      "inputs": [
        {
          "internalType": "address",
          "name": "newOwner",
          "type": "address"
        }
      ],
      "name": "transferOwnership",
      "outputs": [],
      "stateMutability": "nonpayable",
      "type": "function"
    },
    {
      "inputs": [
        {
          "internalType": "address",
          "name": "_dev",
          "type": "address"
        }
      ],
      "name": "setDevAddress",
      "outputs": [],
      "stateMutability": "nonpayable",
      "type": "function"
    },
    {
      "inputs": [
        {
          "internalType": "address",
          "name": "_addr",
          "type": "address"
        }
      ],
      "name": "setRewardAddress",
      "outputs": [],
      "stateMutability": "nonpayable",
      "type": "function"
    },
    {
      "inputs": [
        {
          "internalType": "uint256",
          "name": "_ratio",
          "type": "uint256"
        }
      ],
      "name": "setRewardRatio",
      "outputs": [],
      "stateMutability": "nonpayable",
      "type": "function"
    },
    {
      "inputs": [
        {
          "internalType": "uint256",
          "name": "_ratio",
          "type": "uint256"
        }
      ],
      "name": "setDevRatio",
      "outputs": [],
      "stateMutability": "nonpayable",
      "type": "function"
    },
    {
      "inputs": [
        {
          "internalType": "address",
          "name": "_user",
          "type": "address"
        },
        {
          "internalType": "uint256",
          "name": "_tokenId",
          "type": "uint256"
        },
        {
          "internalType": "uint256",
          "name": "_time",
          "type": "uint256"
        }
      ],
      "name": "checkPrivilege",
      "outputs": [
        {
          "internalType": "bool",
          "name": "",
          "type": "bool"
        }
      ],
      "stateMutability": "view",
      "type": "function",
      "constant": true
    },
    {
      "inputs": [
        {
          "internalType": "uint256",
          "name": "_tokenId",
          "type": "uint256"
        }
      ],
      "name": "cancelDeposit",
      "outputs": [],
      "stateMutability": "nonpayable",
      "type": "function"
    },
    {
      "inputs": [],
      "name": "getLoanSize",
      "outputs": [
        {
          "internalType": "uint256",
          "name": "",
          "type": "uint256"
        }
      ],
      "stateMutability": "view",
      "type": "function",
      "constant": true
    },
    {
      "inputs": [],
      "name": "getLoanList",
      "outputs": [
        {
          "internalType": "uint256[]",
          "name": "",
          "type": "uint256[]"
        }
      ],
      "stateMutability": "view",
      "type": "function",
      "constant": true
    },
    {
      "inputs": [
        {
          "internalType": "uint256",
          "name": "_tokenId",
          "type": "uint256"
        },
        {
          "internalType": "uint256",
          "name": "_days",
          "type": "uint256"
        },
        {
          "internalType": "uint256",
          "name": "_pricePerDay",
          "type": "uint256"
        }
      ],
      "name": "deposit",
      "outputs": [],
      "stateMutability": "nonpayable",
      "type": "function"
    },
    {
      "inputs": [],
      "name": "getBlockTime",
      "outputs": [
        {
          "internalType": "uint256",
          "name": "",
          "type": "uint256"
        }
      ],
      "stateMutability": "view",
      "type": "function",
      "constant": true
    },
    {
      "inputs": [
        {
          "internalType": "uint256",
          "name": "_tokenId",
          "type": "uint256"
        },
        {
          "internalType": "uint256",
          "name": "_days",
          "type": "uint256"
        }
      ],
      "name": "borrow",
      "outputs": [],
      "stateMutability": "nonpayable",
      "type": "function"
    }
  ],
  "bytecode": "0x608060405260026006556004600755610708600b5561016d600c553480156200002757600080fd5b506040516200269a3803806200269a833981810160405260408110156200004d57600080fd5b50805160209091015160006200006b6001600160e01b03620001db16565b600080546001600160a01b0319166001600160a01b0383169081178255604051929350917f8be0079c531659141344cd1fd0a4f28419497f9722a3daafe3b4186f6b6457e0908290a350620000d4826001600160a01b0316620001df60201b620023271760201c565b62000126576040805162461bcd60e51b815260206004820152601f60248201527f4552433732312061646472657373206973206e6f7420636f6e74726163742100604482015290519081900360640190fd5b62000145816001600160a01b0316620001df60201b620023271760201c565b62000197576040805162461bcd60e51b815260206004820152601a60248201527f4552433230206164647265737320697320636f6e747261637421000000000000604482015290519081900360640190fd5b600180546001600160a01b039384166001600160a01b03199182168117909255600280549390941692811692909217909255600380549091169091179055620001e5565b3390565b3b151590565b6124a580620001f56000396000f3fe608060405234801561001057600080fd5b50600436106101975760003560e01c8063785e9e86116100e3578063a943600d1161008c578063c1a816ce11610066578063c1a816ce146103eb578063d0d41fe1146103f3578063f2fde38b1461041957610197565b8063a943600d146103a9578063ad1848df146103c6578063bca6ce64146103e357610197565b80638cf57cb9116100bd5780638cf57cb9146103915780638da5cb5b146103995780639930f876146103a157610197565b8063785e9e8614610379578063866156681461038157806387ceff091461038957610197565b80633130c3ae11610145578063646033bc1161011f578063646033bc1461034c578063715018a61461035457806372fada5c1461035c57610197565b80633130c3ae146102d85780633ad10ef61461031e5780635e00e6791461032657610197565b806311102d4d1161017657806311102d4d146102425780632cbac7a81461025c578063300730bd1461028057610197565b8062aeef8a1461019c578063067cf832146101c75780630ecbcdab1461021f575b600080fd5b6101c5600480360360608110156101b257600080fd5b508035906020810135906040013561043f565b005b6101e4600480360360208110156101dd57600080fd5b50356108eb565b604080519687526001600160a01b039095166020870152858501939093526060850191909152608084015260a0830152519081900360c00190f35b6101c56004803603604081101561023557600080fd5b508035906020013561092a565b61024a611024565b60408051918252519081900360200190f35b61026461102a565b604080516001600160a01b039092168252519081900360200190f35b610288611039565b60408051602080825283518183015283519192839290830191858101910280838360005b838110156102c45781810151838201526020016102ac565b505050509050019250505060405180910390f35b61030a600480360360608110156102ee57600080fd5b506001600160a01b0381351690602081013590604001356110ba565b604080519115158252519081900360200190f35b610264611382565b6101c56004803603602081101561033c57600080fd5b50356001600160a01b0316611391565b61024a611490565b6101c5611496565b6101c56004803603602081101561037257600080fd5b5035611562565b6102646118a4565b61024a6118b3565b61024a6118b9565b6102646118bd565b6102646118cc565b61024a6118db565b6101c5600480360360208110156103bf57600080fd5b50356118e1565b6101c5600480360360208110156103dc57600080fd5b503561198f565b610264611a3d565b61024a611a4c565b6101c56004803603602081101561040957600080fd5b50356001600160a01b0316611a5d565b6101c56004803603602081101561042f57600080fd5b50356001600160a01b0316611b5c565b600154604080516331a9108f60e11b815260048101869052905185926000926001600160a01b0390911691636352211e91602480820192602092909190829003018186803b15801561049057600080fd5b505afa1580156104a4573d6000803e3d6000fd5b505050506040513d60208110156104ba57600080fd5b50516001600160a01b03161415610518576040805162461bcd60e51b815260206004820152601660248201527f4974206973206e6f742061204e465420746f6b656e2100000000000000000000604482015290519081900360640190fd5b600c5483111561056f576040805162461bcd60e51b815260206004820152601e60248201527f546865206d6178206c6f616e2074696d65206973203336352064617973210000604482015290519081900360640190fd5b600083116105c4576040805162461bcd60e51b815260206004820152601760248201527f43616e206e6f74206c6f616e20666f7220302064617921000000000000000000604482015290519081900360640190fd5b6105cc61232d565b50600084815260086020908152604091829020825160c0810184528154815260018201546001600160a01b0316928101929092526002810154928201929092526003820154606082015260048201546080820181905260059092015460a082015290156106985760a0810151608082015142620151809092020110610698576040805162461bcd60e51b815260206004820152601d60248201527f5468697320746f6b656e20697320696e207265736572766174696f6e21000000604482015290519081900360640190fd5b600154604080516331a9108f60e11b815260048101889052905133926001600160a01b031691636352211e916024808301926020929190829003018186803b1580156106e357600080fd5b505afa1580156106f7573d6000803e3d6000fd5b505050506040513d602081101561070d57600080fd5b50516001600160a01b0316146107545760405162461bcd60e51b81526004018080602001828103825260248152602001806123b56024913960400191505060405180910390fd5b600354604080517f5840e65900000000000000000000000000000000000000000000000000000000815260048101889052905142926001600160a01b031691635840e659916024808301926020929190829003018186803b1580156107b857600080fd5b505afa1580156107cc573d6000803e3d6000fd5b505050506040513d60208110156107e257600080fd5b505162015180011061083b576040805162461bcd60e51b815260206004820152601f60248201527f54686973206d656d6265722063617264206973207573656420746f6461792100604482015290519081900360640190fd5b60008581526008602052604081208681554260048201556005810186905560028101919091556001810180547fffffffffffffffffffffffff00000000000000000000000000000000000000001690556003018390556108a260098663ffffffff611c7e16565b50604080518581526020810185905281514292889233927f0cc4e403e8909e2f133bbdf8120cd4ee94c82bd60c8bf7ccd55532643780dd2d929181900390910190a45050505050565b60086020526000908152604090208054600182015460028301546003840154600485015460059095015493946001600160a01b03909316939192909186565b600154604080516331a9108f60e11b815260048101859052905184926000926001600160a01b0390911691636352211e91602480820192602092909190829003018186803b15801561097b57600080fd5b505afa15801561098f573d6000803e3d6000fd5b505050506040513d60208110156109a557600080fd5b50516001600160a01b03161415610a03576040805162461bcd60e51b815260206004820152601660248201527f4974206973206e6f742061204e465420746f6b656e2100000000000000000000604482015290519081900360640190fd5b600c548210610a59576040805162461bcd60e51b815260206004820152601e60248201527f546865206d6178206c6f616e2074696d65206973203336352064617973210000604482015290519081900360640190fd5b610a6161232d565b50600083815260086020908152604091829020825160c0810184528154815260018201546001600160a01b0316928101929092526002810154928201929092526003820154606082015260048201546080820181905260059092015460a082015290610b14576040805162461bcd60e51b815260206004820152601f60248201527f5468697320746f6b656e2063616e206e6f7420626520626f72726f7765642100604482015290519081900360640190fd5b600154604080516331a9108f60e11b815260048101879052905133926001600160a01b031691636352211e916024808301926020929190829003018186803b158015610b5f57600080fd5b505afa158015610b73573d6000803e3d6000fd5b505050506040513d6020811015610b8957600080fd5b50516001600160a01b03161415610be7576040805162461bcd60e51b815260206004820181905260248201527f596f752061726520746865206f776e6572206f66207468697320746f6b656e21604482015290519081900360640190fd5b42816040015110610c3f576040805162461bcd60e51b815260206004820152601760248201527f5468697320746f6b656e20697320626f72726f77656421000000000000000000604482015290519081900360640190fd5b600b5442018160a00151620151800282608001510111610ca6576040805162461bcd60e51b815260206004820152601b60248201527f5468697320746f6b656e206973206e6f74206c6f616e206e6f77210000000000604482015290519081900360640190fd5b8262015180024201600b548260a00151620151800283608001510162015180010311610d035760405162461bcd60e51b815260040180806020018281038252602b8152602001806123fa602b913960400191505060405180910390fd5b6060810151600090610d1b908563ffffffff611c9316565b600254604080517f70a08231000000000000000000000000000000000000000000000000000000008152336004820152905192935083926001600160a01b03909216916370a0823191602480820192602092909190829003018186803b158015610d8457600080fd5b505afa158015610d98573d6000803e3d6000fd5b505050506040513d6020811015610dae57600080fd5b50511015610e03576040805162461bcd60e51b815260206004820152601d60248201527f596f7520646f6e2774206861766520656e6f75676820686f74706f7421000000604482015290519081900360640190fd5b6000610e2b6064610e1f60065485611c9390919063ffffffff16565b9063ffffffff611cec16565b90506000610e496064610e1f60075486611c9390919063ffffffff16565b90506000610e6d83610e61868563ffffffff611d2e16565b9063ffffffff611d2e16565b600154604080516331a9108f60e11b8152600481018c90529051929350610f059233926001600160a01b031691636352211e916024808301926020929190829003018186803b158015610ebf57600080fd5b505afa158015610ed3573d6000803e3d6000fd5b505050506040513d6020811015610ee957600080fd5b50516002546001600160a01b031691908463ffffffff611d7016565b600454600254610f2a916001600160a01b03918216913391168663ffffffff611d7016565b600554600254610f4f916001600160a01b03918216913391168563ffffffff611d7016565b620151808702429081016040878101918252336020808a0182815260008e8152600883528490208b51815590516001820180547fffffffffffffffffffffffff0000000000000000000000000000000000000000166001600160a01b039092169190911790559351600285015560608a01516003850181905560808b0151600486015560a08b015160059095019490945582518c81529081019390935281518c9391927f6ac928dde278fc1323b10a16dfbc196aeef1ea86229a7653b0d581edcb4d0370928290030190a45050505050505050565b60065481565b6003546001600160a01b031681565b606060006110476009611dfe565b9050606081604051908082528060200260200182016040528015611075578160200160208202803883390190505b50905060005b828110156110b35761109460098263ffffffff611e0916565b8282815181106110a057fe5b602090810291909101015260010161107b565b5091505090565b600154604080516331a9108f60e11b8152600481018590529051600092859284926001600160a01b0390921691636352211e91602480820192602092909190829003018186803b15801561110d57600080fd5b505afa158015611121573d6000803e3d6000fd5b505050506040513d602081101561113757600080fd5b50516001600160a01b03161415611195576040805162461bcd60e51b815260206004820152601660248201527f4974206973206e6f742061204e465420746f6b656e2100000000000000000000604482015290519081900360640190fd5b61119d61232d565b50600084815260086020908152604091829020825160c0810184528154815260018201546001600160a01b0316928101929092526002810154928201929092526003820154606082015260048201546080820181905260059092015460a08201529061128f57600154604080516331a9108f60e11b81526004810188905290516001600160a01b03808a16931691636352211e916024808301926020929190829003018186803b15801561125057600080fd5b505afa158015611264573d6000803e3d6000fd5b505050506040513d602081101561127a57600080fd5b50516001600160a01b031614925061137a9050565b856001600160a01b031681602001516001600160a01b031614156112c85783816040015111156112c357600192505061137a565b611374565b600154604080516331a9108f60e11b81526004810188905290516001600160a01b0390921691636352211e91602480820192602092909190829003018186803b15801561131457600080fd5b505afa158015611328573d6000803e3d6000fd5b505050506040513d602081101561133e57600080fd5b50516001600160a01b038781169116141561137457838160a001516201518002826080015101101561137457600192505061137a565b60009250505b509392505050565b6004546001600160a01b031681565b611399611e15565b6000546001600160a01b039081169116146113fb576040805162461bcd60e51b815260206004820181905260248201527f4f776e61626c653a2063616c6c6572206973206e6f7420746865206f776e6572604482015290519081900360640190fd5b6001600160a01b038116611456576040805162461bcd60e51b815260206004820152601560248201527f416464726573732063616e206e6f7420626520302e0000000000000000000000604482015290519081900360640190fd5b600580547fffffffffffffffffffffffff0000000000000000000000000000000000000000166001600160a01b0392909216919091179055565b60075481565b61149e611e15565b6000546001600160a01b03908116911614611500576040805162461bcd60e51b815260206004820181905260248201527f4f776e61626c653a2063616c6c6572206973206e6f7420746865206f776e6572604482015290519081900360640190fd5b600080546040516001600160a01b03909116907f8be0079c531659141344cd1fd0a4f28419497f9722a3daafe3b4186f6b6457e0908390a3600080547fffffffffffffffffffffffff0000000000000000000000000000000000000000169055565b600154604080516331a9108f60e11b815260048101849052905183926000926001600160a01b0390911691636352211e91602480820192602092909190829003018186803b1580156115b357600080fd5b505afa1580156115c7573d6000803e3d6000fd5b505050506040513d60208110156115dd57600080fd5b50516001600160a01b0316141561163b576040805162461bcd60e51b815260206004820152601660248201527f4974206973206e6f742061204e465420746f6b656e2100000000000000000000604482015290519081900360640190fd5b600154604080516331a9108f60e11b815260048101859052905133926001600160a01b031691636352211e916024808301926020929190829003018186803b15801561168657600080fd5b505afa15801561169a573d6000803e3d6000fd5b505050506040513d60208110156116b057600080fd5b50516001600160a01b0316146116f75760405162461bcd60e51b81526004018080602001828103825260248152602001806123b56024913960400191505060405180910390fd5b6116ff61232d565b50600082815260086020908152604091829020825160c0810184528154815260018201546001600160a01b0316928101929092526002810154928201929092526003820154606082015260048201546080820181905260059092015460a0820152906117b2576040805162461bcd60e51b815260206004820152601c60248201527f5468697320746f6b656e206973206e6f74206465706f73697465642100000000604482015290519081900360640190fd5b4281604001511061180a576040805162461bcd60e51b815260206004820152601760248201527f5468697320746f6b656e20697320626f72726f77656421000000000000000000604482015290519081900360640190fd5b60008381526008602052604081208181556001810180547fffffffffffffffffffffffff00000000000000000000000000000000000000001690556002810182905560038101829055600481018290556005015561186f60098463ffffffff611e1916565b506040514290849033907f8ab7fda4125e30db8c138b15deb711b89e21e1c06d7e1e5bb5111ed59324df3390600090a4505050565b6002546001600160a01b031681565b600c5481565b4290565b6005546001600160a01b031681565b6000546001600160a01b031690565b600b5481565b6118e9611e15565b6000546001600160a01b0390811691161461194b576040805162461bcd60e51b815260206004820181905260248201527f4f776e61626c653a2063616c6c6572206973206e6f7420746865206f776e6572604482015290519081900360640190fd5b600a811061198a5760405162461bcd60e51b815260040180806020018281038252602181526020018061244f6021913960400191505060405180910390fd5b600755565b611997611e15565b6000546001600160a01b039081169116146119f9576040805162461bcd60e51b815260206004820181905260248201527f4f776e61626c653a2063616c6c6572206973206e6f7420746865206f776e6572604482015290519081900360640190fd5b600a8110611a385760405162461bcd60e51b815260040180806020018281038252602181526020018061244f6021913960400191505060405180910390fd5b600655565b6001546001600160a01b031681565b6000611a586009611dfe565b905090565b611a65611e15565b6000546001600160a01b03908116911614611ac7576040805162461bcd60e51b815260206004820181905260248201527f4f776e61626c653a2063616c6c6572206973206e6f7420746865206f776e6572604482015290519081900360640190fd5b6001600160a01b038116611b22576040805162461bcd60e51b815260206004820152601560248201527f416464726573732063616e206e6f7420626520302e0000000000000000000000604482015290519081900360640190fd5b600480547fffffffffffffffffffffffff0000000000000000000000000000000000000000166001600160a01b0392909216919091179055565b611b64611e15565b6000546001600160a01b03908116911614611bc6576040805162461bcd60e51b815260206004820181905260248201527f4f776e61626c653a2063616c6c6572206973206e6f7420746865206f776e6572604482015290519081900360640190fd5b6001600160a01b038116611c0b5760405162461bcd60e51b815260040180806020018281038252602681526020018061238f6026913960400191505060405180910390fd5b600080546040516001600160a01b03808516939216917f8be0079c531659141344cd1fd0a4f28419497f9722a3daafe3b4186f6b6457e091a3600080547fffffffffffffffffffffffff0000000000000000000000000000000000000000166001600160a01b0392909216919091179055565b6000611c8a8383611e25565b90505b92915050565b600082611ca257506000611c8d565b82820282848281611caf57fe5b0414611c8a5760405162461bcd60e51b81526004018080602001828103825260218152602001806123d96021913960400191505060405180910390fd5b6000611c8a83836040518060400160405280601a81526020017f536166654d6174683a206469766973696f6e206279207a65726f000000000000815250611e6f565b6000611c8a83836040518060400160405280601e81526020017f536166654d6174683a207375627472616374696f6e206f766572666c6f770000815250611f11565b604080516001600160a01b0380861660248301528416604482015260648082018490528251808303909101815260849091019091526020810180517bffffffffffffffffffffffffffffffffffffffffffffffffffffffff167f23b872dd00000000000000000000000000000000000000000000000000000000179052611df8908590611f6b565b50505050565b6000611c8d82612021565b6000611c8a8383612025565b3390565b6000611c8a8383612089565b6000611e31838361216d565b611e6757508154600181810184556000848152602080822090930184905584548482528286019093526040902091909155611c8d565b506000611c8d565b60008183611efb5760405162461bcd60e51b81526004018080602001828103825283818151815260200191508051906020019080838360005b83811015611ec0578181015183820152602001611ea8565b50505050905090810190601f168015611eed5780820380516001836020036101000a031916815260200191505b509250505060405180910390fd5b506000838581611f0757fe5b0495945050505050565b60008184841115611f635760405162461bcd60e51b8152602060048201818152835160248401528351909283926044909101919085019080838360008315611ec0578181015183820152602001611ea8565b505050900390565b6060611fc0826040518060400160405280602081526020017f5361666545524332303a206c6f772d6c6576656c2063616c6c206661696c6564815250856001600160a01b03166121859092919063ffffffff16565b80519091501561201c57808060200190516020811015611fdf57600080fd5b505161201c5760405162461bcd60e51b815260040180806020018281038252602a815260200180612425602a913960400191505060405180910390fd5b505050565b5490565b815460009082106120675760405162461bcd60e51b815260040180806020018281038252602281526020018061236d6022913960400191505060405180910390fd5b82600001828154811061207657fe5b9060005260206000200154905092915050565b600081815260018301602052604081205480156121635783547fffffffffffffffffffffffffffffffffffffffffffffffffffffffffffffffff80830191908101906000908790839081106120da57fe5b90600052602060002001549050808760000184815481106120f757fe5b60009182526020808320909101929092558281526001898101909252604090209084019055865487908061212757fe5b60019003818190600052602060002001600090559055866001016000878152602001908152602001600020600090556001945050505050611c8d565b6000915050611c8d565b60009081526001919091016020526040902054151590565b6060612194848460008561219c565b949350505050565b60606121a785612327565b6121f8576040805162461bcd60e51b815260206004820152601d60248201527f416464726573733a2063616c6c20746f206e6f6e2d636f6e7472616374000000604482015290519081900360640190fd5b60006060866001600160a01b031685876040518082805190602001908083835b6020831061225557805182527fffffffffffffffffffffffffffffffffffffffffffffffffffffffffffffffe09092019160209182019101612218565b6001836020036101000a03801982511681845116808217855250505050505090500191505060006040518083038185875af1925050503d80600081146122b7576040519150601f19603f3d011682016040523d82523d6000602084013e6122bc565b606091505b509150915081156122d05791506121949050565b8051156122e05780518082602001fd5b60405162461bcd60e51b8152602060048201818152865160248401528651879391928392604401919085019080838360008315611ec0578181015183820152602001611ea8565b3b151590565b6040518060c001604052806000815260200160006001600160a01b0316815260200160008152602001600081526020016000815260200160008152509056fe456e756d657261626c655365743a20696e646578206f7574206f6620626f756e64734f776e61626c653a206e6577206f776e657220697320746865207a65726f2061646472657373596f7520617265206e6f7420746865206f776e6572206f66207468697320746f6b656e21536166654d6174683a206d756c7469706c69636174696f6e206f766572666c6f775468697320746f6b656e2063616e206e6f7420626520626f72726f77656420666f7220736f206c6f6e67215361666545524332303a204552433230206f7065726174696f6e20646964206e6f742073756363656564526174696f2063616e206e6f742062652067726561746572207468616e20313021a2646970667358221220f93331160f5af50db098a1c54005509939ca4c4f622bfe35944eb02118d8c4fa64736f6c63430006020033",
  "source": "pragma solidity ^0.6.0;\n\nimport \"@openzeppelin/contracts/math/SafeMath.sol\";\nimport \"@openzeppelin/contracts/utils/EnumerableSet.sol\";\nimport \"@openzeppelin/contracts/token/ERC20/IERC20.sol\";\nimport \"@openzeppelin/contracts/token/ERC20/SafeERC20.sol\";\nimport \"@openzeppelin/contracts/token/ERC721/IERC721.sol\";\nimport \"@openzeppelin/contracts/token/ERC721/IERC721Receiver.sol\";\nimport \"@openzeppelin/contracts/access/Ownable.sol\";\nimport \"@openzeppelin/contracts/utils/Address.sol\";\nimport \"../common/hotpotinterface.sol\";\nimport \"../common/ILoan.sol\";\n\ncontract Loan is Ownable, ILoan {\n    using Address for address;\n    using SafeERC20 for IERC20;\n    using SafeMath for uint256;\n    using EnumerableSet for EnumerableSet.UintSet;\n\n    IERC721 public erc721;\n    IERC20 public erc20;\n    IHotPot public ihotpot;\n\n    address public devAddress;\n    address public rewardAddress;\n\n    uint256 public devRatio = 2;\n    uint256 public rewardRatio = 4;\n\n    mapping(uint256 => Reservation) public reservations;\n    EnumerableSet.UintSet internal loanSet;\n\n    uint256 public thresholdTime = 30 * 60;\n    uint256 public maxLoanDay = 365;\n\n    event TokenDeposit(\n        address indexed owner,\n        uint256 indexed tokenId,\n        uint256 indexed start,\n        uint256 depositDays,\n        uint256 pricePerDay\n    );\n\n    event TokenCancelDeposit(\n        address indexed owner,\n        uint256 indexed tokenId,\n        uint256 indexed cancleTime\n    );\n\n    event TokenBorrowed(\n        address indexed borrower,\n        uint256 indexed tokenId,\n        uint256 indexed start,\n        uint256 borrowDays,\n        uint256 pricePerDay\n    );\n\n    struct Reservation {\n        uint256 tokenId;\n        address borrower;\n        uint256 borrowEndTime; //borrow end time\n        uint256 pricePerDay;\n        uint256 start; // loan start time\n        uint256 times; //loan for how many days\n    }\n\n    modifier validNFToken(uint256 _tokenId) {\n        require(\n            erc721.ownerOf(_tokenId) != address(0),\n            \"It is not a NFT token!\"\n        );\n        _;\n    }\n\n    constructor(address _erc721, address _erc20) public {\n        require(_erc721.isContract(), \"ERC721 address is not contract!\");\n        require(_erc20.isContract(), \"ERC20 address is contract!\");\n        erc721 = IERC721(_erc721);\n        erc20 = IERC20(_erc20);\n        ihotpot = IHotPot(_erc721);\n    }\n\n    function setDevAddress(address _dev) external onlyOwner{\n        require(_dev!=address(0),\"Address can not be 0.\");\n        devAddress = _dev;\n    }\n\n    function setRewardAddress(address _addr) external onlyOwner{\n        require(_addr!=address(0),\"Address can not be 0.\");\n        rewardAddress = _addr;\n    }\n    \n    function setRewardRatio(uint256 _ratio) external onlyOwner{\n        require(_ratio<10,\"Ratio can not be greater than 10!\");\n        rewardRatio = _ratio;\n    }\n\n    function setDevRatio(uint256 _ratio) external onlyOwner{\n        require(_ratio<10,\"Ratio can not be greater than 10!\");\n        devRatio = _ratio;\n    }\n\n    function checkPrivilege(\n        address _user,\n        uint256 _tokenId,\n        uint256 _time\n    ) external override view validNFToken(_tokenId) returns (bool) {\n        //if the token is borrowed , the owner can not use it\n        Reservation memory r = reservations[_tokenId];\n\n        //The token is not deposited\n        if(r.start==0){\n            //The user must be the token owner\n            return erc721.ownerOf(_tokenId)==_user;\n        }\n        //The token is deposited\n        else{\n            if(r.borrower == _user){\n                //The borrower is borrowing \n                if(r.borrowEndTime>_time){\n                    return true;\n                }\n            }else{\n                if(_user==erc721.ownerOf(_tokenId)){\n                    //The deposit end\n                    if(r.start + r.times*86400<_time){\n                        return true;\n                    }\n                }\n            }\n        }\n        return false;\n    }\n\n    function cancelDeposit(uint256 _tokenId) external validNFToken(_tokenId){\n        require(\n            erc721.ownerOf(_tokenId) == msg.sender,\n            \"You are not the owner of this token!\"\n        );\n        Reservation memory r = reservations[_tokenId];\n        require(r.start != 0,\"This token is not deposited!\");\n        require(r.borrowEndTime<now,\"This token is borrowed!\");\n        delete reservations[_tokenId];\n        loanSet.remove(_tokenId);\n        emit TokenCancelDeposit(msg.sender,_tokenId,now);\n    }\n\n    function getLoanSize() external view returns(uint256){\n        return loanSet.length();\n    }\n\n    function getLoanList() external view returns (uint256[] memory) {\n        uint256 loanSize = loanSet.length();\n        uint256[] memory data = new uint256[](loanSize);\n        for (uint256 i = 0; i < loanSize; i++) {\n            data[i] = loanSet.at(i);\n        }\n        return data;\n    }\n\n    // struct Reservation {\n    //     uint256 tokenId;\n    //     address borrower;\n    //     uint256 borrowEndTime; //borrow end time\n    //     uint256 pricePerDay;\n    //     uint256 start; // loan start time\n    //     uint256 times; //loan for how many days\n    // }\n    function deposit(\n        uint256 _tokenId,\n        uint256 _days,\n        uint256 _pricePerDay\n    ) external validNFToken(_tokenId) {\n        require(_days <= maxLoanDay, \"The max loan time is 365 days!\");\n        require(_days>0,\"Can not loan for 0 day!\");\n        Reservation memory r = reservations[_tokenId];\n        if (r.start != 0) {\n            require(\n                r.start + r.times * 24 * 60 * 60 < now,\n                \"This token is in reservation!\"\n            );\n        }\n\n        require(\n            erc721.ownerOf(_tokenId) == msg.sender,\n            \"You are not the owner of this token!\"\n        );\n\n        require(ihotpot.getUseTime(_tokenId)+86400<now,\"This member card is used today!\");\n\n        reservations[_tokenId].tokenId = _tokenId;\n        reservations[_tokenId].start = now;\n        reservations[_tokenId].times = _days;\n        reservations[_tokenId].borrowEndTime = 0;\n        reservations[_tokenId].borrower = address(0);\n        reservations[_tokenId].pricePerDay = _pricePerDay;\n\n        loanSet.add(_tokenId);\n        emit TokenDeposit(msg.sender, _tokenId, now, _days, _pricePerDay);\n    }\n\n    function getBlockTime() external view returns(uint256){\n        return now;\n    }\n\n    function borrow(uint256 _tokenId, uint256 _days)\n        external\n        validNFToken(_tokenId)\n    {\n        require(_days < maxLoanDay, \"The max loan time is 365 days!\");\n        Reservation memory r = reservations[_tokenId];\n        require(r.start != 0, \"This token can not be borrowed!\");\n        require(\n            erc721.ownerOf(_tokenId) != msg.sender,\n            \"You are the owner of this token!\"\n        );\n        require(r.borrowEndTime < now, \"This token is borrowed!\");\n        require(\n            //thresholdTime\n            r.start + r.times * 86400 > now +thresholdTime,\n            \"This token is not loan now!\"\n        );\n        require(\n            r.start + r.times * 86400 + 86400 - thresholdTime > now + _days * 86400,\n            \"This token can not be borrowed for so long!\"\n        );\n\n        uint256 totalPrice = r.pricePerDay.mul(_days);\n\n        require(erc20.balanceOf(msg.sender)>=totalPrice,\"You don't have enough hotpot!\");\n\n        uint256 devPrice = totalPrice.mul(devRatio).div(100);\n        uint256 rewardPrice = totalPrice.mul(rewardRatio).div(100);\n\n        uint256 loanPrice = totalPrice.sub(rewardPrice).sub(devPrice);\n\n        erc20.safeTransferFrom(msg.sender, erc721.ownerOf(_tokenId), loanPrice);\n\n        erc20.safeTransferFrom(msg.sender, devAddress, devPrice);\n\n        erc20.safeTransferFrom(msg.sender, rewardAddress, rewardPrice);\n\n        r.borrowEndTime = now + _days * 86400;\n        r.borrower = msg.sender;\n        reservations[_tokenId] = r;\n\n        emit TokenBorrowed(msg.sender, _tokenId, now, _days, r.pricePerDay);\n    }\n}\n",
  "sourcePath": "/Users/junhu/git/hotpotcontract/truffle/contracts/loan/Loan.sol",
  "compiler": {
    "name": "solc",
    "version": "0.6.2+commit.bacdbe57.Emscripten.clang"
  },
  "schemaVersion": "3.3.0",
  "updatedAt": "2020-10-23T06:07:45.042Z",
  "networkType": "ethereum",
  "devdoc": {
    "methods": {
      "owner()": {
        "details": "Returns the address of the current owner."
      },
      "renounceOwnership()": {
        "details": "Leaves the contract without owner. It will not be possible to call `onlyOwner` functions anymore. Can only be called by the current owner.     * NOTE: Renouncing ownership will leave the contract without an owner, thereby removing any functionality that is only available to the owner."
      },
      "transferOwnership(address)": {
        "details": "Transfers ownership of the contract to a new account (`newOwner`). Can only be called by the current owner."
      }
    }
  },
  "userdoc": {
    "methods": {}
  }
}