{
  "contractName": "Loan",
  "abi": [
    {
      "inputs": [
        {
          "internalType": "address",
          "name": "_erc721",
          "type": "address"
        },
        {
          "internalType": "address",
          "name": "_erc20",
          "type": "address"
        }
      ],
      "stateMutability": "nonpayable",
      "type": "constructor"
    },
    {
      "anonymous": false,
      "inputs": [
        {
          "indexed": true,
          "internalType": "address",
          "name": "previousOwner",
          "type": "address"
        },
        {
          "indexed": true,
          "internalType": "address",
          "name": "newOwner",
          "type": "address"
        }
      ],
      "name": "OwnershipTransferred",
      "type": "event"
    },
    {
      "anonymous": false,
      "inputs": [
        {
          "indexed": false,
          "internalType": "address",
          "name": "account",
          "type": "address"
        }
      ],
      "name": "Paused",
      "type": "event"
    },
    {
      "anonymous": false,
      "inputs": [
        {
          "indexed": true,
          "internalType": "address",
          "name": "borrower",
          "type": "address"
        },
        {
          "indexed": true,
          "internalType": "uint256",
          "name": "tokenId",
          "type": "uint256"
        },
        {
          "indexed": true,
          "internalType": "uint256",
          "name": "start",
          "type": "uint256"
        },
        {
          "indexed": false,
          "internalType": "uint256",
          "name": "borrowDays",
          "type": "uint256"
        },
        {
          "indexed": false,
          "internalType": "uint256",
          "name": "pricePerDay",
          "type": "uint256"
        }
      ],
      "name": "TokenBorrowed",
      "type": "event"
    },
    {
      "anonymous": false,
      "inputs": [
        {
          "indexed": true,
          "internalType": "address",
          "name": "owner",
          "type": "address"
        },
        {
          "indexed": true,
          "internalType": "uint256",
          "name": "tokenId",
          "type": "uint256"
        },
        {
          "indexed": true,
          "internalType": "uint256",
          "name": "cancleTime",
          "type": "uint256"
        }
      ],
      "name": "TokenCancelDeposit",
      "type": "event"
    },
    {
      "anonymous": false,
      "inputs": [
        {
          "indexed": true,
          "internalType": "address",
          "name": "owner",
          "type": "address"
        },
        {
          "indexed": true,
          "internalType": "uint256",
          "name": "tokenId",
          "type": "uint256"
        },
        {
          "indexed": true,
          "internalType": "uint256",
          "name": "start",
          "type": "uint256"
        },
        {
          "indexed": false,
          "internalType": "uint256",
          "name": "depositDays",
          "type": "uint256"
        },
        {
          "indexed": false,
          "internalType": "uint256",
          "name": "pricePerDay",
          "type": "uint256"
        }
      ],
      "name": "TokenDeposit",
      "type": "event"
    },
    {
      "anonymous": false,
      "inputs": [
        {
          "indexed": false,
          "internalType": "address",
          "name": "account",
          "type": "address"
        }
      ],
      "name": "Unpaused",
      "type": "event"
    },
    {
      "inputs": [],
      "name": "devAddress",
      "outputs": [
        {
          "internalType": "address",
          "name": "",
          "type": "address"
        }
      ],
      "stateMutability": "view",
      "type": "function",
      "constant": true
    },
    {
      "inputs": [],
      "name": "devRatio",
      "outputs": [
        {
          "internalType": "uint256",
          "name": "",
          "type": "uint256"
        }
      ],
      "stateMutability": "view",
      "type": "function",
      "constant": true
    },
    {
      "inputs": [],
      "name": "erc20",
      "outputs": [
        {
          "internalType": "contract IERC20",
          "name": "",
          "type": "address"
        }
      ],
      "stateMutability": "view",
      "type": "function",
      "constant": true
    },
    {
      "inputs": [],
      "name": "erc721",
      "outputs": [
        {
          "internalType": "contract IERC721",
          "name": "",
          "type": "address"
        }
      ],
      "stateMutability": "view",
      "type": "function",
      "constant": true
    },
    {
      "inputs": [],
      "name": "ihotpot",
      "outputs": [
        {
          "internalType": "contract IHotPot",
          "name": "",
          "type": "address"
        }
      ],
      "stateMutability": "view",
      "type": "function",
      "constant": true
    },
    {
      "inputs": [],
      "name": "maxLoanDay",
      "outputs": [
        {
          "internalType": "uint256",
          "name": "",
          "type": "uint256"
        }
      ],
      "stateMutability": "view",
      "type": "function",
      "constant": true
    },
    {
      "inputs": [],
      "name": "owner",
      "outputs": [
        {
          "internalType": "address",
          "name": "",
          "type": "address"
        }
      ],
      "stateMutability": "view",
      "type": "function",
      "constant": true
    },
    {
      "inputs": [],
      "name": "paused",
      "outputs": [
        {
          "internalType": "bool",
          "name": "",
          "type": "bool"
        }
      ],
      "stateMutability": "view",
      "type": "function",
      "constant": true
    },
    {
      "inputs": [],
      "name": "renounceOwnership",
      "outputs": [],
      "stateMutability": "nonpayable",
      "type": "function"
    },
    {
      "inputs": [
        {
          "internalType": "uint256",
          "name": "",
          "type": "uint256"
        }
      ],
      "name": "reservations",
      "outputs": [
        {
          "internalType": "uint256",
          "name": "tokenId",
          "type": "uint256"
        },
        {
          "internalType": "address",
          "name": "owner",
          "type": "address"
        },
        {
          "internalType": "address",
          "name": "borrower",
          "type": "address"
        },
        {
          "internalType": "uint256",
          "name": "borrowEndTime",
          "type": "uint256"
        },
        {
          "internalType": "uint256",
          "name": "pricePerDay",
          "type": "uint256"
        },
        {
          "internalType": "uint256",
          "name": "start",
          "type": "uint256"
        },
        {
          "internalType": "uint256",
          "name": "times",
          "type": "uint256"
        }
      ],
      "stateMutability": "view",
      "type": "function",
      "constant": true
    },
    {
      "inputs": [],
      "name": "rewardAddress",
      "outputs": [
        {
          "internalType": "address",
          "name": "",
          "type": "address"
        }
      ],
      "stateMutability": "view",
      "type": "function",
      "constant": true
    },
    {
      "inputs": [],
      "name": "rewardRatio",
      "outputs": [
        {
          "internalType": "uint256",
          "name": "",
          "type": "uint256"
        }
      ],
      "stateMutability": "view",
      "type": "function",
      "constant": true
    },
    {
      "inputs": [],
      "name": "thresholdTime",
      "outputs": [
        {
          "internalType": "uint256",
          "name": "",
          "type": "uint256"
        }
      ],
      "stateMutability": "view",
      "type": "function",
      "constant": true
    },
    {
      "inputs": [
        {
          "internalType": "address",
          "name": "newOwner",
          "type": "address"
        }
      ],
      "name": "transferOwnership",
      "outputs": [],
      "stateMutability": "nonpayable",
      "type": "function"
    },
    {
      "inputs": [
        {
          "internalType": "address",
          "name": "_dev",
          "type": "address"
        }
      ],
      "name": "setDevAddress",
      "outputs": [],
      "stateMutability": "nonpayable",
      "type": "function"
    },
    {
      "inputs": [
        {
          "internalType": "address",
          "name": "_addr",
          "type": "address"
        }
      ],
      "name": "setRewardAddress",
      "outputs": [],
      "stateMutability": "nonpayable",
      "type": "function"
    },
    {
      "inputs": [
        {
          "internalType": "uint256",
          "name": "_ratio",
          "type": "uint256"
        }
      ],
      "name": "setRewardRatio",
      "outputs": [],
      "stateMutability": "nonpayable",
      "type": "function"
    },
    {
      "inputs": [
        {
          "internalType": "uint256",
          "name": "_ratio",
          "type": "uint256"
        }
      ],
      "name": "setDevRatio",
      "outputs": [],
      "stateMutability": "nonpayable",
      "type": "function"
    },
    {
      "inputs": [
        {
          "internalType": "address",
          "name": "_user",
          "type": "address"
        },
        {
          "internalType": "uint256",
          "name": "_tokenId",
          "type": "uint256"
        },
        {
          "internalType": "uint256",
          "name": "_time",
          "type": "uint256"
        }
      ],
      "name": "checkPrivilege",
      "outputs": [
        {
          "internalType": "bool",
          "name": "",
          "type": "bool"
        }
      ],
      "stateMutability": "view",
      "type": "function",
      "constant": true
    },
    {
      "inputs": [
        {
          "internalType": "uint256",
          "name": "_tokenId",
          "type": "uint256"
        },
        {
          "internalType": "uint256",
          "name": "_time",
          "type": "uint256"
        }
      ],
      "name": "checkCanSell",
      "outputs": [
        {
          "internalType": "bool",
          "name": "",
          "type": "bool"
        }
      ],
      "stateMutability": "view",
      "type": "function",
      "constant": true
    },
    {
      "inputs": [
        {
          "internalType": "uint256",
          "name": "_tokenId",
          "type": "uint256"
        }
      ],
      "name": "cancelDeposit",
      "outputs": [],
      "stateMutability": "nonpayable",
      "type": "function"
    },
    {
      "inputs": [],
      "name": "getLoanSize",
      "outputs": [
        {
          "internalType": "uint256",
          "name": "",
          "type": "uint256"
        }
      ],
      "stateMutability": "view",
      "type": "function",
      "constant": true
    },
    {
      "inputs": [],
      "name": "getLoanList",
      "outputs": [
        {
          "internalType": "uint256[]",
          "name": "",
          "type": "uint256[]"
        }
      ],
      "stateMutability": "view",
      "type": "function",
      "constant": true
    },
    {
      "inputs": [
        {
          "internalType": "uint256",
          "name": "_tokenId",
          "type": "uint256"
        },
        {
          "internalType": "uint256",
          "name": "_days",
          "type": "uint256"
        },
        {
          "internalType": "uint256",
          "name": "_pricePerDay",
          "type": "uint256"
        }
      ],
      "name": "deposit",
      "outputs": [],
      "stateMutability": "nonpayable",
      "type": "function"
    },
    {
      "inputs": [
        {
          "internalType": "uint256",
          "name": "_tokenId",
          "type": "uint256"
        },
        {
          "internalType": "uint256",
          "name": "_days",
          "type": "uint256"
        }
      ],
      "name": "borrow",
      "outputs": [],
      "stateMutability": "nonpayable",
      "type": "function"
    },
    {
      "inputs": [],
      "name": "pause",
      "outputs": [],
      "stateMutability": "nonpayable",
      "type": "function"
    },
    {
      "inputs": [],
      "name": "unpause",
      "outputs": [],
      "stateMutability": "nonpayable",
      "type": "function"
    }
  ],
  "bytecode": "0x608060405260026007556004600855610708600c5561016d600d553480156200002757600080fd5b5060405162002db938038062002db9833981810160405260408110156200004d57600080fd5b50805160209091015160006200006b6001600160e01b03620001f816565b600080546001600160a01b0319166001600160a01b0383169081178255604051929350917f8be0079c531659141344cd1fd0a4f28419497f9722a3daafe3b4186f6b6457e0908290a350600180556002805460ff19169055620000e36001600160a01b038316620001fc602090811b62002a1917901c565b62000135576040805162461bcd60e51b815260206004820152601f60248201527f4552433732312061646472657373206973206e6f7420636f6e74726163742100604482015290519081900360640190fd5b62000154816001600160a01b0316620001fc60201b62002a191760201c565b620001a6576040805162461bcd60e51b815260206004820152601a60248201527f4552433230206164647265737320697320636f6e747261637421000000000000604482015290519081900360640190fd5b600280546001600160a01b039384166101008102610100600160a81b03199092169190911790915560038054929093166001600160a01b03199283161790925560048054909116909117905562000202565b3390565b3b151590565b612ba780620002126000396000f3fe608060405234801561001057600080fd5b50600436106101b85760003560e01c8063715018a6116100f95780639930f87611610097578063bca6ce6411610071578063bca6ce6414610440578063c1a816ce14610448578063d0d41fe114610450578063f2fde38b14610476576101b8565b80639930f876146103fe578063a943600d14610406578063ad1848df14610423576101b8565b80638456cb59116100d35780638456cb59146103de57806386615668146103e65780638cf57cb9146103ee5780638da5cb5b146103f6576101b8565b8063715018a6146103b157806372fada5c146103b9578063785e9e86146103d6576101b8565b8063300730bd116101665780633f4ba83a116101405780633f4ba83a146103735780635c975abb1461037b5780635e00e67914610383578063646033bc146103a9576101b8565b8063300730bd146102e15780633130c3ae146103395780633ad10ef61461036b576101b8565b806311102d4d1161019757806311102d4d1461026c57806315b1c382146102865780632cbac7a8146102bd576101b8565b8062aeef8a146101bd578063067cf832146101e85780630ecbcdab14610249575b600080fd5b6101e6600480360360608110156101d357600080fd5b508035906020810135906040013561049c565b005b610205600480360360208110156101fe57600080fd5b5035610a2b565b604080519788526001600160a01b03968716602089015294909516868501526060860192909252608085015260a084015260c0830191909152519081900360e00190f35b6101e66004803603604081101561025f57600080fd5b5080359060200135610a74565b61027461121d565b60408051918252519081900360200190f35b6102a96004803603604081101561029c57600080fd5b5080359060200135611223565b604080519115158252519081900360200190f35b6102c56113b7565b604080516001600160a01b039092168252519081900360200190f35b6102e96113c6565b60408051602080825283518183015283519192839290830191858101910280838360005b8381101561032557818101518382015260200161030d565b505050509050019250505060405180910390f35b6102a96004803603606081101561034f57600080fd5b506001600160a01b038135169060208101359060400135611447565b6102c5611734565b6101e6611743565b6102a96117b7565b6101e66004803603602081101561039957600080fd5b50356001600160a01b03166117c0565b6102746118bf565b6101e66118c5565b6101e6600480360360208110156103cf57600080fd5b5035611991565b6102c5611db2565b6101e6611dc1565b610274611e33565b6102c5611e39565b6102c5611e48565b610274611e57565b6101e66004803603602081101561041c57600080fd5b5035611e5d565b6101e66004803603602081101561043957600080fd5b5035611f0b565b6102c5611fb9565b610274611fcd565b6101e66004803603602081101561046657600080fd5b50356001600160a01b0316611fde565b6101e66004803603602081101561048c57600080fd5b50356001600160a01b03166120dd565b600254604080516331a9108f60e11b815260048101869052905185926000926101009091046001600160a01b031691636352211e91602480820192602092909190829003018186803b1580156104f157600080fd5b505afa158015610505573d6000803e3d6000fd5b505050506040513d602081101561051b57600080fd5b50516001600160a01b03161415610579576040805162461bcd60e51b815260206004820152601660248201527f4974206973206e6f742061204e465420746f6b656e2100000000000000000000604482015290519081900360640190fd5b60025460ff16156105d1576040805162461bcd60e51b815260206004820152601060248201527f5061757361626c653a2070617573656400000000000000000000000000000000604482015290519081900360640190fd5b60026001541415610629576040805162461bcd60e51b815260206004820152601f60248201527f5265656e7472616e637947756172643a207265656e7472616e742063616c6c00604482015290519081900360640190fd5b6002600155600d54831115610685576040805162461bcd60e51b815260206004820152601e60248201527f546865206d6178206c6f616e2074696d65206973203336352064617973210000604482015290519081900360640190fd5b600083116106da576040805162461bcd60e51b815260206004820152601760248201527f43616e206e6f74206c6f616e20666f7220302064617921000000000000000000604482015290519081900360640190fd5b600254604080516331a9108f60e11b8152600481018790529051339261010090046001600160a01b031691636352211e916024808301926020929190829003018186803b15801561072a57600080fd5b505afa15801561073e573d6000803e3d6000fd5b505050506040513d602081101561075457600080fd5b50516001600160a01b03161461079b5760405162461bcd60e51b8152600401808060200182810382526024815260200180612ab76024913960400191505060405180910390fd5b6107a3612a1f565b50600084815260096020908152604091829020825160e0810184528154815260018201546001600160a01b03908116938201939093526002820154909216928201929092526003820154606082015260048201546080820152600582015460a0820181905260069092015460c0820152901561087e5760c081015160a08201514262015180909202011061087e576040805162461bcd60e51b815260206004820152601d60248201527f5468697320746f6b656e20697320696e207265736572766174696f6e21000000604482015290519081900360640190fd5b60048054604080517f5840e6590000000000000000000000000000000000000000000000000000000081529283018890525142926001600160a01b0390921691635840e659916024808301926020929190829003018186803b1580156108e357600080fd5b505afa1580156108f7573d6000803e3d6000fd5b505050506040513d602081101561090d57600080fd5b5051620151800110610966576040805162461bcd60e51b815260206004820152601f60248201527f54686973206d656d6265722063617264206973207573656420746f6461792100604482015290519081900360640190fd5b6000858152600960205260408120868155426005820155600681018690556001810180547fffffffffffffffffffffffff0000000000000000000000000000000000000000908116331790915560038201929092556002810180549092169091556004018390556109de600a8663ffffffff6121ff16565b50604080518581526020810185905281514292889233927f0cc4e403e8909e2f133bbdf8120cd4ee94c82bd60c8bf7ccd55532643780dd2d929181900390910190a4505060018055505050565b600960205260009081526040902080546001820154600283015460038401546004850154600586015460069096015494956001600160a01b039485169594909316939192909187565b60026001541415610acc576040805162461bcd60e51b815260206004820152601f60248201527f5265656e7472616e637947756172643a207265656e7472616e742063616c6c00604482015290519081900360640190fd5b600260018190555460ff1615610b29576040805162461bcd60e51b815260206004820152601060248201527f5061757361626c653a2070617573656400000000000000000000000000000000604482015290519081900360640190fd5b600254604080516331a9108f60e11b815260048101859052905184926000926101009091046001600160a01b031691636352211e91602480820192602092909190829003018186803b158015610b7e57600080fd5b505afa158015610b92573d6000803e3d6000fd5b505050506040513d6020811015610ba857600080fd5b50516001600160a01b03161415610c06576040805162461bcd60e51b815260206004820152601660248201527f4974206973206e6f742061204e465420746f6b656e2100000000000000000000604482015290519081900360640190fd5b600d548210610c5c576040805162461bcd60e51b815260206004820152601e60248201527f546865206d6178206c6f616e2074696d65206973203336352064617973210000604482015290519081900360640190fd5b610c64612a1f565b50600083815260096020908152604091829020825160e0810184528154815260018201546001600160a01b03908116938201939093526002820154909216928201929092526003820154606082015260048201546080820152600582015460a0820181905260069092015460c082015290610d26576040805162461bcd60e51b815260206004820152601f60248201527f5468697320746f6b656e2063616e206e6f7420626520626f72726f7765642100604482015290519081900360640190fd5b600254604080516331a9108f60e11b8152600481018790529051339261010090046001600160a01b031691636352211e916024808301926020929190829003018186803b158015610d7657600080fd5b505afa158015610d8a573d6000803e3d6000fd5b505050506040513d6020811015610da057600080fd5b50516001600160a01b03161415610dfe576040805162461bcd60e51b815260206004820181905260248201527f596f752061726520746865206f776e6572206f66207468697320746f6b656e21604482015290519081900360640190fd5b42816060015110610e56576040805162461bcd60e51b815260206004820152601760248201527f5468697320746f6b656e20697320626f72726f77656421000000000000000000604482015290519081900360640190fd5b600c5442018160c0015162015180028260a001510111610ebd576040805162461bcd60e51b815260206004820152601b60248201527f5468697320746f6b656e206973206e6f74206c6f616e206e6f77210000000000604482015290519081900360640190fd5b8262015180024201600c548260c0015162015180028360a001510162015180010311610f1a5760405162461bcd60e51b815260040180806020018281038252602b815260200180612afc602b913960400191505060405180910390fd5b6080810151600090610f32908563ffffffff61221416565b600354604080517f70a08231000000000000000000000000000000000000000000000000000000008152336004820152905192935083926001600160a01b03909216916370a0823191602480820192602092909190829003018186803b158015610f9b57600080fd5b505afa158015610faf573d6000803e3d6000fd5b505050506040513d6020811015610fc557600080fd5b5051101561101a576040805162461bcd60e51b815260206004820152601d60248201527f596f7520646f6e2774206861766520656e6f75676820686f74706f7421000000604482015290519081900360640190fd5b600061104260646110366007548561221490919063ffffffff16565b9063ffffffff61226d16565b9050600061106060646110366008548661221490919063ffffffff16565b9050600061108483611078868563ffffffff6122af16565b9063ffffffff6122af16565b600089815260096020526040902042620151808a0201600380830191909155600290910180547fffffffffffffffffffffffff0000000000000000000000000000000000000000163390811790915560055491549293506110f8926001600160a01b0390811692168663ffffffff6122f116565b60065460035461111d916001600160a01b03918216913391168563ffffffff6122f116565b6111c033600260019054906101000a90046001600160a01b03166001600160a01b0316636352211e8b6040518263ffffffff1660e01b81526004018082815260200191505060206040518083038186803b15801561117a57600080fd5b505afa15801561118e573d6000803e3d6000fd5b505050506040513d60208110156111a457600080fd5b50516003546001600160a01b031691908463ffffffff6122f116565b4288336001600160a01b03167f6ac928dde278fc1323b10a16dfbc196aeef1ea86229a7653b0d581edcb4d03708a8960800151604051808381526020018281526020019250505060405180910390a4505060018055505050505050565b60075481565b600254604080516331a9108f60e11b8152600481018590529051600092859284926101009092046001600160a01b031691636352211e91602480820192602092909190829003018186803b15801561127a57600080fd5b505afa15801561128e573d6000803e3d6000fd5b505050506040513d60208110156112a457600080fd5b50516001600160a01b03161415611302576040805162461bcd60e51b815260206004820152601660248201527f4974206973206e6f742061204e465420746f6b656e2100000000000000000000604482015290519081900360640190fd5b61130a612a1f565b50600084815260096020908152604091829020825160e0810184528154815260018201546001600160a01b03908116938201939093526002820154909216928201929092526003820154606082015260048201546080820152600582015460a0820181905260069092015460c0820152906113895760019250506113b0565b838160c0015162015180028260a001510110156113aa5760019250506113b0565b60009250505b5092915050565b6004546001600160a01b031681565b606060006113d4600a61237f565b9050606081604051908082528060200260200182016040528015611402578160200160208202803883390190505b50905060005b8281101561144057611421600a8263ffffffff61238a16565b82828151811061142d57fe5b6020908102919091010152600101611408565b5091505090565b600254604080516331a9108f60e11b8152600481018590529051600092859284926101009092046001600160a01b031691636352211e91602480820192602092909190829003018186803b15801561149e57600080fd5b505afa1580156114b2573d6000803e3d6000fd5b505050506040513d60208110156114c857600080fd5b50516001600160a01b03161415611526576040805162461bcd60e51b815260206004820152601660248201527f4974206973206e6f742061204e465420746f6b656e2100000000000000000000604482015290519081900360640190fd5b61152e612a1f565b50600084815260096020908152604091829020825160e0810184528154815260018201546001600160a01b03908116938201939093526002820154909216928201929092526003820154606082015260048201546080820152600582015460a0820181905260069092015460c08201529061163457600254604080516331a9108f60e11b81526004810188905290516001600160a01b03808a169361010090041691636352211e916024808301926020929190829003018186803b1580156115f557600080fd5b505afa158015611609573d6000803e3d6000fd5b505050506040513d602081101561161f57600080fd5b50516001600160a01b031614925061172c9050565b856001600160a01b031681604001516001600160a01b0316141561166d57838160600151111561166857600192505061172c565b611726565b600260019054906101000a90046001600160a01b03166001600160a01b0316636352211e866040518263ffffffff1660e01b81526004018082815260200191505060206040518083038186803b1580156116c657600080fd5b505afa1580156116da573d6000803e3d6000fd5b505050506040513d60208110156116f057600080fd5b50516001600160a01b038781169116141561172657838160c0015162015180028260a0015101101561172657600192505061172c565b60009250505b509392505050565b6005546001600160a01b031681565b61174b612396565b6000546001600160a01b039081169116146117ad576040805162461bcd60e51b815260206004820181905260248201527f4f776e61626c653a2063616c6c6572206973206e6f7420746865206f776e6572604482015290519081900360640190fd5b6117b561239a565b565b60025460ff1690565b6117c8612396565b6000546001600160a01b0390811691161461182a576040805162461bcd60e51b815260206004820181905260248201527f4f776e61626c653a2063616c6c6572206973206e6f7420746865206f776e6572604482015290519081900360640190fd5b6001600160a01b038116611885576040805162461bcd60e51b815260206004820152601560248201527f416464726573732063616e206e6f7420626520302e0000000000000000000000604482015290519081900360640190fd5b600680547fffffffffffffffffffffffff0000000000000000000000000000000000000000166001600160a01b0392909216919091179055565b60085481565b6118cd612396565b6000546001600160a01b0390811691161461192f576040805162461bcd60e51b815260206004820181905260248201527f4f776e61626c653a2063616c6c6572206973206e6f7420746865206f776e6572604482015290519081900360640190fd5b600080546040516001600160a01b03909116907f8be0079c531659141344cd1fd0a4f28419497f9722a3daafe3b4186f6b6457e0908390a3600080547fffffffffffffffffffffffff0000000000000000000000000000000000000000169055565b60025460ff16156119e9576040805162461bcd60e51b815260206004820152601060248201527f5061757361626c653a2070617573656400000000000000000000000000000000604482015290519081900360640190fd5b600254604080516331a9108f60e11b815260048101849052905183926000926101009091046001600160a01b031691636352211e91602480820192602092909190829003018186803b158015611a3e57600080fd5b505afa158015611a52573d6000803e3d6000fd5b505050506040513d6020811015611a6857600080fd5b50516001600160a01b03161415611ac6576040805162461bcd60e51b815260206004820152601660248201527f4974206973206e6f742061204e465420746f6b656e2100000000000000000000604482015290519081900360640190fd5b60026001541415611b1e576040805162461bcd60e51b815260206004820152601f60248201527f5265656e7472616e637947756172643a207265656e7472616e742063616c6c00604482015290519081900360640190fd5b6002600181905554604080516331a9108f60e11b8152600481018590529051339261010090046001600160a01b031691636352211e916024808301926020929190829003018186803b158015611b7357600080fd5b505afa158015611b87573d6000803e3d6000fd5b505050506040513d6020811015611b9d57600080fd5b50516001600160a01b031614611be45760405162461bcd60e51b8152600401808060200182810382526024815260200180612ab76024913960400191505060405180910390fd5b611bec612a1f565b50600082815260096020908152604091829020825160e0810184528154815260018201546001600160a01b03908116938201939093526002820154909216928201929092526003820154606082015260048201546080820152600582015460a0820181905260069092015460c082015290611cae576040805162461bcd60e51b815260206004820152601c60248201527f5468697320746f6b656e206973206e6f74206465706f73697465642100000000604482015290519081900360640190fd5b42816060015110611d06576040805162461bcd60e51b815260206004820152601760248201527f5468697320746f6b656e20697320626f72726f77656421000000000000000000604482015290519081900360640190fd5b60008381526009602052604081208181556001810180547fffffffffffffffffffffffff0000000000000000000000000000000000000000908116909155600282018054909116905560038101829055600481018290556005810182905560060155611d79600a8463ffffffff61245f16565b506040514290849033907f8ab7fda4125e30db8c138b15deb711b89e21e1c06d7e1e5bb5111ed59324df3390600090a450506001805550565b6003546001600160a01b031681565b611dc9612396565b6000546001600160a01b03908116911614611e2b576040805162461bcd60e51b815260206004820181905260248201527f4f776e61626c653a2063616c6c6572206973206e6f7420746865206f776e6572604482015290519081900360640190fd5b6117b561246b565b600d5481565b6006546001600160a01b031681565b6000546001600160a01b031690565b600c5481565b611e65612396565b6000546001600160a01b03908116911614611ec7576040805162461bcd60e51b815260206004820181905260248201527f4f776e61626c653a2063616c6c6572206973206e6f7420746865206f776e6572604482015290519081900360640190fd5b600a8110611f065760405162461bcd60e51b8152600401808060200182810382526021815260200180612b516021913960400191505060405180910390fd5b600855565b611f13612396565b6000546001600160a01b03908116911614611f75576040805162461bcd60e51b815260206004820181905260248201527f4f776e61626c653a2063616c6c6572206973206e6f7420746865206f776e6572604482015290519081900360640190fd5b600a8110611fb45760405162461bcd60e51b8152600401808060200182810382526021815260200180612b516021913960400191505060405180910390fd5b600755565b60025461010090046001600160a01b031681565b6000611fd9600a61237f565b905090565b611fe6612396565b6000546001600160a01b03908116911614612048576040805162461bcd60e51b815260206004820181905260248201527f4f776e61626c653a2063616c6c6572206973206e6f7420746865206f776e6572604482015290519081900360640190fd5b6001600160a01b0381166120a3576040805162461bcd60e51b815260206004820152601560248201527f416464726573732063616e206e6f7420626520302e0000000000000000000000604482015290519081900360640190fd5b600580547fffffffffffffffffffffffff0000000000000000000000000000000000000000166001600160a01b0392909216919091179055565b6120e5612396565b6000546001600160a01b03908116911614612147576040805162461bcd60e51b815260206004820181905260248201527f4f776e61626c653a2063616c6c6572206973206e6f7420746865206f776e6572604482015290519081900360640190fd5b6001600160a01b03811661218c5760405162461bcd60e51b8152600401808060200182810382526026815260200180612a916026913960400191505060405180910390fd5b600080546040516001600160a01b03808516939216917f8be0079c531659141344cd1fd0a4f28419497f9722a3daafe3b4186f6b6457e091a3600080547fffffffffffffffffffffffff0000000000000000000000000000000000000000166001600160a01b0392909216919091179055565b600061220b8383612517565b90505b92915050565b6000826122235750600061220e565b8282028284828161223057fe5b041461220b5760405162461bcd60e51b8152600401808060200182810382526021815260200180612adb6021913960400191505060405180910390fd5b600061220b83836040518060400160405280601a81526020017f536166654d6174683a206469766973696f6e206279207a65726f000000000000815250612561565b600061220b83836040518060400160405280601e81526020017f536166654d6174683a207375627472616374696f6e206f766572666c6f770000815250612603565b604080516001600160a01b0380861660248301528416604482015260648082018490528251808303909101815260849091019091526020810180517bffffffffffffffffffffffffffffffffffffffffffffffffffffffff167f23b872dd0000000000000000000000000000000000000000000000000000000017905261237990859061265d565b50505050565b600061220e82612713565b600061220b8383612717565b3390565b60025460ff166123f1576040805162461bcd60e51b815260206004820152601460248201527f5061757361626c653a206e6f7420706175736564000000000000000000000000604482015290519081900360640190fd5b600280547fffffffffffffffffffffffffffffffffffffffffffffffffffffffffffffff001690557f5db9ee0a495bf2e6ff9c91a7834c1ba4fdd244a5e8aa4e537bd38aeae4b073aa612442612396565b604080516001600160a01b039092168252519081900360200190a1565b600061220b838361277b565b60025460ff16156124c3576040805162461bcd60e51b815260206004820152601060248201527f5061757361626c653a2070617573656400000000000000000000000000000000604482015290519081900360640190fd5b600280547fffffffffffffffffffffffffffffffffffffffffffffffffffffffffffffff001660011790557f62e78cea01bee320cd4e420270b5ea74000d11b0c9f74754ebdbfc544b05a258612442612396565b6000612523838361285f565b6125595750815460018181018455600084815260208082209093018490558454848252828601909352604090209190915561220e565b50600061220e565b600081836125ed5760405162461bcd60e51b81526004018080602001828103825283818151815260200191508051906020019080838360005b838110156125b257818101518382015260200161259a565b50505050905090810190601f1680156125df5780820380516001836020036101000a031916815260200191505b509250505060405180910390fd5b5060008385816125f957fe5b0495945050505050565b600081848411156126555760405162461bcd60e51b81526020600482018181528351602484015283519092839260449091019190850190808383600083156125b257818101518382015260200161259a565b505050900390565b60606126b2826040518060400160405280602081526020017f5361666545524332303a206c6f772d6c6576656c2063616c6c206661696c6564815250856001600160a01b03166128779092919063ffffffff16565b80519091501561270e578080602001905160208110156126d157600080fd5b505161270e5760405162461bcd60e51b815260040180806020018281038252602a815260200180612b27602a913960400191505060405180910390fd5b505050565b5490565b815460009082106127595760405162461bcd60e51b8152600401808060200182810382526022815260200180612a6f6022913960400191505060405180910390fd5b82600001828154811061276857fe5b9060005260206000200154905092915050565b600081815260018301602052604081205480156128555783547fffffffffffffffffffffffffffffffffffffffffffffffffffffffffffffffff80830191908101906000908790839081106127cc57fe5b90600052602060002001549050808760000184815481106127e957fe5b60009182526020808320909101929092558281526001898101909252604090209084019055865487908061281957fe5b6001900381819060005260206000200160009055905586600101600087815260200190815260200160002060009055600194505050505061220e565b600091505061220e565b60009081526001919091016020526040902054151590565b6060612886848460008561288e565b949350505050565b606061289985612a19565b6128ea576040805162461bcd60e51b815260206004820152601d60248201527f416464726573733a2063616c6c20746f206e6f6e2d636f6e7472616374000000604482015290519081900360640190fd5b60006060866001600160a01b031685876040518082805190602001908083835b6020831061294757805182527fffffffffffffffffffffffffffffffffffffffffffffffffffffffffffffffe0909201916020918201910161290a565b6001836020036101000a03801982511681845116808217855250505050505090500191505060006040518083038185875af1925050503d80600081146129a9576040519150601f19603f3d011682016040523d82523d6000602084013e6129ae565b606091505b509150915081156129c25791506128869050565b8051156129d25780518082602001fd5b60405162461bcd60e51b81526020600482018181528651602484015286518793919283926044019190850190808383600083156125b257818101518382015260200161259a565b3b151590565b6040518060e001604052806000815260200160006001600160a01b0316815260200160006001600160a01b0316815260200160008152602001600081526020016000815260200160008152509056fe456e756d657261626c655365743a20696e646578206f7574206f6620626f756e64734f776e61626c653a206e6577206f776e657220697320746865207a65726f2061646472657373596f7520617265206e6f7420746865206f776e6572206f66207468697320746f6b656e21536166654d6174683a206d756c7469706c69636174696f6e206f766572666c6f775468697320746f6b656e2063616e206e6f7420626520626f72726f77656420666f7220736f206c6f6e67215361666545524332303a204552433230206f7065726174696f6e20646964206e6f742073756363656564526174696f2063616e206e6f742062652067726561746572207468616e20313021a2646970667358221220ba63522f22c7268e7467f63c3795991db1f7a15e9f9cd2ca067f80fae2296d6c64736f6c63430006020033",
  "source": "pragma solidity ^0.6.0;\n\nimport \"@openzeppelin/contracts/math/SafeMath.sol\";\nimport \"@openzeppelin/contracts/utils/EnumerableSet.sol\";\nimport \"@openzeppelin/contracts/token/ERC20/IERC20.sol\";\nimport \"@openzeppelin/contracts/token/ERC20/SafeERC20.sol\";\nimport \"@openzeppelin/contracts/token/ERC721/IERC721.sol\";\nimport \"@openzeppelin/contracts/token/ERC721/IERC721Receiver.sol\";\nimport \"@openzeppelin/contracts/access/Ownable.sol\";\nimport \"@openzeppelin/contracts/utils/Address.sol\";\nimport \"../common/hotpotinterface.sol\";\nimport \"../common/ILoan.sol\";\nimport \"@openzeppelin/contracts/utils/ReentrancyGuard.sol\";\nimport \"@openzeppelin/contracts/utils/Pausable.sol\";\n\ncontract Loan is Ownable, ILoan,ReentrancyGuard,Pausable {\n    using Address for address;\n    using SafeERC20 for IERC20;\n    using SafeMath for uint256;\n    using EnumerableSet for EnumerableSet.UintSet;\n\n    IERC721 public erc721;\n    IERC20 public erc20;\n    IHotPot public ihotpot;\n\n    address public devAddress;\n    address public rewardAddress;\n\n    uint256 public devRatio = 2;\n    uint256 public rewardRatio = 4;\n\n    mapping(uint256 => Reservation) public reservations;\n    EnumerableSet.UintSet internal loanSet;\n\n    uint256 public thresholdTime = 30 * 60;\n    uint256 public maxLoanDay = 365;\n\n    event TokenDeposit(\n        address indexed owner,\n        uint256 indexed tokenId,\n        uint256 indexed start,\n        uint256 depositDays,\n        uint256 pricePerDay\n    );\n\n    event TokenCancelDeposit(\n        address indexed owner,\n        uint256 indexed tokenId,\n        uint256 indexed cancleTime\n    );\n\n    event TokenBorrowed(\n        address indexed borrower,\n        uint256 indexed tokenId,\n        uint256 indexed start,\n        uint256 borrowDays,\n        uint256 pricePerDay\n    );\n\n    struct Reservation {\n        uint256 tokenId;\n        address owner;\n        address borrower;\n        uint256 borrowEndTime; //borrow end time\n        uint256 pricePerDay;\n        uint256 start; // loan start time\n        uint256 times; //loan for how many days\n    }\n\n    modifier validNFToken(uint256 _tokenId) {\n        require(\n            erc721.ownerOf(_tokenId) != address(0),\n            \"It is not a NFT token!\"\n        );\n        _;\n    }\n\n    constructor(address _erc721, address _erc20) public {\n        require(_erc721.isContract(), \"ERC721 address is not contract!\");\n        require(_erc20.isContract(), \"ERC20 address is contract!\");\n        erc721 = IERC721(_erc721);\n        erc20 = IERC20(_erc20);\n        ihotpot = IHotPot(_erc721);\n    }\n\n    function setDevAddress(address _dev) external onlyOwner{\n        require(_dev!=address(0),\"Address can not be 0.\");\n        devAddress = _dev;\n    }\n\n    function setRewardAddress(address _addr) external onlyOwner{\n        require(_addr!=address(0),\"Address can not be 0.\");\n        rewardAddress = _addr;\n    }\n    \n    function setRewardRatio(uint256 _ratio) external onlyOwner{\n        require(_ratio<10,\"Ratio can not be greater than 10!\");\n        rewardRatio = _ratio;\n    }\n\n    function setDevRatio(uint256 _ratio) external onlyOwner{\n        require(_ratio<10,\"Ratio can not be greater than 10!\");\n        devRatio = _ratio;\n    }\n\n    function checkPrivilege(\n        address _user,\n        uint256 _tokenId,\n        uint256 _time\n    ) external override view validNFToken(_tokenId) returns (bool) {\n        //if the token is borrowed , the owner can not use it\n        Reservation memory r = reservations[_tokenId];\n\n        //The token is not deposited\n        if(r.start==0){\n            //The user must be the token owner\n            return erc721.ownerOf(_tokenId)==_user;\n        }\n        //The token is deposited\n        else{\n            if(r.borrower == _user){\n                //The borrower is borrowing \n                if(r.borrowEndTime>_time){\n                    return true;\n                }\n            }else{\n                if(_user==erc721.ownerOf(_tokenId)){\n                    //The deposit end\n                    if(r.start + r.times*86400<_time){\n                        return true;\n                    }\n                }\n            }\n        }\n        return false;\n    }\n\n    function checkCanSell(\n        uint256 _tokenId,\n        uint256 _time\n    ) external override view validNFToken(_tokenId) returns (bool){\n        Reservation memory r = reservations[_tokenId];\n        if(r.start==0){\n            return true;\n        }else{\n           if(r.start + r.times*86400<_time){\n                return true;\n            }\n        }\n        return false;\n    }\n\n    function cancelDeposit(uint256 _tokenId) external whenNotPaused validNFToken(_tokenId) nonReentrant{\n        require(\n            erc721.ownerOf(_tokenId) == msg.sender,\n            \"You are not the owner of this token!\"\n        );\n        Reservation memory r = reservations[_tokenId];\n        require(r.start != 0,\"This token is not deposited!\");\n        require(r.borrowEndTime<now,\"This token is borrowed!\");\n        delete reservations[_tokenId];\n        loanSet.remove(_tokenId);\n        emit TokenCancelDeposit(msg.sender,_tokenId,now);\n    }\n\n    function getLoanSize() external view returns(uint256){\n        return loanSet.length();\n    }\n\n    function getLoanList() external view returns (uint256[] memory) {\n        uint256 loanSize = loanSet.length();\n        uint256[] memory data = new uint256[](loanSize);\n        for (uint256 i = 0; i < loanSize; i++) {\n            data[i] = loanSet.at(i);\n        }\n        return data;\n    }\n\n    // struct Reservation {\n    //     uint256 tokenId;\n    //     address borrower;\n    //     uint256 borrowEndTime; //borrow end time\n    //     uint256 pricePerDay;\n    //     uint256 start; // loan start time\n    //     uint256 times; //loan for how many days\n    // }\n    function deposit(\n        uint256 _tokenId,\n        uint256 _days,\n        uint256 _pricePerDay\n    ) external validNFToken(_tokenId) whenNotPaused nonReentrant {\n        require(_days <= maxLoanDay, \"The max loan time is 365 days!\");\n        require(_days>0,\"Can not loan for 0 day!\");\n\n        require(\n            erc721.ownerOf(_tokenId) == msg.sender,\n            \"You are not the owner of this token!\"\n        );\n\n        Reservation memory r = reservations[_tokenId];\n        if (r.start != 0) {\n            require(\n                r.start + r.times * 24 * 60 * 60 < now,\n                \"This token is in reservation!\"\n            );\n        }\n\n        require(ihotpot.getUseTime(_tokenId)+86400<now,\"This member card is used today!\");\n\n        reservations[_tokenId].tokenId = _tokenId;\n        reservations[_tokenId].start = now;\n        reservations[_tokenId].times = _days;\n        reservations[_tokenId].owner = msg.sender;\n        reservations[_tokenId].borrowEndTime = 0;\n        reservations[_tokenId].borrower = address(0);\n        reservations[_tokenId].pricePerDay = _pricePerDay;\n\n        loanSet.add(_tokenId);\n        emit TokenDeposit(msg.sender, _tokenId, now, _days, _pricePerDay);\n    }\n\n    function borrow(uint256 _tokenId, uint256 _days)\n        external\n        nonReentrant\n        whenNotPaused\n        validNFToken(_tokenId)\n    {\n        require(_days < maxLoanDay, \"The max loan time is 365 days!\");\n        Reservation memory r = reservations[_tokenId];\n        require(r.start != 0, \"This token can not be borrowed!\");\n        require(\n            erc721.ownerOf(_tokenId) != msg.sender,\n            \"You are the owner of this token!\"\n        );\n        require(r.borrowEndTime < now, \"This token is borrowed!\");\n        require(\n            //thresholdTime\n            r.start + r.times * 86400 > now +thresholdTime,\n            \"This token is not loan now!\"\n        );\n        require(\n            r.start + r.times * 86400 + 86400 - thresholdTime > now + _days * 86400,\n            \"This token can not be borrowed for so long!\"\n        );\n\n        uint256 totalPrice = r.pricePerDay.mul(_days);\n\n        require(erc20.balanceOf(msg.sender)>=totalPrice,\"You don't have enough hotpot!\");\n\n        uint256 devPrice = totalPrice.mul(devRatio).div(100);\n        uint256 rewardPrice = totalPrice.mul(rewardRatio).div(100);\n\n        uint256 loanPrice = totalPrice.sub(rewardPrice).sub(devPrice);\n\n        reservations[_tokenId].borrowEndTime = now + _days * 86400;\n        reservations[_tokenId].borrower = msg.sender;\n\n\n        erc20.safeTransferFrom(msg.sender, devAddress, devPrice);\n\n        erc20.safeTransferFrom(msg.sender, rewardAddress, rewardPrice);\n\n        erc20.safeTransferFrom(msg.sender, erc721.ownerOf(_tokenId), loanPrice);\n        emit TokenBorrowed(msg.sender, _tokenId, now, _days, r.pricePerDay);\n    }\n\n    function pause() external onlyOwner {\n        _pause();\n    }\n\n    function unpause() external onlyOwner {\n        _unpause();\n    }\n}\n",
  "sourcePath": "/Users/junhu/git/hotpotcontract/truffle/contracts/loan/Loan.sol",
  "compiler": {
    "name": "solc",
    "version": "0.6.2+commit.bacdbe57.Emscripten.clang"
  },
  "schemaVersion": "3.3.0",
  "updatedAt": "2020-10-30T05:46:48.742Z",
  "networkType": "ethereum",
  "devdoc": {
    "methods": {
      "owner()": {
        "details": "Returns the address of the current owner."
      },
      "paused()": {
        "details": "Returns true if the contract is paused, and false otherwise."
      },
      "renounceOwnership()": {
        "details": "Leaves the contract without owner. It will not be possible to call `onlyOwner` functions anymore. Can only be called by the current owner.     * NOTE: Renouncing ownership will leave the contract without an owner, thereby removing any functionality that is only available to the owner."
      },
      "transferOwnership(address)": {
        "details": "Transfers ownership of the contract to a new account (`newOwner`). Can only be called by the current owner."
      }
    }
  },
  "userdoc": {
    "methods": {}
  }
}