{
  "contractName": "Loan",
  "abi": [
    {
      "inputs": [
        {
          "internalType": "address",
          "name": "_erc721",
          "type": "address"
        },
        {
          "internalType": "address",
          "name": "_erc20",
          "type": "address"
        }
      ],
      "stateMutability": "nonpayable",
      "type": "constructor"
    },
    {
      "anonymous": false,
      "inputs": [
        {
          "indexed": true,
          "internalType": "address",
          "name": "previousOwner",
          "type": "address"
        },
        {
          "indexed": true,
          "internalType": "address",
          "name": "newOwner",
          "type": "address"
        }
      ],
      "name": "OwnershipTransferred",
      "type": "event"
    },
    {
      "anonymous": false,
      "inputs": [
        {
          "indexed": true,
          "internalType": "address",
          "name": "borrower",
          "type": "address"
        },
        {
          "indexed": true,
          "internalType": "uint256",
          "name": "tokenId",
          "type": "uint256"
        },
        {
          "indexed": true,
          "internalType": "uint256",
          "name": "start",
          "type": "uint256"
        },
        {
          "indexed": false,
          "internalType": "uint256",
          "name": "borrowDays",
          "type": "uint256"
        },
        {
          "indexed": false,
          "internalType": "uint256",
          "name": "pricePerDay",
          "type": "uint256"
        }
      ],
      "name": "TokenBorrowed",
      "type": "event"
    },
    {
      "anonymous": false,
      "inputs": [
        {
          "indexed": true,
          "internalType": "address",
          "name": "owner",
          "type": "address"
        },
        {
          "indexed": true,
          "internalType": "uint256",
          "name": "tokenId",
          "type": "uint256"
        },
        {
          "indexed": true,
          "internalType": "uint256",
          "name": "cancleTime",
          "type": "uint256"
        }
      ],
      "name": "TokenCancelDeposit",
      "type": "event"
    },
    {
      "anonymous": false,
      "inputs": [
        {
          "indexed": true,
          "internalType": "address",
          "name": "owner",
          "type": "address"
        },
        {
          "indexed": true,
          "internalType": "uint256",
          "name": "tokenId",
          "type": "uint256"
        },
        {
          "indexed": true,
          "internalType": "uint256",
          "name": "start",
          "type": "uint256"
        },
        {
          "indexed": false,
          "internalType": "uint256",
          "name": "depositDays",
          "type": "uint256"
        },
        {
          "indexed": false,
          "internalType": "uint256",
          "name": "pricePerDay",
          "type": "uint256"
        }
      ],
      "name": "TokenDeposit",
      "type": "event"
    },
    {
      "inputs": [],
      "name": "devAddress",
      "outputs": [
        {
          "internalType": "address",
          "name": "",
          "type": "address"
        }
      ],
      "stateMutability": "view",
      "type": "function",
      "constant": true
    },
    {
      "inputs": [],
      "name": "devRatio",
      "outputs": [
        {
          "internalType": "uint256",
          "name": "",
          "type": "uint256"
        }
      ],
      "stateMutability": "view",
      "type": "function",
      "constant": true
    },
    {
      "inputs": [],
      "name": "erc20",
      "outputs": [
        {
          "internalType": "contract IERC20",
          "name": "",
          "type": "address"
        }
      ],
      "stateMutability": "view",
      "type": "function",
      "constant": true
    },
    {
      "inputs": [],
      "name": "erc721",
      "outputs": [
        {
          "internalType": "contract IERC721",
          "name": "",
          "type": "address"
        }
      ],
      "stateMutability": "view",
      "type": "function",
      "constant": true
    },
    {
      "inputs": [],
      "name": "maxLoanDay",
      "outputs": [
        {
          "internalType": "uint256",
          "name": "",
          "type": "uint256"
        }
      ],
      "stateMutability": "view",
      "type": "function",
      "constant": true
    },
    {
      "inputs": [],
      "name": "owner",
      "outputs": [
        {
          "internalType": "address",
          "name": "",
          "type": "address"
        }
      ],
      "stateMutability": "view",
      "type": "function",
      "constant": true
    },
    {
      "inputs": [],
      "name": "renounceOwnership",
      "outputs": [],
      "stateMutability": "nonpayable",
      "type": "function"
    },
    {
      "inputs": [],
      "name": "rewardAddress",
      "outputs": [
        {
          "internalType": "address",
          "name": "",
          "type": "address"
        }
      ],
      "stateMutability": "view",
      "type": "function",
      "constant": true
    },
    {
      "inputs": [],
      "name": "rewardRatio",
      "outputs": [
        {
          "internalType": "uint256",
          "name": "",
          "type": "uint256"
        }
      ],
      "stateMutability": "view",
      "type": "function",
      "constant": true
    },
    {
      "inputs": [],
      "name": "thresholdTime",
      "outputs": [
        {
          "internalType": "uint256",
          "name": "",
          "type": "uint256"
        }
      ],
      "stateMutability": "view",
      "type": "function",
      "constant": true
    },
    {
      "inputs": [
        {
          "internalType": "address",
          "name": "newOwner",
          "type": "address"
        }
      ],
      "name": "transferOwnership",
      "outputs": [],
      "stateMutability": "nonpayable",
      "type": "function"
    },
    {
      "inputs": [
        {
          "internalType": "address",
          "name": "_dev",
          "type": "address"
        }
      ],
      "name": "setDevAddress",
      "outputs": [],
      "stateMutability": "nonpayable",
      "type": "function"
    },
    {
      "inputs": [
        {
          "internalType": "address",
          "name": "_addr",
          "type": "address"
        }
      ],
      "name": "setRewardAddress",
      "outputs": [],
      "stateMutability": "nonpayable",
      "type": "function"
    },
    {
      "inputs": [
        {
          "internalType": "uint256",
          "name": "_ratio",
          "type": "uint256"
        }
      ],
      "name": "setRewardRatio",
      "outputs": [],
      "stateMutability": "nonpayable",
      "type": "function"
    },
    {
      "inputs": [
        {
          "internalType": "uint256",
          "name": "_ratio",
          "type": "uint256"
        }
      ],
      "name": "setDevRatio",
      "outputs": [],
      "stateMutability": "nonpayable",
      "type": "function"
    },
    {
      "inputs": [
        {
          "internalType": "address",
          "name": "_user",
          "type": "address"
        },
        {
          "internalType": "uint256",
          "name": "_tokenId",
          "type": "uint256"
        },
        {
          "internalType": "uint256",
          "name": "_time",
          "type": "uint256"
        }
      ],
      "name": "checkPrivilege",
      "outputs": [
        {
          "internalType": "bool",
          "name": "",
          "type": "bool"
        }
      ],
      "stateMutability": "view",
      "type": "function",
      "constant": true
    },
    {
      "inputs": [
        {
          "internalType": "uint256",
          "name": "_tokenId",
          "type": "uint256"
        }
      ],
      "name": "cancelDeposit",
      "outputs": [],
      "stateMutability": "nonpayable",
      "type": "function"
    },
    {
      "inputs": [
        {
          "internalType": "uint256",
          "name": "_tokenId",
          "type": "uint256"
        },
        {
          "internalType": "uint256",
          "name": "_days",
          "type": "uint256"
        },
        {
          "internalType": "uint256",
          "name": "_pricePerDay",
          "type": "uint256"
        }
      ],
      "name": "deposit",
      "outputs": [],
      "stateMutability": "nonpayable",
      "type": "function"
    },
    {
      "inputs": [
        {
          "internalType": "uint256",
          "name": "_tokenId",
          "type": "uint256"
        },
        {
          "internalType": "uint256",
          "name": "_days",
          "type": "uint256"
        }
      ],
      "name": "borrow",
      "outputs": [],
      "stateMutability": "nonpayable",
      "type": "function"
    }
  ],
  "bytecode": "0x60806040526002600555600360065561070860085561016d6009553480156200002757600080fd5b5060405162001f6938038062001f69833981810160405260408110156200004d57600080fd5b50805160209091015160006200006b6001600160e01b03620001c916565b600080546001600160a01b0319166001600160a01b0383169081178255604051929350917f8be0079c531659141344cd1fd0a4f28419497f9722a3daafe3b4186f6b6457e0908290a350620000d4826001600160a01b0316620001cd60201b62001c291760201c565b62000126576040805162461bcd60e51b815260206004820152601f60248201527f4552433732312061646472657373206973206e6f7420636f6e74726163742100604482015290519081900360640190fd5b62000145816001600160a01b0316620001cd60201b62001c291760201c565b62000197576040805162461bcd60e51b815260206004820152601a60248201527f4552433230206164647265737320697320636f6e747261637421000000000000604482015290519081900360640190fd5b600180546001600160a01b039384166001600160a01b03199182161790915560028054929093169116179055620001d3565b3390565b3b151590565b611d8680620001e36000396000f3fe608060405234801561001057600080fd5b50600436106101505760003560e01c8063785e9e86116100cd578063a943600d11610081578063bca6ce6411610066578063bca6ce64146102dc578063d0d41fe1146102e4578063f2fde38b1461030a57610150565b8063a943600d146102a2578063ad1848df146102bf57610150565b80638cf57cb9116100b25780638cf57cb91461028a5780638da5cb5b146102925780639930f8761461029a57610150565b8063785e9e861461027a578063866156681461028257610150565b80633ad10ef611610124578063646033bc11610109578063646033bc1461024d578063715018a61461025557806372fada5c1461025d57610150565b80633ad10ef6146102035780635e00e6791461022757610150565b8062aeef8a146101555780630ecbcdab1461018057806311102d4d146101a35780633130c3ae146101bd575b600080fd5b61017e6004803603606081101561016b57600080fd5b5080359060208101359060400135610330565b005b61017e6004803603604081101561019657600080fd5b5080359060200135610660565b6101ab610bf5565b60408051918252519081900360200190f35b6101ef600480360360608110156101d357600080fd5b506001600160a01b038135169060208101359060400135610bfb565b604080519115158252519081900360200190f35b61020b610eb8565b604080516001600160a01b039092168252519081900360200190f35b61017e6004803603602081101561023d57600080fd5b50356001600160a01b0316610ec7565b6101ab610fc6565b61017e610fcc565b61017e6004803603602081101561027357600080fd5b5035611098565b61020b611398565b6101ab6113a7565b61020b6113ad565b61020b6113bc565b6101ab6113cb565b61017e600480360360208110156102b857600080fd5b50356113d1565b61017e600480360360208110156102d557600080fd5b503561147f565b61020b61152d565b61017e600480360360208110156102fa57600080fd5b50356001600160a01b031661153c565b61017e6004803603602081101561032057600080fd5b50356001600160a01b031661163b565b600154604080516331a9108f60e11b815260048101869052905185926000926001600160a01b0390911691636352211e91602480820192602092909190829003018186803b15801561038157600080fd5b505afa158015610395573d6000803e3d6000fd5b505050506040513d60208110156103ab57600080fd5b50516001600160a01b03161415610409576040805162461bcd60e51b815260206004820152601660248201527f4974206973206e6f742061204e465420746f6b656e2100000000000000000000604482015290519081900360640190fd5b600954831061045f576040805162461bcd60e51b815260206004820152601e60248201527f546865206d6178206c6f616e2074696d65206973203336352064617973210000604482015290519081900360640190fd5b610467611c2f565b50600084815260076020908152604091829020825160c0810184528154815260018201546001600160a01b0316928101929092526002810154928201929092526003820154606082015260048201546080820181905260059092015460a082015290156105335760a0810151608082015142620151809092020110610533576040805162461bcd60e51b815260206004820152601d60248201527f5468697320746f6b656e20697320696e207265736572766174696f6e21000000604482015290519081900360640190fd5b600154604080516331a9108f60e11b815260048101889052905133926001600160a01b031691636352211e916024808301926020929190829003018186803b15801561057e57600080fd5b505afa158015610592573d6000803e3d6000fd5b505050506040513d60208110156105a857600080fd5b50516001600160a01b0316146105ef5760405162461bcd60e51b8152600401808060200182810382526024815260200180611c956024913960400191505060405180910390fd5b6000858152600760209081526040918290208781554260048201819055600582018890556003909101869055825187815291820186905282519092889233927f0cc4e403e8909e2f133bbdf8120cd4ee94c82bd60c8bf7ccd55532643780dd2d929181900390910190a45050505050565b600154604080516331a9108f60e11b815260048101859052905184926000926001600160a01b0390911691636352211e91602480820192602092909190829003018186803b1580156106b157600080fd5b505afa1580156106c5573d6000803e3d6000fd5b505050506040513d60208110156106db57600080fd5b50516001600160a01b03161415610739576040805162461bcd60e51b815260206004820152601660248201527f4974206973206e6f742061204e465420746f6b656e2100000000000000000000604482015290519081900360640190fd5b600954821061078f576040805162461bcd60e51b815260206004820152601e60248201527f546865206d6178206c6f616e2074696d65206973203336352064617973210000604482015290519081900360640190fd5b610797611c2f565b50600083815260076020908152604091829020825160c0810184528154815260018201546001600160a01b0316928101929092526002810154928201929092526003820154606082015260048201546080820181905260059092015460a08201529061084a576040805162461bcd60e51b815260206004820152601f60248201527f5468697320746f6b656e2063616e206e6f7420626520626f72726f7765642100604482015290519081900360640190fd5b600154604080516331a9108f60e11b815260048101879052905133926001600160a01b031691636352211e916024808301926020929190829003018186803b15801561089557600080fd5b505afa1580156108a9573d6000803e3d6000fd5b505050506040513d60208110156108bf57600080fd5b50516001600160a01b0316141561091d576040805162461bcd60e51b815260206004820181905260248201527f596f752061726520746865206f776e6572206f66207468697320746f6b656e21604482015290519081900360640190fd5b42816040015111610975576040805162461bcd60e51b815260206004820152601760248201527f5468697320746f6b656e20697320626f72726f77656421000000000000000000604482015290519081900360640190fd5b60085442018160a001516201518002826080015101116109dc576040805162461bcd60e51b815260206004820181905260248201527f5468697320746f6b656e206973206e6f74206176616c6961626c65206e6f7721604482015290519081900360640190fd5b82620151800242018160a00151620151800282608001510111610a305760405162461bcd60e51b815260040180806020018281038252602b815260200180611cda602b913960400191505060405180910390fd5b6060810151600090610a48908563ffffffff61175d16565b90506000610a726064610a666005548561175d90919063ffffffff16565b9063ffffffff6117bf16565b90506000610a906064610a666006548661175d90919063ffffffff16565b90506000610ab483610aa8868563ffffffff61180116565b9063ffffffff61180116565b600154604080516331a9108f60e11b8152600481018c90529051929350610b4c9233926001600160a01b031691636352211e916024808301926020929190829003018186803b158015610b0657600080fd5b505afa158015610b1a573d6000803e3d6000fd5b505050506040513d6020811015610b3057600080fd5b50516002546001600160a01b031691908463ffffffff61184316565b600354600254610b71916001600160a01b03918216913391168663ffffffff61184316565b600454600254610b96916001600160a01b03918216913391168563ffffffff61184316565b426201518088028101604080880191909152606087015181518a8152602081019190915281518b9233927f6ac928dde278fc1323b10a16dfbc196aeef1ea86229a7653b0d581edcb4d0370929081900390910190a45050505050505050565b60055481565b600154604080516331a9108f60e11b8152600481018590529051600092859284926001600160a01b0390921691636352211e91602480820192602092909190829003018186803b158015610c4e57600080fd5b505afa158015610c62573d6000803e3d6000fd5b505050506040513d6020811015610c7857600080fd5b50516001600160a01b03161415610cd6576040805162461bcd60e51b815260206004820152601660248201527f4974206973206e6f742061204e465420746f6b656e2100000000000000000000604482015290519081900360640190fd5b610cde611c2f565b50600084815260076020908152604091829020825160c0810184528154815260018201546001600160a01b0316928101929092526002810154928201929092526003820154606082015260048201546080820181905260059092015460a082015290610dd057600154604080516331a9108f60e11b81526004810188905290516001600160a01b03808a16931691636352211e916024808301926020929190829003018186803b158015610d9157600080fd5b505afa158015610da5573d6000803e3d6000fd5b505050506040513d6020811015610dbb57600080fd5b50516001600160a01b0316149250610eb09050565b856001600160a01b031681602001516001600160a01b03161415610e09578381604001511115610e04576001925050610eb0565b610eaa565b600154604080516331a9108f60e11b81526004810188905290516001600160a01b0390921691636352211e91602480820192602092909190829003018186803b158015610e5557600080fd5b505afa158015610e69573d6000803e3d6000fd5b505050506040513d6020811015610e7f57600080fd5b50516001600160a01b0387811691161415610eaa578381604001511015610eaa576001925050610eb0565b60009250505b509392505050565b6003546001600160a01b031681565b610ecf6118d1565b6000546001600160a01b03908116911614610f31576040805162461bcd60e51b815260206004820181905260248201527f4f776e61626c653a2063616c6c6572206973206e6f7420746865206f776e6572604482015290519081900360640190fd5b6001600160a01b038116610f8c576040805162461bcd60e51b815260206004820152601560248201527f416464726573732063616e206e6f7420626520302e0000000000000000000000604482015290519081900360640190fd5b600480547fffffffffffffffffffffffff0000000000000000000000000000000000000000166001600160a01b0392909216919091179055565b60065481565b610fd46118d1565b6000546001600160a01b03908116911614611036576040805162461bcd60e51b815260206004820181905260248201527f4f776e61626c653a2063616c6c6572206973206e6f7420746865206f776e6572604482015290519081900360640190fd5b600080546040516001600160a01b03909116907f8be0079c531659141344cd1fd0a4f28419497f9722a3daafe3b4186f6b6457e0908390a3600080547fffffffffffffffffffffffff0000000000000000000000000000000000000000169055565b600154604080516331a9108f60e11b815260048101849052905183926000926001600160a01b0390911691636352211e91602480820192602092909190829003018186803b1580156110e957600080fd5b505afa1580156110fd573d6000803e3d6000fd5b505050506040513d602081101561111357600080fd5b50516001600160a01b03161415611171576040805162461bcd60e51b815260206004820152601660248201527f4974206973206e6f742061204e465420746f6b656e2100000000000000000000604482015290519081900360640190fd5b600154604080516331a9108f60e11b815260048101859052905133926001600160a01b031691636352211e916024808301926020929190829003018186803b1580156111bc57600080fd5b505afa1580156111d0573d6000803e3d6000fd5b505050506040513d60208110156111e657600080fd5b50516001600160a01b03161461122d5760405162461bcd60e51b8152600401808060200182810382526024815260200180611c956024913960400191505060405180910390fd5b611235611c2f565b50600082815260076020908152604091829020825160c0810184528154815260018201546001600160a01b0316928101929092526002810154928201929092526003820154606082015260048201546080820181905260059092015460a0820152906112e8576040805162461bcd60e51b815260206004820152601c60248201527f5468697320746f6b656e206973206e6f74206465706f73697465642100000000604482015290519081900360640190fd5b42816040015111611340576040805162461bcd60e51b815260206004820152601760248201527f5468697320746f6b656e20697320626f72726f77656421000000000000000000604482015290519081900360640190fd5b505060009081526007602052604081208181556001810180547fffffffffffffffffffffffff000000000000000000000000000000000000000016905560028101829055600381018290556004810182905560050155565b6002546001600160a01b031681565b60095481565b6004546001600160a01b031681565b6000546001600160a01b031690565b60085481565b6113d96118d1565b6000546001600160a01b0390811691161461143b576040805162461bcd60e51b815260206004820181905260248201527f4f776e61626c653a2063616c6c6572206973206e6f7420746865206f776e6572604482015290519081900360640190fd5b6064811061147a5760405162461bcd60e51b8152600401808060200182810382526022815260200180611d056022913960400191505060405180910390fd5b600655565b6114876118d1565b6000546001600160a01b039081169116146114e9576040805162461bcd60e51b815260206004820181905260248201527f4f776e61626c653a2063616c6c6572206973206e6f7420746865206f776e6572604482015290519081900360640190fd5b606481106115285760405162461bcd60e51b8152600401808060200182810382526022815260200180611d056022913960400191505060405180910390fd5b600555565b6001546001600160a01b031681565b6115446118d1565b6000546001600160a01b039081169116146115a6576040805162461bcd60e51b815260206004820181905260248201527f4f776e61626c653a2063616c6c6572206973206e6f7420746865206f776e6572604482015290519081900360640190fd5b6001600160a01b038116611601576040805162461bcd60e51b815260206004820152601560248201527f416464726573732063616e206e6f7420626520302e0000000000000000000000604482015290519081900360640190fd5b600380547fffffffffffffffffffffffff0000000000000000000000000000000000000000166001600160a01b0392909216919091179055565b6116436118d1565b6000546001600160a01b039081169116146116a5576040805162461bcd60e51b815260206004820181905260248201527f4f776e61626c653a2063616c6c6572206973206e6f7420746865206f776e6572604482015290519081900360640190fd5b6001600160a01b0381166116ea5760405162461bcd60e51b8152600401808060200182810382526026815260200180611c6f6026913960400191505060405180910390fd5b600080546040516001600160a01b03808516939216917f8be0079c531659141344cd1fd0a4f28419497f9722a3daafe3b4186f6b6457e091a3600080547fffffffffffffffffffffffff0000000000000000000000000000000000000000166001600160a01b0392909216919091179055565b60008261176c575060006117b9565b8282028284828161177957fe5b04146117b65760405162461bcd60e51b8152600401808060200182810382526021815260200180611cb96021913960400191505060405180910390fd5b90505b92915050565b60006117b683836040518060400160405280601a81526020017f536166654d6174683a206469766973696f6e206279207a65726f0000000000008152506118d5565b60006117b683836040518060400160405280601e81526020017f536166654d6174683a207375627472616374696f6e206f766572666c6f770000815250611977565b604080516001600160a01b0380861660248301528416604482015260648082018490528251808303909101815260849091019091526020810180517bffffffffffffffffffffffffffffffffffffffffffffffffffffffff167f23b872dd000000000000000000000000000000000000000000000000000000001790526118cb9085906119d1565b50505050565b3390565b600081836119615760405162461bcd60e51b81526004018080602001828103825283818151815260200191508051906020019080838360005b8381101561192657818101518382015260200161190e565b50505050905090810190601f1680156119535780820380516001836020036101000a031916815260200191505b509250505060405180910390fd5b50600083858161196d57fe5b0495945050505050565b600081848411156119c95760405162461bcd60e51b815260206004820181815283516024840152835190928392604490910191908501908083836000831561192657818101518382015260200161190e565b505050900390565b6060611a26826040518060400160405280602081526020017f5361666545524332303a206c6f772d6c6576656c2063616c6c206661696c6564815250856001600160a01b0316611a879092919063ffffffff16565b805190915015611a8257808060200190516020811015611a4557600080fd5b5051611a825760405162461bcd60e51b815260040180806020018281038252602a815260200180611d27602a913960400191505060405180910390fd5b505050565b6060611a968484600085611a9e565b949350505050565b6060611aa985611c29565b611afa576040805162461bcd60e51b815260206004820152601d60248201527f416464726573733a2063616c6c20746f206e6f6e2d636f6e7472616374000000604482015290519081900360640190fd5b60006060866001600160a01b031685876040518082805190602001908083835b60208310611b5757805182527fffffffffffffffffffffffffffffffffffffffffffffffffffffffffffffffe09092019160209182019101611b1a565b6001836020036101000a03801982511681845116808217855250505050505090500191505060006040518083038185875af1925050503d8060008114611bb9576040519150601f19603f3d011682016040523d82523d6000602084013e611bbe565b606091505b50915091508115611bd2579150611a969050565b805115611be25780518082602001fd5b60405162461bcd60e51b815260206004820181815286516024840152865187939192839260440191908501908083836000831561192657818101518382015260200161190e565b3b151590565b6040518060c001604052806000815260200160006001600160a01b0316815260200160008152602001600081526020016000815260200160008152509056fe4f776e61626c653a206e6577206f776e657220697320746865207a65726f2061646472657373596f7520617265206e6f7420746865206f776e6572206f66207468697320746f6b656e21536166654d6174683a206d756c7469706c69636174696f6e206f766572666c6f775468697320746f6b656e2063616e206e6f7420626520626f72726f77656420666f7220736f206c6f6e6721526174696f2063616e206e6f742062652067726561746572207468616e20313030215361666545524332303a204552433230206f7065726174696f6e20646964206e6f742073756363656564a26469706673582212208abf5d571c5e8913974731a4ef8096c36ac39808e3a126fc378a1ba12b3e463564736f6c63430006020033",
  "source": "pragma solidity ^0.6.0;\n\nimport \"@openzeppelin/contracts/math/SafeMath.sol\";\nimport \"@openzeppelin/contracts/token/ERC20/IERC20.sol\";\nimport \"@openzeppelin/contracts/token/ERC20/SafeERC20.sol\";\nimport \"@openzeppelin/contracts/token/ERC721/IERC721.sol\";\nimport \"@openzeppelin/contracts/token/ERC721/IERC721Receiver.sol\";\nimport \"@openzeppelin/contracts/access/Ownable.sol\";\nimport \"@openzeppelin/contracts/utils/Address.sol\";\nimport \"../common/hotpotinterface.sol\";\nimport \"../common/ILoan.sol\";\n\ncontract Loan is Ownable, ILoan {\n    using Address for address;\n    using SafeERC20 for IERC20;\n    using SafeMath for uint256;\n    \n    IERC721 public erc721;\n    IERC20 public erc20;\n\n    address public devAddress;\n    address public rewardAddress;\n\n    uint256 public devRatio = 2;\n    uint256 public rewardRatio = 3;\n\n    mapping(uint256 => Reservation) private reservations;\n\n    uint256 public thresholdTime = 30 * 60;\n    uint256 public maxLoanDay = 365;\n\n    event TokenDeposit(\n        address indexed owner,\n        uint256 indexed tokenId,\n        uint256 indexed start,\n        uint256 depositDays,\n        uint256 pricePerDay\n    );\n\n    event TokenCancelDeposit(\n        address indexed owner,\n        uint256 indexed tokenId,\n        uint256 indexed cancleTime\n    );\n\n    event TokenBorrowed(\n        address indexed borrower,\n        uint256 indexed tokenId,\n        uint256 indexed start,\n        uint256 borrowDays,\n        uint256 pricePerDay\n    );\n\n    struct Reservation {\n        uint256 tokenId;\n        address borrower;\n        uint256 borrowEndTime; //borrow end time\n        uint256 pricePerDay;\n        uint256 start; // loan start time\n        uint256 times; //loan for how many days\n    }\n\n    modifier validNFToken(uint256 _tokenId) {\n        require(\n            erc721.ownerOf(_tokenId) != address(0),\n            \"It is not a NFT token!\"\n        );\n        _;\n    }\n\n    constructor(address _erc721, address _erc20) public {\n        require(_erc721.isContract(), \"ERC721 address is not contract!\");\n        require(_erc20.isContract(), \"ERC20 address is contract!\");\n        erc721 = IERC721(_erc721);\n        erc20 = IERC20(_erc20);\n    }\n\n    function setDevAddress(address _dev) external onlyOwner{\n        require(_dev!=address(0),\"Address can not be 0.\");\n        devAddress = _dev;\n    }\n\n    function setRewardAddress(address _addr) external onlyOwner{\n        require(_addr!=address(0),\"Address can not be 0.\");\n        rewardAddress = _addr;\n    }\n    \n    function setRewardRatio(uint256 _ratio) external onlyOwner{\n        require(_ratio<100,\"Ratio can not be greater than 100!\");\n        rewardRatio = _ratio;\n    }\n\n    function setDevRatio(uint256 _ratio) external onlyOwner{\n        require(_ratio<100,\"Ratio can not be greater than 100!\");\n        devRatio = _ratio;\n    }\n\n    function checkPrivilege(\n        address _user,\n        uint256 _tokenId,\n        uint256 _time\n    ) external override view validNFToken(_tokenId) returns (bool) {\n        //if the token is borrowed , the owner can not use it\n        Reservation memory r = reservations[_tokenId];\n\n        //The token is not deposited\n        if(r.start==0){\n            //The user must be the token owner\n            return erc721.ownerOf(_tokenId)==_user;\n        }\n        //The token is deposited\n        else{\n            if(r.borrower == _user){\n                //The borrower is borrowing \n                if(r.borrowEndTime>_time){\n                    return true;\n                }\n            }else{\n                if(_user==erc721.ownerOf(_tokenId)){\n                    //The borrow end\n                    if(r.borrowEndTime<_time){\n                        return true;\n                    }\n                }\n            }\n        }\n        return false;\n    }\n\n    function cancelDeposit(uint256 _tokenId) external validNFToken(_tokenId){\n        require(\n            erc721.ownerOf(_tokenId) == msg.sender,\n            \"You are not the owner of this token!\"\n        );\n        Reservation memory r = reservations[_tokenId];\n        require(r.start != 0,\"This token is not deposited!\");\n        require(r.borrowEndTime>now,\"This token is borrowed!\");\n\n        delete reservations[_tokenId];\n    }\n\n    function deposit(\n        uint256 _tokenId,\n        uint256 _days,\n        uint256 _pricePerDay\n    ) external validNFToken(_tokenId) {\n        require(_days < maxLoanDay, \"The max loan time is 365 days!\");\n        Reservation memory r = reservations[_tokenId];\n        if (r.start != 0) {\n            require(\n                r.start + r.times * 24 * 60 * 60 < now,\n                \"This token is in reservation!\"\n            );\n        }\n\n        require(\n            erc721.ownerOf(_tokenId) == msg.sender,\n            \"You are not the owner of this token!\"\n        );\n\n        reservations[_tokenId].tokenId = _tokenId;\n        reservations[_tokenId].start = now;\n        reservations[_tokenId].times = _days;\n        reservations[_tokenId].pricePerDay = _pricePerDay;\n\n        emit TokenDeposit(msg.sender, _tokenId, now, _days, _pricePerDay);\n    }\n\n    function borrow(uint256 _tokenId, uint256 _days)\n        external\n        validNFToken(_tokenId)\n    {\n        require(_days < maxLoanDay, \"The max loan time is 365 days!\");\n        Reservation memory r = reservations[_tokenId];\n        require(r.start != 0, \"This token can not be borrowed!\");\n        require(\n            erc721.ownerOf(_tokenId) != msg.sender,\n            \"You are the owner of this token!\"\n        );\n        require(r.borrowEndTime > now, \"This token is borrowed!\");\n        require(\n            r.start + r.times * 86400 > now + thresholdTime,\n            \"This token is not avaliable now!\"\n        );\n        require(\n            r.start + r.times * 86400 > now + _days * 86400,\n            \"This token can not be borrowed for so long!\"\n        );\n\n        uint256 totalPrice = r.pricePerDay.mul(_days);\n        uint256 devPrice = totalPrice.mul(devRatio).div(100);\n        uint256 rewardPrice = totalPrice.mul(rewardRatio).div(100);\n        uint256 loanPrice = totalPrice.sub(rewardPrice).sub(devPrice);\n\n        erc20.safeTransferFrom(msg.sender, erc721.ownerOf(_tokenId), loanPrice);\n\n        erc20.safeTransferFrom(msg.sender, devAddress, devPrice);\n\n        erc20.safeTransferFrom(msg.sender, rewardAddress, rewardPrice);\n\n        r.borrowEndTime = now + _days * 86400;\n\n        emit TokenBorrowed(msg.sender, _tokenId, now, _days, r.pricePerDay);\n    }\n\n}\n",
  "sourcePath": "/Users/junhu/git/hotpotcontract/truffle/contracts/loan/Loan.sol",
  "compiler": {
    "name": "solc",
    "version": "0.6.2+commit.bacdbe57.Emscripten.clang"
  },
  "schemaVersion": "3.3.0",
  "updatedAt": "2020-10-15T06:16:30.456Z",
  "networkType": "ethereum",
  "devdoc": {
    "methods": {
      "owner()": {
        "details": "Returns the address of the current owner."
      },
      "renounceOwnership()": {
        "details": "Leaves the contract without owner. It will not be possible to call `onlyOwner` functions anymore. Can only be called by the current owner.     * NOTE: Renouncing ownership will leave the contract without an owner, thereby removing any functionality that is only available to the owner."
      },
      "transferOwnership(address)": {
        "details": "Transfers ownership of the contract to a new account (`newOwner`). Can only be called by the current owner."
      }
    }
  },
  "userdoc": {
    "methods": {}
  }
}