{
  "contractName": "Loan",
  "abi": [
    {
      "inputs": [
        {
          "internalType": "address",
          "name": "_erc721",
          "type": "address"
        },
        {
          "internalType": "address",
          "name": "_erc20",
          "type": "address"
        }
      ],
      "stateMutability": "nonpayable",
      "type": "constructor"
    },
    {
      "anonymous": false,
      "inputs": [
        {
          "indexed": true,
          "internalType": "address",
          "name": "previousOwner",
          "type": "address"
        },
        {
          "indexed": true,
          "internalType": "address",
          "name": "newOwner",
          "type": "address"
        }
      ],
      "name": "OwnershipTransferred",
      "type": "event"
    },
    {
      "anonymous": false,
      "inputs": [
        {
          "indexed": true,
          "internalType": "address",
          "name": "borrower",
          "type": "address"
        },
        {
          "indexed": true,
          "internalType": "uint256",
          "name": "tokenId",
          "type": "uint256"
        },
        {
          "indexed": true,
          "internalType": "uint256",
          "name": "start",
          "type": "uint256"
        },
        {
          "indexed": false,
          "internalType": "uint256",
          "name": "borrowDays",
          "type": "uint256"
        },
        {
          "indexed": false,
          "internalType": "uint256",
          "name": "pricePerDay",
          "type": "uint256"
        }
      ],
      "name": "TokenBorrowed",
      "type": "event"
    },
    {
      "anonymous": false,
      "inputs": [
        {
          "indexed": true,
          "internalType": "address",
          "name": "owner",
          "type": "address"
        },
        {
          "indexed": true,
          "internalType": "uint256",
          "name": "tokenId",
          "type": "uint256"
        },
        {
          "indexed": true,
          "internalType": "uint256",
          "name": "cancleTime",
          "type": "uint256"
        }
      ],
      "name": "TokenCancelDeposit",
      "type": "event"
    },
    {
      "anonymous": false,
      "inputs": [
        {
          "indexed": true,
          "internalType": "address",
          "name": "owner",
          "type": "address"
        },
        {
          "indexed": true,
          "internalType": "uint256",
          "name": "tokenId",
          "type": "uint256"
        },
        {
          "indexed": true,
          "internalType": "uint256",
          "name": "start",
          "type": "uint256"
        },
        {
          "indexed": false,
          "internalType": "uint256",
          "name": "depositDays",
          "type": "uint256"
        },
        {
          "indexed": false,
          "internalType": "uint256",
          "name": "pricePerDay",
          "type": "uint256"
        }
      ],
      "name": "TokenDeposit",
      "type": "event"
    },
    {
      "inputs": [],
      "name": "devAddress",
      "outputs": [
        {
          "internalType": "address",
          "name": "",
          "type": "address"
        }
      ],
      "stateMutability": "view",
      "type": "function",
      "constant": true
    },
    {
      "inputs": [],
      "name": "devRatio",
      "outputs": [
        {
          "internalType": "uint256",
          "name": "",
          "type": "uint256"
        }
      ],
      "stateMutability": "view",
      "type": "function",
      "constant": true
    },
    {
      "inputs": [],
      "name": "erc20",
      "outputs": [
        {
          "internalType": "contract IERC20",
          "name": "",
          "type": "address"
        }
      ],
      "stateMutability": "view",
      "type": "function",
      "constant": true
    },
    {
      "inputs": [],
      "name": "erc721",
      "outputs": [
        {
          "internalType": "contract IERC721",
          "name": "",
          "type": "address"
        }
      ],
      "stateMutability": "view",
      "type": "function",
      "constant": true
    },
    {
      "inputs": [
        {
          "internalType": "uint256",
          "name": "",
          "type": "uint256"
        }
      ],
      "name": "loanTokens",
      "outputs": [
        {
          "internalType": "uint256",
          "name": "",
          "type": "uint256"
        }
      ],
      "stateMutability": "view",
      "type": "function",
      "constant": true
    },
    {
      "inputs": [],
      "name": "maxLoanDay",
      "outputs": [
        {
          "internalType": "uint256",
          "name": "",
          "type": "uint256"
        }
      ],
      "stateMutability": "view",
      "type": "function",
      "constant": true
    },
    {
      "inputs": [],
      "name": "owner",
      "outputs": [
        {
          "internalType": "address",
          "name": "",
          "type": "address"
        }
      ],
      "stateMutability": "view",
      "type": "function",
      "constant": true
    },
    {
      "inputs": [],
      "name": "renounceOwnership",
      "outputs": [],
      "stateMutability": "nonpayable",
      "type": "function"
    },
    {
      "inputs": [
        {
          "internalType": "uint256",
          "name": "",
          "type": "uint256"
        }
      ],
      "name": "reservations",
      "outputs": [
        {
          "internalType": "uint256",
          "name": "tokenId",
          "type": "uint256"
        },
        {
          "internalType": "address",
          "name": "borrower",
          "type": "address"
        },
        {
          "internalType": "uint256",
          "name": "borrowEndTime",
          "type": "uint256"
        },
        {
          "internalType": "uint256",
          "name": "pricePerDay",
          "type": "uint256"
        },
        {
          "internalType": "uint256",
          "name": "start",
          "type": "uint256"
        },
        {
          "internalType": "uint256",
          "name": "times",
          "type": "uint256"
        }
      ],
      "stateMutability": "view",
      "type": "function",
      "constant": true
    },
    {
      "inputs": [],
      "name": "rewardAddress",
      "outputs": [
        {
          "internalType": "address",
          "name": "",
          "type": "address"
        }
      ],
      "stateMutability": "view",
      "type": "function",
      "constant": true
    },
    {
      "inputs": [],
      "name": "rewardRatio",
      "outputs": [
        {
          "internalType": "uint256",
          "name": "",
          "type": "uint256"
        }
      ],
      "stateMutability": "view",
      "type": "function",
      "constant": true
    },
    {
      "inputs": [],
      "name": "thresholdTime",
      "outputs": [
        {
          "internalType": "uint256",
          "name": "",
          "type": "uint256"
        }
      ],
      "stateMutability": "view",
      "type": "function",
      "constant": true
    },
    {
      "inputs": [
        {
          "internalType": "address",
          "name": "newOwner",
          "type": "address"
        }
      ],
      "name": "transferOwnership",
      "outputs": [],
      "stateMutability": "nonpayable",
      "type": "function"
    },
    {
      "inputs": [
        {
          "internalType": "address",
          "name": "_dev",
          "type": "address"
        }
      ],
      "name": "setDevAddress",
      "outputs": [],
      "stateMutability": "nonpayable",
      "type": "function"
    },
    {
      "inputs": [
        {
          "internalType": "address",
          "name": "_addr",
          "type": "address"
        }
      ],
      "name": "setRewardAddress",
      "outputs": [],
      "stateMutability": "nonpayable",
      "type": "function"
    },
    {
      "inputs": [
        {
          "internalType": "uint256",
          "name": "_ratio",
          "type": "uint256"
        }
      ],
      "name": "setRewardRatio",
      "outputs": [],
      "stateMutability": "nonpayable",
      "type": "function"
    },
    {
      "inputs": [
        {
          "internalType": "uint256",
          "name": "_ratio",
          "type": "uint256"
        }
      ],
      "name": "setDevRatio",
      "outputs": [],
      "stateMutability": "nonpayable",
      "type": "function"
    },
    {
      "inputs": [
        {
          "internalType": "address",
          "name": "_user",
          "type": "address"
        },
        {
          "internalType": "uint256",
          "name": "_tokenId",
          "type": "uint256"
        },
        {
          "internalType": "uint256",
          "name": "_time",
          "type": "uint256"
        }
      ],
      "name": "checkPrivilege",
      "outputs": [
        {
          "internalType": "bool",
          "name": "",
          "type": "bool"
        }
      ],
      "stateMutability": "view",
      "type": "function",
      "constant": true
    },
    {
      "inputs": [
        {
          "internalType": "uint256",
          "name": "_tokenId",
          "type": "uint256"
        }
      ],
      "name": "cancelDeposit",
      "outputs": [],
      "stateMutability": "nonpayable",
      "type": "function"
    },
    {
      "inputs": [
        {
          "internalType": "uint256",
          "name": "_tokenId",
          "type": "uint256"
        },
        {
          "internalType": "uint256",
          "name": "_days",
          "type": "uint256"
        },
        {
          "internalType": "uint256",
          "name": "_pricePerDay",
          "type": "uint256"
        }
      ],
      "name": "deposit",
      "outputs": [],
      "stateMutability": "nonpayable",
      "type": "function"
    },
    {
      "inputs": [
        {
          "internalType": "uint256",
          "name": "_tokenId",
          "type": "uint256"
        },
        {
          "internalType": "uint256",
          "name": "_days",
          "type": "uint256"
        }
      ],
      "name": "borrow",
      "outputs": [],
      "stateMutability": "nonpayable",
      "type": "function"
    }
  ],
  "bytecode": "0x60806040526002600555600360065561070860095561016d600a553480156200002757600080fd5b50604051620021cf380380620021cf833981810160405260408110156200004d57600080fd5b50805160209091015160006200006b6001600160e01b03620001c916565b600080546001600160a01b0319166001600160a01b0383169081178255604051929350917f8be0079c531659141344cd1fd0a4f28419497f9722a3daafe3b4186f6b6457e0908290a350620000d4826001600160a01b0316620001cd60201b62001e8f1760201c565b62000126576040805162461bcd60e51b815260206004820152601f60248201527f4552433732312061646472657373206973206e6f7420636f6e74726163742100604482015290519081900360640190fd5b62000145816001600160a01b0316620001cd60201b62001e8f1760201c565b62000197576040805162461bcd60e51b815260206004820152601a60248201527f4552433230206164647265737320697320636f6e747261637421000000000000604482015290519081900360640190fd5b600180546001600160a01b039384166001600160a01b03199182161790915560028054929093169116179055620001d3565b3390565b3b151590565b611fec80620001e36000396000f3fe608060405234801561001057600080fd5b50600436106101765760003560e01c8063785e9e86116100d8578063a943600d1161008c578063d0d41fe111610066578063d0d41fe114610362578063edc9718f14610388578063f2fde38b146103a557610176565b8063a943600d14610320578063ad1848df1461033d578063bca6ce641461035a57610176565b80638cf57cb9116100bd5780638cf57cb9146103085780638da5cb5b146103105780639930f8761461031857610176565b8063785e9e86146102f8578063866156681461030057610176565b80633ad10ef61161012f578063646033bc11610114578063646033bc146102cb578063715018a6146102d357806372fada5c146102db57610176565b80633ad10ef6146102815780635e00e679146102a557610176565b80630ecbcdab116101605780630ecbcdab146101fe57806311102d4d146102215780633130c3ae1461023b57610176565b8062aeef8a1461017b578063067cf832146101a6575b600080fd5b6101a46004803603606081101561019157600080fd5b50803590602081013590604001356103cb565b005b6101c3600480360360208110156101bc57600080fd5b5035610729565b604080519687526001600160a01b039095166020870152858501939093526060850191909152608084015260a0830152519081900360c00190f35b6101a46004803603604081101561021457600080fd5b5080359060200135610768565b610229610cfd565b60408051918252519081900360200190f35b61026d6004803603606081101561025157600080fd5b506001600160a01b038135169060208101359060400135610d03565b604080519115158252519081900360200190f35b610289610fc0565b604080516001600160a01b039092168252519081900360200190f35b6101a4600480360360208110156102bb57600080fd5b50356001600160a01b0316610fcf565b6102296110ce565b6101a46110d4565b6101a4600480360360208110156102f157600080fd5b50356111a0565b6102896114da565b6102296114e9565b6102896114ef565b6102896114fe565b61022961150d565b6101a46004803603602081101561033657600080fd5b5035611513565b6101a46004803603602081101561035357600080fd5b50356115c1565b61028961166f565b6101a46004803603602081101561037857600080fd5b50356001600160a01b031661167e565b6102296004803603602081101561039e57600080fd5b503561177d565b6101a4600480360360208110156103bb57600080fd5b50356001600160a01b031661179b565b600154604080516331a9108f60e11b815260048101869052905185926000926001600160a01b0390911691636352211e91602480820192602092909190829003018186803b15801561041c57600080fd5b505afa158015610430573d6000803e3d6000fd5b505050506040513d602081101561044657600080fd5b50516001600160a01b031614156104a4576040805162461bcd60e51b815260206004820152601660248201527f4974206973206e6f742061204e465420746f6b656e2100000000000000000000604482015290519081900360640190fd5b600a5483106104fa576040805162461bcd60e51b815260206004820152601e60248201527f546865206d6178206c6f616e2074696d65206973203336352064617973210000604482015290519081900360640190fd5b610502611e95565b50600084815260076020908152604091829020825160c0810184528154815260018201546001600160a01b0316928101929092526002810154928201929092526003820154606082015260048201546080820181905260059092015460a082015290156105ce5760a08101516080820151426201518090920201106105ce576040805162461bcd60e51b815260206004820152601d60248201527f5468697320746f6b656e20697320696e207265736572766174696f6e21000000604482015290519081900360640190fd5b600154604080516331a9108f60e11b815260048101889052905133926001600160a01b031691636352211e916024808301926020929190829003018186803b15801561061957600080fd5b505afa15801561062d573d6000803e3d6000fd5b505050506040513d602081101561064357600080fd5b50516001600160a01b03161461068a5760405162461bcd60e51b8152600401808060200182810382526024815260200180611efb6024913960400191505060405180910390fd5b600085815260076020908152604080832088815542600482018190556005820189905560039091018790556008805460018101825594527ff3f7a9fe364faab93b216da50a3214154f22a0a2b415b23a84c8169e8b636ee390930188905580518781529182018690528051889233927f0cc4e403e8909e2f133bbdf8120cd4ee94c82bd60c8bf7ccd55532643780dd2d92918290030190a45050505050565b60076020526000908152604090208054600182015460028301546003840154600485015460059095015493946001600160a01b03909316939192909186565b600154604080516331a9108f60e11b815260048101859052905184926000926001600160a01b0390911691636352211e91602480820192602092909190829003018186803b1580156107b957600080fd5b505afa1580156107cd573d6000803e3d6000fd5b505050506040513d60208110156107e357600080fd5b50516001600160a01b03161415610841576040805162461bcd60e51b815260206004820152601660248201527f4974206973206e6f742061204e465420746f6b656e2100000000000000000000604482015290519081900360640190fd5b600a548210610897576040805162461bcd60e51b815260206004820152601e60248201527f546865206d6178206c6f616e2074696d65206973203336352064617973210000604482015290519081900360640190fd5b61089f611e95565b50600083815260076020908152604091829020825160c0810184528154815260018201546001600160a01b0316928101929092526002810154928201929092526003820154606082015260048201546080820181905260059092015460a082015290610952576040805162461bcd60e51b815260206004820152601f60248201527f5468697320746f6b656e2063616e206e6f7420626520626f72726f7765642100604482015290519081900360640190fd5b600154604080516331a9108f60e11b815260048101879052905133926001600160a01b031691636352211e916024808301926020929190829003018186803b15801561099d57600080fd5b505afa1580156109b1573d6000803e3d6000fd5b505050506040513d60208110156109c757600080fd5b50516001600160a01b03161415610a25576040805162461bcd60e51b815260206004820181905260248201527f596f752061726520746865206f776e6572206f66207468697320746f6b656e21604482015290519081900360640190fd5b42816040015111610a7d576040805162461bcd60e51b815260206004820152601760248201527f5468697320746f6b656e20697320626f72726f77656421000000000000000000604482015290519081900360640190fd5b60095442018160a00151620151800282608001510111610ae4576040805162461bcd60e51b815260206004820181905260248201527f5468697320746f6b656e206973206e6f74206176616c6961626c65206e6f7721604482015290519081900360640190fd5b82620151800242018160a00151620151800282608001510111610b385760405162461bcd60e51b815260040180806020018281038252602b815260200180611f40602b913960400191505060405180910390fd5b6060810151600090610b50908563ffffffff6118bd16565b90506000610b7a6064610b6e600554856118bd90919063ffffffff16565b9063ffffffff61191f16565b90506000610b986064610b6e600654866118bd90919063ffffffff16565b90506000610bbc83610bb0868563ffffffff61196116565b9063ffffffff61196116565b600154604080516331a9108f60e11b8152600481018c90529051929350610c549233926001600160a01b031691636352211e916024808301926020929190829003018186803b158015610c0e57600080fd5b505afa158015610c22573d6000803e3d6000fd5b505050506040513d6020811015610c3857600080fd5b50516002546001600160a01b031691908463ffffffff6119a316565b600354600254610c79916001600160a01b03918216913391168663ffffffff6119a316565b600454600254610c9e916001600160a01b03918216913391168563ffffffff6119a316565b426201518088028101604080880191909152606087015181518a8152602081019190915281518b9233927f6ac928dde278fc1323b10a16dfbc196aeef1ea86229a7653b0d581edcb4d0370929081900390910190a45050505050505050565b60055481565b600154604080516331a9108f60e11b8152600481018590529051600092859284926001600160a01b0390921691636352211e91602480820192602092909190829003018186803b158015610d5657600080fd5b505afa158015610d6a573d6000803e3d6000fd5b505050506040513d6020811015610d8057600080fd5b50516001600160a01b03161415610dde576040805162461bcd60e51b815260206004820152601660248201527f4974206973206e6f742061204e465420746f6b656e2100000000000000000000604482015290519081900360640190fd5b610de6611e95565b50600084815260076020908152604091829020825160c0810184528154815260018201546001600160a01b0316928101929092526002810154928201929092526003820154606082015260048201546080820181905260059092015460a082015290610ed857600154604080516331a9108f60e11b81526004810188905290516001600160a01b03808a16931691636352211e916024808301926020929190829003018186803b158015610e9957600080fd5b505afa158015610ead573d6000803e3d6000fd5b505050506040513d6020811015610ec357600080fd5b50516001600160a01b0316149250610fb89050565b856001600160a01b031681602001516001600160a01b03161415610f11578381604001511115610f0c576001925050610fb8565b610fb2565b600154604080516331a9108f60e11b81526004810188905290516001600160a01b0390921691636352211e91602480820192602092909190829003018186803b158015610f5d57600080fd5b505afa158015610f71573d6000803e3d6000fd5b505050506040513d6020811015610f8757600080fd5b50516001600160a01b0387811691161415610fb2578381604001511015610fb2576001925050610fb8565b60009250505b509392505050565b6003546001600160a01b031681565b610fd7611a31565b6000546001600160a01b03908116911614611039576040805162461bcd60e51b815260206004820181905260248201527f4f776e61626c653a2063616c6c6572206973206e6f7420746865206f776e6572604482015290519081900360640190fd5b6001600160a01b038116611094576040805162461bcd60e51b815260206004820152601560248201527f416464726573732063616e206e6f7420626520302e0000000000000000000000604482015290519081900360640190fd5b600480547fffffffffffffffffffffffff0000000000000000000000000000000000000000166001600160a01b0392909216919091179055565b60065481565b6110dc611a31565b6000546001600160a01b0390811691161461113e576040805162461bcd60e51b815260206004820181905260248201527f4f776e61626c653a2063616c6c6572206973206e6f7420746865206f776e6572604482015290519081900360640190fd5b600080546040516001600160a01b03909116907f8be0079c531659141344cd1fd0a4f28419497f9722a3daafe3b4186f6b6457e0908390a3600080547fffffffffffffffffffffffff0000000000000000000000000000000000000000169055565b600154604080516331a9108f60e11b815260048101849052905183926000926001600160a01b0390911691636352211e91602480820192602092909190829003018186803b1580156111f157600080fd5b505afa158015611205573d6000803e3d6000fd5b505050506040513d602081101561121b57600080fd5b50516001600160a01b03161415611279576040805162461bcd60e51b815260206004820152601660248201527f4974206973206e6f742061204e465420746f6b656e2100000000000000000000604482015290519081900360640190fd5b600154604080516331a9108f60e11b815260048101859052905133926001600160a01b031691636352211e916024808301926020929190829003018186803b1580156112c457600080fd5b505afa1580156112d8573d6000803e3d6000fd5b505050506040513d60208110156112ee57600080fd5b50516001600160a01b0316146113355760405162461bcd60e51b8152600401808060200182810382526024815260200180611efb6024913960400191505060405180910390fd5b61133d611e95565b50600082815260076020908152604091829020825160c0810184528154815260018201546001600160a01b0316928101929092526002810154928201929092526003820154606082015260048201546080820181905260059092015460a0820152906113f0576040805162461bcd60e51b815260206004820152601c60248201527f5468697320746f6b656e206973206e6f74206465706f73697465642100000000604482015290519081900360640190fd5b42816040015111611448576040805162461bcd60e51b815260206004820152601760248201527f5468697320746f6b656e20697320626f72726f77656421000000000000000000604482015290519081900360640190fd5b60008381526007602052604081208181556001810180547fffffffffffffffffffffffff0000000000000000000000000000000000000000169055600281018290556003810182905560048101829055600501556114a583611a35565b506040514290849033907f8ab7fda4125e30db8c138b15deb711b89e21e1c06d7e1e5bb5111ed59324df3390600090a4505050565b6002546001600160a01b031681565b600a5481565b6004546001600160a01b031681565b6000546001600160a01b031690565b60095481565b61151b611a31565b6000546001600160a01b0390811691161461157d576040805162461bcd60e51b815260206004820181905260248201527f4f776e61626c653a2063616c6c6572206973206e6f7420746865206f776e6572604482015290519081900360640190fd5b606481106115bc5760405162461bcd60e51b8152600401808060200182810382526022815260200180611f6b6022913960400191505060405180910390fd5b600655565b6115c9611a31565b6000546001600160a01b0390811691161461162b576040805162461bcd60e51b815260206004820181905260248201527f4f776e61626c653a2063616c6c6572206973206e6f7420746865206f776e6572604482015290519081900360640190fd5b6064811061166a5760405162461bcd60e51b8152600401808060200182810382526022815260200180611f6b6022913960400191505060405180910390fd5b600555565b6001546001600160a01b031681565b611686611a31565b6000546001600160a01b039081169116146116e8576040805162461bcd60e51b815260206004820181905260248201527f4f776e61626c653a2063616c6c6572206973206e6f7420746865206f776e6572604482015290519081900360640190fd5b6001600160a01b038116611743576040805162461bcd60e51b815260206004820152601560248201527f416464726573732063616e206e6f7420626520302e0000000000000000000000604482015290519081900360640190fd5b600380547fffffffffffffffffffffffff0000000000000000000000000000000000000000166001600160a01b0392909216919091179055565b6008818154811061178a57fe5b600091825260209091200154905081565b6117a3611a31565b6000546001600160a01b03908116911614611805576040805162461bcd60e51b815260206004820181905260248201527f4f776e61626c653a2063616c6c6572206973206e6f7420746865206f776e6572604482015290519081900360640190fd5b6001600160a01b03811661184a5760405162461bcd60e51b8152600401808060200182810382526026815260200180611ed56026913960400191505060405180910390fd5b600080546040516001600160a01b03808516939216917f8be0079c531659141344cd1fd0a4f28419497f9722a3daafe3b4186f6b6457e091a3600080547fffffffffffffffffffffffff0000000000000000000000000000000000000000166001600160a01b0392909216919091179055565b6000826118cc57506000611919565b828202828482816118d957fe5b04146119165760405162461bcd60e51b8152600401808060200182810382526021815260200180611f1f6021913960400191505060405180910390fd5b90505b92915050565b600061191683836040518060400160405280601a81526020017f536166654d6174683a206469766973696f6e206279207a65726f000000000000815250611b3b565b600061191683836040518060400160405280601e81526020017f536166654d6174683a207375627472616374696f6e206f766572666c6f770000815250611bdd565b604080516001600160a01b0380861660248301528416604482015260648082018490528251808303909101815260849091019091526020810180517bffffffffffffffffffffffffffffffffffffffffffffffffffffffff167f23b872dd00000000000000000000000000000000000000000000000000000000179052611a2b908590611c37565b50505050565b3390565b60008080805b600854811015611a78578460088281548110611a5357fe5b90600052602060002001541415611a705780925060019150611a78565b600101611a3b565b5080611a8957600092505050611b36565b815b6008547fffffffffffffffffffffffffffffffffffffffffffffffffffffffffffffffff01811015611af35760088160010181548110611ac757fe5b906000526020600020015460088281548110611adf57fe5b600091825260209091200155600101611a8b565b50600880547fffffffffffffffffffffffffffffffffffffffffffffffffffffffffffffffff8101908110611b2457fe5b60009182526020822001555060019150505b919050565b60008183611bc75760405162461bcd60e51b81526004018080602001828103825283818151815260200191508051906020019080838360005b83811015611b8c578181015183820152602001611b74565b50505050905090810190601f168015611bb95780820380516001836020036101000a031916815260200191505b509250505060405180910390fd5b506000838581611bd357fe5b0495945050505050565b60008184841115611c2f5760405162461bcd60e51b8152602060048201818152835160248401528351909283926044909101919085019080838360008315611b8c578181015183820152602001611b74565b505050900390565b6060611c8c826040518060400160405280602081526020017f5361666545524332303a206c6f772d6c6576656c2063616c6c206661696c6564815250856001600160a01b0316611ced9092919063ffffffff16565b805190915015611ce857808060200190516020811015611cab57600080fd5b5051611ce85760405162461bcd60e51b815260040180806020018281038252602a815260200180611f8d602a913960400191505060405180910390fd5b505050565b6060611cfc8484600085611d04565b949350505050565b6060611d0f85611e8f565b611d60576040805162461bcd60e51b815260206004820152601d60248201527f416464726573733a2063616c6c20746f206e6f6e2d636f6e7472616374000000604482015290519081900360640190fd5b60006060866001600160a01b031685876040518082805190602001908083835b60208310611dbd57805182527fffffffffffffffffffffffffffffffffffffffffffffffffffffffffffffffe09092019160209182019101611d80565b6001836020036101000a03801982511681845116808217855250505050505090500191505060006040518083038185875af1925050503d8060008114611e1f576040519150601f19603f3d011682016040523d82523d6000602084013e611e24565b606091505b50915091508115611e38579150611cfc9050565b805115611e485780518082602001fd5b60405162461bcd60e51b8152602060048201818152865160248401528651879391928392604401919085019080838360008315611b8c578181015183820152602001611b74565b3b151590565b6040518060c001604052806000815260200160006001600160a01b0316815260200160008152602001600081526020016000815260200160008152509056fe4f776e61626c653a206e6577206f776e657220697320746865207a65726f2061646472657373596f7520617265206e6f7420746865206f776e6572206f66207468697320746f6b656e21536166654d6174683a206d756c7469706c69636174696f6e206f766572666c6f775468697320746f6b656e2063616e206e6f7420626520626f72726f77656420666f7220736f206c6f6e6721526174696f2063616e206e6f742062652067726561746572207468616e20313030215361666545524332303a204552433230206f7065726174696f6e20646964206e6f742073756363656564a26469706673582212206f4c00a8aa779d4706c43c7b4a9ce847385199045fe3f797a51a972c37c7522d64736f6c63430006020033",
  "source": "pragma solidity ^0.6.0;\n\nimport \"@openzeppelin/contracts/math/SafeMath.sol\";\nimport \"@openzeppelin/contracts/token/ERC20/IERC20.sol\";\nimport \"@openzeppelin/contracts/token/ERC20/SafeERC20.sol\";\nimport \"@openzeppelin/contracts/token/ERC721/IERC721.sol\";\nimport \"@openzeppelin/contracts/token/ERC721/IERC721Receiver.sol\";\nimport \"@openzeppelin/contracts/access/Ownable.sol\";\nimport \"@openzeppelin/contracts/utils/Address.sol\";\nimport \"../common/hotpotinterface.sol\";\nimport \"../common/ILoan.sol\";\n\ncontract Loan is Ownable, ILoan {\n    using Address for address;\n    using SafeERC20 for IERC20;\n    using SafeMath for uint256;\n    \n    IERC721 public erc721;\n    IERC20 public erc20;\n\n    address public devAddress;\n    address public rewardAddress;\n\n    uint256 public devRatio = 2;\n    uint256 public rewardRatio = 3;\n\n    mapping(uint256 => Reservation) public reservations;\n    uint256[] public loanTokens;\n\n    uint256 public thresholdTime = 30 * 60;\n    uint256 public maxLoanDay = 365;\n\n    event TokenDeposit(\n        address indexed owner,\n        uint256 indexed tokenId,\n        uint256 indexed start,\n        uint256 depositDays,\n        uint256 pricePerDay\n    );\n\n    event TokenCancelDeposit(\n        address indexed owner,\n        uint256 indexed tokenId,\n        uint256 indexed cancleTime\n    );\n\n    event TokenBorrowed(\n        address indexed borrower,\n        uint256 indexed tokenId,\n        uint256 indexed start,\n        uint256 borrowDays,\n        uint256 pricePerDay\n    );\n\n    struct Reservation {\n        uint256 tokenId;\n        address borrower;\n        uint256 borrowEndTime; //borrow end time\n        uint256 pricePerDay;\n        uint256 start; // loan start time\n        uint256 times; //loan for how many days\n    }\n\n    modifier validNFToken(uint256 _tokenId) {\n        require(\n            erc721.ownerOf(_tokenId) != address(0),\n            \"It is not a NFT token!\"\n        );\n        _;\n    }\n\n    constructor(address _erc721, address _erc20) public {\n        require(_erc721.isContract(), \"ERC721 address is not contract!\");\n        require(_erc20.isContract(), \"ERC20 address is contract!\");\n        erc721 = IERC721(_erc721);\n        erc20 = IERC20(_erc20);\n    }\n\n    function setDevAddress(address _dev) external onlyOwner{\n        require(_dev!=address(0),\"Address can not be 0.\");\n        devAddress = _dev;\n    }\n\n    function setRewardAddress(address _addr) external onlyOwner{\n        require(_addr!=address(0),\"Address can not be 0.\");\n        rewardAddress = _addr;\n    }\n    \n    function setRewardRatio(uint256 _ratio) external onlyOwner{\n        require(_ratio<100,\"Ratio can not be greater than 100!\");\n        rewardRatio = _ratio;\n    }\n\n    function setDevRatio(uint256 _ratio) external onlyOwner{\n        require(_ratio<100,\"Ratio can not be greater than 100!\");\n        devRatio = _ratio;\n    }\n\n    function checkPrivilege(\n        address _user,\n        uint256 _tokenId,\n        uint256 _time\n    ) external override view validNFToken(_tokenId) returns (bool) {\n        //if the token is borrowed , the owner can not use it\n        Reservation memory r = reservations[_tokenId];\n\n        //The token is not deposited\n        if(r.start==0){\n            //The user must be the token owner\n            return erc721.ownerOf(_tokenId)==_user;\n        }\n        //The token is deposited\n        else{\n            if(r.borrower == _user){\n                //The borrower is borrowing \n                if(r.borrowEndTime>_time){\n                    return true;\n                }\n            }else{\n                if(_user==erc721.ownerOf(_tokenId)){\n                    //The borrow end\n                    if(r.borrowEndTime<_time){\n                        return true;\n                    }\n                }\n            }\n        }\n        return false;\n    }\n\n\n    // event TokenCancelDeposit(\n    //     address indexed owner,\n    //     uint256 indexed tokenId,\n    //     uint256 indexed cancleTime\n    // );\n\n\n    function cancelDeposit(uint256 _tokenId) external validNFToken(_tokenId){\n        require(\n            erc721.ownerOf(_tokenId) == msg.sender,\n            \"You are not the owner of this token!\"\n        );\n        Reservation memory r = reservations[_tokenId];\n        require(r.start != 0,\"This token is not deposited!\");\n        require(r.borrowEndTime>now,\"This token is borrowed!\");\n        delete reservations[_tokenId];\n        _remove(_tokenId);\n        emit TokenCancelDeposit(msg.sender,_tokenId,now);\n    }\n\n\n    function deposit(\n        uint256 _tokenId,\n        uint256 _days,\n        uint256 _pricePerDay\n    ) external validNFToken(_tokenId) {\n        require(_days < maxLoanDay, \"The max loan time is 365 days!\");\n        Reservation memory r = reservations[_tokenId];\n        if (r.start != 0) {\n            require(\n                r.start + r.times * 24 * 60 * 60 < now,\n                \"This token is in reservation!\"\n            );\n        }\n\n        require(\n            erc721.ownerOf(_tokenId) == msg.sender,\n            \"You are not the owner of this token!\"\n        );\n\n        reservations[_tokenId].tokenId = _tokenId;\n        reservations[_tokenId].start = now;\n        reservations[_tokenId].times = _days;\n        reservations[_tokenId].pricePerDay = _pricePerDay;\n\n        loanTokens.push(_tokenId);\n        emit TokenDeposit(msg.sender, _tokenId, now, _days, _pricePerDay);\n    }\n\n    function borrow(uint256 _tokenId, uint256 _days)\n        external\n        validNFToken(_tokenId)\n    {\n        require(_days < maxLoanDay, \"The max loan time is 365 days!\");\n        Reservation memory r = reservations[_tokenId];\n        require(r.start != 0, \"This token can not be borrowed!\");\n        require(\n            erc721.ownerOf(_tokenId) != msg.sender,\n            \"You are the owner of this token!\"\n        );\n        require(r.borrowEndTime > now, \"This token is borrowed!\");\n        require(\n            r.start + r.times * 86400 > now + thresholdTime,\n            \"This token is not avaliable now!\"\n        );\n        require(\n            r.start + r.times * 86400 > now + _days * 86400,\n            \"This token can not be borrowed for so long!\"\n        );\n\n        uint256 totalPrice = r.pricePerDay.mul(_days);\n        uint256 devPrice = totalPrice.mul(devRatio).div(100);\n        uint256 rewardPrice = totalPrice.mul(rewardRatio).div(100);\n        uint256 loanPrice = totalPrice.sub(rewardPrice).sub(devPrice);\n\n        erc20.safeTransferFrom(msg.sender, erc721.ownerOf(_tokenId), loanPrice);\n\n        erc20.safeTransferFrom(msg.sender, devAddress, devPrice);\n\n        erc20.safeTransferFrom(msg.sender, rewardAddress, rewardPrice);\n\n        r.borrowEndTime = now + _days * 86400;\n\n        emit TokenBorrowed(msg.sender, _tokenId, now, _days, r.pricePerDay);\n    }\n\n    function _remove(uint256 _tokenId) internal returns(bool){\n        uint256 index = 0;\n        bool haveToken = false;\n        for (uint256 i = 0; i < loanTokens.length; i++) {\n            if (loanTokens[i] == _tokenId) {\n                index = i;\n                haveToken = true;\n                break;\n            }\n        }\n\n        if (!haveToken) return false;\n\n        for (uint256 i = index; i < loanTokens.length - 1; i++) {\n            loanTokens[i] = loanTokens[i + 1];\n        }\n        delete loanTokens[loanTokens.length - 1];\n        return true;\n    }\n\n\n}\n",
  "sourcePath": "/Users/junhu/git/hotpotcontract/truffle/contracts/loan/Loan.sol",
  "compiler": {
    "name": "solc",
    "version": "0.6.2+commit.bacdbe57.Emscripten.clang"
  },
  "schemaVersion": "3.3.0",
  "updatedAt": "2020-10-18T09:35:19.675Z",
  "networkType": "ethereum",
  "devdoc": {
    "methods": {
      "owner()": {
        "details": "Returns the address of the current owner."
      },
      "renounceOwnership()": {
        "details": "Leaves the contract without owner. It will not be possible to call `onlyOwner` functions anymore. Can only be called by the current owner.     * NOTE: Renouncing ownership will leave the contract without an owner, thereby removing any functionality that is only available to the owner."
      },
      "transferOwnership(address)": {
        "details": "Transfers ownership of the contract to a new account (`newOwner`). Can only be called by the current owner."
      }
    }
  },
  "userdoc": {
    "methods": {}
  }
}