{
  "contractName": "LPTokenWrapper",
  "abi": [
    {
      "inputs": [],
      "name": "tokenAddr",
      "outputs": [
        {
          "internalType": "contract IERC20",
          "name": "",
          "type": "address"
        }
      ],
      "stateMutability": "view",
      "type": "function"
    },
    {
      "inputs": [],
      "name": "totalSupply",
      "outputs": [
        {
          "internalType": "uint256",
          "name": "",
          "type": "uint256"
        }
      ],
      "stateMutability": "view",
      "type": "function"
    },
    {
      "inputs": [
        {
          "internalType": "address",
          "name": "account",
          "type": "address"
        }
      ],
      "name": "balanceOf",
      "outputs": [
        {
          "internalType": "uint256",
          "name": "",
          "type": "uint256"
        }
      ],
      "stateMutability": "view",
      "type": "function"
    },
    {
      "inputs": [
        {
          "internalType": "uint256",
          "name": "amount",
          "type": "uint256"
        }
      ],
      "name": "stake",
      "outputs": [],
      "stateMutability": "nonpayable",
      "type": "function"
    },
    {
      "inputs": [
        {
          "internalType": "uint256",
          "name": "amount",
          "type": "uint256"
        }
      ],
      "name": "withdraw",
      "outputs": [],
      "stateMutability": "nonpayable",
      "type": "function"
    }
  ],
  "bytecode": "0x608060405234801561001057600080fd5b5061080c806100206000396000f3fe608060405234801561001057600080fd5b50600436106100675760003560e01c80635fbe4d1d116100505780635fbe4d1d146100a557806370a08231146100d6578063a694fc3a1461010957610067565b806318160ddd1461006c5780632e1a7d4d14610086575b600080fd5b610074610126565b60408051918252519081900360200190f35b6100a36004803603602081101561009c57600080fd5b503561012c565b005b6100ad61019d565b6040805173ffffffffffffffffffffffffffffffffffffffff9092168252519081900360200190f35b610074600480360360208110156100ec57600080fd5b503573ffffffffffffffffffffffffffffffffffffffff166101b9565b6100a36004803603602081101561011f57600080fd5b50356101e1565b60015490565b60015461013f908263ffffffff61025016565b60015533600090815260026020526040902054610162908263ffffffff61025016565b33600081815260026020526040812092909255905461019a9173ffffffffffffffffffffffffffffffffffffffff9091169083610299565b50565b60005473ffffffffffffffffffffffffffffffffffffffff1681565b73ffffffffffffffffffffffffffffffffffffffff1660009081526002602052604090205490565b6001546101f4908263ffffffff61032b16565b60015533600090815260026020526040902054610217908263ffffffff61032b16565b33600081815260026020526040812092909255905461019a9173ffffffffffffffffffffffffffffffffffffffff90911690308461039f565b600061029283836040518060400160405280601e81526020017f536166654d6174683a207375627472616374696f6e206f766572666c6f77000081525061043a565b9392505050565b6040805173ffffffffffffffffffffffffffffffffffffffff8416602482015260448082018490528251808303909101815260649091019091526020810180517bffffffffffffffffffffffffffffffffffffffffffffffffffffffff167fa9059cbb000000000000000000000000000000000000000000000000000000001790526103269084906104eb565b505050565b60008282018381101561029257604080517f08c379a000000000000000000000000000000000000000000000000000000000815260206004820152601b60248201527f536166654d6174683a206164646974696f6e206f766572666c6f770000000000604482015290519081900360640190fd5b6040805173ffffffffffffffffffffffffffffffffffffffff80861660248301528416604482015260648082018490528251808303909101815260849091019091526020810180517bffffffffffffffffffffffffffffffffffffffffffffffffffffffff167f23b872dd000000000000000000000000000000000000000000000000000000001790526104349085906104eb565b50505050565b600081848411156104e3576040517f08c379a00000000000000000000000000000000000000000000000000000000081526004018080602001828103825283818151815260200191508051906020019080838360005b838110156104a8578181015183820152602001610490565b50505050905090810190601f1680156104d55780820380516001836020036101000a031916815260200191505b509250505060405180910390fd5b505050900390565b606061054d826040518060400160405280602081526020017f5361666545524332303a206c6f772d6c6576656c2063616c6c206661696c65648152508573ffffffffffffffffffffffffffffffffffffffff166105c39092919063ffffffff16565b8051909150156103265780806020019051602081101561056c57600080fd5b5051610326576040517f08c379a000000000000000000000000000000000000000000000000000000000815260040180806020018281038252602a8152602001806107ad602a913960400191505060405180910390fd5b60606105d284846000856105da565b949350505050565b60606105e5856107a6565b61065057604080517f08c379a000000000000000000000000000000000000000000000000000000000815260206004820152601d60248201527f416464726573733a2063616c6c20746f206e6f6e2d636f6e7472616374000000604482015290519081900360640190fd5b600060608673ffffffffffffffffffffffffffffffffffffffff1685876040518082805190602001908083835b602083106106ba57805182527fffffffffffffffffffffffffffffffffffffffffffffffffffffffffffffffe0909201916020918201910161067d565b6001836020036101000a03801982511681845116808217855250505050505090500191505060006040518083038185875af1925050503d806000811461071c576040519150601f19603f3d011682016040523d82523d6000602084013e610721565b606091505b509150915081156107355791506105d29050565b8051156107455780518082602001fd5b6040517f08c379a00000000000000000000000000000000000000000000000000000000081526020600482018181528651602484015286518793919283926044019190850190808383600083156104a8578181015183820152602001610490565b3b15159056fe5361666545524332303a204552433230206f7065726174696f6e20646964206e6f742073756363656564a2646970667358221220aa4fca939f63a1a3534fbde81383608f134bda2085260b03b5ffa17172b3544b64736f6c63430006020033",
  "source": "pragma solidity ^0.6.0;\n\nimport \"../common/hotpotinterface.sol\";\nimport \"../common/ILoan.sol\";\nimport \"@openzeppelin/contracts/math/Math.sol\";\nimport \"@openzeppelin/contracts/math/SafeMath.sol\";\nimport \"@openzeppelin/contracts/token/ERC721/IERC721.sol\";\nimport \"@openzeppelin/contracts/token/ERC20/IERC20.sol\";\nimport \"@openzeppelin/contracts/token/ERC20/SafeERC20.sol\";\nimport \"@openzeppelin/contracts/access/Ownable.sol\";\nimport \"@openzeppelin/contracts/utils/Address.sol\";\nimport \"@openzeppelin/contracts/utils/ReentrancyGuard.sol\";\nimport \"@openzeppelin/contracts/utils/Pausable.sol\";\nimport \"../common/IInvite.sol\";\n\nabstract contract IRewardDistributionRecipient is Ownable {\n    address public rewardDistribution;\n\n    function notifyRewardAmount(uint256 reward) external virtual;\n\n    modifier onlyRewardDistribution() {\n        require(\n            _msgSender() == rewardDistribution,\n            \"Caller is not reward distribution\"\n        );\n        _;\n    }\n\n    function setRewardDistribution(address _rewardDistribution)\n        external\n        onlyOwner\n    {\n        rewardDistribution = _rewardDistribution;\n    }\n}\n\ncontract LPTokenWrapper {\n    using SafeMath for uint256;\n    using SafeERC20 for IERC20;\n\n    IERC20 public tokenAddr;\n    uint256 private _totalSupply;\n    mapping(address => uint256) private _balances;\n\n    function totalSupply() public view returns (uint256) {\n        return _totalSupply;\n    }\n\n    function balanceOf(address account) public view returns (uint256) {\n        return _balances[account];\n    }\n\n    function stake(uint256 amount) public virtual {\n        _totalSupply = _totalSupply.add(amount);\n        _balances[msg.sender] = _balances[msg.sender].add(amount);\n        tokenAddr.safeTransferFrom(msg.sender, address(this), amount);\n    }\n\n    function withdraw(uint256 amount) public virtual {\n        _totalSupply = _totalSupply.sub(amount);\n        _balances[msg.sender] = _balances[msg.sender].sub(amount);\n        tokenAddr.safeTransfer(msg.sender, amount);\n    }\n}\n\ncontract StakePool is\n    LPTokenWrapper,\n    IRewardDistributionRecipient,\n    Pausable,\n    ReentrancyGuard\n{\n    using Address for address;\n    using SafeERC20 for IERC20;\n\n    IERC20 public erc20;\n    IHotPot public hotpot;\n    IERC721 public erc721;\n    ILoan public loan;\n    IInvite public invite;\n\n    address public rewardContract;\n    uint256 public DURATION = 86400*7;\n\n    uint256 public starttime = 1601391600;\n    uint256 public periodFinish = 0;\n    uint256 public rewardRate = 0;\n    uint256 public lastUpdateTime;\n    uint256 public rewardPerTokenStored;\n\n    mapping(address => uint256) public lastRewardTime;\n\n    uint256 public freeRewardRatio = 10;\n    uint256 public grade1RewardRatio = 20;\n    uint256 public grade2RewardRatio = 25;\n    uint256 public grade3RewardRatio = 30;\n\n    uint256 public rewardRatio = 30;\n\n    mapping(address => uint256) public userRewardPerTokenPaid;\n    mapping(address => uint256) public rewards;\n\n    event RewardChanged(uint256 reward);\n    event Staked(address indexed user, uint256 amount);\n    event Withdrawn(address indexed user, uint256 amount);\n    event RewardPaid(address indexed user, uint256 reward, uint256 percent);\n    event Rescue(address indexed dst, uint256 sad);\n    event RescueToken(address indexed dst, address indexed token, uint256 sad);\n\n    function notifyRewardAmount(uint256 reward)\n        external\n        override\n        onlyRewardDistribution\n        updateReward(address(0))\n    {\n        _nofityReward(reward);\n    }\n\n    function _nofityReward(uint256 reward) internal {\n        if (block.timestamp > starttime) {\n            if (block.timestamp >= periodFinish) {\n                rewardRate = reward.div(DURATION);\n                _decreaseRewardRatio();\n            } else {\n                uint256 remaining = periodFinish.sub(block.timestamp);\n                uint256 leftover = remaining.mul(rewardRate);\n                rewardRate = reward.add(leftover).div(DURATION);\n            }\n            lastUpdateTime = block.timestamp;\n            periodFinish = block.timestamp.add(DURATION);\n            emit RewardChanged(reward);\n        } else {\n            rewardRate = reward.div(DURATION);\n            lastUpdateTime = starttime;\n            periodFinish = starttime.add(DURATION);\n            emit RewardChanged(reward);\n        }\n    }\n\n    constructor(\n        address _stakeERC20,\n        address _hotpotNFT,\n        address _hotpotERC20,\n        address _loan,\n        address _reward,\n        address _invite,\n        uint256 _starttime,\n        uint256 duration,\n        uint256 _rewardAmount\n    ) public {\n        tokenAddr = IERC20(_stakeERC20);\n        hotpot = IHotPot(_hotpotNFT);\n        invite = IInvite(_invite);\n        erc721 = IERC721(_hotpotNFT);\n        erc20 = IERC20(_hotpotERC20);\n        loan = ILoan(_loan);\n        rewardContract = _reward;\n        rewardDistribution = _msgSender();\n        starttime = _starttime;\n        DURATION = duration;\n        _nofityReward(_rewardAmount);\n    }\n\n    function setLoan(address _addr) external onlyOwner {\n        require(_addr.isContract(), \"Must be contract\");\n        loan = ILoan(_addr);\n    }\n\n    function setInvite(address _addr) external onlyOwner {\n        require(_addr.isContract(), \"Must be contract\");\n        invite = IInvite(_addr);\n    }\n\n    function getPoolBalance() external view returns (uint256) {\n        return erc20.balanceOf(address(this));\n    }\n\n    function setRewardContract(address _addr) external onlyOwner {\n        require(_addr.isContract(), \"It is not contract address!\");\n        rewardContract = _addr;\n    }\n\n    function getBlockTime() external view returns (uint256) {\n        return block.timestamp;\n    }\n\n    modifier checkStart() {\n        require(block.timestamp >= starttime, \"not start\");\n        _;\n    }\n\n    modifier validToken(uint256 _tokenId) {\n        require(erc721.ownerOf(_tokenId) != address(0), \"This is not a token!\");\n        _;\n    }\n\n    modifier updateReward(address account) {\n        rewardPerTokenStored = rewardPerToken();\n        lastUpdateTime = lastTimeRewardApplicable();\n        if (account != address(0)) {\n            rewards[account] = earned(account);\n            userRewardPerTokenPaid[account] = rewardPerTokenStored;\n        }\n        _;\n    }\n\n    function lastTimeRewardApplicable() public view returns (uint256) {\n        return Math.min(block.timestamp, periodFinish);\n    }\n\n    function rewardPerToken() public view returns (uint256) {\n        if (totalSupply() == 0) {\n            return rewardPerTokenStored;\n        }\n        return\n            rewardPerTokenStored.add(\n                lastTimeRewardApplicable()\n                    .sub(lastUpdateTime)\n                    .mul(rewardRate)\n                    .mul(1e18)\n                    .div(totalSupply())\n            );\n    }\n\n    function earned(address account) public view returns (uint256) {\n        return\n            balanceOf(account)\n                .mul(rewardPerToken().sub(userRewardPerTokenPaid[account]))\n                .div(1e18)\n                .add(rewards[account]);\n    }\n\n    function stake(uint256 amount)\n        public\n        override\n        updateReward(msg.sender)\n        checkStart\n        nonReentrant\n    {\n        require(amount > 0, \"Cannot stake 0\");\n        super.stake(amount);\n        emit Staked(msg.sender, amount);\n    }\n\n    function _getReward(uint256 _percent) internal checkStart {\n        require(_percent < 1000, \"cal reward error!\");\n        uint256 trueReward = earned(msg.sender);\n        if (trueReward > 0) {\n            uint256 reward = trueReward.mul(_percent).div(1000);\n\n            rewards[msg.sender] = trueReward.sub(reward);\n\n            erc20.safeTransfer(\n                rewardContract,\n                reward.mul(rewardRatio).div(100)\n            );\n            erc20.safeTransfer(\n                msg.sender,\n                reward.mul(100 - rewardRatio).div(100)\n            );\n\n            emit RewardPaid(msg.sender, reward, _percent);\n        }\n    }\n\n    function getRewardFree()\n        public\n        updateReward(msg.sender)\n        checkStart\n        nonReentrant\n        whenNotPaused\n    {\n        require(\n            lastRewardTime[msg.sender] + 24 * 60 * 60 < now,\n            \"You get reward within 24 hours!\"\n        );\n        lastRewardTime[msg.sender] = now;\n        uint256 ratioUpdate = invite.calRatioUpdate(msg.sender);\n        uint256 ratio = freeRewardRatio * 10 + ratioUpdate;\n        _getReward(ratio);\n    }\n\n    function getRewardByNFT(uint256 _tokenId)\n        public\n        updateReward(msg.sender)\n        checkStart\n        nonReentrant\n        validToken(_tokenId)\n        whenNotPaused\n    {\n        //1.check the NFT is used?\n        uint256 time = hotpot.getUseTime(_tokenId);\n        require(\n            time + 24 * 60 * 60 < now,\n            \"This ticket is used within 24 hours!\"\n        );\n\n        require(\n            loan.checkPrivilege(msg.sender, _tokenId, now),\n            \"You do not have right to use this token!\"\n        );\n\n        uint256 grade = hotpot.getGrade(_tokenId);\n        uint256 percent = grade1RewardRatio;\n        if (grade == 1) {\n            percent = grade1RewardRatio;\n        } else if (grade == 2) {\n            percent = grade2RewardRatio;\n        } else if (grade == 3) {\n            percent = grade3RewardRatio;\n        }\n        hotpot.setUse(_tokenId);\n        _getReward(percent * 10);\n    }\n\n    function withdraw(uint256 amount)\n        public\n        override\n        updateReward(msg.sender)\n        nonReentrant\n        checkStart\n    {\n        require(amount > 0, \"Cannot withdraw 0\");\n        super.withdraw(amount);\n        emit Withdrawn(msg.sender, amount);\n    }\n\n    function _decreaseRewardRatio() internal {\n        freeRewardRatio = 5;\n        grade1RewardRatio = 15;\n        grade2RewardRatio = 20;\n        grade3RewardRatio = 30;\n    }\n\n    function rescue(address payable to_, uint256 amount_) external onlyOwner {\n        require(to_ != address(0), \"must not 0\");\n        require(amount_ > 0, \"must gt 0\");\n\n        to_.transfer(amount_);\n        emit Rescue(to_, amount_);\n    }\n\n    function rescue(\n        address to_,\n        IERC20 token_,\n        uint256 amount_\n    ) external onlyOwner {\n        require(to_ != address(0), \"must not 0\");\n        require(amount_ > 0, \"must gt 0\");\n        require(token_ != erc20, \"must not erc20\");\n        require(token_ != tokenAddr, \"must not this plToken\");\n\n        token_.transfer(to_, amount_);\n        emit RescueToken(to_, address(token_), amount_);\n    }\n\n    function pause() external onlyOwner {\n        _pause();\n    }\n\n    function unpause() external onlyOwner {\n        _unpause();\n    }\n}\n",
  "sourcePath": "/Users/junhu/git/hotpotcontract/truffle/contracts/stake/StakePool.sol",
  "compiler": {
    "name": "solc",
    "version": "0.6.2+commit.bacdbe57.Emscripten.clang"
  },
  "schemaVersion": "3.3.0",
  "updatedAt": "2020-11-03T06:40:10.832Z",
  "devdoc": {
    "methods": {}
  },
  "userdoc": {
    "methods": {}
  }
}