{
  "contractName": "NFTMarket",
  "abi": [
    {
      "inputs": [
        {
          "internalType": "address",
          "name": "_reward",
          "type": "address"
        },
        {
          "internalType": "address",
          "name": "_nft",
          "type": "address"
        },
        {
          "internalType": "address",
          "name": "_hotpot",
          "type": "address"
        },
        {
          "internalType": "address",
          "name": "_loan",
          "type": "address"
        },
        {
          "internalType": "address",
          "name": "_dev",
          "type": "address"
        }
      ],
      "stateMutability": "nonpayable",
      "type": "constructor"
    },
    {
      "anonymous": false,
      "inputs": [
        {
          "indexed": true,
          "internalType": "address",
          "name": "_seller",
          "type": "address"
        },
        {
          "indexed": true,
          "internalType": "uint256",
          "name": "_tokenId",
          "type": "uint256"
        },
        {
          "indexed": false,
          "internalType": "uint256",
          "name": "_price",
          "type": "uint256"
        }
      ],
      "name": "Listed",
      "type": "event"
    },
    {
      "anonymous": false,
      "inputs": [
        {
          "indexed": true,
          "internalType": "address",
          "name": "previousOwner",
          "type": "address"
        },
        {
          "indexed": true,
          "internalType": "address",
          "name": "newOwner",
          "type": "address"
        }
      ],
      "name": "OwnershipTransferred",
      "type": "event"
    },
    {
      "anonymous": false,
      "inputs": [
        {
          "indexed": true,
          "internalType": "address",
          "name": "_buyer",
          "type": "address"
        },
        {
          "indexed": true,
          "internalType": "address",
          "name": "_seller",
          "type": "address"
        },
        {
          "indexed": true,
          "internalType": "uint256",
          "name": "_tokenId",
          "type": "uint256"
        },
        {
          "indexed": false,
          "internalType": "uint256",
          "name": "_price",
          "type": "uint256"
        },
        {
          "indexed": false,
          "internalType": "uint8",
          "name": "grade",
          "type": "uint8"
        }
      ],
      "name": "Swapped",
      "type": "event"
    },
    {
      "anonymous": false,
      "inputs": [
        {
          "indexed": true,
          "internalType": "address",
          "name": "_seller",
          "type": "address"
        },
        {
          "indexed": true,
          "internalType": "uint256",
          "name": "_tokenId",
          "type": "uint256"
        }
      ],
      "name": "Unlisted",
      "type": "event"
    },
    {
      "inputs": [],
      "name": "devAddress",
      "outputs": [
        {
          "internalType": "address",
          "name": "",
          "type": "address"
        }
      ],
      "stateMutability": "view",
      "type": "function",
      "constant": true
    },
    {
      "inputs": [],
      "name": "erc20",
      "outputs": [
        {
          "internalType": "contract IERC20",
          "name": "",
          "type": "address"
        }
      ],
      "stateMutability": "view",
      "type": "function",
      "constant": true
    },
    {
      "inputs": [],
      "name": "erc721",
      "outputs": [
        {
          "internalType": "contract ERC721",
          "name": "",
          "type": "address"
        }
      ],
      "stateMutability": "view",
      "type": "function",
      "constant": true
    },
    {
      "inputs": [],
      "name": "hotpot",
      "outputs": [
        {
          "internalType": "contract IHotPot",
          "name": "",
          "type": "address"
        }
      ],
      "stateMutability": "view",
      "type": "function",
      "constant": true
    },
    {
      "inputs": [],
      "name": "loan",
      "outputs": [
        {
          "internalType": "contract ILoan",
          "name": "",
          "type": "address"
        }
      ],
      "stateMutability": "view",
      "type": "function",
      "constant": true
    },
    {
      "inputs": [],
      "name": "owner",
      "outputs": [
        {
          "internalType": "address",
          "name": "",
          "type": "address"
        }
      ],
      "stateMutability": "view",
      "type": "function",
      "constant": true
    },
    {
      "inputs": [
        {
          "internalType": "uint256",
          "name": "",
          "type": "uint256"
        }
      ],
      "name": "priceOf",
      "outputs": [
        {
          "internalType": "uint256",
          "name": "",
          "type": "uint256"
        }
      ],
      "stateMutability": "view",
      "type": "function",
      "constant": true
    },
    {
      "inputs": [],
      "name": "renounceOwnership",
      "outputs": [],
      "stateMutability": "nonpayable",
      "type": "function"
    },
    {
      "inputs": [
        {
          "internalType": "uint256",
          "name": "",
          "type": "uint256"
        }
      ],
      "name": "reservations",
      "outputs": [
        {
          "internalType": "uint256",
          "name": "tokenId",
          "type": "uint256"
        },
        {
          "internalType": "address",
          "name": "owner",
          "type": "address"
        },
        {
          "internalType": "uint256",
          "name": "price",
          "type": "uint256"
        }
      ],
      "stateMutability": "view",
      "type": "function",
      "constant": true
    },
    {
      "inputs": [],
      "name": "rewardAddress",
      "outputs": [
        {
          "internalType": "address",
          "name": "",
          "type": "address"
        }
      ],
      "stateMutability": "view",
      "type": "function",
      "constant": true
    },
    {
      "inputs": [
        {
          "internalType": "uint256",
          "name": "",
          "type": "uint256"
        }
      ],
      "name": "sellerOf",
      "outputs": [
        {
          "internalType": "address",
          "name": "",
          "type": "address"
        }
      ],
      "stateMutability": "view",
      "type": "function",
      "constant": true
    },
    {
      "inputs": [],
      "name": "taxDev",
      "outputs": [
        {
          "internalType": "uint256",
          "name": "",
          "type": "uint256"
        }
      ],
      "stateMutability": "view",
      "type": "function",
      "constant": true
    },
    {
      "inputs": [],
      "name": "taxRatio",
      "outputs": [
        {
          "internalType": "uint256",
          "name": "",
          "type": "uint256"
        }
      ],
      "stateMutability": "view",
      "type": "function",
      "constant": true
    },
    {
      "inputs": [
        {
          "internalType": "address",
          "name": "newOwner",
          "type": "address"
        }
      ],
      "name": "transferOwnership",
      "outputs": [],
      "stateMutability": "nonpayable",
      "type": "function"
    },
    {
      "inputs": [],
      "name": "updatePosibility",
      "outputs": [
        {
          "internalType": "uint256",
          "name": "",
          "type": "uint256"
        }
      ],
      "stateMutability": "view",
      "type": "function",
      "constant": true
    },
    {
      "inputs": [
        {
          "internalType": "address",
          "name": "_addr",
          "type": "address"
        }
      ],
      "name": "setRewardAddress",
      "outputs": [],
      "stateMutability": "nonpayable",
      "type": "function"
    },
    {
      "inputs": [
        {
          "internalType": "address",
          "name": "_addr",
          "type": "address"
        }
      ],
      "name": "setDevAddress",
      "outputs": [],
      "stateMutability": "nonpayable",
      "type": "function"
    },
    {
      "inputs": [
        {
          "internalType": "address",
          "name": "_addr",
          "type": "address"
        }
      ],
      "name": "setHotPotTicket",
      "outputs": [],
      "stateMutability": "nonpayable",
      "type": "function"
    },
    {
      "inputs": [
        {
          "internalType": "address",
          "name": "_addr",
          "type": "address"
        }
      ],
      "name": "setERC20",
      "outputs": [],
      "stateMutability": "nonpayable",
      "type": "function"
    },
    {
      "inputs": [
        {
          "internalType": "address",
          "name": "_addr",
          "type": "address"
        }
      ],
      "name": "setLoan",
      "outputs": [],
      "stateMutability": "nonpayable",
      "type": "function"
    },
    {
      "inputs": [
        {
          "internalType": "uint256",
          "name": "_ratio",
          "type": "uint256"
        }
      ],
      "name": "setTax",
      "outputs": [],
      "stateMutability": "nonpayable",
      "type": "function"
    },
    {
      "inputs": [
        {
          "internalType": "uint256",
          "name": "_posibility",
          "type": "uint256"
        }
      ],
      "name": "setUpdatePosibility",
      "outputs": [],
      "stateMutability": "nonpayable",
      "type": "function"
    },
    {
      "inputs": [],
      "name": "getListSize",
      "outputs": [
        {
          "internalType": "uint256",
          "name": "",
          "type": "uint256"
        }
      ],
      "stateMutability": "view",
      "type": "function",
      "constant": true
    },
    {
      "inputs": [],
      "name": "getListToken",
      "outputs": [
        {
          "internalType": "uint256[]",
          "name": "",
          "type": "uint256[]"
        }
      ],
      "stateMutability": "view",
      "type": "function",
      "constant": true
    },
    {
      "inputs": [
        {
          "internalType": "uint256",
          "name": "_tokenId",
          "type": "uint256"
        }
      ],
      "name": "swap",
      "outputs": [],
      "stateMutability": "nonpayable",
      "type": "function"
    },
    {
      "inputs": [
        {
          "internalType": "uint256",
          "name": "_tokenId",
          "type": "uint256"
        }
      ],
      "name": "unlist",
      "outputs": [],
      "stateMutability": "nonpayable",
      "type": "function"
    },
    {
      "inputs": [
        {
          "internalType": "address",
          "name": "_operator",
          "type": "address"
        },
        {
          "internalType": "address",
          "name": "_seller",
          "type": "address"
        },
        {
          "internalType": "uint256",
          "name": "_tokenId",
          "type": "uint256"
        },
        {
          "internalType": "bytes",
          "name": "_data",
          "type": "bytes"
        }
      ],
      "name": "onERC721Received",
      "outputs": [
        {
          "internalType": "bytes4",
          "name": "",
          "type": "bytes4"
        }
      ],
      "stateMutability": "nonpayable",
      "type": "function"
    },
    {
      "inputs": [
        {
          "internalType": "uint256",
          "name": "_tokenId",
          "type": "uint256"
        }
      ],
      "name": "isListed",
      "outputs": [
        {
          "internalType": "bool",
          "name": "",
          "type": "bool"
        }
      ],
      "stateMutability": "view",
      "type": "function",
      "constant": true
    }
  ],
  "bytecode": "0x6080604052600260085560016009556004600a556001600f553480156200002557600080fd5b506040516200272138038062002721833981810160405260a08110156200004b57600080fd5b5080516020820151604083015160608401516080909401519293919290919060006200007f6001600160e01b036200030616565b600080546001600160a01b0319166001600160a01b0383169081178255604051929350917f8be0079c531659141344cd1fd0a4f28419497f9722a3daafe3b4186f6b6457e0908290a3506001600160a01b038116620000dd57600080fd5b6001600160a01b038516620000f157600080fd5b6001600160a01b0384166200010557600080fd5b6001600160a01b0383166200011957600080fd5b62000138846001600160a01b03166200030a60201b62001b161760201c565b62000179576040805162461bcd60e51b815260206004820152601a602482015260008051602062002701833981519152604482015290519081900360640190fd5b62000198856001600160a01b03166200030a60201b62001b161760201c565b620001d9576040805162461bcd60e51b815260206004820152601a602482015260008051602062002701833981519152604482015290519081900360640190fd5b620001f8836001600160a01b03166200030a60201b62001b161760201c565b62000239576040805162461bcd60e51b815260206004820152601a602482015260008051602062002701833981519152604482015290519081900360640190fd5b62000258826001600160a01b03166200030a60201b62001b161760201c565b62000299576040805162461bcd60e51b815260206004820152601a602482015260008051602062002701833981519152604482015290519081900360640190fd5b600680546001600160a01b03199081166001600160a01b039788161790915560078054821692871692909217909155600280548216938616939093179092556004805483169385169384179055600380548316909317909255600580549091169190921617905562000310565b3390565b3b151590565b6123e180620003206000396000f3fe608060405234801561001057600080fd5b50600436106101c45760003560e01c8063929c0ca8116100f9578063d1d683cb11610097578063e18eaaa711610071578063e18eaaa7146104dd578063e6db6a3014610535578063f2fde38b1461055b578063fcce488314610581576101c4565b8063d1d683cb1461049b578063d285b7b4146104b8578063e05c5a83146104c0576101c4565b8063bca6ce64116100d3578063bca6ce641461042a578063bf5a4dd314610432578063c29a6fda1461044f578063d0d41fe114610475576101c4565b8063929c0ca8146103e857806394b918de146103f0578063b9186d7d1461040d576101c4565b80635e00e67911610166578063779156391161014057806377915639146103c8578063785e9e86146103d05780638cf57cb9146103d85780638da5cb5b146103e0576101c4565b80635e00e67914610392578063715018a6146103b85780637771b02f146103c0576101c4565b80632e5bb6ff116101a25780632e5bb6ff1461032b5780633ad10ef61461034a57806341f7b092146103525780634a89a6c814610378576101c4565b8063067cf832146101c9578063150b7a021461020c57806315ea88c414610307575b600080fd5b6101e6600480360360208110156101df57600080fd5b50356105b2565b604080519384526001600160a01b03909216602084015282820152519081900360600190f35b6102d26004803603608081101561022257600080fd5b6001600160a01b0382358116926020810135909116916040820135919081019060808101606082013564010000000081111561025d57600080fd5b82018360208201111561026f57600080fd5b8035906020019184600183028401116401000000008311171561029157600080fd5b91908080601f0160208091040260200160405190810160405280939291908181526020018383808284376000920191909152509295506105de945050505050565b604080517fffffffff000000000000000000000000000000000000000000000000000000009092168252519081900360200190f35b61030f610935565b604080516001600160a01b039092168252519081900360200190f35b6103486004803603602081101561034157600080fd5b5035610944565b005b61030f610a08565b6103486004803603602081101561036857600080fd5b50356001600160a01b0316610a17565b610380610b13565b60408051918252519081900360200190f35b610348600480360360208110156103a857600080fd5b50356001600160a01b0316610b24565b610348610c20565b610380610ce1565b610380610ce7565b61030f610ced565b61030f610cfc565b61030f610d0b565b610380610d1a565b6103486004803603602081101561040657600080fd5b5035610d20565b6103806004803603602081101561042357600080fd5b503561126e565b61030f611280565b6103486004803603602081101561044857600080fd5b503561128f565b6103486004803603602081101561046557600080fd5b50356001600160a01b03166113ee565b6103486004803603602081101561048b57600080fd5b50356001600160a01b03166114ea565b610348600480360360208110156104b157600080fd5b5035611596565b61030f61161e565b61030f600480360360208110156104d657600080fd5b503561162d565b6104e5611648565b60408051602080825283518183015283519192839290830191858101910280838360005b83811015610521578181015183820152602001610509565b505050509050019250505060405180910390f35b6103486004803603602081101561054b57600080fd5b50356001600160a01b03166116c9565b6103486004803603602081101561057157600080fd5b50356001600160a01b03166117cf565b61059e6004803603602081101561059757600080fd5b50356118e6565b604080519115158252519081900360200190f35b60016020819052600091825260409091208054918101546002909101546001600160a01b039091169083565b6000836001600160a01b0316856001600160a01b031614610646576040805162461bcd60e51b815260206004820152601760248201527f53656c6c6572206d757374206265206f70657261746f72000000000000000000604482015290519081900360640190fd5b600354604080517f6352211e00000000000000000000000000000000000000000000000000000000815260048101869052905130926001600160a01b031691636352211e916024808301926020929190829003018186803b1580156106aa57600080fd5b505afa1580156106be573d6000803e3d6000fd5b505050506040513d60208110156106d457600080fd5b50516001600160a01b03161461071b5760405162461bcd60e51b815260040180806020018281038252602c81526020018061235f602c913960400191505060405180910390fd5b600554604080517f15b1c3820000000000000000000000000000000000000000000000000000000081526004810186905242602482015290516001600160a01b03909216916315b1c38291604480820192602092909190829003018186803b15801561078657600080fd5b505afa15801561079a573d6000803e3d6000fd5b505050506040513d60208110156107b057600080fd5b5051610803576040805162461bcd60e51b815260206004820152601760248201527f5468697320746f6b656e206973206c6f616e696e67212e000000000000000000604482015290519081900360640190fd5b60048054604080517f5840e6590000000000000000000000000000000000000000000000000000000081529283018690525142926001600160a01b0390921691635840e659916024808301926020929190829003018186803b15801561086857600080fd5b505afa15801561087c573d6000803e3d6000fd5b505050506040513d602081101561089257600080fd5b50516201518001106108eb576040805162461bcd60e51b815260206004820152601760248201527f5468697320746f6b656e206973206368617267696e672e000000000000000000604482015290519081900360640190fd5b60006108fd838263ffffffff61190316565b905061090a8585836119c5565b507f150b7a020000000000000000000000000000000000000000000000000000000095945050505050565b6004546001600160a01b031681565b61094c611b12565b6000546001600160a01b039081169116146109ae576040805162461bcd60e51b815260206004820181905260248201527f4f776e61626c653a2063616c6c6572206973206e6f7420746865206f776e6572604482015290519081900360640190fd5b60648110610a03576040805162461bcd60e51b815260206004820181905260248201527f5461782063616e206e6f742062652067726561746572207468616e2031303021604482015290519081900360640190fd5b600855565b6007546001600160a01b031681565b610a1f611b12565b6000546001600160a01b03908116911614610a81576040805162461bcd60e51b815260206004820181905260248201527f4f776e61626c653a2063616c6c6572206973206e6f7420746865206f776e6572604482015290519081900360640190fd5b610a93816001600160a01b0316611b16565b610ae4576040805162461bcd60e51b815260206004820152601a60248201527f49742773206e6f7420636f6e7472616374206164647265737321000000000000604482015290519081900360640190fd5b6005805473ffffffffffffffffffffffffffffffffffffffff19166001600160a01b0392909216919091179055565b6000610b1f600d611b1c565b905090565b610b2c611b12565b6000546001600160a01b03908116911614610b8e576040805162461bcd60e51b815260206004820181905260248201527f4f776e61626c653a2063616c6c6572206973206e6f7420746865206f776e6572604482015290519081900360640190fd5b610ba0816001600160a01b0316611b16565b610bf1576040805162461bcd60e51b815260206004820152601a60248201527f49742773206e6f7420636f6e7472616374206164647265737321000000000000604482015290519081900360640190fd5b6006805473ffffffffffffffffffffffffffffffffffffffff19166001600160a01b0392909216919091179055565b610c28611b12565b6000546001600160a01b03908116911614610c8a576040805162461bcd60e51b815260206004820181905260248201527f4f776e61626c653a2063616c6c6572206973206e6f7420746865206f776e6572604482015290519081900360640190fd5b600080546040516001600160a01b03909116907f8be0079c531659141344cd1fd0a4f28419497f9722a3daafe3b4186f6b6457e0908390a36000805473ffffffffffffffffffffffffffffffffffffffff19169055565b600a5481565b60085481565b6002546001600160a01b031681565b6006546001600160a01b031681565b6000546001600160a01b031690565b60095481565b610d29816118e6565b610d7a576040805162461bcd60e51b815260206004820152601660248201527f546f6b656e204944206973206e6f74206c697374656400000000000000000000604482015290519081900360640190fd5b6000818152600c6020908152604080832054600b9092528220546008546001600160a01b03909216923392610dc990606490610dbd90859063ffffffff611b2716565b9063ffffffff611b8716565b90506000610de76064610dbd60095486611b2790919063ffffffff16565b90506000610e0c6064610dbd6009546008546064030387611b2790919063ffffffff16565b600254600654604080517f23b872dd0000000000000000000000000000000000000000000000000000000081526001600160a01b038a8116600483015292831660248201526044810188905290519394509116916323b872dd916064808201926020929091908290030181600087803b158015610e8857600080fd5b505af1158015610e9c573d6000803e3d6000fd5b505050506040513d6020811015610eb257600080fd5b5051610f05576040805162461bcd60e51b815260206004820152601f60248201527f4552433230207472616e73666572206e6f74207375636365737366756c6c7900604482015290519081900360640190fd5b600254600754604080517f23b872dd0000000000000000000000000000000000000000000000000000000081526001600160a01b038981166004830152928316602482015260448101869052905191909216916323b872dd9160648083019260209291908290030181600087803b158015610f7f57600080fd5b505af1158015610f93573d6000803e3d6000fd5b505050506040513d6020811015610fa957600080fd5b5051610ffc576040805162461bcd60e51b815260206004820152601f60248201527f4552433230207472616e73666572206e6f74207375636365737366756c6c7900604482015290519081900360640190fd5b600254604080517f23b872dd0000000000000000000000000000000000000000000000000000000081526001600160a01b038881166004830152898116602483015260448201859052915191909216916323b872dd9160648083019260209291908290030181600087803b15801561107357600080fd5b505af1158015611087573d6000803e3d6000fd5b505050506040513d602081101561109d57600080fd5b50516110f0576040805162461bcd60e51b815260206004820152601f60248201527f4552433230207472616e73666572206e6f74207375636365737366756c6c7900604482015290519081900360640190fd5b6110fa8785611bc9565b600354604080517f23b872dd0000000000000000000000000000000000000000000000000000000081523060048201526001600160a01b038881166024830152604482018b9052915191909216916323b872dd91606480830192600092919082900301818387803b15801561116e57600080fd5b505af1158015611182573d6000803e3d6000fd5b5050505061118f87611fb0565b86866001600160a01b0316866001600160a01b03167fb2b33e9db2739c3f9a6e8e1ecb757a5138196ac1bfd9acab8234460072088f2387600460009054906101000a90046001600160a01b03166001600160a01b031663e1e0485e8d6040518263ffffffff1660e01b81526004018082815260200191505060206040518083038186803b15801561121f57600080fd5b505afa158015611233573d6000803e3d6000fd5b505050506040513d602081101561124957600080fd5b50516040805192835260ff90911660208301528051918290030190a450505050505050565b600b6020526000908152604090205481565b6003546001600160a01b031681565b611298816118e6565b6112e9576040805162461bcd60e51b815260206004820152601660248201527f546f6b656e204944206973206e6f74206c697374656400000000000000000000604482015290519081900360640190fd5b6000818152600c60205260409020546001600160a01b0316338114611355576040805162461bcd60e51b815260206004820152601460248201527f53656e646572206973206e6f742073656c6c6572000000000000000000000000604482015290519081900360640190fd5b600354604080517f23b872dd0000000000000000000000000000000000000000000000000000000081523060048201526001600160a01b03848116602483015260448201869052915191909216916323b872dd91606480830192600092919082900301818387803b1580156113c957600080fd5b505af11580156113dd573d6000803e3d6000fd5b505050506113ea82611fb0565b5050565b6113f6611b12565b6000546001600160a01b03908116911614611458576040805162461bcd60e51b815260206004820181905260248201527f4f776e61626c653a2063616c6c6572206973206e6f7420746865206f776e6572604482015290519081900360640190fd5b61146a816001600160a01b0316611b16565b6114bb576040805162461bcd60e51b815260206004820152601a60248201527f49742773206e6f7420636f6e7472616374206164647265737321000000000000604482015290519081900360640190fd5b6002805473ffffffffffffffffffffffffffffffffffffffff19166001600160a01b0392909216919091179055565b6114f2611b12565b6000546001600160a01b03908116911614611554576040805162461bcd60e51b815260206004820181905260248201527f4f776e61626c653a2063616c6c6572206973206e6f7420746865206f776e6572604482015290519081900360640190fd5b6001600160a01b03811661156757600080fd5b6007805473ffffffffffffffffffffffffffffffffffffffff19166001600160a01b0392909216919091179055565b61159e611b12565b6000546001600160a01b03908116911614611600576040805162461bcd60e51b815260206004820181905260248201527f4f776e61626c653a2063616c6c6572206973206e6f7420746865206f776e6572604482015290519081900360640190fd5b6000811180156116105750606481105b61161957600080fd5b600a55565b6005546001600160a01b031681565b600c602052600090815260409020546001600160a01b031681565b60606000611656600d611b1c565b9050606081604051908082528060200260200182016040528015611684578160200160208202803883390190505b50905060005b828110156116c2576116a3600d8263ffffffff61207816565b8282815181106116af57fe5b602090810291909101015260010161168a565b5091505090565b6116d1611b12565b6000546001600160a01b03908116911614611733576040805162461bcd60e51b815260206004820181905260248201527f4f776e61626c653a2063616c6c6572206973206e6f7420746865206f776e6572604482015290519081900360640190fd5b611745816001600160a01b0316611b16565b611796576040805162461bcd60e51b815260206004820152601a60248201527f49742773206e6f7420636f6e7472616374206164647265737321000000000000604482015290519081900360640190fd5b600480546001600160a01b0390921673ffffffffffffffffffffffffffffffffffffffff19928316811790915560038054909216179055565b6117d7611b12565b6000546001600160a01b03908116911614611839576040805162461bcd60e51b815260206004820181905260248201527f4f776e61626c653a2063616c6c6572206973206e6f7420746865206f776e6572604482015290519081900360640190fd5b6001600160a01b03811661187e5760405162461bcd60e51b81526004018080602001828103825260268152602001806123396026913960400191505060405180910390fd5b600080546040516001600160a01b03808516939216917f8be0079c531659141344cd1fd0a4f28419497f9722a3daafe3b4186f6b6457e091a36000805473ffffffffffffffffffffffffffffffffffffffff19166001600160a01b0392909216919091179055565b6000908152600c60205260409020546001600160a01b0316151590565b60008182602001101561195d576040805162461bcd60e51b815260206004820152601260248201527f746f55696e743235365f6f766572666c6f770000000000000000000000000000604482015290519081900360640190fd5b81602001835110156119b6576040805162461bcd60e51b815260206004820152601560248201527f746f55696e743235365f6f75744f66426f756e64730000000000000000000000604482015290519081900360640190fd5b50818101602001515b92915050565b60008111611a1a576040805162461bcd60e51b815260206004820152601f60248201527f5072696365206d7573742062652067726561746572207468616e207a65726f00604482015290519081900360640190fd5b6000828152600b60209081526040808320849055600c9091529020805473ffffffffffffffffffffffffffffffffffffffff19166001600160a01b038516179055611a66600d83612084565b50611a6f6122ec565b506000828152600160208181526040808420815160608101835281850180546001600160a01b038b81168488018181528588018c81528d87529a8d90529888528451865597511673ffffffffffffffffffffffffffffffffffffffff199091161790559451600290910155805185815290518693927f6e16e8064e3c8254cef11e01e152416398602d7e8785f743f1c2f93a9a15ff35928290030190a350505050565b3390565b3b151590565b60006119bf82612090565b600082611b36575060006119bf565b82820282848281611b4357fe5b0414611b805760405162461bcd60e51b815260040180806020018281038252602181526020018061238b6021913960400191505060405180910390fd5b9392505050565b6000611b8083836040518060400160405280601a81526020017f536166654d6174683a206469766973696f6e206279207a65726f000000000000815250612094565b600354604080517f18160ddd00000000000000000000000000000000000000000000000000000000815290516000926001600160a01b0316916318160ddd916004808301926020929190829003018186803b158015611c2757600080fd5b505afa158015611c3b573d6000803e3d6000fd5b505050506040513d6020811015611c5157600080fd5b5051600a54909150600b821015611c8c57610190611c7d84670de0b6b3a764000063ffffffff611b8716565b1015611c87575060005b611d66565b6015821015611cb057610320611c7d84670de0b6b3a764000063ffffffff611b8716565b6033821015611cd457610640611c7d84670de0b6b3a764000063ffffffff611b8716565b6065821015611cf857610c80611c7d84670de0b6b3a764000063ffffffff611b8716565b60c9821015611d1c57611900611c7d84670de0b6b3a764000063ffffffff611b8716565b6101f5821015611d4157613200611c7d84670de0b6b3a764000063ffffffff611b8716565b616400611d5c84670de0b6b3a764000063ffffffff611b8716565b1015611d66575060005b600f805460038101909155604080514260208083019190915260029384018284015233606090811b90830152825160548184030181526074909201928390528151600094606494909392909182918401908083835b60208310611df857805182527fffffffffffffffffffffffffffffffffffffffffffffffffffffffffffffffe09092019160209182019101611dbb565b51815160209384036101000a7fffffffffffffffffffffffffffffffffffffffffffffffffffffffffffffffff01801990921691161790526040519190930194509192505080830381855afa158015611e55573d6000803e3d6000fd5b5050506040513d6020811015611e6a57600080fd5b505181611e7357fe5b06905081811015611fa95760048054604080517fe1e0485e000000000000000000000000000000000000000000000000000000008152928301889052516000926001600160a01b039092169163e1e0485e916024808301926020929190829003018186803b158015611ee457600080fd5b505afa158015611ef8573d6000803e3d6000fd5b505050506040513d6020811015611f0e57600080fd5b50519050600360ff82161015611fa75760048054604080517f306a694800000000000000000000000000000000000000000000000000000000815292830189905260ff60018501166024840152516001600160a01b039091169163306a694891604480830192600092919082900301818387803b158015611f8e57600080fd5b505af1158015611fa2573d6000803e3d6000fd5b505050505b505b5050505050565b6000818152600c602081815260408084208054600b845291852094909455919052815473ffffffffffffffffffffffffffffffffffffffff19169091556001600160a01b0316612007600d8363ffffffff61213616565b506000828152600160208190526040808320838155918201805473ffffffffffffffffffffffffffffffffffffffff1916905560029091018290555183916001600160a01b038416917fd1b3de83f2e838a8b6eb09447f2316d7bfd1a64d0059abe8f1160f490616fd839190a35050565b6000611b808383612142565b6000611b8083836121a6565b5490565b600081836121205760405162461bcd60e51b81526004018080602001828103825283818151815260200191508051906020019080838360005b838110156120e55781810151838201526020016120cd565b50505050905090810190601f1680156121125780820380516001836020036101000a031916815260200191505b509250505060405180910390fd5b50600083858161212c57fe5b0495945050505050565b6000611b8083836121f0565b815460009082106121845760405162461bcd60e51b81526004018080602001828103825260228152602001806123176022913960400191505060405180910390fd5b82600001828154811061219357fe5b9060005260206000200154905092915050565b60006121b283836122d4565b6121e8575081546001818101845560008481526020808220909301849055845484825282860190935260409020919091556119bf565b5060006119bf565b600081815260018301602052604081205480156122ca5783547fffffffffffffffffffffffffffffffffffffffffffffffffffffffffffffffff808301919081019060009087908390811061224157fe5b906000526020600020015490508087600001848154811061225e57fe5b60009182526020808320909101929092558281526001898101909252604090209084019055865487908061228e57fe5b600190038181906000526020600020016000905590558660010160008781526020019081526020016000206000905560019450505050506119bf565b60009150506119bf565b60009081526001919091016020526040902054151590565b60405180606001604052806000815260200160006001600160a01b0316815260200160008152509056fe456e756d657261626c655365743a20696e646578206f7574206f6620626f756e64734f776e61626c653a206e6577206f776e657220697320746865207a65726f20616464726573736f6e45524337323152656365697665642063616e206e6f742062652063616c6c6564206469726563746c7921536166654d6174683a206d756c7469706c69636174696f6e206f766572666c6f77a2646970667358221220c989751edf859c44d1da5e9b22959ae6ac1ad60db3f2da56c48227feb4de1ed064736f6c6343000602003349742773206e6f7420636f6e7472616374206164647265737321000000000000",
  "source": "pragma solidity ^0.6.0;\n\nimport \"@openzeppelin/contracts/math/SafeMath.sol\";\nimport \"@openzeppelin/contracts/token/ERC20/IERC20.sol\";\nimport \"@openzeppelin/contracts/token/ERC20/SafeERC20.sol\";\nimport \"@openzeppelin/contracts/utils/EnumerableSet.sol\";\nimport \"@openzeppelin/contracts/token/ERC721/ERC721.sol\";\nimport \"@openzeppelin/contracts/token/ERC721/IERC721Receiver.sol\";\nimport \"@openzeppelin/contracts/access/Ownable.sol\";\nimport \"@openzeppelin/contracts/utils/Strings.sol\";\nimport \"@openzeppelin/contracts/utils/Address.sol\";\nimport \"../common/hotpotinterface.sol\";\nimport \"../common/ILoan.sol\";\nimport \"solidity-bytes-utils/contracts/BytesLib.sol\";\n\n/**\n * @title NFTMarket contract that allows atomic swaps of ERC20 and ERC721\n */\ncontract NFTMarket is IERC721Receiver, Ownable {\n    using Address for address;\n    using SafeMath for uint256;\n    using BytesLib for bytes;\n    using Strings for uint256;\n\n    using EnumerableSet for EnumerableSet.UintSet;\n\n    event Swapped(\n        address indexed _buyer,\n        address indexed _seller,\n        uint256 indexed _tokenId,\n        uint256 _price,\n        uint8 grade\n    );\n    event Listed(\n        address indexed _seller,\n        uint256 indexed _tokenId,\n        uint256 _price\n    );\n    event Unlisted(address indexed _seller, uint256 indexed _tokenId);\n\n    mapping(uint256 => Reservation) public reservations;\n\n    struct Reservation {\n        uint256 tokenId;\n        address owner;\n        uint256 price;\n    }\n\n    IERC20 public erc20;\n    ERC721 public erc721;\n    IHotPot public hotpot;\n    ILoan public loan;\n\n    address public rewardAddress;\n    address public devAddress;\n\n    uint256 public taxRatio = 2;\n    uint256 public taxDev = 1;\n\n    uint256 public updatePosibility = 4;\n\n    mapping(uint256 => uint256) public priceOf;\n    mapping(uint256 => address) public sellerOf;\n\n    EnumerableSet.UintSet internal listSet;\n\n    bytes4 internal constant MAGIC_ON_ERC721_RECEIVED = 0x150b7a02;\n\n    constructor(\n        address _reward,\n        address _nft,\n        address _hotpot,\n        address _loan,\n        address _dev\n    ) public {\n        require(_dev != address(0));\n        require(_reward != address(0));\n        require(_nft != address(0));\n        require(_hotpot != address(0));\n        require(_nft.isContract(), \"It's not contract address!\");\n        require(_reward.isContract(), \"It's not contract address!\");\n        require(_hotpot.isContract(), \"It's not contract address!\");\n        require(_loan.isContract(), \"It's not contract address!\");\n        rewardAddress = _reward;\n        devAddress = _dev;\n        erc20 = IERC20(_hotpot);\n        hotpot = IHotPot(_nft);\n        erc721 = ERC721(_nft);\n        loan = ILoan(_loan);\n    }\n\n    function setRewardAddress(address _addr) external onlyOwner {\n        require(_addr.isContract(), \"It's not contract address!\");\n        rewardAddress = _addr;\n    }\n\n    function setDevAddress(address _addr) external onlyOwner {\n        require(_addr != address(0));\n        devAddress = _addr;\n    }\n\n    function setHotPotTicket(address _addr) external onlyOwner {\n        require(_addr.isContract(), \"It's not contract address!\");\n        hotpot = IHotPot(_addr);\n        erc721 = ERC721(_addr);\n    }\n\n    function setERC20(address _addr) external onlyOwner {\n        require(_addr.isContract(), \"It's not contract address!\");\n        erc20 = IERC20(_addr);\n    }\n\n    function setLoan(address _addr) external onlyOwner {\n        require(_addr.isContract(), \"It's not contract address!\");\n        loan = ILoan(_addr);\n    }\n\n    function setTax(uint256 _ratio) external onlyOwner {\n        require(_ratio < 100, \"Tax can not be greater than 100!\");\n        taxRatio = _ratio;\n    }\n\n    function setUpdatePosibility(uint256 _posibility) external onlyOwner {\n        require(_posibility > 0 && _posibility < 100);\n        updatePosibility = _posibility;\n    }\n\n    function getListSize() external view returns (uint256) {\n        return listSet.length();\n    }\n\n    function getListToken() external view returns (uint256[] memory) {\n        uint256 loanSize = listSet.length();\n        uint256[] memory data = new uint256[](loanSize);\n        for (uint256 i = 0; i < loanSize; i++) {\n            data[i] = listSet.at(i);\n        }\n        return data;\n    }\n\n    /**\n      * @dev Initiate an escrow swap\n      @ @param _tokenId the good to swap\n      */\n    function swap(uint256 _tokenId) external {\n        require(isListed(_tokenId), \"Token ID is not listed\");\n\n        address seller = sellerOf[_tokenId];\n        // solium-disable-next-line security/no-tx-origin\n        address buyer = msg.sender;\n        uint256 _price = priceOf[_tokenId];\n\n        //send _price * taxRatio to seller\n        //send _price *(1-taxRatio) to reward pool\n        uint256 reward = _price.mul(taxRatio).div(100);\n        uint256 giveDec = _price.mul(taxDev).div(100);\n        uint256 giveSeller = _price.mul(100 - taxRatio - taxDev).div(100);\n\n        require(\n            erc20.transferFrom(buyer, rewardAddress, reward),\n            \"ERC20 transfer not successfully\"\n        );\n\n        require(\n            erc20.transferFrom(buyer, devAddress, giveDec),\n            \"ERC20 transfer not successfully\"\n        );\n\n        require(\n            erc20.transferFrom(buyer, seller, giveSeller),\n            \"ERC20 transfer not successfully\"\n        );\n        _update(_tokenId, _price);\n\n        erc721.transferFrom(address(this), buyer, _tokenId);\n\n        removeListing(_tokenId);\n\n        emit Swapped(buyer, seller, _tokenId, _price,hotpot.getGrade(_tokenId));\n    }\n\n    uint256 internal randomSeed = 1;\n\n    function _update(uint256 _tokenId, uint256 _price) internal {\n        uint256 supply = erc721.totalSupply();\n        uint256 posibility = updatePosibility;\n        if (supply < 11) {\n            if (_price.div(10**18) < 400) {\n                posibility = 0;\n            }\n        } else if (supply < 21) {\n            if (_price.div(10**18) < 800) {\n                posibility = 0;\n            }\n        } else if (supply < 51) {\n            if (_price.div(10**18) < 1600) {\n                posibility = 0;\n            }\n        } else if (supply < 101) {\n            if (_price.div(10**18) < 3200) {\n                posibility = 0;\n            }\n        } else if (supply < 201) {\n            if (_price.div(10**18) < 6400) {\n                posibility = 0;\n            }\n        } else if (supply < 501) {\n            if (_price.div(10**18) < 12800) {\n                posibility = 0;\n            }\n        } else {\n            if (_price.div(10**18) < 25600) {\n                posibility = 0;\n            }\n        }\n\n        randomSeed += 2;\n        //generate random number\n        //it is not that safe\n        uint256 random = uint256(\n            sha256(abi.encodePacked(now, randomSeed++, msg.sender))\n        ) % 100;\n\n        if (random < posibility) {\n            uint8 grade = hotpot.getGrade(_tokenId);\n            if (grade < 3) {\n                hotpot.update(_tokenId, grade + 1);\n            }\n        }\n    }\n\n    /**\n     * @dev Unlist an item\n     * @dev Can only be called by the item seller\n     * @param _tokenId the item to unlist\n     */\n    function unlist(uint256 _tokenId) external {\n        require(isListed(_tokenId), \"Token ID is not listed\");\n        address seller = sellerOf[_tokenId];\n        require(seller == msg.sender, \"Sender is not seller\");\n\n        erc721.transferFrom(address(this), seller, _tokenId);\n\n        removeListing(_tokenId);\n    }\n\n    /**\n     * @dev List a good using a IERC721 receiver hook\n     * @param _operator the caller of this function\n     * @param _seller the good seller\n     * @param _tokenId the good id to list\n     * @param _data contains the pricing data as the first 32 bytes\n     */\n    function onERC721Received(\n        address _operator,\n        address _seller,\n        uint256 _tokenId,\n        bytes memory _data\n    ) public override returns (bytes4) {\n        require(_operator == _seller, \"Seller must be operator\");\n\n        //Now the owner of token is this market contract!!\n        require(\n            erc721.ownerOf(_tokenId) == address(this),\n            \"onERC721Received can not be called directly!\"\n        );\n        \n        require(\n            loan.checkCanSell(_tokenId, now),\n            \"This token is loaning!.\"\n        );\n\n        require(\n            hotpot.getUseTime(_tokenId) + 86400 < now,\n            \"This token is charging.\"\n        );\n\n        uint256 _price = _data.toUint256(0);\n\n        addListing(_seller, _tokenId, _price);\n\n        return MAGIC_ON_ERC721_RECEIVED;\n    }\n\n    /**\n     * @dev Determine whether an item is listed\n     * @param _tokenId The id of the good to check\n     * @return Return true if item is listed\n     */\n    function isListed(uint256 _tokenId) public view returns (bool) {\n        return sellerOf[_tokenId] != address(0);\n    }\n\n    /**\n     * @dev Convenience function to add token to listing\n     * @param _seller the seller that is listing\n     * @param _tokenId the token to add\n     * @param _price the price\n     */\n    function addListing(\n        address _seller,\n        uint256 _tokenId,\n        uint256 _price\n    ) internal {\n        require(_price > 0, \"Price must be greater than zero\");\n\n        priceOf[_tokenId] = _price;\n        sellerOf[_tokenId] = _seller;\n        listSet.add(_tokenId);\n\n        Reservation memory r = reservations[_tokenId];\n        r.owner = _seller;\n        r.price = _price;\n        r.tokenId = _tokenId;\n        reservations[_tokenId] = r;\n\n        emit Listed(_seller, _tokenId, _price);\n    }\n\n    /**\n     * @dev Convenience function to remove tokens from listing\n     * @param _tokenId the token to remove\n     */\n    function removeListing(uint256 _tokenId) internal {\n        address seller = sellerOf[_tokenId];\n\n        delete priceOf[_tokenId];\n        delete sellerOf[_tokenId];\n\n        listSet.remove(_tokenId);\n\n        delete reservations[_tokenId];\n\n        emit Unlisted(seller, _tokenId);\n    }\n}\n",
  "sourcePath": "/Users/junhu/git/hotpotcontract/truffle/contracts/exchange/NFTMarket.sol",
  "compiler": {
    "name": "solc",
    "version": "0.6.2+commit.bacdbe57.Emscripten.clang"
  },
  "schemaVersion": "3.3.0",
  "updatedAt": "2020-11-06T04:01:45.089Z",
  "networkType": "ethereum",
  "devdoc": {
    "methods": {
      "isListed(uint256)": {
        "details": "Determine whether an item is listed",
        "params": {
          "_tokenId": "The id of the good to check"
        },
        "returns": {
          "_0": "Return true if item is listed"
        }
      },
      "onERC721Received(address,address,uint256,bytes)": {
        "details": "List a good using a IERC721 receiver hook",
        "params": {
          "_data": "contains the pricing data as the first 32 bytes",
          "_operator": "the caller of this function",
          "_seller": "the good seller",
          "_tokenId": "the good id to list"
        }
      },
      "owner()": {
        "details": "Returns the address of the current owner."
      },
      "renounceOwnership()": {
        "details": "Leaves the contract without owner. It will not be possible to call `onlyOwner` functions anymore. Can only be called by the current owner.     * NOTE: Renouncing ownership will leave the contract without an owner, thereby removing any functionality that is only available to the owner."
      },
      "swap(uint256)": {
        "details": "Initiate an escrow swap @param _tokenId the good to swap"
      },
      "transferOwnership(address)": {
        "details": "Transfers ownership of the contract to a new account (`newOwner`). Can only be called by the current owner."
      },
      "unlist(uint256)": {
        "details": "Unlist an itemCan only be called by the item seller",
        "params": {
          "_tokenId": "the item to unlist"
        }
      }
    },
    "title": "NFTMarket contract that allows atomic swaps of ERC20 and ERC721"
  },
  "userdoc": {
    "methods": {}
  }
}