{
  "contractName": "NFTMarket",
  "abi": [
    {
      "inputs": [
        {
          "internalType": "address",
          "name": "_reward",
          "type": "address"
        },
        {
          "internalType": "address",
          "name": "_nft",
          "type": "address"
        },
        {
          "internalType": "address",
          "name": "_hotpot",
          "type": "address"
        },
        {
          "internalType": "address",
          "name": "_dev",
          "type": "address"
        }
      ],
      "stateMutability": "nonpayable",
      "type": "constructor"
    },
    {
      "anonymous": false,
      "inputs": [
        {
          "indexed": true,
          "internalType": "address",
          "name": "_seller",
          "type": "address"
        },
        {
          "indexed": true,
          "internalType": "uint256",
          "name": "_tokenId",
          "type": "uint256"
        },
        {
          "indexed": false,
          "internalType": "uint256",
          "name": "_price",
          "type": "uint256"
        }
      ],
      "name": "Listed",
      "type": "event"
    },
    {
      "anonymous": false,
      "inputs": [
        {
          "indexed": true,
          "internalType": "address",
          "name": "previousOwner",
          "type": "address"
        },
        {
          "indexed": true,
          "internalType": "address",
          "name": "newOwner",
          "type": "address"
        }
      ],
      "name": "OwnershipTransferred",
      "type": "event"
    },
    {
      "anonymous": false,
      "inputs": [
        {
          "indexed": true,
          "internalType": "address",
          "name": "_buyer",
          "type": "address"
        },
        {
          "indexed": true,
          "internalType": "address",
          "name": "_seller",
          "type": "address"
        },
        {
          "indexed": true,
          "internalType": "uint256",
          "name": "_tokenId",
          "type": "uint256"
        },
        {
          "indexed": false,
          "internalType": "uint256",
          "name": "_price",
          "type": "uint256"
        }
      ],
      "name": "Swapped",
      "type": "event"
    },
    {
      "anonymous": false,
      "inputs": [
        {
          "indexed": true,
          "internalType": "address",
          "name": "_seller",
          "type": "address"
        },
        {
          "indexed": true,
          "internalType": "uint256",
          "name": "_tokenId",
          "type": "uint256"
        }
      ],
      "name": "Unlisted",
      "type": "event"
    },
    {
      "inputs": [],
      "name": "devAddress",
      "outputs": [
        {
          "internalType": "address",
          "name": "",
          "type": "address"
        }
      ],
      "stateMutability": "view",
      "type": "function",
      "constant": true
    },
    {
      "inputs": [],
      "name": "owner",
      "outputs": [
        {
          "internalType": "address",
          "name": "",
          "type": "address"
        }
      ],
      "stateMutability": "view",
      "type": "function",
      "constant": true
    },
    {
      "inputs": [
        {
          "internalType": "uint256",
          "name": "",
          "type": "uint256"
        }
      ],
      "name": "priceOf",
      "outputs": [
        {
          "internalType": "uint256",
          "name": "",
          "type": "uint256"
        }
      ],
      "stateMutability": "view",
      "type": "function",
      "constant": true
    },
    {
      "inputs": [],
      "name": "renounceOwnership",
      "outputs": [],
      "stateMutability": "nonpayable",
      "type": "function"
    },
    {
      "inputs": [],
      "name": "rewardAddress",
      "outputs": [
        {
          "internalType": "address",
          "name": "",
          "type": "address"
        }
      ],
      "stateMutability": "view",
      "type": "function",
      "constant": true
    },
    {
      "inputs": [
        {
          "internalType": "uint256",
          "name": "",
          "type": "uint256"
        }
      ],
      "name": "sellerOf",
      "outputs": [
        {
          "internalType": "address",
          "name": "",
          "type": "address"
        }
      ],
      "stateMutability": "view",
      "type": "function",
      "constant": true
    },
    {
      "inputs": [],
      "name": "taxDev",
      "outputs": [
        {
          "internalType": "uint256",
          "name": "",
          "type": "uint256"
        }
      ],
      "stateMutability": "view",
      "type": "function",
      "constant": true
    },
    {
      "inputs": [],
      "name": "taxRatio",
      "outputs": [
        {
          "internalType": "uint256",
          "name": "",
          "type": "uint256"
        }
      ],
      "stateMutability": "view",
      "type": "function",
      "constant": true
    },
    {
      "inputs": [
        {
          "internalType": "address",
          "name": "newOwner",
          "type": "address"
        }
      ],
      "name": "transferOwnership",
      "outputs": [],
      "stateMutability": "nonpayable",
      "type": "function"
    },
    {
      "inputs": [],
      "name": "updatePosibility",
      "outputs": [
        {
          "internalType": "uint256",
          "name": "",
          "type": "uint256"
        }
      ],
      "stateMutability": "view",
      "type": "function",
      "constant": true
    },
    {
      "inputs": [
        {
          "internalType": "address",
          "name": "_addr",
          "type": "address"
        }
      ],
      "name": "setRewardAddress",
      "outputs": [],
      "stateMutability": "nonpayable",
      "type": "function"
    },
    {
      "inputs": [
        {
          "internalType": "address",
          "name": "_addr",
          "type": "address"
        }
      ],
      "name": "setDevAddress",
      "outputs": [],
      "stateMutability": "nonpayable",
      "type": "function"
    },
    {
      "inputs": [
        {
          "internalType": "address",
          "name": "_addr",
          "type": "address"
        }
      ],
      "name": "setHotPotTicket",
      "outputs": [],
      "stateMutability": "nonpayable",
      "type": "function"
    },
    {
      "inputs": [
        {
          "internalType": "address",
          "name": "_addr",
          "type": "address"
        }
      ],
      "name": "setERC20",
      "outputs": [],
      "stateMutability": "nonpayable",
      "type": "function"
    },
    {
      "inputs": [
        {
          "internalType": "uint256",
          "name": "_ratio",
          "type": "uint256"
        }
      ],
      "name": "setTax",
      "outputs": [],
      "stateMutability": "nonpayable",
      "type": "function"
    },
    {
      "inputs": [],
      "name": "getListSize",
      "outputs": [
        {
          "internalType": "uint256",
          "name": "",
          "type": "uint256"
        }
      ],
      "stateMutability": "view",
      "type": "function",
      "constant": true
    },
    {
      "inputs": [],
      "name": "getListToken",
      "outputs": [
        {
          "internalType": "uint256[]",
          "name": "",
          "type": "uint256[]"
        }
      ],
      "stateMutability": "view",
      "type": "function",
      "constant": true
    },
    {
      "inputs": [
        {
          "internalType": "uint256",
          "name": "_tokenId",
          "type": "uint256"
        }
      ],
      "name": "swap",
      "outputs": [],
      "stateMutability": "nonpayable",
      "type": "function"
    },
    {
      "inputs": [
        {
          "internalType": "uint256",
          "name": "_posibility",
          "type": "uint256"
        }
      ],
      "name": "setUpdatePosibility",
      "outputs": [],
      "stateMutability": "nonpayable",
      "type": "function"
    },
    {
      "inputs": [
        {
          "internalType": "uint256",
          "name": "_tokenId",
          "type": "uint256"
        }
      ],
      "name": "unlist",
      "outputs": [],
      "stateMutability": "nonpayable",
      "type": "function"
    },
    {
      "inputs": [
        {
          "internalType": "address",
          "name": "_operator",
          "type": "address"
        },
        {
          "internalType": "address",
          "name": "_seller",
          "type": "address"
        },
        {
          "internalType": "uint256",
          "name": "_tokenId",
          "type": "uint256"
        },
        {
          "internalType": "bytes",
          "name": "_data",
          "type": "bytes"
        }
      ],
      "name": "onERC721Received",
      "outputs": [
        {
          "internalType": "bytes4",
          "name": "",
          "type": "bytes4"
        }
      ],
      "stateMutability": "nonpayable",
      "type": "function"
    },
    {
      "inputs": [
        {
          "internalType": "uint256",
          "name": "_tokenId",
          "type": "uint256"
        }
      ],
      "name": "isListed",
      "outputs": [
        {
          "internalType": "bool",
          "name": "",
          "type": "bool"
        }
      ],
      "stateMutability": "view",
      "type": "function",
      "constant": true
    }
  ],
  "bytecode": "0x60806040526002600755600160085560056009553480156200002057600080fd5b5060405162001f6b38038062001f6b833981810160405260808110156200004657600080fd5b50805160208201516040830151606090930151919290916000620000726001600160e01b036200029516565b600080546001600160a01b0319166001600160a01b0383169081178255604051929350917f8be0079c531659141344cd1fd0a4f28419497f9722a3daafe3b4186f6b6457e0908290a3506001600160a01b038116620000d057600080fd5b6001600160a01b038416620000e457600080fd5b6001600160a01b038316620000f857600080fd5b6001600160a01b0382166200010c57600080fd5b6200012b836001600160a01b03166200029960201b620014e11760201c565b6200016c576040805162461bcd60e51b815260206004820152601a602482015260008051602062001f4b833981519152604482015290519081900360640190fd5b6200018b846001600160a01b03166200029960201b620014e11760201c565b620001cc576040805162461bcd60e51b815260206004820152601a602482015260008051602062001f4b833981519152604482015290519081900360640190fd5b620001eb826001600160a01b03166200029960201b620014e11760201c565b6200022c576040805162461bcd60e51b815260206004820152601a602482015260008051602062001f4b833981519152604482015290519081900360640190fd5b600580546001600160a01b03199081166001600160a01b039687161790915560068054821692861692909217909155600180548216928516929092179091556004805482169290931691821790925560028054831682179055600380549092161790556200029f565b3390565b3b151590565b611c9c80620002af6000396000f3fe608060405234801561001057600080fd5b50600436106101825760003560e01c806394b918de116100d8578063d1d683cb1161008c578063e6db6a3011610066578063e6db6a301461046a578063f2fde38b14610490578063fcce4883146104b657610182565b8063d1d683cb146103d8578063e05c5a83146103f5578063e18eaaa71461041257610182565b8063bf5a4dd3116100bd578063bf5a4dd31461036f578063c29a6fda1461038c578063d0d41fe1146103b257610182565b806394b918de14610335578063b9186d7d1461035257610182565b8063715018a61161013a5780638cf57cb9116101145780638cf57cb91461031d5780638da5cb5b14610325578063929c0ca81461032d57610182565b8063715018a6146103055780637771b02f1461030d578063779156391461031557610182565b80633ad10ef61161016b5780633ad10ef6146102a15780634a89a6c8146102c55780635e00e679146102df57610182565b8063150b7a02146101875780632e5bb6ff14610282575b600080fd5b61024d6004803603608081101561019d57600080fd5b6001600160a01b038235811692602081013590911691604082013591908101906080810160608201356401000000008111156101d857600080fd5b8201836020820111156101ea57600080fd5b8035906020019184600183028401116401000000008311171561020c57600080fd5b91908080601f0160208091040260200160405190810160405280939291908181526020018383808284376000920191909152509295506104e7945050505050565b604080517fffffffff000000000000000000000000000000000000000000000000000000009092168252519081900360200190f35b61029f6004803603602081101561029857600080fd5b5035610592565b005b6102a9610656565b604080516001600160a01b039092168252519081900360200190f35b6102cd610665565b60408051918252519081900360200190f35b61029f600480360360208110156102f557600080fd5b50356001600160a01b031661066b565b61029f610772565b6102cd61083e565b6102cd610844565b6102a961084a565b6102a9610859565b6102cd610868565b61029f6004803603602081101561034b57600080fd5b503561086e565b6102cd6004803603602081101561036857600080fd5b5035610cdb565b61029f6004803603602081101561038557600080fd5b5035610ced565b61029f600480360360208110156103a257600080fd5b50356001600160a01b0316610e4c565b61029f600480360360208110156103c857600080fd5b50356001600160a01b0316610f53565b61029f600480360360208110156103ee57600080fd5b503561100a565b6102a96004803603602081101561040b57600080fd5b5035611092565b61041a6110ad565b60408051602080825283518183015283519192839290830191858101910280838360005b8381101561045657818101518382015260200161043e565b505050509050019250505060405180910390f35b61029f6004803603602081101561048057600080fd5b50356001600160a01b031661112c565b61029f600480360360208110156104a657600080fd5b50356001600160a01b031661123d565b6104d3600480360360208110156104cc57600080fd5b503561135f565b604080519115158252519081900360200190f35b6000836001600160a01b0316856001600160a01b03161461054f576040805162461bcd60e51b815260206004820152601760248201527f53656c6c6572206d757374206265206f70657261746f72000000000000000000604482015290519081900360640190fd5b600061055a8361137c565b90506105678585836113cf565b507f150b7a020000000000000000000000000000000000000000000000000000000095945050505050565b61059a6114dd565b6000546001600160a01b039081169116146105fc576040805162461bcd60e51b815260206004820181905260248201527f4f776e61626c653a2063616c6c6572206973206e6f7420746865206f776e6572604482015290519081900360640190fd5b60648110610651576040805162461bcd60e51b815260206004820181905260248201527f5461782063616e206e6f742062652067726561746572207468616e2031303021604482015290519081900360640190fd5b600755565b6006546001600160a01b031681565b600c5490565b6106736114dd565b6000546001600160a01b039081169116146106d5576040805162461bcd60e51b815260206004820181905260248201527f4f776e61626c653a2063616c6c6572206973206e6f7420746865206f776e6572604482015290519081900360640190fd5b6106e7816001600160a01b03166114e1565b610738576040805162461bcd60e51b815260206004820152601a60248201527f49742773206e6f7420636f6e7472616374206164647265737321000000000000604482015290519081900360640190fd5b600580547fffffffffffffffffffffffff0000000000000000000000000000000000000000166001600160a01b0392909216919091179055565b61077a6114dd565b6000546001600160a01b039081169116146107dc576040805162461bcd60e51b815260206004820181905260248201527f4f776e61626c653a2063616c6c6572206973206e6f7420746865206f776e6572604482015290519081900360640190fd5b600080546040516001600160a01b03909116907f8be0079c531659141344cd1fd0a4f28419497f9722a3daafe3b4186f6b6457e0908390a3600080547fffffffffffffffffffffffff0000000000000000000000000000000000000000169055565b60095481565b60075481565b6005546001600160a01b031681565b6000546001600160a01b031690565b60085481565b6108778161135f565b6108c8576040805162461bcd60e51b815260206004820152601660248201527f546f6b656e204944206973206e6f74206c697374656400000000000000000000604482015290519081900360640190fd5b6000818152600b6020908152604080832054600a83528184205460075460085460015485517f23b872dd00000000000000000000000000000000000000000000000000000000815232600482018190526001600160a01b039687166024830181905260648681038690038802819004604485018190529951919b929a9799968a0281900498958a028190049795909416946323b872dd94808501949193918390030190829087803b15801561097c57600080fd5b505af1158015610990573d6000803e3d6000fd5b505050506040513d60208110156109a657600080fd5b50516109f9576040805162461bcd60e51b815260206004820152601f60248201527f4552433230207472616e73666572206e6f74207375636365737366756c6c7900604482015290519081900360640190fd5b600154600554604080517f23b872dd0000000000000000000000000000000000000000000000000000000081526001600160a01b038981166004830152928316602482015260448101879052905191909216916323b872dd9160648083019260209291908290030181600087803b158015610a7357600080fd5b505af1158015610a87573d6000803e3d6000fd5b505050506040513d6020811015610a9d57600080fd5b5051610af0576040805162461bcd60e51b815260206004820152601f60248201527f4552433230207472616e73666572206e6f74207375636365737366756c6c7900604482015290519081900360640190fd5b600154600654604080517f23b872dd0000000000000000000000000000000000000000000000000000000081526001600160a01b038981166004830152928316602482015260448101869052905191909216916323b872dd9160648083019260209291908290030181600087803b158015610b6a57600080fd5b505af1158015610b7e573d6000803e3d6000fd5b505050506040513d6020811015610b9457600080fd5b5051610be7576040805162461bcd60e51b815260206004820152601f60248201527f4552433230207472616e73666572206e6f74207375636365737366756c6c7900604482015290519081900360640190fd5b610bf187856114e7565b600254604080517f23b872dd0000000000000000000000000000000000000000000000000000000081523060048201526001600160a01b038881166024830152604482018b9052915191909216916323b872dd91606480830192600092919082900301818387803b158015610c6557600080fd5b505af1158015610c79573d6000803e3d6000fd5b50505050610c86876118b8565b86866001600160a01b0316866001600160a01b03167fa078c4190abe07940190effc1846be0ccf03ad6007bc9e93f9697d0b460befbb876040518082815260200191505060405180910390a450505050505050565b600a6020526000908152604090205481565b610cf68161135f565b610d47576040805162461bcd60e51b815260206004820152601660248201527f546f6b656e204944206973206e6f74206c697374656400000000000000000000604482015290519081900360640190fd5b6000818152600b60205260409020546001600160a01b0316338114610db3576040805162461bcd60e51b815260206004820152601460248201527f53656e646572206973206e6f742073656c6c6572000000000000000000000000604482015290519081900360640190fd5b600254604080517f23b872dd0000000000000000000000000000000000000000000000000000000081523060048201526001600160a01b03848116602483015260448201869052915191909216916323b872dd91606480830192600092919082900301818387803b158015610e2757600080fd5b505af1158015610e3b573d6000803e3d6000fd5b50505050610e48826118b8565b5050565b610e546114dd565b6000546001600160a01b03908116911614610eb6576040805162461bcd60e51b815260206004820181905260248201527f4f776e61626c653a2063616c6c6572206973206e6f7420746865206f776e6572604482015290519081900360640190fd5b610ec8816001600160a01b03166114e1565b610f19576040805162461bcd60e51b815260206004820152601a60248201527f49742773206e6f7420636f6e7472616374206164647265737321000000000000604482015290519081900360640190fd5b600180547fffffffffffffffffffffffff0000000000000000000000000000000000000000166001600160a01b0392909216919091179055565b610f5b6114dd565b6000546001600160a01b03908116911614610fbd576040805162461bcd60e51b815260206004820181905260248201527f4f776e61626c653a2063616c6c6572206973206e6f7420746865206f776e6572604482015290519081900360640190fd5b6001600160a01b038116610fd057600080fd5b600680547fffffffffffffffffffffffff0000000000000000000000000000000000000000166001600160a01b0392909216919091179055565b6110126114dd565b6000546001600160a01b03908116911614611074576040805162461bcd60e51b815260206004820181905260248201527f4f776e61626c653a2063616c6c6572206973206e6f7420746865206f776e6572604482015290519081900360640190fd5b6000811180156110845750606481105b61108d57600080fd5b600955565b600b602052600090815260409020546001600160a01b031681565b606080600c805490506040519080825280602002602001820160405280156110df578160200160208202803883390190505b50905060005b600c5481101561112657600c81815481106110fc57fe5b906000526020600020015482828151811061111357fe5b60209081029190910101526001016110e5565b50905090565b6111346114dd565b6000546001600160a01b03908116911614611196576040805162461bcd60e51b815260206004820181905260248201527f4f776e61626c653a2063616c6c6572206973206e6f7420746865206f776e6572604482015290519081900360640190fd5b6111a8816001600160a01b03166114e1565b6111f9576040805162461bcd60e51b815260206004820152601a60248201527f49742773206e6f7420636f6e7472616374206164647265737321000000000000604482015290519081900360640190fd5b600480546001600160a01b039092167fffffffffffffffffffffffff0000000000000000000000000000000000000000928316811790915560028054909216179055565b6112456114dd565b6000546001600160a01b039081169116146112a7576040805162461bcd60e51b815260206004820181905260248201527f4f776e61626c653a2063616c6c6572206973206e6f7420746865206f776e6572604482015290519081900360640190fd5b6001600160a01b0381166112ec5760405162461bcd60e51b8152600401808060200182810382526026815260200180611c206026913960400191505060405180910390fd5b600080546040516001600160a01b03808516939216917f8be0079c531659141344cd1fd0a4f28419497f9722a3daafe3b4186f6b6457e091a3600080547fffffffffffffffffffffffff0000000000000000000000000000000000000000166001600160a01b0392909216919091179055565b6000908152600b60205260409020546001600160a01b0316151590565b60008080805b60208110156113c65784611397601f83611985565b815181106113a157fe5b016020015160f81c91506113ba8261010083900a6119d0565b90920191600101611382565b50909392505050565b60008111611424576040805162461bcd60e51b815260206004820152601f60248201527f5072696365206d7573742062652067726561746572207468616e207a65726f00604482015290519081900360640190fd5b6000828152600a60209081526040808320849055600b825280832080547fffffffffffffffffffffffff0000000000000000000000000000000000000000166001600160a01b038816908117909155600c805460018101825594527fdf6966c971051c3d54ec59162606531493a51404a002842f56009d7e5cf4a8c7909301859055805184815290518593927f6e16e8064e3c8254cef11e01e152416398602d7e8785f743f1c2f93a9a15ff35928290030190a3505050565b3390565b3b151590565b600354604080517f18160ddd00000000000000000000000000000000000000000000000000000000815290516000926001600160a01b0316916318160ddd916004808301926020929190829003018186803b15801561154557600080fd5b505afa158015611559573d6000803e3d6000fd5b505050506040513d602081101561156f57600080fd5b5051600954909150600b8210156115aa5761019061159b84670de0b6b3a764000063ffffffff611a2916565b10156115a5575060005b611684565b60158210156115ce5761032061159b84670de0b6b3a764000063ffffffff611a2916565b60338210156115f25761064061159b84670de0b6b3a764000063ffffffff611a2916565b606582101561161657610c8061159b84670de0b6b3a764000063ffffffff611a2916565b60c982101561163a5761190061159b84670de0b6b3a764000063ffffffff611a2916565b6101f582101561165f5761320061159b84670de0b6b3a764000063ffffffff611a2916565b61640061167a84670de0b6b3a764000063ffffffff611a2916565b1015611684575060005b60408051426020808301919091523360601b828401528251603481840301815260549092019283905281516000938593600293909282918401908083835b602083106116ff57805182527fffffffffffffffffffffffffffffffffffffffffffffffffffffffffffffffe090920191602091820191016116c2565b51815160209384036101000a7fffffffffffffffffffffffffffffffffffffffffffffffffffffffffffffffff01801990921691161790526040519190930194509192505080830381855afa15801561175c573d6000803e3d6000fd5b5050506040513d602081101561177157600080fd5b50518161177a57fe5b06905080600114156118b15760048054604080517fe1e0485e000000000000000000000000000000000000000000000000000000008152928301889052516000926001600160a01b039092169163e1e0485e916024808301926020929190829003018186803b1580156117ec57600080fd5b505afa158015611800573d6000803e3d6000fd5b505050506040513d602081101561181657600080fd5b50519050600360ff821610156118af5760048054604080517f306a694800000000000000000000000000000000000000000000000000000000815292830189905260ff60018501166024840152516001600160a01b039091169163306a694891604480830192600092919082900301818387803b15801561189657600080fd5b505af11580156118aa573d6000803e3d6000fd5b505050505b505b5050505050565b6000818152600b602081815260408084208054600a84529185208590559290915281547fffffffffffffffffffffffff0000000000000000000000000000000000000000169091556001600160a01b0316905b600c5481101561194a5782600c828154811061192357fe5b906000526020600020015414156119425761193d81611a6b565b61194a565b60010161190b565b5060405182906001600160a01b038316907fd1b3de83f2e838a8b6eb09447f2316d7bfd1a64d0059abe8f1160f490616fd8390600090a35050565b60006119c783836040518060400160405280601e81526020017f536166654d6174683a207375627472616374696f6e206f766572666c6f770000815250611b23565b90505b92915050565b6000826119df575060006119ca565b828202828482816119ec57fe5b04146119c75760405162461bcd60e51b8152600401808060200182810382526021815260200180611c466021913960400191505060405180910390fd5b60006119c783836040518060400160405280601a81526020017f536166654d6174683a206469766973696f6e206279207a65726f000000000000815250611bba565b600c548110611a7957611b20565b805b600c547fffffffffffffffffffffffffffffffffffffffffffffffffffffffffffffffff01811015611ae357600c8160010181548110611ab757fe5b9060005260206000200154600c8281548110611acf57fe5b600091825260209091200155600101611a7b565b50600c80547fffffffffffffffffffffffffffffffffffffffffffffffffffffffffffffffff8101908110611b1457fe5b60009182526020822001555b50565b60008184841115611bb25760405162461bcd60e51b81526004018080602001828103825283818151815260200191508051906020019080838360005b83811015611b77578181015183820152602001611b5f565b50505050905090810190601f168015611ba45780820380516001836020036101000a031916815260200191505b509250505060405180910390fd5b505050900390565b60008183611c095760405162461bcd60e51b8152602060048201818152835160248401528351909283926044909101919085019080838360008315611b77578181015183820152602001611b5f565b506000838581611c1557fe5b049594505050505056fe4f776e61626c653a206e6577206f776e657220697320746865207a65726f2061646472657373536166654d6174683a206d756c7469706c69636174696f6e206f766572666c6f77a26469706673582212209eedd6663e21aa4db804e57a919c694113fad35b0662194d08f24a8ffda8c47b64736f6c6343000602003349742773206e6f7420636f6e7472616374206164647265737321000000000000",
  "source": "pragma solidity ^0.6.0;\n\nimport \"@openzeppelin/contracts/math/SafeMath.sol\";\nimport \"@openzeppelin/contracts/token/ERC20/IERC20.sol\";\nimport \"@openzeppelin/contracts/token/ERC20/SafeERC20.sol\";\nimport \"@openzeppelin/contracts/token/ERC721/IERC721.sol\";\nimport \"@openzeppelin/contracts/token/ERC721/IERC721Enumerable.sol\";\nimport \"@openzeppelin/contracts/token/ERC721/IERC721Receiver.sol\";\nimport \"@openzeppelin/contracts/access/Ownable.sol\";\nimport \"@openzeppelin/contracts/utils/Address.sol\";\nimport \"../common/hotpotinterface.sol\";\n\n/**\n * @title NFTMarket contract that allows atomic swaps of ERC20 and ERC721\n */\ncontract NFTMarket is IERC721Receiver, Ownable {\n    using Address for address;\n    using SafeMath for uint256;\n\n    event Swapped(\n        address indexed _buyer,\n        address indexed _seller,\n        uint256 indexed _tokenId,\n        uint256 _price\n    );\n    event Listed(\n        address indexed _seller,\n        uint256 indexed _tokenId,\n        uint256 _price\n    );\n    event Unlisted(address indexed _seller, uint256 indexed _tokenId);\n\n    IERC20 erc20;\n    IERC721 erc721;\n    IERC721Enumerable erc721enumerable;\n    IHotPot hotpot;\n\n    address public rewardAddress;\n    address public devAddress;\n\n    uint256 public taxRatio = 2;\n    uint256 public taxDev = 1;\n\n    uint256 public updatePosibility = 5;\n\n    mapping(uint256 => uint256) public priceOf;\n    mapping(uint256 => address) public sellerOf;\n\n    uint256[] internal listTokens;\n\n    bytes4 internal constant MAGIC_ON_ERC721_RECEIVED = 0x150b7a02;\n\n    constructor(\n        address _reward,\n        address _nft,\n        address _hotpot,\n        address _dev\n    ) public {\n        require(_dev != address(0));\n        require(_reward != address(0));\n        require(_nft != address(0));\n        require(_hotpot != address(0));\n        require(_nft.isContract(), \"It's not contract address!\");\n        require(_reward.isContract(), \"It's not contract address!\");\n        require(_hotpot.isContract(), \"It's not contract address!\");\n        rewardAddress = _reward;\n        devAddress = _dev;\n        erc20 = IERC20(_hotpot);\n        hotpot = IHotPot(_nft);\n        erc721 = IERC721(_nft);\n        erc721enumerable = IERC721Enumerable(_nft);\n    }\n\n    function setRewardAddress(address _addr) external onlyOwner {\n        require(_addr.isContract(), \"It's not contract address!\");\n        rewardAddress = _addr;\n    }\n\n    function setDevAddress(address _addr) external onlyOwner {\n        require(_addr != address(0));\n        devAddress = _addr;\n    }\n\n    function setHotPotTicket(address _addr) external onlyOwner {\n        require(_addr.isContract(), \"It's not contract address!\");\n        hotpot = IHotPot(_addr);\n        erc721 = IERC721(_addr);\n    }\n\n    function setERC20(address _addr) external onlyOwner {\n        require(_addr.isContract(), \"It's not contract address!\");\n        erc20 = IERC20(_addr);\n    }\n\n    function setTax(uint256 _ratio) external onlyOwner {\n        require(_ratio < 100, \"Tax can not be greater than 100!\");\n        taxRatio = _ratio;\n    }\n\n    function getListSize() external view returns (uint256) {\n        return listTokens.length;\n    }\n\n    function getListToken() external view returns (uint256[] memory) {\n        uint256[] memory data = new uint256[](listTokens.length);\n        for (uint256 i = 0; i < listTokens.length; i++) {\n            data[i] = listTokens[i];\n        }\n        return data;\n    }\n\n    /**\n      * @dev Initiate an escrow swap\n      @ @param _tokenId the good to swap\n      */\n    function swap(uint256 _tokenId) external {\n        require(isListed(_tokenId), \"Token ID is not listed\");\n\n        address seller = sellerOf[_tokenId];\n        // solium-disable-next-line security/no-tx-origin\n        address buyer = tx.origin;\n        uint256 _price = priceOf[_tokenId];\n\n        //send _price * taxRatio to seller\n        //send _price *(1-taxRatio) to reward pool\n        uint256 reward = (_price * taxRatio) / 100;\n        uint256 giveDec = (_price * taxDev) / 100;\n        uint256 giveSeller = (_price * (100 - taxRatio - taxDev)) / 100;\n\n        require(\n            erc20.transferFrom(buyer, seller, giveSeller),\n            \"ERC20 transfer not successfully\"\n        );\n\n        require(\n            erc20.transferFrom(buyer, rewardAddress, reward),\n            \"ERC20 transfer not successfully\"\n        );\n\n        require(\n            erc20.transferFrom(buyer, devAddress, giveDec),\n            \"ERC20 transfer not successfully\"\n        );\n\n        _update(_tokenId, _price);\n\n        erc721.transferFrom(address(this), buyer, _tokenId);\n\n        removeListing(_tokenId);\n\n        emit Swapped(buyer, seller, _tokenId, _price);\n    }\n\n    function setUpdatePosibility(uint256 _posibility) external onlyOwner {\n        require(_posibility > 0 && _posibility < 100);\n        updatePosibility = _posibility;\n    }\n\n    function _update(uint256 _tokenId, uint256 _price) internal {\n        uint256 supply = erc721enumerable.totalSupply();\n        uint256 posibility = updatePosibility;\n        if (supply < 11) {\n            if (_price.div(10**18) < 400) {\n                posibility = 0;\n            }\n        } else if (supply < 21) {\n            if (_price.div(10**18) < 800) {\n                posibility = 0;\n            }\n        }else if (supply < 51) {\n            if (_price.div(10**18) < 1600) {\n                posibility = 0;\n            }\n        }else if (supply < 101) {\n            if (_price.div(10**18) < 3200) {\n                posibility = 0;\n            }\n        }else if (supply < 201) {\n            if (_price.div(10**18) < 6400) {\n                posibility = 0;\n            }\n        }else if (supply < 501) {\n            if (_price.div(10**18) < 12800) {\n                posibility = 0;\n            }\n        }else{\n            if (_price.div(10**18) < 25600) {\n                posibility = 0;\n            }\n        }\n\n        //generate random number\n        //it is not that safe\n        uint256 random = uint256(sha256(abi.encodePacked(now, msg.sender))) %\n            posibility;\n\n        if (random == 1) {\n            uint8 grade = hotpot.getGrade(_tokenId);\n            if (grade < 3) {\n                hotpot.update(_tokenId, grade + 1);\n            }\n        }\n    }\n\n    /**\n     * @dev Unlist an item\n     * @dev Can only be called by the item seller\n     * @param _tokenId the item to unlist\n     */\n    function unlist(uint256 _tokenId) external {\n        require(isListed(_tokenId), \"Token ID is not listed\");\n        address seller = sellerOf[_tokenId];\n        require(seller == msg.sender, \"Sender is not seller\");\n\n        erc721.transferFrom(address(this), seller, _tokenId);\n\n        removeListing(_tokenId);\n    }\n\n    /**\n     * @dev List a good using a IERC721 receiver hook\n     * @param _operator the caller of this function\n     * @param _seller the good seller\n     * @param _tokenId the good id to list\n     * @param _data contains the pricing data as the first 32 bytes\n     */\n    function onERC721Received(\n        address _operator,\n        address _seller,\n        uint256 _tokenId,\n        bytes memory _data\n    ) public override returns (bytes4) {\n        require(_operator == _seller, \"Seller must be operator\");\n        uint256 _price = toUint256(_data);\n\n        addListing(_seller, _tokenId, _price);\n\n        return MAGIC_ON_ERC721_RECEIVED;\n    }\n\n    /**\n     * @dev Determine whether an item is listed\n     * @param _tokenId The id of the good to check\n     * @return Return true if item is listed\n     */\n    function isListed(uint256 _tokenId) public view returns (bool) {\n        return sellerOf[_tokenId] != address(0);\n    }\n\n    /**\n     * @dev Convert a 32 byte array to uint256\n     * @param input 32 byte array\n     */\n    function toUint256(bytes memory input) internal pure returns (uint256) {\n        uint256 converted;\n        uint8 digit;\n        for (uint256 index = 0; index < 32; index++) {\n            digit = uint8(input[SafeMath.sub(31, index)]);\n            converted += SafeMath.mul(digit, 256**index);\n        }\n        return converted;\n    }\n\n    /**\n     * @dev Convenience function to add token to listing\n     * @param _seller the seller that is listing\n     * @param _tokenId the token to add\n     * @param _price the price\n     */\n    function addListing(\n        address _seller,\n        uint256 _tokenId,\n        uint256 _price\n    ) internal {\n        require(_price > 0, \"Price must be greater than zero\");\n\n        priceOf[_tokenId] = _price;\n        sellerOf[_tokenId] = _seller;\n        listTokens.push(_tokenId);\n        emit Listed(_seller, _tokenId, _price);\n    }\n\n    function _remove(uint256 index) internal {\n        if (index >= listTokens.length) return;\n\n        for (uint256 i = index; i < listTokens.length - 1; i++) {\n            listTokens[i] = listTokens[i + 1];\n        }\n        delete listTokens[listTokens.length - 1];\n        // listTokens.length--;\n    }\n\n    /**\n     * @dev Convenience function to remove tokens from listing\n     * @param _tokenId the token to remove\n     */\n    function removeListing(uint256 _tokenId) internal {\n        address seller = sellerOf[_tokenId];\n\n        delete priceOf[_tokenId];\n        delete sellerOf[_tokenId];\n\n        for (uint256 i = 0; i < listTokens.length; i++) {\n            if (listTokens[i] == _tokenId) {\n                _remove(i);\n                break;\n            }\n        }\n\n        emit Unlisted(seller, _tokenId);\n    }\n}\n",
  "sourcePath": "/Users/junhu/git/hotpotcontract/truffle/contracts/exchange/NFTMarket.sol",
  "compiler": {
    "name": "solc",
    "version": "0.6.2+commit.bacdbe57.Emscripten.clang"
  },
  "schemaVersion": "3.3.0",
  "updatedAt": "2020-10-20T06:27:52.924Z",
  "networkType": "ethereum",
  "devdoc": {
    "methods": {
      "isListed(uint256)": {
        "details": "Determine whether an item is listed",
        "params": {
          "_tokenId": "The id of the good to check"
        },
        "returns": {
          "_0": "Return true if item is listed"
        }
      },
      "onERC721Received(address,address,uint256,bytes)": {
        "details": "List a good using a IERC721 receiver hook",
        "params": {
          "_data": "contains the pricing data as the first 32 bytes",
          "_operator": "the caller of this function",
          "_seller": "the good seller",
          "_tokenId": "the good id to list"
        }
      },
      "owner()": {
        "details": "Returns the address of the current owner."
      },
      "renounceOwnership()": {
        "details": "Leaves the contract without owner. It will not be possible to call `onlyOwner` functions anymore. Can only be called by the current owner.     * NOTE: Renouncing ownership will leave the contract without an owner, thereby removing any functionality that is only available to the owner."
      },
      "swap(uint256)": {
        "details": "Initiate an escrow swap @param _tokenId the good to swap"
      },
      "transferOwnership(address)": {
        "details": "Transfers ownership of the contract to a new account (`newOwner`). Can only be called by the current owner."
      },
      "unlist(uint256)": {
        "details": "Unlist an itemCan only be called by the item seller",
        "params": {
          "_tokenId": "the item to unlist"
        }
      }
    },
    "title": "NFTMarket contract that allows atomic swaps of ERC20 and ERC721"
  },
  "userdoc": {
    "methods": {}
  }
}