{
  "contractName": "NFTMarket",
  "abi": [
    {
      "inputs": [
        {
          "internalType": "address",
          "name": "_reward",
          "type": "address"
        },
        {
          "internalType": "address",
          "name": "_nft",
          "type": "address"
        },
        {
          "internalType": "address",
          "name": "_hotpot",
          "type": "address"
        },
        {
          "internalType": "address",
          "name": "_dev",
          "type": "address"
        }
      ],
      "stateMutability": "nonpayable",
      "type": "constructor"
    },
    {
      "anonymous": false,
      "inputs": [
        {
          "indexed": true,
          "internalType": "address",
          "name": "_seller",
          "type": "address"
        },
        {
          "indexed": true,
          "internalType": "uint256",
          "name": "_tokenId",
          "type": "uint256"
        },
        {
          "indexed": false,
          "internalType": "uint256",
          "name": "_price",
          "type": "uint256"
        }
      ],
      "name": "Listed",
      "type": "event"
    },
    {
      "anonymous": false,
      "inputs": [
        {
          "indexed": true,
          "internalType": "address",
          "name": "previousOwner",
          "type": "address"
        },
        {
          "indexed": true,
          "internalType": "address",
          "name": "newOwner",
          "type": "address"
        }
      ],
      "name": "OwnershipTransferred",
      "type": "event"
    },
    {
      "anonymous": false,
      "inputs": [
        {
          "indexed": true,
          "internalType": "address",
          "name": "_buyer",
          "type": "address"
        },
        {
          "indexed": true,
          "internalType": "address",
          "name": "_seller",
          "type": "address"
        },
        {
          "indexed": true,
          "internalType": "uint256",
          "name": "_tokenId",
          "type": "uint256"
        },
        {
          "indexed": false,
          "internalType": "uint256",
          "name": "_price",
          "type": "uint256"
        }
      ],
      "name": "Swapped",
      "type": "event"
    },
    {
      "anonymous": false,
      "inputs": [
        {
          "indexed": true,
          "internalType": "address",
          "name": "_seller",
          "type": "address"
        },
        {
          "indexed": true,
          "internalType": "uint256",
          "name": "_tokenId",
          "type": "uint256"
        }
      ],
      "name": "Unlisted",
      "type": "event"
    },
    {
      "inputs": [],
      "name": "devAddress",
      "outputs": [
        {
          "internalType": "address",
          "name": "",
          "type": "address"
        }
      ],
      "stateMutability": "view",
      "type": "function",
      "constant": true
    },
    {
      "inputs": [],
      "name": "erc20",
      "outputs": [
        {
          "internalType": "contract IERC20",
          "name": "",
          "type": "address"
        }
      ],
      "stateMutability": "view",
      "type": "function",
      "constant": true
    },
    {
      "inputs": [],
      "name": "erc721",
      "outputs": [
        {
          "internalType": "contract ERC721",
          "name": "",
          "type": "address"
        }
      ],
      "stateMutability": "view",
      "type": "function",
      "constant": true
    },
    {
      "inputs": [],
      "name": "hotpot",
      "outputs": [
        {
          "internalType": "contract IHotPot",
          "name": "",
          "type": "address"
        }
      ],
      "stateMutability": "view",
      "type": "function",
      "constant": true
    },
    {
      "inputs": [],
      "name": "owner",
      "outputs": [
        {
          "internalType": "address",
          "name": "",
          "type": "address"
        }
      ],
      "stateMutability": "view",
      "type": "function",
      "constant": true
    },
    {
      "inputs": [
        {
          "internalType": "uint256",
          "name": "",
          "type": "uint256"
        }
      ],
      "name": "priceOf",
      "outputs": [
        {
          "internalType": "uint256",
          "name": "",
          "type": "uint256"
        }
      ],
      "stateMutability": "view",
      "type": "function",
      "constant": true
    },
    {
      "inputs": [],
      "name": "renounceOwnership",
      "outputs": [],
      "stateMutability": "nonpayable",
      "type": "function"
    },
    {
      "inputs": [],
      "name": "rewardAddress",
      "outputs": [
        {
          "internalType": "address",
          "name": "",
          "type": "address"
        }
      ],
      "stateMutability": "view",
      "type": "function",
      "constant": true
    },
    {
      "inputs": [
        {
          "internalType": "uint256",
          "name": "",
          "type": "uint256"
        }
      ],
      "name": "sellerOf",
      "outputs": [
        {
          "internalType": "address",
          "name": "",
          "type": "address"
        }
      ],
      "stateMutability": "view",
      "type": "function",
      "constant": true
    },
    {
      "inputs": [],
      "name": "taxDev",
      "outputs": [
        {
          "internalType": "uint256",
          "name": "",
          "type": "uint256"
        }
      ],
      "stateMutability": "view",
      "type": "function",
      "constant": true
    },
    {
      "inputs": [],
      "name": "taxRatio",
      "outputs": [
        {
          "internalType": "uint256",
          "name": "",
          "type": "uint256"
        }
      ],
      "stateMutability": "view",
      "type": "function",
      "constant": true
    },
    {
      "inputs": [
        {
          "internalType": "address",
          "name": "newOwner",
          "type": "address"
        }
      ],
      "name": "transferOwnership",
      "outputs": [],
      "stateMutability": "nonpayable",
      "type": "function"
    },
    {
      "inputs": [],
      "name": "updatePosibility",
      "outputs": [
        {
          "internalType": "uint256",
          "name": "",
          "type": "uint256"
        }
      ],
      "stateMutability": "view",
      "type": "function",
      "constant": true
    },
    {
      "inputs": [
        {
          "internalType": "address",
          "name": "_addr",
          "type": "address"
        }
      ],
      "name": "setRewardAddress",
      "outputs": [],
      "stateMutability": "nonpayable",
      "type": "function"
    },
    {
      "inputs": [
        {
          "internalType": "address",
          "name": "_addr",
          "type": "address"
        }
      ],
      "name": "setDevAddress",
      "outputs": [],
      "stateMutability": "nonpayable",
      "type": "function"
    },
    {
      "inputs": [
        {
          "internalType": "address",
          "name": "_addr",
          "type": "address"
        }
      ],
      "name": "setHotPotTicket",
      "outputs": [],
      "stateMutability": "nonpayable",
      "type": "function"
    },
    {
      "inputs": [
        {
          "internalType": "address",
          "name": "_addr",
          "type": "address"
        }
      ],
      "name": "setERC20",
      "outputs": [],
      "stateMutability": "nonpayable",
      "type": "function"
    },
    {
      "inputs": [
        {
          "internalType": "uint256",
          "name": "_ratio",
          "type": "uint256"
        }
      ],
      "name": "setTax",
      "outputs": [],
      "stateMutability": "nonpayable",
      "type": "function"
    },
    {
      "inputs": [
        {
          "internalType": "uint256",
          "name": "_posibility",
          "type": "uint256"
        }
      ],
      "name": "setUpdatePosibility",
      "outputs": [],
      "stateMutability": "nonpayable",
      "type": "function"
    },
    {
      "inputs": [],
      "name": "getListSize",
      "outputs": [
        {
          "internalType": "uint256",
          "name": "",
          "type": "uint256"
        }
      ],
      "stateMutability": "view",
      "type": "function",
      "constant": true
    },
    {
      "inputs": [],
      "name": "getListToken",
      "outputs": [
        {
          "internalType": "uint256[]",
          "name": "",
          "type": "uint256[]"
        }
      ],
      "stateMutability": "view",
      "type": "function",
      "constant": true
    },
    {
      "inputs": [
        {
          "internalType": "uint256",
          "name": "_tokenId",
          "type": "uint256"
        }
      ],
      "name": "swap",
      "outputs": [],
      "stateMutability": "nonpayable",
      "type": "function"
    },
    {
      "inputs": [
        {
          "internalType": "uint256",
          "name": "_tokenId",
          "type": "uint256"
        }
      ],
      "name": "unlist",
      "outputs": [],
      "stateMutability": "nonpayable",
      "type": "function"
    },
    {
      "inputs": [
        {
          "internalType": "address",
          "name": "_operator",
          "type": "address"
        },
        {
          "internalType": "address",
          "name": "_seller",
          "type": "address"
        },
        {
          "internalType": "uint256",
          "name": "_tokenId",
          "type": "uint256"
        },
        {
          "internalType": "bytes",
          "name": "_data",
          "type": "bytes"
        }
      ],
      "name": "onERC721Received",
      "outputs": [
        {
          "internalType": "bytes4",
          "name": "",
          "type": "bytes4"
        }
      ],
      "stateMutability": "nonpayable",
      "type": "function"
    },
    {
      "inputs": [
        {
          "internalType": "uint256",
          "name": "_tokenId",
          "type": "uint256"
        }
      ],
      "name": "isListed",
      "outputs": [
        {
          "internalType": "bool",
          "name": "",
          "type": "bool"
        }
      ],
      "stateMutability": "view",
      "type": "function",
      "constant": true
    }
  ],
  "bytecode": "0x60806040526002600655600160075560046008556001600d553480156200002557600080fd5b506040516200223338038062002233833981810160405260808110156200004b57600080fd5b50805160208201516040830151606090930151919290916000620000776001600160e01b036200029016565b600080546001600160a01b0319166001600160a01b0383169081178255604051929350917f8be0079c531659141344cd1fd0a4f28419497f9722a3daafe3b4186f6b6457e0908290a3506001600160a01b038116620000d557600080fd5b6001600160a01b038416620000e957600080fd5b6001600160a01b038316620000fd57600080fd5b6001600160a01b0382166200011157600080fd5b62000130836001600160a01b03166200029460201b620016e71760201c565b62000171576040805162461bcd60e51b815260206004820152601a602482015260008051602062002213833981519152604482015290519081900360640190fd5b62000190846001600160a01b03166200029460201b620016e71760201c565b620001d1576040805162461bcd60e51b815260206004820152601a602482015260008051602062002213833981519152604482015290519081900360640190fd5b620001f0826001600160a01b03166200029460201b620016e71760201c565b62000231576040805162461bcd60e51b815260206004820152601a602482015260008051602062002213833981519152604482015290519081900360640190fd5b600480546001600160a01b03199081166001600160a01b0396871617909155600580548216928616929092179091556001805482169285169290921790915560038054821692909316918217909255600280549092161790556200029a565b3390565b3b151590565b611f6980620002aa6000396000f3fe608060405234801561001057600080fd5b50600436106101a35760003560e01c8063929c0ca8116100ee578063d0d41fe111610097578063e18eaaa711610071578063e18eaaa71461044b578063e6db6a30146104a3578063f2fde38b146104c9578063fcce4883146104ef576101a3565b8063d0d41fe1146103eb578063d1d683cb14610411578063e05c5a831461042e576101a3565b8063bca6ce64116100c8578063bca6ce64146103a0578063bf5a4dd3146103a8578063c29a6fda146103c5576101a3565b8063929c0ca81461035e57806394b918de14610366578063b9186d7d14610383576101a3565b8063715018a611610150578063785e9e861161012a578063785e9e86146103465780638cf57cb91461034e5780638da5cb5b14610356576101a3565b8063715018a61461032e5780637771b02f14610336578063779156391461033e576101a3565b80633ad10ef6116101815780633ad10ef6146102e65780634a89a6c8146102ee5780635e00e67914610308576101a3565b8063150b7a02146101a857806315ea88c4146102a35780632e5bb6ff146102c7575b600080fd5b61026e600480360360808110156101be57600080fd5b6001600160a01b038235811692602081013590911691604082013591908101906080810160608201356401000000008111156101f957600080fd5b82018360208201111561020b57600080fd5b8035906020019184600183028401116401000000008311171561022d57600080fd5b91908080601f016020809104026020016040519081016040528093929190818152602001838380828437600092019190915250929550610520945050505050565b604080517fffffffff000000000000000000000000000000000000000000000000000000009092168252519081900360200190f35b6102ab6106a7565b604080516001600160a01b039092168252519081900360200190f35b6102e4600480360360208110156102dd57600080fd5b50356106b6565b005b6102ab61077a565b6102f6610789565b60408051918252519081900360200190f35b6102e46004803603602081101561031e57600080fd5b50356001600160a01b031661079a565b6102e46108a1565b6102f661096d565b6102f6610973565b6102ab610979565b6102ab610988565b6102ab610997565b6102f66109a6565b6102e46004803603602081101561037c57600080fd5b50356109ac565b6102f66004803603602081101561039957600080fd5b5035610e72565b6102ab610e84565b6102e4600480360360208110156103be57600080fd5b5035610e93565b6102e4600480360360208110156103db57600080fd5b50356001600160a01b0316610ff2565b6102e46004803603602081101561040157600080fd5b50356001600160a01b03166110f9565b6102e46004803603602081101561042757600080fd5b50356111b0565b6102ab6004803603602081101561044457600080fd5b5035611238565b610453611253565b60408051602080825283518183015283519192839290830191858101910280838360005b8381101561048f578181015183820152602001610477565b505050509050019250505060405180910390f35b6102e4600480360360208110156104b957600080fd5b50356001600160a01b03166112d4565b6102e4600480360360208110156104df57600080fd5b50356001600160a01b03166113e5565b61050c6004803603602081101561050557600080fd5b5035611507565b604080519115158252519081900360200190f35b6000836001600160a01b0316856001600160a01b031614610588576040805162461bcd60e51b815260206004820152601760248201527f53656c6c6572206d757374206265206f70657261746f72000000000000000000604482015290519081900360640190fd5b600254604080517f6352211e00000000000000000000000000000000000000000000000000000000815260048101869052905130926001600160a01b031691636352211e916024808301926020929190829003018186803b1580156105ec57600080fd5b505afa158015610600573d6000803e3d6000fd5b505050506040513d602081101561061657600080fd5b50516001600160a01b03161461065d5760405162461bcd60e51b815260040180806020018281038252602c815260200180611ee7602c913960400191505060405180910390fd5b600061066f838263ffffffff61152416565b905061067c8585836115e6565b507f150b7a020000000000000000000000000000000000000000000000000000000095945050505050565b6003546001600160a01b031681565b6106be6116d8565b6000546001600160a01b03908116911614610720576040805162461bcd60e51b815260206004820181905260248201527f4f776e61626c653a2063616c6c6572206973206e6f7420746865206f776e6572604482015290519081900360640190fd5b60648110610775576040805162461bcd60e51b815260206004820181905260248201527f5461782063616e206e6f742062652067726561746572207468616e2031303021604482015290519081900360640190fd5b600655565b6005546001600160a01b031681565b6000610795600b6116dc565b905090565b6107a26116d8565b6000546001600160a01b03908116911614610804576040805162461bcd60e51b815260206004820181905260248201527f4f776e61626c653a2063616c6c6572206973206e6f7420746865206f776e6572604482015290519081900360640190fd5b610816816001600160a01b03166116e7565b610867576040805162461bcd60e51b815260206004820152601a60248201527f49742773206e6f7420636f6e7472616374206164647265737321000000000000604482015290519081900360640190fd5b600480547fffffffffffffffffffffffff0000000000000000000000000000000000000000166001600160a01b0392909216919091179055565b6108a96116d8565b6000546001600160a01b0390811691161461090b576040805162461bcd60e51b815260206004820181905260248201527f4f776e61626c653a2063616c6c6572206973206e6f7420746865206f776e6572604482015290519081900360640190fd5b600080546040516001600160a01b03909116907f8be0079c531659141344cd1fd0a4f28419497f9722a3daafe3b4186f6b6457e0908390a3600080547fffffffffffffffffffffffff0000000000000000000000000000000000000000169055565b60085481565b60065481565b6001546001600160a01b031681565b6004546001600160a01b031681565b6000546001600160a01b031690565b60075481565b6109b581611507565b610a06576040805162461bcd60e51b815260206004820152601660248201527f546f6b656e204944206973206e6f74206c697374656400000000000000000000604482015290519081900360640190fd5b6000818152600a602090815260408083205460099092528220546006546001600160a01b03909216923292610a5590606490610a4990859063ffffffff6116ed16565b9063ffffffff61174d16565b90506000610a736064610a49600754866116ed90919063ffffffff16565b90506000610a986064610a4960075460065460640303876116ed90919063ffffffff16565b600154604080517f23b872dd0000000000000000000000000000000000000000000000000000000081526001600160a01b0389811660048301528a811660248301526044820185905291519394509116916323b872dd916064808201926020929091908290030181600087803b158015610b1157600080fd5b505af1158015610b25573d6000803e3d6000fd5b505050506040513d6020811015610b3b57600080fd5b5051610b8e576040805162461bcd60e51b815260206004820152601f60248201527f4552433230207472616e73666572206e6f74207375636365737366756c6c7900604482015290519081900360640190fd5b60015460048054604080517f23b872dd0000000000000000000000000000000000000000000000000000000081526001600160a01b038a8116948201949094529183166024830152604482018790525191909216916323b872dd9160648083019260209291908290030181600087803b158015610c0a57600080fd5b505af1158015610c1e573d6000803e3d6000fd5b505050506040513d6020811015610c3457600080fd5b5051610c87576040805162461bcd60e51b815260206004820152601f60248201527f4552433230207472616e73666572206e6f74207375636365737366756c6c7900604482015290519081900360640190fd5b600154600554604080517f23b872dd0000000000000000000000000000000000000000000000000000000081526001600160a01b038981166004830152928316602482015260448101869052905191909216916323b872dd9160648083019260209291908290030181600087803b158015610d0157600080fd5b505af1158015610d15573d6000803e3d6000fd5b505050506040513d6020811015610d2b57600080fd5b5051610d7e576040805162461bcd60e51b815260206004820152601f60248201527f4552433230207472616e73666572206e6f74207375636365737366756c6c7900604482015290519081900360640190fd5b610d88878561178f565b600254604080517f23b872dd0000000000000000000000000000000000000000000000000000000081523060048201526001600160a01b038881166024830152604482018b9052915191909216916323b872dd91606480830192600092919082900301818387803b158015610dfc57600080fd5b505af1158015610e10573d6000803e3d6000fd5b50505050610e1d87611b8d565b86866001600160a01b0316866001600160a01b03167fa078c4190abe07940190effc1846be0ccf03ad6007bc9e93f9697d0b460befbb876040518082815260200191505060405180910390a450505050505050565b60096020526000908152604090205481565b6002546001600160a01b031681565b610e9c81611507565b610eed576040805162461bcd60e51b815260206004820152601660248201527f546f6b656e204944206973206e6f74206c697374656400000000000000000000604482015290519081900360640190fd5b6000818152600a60205260409020546001600160a01b0316338114610f59576040805162461bcd60e51b815260206004820152601460248201527f53656e646572206973206e6f742073656c6c6572000000000000000000000000604482015290519081900360640190fd5b600254604080517f23b872dd0000000000000000000000000000000000000000000000000000000081523060048201526001600160a01b03848116602483015260448201869052915191909216916323b872dd91606480830192600092919082900301818387803b158015610fcd57600080fd5b505af1158015610fe1573d6000803e3d6000fd5b50505050610fee82611b8d565b5050565b610ffa6116d8565b6000546001600160a01b0390811691161461105c576040805162461bcd60e51b815260206004820181905260248201527f4f776e61626c653a2063616c6c6572206973206e6f7420746865206f776e6572604482015290519081900360640190fd5b61106e816001600160a01b03166116e7565b6110bf576040805162461bcd60e51b815260206004820152601a60248201527f49742773206e6f7420636f6e7472616374206164647265737321000000000000604482015290519081900360640190fd5b600180547fffffffffffffffffffffffff0000000000000000000000000000000000000000166001600160a01b0392909216919091179055565b6111016116d8565b6000546001600160a01b03908116911614611163576040805162461bcd60e51b815260206004820181905260248201527f4f776e61626c653a2063616c6c6572206973206e6f7420746865206f776e6572604482015290519081900360640190fd5b6001600160a01b03811661117657600080fd5b600580547fffffffffffffffffffffffff0000000000000000000000000000000000000000166001600160a01b0392909216919091179055565b6111b86116d8565b6000546001600160a01b0390811691161461121a576040805162461bcd60e51b815260206004820181905260248201527f4f776e61626c653a2063616c6c6572206973206e6f7420746865206f776e6572604482015290519081900360640190fd5b60008111801561122a5750606481105b61123357600080fd5b600855565b600a602052600090815260409020546001600160a01b031681565b60606000611261600b6116dc565b905060608160405190808252806020026020018201604052801561128f578160200160208202803883390190505b50905060005b828110156112cd576112ae600b8263ffffffff611c2a16565b8282815181106112ba57fe5b6020908102919091010152600101611295565b5091505090565b6112dc6116d8565b6000546001600160a01b0390811691161461133e576040805162461bcd60e51b815260206004820181905260248201527f4f776e61626c653a2063616c6c6572206973206e6f7420746865206f776e6572604482015290519081900360640190fd5b611350816001600160a01b03166116e7565b6113a1576040805162461bcd60e51b815260206004820152601a60248201527f49742773206e6f7420636f6e7472616374206164647265737321000000000000604482015290519081900360640190fd5b600380546001600160a01b039092167fffffffffffffffffffffffff0000000000000000000000000000000000000000928316811790915560028054909216179055565b6113ed6116d8565b6000546001600160a01b0390811691161461144f576040805162461bcd60e51b815260206004820181905260248201527f4f776e61626c653a2063616c6c6572206973206e6f7420746865206f776e6572604482015290519081900360640190fd5b6001600160a01b0381166114945760405162461bcd60e51b8152600401808060200182810382526026815260200180611ec16026913960400191505060405180910390fd5b600080546040516001600160a01b03808516939216917f8be0079c531659141344cd1fd0a4f28419497f9722a3daafe3b4186f6b6457e091a3600080547fffffffffffffffffffffffff0000000000000000000000000000000000000000166001600160a01b0392909216919091179055565b6000908152600a60205260409020546001600160a01b0316151590565b60008182602001101561157e576040805162461bcd60e51b815260206004820152601260248201527f746f55696e743235365f6f766572666c6f770000000000000000000000000000604482015290519081900360640190fd5b81602001835110156115d7576040805162461bcd60e51b815260206004820152601560248201527f746f55696e743235365f6f75744f66426f756e64730000000000000000000000604482015290519081900360640190fd5b50818101602001515b92915050565b6000811161163b576040805162461bcd60e51b815260206004820152601f60248201527f5072696365206d7573742062652067726561746572207468616e207a65726f00604482015290519081900360640190fd5b6000828152600960209081526040808320849055600a909152902080547fffffffffffffffffffffffff0000000000000000000000000000000000000000166001600160a01b038516179055611692600b83611c36565b5060408051828152905183916001600160a01b038616917f6e16e8064e3c8254cef11e01e152416398602d7e8785f743f1c2f93a9a15ff359181900360200190a3505050565b3390565b60006115e082611c42565b3b151590565b6000826116fc575060006115e0565b8282028284828161170957fe5b04146117465760405162461bcd60e51b8152600401808060200182810382526021815260200180611f136021913960400191505060405180910390fd5b9392505050565b600061174683836040518060400160405280601a81526020017f536166654d6174683a206469766973696f6e206279207a65726f000000000000815250611c46565b600254604080517f18160ddd00000000000000000000000000000000000000000000000000000000815290516000926001600160a01b0316916318160ddd916004808301926020929190829003018186803b1580156117ed57600080fd5b505afa158015611801573d6000803e3d6000fd5b505050506040513d602081101561181757600080fd5b5051600854909150600b8210156118525761019061184384670de0b6b3a764000063ffffffff61174d16565b101561184d575060005b61192c565b60158210156118765761032061184384670de0b6b3a764000063ffffffff61174d16565b603382101561189a5761064061184384670de0b6b3a764000063ffffffff61174d16565b60658210156118be57610c8061184384670de0b6b3a764000063ffffffff61174d16565b60c98210156118e25761190061184384670de0b6b3a764000063ffffffff61174d16565b6101f58210156119075761320061184384670de0b6b3a764000063ffffffff61174d16565b61640061192284670de0b6b3a764000063ffffffff61174d16565b101561192c575060005b6000606460024233600d60008154809291906001019190505560405160200180848152602001836001600160a01b03166001600160a01b031660601b815260140182815260200193505050506040516020818303038152906040526040518082805190602001908083835b602083106119d457805182527fffffffffffffffffffffffffffffffffffffffffffffffffffffffffffffffe09092019160209182019101611997565b51815160209384036101000a7fffffffffffffffffffffffffffffffffffffffffffffffffffffffffffffffff01801990921691161790526040519190930194509192505080830381855afa158015611a31573d6000803e3d6000fd5b5050506040513d6020811015611a4657600080fd5b505181611a4f57fe5b06905081811015611b8657600354604080517fe1e0485e0000000000000000000000000000000000000000000000000000000081526004810188905290516000926001600160a01b03169163e1e0485e916024808301926020929190829003018186803b158015611abf57600080fd5b505afa158015611ad3573d6000803e3d6000fd5b505050506040513d6020811015611ae957600080fd5b50519050600360ff82161015611b8457600354604080517f306a69480000000000000000000000000000000000000000000000000000000081526004810189905260ff6001850116602482015290516001600160a01b039092169163306a69489160448082019260009290919082900301818387803b158015611b6b57600080fd5b505af1158015611b7f573d6000803e3d6000fd5b505050505b505b5050505050565b6000818152600a602081815260408084208054600984529185209490945591905281547fffffffffffffffffffffffff0000000000000000000000000000000000000000169091556001600160a01b0316611bef600b8363ffffffff611ce816565b5060405182906001600160a01b038316907fd1b3de83f2e838a8b6eb09447f2316d7bfd1a64d0059abe8f1160f490616fd8390600090a35050565b60006117468383611cf4565b60006117468383611d58565b5490565b60008183611cd25760405162461bcd60e51b81526004018080602001828103825283818151815260200191508051906020019080838360005b83811015611c97578181015183820152602001611c7f565b50505050905090810190601f168015611cc45780820380516001836020036101000a031916815260200191505b509250505060405180910390fd5b506000838581611cde57fe5b0495945050505050565b60006117468383611da2565b81546000908210611d365760405162461bcd60e51b8152600401808060200182810382526022815260200180611e9f6022913960400191505060405180910390fd5b826000018281548110611d4557fe5b9060005260206000200154905092915050565b6000611d648383611e86565b611d9a575081546001818101845560008481526020808220909301849055845484825282860190935260409020919091556115e0565b5060006115e0565b60008181526001830160205260408120548015611e7c5783547fffffffffffffffffffffffffffffffffffffffffffffffffffffffffffffffff8083019190810190600090879083908110611df357fe5b9060005260206000200154905080876000018481548110611e1057fe5b600091825260208083209091019290925582815260018981019092526040902090840190558654879080611e4057fe5b600190038181906000526020600020016000905590558660010160008781526020019081526020016000206000905560019450505050506115e0565b60009150506115e0565b6000908152600191909101602052604090205415159056fe456e756d657261626c655365743a20696e646578206f7574206f6620626f756e64734f776e61626c653a206e6577206f776e657220697320746865207a65726f20616464726573736f6e45524337323152656365697665642063616e206e6f742062652063616c6c6564206469726563746c7921536166654d6174683a206d756c7469706c69636174696f6e206f766572666c6f77a2646970667358221220fee87faea602f9a39c9e9f869a897a90273ac2555cd4db0ee3838ee9c1a62d2664736f6c6343000602003349742773206e6f7420636f6e7472616374206164647265737321000000000000",
  "source": "pragma solidity ^0.6.0;\n\nimport \"@openzeppelin/contracts/math/SafeMath.sol\";\nimport \"@openzeppelin/contracts/token/ERC20/IERC20.sol\";\nimport \"@openzeppelin/contracts/token/ERC20/SafeERC20.sol\";\nimport \"@openzeppelin/contracts/utils/EnumerableSet.sol\";\nimport \"@openzeppelin/contracts/token/ERC721/ERC721.sol\";\nimport \"@openzeppelin/contracts/token/ERC721/IERC721Receiver.sol\";\nimport \"@openzeppelin/contracts/access/Ownable.sol\";\nimport \"@openzeppelin/contracts/utils/Address.sol\";\nimport \"../common/hotpotinterface.sol\";\nimport \"solidity-bytes-utils/contracts/BytesLib.sol\";\n\n/**\n * @title NFTMarket contract that allows atomic swaps of ERC20 and ERC721\n */\ncontract NFTMarket is IERC721Receiver, Ownable {\n    using Address for address;\n    using SafeMath for uint256;\n    using BytesLib for bytes;\n\n    using EnumerableSet for EnumerableSet.UintSet;\n\n    event Swapped(\n        address indexed _buyer,\n        address indexed _seller,\n        uint256 indexed _tokenId,\n        uint256 _price\n    );\n    event Listed(\n        address indexed _seller,\n        uint256 indexed _tokenId,\n        uint256 _price\n    );\n    event Unlisted(address indexed _seller, uint256 indexed _tokenId);\n\n    IERC20 public erc20;\n    ERC721 public erc721;\n    IHotPot public hotpot;\n\n    address public rewardAddress;\n    address public devAddress;\n\n    uint256 public taxRatio = 2;\n    uint256 public taxDev = 1;\n\n    uint256 public updatePosibility = 4;\n\n    mapping(uint256 => uint256) public priceOf;\n    mapping(uint256 => address) public sellerOf;\n\n    EnumerableSet.UintSet internal listSet;\n\n    bytes4 internal constant MAGIC_ON_ERC721_RECEIVED = 0x150b7a02;\n\n    constructor(\n        address _reward,\n        address _nft,\n        address _hotpot,\n        address _dev\n    ) public {\n        require(_dev != address(0));\n        require(_reward != address(0));\n        require(_nft != address(0));\n        require(_hotpot != address(0));\n        require(_nft.isContract(), \"It's not contract address!\");\n        require(_reward.isContract(), \"It's not contract address!\");\n        require(_hotpot.isContract(), \"It's not contract address!\");\n        rewardAddress = _reward;\n        devAddress = _dev;\n        erc20 = IERC20(_hotpot);\n        hotpot = IHotPot(_nft);\n        erc721 = ERC721(_nft);\n    }\n\n    function setRewardAddress(address _addr) external onlyOwner {\n        require(_addr.isContract(), \"It's not contract address!\");\n        rewardAddress = _addr;\n    }\n\n    function setDevAddress(address _addr) external onlyOwner {\n        require(_addr != address(0));\n        devAddress = _addr;\n    }\n\n    function setHotPotTicket(address _addr) external onlyOwner {\n        require(_addr.isContract(), \"It's not contract address!\");\n        hotpot = IHotPot(_addr);\n        erc721 = ERC721(_addr);\n    }\n\n    function setERC20(address _addr) external onlyOwner {\n        require(_addr.isContract(), \"It's not contract address!\");\n        erc20 = IERC20(_addr);\n    }\n\n    function setTax(uint256 _ratio) external onlyOwner {\n        require(_ratio < 100, \"Tax can not be greater than 100!\");\n        taxRatio = _ratio;\n    }\n\n    function setUpdatePosibility(uint256 _posibility) external onlyOwner {\n        require(_posibility > 0 && _posibility < 100);\n        updatePosibility = _posibility;\n    }\n\n    function getListSize() external view returns (uint256) {\n        return listSet.length();\n    }\n\n    function getListToken() external view returns (uint256[] memory) {\n        uint256 loanSize = listSet.length();\n        uint256[] memory data = new uint256[](loanSize);\n        for (uint256 i = 0; i < loanSize; i++) {\n            data[i] = listSet.at(i);\n        }\n        return data;\n    }\n\n    /**\n      * @dev Initiate an escrow swap\n      @ @param _tokenId the good to swap\n      */\n    function swap(uint256 _tokenId) external {\n        require(isListed(_tokenId), \"Token ID is not listed\");\n\n        address seller = sellerOf[_tokenId];\n        // solium-disable-next-line security/no-tx-origin\n        address buyer = tx.origin;\n        uint256 _price = priceOf[_tokenId];\n\n        //send _price * taxRatio to seller\n        //send _price *(1-taxRatio) to reward pool\n        uint256 reward = _price .mul(taxRatio).div(100);\n        uint256 giveDec = _price.mul(taxDev).div(100);\n        uint256 giveSeller = _price.mul(100 - taxRatio - taxDev).div(100);\n\n        require(\n            erc20.transferFrom(buyer, seller, giveSeller),\n            \"ERC20 transfer not successfully\"\n        );\n\n        require(\n            erc20.transferFrom(buyer, rewardAddress, reward),\n            \"ERC20 transfer not successfully\"\n        );\n\n        require(\n            erc20.transferFrom(buyer, devAddress, giveDec),\n            \"ERC20 transfer not successfully\"\n        );\n\n        _update(_tokenId, _price);\n\n        erc721.transferFrom(address(this), buyer, _tokenId);\n\n        removeListing(_tokenId);\n\n        emit Swapped(buyer, seller, _tokenId, _price);\n    }\n\n    uint256 internal randomSeed = 1;\n\n    function _update(uint256 _tokenId, uint256 _price) internal {\n        uint256 supply = erc721.totalSupply();\n        uint256 posibility = updatePosibility;\n        if (supply < 11) {\n            if (_price.div(10**18) < 400) {\n                posibility = 0;\n            }\n        } else if (supply < 21) {\n            if (_price.div(10**18) < 800) {\n                posibility = 0;\n            }\n        } else if (supply < 51) {\n            if (_price.div(10**18) < 1600) {\n                posibility = 0;\n            }\n        } else if (supply < 101) {\n            if (_price.div(10**18) < 3200) {\n                posibility = 0;\n            }\n        } else if (supply < 201) {\n            if (_price.div(10**18) < 6400) {\n                posibility = 0;\n            }\n        } else if (supply < 501) {\n            if (_price.div(10**18) < 12800) {\n                posibility = 0;\n            }\n        } else {\n            if (_price.div(10**18) < 25600) {\n                posibility = 0;\n            }\n        }\n\n        //generate random number\n        //it is not that safe\n        uint256 random = uint256(\n            sha256(abi.encodePacked(now, msg.sender, randomSeed++))\n        ) % 100;\n\n        if (random < posibility) {\n            uint8 grade = hotpot.getGrade(_tokenId);\n            if (grade < 3) {\n                hotpot.update(_tokenId, grade + 1);\n            }\n        }\n    }\n\n    /**\n     * @dev Unlist an item\n     * @dev Can only be called by the item seller\n     * @param _tokenId the item to unlist\n     */\n    function unlist(uint256 _tokenId) external {\n        require(isListed(_tokenId), \"Token ID is not listed\");\n        address seller = sellerOf[_tokenId];\n        require(seller == msg.sender, \"Sender is not seller\");\n\n        erc721.transferFrom(address(this), seller, _tokenId);\n\n        removeListing(_tokenId);\n    }\n\n    /**\n     * @dev List a good using a IERC721 receiver hook\n     * @param _operator the caller of this function\n     * @param _seller the good seller\n     * @param _tokenId the good id to list\n     * @param _data contains the pricing data as the first 32 bytes\n     */\n    function onERC721Received(\n        address _operator,\n        address _seller,\n        uint256 _tokenId,\n        bytes memory _data\n    ) public override returns (bytes4) {\n        require(_operator == _seller, \"Seller must be operator\");\n        require(erc721.ownerOf(_tokenId)==address(this),\"onERC721Received can not be called directly!\");\n        // uint256 _price = toUint256(_data);\n        uint256 _price = _data.toUint256(0);\n\n        addListing(_seller, _tokenId, _price);\n\n        return MAGIC_ON_ERC721_RECEIVED;\n    }\n\n    /**\n     * @dev Determine whether an item is listed\n     * @param _tokenId The id of the good to check\n     * @return Return true if item is listed\n     */\n    function isListed(uint256 _tokenId) public view returns (bool) {\n        return sellerOf[_tokenId] != address(0);\n    }\n\n    /**\n     * @dev Convert a 32 byte array to uint256\n     * @param input 32 byte array\n     */\n    // function toUint256(bytes memory input) internal pure returns (uint256) {\n    //     uint256 converted;\n    //     uint8 digit;\n    //     for (uint256 index = 0; index < 32; index++) {\n    //         digit = uint8(input[SafeMath.sub(31, index)]);\n    //         converted += SafeMath.mul(digit, 256**index);\n    //     }\n    //     return converted;\n    // }\n\n    /**\n     * @dev Convenience function to add token to listing\n     * @param _seller the seller that is listing\n     * @param _tokenId the token to add\n     * @param _price the price\n     */\n    function addListing(\n        address _seller,\n        uint256 _tokenId,\n        uint256 _price\n    ) internal {\n        require(_price > 0, \"Price must be greater than zero\");\n\n        priceOf[_tokenId] = _price;\n        sellerOf[_tokenId] = _seller;\n        listSet.add(_tokenId);\n        emit Listed(_seller, _tokenId, _price);\n    }\n\n    /**\n     * @dev Convenience function to remove tokens from listing\n     * @param _tokenId the token to remove\n     */\n    function removeListing(uint256 _tokenId) internal {\n        address seller = sellerOf[_tokenId];\n\n        delete priceOf[_tokenId];\n        delete sellerOf[_tokenId];\n\n        listSet.remove(_tokenId);\n\n        emit Unlisted(seller, _tokenId);\n    }\n}\n",
  "sourcePath": "/Users/junhu/git/hotpotcontract/truffle/contracts/exchange/NFTMarket.sol",
  "compiler": {
    "name": "solc",
    "version": "0.6.2+commit.bacdbe57.Emscripten.clang"
  },
  "schemaVersion": "3.3.0",
  "updatedAt": "2020-10-23T06:04:21.599Z",
  "networkType": "ethereum",
  "devdoc": {
    "methods": {
      "isListed(uint256)": {
        "details": "Determine whether an item is listed",
        "params": {
          "_tokenId": "The id of the good to check"
        },
        "returns": {
          "_0": "Return true if item is listed"
        }
      },
      "onERC721Received(address,address,uint256,bytes)": {
        "details": "List a good using a IERC721 receiver hook",
        "params": {
          "_data": "contains the pricing data as the first 32 bytes",
          "_operator": "the caller of this function",
          "_seller": "the good seller",
          "_tokenId": "the good id to list"
        }
      },
      "owner()": {
        "details": "Returns the address of the current owner."
      },
      "renounceOwnership()": {
        "details": "Leaves the contract without owner. It will not be possible to call `onlyOwner` functions anymore. Can only be called by the current owner.     * NOTE: Renouncing ownership will leave the contract without an owner, thereby removing any functionality that is only available to the owner."
      },
      "swap(uint256)": {
        "details": "Initiate an escrow swap @param _tokenId the good to swap"
      },
      "transferOwnership(address)": {
        "details": "Transfers ownership of the contract to a new account (`newOwner`). Can only be called by the current owner."
      },
      "unlist(uint256)": {
        "details": "Unlist an itemCan only be called by the item seller",
        "params": {
          "_tokenId": "the item to unlist"
        }
      }
    },
    "title": "NFTMarket contract that allows atomic swaps of ERC20 and ERC721"
  },
  "userdoc": {
    "methods": {}
  }
}