{
  "contractName": "NFTMarket",
  "abi": [
    {
      "inputs": [
        {
          "internalType": "address",
          "name": "_reward",
          "type": "address"
        },
        {
          "internalType": "address",
          "name": "_nft",
          "type": "address"
        },
        {
          "internalType": "address",
          "name": "_hotpot",
          "type": "address"
        },
        {
          "internalType": "address",
          "name": "_dev",
          "type": "address"
        }
      ],
      "stateMutability": "nonpayable",
      "type": "constructor"
    },
    {
      "anonymous": false,
      "inputs": [
        {
          "indexed": true,
          "internalType": "address",
          "name": "_seller",
          "type": "address"
        },
        {
          "indexed": true,
          "internalType": "uint256",
          "name": "_tokenId",
          "type": "uint256"
        },
        {
          "indexed": false,
          "internalType": "uint256",
          "name": "_price",
          "type": "uint256"
        }
      ],
      "name": "Listed",
      "type": "event"
    },
    {
      "anonymous": false,
      "inputs": [
        {
          "indexed": true,
          "internalType": "address",
          "name": "previousOwner",
          "type": "address"
        },
        {
          "indexed": true,
          "internalType": "address",
          "name": "newOwner",
          "type": "address"
        }
      ],
      "name": "OwnershipTransferred",
      "type": "event"
    },
    {
      "anonymous": false,
      "inputs": [
        {
          "indexed": true,
          "internalType": "address",
          "name": "_buyer",
          "type": "address"
        },
        {
          "indexed": true,
          "internalType": "address",
          "name": "_seller",
          "type": "address"
        },
        {
          "indexed": true,
          "internalType": "uint256",
          "name": "_tokenId",
          "type": "uint256"
        },
        {
          "indexed": false,
          "internalType": "uint256",
          "name": "_price",
          "type": "uint256"
        }
      ],
      "name": "Swapped",
      "type": "event"
    },
    {
      "anonymous": false,
      "inputs": [
        {
          "indexed": true,
          "internalType": "address",
          "name": "_seller",
          "type": "address"
        },
        {
          "indexed": true,
          "internalType": "uint256",
          "name": "_tokenId",
          "type": "uint256"
        }
      ],
      "name": "Unlisted",
      "type": "event"
    },
    {
      "inputs": [],
      "name": "devAddress",
      "outputs": [
        {
          "internalType": "address",
          "name": "",
          "type": "address"
        }
      ],
      "stateMutability": "view",
      "type": "function",
      "constant": true
    },
    {
      "inputs": [
        {
          "internalType": "uint256",
          "name": "",
          "type": "uint256"
        }
      ],
      "name": "listTokens",
      "outputs": [
        {
          "internalType": "uint256",
          "name": "",
          "type": "uint256"
        }
      ],
      "stateMutability": "view",
      "type": "function",
      "constant": true
    },
    {
      "inputs": [],
      "name": "owner",
      "outputs": [
        {
          "internalType": "address",
          "name": "",
          "type": "address"
        }
      ],
      "stateMutability": "view",
      "type": "function",
      "constant": true
    },
    {
      "inputs": [
        {
          "internalType": "uint256",
          "name": "",
          "type": "uint256"
        }
      ],
      "name": "priceOf",
      "outputs": [
        {
          "internalType": "uint256",
          "name": "",
          "type": "uint256"
        }
      ],
      "stateMutability": "view",
      "type": "function",
      "constant": true
    },
    {
      "inputs": [],
      "name": "renounceOwnership",
      "outputs": [],
      "stateMutability": "nonpayable",
      "type": "function"
    },
    {
      "inputs": [],
      "name": "rewardAddress",
      "outputs": [
        {
          "internalType": "address",
          "name": "",
          "type": "address"
        }
      ],
      "stateMutability": "view",
      "type": "function",
      "constant": true
    },
    {
      "inputs": [
        {
          "internalType": "uint256",
          "name": "",
          "type": "uint256"
        }
      ],
      "name": "sellerOf",
      "outputs": [
        {
          "internalType": "address",
          "name": "",
          "type": "address"
        }
      ],
      "stateMutability": "view",
      "type": "function",
      "constant": true
    },
    {
      "inputs": [],
      "name": "taxDev",
      "outputs": [
        {
          "internalType": "uint256",
          "name": "",
          "type": "uint256"
        }
      ],
      "stateMutability": "view",
      "type": "function",
      "constant": true
    },
    {
      "inputs": [],
      "name": "taxRatio",
      "outputs": [
        {
          "internalType": "uint256",
          "name": "",
          "type": "uint256"
        }
      ],
      "stateMutability": "view",
      "type": "function",
      "constant": true
    },
    {
      "inputs": [
        {
          "internalType": "address",
          "name": "newOwner",
          "type": "address"
        }
      ],
      "name": "transferOwnership",
      "outputs": [],
      "stateMutability": "nonpayable",
      "type": "function"
    },
    {
      "inputs": [],
      "name": "updatePosibility",
      "outputs": [
        {
          "internalType": "uint256",
          "name": "",
          "type": "uint256"
        }
      ],
      "stateMutability": "view",
      "type": "function",
      "constant": true
    },
    {
      "inputs": [
        {
          "internalType": "address",
          "name": "_addr",
          "type": "address"
        }
      ],
      "name": "setRewardAddress",
      "outputs": [],
      "stateMutability": "nonpayable",
      "type": "function"
    },
    {
      "inputs": [
        {
          "internalType": "address",
          "name": "_addr",
          "type": "address"
        }
      ],
      "name": "setDevAddress",
      "outputs": [],
      "stateMutability": "nonpayable",
      "type": "function"
    },
    {
      "inputs": [
        {
          "internalType": "address",
          "name": "_addr",
          "type": "address"
        }
      ],
      "name": "setHotPotTicket",
      "outputs": [],
      "stateMutability": "nonpayable",
      "type": "function"
    },
    {
      "inputs": [
        {
          "internalType": "address",
          "name": "_addr",
          "type": "address"
        }
      ],
      "name": "setERC20",
      "outputs": [],
      "stateMutability": "nonpayable",
      "type": "function"
    },
    {
      "inputs": [
        {
          "internalType": "uint256",
          "name": "_ratio",
          "type": "uint256"
        }
      ],
      "name": "setTax",
      "outputs": [],
      "stateMutability": "nonpayable",
      "type": "function"
    },
    {
      "inputs": [],
      "name": "getListSize",
      "outputs": [
        {
          "internalType": "uint256",
          "name": "",
          "type": "uint256"
        }
      ],
      "stateMutability": "view",
      "type": "function",
      "constant": true
    },
    {
      "inputs": [],
      "name": "getListToken",
      "outputs": [
        {
          "internalType": "uint256[]",
          "name": "",
          "type": "uint256[]"
        }
      ],
      "stateMutability": "view",
      "type": "function",
      "constant": true
    },
    {
      "inputs": [
        {
          "internalType": "uint256",
          "name": "_tokenId",
          "type": "uint256"
        }
      ],
      "name": "swap",
      "outputs": [],
      "stateMutability": "nonpayable",
      "type": "function"
    },
    {
      "inputs": [
        {
          "internalType": "uint256",
          "name": "_posibility",
          "type": "uint256"
        }
      ],
      "name": "setUpdatePosibility",
      "outputs": [],
      "stateMutability": "nonpayable",
      "type": "function"
    },
    {
      "inputs": [
        {
          "internalType": "uint256",
          "name": "_tokenId",
          "type": "uint256"
        }
      ],
      "name": "unlist",
      "outputs": [],
      "stateMutability": "nonpayable",
      "type": "function"
    },
    {
      "inputs": [
        {
          "internalType": "address",
          "name": "_operator",
          "type": "address"
        },
        {
          "internalType": "address",
          "name": "_seller",
          "type": "address"
        },
        {
          "internalType": "uint256",
          "name": "_tokenId",
          "type": "uint256"
        },
        {
          "internalType": "bytes",
          "name": "_data",
          "type": "bytes"
        }
      ],
      "name": "onERC721Received",
      "outputs": [
        {
          "internalType": "bytes4",
          "name": "",
          "type": "bytes4"
        }
      ],
      "stateMutability": "nonpayable",
      "type": "function"
    },
    {
      "inputs": [
        {
          "internalType": "uint256",
          "name": "_tokenId",
          "type": "uint256"
        }
      ],
      "name": "isListed",
      "outputs": [
        {
          "internalType": "bool",
          "name": "",
          "type": "bool"
        }
      ],
      "stateMutability": "view",
      "type": "function",
      "constant": true
    }
  ],
  "bytecode": "0x60806040526002600655600160075560106008553480156200002057600080fd5b5060405162002dd538038062002dd5833981810160405260808110156200004657600080fd5b81019080805190602001909291908051906020019092919080519060200190929190805190602001909291905050506000620000876200053d60201b60201c565b9050806000806101000a81548173ffffffffffffffffffffffffffffffffffffffff021916908373ffffffffffffffffffffffffffffffffffffffff1602179055508073ffffffffffffffffffffffffffffffffffffffff16600073ffffffffffffffffffffffffffffffffffffffff167f8be0079c531659141344cd1fd0a4f28419497f9722a3daafe3b4186f6b6457e060405160405180910390a350600073ffffffffffffffffffffffffffffffffffffffff168173ffffffffffffffffffffffffffffffffffffffff1614156200016057600080fd5b600073ffffffffffffffffffffffffffffffffffffffff168473ffffffffffffffffffffffffffffffffffffffff1614156200019b57600080fd5b600073ffffffffffffffffffffffffffffffffffffffff168373ffffffffffffffffffffffffffffffffffffffff161415620001d657600080fd5b600073ffffffffffffffffffffffffffffffffffffffff168273ffffffffffffffffffffffffffffffffffffffff1614156200021157600080fd5b6200023d8373ffffffffffffffffffffffffffffffffffffffff166200054560201b6200222e1760201c565b620002b0576040517f08c379a000000000000000000000000000000000000000000000000000000000815260040180806020018281038252601a8152602001807f49742773206e6f7420636f6e747261637420616464726573732100000000000081525060200191505060405180910390fd5b620002dc8473ffffffffffffffffffffffffffffffffffffffff166200054560201b6200222e1760201c565b6200034f576040517f08c379a000000000000000000000000000000000000000000000000000000000815260040180806020018281038252601a8152602001807f49742773206e6f7420636f6e747261637420616464726573732100000000000081525060200191505060405180910390fd5b6200037b8273ffffffffffffffffffffffffffffffffffffffff166200054560201b6200222e1760201c565b620003ee576040517f08c379a000000000000000000000000000000000000000000000000000000000815260040180806020018281038252601a8152602001807f49742773206e6f7420636f6e747261637420616464726573732100000000000081525060200191505060405180910390fd5b83600460006101000a81548173ffffffffffffffffffffffffffffffffffffffff021916908373ffffffffffffffffffffffffffffffffffffffff16021790555080600560006101000a81548173ffffffffffffffffffffffffffffffffffffffff021916908373ffffffffffffffffffffffffffffffffffffffff16021790555081600160006101000a81548173ffffffffffffffffffffffffffffffffffffffff021916908373ffffffffffffffffffffffffffffffffffffffff16021790555082600360006101000a81548173ffffffffffffffffffffffffffffffffffffffff021916908373ffffffffffffffffffffffffffffffffffffffff16021790555082600260006101000a81548173ffffffffffffffffffffffffffffffffffffffff021916908373ffffffffffffffffffffffffffffffffffffffff1602179055505050505062000558565b600033905090565b600080823b905060008111915050919050565b61286d80620005686000396000f3fe608060405234801561001057600080fd5b506004361061014d5760003560e01c806394b918de116100c3578063d1d683cb1161007c578063d1d683cb146105e3578063e05c5a8314610611578063e18eaaa71461067f578063e6db6a30146106de578063f2fde38b14610722578063fcce4883146107665761014d565b806394b918de1461047b5780639538be00146104a9578063b9186d7d146104eb578063bf5a4dd31461052d578063c29a6fda1461055b578063d0d41fe11461059f5761014d565b8063715018a611610115578063715018a6146103835780637771b02f1461038d57806377915639146103ab5780638cf57cb9146103c95780638da5cb5b14610413578063929c0ca81461045d5761014d565b8063150b7a02146101525780632e5bb6ff146102a95780633ad10ef6146102d75780634a89a6c8146103215780635e00e6791461033f575b600080fd5b6102556004803603608081101561016857600080fd5b81019080803573ffffffffffffffffffffffffffffffffffffffff169060200190929190803573ffffffffffffffffffffffffffffffffffffffff16906020019092919080359060200190929190803590602001906401000000008111156101cf57600080fd5b8201836020820111156101e157600080fd5b8035906020019184600183028401116401000000008311171561020357600080fd5b91908080601f016020809104026020016040519081016040528093929190818152602001838380828437600081840152601f19601f8201169050808301925050505050505091929192905050506107ac565b60405180827bffffffffffffffffffffffffffffffffffffffffffffffffffffffff19167bffffffffffffffffffffffffffffffffffffffffffffffffffffffff1916815260200191505060405180910390f35b6102d5600480360360208110156102bf57600080fd5b810190808035906020019092919050505061087a565b005b6102df6109c3565b604051808273ffffffffffffffffffffffffffffffffffffffff1673ffffffffffffffffffffffffffffffffffffffff16815260200191505060405180910390f35b6103296109e9565b6040518082815260200191505060405180910390f35b6103816004803603602081101561035557600080fd5b81019080803573ffffffffffffffffffffffffffffffffffffffff1690602001909291905050506109f6565b005b61038b610b94565b005b610395610d1c565b6040518082815260200191505060405180910390f35b6103b3610d22565b6040518082815260200191505060405180910390f35b6103d1610d28565b604051808273ffffffffffffffffffffffffffffffffffffffff1673ffffffffffffffffffffffffffffffffffffffff16815260200191505060405180910390f35b61041b610d4e565b604051808273ffffffffffffffffffffffffffffffffffffffff1673ffffffffffffffffffffffffffffffffffffffff16815260200191505060405180910390f35b610465610d77565b6040518082815260200191505060405180910390f35b6104a76004803603602081101561049157600080fd5b8101908080359060200190929190505050610d7d565b005b6104d5600480360360208110156104bf57600080fd5b81019080803590602001909291905050506114e5565b6040518082815260200191505060405180910390f35b6105176004803603602081101561050157600080fd5b8101908080359060200190929190505050611506565b6040518082815260200191505060405180910390f35b6105596004803603602081101561054357600080fd5b810190808035906020019092919050505061151e565b005b61059d6004803603602081101561057157600080fd5b81019080803573ffffffffffffffffffffffffffffffffffffffff169060200190929190505050611774565b005b6105e1600480360360208110156105b557600080fd5b81019080803573ffffffffffffffffffffffffffffffffffffffff169060200190929190505050611912565b005b61060f600480360360208110156105f957600080fd5b8101908080359060200190929190505050611a59565b005b61063d6004803603602081101561062757600080fd5b8101908080359060200190929190505050611b45565b604051808273ffffffffffffffffffffffffffffffffffffffff1673ffffffffffffffffffffffffffffffffffffffff16815260200191505060405180910390f35b610687611b78565b6040518080602001828103825283818151815260200191508051906020019060200280838360005b838110156106ca5780820151818401526020810190506106af565b505050509050019250505060405180910390f35b610720600480360360208110156106f457600080fd5b81019080803573ffffffffffffffffffffffffffffffffffffffff169060200190929190505050611c0a565b005b6107646004803603602081101561073857600080fd5b81019080803573ffffffffffffffffffffffffffffffffffffffff169060200190929190505050611de9565b005b6107926004803603602081101561077c57600080fd5b8101908080359060200190929190505050611ff6565b604051808215151515815260200191505060405180910390f35b60008373ffffffffffffffffffffffffffffffffffffffff168573ffffffffffffffffffffffffffffffffffffffff161461084f576040517f08c379a00000000000000000000000000000000000000000000000000000000081526004018080602001828103825260178152602001807f53656c6c6572206d757374206265206f70657261746f7200000000000000000081525060200191505060405180910390fd5b600061085a83612062565b90506108678585836120c9565b63150b7a0260e01b915050949350505050565b610882612226565b73ffffffffffffffffffffffffffffffffffffffff166000809054906101000a900473ffffffffffffffffffffffffffffffffffffffff1673ffffffffffffffffffffffffffffffffffffffff1614610943576040517f08c379a00000000000000000000000000000000000000000000000000000000081526004018080602001828103825260208152602001807f4f776e61626c653a2063616c6c6572206973206e6f7420746865206f776e657281525060200191505060405180910390fd5b606481106109b9576040517f08c379a00000000000000000000000000000000000000000000000000000000081526004018080602001828103825260208152602001807f5461782063616e206e6f742062652067726561746572207468616e203130302181525060200191505060405180910390fd5b8060068190555050565b600560009054906101000a900473ffffffffffffffffffffffffffffffffffffffff1681565b6000600b80549050905090565b6109fe612226565b73ffffffffffffffffffffffffffffffffffffffff166000809054906101000a900473ffffffffffffffffffffffffffffffffffffffff1673ffffffffffffffffffffffffffffffffffffffff1614610abf576040517f08c379a00000000000000000000000000000000000000000000000000000000081526004018080602001828103825260208152602001807f4f776e61626c653a2063616c6c6572206973206e6f7420746865206f776e657281525060200191505060405180910390fd5b610ade8173ffffffffffffffffffffffffffffffffffffffff1661222e565b610b50576040517f08c379a000000000000000000000000000000000000000000000000000000000815260040180806020018281038252601a8152602001807f49742773206e6f7420636f6e747261637420616464726573732100000000000081525060200191505060405180910390fd5b80600460006101000a81548173ffffffffffffffffffffffffffffffffffffffff021916908373ffffffffffffffffffffffffffffffffffffffff16021790555050565b610b9c612226565b73ffffffffffffffffffffffffffffffffffffffff166000809054906101000a900473ffffffffffffffffffffffffffffffffffffffff1673ffffffffffffffffffffffffffffffffffffffff1614610c5d576040517f08c379a00000000000000000000000000000000000000000000000000000000081526004018080602001828103825260208152602001807f4f776e61626c653a2063616c6c6572206973206e6f7420746865206f776e657281525060200191505060405180910390fd5b600073ffffffffffffffffffffffffffffffffffffffff166000809054906101000a900473ffffffffffffffffffffffffffffffffffffffff1673ffffffffffffffffffffffffffffffffffffffff167f8be0079c531659141344cd1fd0a4f28419497f9722a3daafe3b4186f6b6457e060405160405180910390a360008060006101000a81548173ffffffffffffffffffffffffffffffffffffffff021916908373ffffffffffffffffffffffffffffffffffffffff160217905550565b60085481565b60065481565b600460009054906101000a900473ffffffffffffffffffffffffffffffffffffffff1681565b60008060009054906101000a900473ffffffffffffffffffffffffffffffffffffffff16905090565b60075481565b610d8681611ff6565b610df8576040517f08c379a00000000000000000000000000000000000000000000000000000000081526004018080602001828103825260168152602001807f546f6b656e204944206973206e6f74206c69737465640000000000000000000081525060200191505060405180910390fd5b6000600a600083815260200190815260200160002060009054906101000a900473ffffffffffffffffffffffffffffffffffffffff169050600032905060006009600085815260200190815260200160002054905060006064600654830281610e5d57fe5b04905060006064600754840281610e7057fe5b0490506000606460075460065460640303850281610e8a57fe5b049050600160009054906101000a900473ffffffffffffffffffffffffffffffffffffffff1673ffffffffffffffffffffffffffffffffffffffff166323b872dd8688846040518463ffffffff1660e01b8152600401808473ffffffffffffffffffffffffffffffffffffffff1673ffffffffffffffffffffffffffffffffffffffff1681526020018373ffffffffffffffffffffffffffffffffffffffff1673ffffffffffffffffffffffffffffffffffffffff1681526020018281526020019350505050602060405180830381600087803b158015610f6a57600080fd5b505af1158015610f7e573d6000803e3d6000fd5b505050506040513d6020811015610f9457600080fd5b8101908080519060200190929190505050611017576040517f08c379a000000000000000000000000000000000000000000000000000000000815260040180806020018281038252601f8152602001807f4552433230207472616e73666572206e6f74207375636365737366756c6c790081525060200191505060405180910390fd5b600160009054906101000a900473ffffffffffffffffffffffffffffffffffffffff1673ffffffffffffffffffffffffffffffffffffffff166323b872dd86600460009054906101000a900473ffffffffffffffffffffffffffffffffffffffff16866040518463ffffffff1660e01b8152600401808473ffffffffffffffffffffffffffffffffffffffff1673ffffffffffffffffffffffffffffffffffffffff1681526020018373ffffffffffffffffffffffffffffffffffffffff1673ffffffffffffffffffffffffffffffffffffffff1681526020018281526020019350505050602060405180830381600087803b15801561111657600080fd5b505af115801561112a573d6000803e3d6000fd5b505050506040513d602081101561114057600080fd5b81019080805190602001909291905050506111c3576040517f08c379a000000000000000000000000000000000000000000000000000000000815260040180806020018281038252601f8152602001807f4552433230207472616e73666572206e6f74207375636365737366756c6c790081525060200191505060405180910390fd5b600160009054906101000a900473ffffffffffffffffffffffffffffffffffffffff1673ffffffffffffffffffffffffffffffffffffffff166323b872dd86600560009054906101000a900473ffffffffffffffffffffffffffffffffffffffff16856040518463ffffffff1660e01b8152600401808473ffffffffffffffffffffffffffffffffffffffff1673ffffffffffffffffffffffffffffffffffffffff1681526020018373ffffffffffffffffffffffffffffffffffffffff1673ffffffffffffffffffffffffffffffffffffffff1681526020018281526020019350505050602060405180830381600087803b1580156112c257600080fd5b505af11580156112d6573d6000803e3d6000fd5b505050506040513d60208110156112ec57600080fd5b810190808051906020019092919050505061136f576040517f08c379a000000000000000000000000000000000000000000000000000000000815260040180806020018281038252601f8152602001807f4552433230207472616e73666572206e6f74207375636365737366756c6c790081525060200191505060405180910390fd5b61137887612241565b600260009054906101000a900473ffffffffffffffffffffffffffffffffffffffff1673ffffffffffffffffffffffffffffffffffffffff166323b872dd30878a6040518463ffffffff1660e01b8152600401808473ffffffffffffffffffffffffffffffffffffffff1673ffffffffffffffffffffffffffffffffffffffff1681526020018373ffffffffffffffffffffffffffffffffffffffff1673ffffffffffffffffffffffffffffffffffffffff1681526020018281526020019350505050600060405180830381600087803b15801561145557600080fd5b505af1158015611469573d6000803e3d6000fd5b50505050611476876124b3565b868673ffffffffffffffffffffffffffffffffffffffff168673ffffffffffffffffffffffffffffffffffffffff167fa078c4190abe07940190effc1846be0ccf03ad6007bc9e93f9697d0b460befbb876040518082815260200191505060405180910390a450505050505050565b600b81815481106114f257fe5b906000526020600020016000915090505481565b60096020528060005260406000206000915090505481565b61152781611ff6565b611599576040517f08c379a00000000000000000000000000000000000000000000000000000000081526004018080602001828103825260168152602001807f546f6b656e204944206973206e6f74206c69737465640000000000000000000081525060200191505060405180910390fd5b6000600a600083815260200190815260200160002060009054906101000a900473ffffffffffffffffffffffffffffffffffffffff1690503373ffffffffffffffffffffffffffffffffffffffff168173ffffffffffffffffffffffffffffffffffffffff1614611672576040517f08c379a00000000000000000000000000000000000000000000000000000000081526004018080602001828103825260148152602001807f53656e646572206973206e6f742073656c6c657200000000000000000000000081525060200191505060405180910390fd5b600260009054906101000a900473ffffffffffffffffffffffffffffffffffffffff1673ffffffffffffffffffffffffffffffffffffffff166323b872dd3083856040518463ffffffff1660e01b8152600401808473ffffffffffffffffffffffffffffffffffffffff1673ffffffffffffffffffffffffffffffffffffffff1681526020018373ffffffffffffffffffffffffffffffffffffffff1673ffffffffffffffffffffffffffffffffffffffff1681526020018281526020019350505050600060405180830381600087803b15801561174f57600080fd5b505af1158015611763573d6000803e3d6000fd5b50505050611770826124b3565b5050565b61177c612226565b73ffffffffffffffffffffffffffffffffffffffff166000809054906101000a900473ffffffffffffffffffffffffffffffffffffffff1673ffffffffffffffffffffffffffffffffffffffff161461183d576040517f08c379a00000000000000000000000000000000000000000000000000000000081526004018080602001828103825260208152602001807f4f776e61626c653a2063616c6c6572206973206e6f7420746865206f776e657281525060200191505060405180910390fd5b61185c8173ffffffffffffffffffffffffffffffffffffffff1661222e565b6118ce576040517f08c379a000000000000000000000000000000000000000000000000000000000815260040180806020018281038252601a8152602001807f49742773206e6f7420636f6e747261637420616464726573732100000000000081525060200191505060405180910390fd5b80600160006101000a81548173ffffffffffffffffffffffffffffffffffffffff021916908373ffffffffffffffffffffffffffffffffffffffff16021790555050565b61191a612226565b73ffffffffffffffffffffffffffffffffffffffff166000809054906101000a900473ffffffffffffffffffffffffffffffffffffffff1673ffffffffffffffffffffffffffffffffffffffff16146119db576040517f08c379a00000000000000000000000000000000000000000000000000000000081526004018080602001828103825260208152602001807f4f776e61626c653a2063616c6c6572206973206e6f7420746865206f776e657281525060200191505060405180910390fd5b600073ffffffffffffffffffffffffffffffffffffffff168173ffffffffffffffffffffffffffffffffffffffff161415611a1557600080fd5b80600560006101000a81548173ffffffffffffffffffffffffffffffffffffffff021916908373ffffffffffffffffffffffffffffffffffffffff16021790555050565b611a61612226565b73ffffffffffffffffffffffffffffffffffffffff166000809054906101000a900473ffffffffffffffffffffffffffffffffffffffff1673ffffffffffffffffffffffffffffffffffffffff1614611b22576040517f08c379a00000000000000000000000000000000000000000000000000000000081526004018080602001828103825260208152602001807f4f776e61626c653a2063616c6c6572206973206e6f7420746865206f776e657281525060200191505060405180910390fd5b600081118015611b325750606481105b611b3b57600080fd5b8060088190555050565b600a6020528060005260406000206000915054906101000a900473ffffffffffffffffffffffffffffffffffffffff1681565b606080600b80549050604051908082528060200260200182016040528015611baf5781602001602082028038833980820191505090505b50905060008090505b600b80549050811015611c0257600b8181548110611bd257fe5b9060005260206000200154828281518110611be957fe5b6020026020010181815250508080600101915050611bb8565b508091505090565b611c12612226565b73ffffffffffffffffffffffffffffffffffffffff166000809054906101000a900473ffffffffffffffffffffffffffffffffffffffff1673ffffffffffffffffffffffffffffffffffffffff1614611cd3576040517f08c379a00000000000000000000000000000000000000000000000000000000081526004018080602001828103825260208152602001807f4f776e61626c653a2063616c6c6572206973206e6f7420746865206f776e657281525060200191505060405180910390fd5b611cf28173ffffffffffffffffffffffffffffffffffffffff1661222e565b611d64576040517f08c379a000000000000000000000000000000000000000000000000000000000815260040180806020018281038252601a8152602001807f49742773206e6f7420636f6e747261637420616464726573732100000000000081525060200191505060405180910390fd5b80600360006101000a81548173ffffffffffffffffffffffffffffffffffffffff021916908373ffffffffffffffffffffffffffffffffffffffff16021790555080600260006101000a81548173ffffffffffffffffffffffffffffffffffffffff021916908373ffffffffffffffffffffffffffffffffffffffff16021790555050565b611df1612226565b73ffffffffffffffffffffffffffffffffffffffff166000809054906101000a900473ffffffffffffffffffffffffffffffffffffffff1673ffffffffffffffffffffffffffffffffffffffff1614611eb2576040517f08c379a00000000000000000000000000000000000000000000000000000000081526004018080602001828103825260208152602001807f4f776e61626c653a2063616c6c6572206973206e6f7420746865206f776e657281525060200191505060405180910390fd5b600073ffffffffffffffffffffffffffffffffffffffff168173ffffffffffffffffffffffffffffffffffffffff161415611f38576040517f08c379a00000000000000000000000000000000000000000000000000000000081526004018080602001828103825260268152602001806127f16026913960400191505060405180910390fd5b8073ffffffffffffffffffffffffffffffffffffffff166000809054906101000a900473ffffffffffffffffffffffffffffffffffffffff1673ffffffffffffffffffffffffffffffffffffffff167f8be0079c531659141344cd1fd0a4f28419497f9722a3daafe3b4186f6b6457e060405160405180910390a3806000806101000a81548173ffffffffffffffffffffffffffffffffffffffff021916908373ffffffffffffffffffffffffffffffffffffffff16021790555050565b60008073ffffffffffffffffffffffffffffffffffffffff16600a600084815260200190815260200160002060009054906101000a900473ffffffffffffffffffffffffffffffffffffffff1673ffffffffffffffffffffffffffffffffffffffff1614159050919050565b600080600080600090505b60208110156120be5784612082601f836125ce565b8151811061208c57fe5b602001015160f81c60f81b60f81c91506120ad8260ff16826101000a612618565b83019250808060010191505061206d565b508192505050919050565b6000811161213f576040517f08c379a000000000000000000000000000000000000000000000000000000000815260040180806020018281038252601f8152602001807f5072696365206d7573742062652067726561746572207468616e207a65726f0081525060200191505060405180910390fd5b80600960008481526020019081526020016000208190555082600a600084815260200190815260200160002060006101000a81548173ffffffffffffffffffffffffffffffffffffffff021916908373ffffffffffffffffffffffffffffffffffffffff160217905550600b829080600181540180825580915050600190039060005260206000200160009091909190915055818373ffffffffffffffffffffffffffffffffffffffff167f6e16e8064e3c8254cef11e01e152416398602d7e8785f743f1c2f93a9a15ff35836040518082815260200191505060405180910390a3505050565b600033905090565b600080823b905060008111915050919050565b600060085460024233604051602001808381526020018273ffffffffffffffffffffffffffffffffffffffff1673ffffffffffffffffffffffffffffffffffffffff1660601b8152601401925050506040516020818303038152906040526040518082805190602001908083835b602083106122d257805182526020820191506020810190506020830392506122af565b6001836020036101000a038019825116818451168082178552505050505050905001915050602060405180830381855afa158015612314573d6000803e3d6000fd5b5050506040513d602081101561232957600080fd5b810190808051906020019092919050505060001c8161234457fe5b06905060018114156124af576000600360009054906101000a900473ffffffffffffffffffffffffffffffffffffffff1673ffffffffffffffffffffffffffffffffffffffff1663e1e0485e846040518263ffffffff1660e01b81526004018082815260200191505060206040518083038186803b1580156123c557600080fd5b505afa1580156123d9573d6000803e3d6000fd5b505050506040513d60208110156123ef57600080fd5b8101908080519060200190929190505050905060038160ff1610156124ad57600360009054906101000a900473ffffffffffffffffffffffffffffffffffffffff1673ffffffffffffffffffffffffffffffffffffffff1663306a694884600184016040518363ffffffff1660e01b8152600401808381526020018260ff1660ff16815260200192505050600060405180830381600087803b15801561249457600080fd5b505af11580156124a8573d6000803e3d6000fd5b505050505b505b5050565b6000600a600083815260200190815260200160002060009054906101000a900473ffffffffffffffffffffffffffffffffffffffff1690506009600083815260200190815260200160002060009055600a600083815260200190815260200160002060006101000a81549073ffffffffffffffffffffffffffffffffffffffff021916905560008090505b600b805490508110156125855782600b828154811061255957fe5b90600052602060002001541415612578576125738161269e565b612585565b808060010191505061253e565b50818173ffffffffffffffffffffffffffffffffffffffff167fd1b3de83f2e838a8b6eb09447f2316d7bfd1a64d0059abe8f1160f490616fd8360405160405180910390a35050565b600061261083836040518060400160405280601e81526020017f536166654d6174683a207375627472616374696f6e206f766572666c6f770000815250612730565b905092915050565b60008083141561262b5760009050612698565b600082840290508284828161263c57fe5b0414612693576040517f08c379a00000000000000000000000000000000000000000000000000000000081526004018080602001828103825260218152602001806128176021913960400191505060405180910390fd5b809150505b92915050565b600b8054905081106126af5761272d565b60008190505b6001600b805490500381101561270857600b60018201815481106126d557fe5b9060005260206000200154600b82815481106126ed57fe5b906000526020600020018190555080806001019150506126b5565b50600b6001600b80549050038154811061271e57fe5b90600052602060002001600090555b50565b60008383111582906127dd576040517f08c379a00000000000000000000000000000000000000000000000000000000081526004018080602001828103825283818151815260200191508051906020019080838360005b838110156127a2578082015181840152602081019050612787565b50505050905090810190601f1680156127cf5780820380516001836020036101000a031916815260200191505b509250505060405180910390fd5b506000838503905080915050939250505056fe4f776e61626c653a206e6577206f776e657220697320746865207a65726f2061646472657373536166654d6174683a206d756c7469706c69636174696f6e206f766572666c6f77a264697066735822122093f63a9d7c56af00d63613d84108ad9d5021b491e2a8f1f1ba6e302d1262417164736f6c63430006020033",
  "source": "pragma solidity ^0.6.0;\n\nimport \"@openzeppelin/contracts/math/SafeMath.sol\";\nimport \"@openzeppelin/contracts/token/ERC20/IERC20.sol\";\nimport \"@openzeppelin/contracts/token/ERC20/SafeERC20.sol\";\nimport \"@openzeppelin/contracts/token/ERC721/IERC721.sol\";\nimport \"@openzeppelin/contracts/token/ERC721/IERC721Receiver.sol\";\nimport \"@openzeppelin/contracts/access/Ownable.sol\";\nimport \"@openzeppelin/contracts/utils/Address.sol\";\nimport \"../common/hotpotinterface.sol\";\n\n/**\n * @title NFTMarket contract that allows atomic swaps of ERC20 and ERC721\n */\ncontract NFTMarket is IERC721Receiver, Ownable {\n    using Address for address;\n\n    event Swapped(\n        address indexed _buyer,\n        address indexed _seller,\n        uint256 indexed _tokenId,\n        uint256 _price\n    );\n    event Listed(\n        address indexed _seller,\n        uint256 indexed _tokenId,\n        uint256 _price\n    );\n    event Unlisted(address indexed _seller, uint256 indexed _tokenId);\n\n    IERC20 erc20;\n    IERC721 erc721;\n    IHotPot hotpot;\n\n    address public rewardAddress;\n    address public devAddress;\n\n    uint256 public taxRatio = 2;\n    uint256 public taxDev = 1;\n\n    uint256 public updatePosibility = 16;\n\n    mapping(uint256 => uint256) public priceOf;\n    mapping(uint256 => address) public sellerOf;\n\n    uint256[] public listTokens;\n\n    bytes4 internal constant MAGIC_ON_ERC721_RECEIVED = 0x150b7a02;\n\n    constructor(\n        address _reward,\n        address _nft,\n        address _hotpot,\n        address _dev\n    ) public {\n        require(_dev != address(0));\n        require(_reward != address(0));\n        require(_nft != address(0));\n        require(_hotpot != address(0));\n        require(_nft.isContract(), \"It's not contract address!\");\n        require(_reward.isContract(), \"It's not contract address!\");\n        require(_hotpot.isContract(), \"It's not contract address!\");\n        rewardAddress = _reward;\n        devAddress = _dev;\n        erc20 = IERC20(_hotpot);\n        hotpot = IHotPot(_nft);\n        erc721 = IERC721(_nft);\n    }\n\n    function setRewardAddress(address _addr) external onlyOwner {\n        require(_addr.isContract(), \"It's not contract address!\");\n        rewardAddress = _addr;\n    }\n\n    function setDevAddress(address _addr) external onlyOwner {\n        require(_addr != address(0));\n        devAddress = _addr;\n    }\n\n    function setHotPotTicket(address _addr) external onlyOwner {\n        require(_addr.isContract(), \"It's not contract address!\");\n        hotpot = IHotPot(_addr);\n        erc721 = IERC721(_addr);\n    }\n\n    function setERC20(address _addr) external onlyOwner {\n        require(_addr.isContract(), \"It's not contract address!\");\n        erc20 = IERC20(_addr);\n    }\n\n    function setTax(uint256 _ratio) external onlyOwner {\n        require(_ratio < 100, \"Tax can not be greater than 100!\");\n        taxRatio = _ratio;\n    }\n\n    function getListSize() external view returns (uint256) {\n        return listTokens.length;\n    }\n\n    function getListToken() external view returns (uint256[] memory) {\n        uint256[] memory data = new uint256[](listTokens.length);\n        for (uint256 i = 0; i < listTokens.length; i++) {\n            data[i] = listTokens[i];\n        }\n        return data;\n    }\n\n    /**\n      * @dev Initiate an escrow swap\n      @ @param _tokenId the good to swap\n      */\n    function swap(uint256 _tokenId) external {\n        require(isListed(_tokenId), \"Token ID is not listed\");\n\n        address seller = sellerOf[_tokenId];\n        // solium-disable-next-line security/no-tx-origin\n        address buyer = tx.origin;\n        uint256 _price = priceOf[_tokenId];\n\n        //send _price * taxRatio to seller\n        //send _price *(1-taxRatio) to reward pool\n        uint256 reward = (_price * taxRatio) / 100;\n        uint256 giveDec = (_price * taxDev) / 100;\n        uint256 giveSeller = (_price * (100 - taxRatio - taxDev)) / 100;\n\n        require(\n            erc20.transferFrom(buyer, seller, giveSeller),\n            \"ERC20 transfer not successfully\"\n        );\n\n        require(\n            erc20.transferFrom(buyer, rewardAddress, reward),\n            \"ERC20 transfer not successfully\"\n        );\n\n        require(\n            erc20.transferFrom(buyer, devAddress, giveDec),\n            \"ERC20 transfer not successfully\"\n        );\n\n        _update(_tokenId);\n\n        erc721.transferFrom(address(this), buyer, _tokenId);\n\n        removeListing(_tokenId);\n\n        emit Swapped(buyer, seller, _tokenId, _price);\n    }\n\n    function setUpdatePosibility(uint256 _posibility) external onlyOwner {\n        require(_posibility > 0 && _posibility < 100);\n        updatePosibility = _posibility;\n    }\n\n    function _update(uint256 _tokenId) internal {\n        //generate random number\n        //it is not that safe\n        uint256 random = uint256(sha256(abi.encodePacked(now, msg.sender))) %\n            updatePosibility;\n\n        if (random == 1) {\n            uint8 grade = hotpot.getGrade(_tokenId);\n            if (grade < 3) {\n                hotpot.update(_tokenId, grade + 1);\n            }\n        }\n    }\n\n    /**\n     * @dev Unlist an item\n     * @dev Can only be called by the item seller\n     * @param _tokenId the item to unlist\n     */\n    function unlist(uint256 _tokenId) external {\n        require(isListed(_tokenId), \"Token ID is not listed\");\n        address seller = sellerOf[_tokenId];\n        require(seller == msg.sender, \"Sender is not seller\");\n\n        erc721.transferFrom(address(this), seller, _tokenId);\n\n        removeListing(_tokenId);\n    }\n\n    /**\n     * @dev List a good using a IERC721 receiver hook\n     * @param _operator the caller of this function\n     * @param _seller the good seller\n     * @param _tokenId the good id to list\n     * @param _data contains the pricing data as the first 32 bytes\n     */\n    function onERC721Received(\n        address _operator,\n        address _seller,\n        uint256 _tokenId,\n        bytes memory _data\n    ) public override returns (bytes4) {\n        require(_operator == _seller, \"Seller must be operator\");\n        uint256 _price = toUint256(_data);\n\n        addListing(_seller, _tokenId, _price);\n\n        return MAGIC_ON_ERC721_RECEIVED;\n    }\n\n    /**\n     * @dev Determine whether an item is listed\n     * @param _tokenId The id of the good to check\n     * @return Return true if item is listed\n     */\n    function isListed(uint256 _tokenId) public view returns (bool) {\n        return sellerOf[_tokenId] != address(0);\n    }\n\n    /**\n     * @dev Convert a 32 byte array to uint256\n     * @param input 32 byte array\n     */\n    function toUint256(bytes memory input) internal pure returns (uint256) {\n        uint256 converted;\n        uint8 digit;\n        for (uint256 index = 0; index < 32; index++) {\n            digit = uint8(input[SafeMath.sub(31, index)]);\n            converted += SafeMath.mul(digit, 256**index);\n        }\n        return converted;\n    }\n\n    /**\n     * @dev Convenience function to add token to listing\n     * @param _seller the seller that is listing\n     * @param _tokenId the token to add\n     * @param _price the price\n     */\n    function addListing(\n        address _seller,\n        uint256 _tokenId,\n        uint256 _price\n    ) internal {\n        require(_price > 0, \"Price must be greater than zero\");\n\n        priceOf[_tokenId] = _price;\n        sellerOf[_tokenId] = _seller;\n        listTokens.push(_tokenId);\n        emit Listed(_seller, _tokenId, _price);\n    }\n\n    function _remove(uint256 index) internal {\n        if (index >= listTokens.length) return;\n\n        for (uint256 i = index; i < listTokens.length - 1; i++) {\n            listTokens[i] = listTokens[i + 1];\n        }\n        delete listTokens[listTokens.length - 1];\n        // listTokens.length--;\n    }\n\n    /**\n     * @dev Convenience function to remove tokens from listing\n     * @param _tokenId the token to remove\n     */\n    function removeListing(uint256 _tokenId) internal {\n        address seller = sellerOf[_tokenId];\n\n        delete priceOf[_tokenId];\n        delete sellerOf[_tokenId];\n\n        for (uint256 i = 0; i < listTokens.length; i++) {\n            if (listTokens[i] == _tokenId) {\n                _remove(i);\n                break;\n            }\n        }\n\n        emit Unlisted(seller, _tokenId);\n    }\n}\n",
  "sourcePath": "/Users/junhu/git/hotpotcontract/truffle/contracts/exchange/NFTMarket.sol",
  "compiler": {
    "name": "solc",
    "version": "0.6.2+commit.bacdbe57.Emscripten.clang"
  },
  "schemaVersion": "3.3.0",
  "updatedAt": "2020-10-15T06:16:29.533Z",
  "networkType": "ethereum",
  "devdoc": {
    "methods": {
      "isListed(uint256)": {
        "details": "Determine whether an item is listed",
        "params": {
          "_tokenId": "The id of the good to check"
        },
        "returns": {
          "_0": "Return true if item is listed"
        }
      },
      "onERC721Received(address,address,uint256,bytes)": {
        "details": "List a good using a IERC721 receiver hook",
        "params": {
          "_data": "contains the pricing data as the first 32 bytes",
          "_operator": "the caller of this function",
          "_seller": "the good seller",
          "_tokenId": "the good id to list"
        }
      },
      "owner()": {
        "details": "Returns the address of the current owner."
      },
      "renounceOwnership()": {
        "details": "Leaves the contract without owner. It will not be possible to call `onlyOwner` functions anymore. Can only be called by the current owner.     * NOTE: Renouncing ownership will leave the contract without an owner, thereby removing any functionality that is only available to the owner."
      },
      "swap(uint256)": {
        "details": "Initiate an escrow swap @param _tokenId the good to swap"
      },
      "transferOwnership(address)": {
        "details": "Transfers ownership of the contract to a new account (`newOwner`). Can only be called by the current owner."
      },
      "unlist(uint256)": {
        "details": "Unlist an itemCan only be called by the item seller",
        "params": {
          "_tokenId": "the item to unlist"
        }
      }
    },
    "title": "NFTMarket contract that allows atomic swaps of ERC20 and ERC721"
  },
  "userdoc": {
    "methods": {}
  }
}