{
  "contractName": "NFTMarket",
  "abi": [
    {
      "inputs": [
        {
          "internalType": "address",
          "name": "_reward",
          "type": "address"
        },
        {
          "internalType": "address",
          "name": "_nft",
          "type": "address"
        },
        {
          "internalType": "address",
          "name": "_hotpot",
          "type": "address"
        },
        {
          "internalType": "address",
          "name": "_dev",
          "type": "address"
        }
      ],
      "stateMutability": "nonpayable",
      "type": "constructor"
    },
    {
      "anonymous": false,
      "inputs": [
        {
          "indexed": true,
          "internalType": "address",
          "name": "_seller",
          "type": "address"
        },
        {
          "indexed": true,
          "internalType": "uint256",
          "name": "_tokenId",
          "type": "uint256"
        },
        {
          "indexed": false,
          "internalType": "uint256",
          "name": "_price",
          "type": "uint256"
        }
      ],
      "name": "Listed",
      "type": "event"
    },
    {
      "anonymous": false,
      "inputs": [
        {
          "indexed": true,
          "internalType": "address",
          "name": "previousOwner",
          "type": "address"
        },
        {
          "indexed": true,
          "internalType": "address",
          "name": "newOwner",
          "type": "address"
        }
      ],
      "name": "OwnershipTransferred",
      "type": "event"
    },
    {
      "anonymous": false,
      "inputs": [
        {
          "indexed": true,
          "internalType": "address",
          "name": "_buyer",
          "type": "address"
        },
        {
          "indexed": true,
          "internalType": "address",
          "name": "_seller",
          "type": "address"
        },
        {
          "indexed": true,
          "internalType": "uint256",
          "name": "_tokenId",
          "type": "uint256"
        },
        {
          "indexed": false,
          "internalType": "uint256",
          "name": "_price",
          "type": "uint256"
        }
      ],
      "name": "Swapped",
      "type": "event"
    },
    {
      "anonymous": false,
      "inputs": [
        {
          "indexed": true,
          "internalType": "address",
          "name": "_seller",
          "type": "address"
        },
        {
          "indexed": true,
          "internalType": "uint256",
          "name": "_tokenId",
          "type": "uint256"
        }
      ],
      "name": "Unlisted",
      "type": "event"
    },
    {
      "inputs": [],
      "name": "devAddress",
      "outputs": [
        {
          "internalType": "address",
          "name": "",
          "type": "address"
        }
      ],
      "stateMutability": "view",
      "type": "function",
      "constant": true
    },
    {
      "inputs": [
        {
          "internalType": "uint256",
          "name": "",
          "type": "uint256"
        }
      ],
      "name": "listTokens",
      "outputs": [
        {
          "internalType": "uint256",
          "name": "",
          "type": "uint256"
        }
      ],
      "stateMutability": "view",
      "type": "function",
      "constant": true
    },
    {
      "inputs": [],
      "name": "owner",
      "outputs": [
        {
          "internalType": "address",
          "name": "",
          "type": "address"
        }
      ],
      "stateMutability": "view",
      "type": "function",
      "constant": true
    },
    {
      "inputs": [
        {
          "internalType": "uint256",
          "name": "",
          "type": "uint256"
        }
      ],
      "name": "priceOf",
      "outputs": [
        {
          "internalType": "uint256",
          "name": "",
          "type": "uint256"
        }
      ],
      "stateMutability": "view",
      "type": "function",
      "constant": true
    },
    {
      "inputs": [],
      "name": "renounceOwnership",
      "outputs": [],
      "stateMutability": "nonpayable",
      "type": "function"
    },
    {
      "inputs": [],
      "name": "rewardAddress",
      "outputs": [
        {
          "internalType": "address",
          "name": "",
          "type": "address"
        }
      ],
      "stateMutability": "view",
      "type": "function",
      "constant": true
    },
    {
      "inputs": [
        {
          "internalType": "uint256",
          "name": "",
          "type": "uint256"
        }
      ],
      "name": "sellerOf",
      "outputs": [
        {
          "internalType": "address",
          "name": "",
          "type": "address"
        }
      ],
      "stateMutability": "view",
      "type": "function",
      "constant": true
    },
    {
      "inputs": [],
      "name": "taxDev",
      "outputs": [
        {
          "internalType": "uint256",
          "name": "",
          "type": "uint256"
        }
      ],
      "stateMutability": "view",
      "type": "function",
      "constant": true
    },
    {
      "inputs": [],
      "name": "taxRatio",
      "outputs": [
        {
          "internalType": "uint256",
          "name": "",
          "type": "uint256"
        }
      ],
      "stateMutability": "view",
      "type": "function",
      "constant": true
    },
    {
      "inputs": [
        {
          "internalType": "address",
          "name": "newOwner",
          "type": "address"
        }
      ],
      "name": "transferOwnership",
      "outputs": [],
      "stateMutability": "nonpayable",
      "type": "function"
    },
    {
      "inputs": [],
      "name": "updatePosibility",
      "outputs": [
        {
          "internalType": "uint256",
          "name": "",
          "type": "uint256"
        }
      ],
      "stateMutability": "view",
      "type": "function",
      "constant": true
    },
    {
      "inputs": [
        {
          "internalType": "address",
          "name": "_addr",
          "type": "address"
        }
      ],
      "name": "setRewardAddress",
      "outputs": [],
      "stateMutability": "nonpayable",
      "type": "function"
    },
    {
      "inputs": [
        {
          "internalType": "address",
          "name": "_addr",
          "type": "address"
        }
      ],
      "name": "setDevAddress",
      "outputs": [],
      "stateMutability": "nonpayable",
      "type": "function"
    },
    {
      "inputs": [
        {
          "internalType": "address",
          "name": "_addr",
          "type": "address"
        }
      ],
      "name": "setHotPotTicket",
      "outputs": [],
      "stateMutability": "nonpayable",
      "type": "function"
    },
    {
      "inputs": [
        {
          "internalType": "address",
          "name": "_addr",
          "type": "address"
        }
      ],
      "name": "setERC20",
      "outputs": [],
      "stateMutability": "nonpayable",
      "type": "function"
    },
    {
      "inputs": [
        {
          "internalType": "uint256",
          "name": "_ratio",
          "type": "uint256"
        }
      ],
      "name": "setTax",
      "outputs": [],
      "stateMutability": "nonpayable",
      "type": "function"
    },
    {
      "inputs": [],
      "name": "getListSize",
      "outputs": [
        {
          "internalType": "uint256",
          "name": "",
          "type": "uint256"
        }
      ],
      "stateMutability": "view",
      "type": "function",
      "constant": true
    },
    {
      "inputs": [],
      "name": "getListToken",
      "outputs": [
        {
          "internalType": "uint256[]",
          "name": "",
          "type": "uint256[]"
        }
      ],
      "stateMutability": "view",
      "type": "function",
      "constant": true
    },
    {
      "inputs": [
        {
          "internalType": "uint256",
          "name": "_tokenId",
          "type": "uint256"
        }
      ],
      "name": "swap",
      "outputs": [],
      "stateMutability": "nonpayable",
      "type": "function"
    },
    {
      "inputs": [
        {
          "internalType": "uint256",
          "name": "_posibility",
          "type": "uint256"
        }
      ],
      "name": "setUpdatePosibility",
      "outputs": [],
      "stateMutability": "nonpayable",
      "type": "function"
    },
    {
      "inputs": [
        {
          "internalType": "uint256",
          "name": "_tokenId",
          "type": "uint256"
        }
      ],
      "name": "unlist",
      "outputs": [],
      "stateMutability": "nonpayable",
      "type": "function"
    },
    {
      "inputs": [
        {
          "internalType": "address",
          "name": "_operator",
          "type": "address"
        },
        {
          "internalType": "address",
          "name": "_seller",
          "type": "address"
        },
        {
          "internalType": "uint256",
          "name": "_tokenId",
          "type": "uint256"
        },
        {
          "internalType": "bytes",
          "name": "_data",
          "type": "bytes"
        }
      ],
      "name": "onERC721Received",
      "outputs": [
        {
          "internalType": "bytes4",
          "name": "",
          "type": "bytes4"
        }
      ],
      "stateMutability": "nonpayable",
      "type": "function"
    },
    {
      "inputs": [
        {
          "internalType": "uint256",
          "name": "_tokenId",
          "type": "uint256"
        }
      ],
      "name": "isListed",
      "outputs": [
        {
          "internalType": "bool",
          "name": "",
          "type": "bool"
        }
      ],
      "stateMutability": "view",
      "type": "function",
      "constant": true
    }
  ],
  "bytecode": "0x60806040526002600655600160075560106008553480156200002057600080fd5b5060405162001d7738038062001d77833981810160405260808110156200004657600080fd5b50805160208201516040830151606090930151919290916000620000726001600160e01b036200028b16565b600080546001600160a01b0319166001600160a01b0383169081178255604051929350917f8be0079c531659141344cd1fd0a4f28419497f9722a3daafe3b4186f6b6457e0908290a3506001600160a01b038116620000d057600080fd5b6001600160a01b038416620000e457600080fd5b6001600160a01b038316620000f857600080fd5b6001600160a01b0382166200010c57600080fd5b6200012b836001600160a01b03166200028f60201b620015281760201c565b6200016c576040805162461bcd60e51b815260206004820152601a602482015260008051602062001d57833981519152604482015290519081900360640190fd5b6200018b846001600160a01b03166200028f60201b620015281760201c565b620001cc576040805162461bcd60e51b815260206004820152601a602482015260008051602062001d57833981519152604482015290519081900360640190fd5b620001eb826001600160a01b03166200028f60201b620015281760201c565b6200022c576040805162461bcd60e51b815260206004820152601a602482015260008051602062001d57833981519152604482015290519081900360640190fd5b600480546001600160a01b03199081166001600160a01b03968716179091556005805482169286169290921790915560018054821692851692909217909155600380548216929093169182179092556002805490921617905562000295565b3390565b3b151590565b611ab280620002a56000396000f3fe608060405234801561001057600080fd5b506004361061018d5760003560e01c806394b918de116100e3578063d1d683cb1161008c578063e6db6a3011610066578063e6db6a3014610492578063f2fde38b146104b8578063fcce4883146104de5761018d565b8063d1d683cb14610400578063e05c5a831461041d578063e18eaaa71461043a5761018d565b8063bf5a4dd3116100bd578063bf5a4dd314610397578063c29a6fda146103b4578063d0d41fe1146103da5761018d565b806394b918de146103405780639538be001461035d578063b9186d7d1461037a5761018d565b8063715018a6116101455780638cf57cb91161011f5780638cf57cb9146103285780638da5cb5b14610330578063929c0ca8146103385761018d565b8063715018a6146103105780637771b02f1461031857806377915639146103205761018d565b80633ad10ef6116101765780633ad10ef6146102ac5780634a89a6c8146102d05780635e00e679146102ea5761018d565b8063150b7a02146101925780632e5bb6ff1461028d575b600080fd5b610258600480360360808110156101a857600080fd5b6001600160a01b038235811692602081013590911691604082013591908101906080810160608201356401000000008111156101e357600080fd5b8201836020820111156101f557600080fd5b8035906020019184600183028401116401000000008311171561021757600080fd5b91908080601f01602080910402602001604051908101604052809392919081815260200183838082843760009201919091525092955061050f945050505050565b604080517fffffffff000000000000000000000000000000000000000000000000000000009092168252519081900360200190f35b6102aa600480360360208110156102a357600080fd5b50356105ba565b005b6102b461067e565b604080516001600160a01b039092168252519081900360200190f35b6102d861068d565b60408051918252519081900360200190f35b6102aa6004803603602081101561030057600080fd5b50356001600160a01b0316610693565b6102aa61079a565b6102d8610866565b6102d861086c565b6102b4610872565b6102b4610881565b6102d8610890565b6102aa6004803603602081101561035657600080fd5b5035610896565b6102d86004803603602081101561037357600080fd5b5035610d04565b6102d86004803603602081101561039057600080fd5b5035610d22565b6102aa600480360360208110156103ad57600080fd5b5035610d34565b6102aa600480360360208110156103ca57600080fd5b50356001600160a01b0316610e93565b6102aa600480360360208110156103f057600080fd5b50356001600160a01b0316610f9a565b6102aa6004803603602081101561041657600080fd5b5035611051565b6102b46004803603602081101561043357600080fd5b50356110d9565b6104426110f4565b60408051602080825283518183015283519192839290830191858101910280838360005b8381101561047e578181015183820152602001610466565b505050509050019250505060405180910390f35b6102aa600480360360208110156104a857600080fd5b50356001600160a01b0316611173565b6102aa600480360360208110156104ce57600080fd5b50356001600160a01b0316611284565b6104fb600480360360208110156104f457600080fd5b50356113a6565b604080519115158252519081900360200190f35b6000836001600160a01b0316856001600160a01b031614610577576040805162461bcd60e51b815260206004820152601760248201527f53656c6c6572206d757374206265206f70657261746f72000000000000000000604482015290519081900360640190fd5b6000610582836113c3565b905061058f858583611416565b507f150b7a020000000000000000000000000000000000000000000000000000000095945050505050565b6105c2611524565b6000546001600160a01b03908116911614610624576040805162461bcd60e51b815260206004820181905260248201527f4f776e61626c653a2063616c6c6572206973206e6f7420746865206f776e6572604482015290519081900360640190fd5b60648110610679576040805162461bcd60e51b815260206004820181905260248201527f5461782063616e206e6f742062652067726561746572207468616e2031303021604482015290519081900360640190fd5b600655565b6005546001600160a01b031681565b600b5490565b61069b611524565b6000546001600160a01b039081169116146106fd576040805162461bcd60e51b815260206004820181905260248201527f4f776e61626c653a2063616c6c6572206973206e6f7420746865206f776e6572604482015290519081900360640190fd5b61070f816001600160a01b0316611528565b610760576040805162461bcd60e51b815260206004820152601a60248201527f49742773206e6f7420636f6e7472616374206164647265737321000000000000604482015290519081900360640190fd5b600480547fffffffffffffffffffffffff0000000000000000000000000000000000000000166001600160a01b0392909216919091179055565b6107a2611524565b6000546001600160a01b03908116911614610804576040805162461bcd60e51b815260206004820181905260248201527f4f776e61626c653a2063616c6c6572206973206e6f7420746865206f776e6572604482015290519081900360640190fd5b600080546040516001600160a01b03909116907f8be0079c531659141344cd1fd0a4f28419497f9722a3daafe3b4186f6b6457e0908390a3600080547fffffffffffffffffffffffff0000000000000000000000000000000000000000169055565b60085481565b60065481565b6004546001600160a01b031681565b6000546001600160a01b031690565b60075481565b61089f816113a6565b6108f0576040805162461bcd60e51b815260206004820152601660248201527f546f6b656e204944206973206e6f74206c697374656400000000000000000000604482015290519081900360640190fd5b6000818152600a6020908152604080832054600983528184205460065460075460015485517f23b872dd00000000000000000000000000000000000000000000000000000000815232600482018190526001600160a01b039687166024830181905260648681038690038802819004604485018190529951919b929a9799968a0281900498958a028190049795909416946323b872dd94808501949193918390030190829087803b1580156109a457600080fd5b505af11580156109b8573d6000803e3d6000fd5b505050506040513d60208110156109ce57600080fd5b5051610a21576040805162461bcd60e51b815260206004820152601f60248201527f4552433230207472616e73666572206e6f74207375636365737366756c6c7900604482015290519081900360640190fd5b60015460048054604080517f23b872dd0000000000000000000000000000000000000000000000000000000081526001600160a01b038a8116948201949094529183166024830152604482018790525191909216916323b872dd9160648083019260209291908290030181600087803b158015610a9d57600080fd5b505af1158015610ab1573d6000803e3d6000fd5b505050506040513d6020811015610ac757600080fd5b5051610b1a576040805162461bcd60e51b815260206004820152601f60248201527f4552433230207472616e73666572206e6f74207375636365737366756c6c7900604482015290519081900360640190fd5b600154600554604080517f23b872dd0000000000000000000000000000000000000000000000000000000081526001600160a01b038981166004830152928316602482015260448101869052905191909216916323b872dd9160648083019260209291908290030181600087803b158015610b9457600080fd5b505af1158015610ba8573d6000803e3d6000fd5b505050506040513d6020811015610bbe57600080fd5b5051610c11576040805162461bcd60e51b815260206004820152601f60248201527f4552433230207472616e73666572206e6f74207375636365737366756c6c7900604482015290519081900360640190fd5b610c1a8761152e565b600254604080517f23b872dd0000000000000000000000000000000000000000000000000000000081523060048201526001600160a01b038881166024830152604482018b9052915191909216916323b872dd91606480830192600092919082900301818387803b158015610c8e57600080fd5b505af1158015610ca2573d6000803e3d6000fd5b50505050610caf87611775565b86866001600160a01b0316866001600160a01b03167fa078c4190abe07940190effc1846be0ccf03ad6007bc9e93f9697d0b460befbb876040518082815260200191505060405180910390a450505050505050565b600b8181548110610d1157fe5b600091825260209091200154905081565b60096020526000908152604090205481565b610d3d816113a6565b610d8e576040805162461bcd60e51b815260206004820152601660248201527f546f6b656e204944206973206e6f74206c697374656400000000000000000000604482015290519081900360640190fd5b6000818152600a60205260409020546001600160a01b0316338114610dfa576040805162461bcd60e51b815260206004820152601460248201527f53656e646572206973206e6f742073656c6c6572000000000000000000000000604482015290519081900360640190fd5b600254604080517f23b872dd0000000000000000000000000000000000000000000000000000000081523060048201526001600160a01b03848116602483015260448201869052915191909216916323b872dd91606480830192600092919082900301818387803b158015610e6e57600080fd5b505af1158015610e82573d6000803e3d6000fd5b50505050610e8f82611775565b5050565b610e9b611524565b6000546001600160a01b03908116911614610efd576040805162461bcd60e51b815260206004820181905260248201527f4f776e61626c653a2063616c6c6572206973206e6f7420746865206f776e6572604482015290519081900360640190fd5b610f0f816001600160a01b0316611528565b610f60576040805162461bcd60e51b815260206004820152601a60248201527f49742773206e6f7420636f6e7472616374206164647265737321000000000000604482015290519081900360640190fd5b600180547fffffffffffffffffffffffff0000000000000000000000000000000000000000166001600160a01b0392909216919091179055565b610fa2611524565b6000546001600160a01b03908116911614611004576040805162461bcd60e51b815260206004820181905260248201527f4f776e61626c653a2063616c6c6572206973206e6f7420746865206f776e6572604482015290519081900360640190fd5b6001600160a01b03811661101757600080fd5b600580547fffffffffffffffffffffffff0000000000000000000000000000000000000000166001600160a01b0392909216919091179055565b611059611524565b6000546001600160a01b039081169116146110bb576040805162461bcd60e51b815260206004820181905260248201527f4f776e61626c653a2063616c6c6572206973206e6f7420746865206f776e6572604482015290519081900360640190fd5b6000811180156110cb5750606481105b6110d457600080fd5b600855565b600a602052600090815260409020546001600160a01b031681565b606080600b80549050604051908082528060200260200182016040528015611126578160200160208202803883390190505b50905060005b600b5481101561116d57600b818154811061114357fe5b906000526020600020015482828151811061115a57fe5b602090810291909101015260010161112c565b50905090565b61117b611524565b6000546001600160a01b039081169116146111dd576040805162461bcd60e51b815260206004820181905260248201527f4f776e61626c653a2063616c6c6572206973206e6f7420746865206f776e6572604482015290519081900360640190fd5b6111ef816001600160a01b0316611528565b611240576040805162461bcd60e51b815260206004820152601a60248201527f49742773206e6f7420636f6e7472616374206164647265737321000000000000604482015290519081900360640190fd5b600380546001600160a01b039092167fffffffffffffffffffffffff0000000000000000000000000000000000000000928316811790915560028054909216179055565b61128c611524565b6000546001600160a01b039081169116146112ee576040805162461bcd60e51b815260206004820181905260248201527f4f776e61626c653a2063616c6c6572206973206e6f7420746865206f776e6572604482015290519081900360640190fd5b6001600160a01b0381166113335760405162461bcd60e51b8152600401808060200182810382526026815260200180611a366026913960400191505060405180910390fd5b600080546040516001600160a01b03808516939216917f8be0079c531659141344cd1fd0a4f28419497f9722a3daafe3b4186f6b6457e091a3600080547fffffffffffffffffffffffff0000000000000000000000000000000000000000166001600160a01b0392909216919091179055565b6000908152600a60205260409020546001600160a01b0316151590565b60008080805b602081101561140d57846113de601f83611842565b815181106113e857fe5b016020015160f81c91506114018261010083900a61188d565b909201916001016113c9565b50909392505050565b6000811161146b576040805162461bcd60e51b815260206004820152601f60248201527f5072696365206d7573742062652067726561746572207468616e207a65726f00604482015290519081900360640190fd5b6000828152600960209081526040808320849055600a825280832080547fffffffffffffffffffffffff0000000000000000000000000000000000000000166001600160a01b038816908117909155600b805460018101825594527f0175b7a638427703f0dbe7bb9bbf987a2551717b34e79f33b5b1008d1fa01db9909301859055805184815290518593927f6e16e8064e3c8254cef11e01e152416398602d7e8785f743f1c2f93a9a15ff35928290030190a3505050565b3390565b3b151590565b60006008546002423360405160200180838152602001826001600160a01b03166001600160a01b031660601b8152601401925050506040516020818303038152906040526040518082805190602001908083835b602083106115bf57805182527fffffffffffffffffffffffffffffffffffffffffffffffffffffffffffffffe09092019160209182019101611582565b51815160209384036101000a7fffffffffffffffffffffffffffffffffffffffffffffffffffffffffffffffff01801990921691161790526040519190930194509192505080830381855afa15801561161c573d6000803e3d6000fd5b5050506040513d602081101561163157600080fd5b50518161163a57fe5b0690508060011415610e8f57600354604080517fe1e0485e0000000000000000000000000000000000000000000000000000000081526004810185905290516000926001600160a01b03169163e1e0485e916024808301926020929190829003018186803b1580156116ab57600080fd5b505afa1580156116bf573d6000803e3d6000fd5b505050506040513d60208110156116d557600080fd5b50519050600360ff8216101561177057600354604080517f306a69480000000000000000000000000000000000000000000000000000000081526004810186905260ff6001850116602482015290516001600160a01b039092169163306a69489160448082019260009290919082900301818387803b15801561175757600080fd5b505af115801561176b573d6000803e3d6000fd5b505050505b505050565b6000818152600a602081815260408084208054600984529185208590559290915281547fffffffffffffffffffffffff0000000000000000000000000000000000000000169091556001600160a01b0316905b600b548110156118075782600b82815481106117e057fe5b906000526020600020015414156117ff576117fa816118e6565b611807565b6001016117c8565b5060405182906001600160a01b038316907fd1b3de83f2e838a8b6eb09447f2316d7bfd1a64d0059abe8f1160f490616fd8390600090a35050565b600061188483836040518060400160405280601e81526020017f536166654d6174683a207375627472616374696f6e206f766572666c6f77000081525061199e565b90505b92915050565b60008261189c57506000611887565b828202828482816118a957fe5b04146118845760405162461bcd60e51b8152600401808060200182810382526021815260200180611a5c6021913960400191505060405180910390fd5b600b5481106118f45761199b565b805b600b547fffffffffffffffffffffffffffffffffffffffffffffffffffffffffffffffff0181101561195e57600b816001018154811061193257fe5b9060005260206000200154600b828154811061194a57fe5b6000918252602090912001556001016118f6565b50600b80547fffffffffffffffffffffffffffffffffffffffffffffffffffffffffffffffff810190811061198f57fe5b60009182526020822001555b50565b60008184841115611a2d5760405162461bcd60e51b81526004018080602001828103825283818151815260200191508051906020019080838360005b838110156119f25781810151838201526020016119da565b50505050905090810190601f168015611a1f5780820380516001836020036101000a031916815260200191505b509250505060405180910390fd5b50505090039056fe4f776e61626c653a206e6577206f776e657220697320746865207a65726f2061646472657373536166654d6174683a206d756c7469706c69636174696f6e206f766572666c6f77a26469706673582212200bc2952656799197ff7445ffed9faac624cfeec43bec3d95b1c0e1869d1d8eff64736f6c6343000602003349742773206e6f7420636f6e7472616374206164647265737321000000000000",
  "source": "pragma solidity ^0.6.0;\n\nimport \"@openzeppelin/contracts/math/SafeMath.sol\";\nimport \"@openzeppelin/contracts/token/ERC20/IERC20.sol\";\nimport \"@openzeppelin/contracts/token/ERC20/SafeERC20.sol\";\nimport \"@openzeppelin/contracts/token/ERC721/IERC721.sol\";\nimport \"@openzeppelin/contracts/token/ERC721/IERC721Receiver.sol\";\nimport \"@openzeppelin/contracts/access/Ownable.sol\";\nimport \"@openzeppelin/contracts/utils/Address.sol\";\nimport \"../common/hotpotinterface.sol\";\n\n/**\n * @title NFTMarket contract that allows atomic swaps of ERC20 and ERC721\n */\ncontract NFTMarket is IERC721Receiver, Ownable {\n    using Address for address;\n\n    event Swapped(\n        address indexed _buyer,\n        address indexed _seller,\n        uint256 indexed _tokenId,\n        uint256 _price\n    );\n    event Listed(\n        address indexed _seller,\n        uint256 indexed _tokenId,\n        uint256 _price\n    );\n    event Unlisted(address indexed _seller, uint256 indexed _tokenId);\n\n    IERC20 erc20;\n    IERC721 erc721;\n    IHotPot hotpot;\n\n    address public rewardAddress;\n    address public devAddress;\n\n    uint256 public taxRatio = 2;\n    uint256 public taxDev = 1;\n\n    uint256 public updatePosibility = 16;\n\n    mapping(uint256 => uint256) public priceOf;\n    mapping(uint256 => address) public sellerOf;\n\n    uint256[] public listTokens;\n\n    bytes4 internal constant MAGIC_ON_ERC721_RECEIVED = 0x150b7a02;\n\n    constructor(\n        address _reward,\n        address _nft,\n        address _hotpot,\n        address _dev\n    ) public {\n        require(_dev != address(0));\n        require(_reward != address(0));\n        require(_nft != address(0));\n        require(_hotpot != address(0));\n        require(_nft.isContract(), \"It's not contract address!\");\n        require(_reward.isContract(), \"It's not contract address!\");\n        require(_hotpot.isContract(), \"It's not contract address!\");\n        rewardAddress = _reward;\n        devAddress = _dev;\n        erc20 = IERC20(_hotpot);\n        hotpot = IHotPot(_nft);\n        erc721 = IERC721(_nft);\n    }\n\n    function setRewardAddress(address _addr) external onlyOwner {\n        require(_addr.isContract(), \"It's not contract address!\");\n        rewardAddress = _addr;\n    }\n\n    function setDevAddress(address _addr) external onlyOwner {\n        require(_addr != address(0));\n        devAddress = _addr;\n    }\n\n    function setHotPotTicket(address _addr) external onlyOwner {\n        require(_addr.isContract(), \"It's not contract address!\");\n        hotpot = IHotPot(_addr);\n        erc721 = IERC721(_addr);\n    }\n\n    function setERC20(address _addr) external onlyOwner {\n        require(_addr.isContract(), \"It's not contract address!\");\n        erc20 = IERC20(_addr);\n    }\n\n    function setTax(uint256 _ratio) external onlyOwner {\n        require(_ratio < 100, \"Tax can not be greater than 100!\");\n        taxRatio = _ratio;\n    }\n\n    function getListSize() external view returns (uint256) {\n        return listTokens.length;\n    }\n\n    function getListToken() external view returns (uint256[] memory) {\n        uint256[] memory data = new uint256[](listTokens.length);\n        for (uint256 i = 0; i < listTokens.length; i++) {\n            data[i] = listTokens[i];\n        }\n        return data;\n    }\n\n    /**\n      * @dev Initiate an escrow swap\n      @ @param _tokenId the good to swap\n      */\n    function swap(uint256 _tokenId) external {\n        require(isListed(_tokenId), \"Token ID is not listed\");\n\n        address seller = sellerOf[_tokenId];\n        // solium-disable-next-line security/no-tx-origin\n        address buyer = tx.origin;\n        uint256 _price = priceOf[_tokenId];\n\n        //send _price * taxRatio to seller\n        //send _price *(1-taxRatio) to reward pool\n        uint256 reward = (_price * taxRatio) / 100;\n        uint256 giveDec = (_price * taxDev) / 100;\n        uint256 giveSeller = (_price * (100 - taxRatio - taxDev)) / 100;\n\n        require(\n            erc20.transferFrom(buyer, seller, giveSeller),\n            \"ERC20 transfer not successfully\"\n        );\n\n        require(\n            erc20.transferFrom(buyer, rewardAddress, reward),\n            \"ERC20 transfer not successfully\"\n        );\n\n        require(\n            erc20.transferFrom(buyer, devAddress, giveDec),\n            \"ERC20 transfer not successfully\"\n        );\n\n        _update(_tokenId);\n\n        erc721.transferFrom(address(this), buyer, _tokenId);\n\n        removeListing(_tokenId);\n\n        emit Swapped(buyer, seller, _tokenId, _price);\n    }\n\n    function setUpdatePosibility(uint256 _posibility) external onlyOwner {\n        require(_posibility > 0 && _posibility < 100);\n        updatePosibility = _posibility;\n    }\n\n    function _update(uint256 _tokenId) internal {\n        //generate random number\n        //it is not that safe\n        uint256 random = uint256(sha256(abi.encodePacked(now, msg.sender))) %\n            updatePosibility;\n\n        if (random == 1) {\n            uint8 grade = hotpot.getGrade(_tokenId);\n            if (grade < 3) {\n                hotpot.update(_tokenId, grade + 1);\n            }\n        }\n    }\n\n    /**\n     * @dev Unlist an item\n     * @dev Can only be called by the item seller\n     * @param _tokenId the item to unlist\n     */\n    function unlist(uint256 _tokenId) external {\n        require(isListed(_tokenId), \"Token ID is not listed\");\n        address seller = sellerOf[_tokenId];\n        require(seller == msg.sender, \"Sender is not seller\");\n\n        erc721.transferFrom(address(this), seller, _tokenId);\n\n        removeListing(_tokenId);\n    }\n\n    /**\n     * @dev List a good using a IERC721 receiver hook\n     * @param _operator the caller of this function\n     * @param _seller the good seller\n     * @param _tokenId the good id to list\n     * @param _data contains the pricing data as the first 32 bytes\n     */\n    function onERC721Received(\n        address _operator,\n        address _seller,\n        uint256 _tokenId,\n        bytes memory _data\n    ) public override returns (bytes4) {\n        require(_operator == _seller, \"Seller must be operator\");\n        uint256 _price = toUint256(_data);\n\n        addListing(_seller, _tokenId, _price);\n\n        return MAGIC_ON_ERC721_RECEIVED;\n    }\n\n    /**\n     * @dev Determine whether an item is listed\n     * @param _tokenId The id of the good to check\n     * @return Return true if item is listed\n     */\n    function isListed(uint256 _tokenId) public view returns (bool) {\n        return sellerOf[_tokenId] != address(0);\n    }\n\n    /**\n     * @dev Convert a 32 byte array to uint256\n     * @param input 32 byte array\n     */\n    function toUint256(bytes memory input) internal pure returns (uint256) {\n        uint256 converted;\n        uint8 digit;\n        for (uint256 index = 0; index < 32; index++) {\n            digit = uint8(input[SafeMath.sub(31, index)]);\n            converted += SafeMath.mul(digit, 256**index);\n        }\n        return converted;\n    }\n\n    /**\n     * @dev Convenience function to add token to listing\n     * @param _seller the seller that is listing\n     * @param _tokenId the token to add\n     * @param _price the price\n     */\n    function addListing(\n        address _seller,\n        uint256 _tokenId,\n        uint256 _price\n    ) internal {\n        require(_price > 0, \"Price must be greater than zero\");\n\n        priceOf[_tokenId] = _price;\n        sellerOf[_tokenId] = _seller;\n        listTokens.push(_tokenId);\n        emit Listed(_seller, _tokenId, _price);\n    }\n\n    function _remove(uint256 index) internal {\n        if (index >= listTokens.length) return;\n\n        for (uint256 i = index; i < listTokens.length - 1; i++) {\n            listTokens[i] = listTokens[i + 1];\n        }\n        delete listTokens[listTokens.length - 1];\n        // listTokens.length--;\n    }\n\n    /**\n     * @dev Convenience function to remove tokens from listing\n     * @param _tokenId the token to remove\n     */\n    function removeListing(uint256 _tokenId) internal {\n        address seller = sellerOf[_tokenId];\n\n        delete priceOf[_tokenId];\n        delete sellerOf[_tokenId];\n\n        for (uint256 i = 0; i < listTokens.length; i++) {\n            if (listTokens[i] == _tokenId) {\n                _remove(i);\n                break;\n            }\n        }\n\n        emit Unlisted(seller, _tokenId);\n    }\n}\n",
  "sourcePath": "/Users/junhu/git/hotpotcontract/truffle/contracts/exchange/NFTMarket.sol",
  "compiler": {
    "name": "solc",
    "version": "0.6.2+commit.bacdbe57.Emscripten.clang"
  },
  "schemaVersion": "3.3.0",
  "updatedAt": "2020-10-18T09:35:18.129Z",
  "networkType": "ethereum",
  "devdoc": {
    "methods": {
      "isListed(uint256)": {
        "details": "Determine whether an item is listed",
        "params": {
          "_tokenId": "The id of the good to check"
        },
        "returns": {
          "_0": "Return true if item is listed"
        }
      },
      "onERC721Received(address,address,uint256,bytes)": {
        "details": "List a good using a IERC721 receiver hook",
        "params": {
          "_data": "contains the pricing data as the first 32 bytes",
          "_operator": "the caller of this function",
          "_seller": "the good seller",
          "_tokenId": "the good id to list"
        }
      },
      "owner()": {
        "details": "Returns the address of the current owner."
      },
      "renounceOwnership()": {
        "details": "Leaves the contract without owner. It will not be possible to call `onlyOwner` functions anymore. Can only be called by the current owner.     * NOTE: Renouncing ownership will leave the contract without an owner, thereby removing any functionality that is only available to the owner."
      },
      "swap(uint256)": {
        "details": "Initiate an escrow swap @param _tokenId the good to swap"
      },
      "transferOwnership(address)": {
        "details": "Transfers ownership of the contract to a new account (`newOwner`). Can only be called by the current owner."
      },
      "unlist(uint256)": {
        "details": "Unlist an itemCan only be called by the item seller",
        "params": {
          "_tokenId": "the item to unlist"
        }
      }
    },
    "title": "NFTMarket contract that allows atomic swaps of ERC20 and ERC721"
  },
  "userdoc": {
    "methods": {}
  }
}