{
  "contractName": "NFTokenHotPot",
  "abi": [
    {
      "inputs": [
        {
          "internalType": "string",
          "name": "name",
          "type": "string"
        },
        {
          "internalType": "string",
          "name": "symbol",
          "type": "string"
        }
      ],
      "stateMutability": "nonpayable",
      "type": "constructor"
    },
    {
      "anonymous": false,
      "inputs": [
        {
          "indexed": true,
          "internalType": "address",
          "name": "owner",
          "type": "address"
        },
        {
          "indexed": true,
          "internalType": "address",
          "name": "approved",
          "type": "address"
        },
        {
          "indexed": true,
          "internalType": "uint256",
          "name": "tokenId",
          "type": "uint256"
        }
      ],
      "name": "Approval",
      "type": "event"
    },
    {
      "anonymous": false,
      "inputs": [
        {
          "indexed": true,
          "internalType": "address",
          "name": "owner",
          "type": "address"
        },
        {
          "indexed": true,
          "internalType": "address",
          "name": "operator",
          "type": "address"
        },
        {
          "indexed": false,
          "internalType": "bool",
          "name": "approved",
          "type": "bool"
        }
      ],
      "name": "ApprovalForAll",
      "type": "event"
    },
    {
      "anonymous": false,
      "inputs": [
        {
          "indexed": true,
          "internalType": "address",
          "name": "previousOwner",
          "type": "address"
        },
        {
          "indexed": true,
          "internalType": "address",
          "name": "newOwner",
          "type": "address"
        }
      ],
      "name": "OwnershipTransferred",
      "type": "event"
    },
    {
      "anonymous": false,
      "inputs": [
        {
          "indexed": true,
          "internalType": "address",
          "name": "owner",
          "type": "address"
        },
        {
          "indexed": true,
          "internalType": "uint8",
          "name": "grade",
          "type": "uint8"
        },
        {
          "indexed": true,
          "internalType": "uint256",
          "name": "tokenId",
          "type": "uint256"
        }
      ],
      "name": "TicketUpdate",
      "type": "event"
    },
    {
      "anonymous": false,
      "inputs": [
        {
          "indexed": true,
          "internalType": "address",
          "name": "from",
          "type": "address"
        },
        {
          "indexed": true,
          "internalType": "address",
          "name": "to",
          "type": "address"
        },
        {
          "indexed": true,
          "internalType": "uint256",
          "name": "tokenId",
          "type": "uint256"
        }
      ],
      "name": "Transfer",
      "type": "event"
    },
    {
      "anonymous": false,
      "inputs": [
        {
          "indexed": true,
          "internalType": "address",
          "name": "owner",
          "type": "address"
        },
        {
          "indexed": true,
          "internalType": "uint256",
          "name": "useTime",
          "type": "uint256"
        },
        {
          "indexed": true,
          "internalType": "uint256",
          "name": "tokenId",
          "type": "uint256"
        }
      ],
      "name": "UseTicket",
      "type": "event"
    },
    {
      "inputs": [],
      "name": "MAX_NUM",
      "outputs": [
        {
          "internalType": "uint256",
          "name": "",
          "type": "uint256"
        }
      ],
      "stateMutability": "view",
      "type": "function",
      "constant": true
    },
    {
      "inputs": [
        {
          "internalType": "address",
          "name": "to",
          "type": "address"
        },
        {
          "internalType": "uint256",
          "name": "tokenId",
          "type": "uint256"
        }
      ],
      "name": "approve",
      "outputs": [],
      "stateMutability": "nonpayable",
      "type": "function"
    },
    {
      "inputs": [
        {
          "internalType": "address",
          "name": "owner",
          "type": "address"
        }
      ],
      "name": "balanceOf",
      "outputs": [
        {
          "internalType": "uint256",
          "name": "",
          "type": "uint256"
        }
      ],
      "stateMutability": "view",
      "type": "function",
      "constant": true
    },
    {
      "inputs": [],
      "name": "baseURI",
      "outputs": [
        {
          "internalType": "string",
          "name": "",
          "type": "string"
        }
      ],
      "stateMutability": "view",
      "type": "function",
      "constant": true
    },
    {
      "inputs": [],
      "name": "exchangeContract",
      "outputs": [
        {
          "internalType": "address",
          "name": "",
          "type": "address"
        }
      ],
      "stateMutability": "view",
      "type": "function",
      "constant": true
    },
    {
      "inputs": [],
      "name": "gachaContract",
      "outputs": [
        {
          "internalType": "address",
          "name": "",
          "type": "address"
        }
      ],
      "stateMutability": "view",
      "type": "function",
      "constant": true
    },
    {
      "inputs": [
        {
          "internalType": "uint256",
          "name": "tokenId",
          "type": "uint256"
        }
      ],
      "name": "getApproved",
      "outputs": [
        {
          "internalType": "address",
          "name": "",
          "type": "address"
        }
      ],
      "stateMutability": "view",
      "type": "function",
      "constant": true
    },
    {
      "inputs": [
        {
          "internalType": "address",
          "name": "owner",
          "type": "address"
        },
        {
          "internalType": "address",
          "name": "operator",
          "type": "address"
        }
      ],
      "name": "isApprovedForAll",
      "outputs": [
        {
          "internalType": "bool",
          "name": "",
          "type": "bool"
        }
      ],
      "stateMutability": "view",
      "type": "function",
      "constant": true
    },
    {
      "inputs": [],
      "name": "name",
      "outputs": [
        {
          "internalType": "string",
          "name": "",
          "type": "string"
        }
      ],
      "stateMutability": "view",
      "type": "function",
      "constant": true
    },
    {
      "inputs": [],
      "name": "owner",
      "outputs": [
        {
          "internalType": "address",
          "name": "",
          "type": "address"
        }
      ],
      "stateMutability": "view",
      "type": "function",
      "constant": true
    },
    {
      "inputs": [
        {
          "internalType": "uint256",
          "name": "tokenId",
          "type": "uint256"
        }
      ],
      "name": "ownerOf",
      "outputs": [
        {
          "internalType": "address",
          "name": "",
          "type": "address"
        }
      ],
      "stateMutability": "view",
      "type": "function",
      "constant": true
    },
    {
      "inputs": [],
      "name": "renounceOwnership",
      "outputs": [],
      "stateMutability": "nonpayable",
      "type": "function"
    },
    {
      "inputs": [],
      "name": "rewardContract",
      "outputs": [
        {
          "internalType": "address",
          "name": "",
          "type": "address"
        }
      ],
      "stateMutability": "view",
      "type": "function",
      "constant": true
    },
    {
      "inputs": [
        {
          "internalType": "address",
          "name": "from",
          "type": "address"
        },
        {
          "internalType": "address",
          "name": "to",
          "type": "address"
        },
        {
          "internalType": "uint256",
          "name": "tokenId",
          "type": "uint256"
        }
      ],
      "name": "safeTransferFrom",
      "outputs": [],
      "stateMutability": "nonpayable",
      "type": "function"
    },
    {
      "inputs": [
        {
          "internalType": "address",
          "name": "from",
          "type": "address"
        },
        {
          "internalType": "address",
          "name": "to",
          "type": "address"
        },
        {
          "internalType": "uint256",
          "name": "tokenId",
          "type": "uint256"
        },
        {
          "internalType": "bytes",
          "name": "_data",
          "type": "bytes"
        }
      ],
      "name": "safeTransferFrom",
      "outputs": [],
      "stateMutability": "nonpayable",
      "type": "function"
    },
    {
      "inputs": [
        {
          "internalType": "address",
          "name": "operator",
          "type": "address"
        },
        {
          "internalType": "bool",
          "name": "approved",
          "type": "bool"
        }
      ],
      "name": "setApprovalForAll",
      "outputs": [],
      "stateMutability": "nonpayable",
      "type": "function"
    },
    {
      "inputs": [
        {
          "internalType": "bytes4",
          "name": "interfaceId",
          "type": "bytes4"
        }
      ],
      "name": "supportsInterface",
      "outputs": [
        {
          "internalType": "bool",
          "name": "",
          "type": "bool"
        }
      ],
      "stateMutability": "view",
      "type": "function",
      "constant": true
    },
    {
      "inputs": [],
      "name": "symbol",
      "outputs": [
        {
          "internalType": "string",
          "name": "",
          "type": "string"
        }
      ],
      "stateMutability": "view",
      "type": "function",
      "constant": true
    },
    {
      "inputs": [
        {
          "internalType": "uint256",
          "name": "index",
          "type": "uint256"
        }
      ],
      "name": "tokenByIndex",
      "outputs": [
        {
          "internalType": "uint256",
          "name": "",
          "type": "uint256"
        }
      ],
      "stateMutability": "view",
      "type": "function",
      "constant": true
    },
    {
      "inputs": [
        {
          "internalType": "address",
          "name": "owner",
          "type": "address"
        },
        {
          "internalType": "uint256",
          "name": "index",
          "type": "uint256"
        }
      ],
      "name": "tokenOfOwnerByIndex",
      "outputs": [
        {
          "internalType": "uint256",
          "name": "",
          "type": "uint256"
        }
      ],
      "stateMutability": "view",
      "type": "function",
      "constant": true
    },
    {
      "inputs": [
        {
          "internalType": "uint256",
          "name": "tokenId",
          "type": "uint256"
        }
      ],
      "name": "tokenURI",
      "outputs": [
        {
          "internalType": "string",
          "name": "",
          "type": "string"
        }
      ],
      "stateMutability": "view",
      "type": "function",
      "constant": true
    },
    {
      "inputs": [],
      "name": "totalSupply",
      "outputs": [
        {
          "internalType": "uint256",
          "name": "",
          "type": "uint256"
        }
      ],
      "stateMutability": "view",
      "type": "function",
      "constant": true
    },
    {
      "inputs": [
        {
          "internalType": "address",
          "name": "from",
          "type": "address"
        },
        {
          "internalType": "address",
          "name": "to",
          "type": "address"
        },
        {
          "internalType": "uint256",
          "name": "tokenId",
          "type": "uint256"
        }
      ],
      "name": "transferFrom",
      "outputs": [],
      "stateMutability": "nonpayable",
      "type": "function"
    },
    {
      "inputs": [
        {
          "internalType": "address",
          "name": "newOwner",
          "type": "address"
        }
      ],
      "name": "transferOwnership",
      "outputs": [],
      "stateMutability": "nonpayable",
      "type": "function"
    },
    {
      "inputs": [
        {
          "internalType": "address",
          "name": "_to",
          "type": "address"
        },
        {
          "internalType": "uint256",
          "name": "_tokenId",
          "type": "uint256"
        },
        {
          "internalType": "uint8",
          "name": "_grade",
          "type": "uint8"
        },
        {
          "internalType": "string",
          "name": "_uri",
          "type": "string"
        }
      ],
      "name": "mint",
      "outputs": [],
      "stateMutability": "nonpayable",
      "type": "function"
    },
    {
      "inputs": [
        {
          "internalType": "uint8",
          "name": "_grade",
          "type": "uint8"
        }
      ],
      "name": "getGradeCount",
      "outputs": [
        {
          "internalType": "uint256",
          "name": "",
          "type": "uint256"
        }
      ],
      "stateMutability": "view",
      "type": "function",
      "constant": true
    },
    {
      "inputs": [
        {
          "internalType": "uint256",
          "name": "_tokenId",
          "type": "uint256"
        }
      ],
      "name": "getGrade",
      "outputs": [
        {
          "internalType": "uint8",
          "name": "",
          "type": "uint8"
        }
      ],
      "stateMutability": "view",
      "type": "function",
      "constant": true
    },
    {
      "inputs": [
        {
          "internalType": "uint256",
          "name": "_tokenId",
          "type": "uint256"
        },
        {
          "internalType": "uint8",
          "name": "_grade",
          "type": "uint8"
        }
      ],
      "name": "update",
      "outputs": [],
      "stateMutability": "nonpayable",
      "type": "function"
    },
    {
      "inputs": [
        {
          "internalType": "uint256",
          "name": "_tokenId",
          "type": "uint256"
        }
      ],
      "name": "getUseTime",
      "outputs": [
        {
          "internalType": "uint256",
          "name": "",
          "type": "uint256"
        }
      ],
      "stateMutability": "view",
      "type": "function",
      "constant": true
    },
    {
      "inputs": [
        {
          "internalType": "address",
          "name": "_addr",
          "type": "address"
        }
      ],
      "name": "setExchange",
      "outputs": [],
      "stateMutability": "nonpayable",
      "type": "function"
    },
    {
      "inputs": [
        {
          "internalType": "address",
          "name": "_addr",
          "type": "address"
        }
      ],
      "name": "setGacha",
      "outputs": [],
      "stateMutability": "nonpayable",
      "type": "function"
    },
    {
      "inputs": [
        {
          "internalType": "address",
          "name": "reward",
          "type": "address"
        }
      ],
      "name": "setReward",
      "outputs": [],
      "stateMutability": "nonpayable",
      "type": "function"
    },
    {
      "inputs": [
        {
          "internalType": "address",
          "name": "pool",
          "type": "address"
        }
      ],
      "name": "addPool",
      "outputs": [],
      "stateMutability": "nonpayable",
      "type": "function"
    },
    {
      "inputs": [
        {
          "internalType": "address",
          "name": "pool",
          "type": "address"
        }
      ],
      "name": "removePool",
      "outputs": [],
      "stateMutability": "nonpayable",
      "type": "function"
    },
    {
      "inputs": [
        {
          "internalType": "uint256",
          "name": "_tokenId",
          "type": "uint256"
        },
        {
          "internalType": "uint256",
          "name": "timestamp",
          "type": "uint256"
        }
      ],
      "name": "setUse",
      "outputs": [],
      "stateMutability": "nonpayable",
      "type": "function"
    },
    {
      "inputs": [
        {
          "internalType": "uint256",
          "name": "_tokenId",
          "type": "uint256"
        }
      ],
      "name": "setUse",
      "outputs": [],
      "stateMutability": "nonpayable",
      "type": "function"
    }
  ],
  "bytecode": "0x60806040523480156200001157600080fd5b506040516200344b3803806200344b833981810160405260408110156200003757600080fd5b81019080805160405193929190846401000000008211156200005857600080fd5b9083019060208201858111156200006e57600080fd5b82516401000000008111828201881017156200008957600080fd5b82525081516020918201929091019080838360005b83811015620000b85781810151838201526020016200009e565b50505050905090810190601f168015620000e65780820380516001836020036101000a031916815260200191505b50604052602001805160405193929190846401000000008211156200010a57600080fd5b9083019060208201858111156200012057600080fd5b82516401000000008111828201881017156200013b57600080fd5b82525081516020918201929091019080838360005b838110156200016a57818101518382015260200162000150565b50505050905090810190601f168015620001985780820380516001836020036101000a031916815260200191505b5060405250839150829050620001be6301ffc9a760e01b6001600160e01b03620002a916565b8151620001d390600690602085019062000333565b508051620001e990600790602084019062000333565b50620002056380ac58cd60e01b6001600160e01b03620002a916565b62000220635b5e139f60e01b6001600160e01b03620002a916565b6200023b63780e9d6360e01b6001600160e01b03620002a916565b5060009050620002536001600160e01b036200032e16565b600a80546001600160a01b0319166001600160a01b038316908117909155604051919250906000907f8be0079c531659141344cd1fd0a4f28419497f9722a3daafe3b4186f6b6457e0908290a3505050620003d5565b6001600160e01b0319808216141562000309576040805162461bcd60e51b815260206004820152601c60248201527f4552433136353a20696e76616c696420696e7465726661636520696400000000604482015290519081900360640190fd5b6001600160e01b0319166000908152602081905260409020805460ff19166001179055565b335b90565b828054600181600116156101000203166002900490600052602060002090601f016020900481019282601f106200037657805160ff1916838001178555620003a6565b82800160010185558215620003a6579182015b82811115620003a657825182559160200191906001019062000389565b50620003b4929150620003b8565b5090565b6200033091905b80821115620003b45760008155600101620003bf565b61306680620003e56000396000f3fe608060405234801561001057600080fd5b506004361061025c5760003560e01c8063644acc6011610145578063a22cb465116100bd578063d914cd4b1161008c578063e5932c4011610071578063e5932c40146107f8578063e985e9c51461081e578063f2fde38b1461084c5761025c565b8063d914cd4b1461079f578063e1e0485e146107c55761025c565b8063a22cb4651461066e578063b88d4fde1461069c578063c87b56dd14610762578063d394dd791461077f5761025c565b806370a08231116101145780638da5cb5b116100f95780638da5cb5b1461065657806395d89b411461065e5780639d304e85146106665761025c565b806370a0823114610628578063715018a61461064e5761025c565b8063644acc601461056357806367b1f5df146105f25780636c0360eb146106185780636ea69d62146106205761025c565b80632f745c59116101d85780633f0a0797116101a75780634f6ccce71161018c5780634f6ccce71461050c5780635840e659146105295780636352211e146105465761025c565b80633f0a0797146104ce57806342842e0e146104d65761025c565b80632f745c5914610430578063306a69481461045c5780633b7d0946146104825780633c6bd5db146104a85761025c565b8063095ea7b31161022f5780631e3024fe116102145780631e3024fe146103d557806322142e6c146103dd57806323b872dd146103fa5761025c565b8063095ea7b31461038f57806318160ddd146103bb5761025c565b806301ffc9a71461026157806303ab6e76146102b457806306fdde03146102d9578063081812fc14610356575b600080fd5b6102a06004803603602081101561027757600080fd5b50357fffffffff0000000000000000000000000000000000000000000000000000000016610872565b604080519115158252519081900360200190f35b6102d7600480360360408110156102ca57600080fd5b50803590602001356108ad565b005b6102e16109f2565b6040805160208082528351818301528351919283929083019185019080838360005b8381101561031b578181015183820152602001610303565b50505050905090810190601f1680156103485780820380516001836020036101000a031916815260200191505b509250505060405180910390f35b6103736004803603602081101561036c57600080fd5b5035610a89565b604080516001600160a01b039092168252519081900360200190f35b6102d7600480360360408110156103a557600080fd5b506001600160a01b038135169060200135610aeb565b6103c3610bc6565b60408051918252519081900360200190f35b6103c3610bd7565b6102d7600480360360208110156103f357600080fd5b5035610bdd565b6102d76004803603606081101561041057600080fd5b506001600160a01b03813581169160208101359091169060400135610d17565b6103c36004803603604081101561044657600080fd5b506001600160a01b038135169060200135610d6e565b6102d76004803603604081101561047257600080fd5b508035906020013560ff16610d9f565b6102d76004803603602081101561049857600080fd5b50356001600160a01b0316610fa4565b6102d7600480360360208110156104be57600080fd5b50356001600160a01b03166110d6565b6103736111dd565b6102d7600480360360608110156104ec57600080fd5b506001600160a01b038135811691602081013590911690604001356111ec565b6103c36004803603602081101561052257600080fd5b5035611207565b6103c36004803603602081101561053f57600080fd5b5035611223565b6103736004803603602081101561055c57600080fd5b5035611294565b6102d76004803603608081101561057957600080fd5b6001600160a01b038235169160208101359160ff60408301351691908101906080810160608201356401000000008111156105b357600080fd5b8201836020820111156105c557600080fd5b803590602001918460018302840111640100000000831117156105e757600080fd5b5090925090506112c2565b6102d76004803603602081101561060857600080fd5b50356001600160a01b031661141e565b6102e1611525565b610373611586565b6103c36004803603602081101561063e57600080fd5b50356001600160a01b0316611595565b6102d76115fd565b6103736116c9565b6102e16116d8565b610373611739565b6102d76004803603604081101561068457600080fd5b506001600160a01b0381351690602001351515611748565b6102d7600480360360808110156106b257600080fd5b6001600160a01b038235811692602081013590911691604082013591908101906080810160608201356401000000008111156106ed57600080fd5b8201836020820111156106ff57600080fd5b8035906020019184600183028401116401000000008311171561072157600080fd5b91908080601f01602080910402602001604051908101604052809392919081815260200183838082843760009201919091525092955061186b945050505050565b6102e16004803603602081101561077857600080fd5b50356118c9565b6103c36004803603602081101561079557600080fd5b503560ff16611bac565b6102d7600480360360208110156107b557600080fd5b50356001600160a01b0316611bc1565b6107e2600480360360208110156107db57600080fd5b5035611ca3565b6040805160ff9092168252519081900360200190f35b6102d76004803603602081101561080e57600080fd5b50356001600160a01b0316611d17565b6102a06004803603604081101561083457600080fd5b506001600160a01b0381358116916020013516611e1e565b6102d76004803603602081101561086257600080fd5b50356001600160a01b0316611e4c565b7fffffffff00000000000000000000000000000000000000000000000000000000811660009081526020819052604090205460ff165b919050565b60105433906000906001600160a01b03168214156108cd575060016108e1565b6108de600e8363ffffffff611f6f16565b90505b80610933576040805162461bcd60e51b815260206004820152600e60248201527f4e6f207065726d697373696f6e21000000000000000000000000000000000000604482015290519081900360640190fd5b8361093d81611f84565b61098e576040805162461bcd60e51b815260206004820152601660248201527f4974206973206e6f742061204e465420746f6b656e2100000000000000000000604482015290519081900360640190fd5b42841161099a57600080fd5b6000858152600c6020526040902084905584846109b682611294565b6001600160a01b03167ff7cf4f010b9ba9eb8187d83b403259363e22a140e99f8fb721bcfdcf0bc16e1260405160405180910390a45050505050565b60068054604080516020601f6002600019610100600188161502019095169490940493840181900481028201810190925282815260609390929091830182828015610a7e5780601f10610a5357610100808354040283529160200191610a7e565b820191906000526020600020905b815481529060010190602001808311610a6157829003601f168201915b505050505090505b90565b6000610a9482611f84565b610acf5760405162461bcd60e51b815260040180806020018281038252602c815260200180612f2f602c913960400191505060405180910390fd5b506000908152600460205260409020546001600160a01b031690565b6000610af682611294565b9050806001600160a01b0316836001600160a01b03161415610b495760405162461bcd60e51b8152600401808060200182810382526021815260200180612fdf6021913960400191505060405180910390fd5b806001600160a01b0316610b5b611f97565b6001600160a01b03161480610b7c5750610b7c81610b77611f97565b611e1e565b610bb75760405162461bcd60e51b8152600401808060200182810382526038815260200180612e826038913960400191505060405180910390fd5b610bc18383611f9b565b505050565b6000610bd26002612021565b905090565b6103e881565b60105433906000906001600160a01b0316821415610bfd57506001610c11565b610c0e600e8363ffffffff611f6f16565b90505b80610c63576040805162461bcd60e51b815260206004820152600e60248201527f4e6f207065726d697373696f6e21000000000000000000000000000000000000604482015290519081900360640190fd5b82610c6d81611f84565b610cbe576040805162461bcd60e51b815260206004820152601660248201527f4974206973206e6f742061204e465420746f6b656e2100000000000000000000604482015290519081900360640190fd5b6000848152600c6020526040902042908190558490610cdc82611294565b6001600160a01b03167ff7cf4f010b9ba9eb8187d83b403259363e22a140e99f8fb721bcfdcf0bc16e1260405160405180910390a450505050565b610d28610d22611f97565b8261202c565b610d635760405162461bcd60e51b81526004018080602001828103825260318152602001806130006031913960400191505060405180910390fd5b610bc18383836120d0565b6001600160a01b0382166000908152600160205260408120610d96908363ffffffff61222e16565b90505b92915050565b81610da981611f84565b610dfa576040805162461bcd60e51b815260206004820152601660248201527f4974206973206e6f742061204e465420746f6b656e2100000000000000000000604482015290519081900360640190fd5b6011546001600160a01b03163314610e59576040805162461bcd60e51b815260206004820152601d60248201527f4f6e6c792065786368616e67652063616e20757064617465204e465421000000604482015290519081900360640190fd5b306001600160a01b031663e1e0485e846040518263ffffffff1660e01b81526004018082815260200191505060206040518083038186803b158015610e9d57600080fd5b505afa158015610eb1573d6000803e3d6000fd5b505050506040513d6020811015610ec757600080fd5b505160ff90811690831611610f23576040805162461bcd60e51b815260206004820152600c60248201527f557064617465206661696c210000000000000000000000000000000000000000604482015290519081900360640190fd5b6000838152600b6020526040902080547fffffffffffffffffffffffffffffffffffffffffffffffffffffffffffffff001660ff84169081179091558390610f6a82611294565b6001600160a01b03167f1441e2202458495432f071d4c62463070b2ba668bf711f7a6aca8002db7a631760405160405180910390a4505050565b610fac611f97565b600a546001600160a01b0390811691161461100e576040805162461bcd60e51b815260206004820181905260248201527f4f776e61626c653a2063616c6c6572206973206e6f7420746865206f776e6572604482015290519081900360640190fd5b611020816001600160a01b031661223a565b611071576040805162461bcd60e51b815260206004820152601a60248201527f49742773206e6f7420636f6e7472616374206164647265737321000000000000604482015290519081900360640190fd5b611082600e8263ffffffff61224016565b6110d3576040805162461bcd60e51b815260206004820152601760248201527f5468697320706f6f6c206973206e6f7420657869737421000000000000000000604482015290519081900360640190fd5b50565b6110de611f97565b600a546001600160a01b03908116911614611140576040805162461bcd60e51b815260206004820181905260248201527f4f776e61626c653a2063616c6c6572206973206e6f7420746865206f776e6572604482015290519081900360640190fd5b611152816001600160a01b031661223a565b6111a3576040805162461bcd60e51b815260206004820152601a60248201527f49742773206e6f7420636f6e7472616374206164647265737321000000000000604482015290519081900360640190fd5b601280547fffffffffffffffffffffffff0000000000000000000000000000000000000000166001600160a01b0392909216919091179055565b6011546001600160a01b031681565b610bc18383836040518060200160405280600081525061186b565b60008061121b60028463ffffffff61225516565b509392505050565b60008161122f81611f84565b611280576040805162461bcd60e51b815260206004820152601660248201527f4974206973206e6f742061204e465420746f6b656e2100000000000000000000604482015290519081900360640190fd5b50506000908152600c602052604090205490565b6000610d9982604051806060016040528060298152602001612ee4602991396002919063ffffffff61227116565b6012546001600160a01b03163314611321576040805162461bcd60e51b815260206004820152601d60248201527f4f6e6c7920676163686120636f6e74726163742063616e206d696e7421000000604482015290519081900360640190fd5b6103e861132c610bc6565b111561137f576040805162461bcd60e51b815260206004820152601760248201527f546865206d617820737570706c79206973203130303021000000000000000000604482015290519081900360640190fd5b6113898585612288565b6113c98483838080601f0160208091040260200160405190810160405280939291908181526020018383808284376000920191909152506122a292505050565b50506000918252600b60209081526040808420805460ff9094167fffffffffffffffffffffffffffffffffffffffffffffffffffffffffffffff0090941684179055918352600d905290208054600101905550565b611426611f97565b600a546001600160a01b03908116911614611488576040805162461bcd60e51b815260206004820181905260248201527f4f776e61626c653a2063616c6c6572206973206e6f7420746865206f776e6572604482015290519081900360640190fd5b61149a816001600160a01b031661223a565b6114eb576040805162461bcd60e51b815260206004820152601a60248201527f49742773206e6f7420636f6e7472616374206164647265737321000000000000604482015290519081900360640190fd5b601180547fffffffffffffffffffffffff0000000000000000000000000000000000000000166001600160a01b0392909216919091179055565b60098054604080516020601f6002600019610100600188161502019095169490940493840181900481028201810190925282815260609390929091830182828015610a7e5780601f10610a5357610100808354040283529160200191610a7e565b6010546001600160a01b031681565b60006001600160a01b0382166115dc5760405162461bcd60e51b815260040180806020018281038252602a815260200180612eba602a913960400191505060405180910390fd5b6001600160a01b0382166000908152600160205260409020610d9990612021565b611605611f97565b600a546001600160a01b03908116911614611667576040805162461bcd60e51b815260206004820181905260248201527f4f776e61626c653a2063616c6c6572206973206e6f7420746865206f776e6572604482015290519081900360640190fd5b600a546040516000916001600160a01b0316907f8be0079c531659141344cd1fd0a4f28419497f9722a3daafe3b4186f6b6457e0908390a3600a80547fffffffffffffffffffffffff0000000000000000000000000000000000000000169055565b600a546001600160a01b031690565b60078054604080516020601f6002600019610100600188161502019095169490940493840181900481028201810190925282815260609390929091830182828015610a7e5780601f10610a5357610100808354040283529160200191610a7e565b6012546001600160a01b031681565b611750611f97565b6001600160a01b0316826001600160a01b031614156117b6576040805162461bcd60e51b815260206004820152601960248201527f4552433732313a20617070726f766520746f2063616c6c657200000000000000604482015290519081900360640190fd5b80600560006117c3611f97565b6001600160a01b0390811682526020808301939093526040918201600090812091871680825291909352912080547fffffffffffffffffffffffffffffffffffffffffffffffffffffffffffffff001692151592909217909155611825611f97565b60408051841515815290516001600160a01b0392909216917f17307eab39ab6107e8899845ad3d59bd9653f200f220920489ca2b5937696c319181900360200190a35050565b61187c611876611f97565b8361202c565b6118b75760405162461bcd60e51b81526004018080602001828103825260318152602001806130006031913960400191505060405180910390fd5b6118c384848484612305565b50505050565b60606118d482611f84565b61190f5760405162461bcd60e51b815260040180806020018281038252602f815260200180612fb0602f913960400191505060405180910390fd5b60008281526008602090815260409182902080548351601f60026000196101006001861615020190931692909204918201849004840281018401909452808452606093928301828280156119a45780601f10611979576101008083540402835291602001916119a4565b820191906000526020600020905b81548152906001019060200180831161198757829003601f168201915b5050600954939450505050600260001961010060018416150201909116046119cd5790506108a8565b805115611abc576009816040516020018083805460018160011615610100020316600290048015611a355780601f10611a13576101008083540402835291820191611a35565b820191906000526020600020905b815481529060010190602001808311611a21575b5050825160208401908083835b60208310611a7f57805182527fffffffffffffffffffffffffffffffffffffffffffffffffffffffffffffffe09092019160209182019101611a42565b6001836020036101000a038019825116818451168082178552505050505050905001925050506040516020818303038152906040529150506108a8565b6009611ac784612357565b6040516020018083805460018160011615610100020316600290048015611b255780601f10611b03576101008083540402835291820191611b25565b820191906000526020600020905b815481529060010190602001808311611b11575b5050825160208401908083835b60208310611b6f57805182527fffffffffffffffffffffffffffffffffffffffffffffffffffffffffffffffe09092019160209182019101611b32565b6001836020036101000a03801982511681845116808217855250505050505090500192505050604051602081830303815290604052915050919050565b60ff166000908152600d602052604090205490565b611bc9611f97565b600a546001600160a01b03908116911614611c2b576040805162461bcd60e51b815260206004820181905260248201527f4f776e61626c653a2063616c6c6572206973206e6f7420746865206f776e6572604482015290519081900360640190fd5b611c3d816001600160a01b031661223a565b611c8e576040805162461bcd60e51b815260206004820152601a60248201527f49742773206e6f7420636f6e7472616374206164647265737321000000000000604482015290519081900360640190fd5b611c9f600e8263ffffffff61244f16565b5050565b600081611caf81611f84565b611d00576040805162461bcd60e51b815260206004820152601660248201527f4974206973206e6f742061204e465420746f6b656e2100000000000000000000604482015290519081900360640190fd5b50506000908152600b602052604090205460ff1690565b611d1f611f97565b600a546001600160a01b03908116911614611d81576040805162461bcd60e51b815260206004820181905260248201527f4f776e61626c653a2063616c6c6572206973206e6f7420746865206f776e6572604482015290519081900360640190fd5b611d93816001600160a01b031661223a565b611de4576040805162461bcd60e51b815260206004820152601a60248201527f49742773206e6f7420636f6e7472616374206164647265737321000000000000604482015290519081900360640190fd5b601080547fffffffffffffffffffffffff0000000000000000000000000000000000000000166001600160a01b0392909216919091179055565b6001600160a01b03918216600090815260056020908152604080832093909416825291909152205460ff1690565b611e54611f97565b600a546001600160a01b03908116911614611eb6576040805162461bcd60e51b815260206004820181905260248201527f4f776e61626c653a2063616c6c6572206973206e6f7420746865206f776e6572604482015290519081900360640190fd5b6001600160a01b038116611efb5760405162461bcd60e51b8152600401808060200182810382526026815260200180612e0c6026913960400191505060405180910390fd5b600a546040516001600160a01b038084169216907f8be0079c531659141344cd1fd0a4f28419497f9722a3daafe3b4186f6b6457e090600090a3600a80547fffffffffffffffffffffffff0000000000000000000000000000000000000000166001600160a01b0392909216919091179055565b6000610d96836001600160a01b038416612464565b6000610d9960028363ffffffff61247c16565b3390565b600081815260046020526040902080547fffffffffffffffffffffffff0000000000000000000000000000000000000000166001600160a01b0384169081179091558190611fe882611294565b6001600160a01b03167f8c5be1e5ebec7d5bd14f71427d1e84f3dd0314c0f7b2291e5b200ac8c7c3b92560405160405180910390a45050565b6000610d9982612488565b600061203782611f84565b6120725760405162461bcd60e51b815260040180806020018281038252602c815260200180612e56602c913960400191505060405180910390fd5b600061207d83611294565b9050806001600160a01b0316846001600160a01b031614806120b85750836001600160a01b03166120ad84610a89565b6001600160a01b0316145b806120c857506120c88185611e1e565b949350505050565b826001600160a01b03166120e382611294565b6001600160a01b0316146121285760405162461bcd60e51b8152600401808060200182810382526029815260200180612f876029913960400191505060405180910390fd5b6001600160a01b03821661216d5760405162461bcd60e51b8152600401808060200182810382526024815260200180612e326024913960400191505060405180910390fd5b612178838383610bc1565b612183600082611f9b565b6001600160a01b03831660009081526001602052604090206121ab908263ffffffff61248c16565b506001600160a01b03821660009081526001602052604090206121d4908263ffffffff61249816565b506121e76002828463ffffffff6124a416565b5080826001600160a01b0316846001600160a01b03167fddf252ad1be2c89b69c2b068fc378daa952ba7f163c4a11628f55a4df523b3ef60405160405180910390a4505050565b6000610d9683836124ba565b3b151590565b6000610d96836001600160a01b03841661251e565b600080808061226486866125e4565b9097909650945050505050565b600061227e84848461265f565b90505b9392505050565b611c9f828260405180602001604052806000815250612729565b6122ab82611f84565b6122e65760405162461bcd60e51b815260040180806020018281038252602c815260200180612f5b602c913960400191505060405180910390fd5b60008281526008602090815260409091208251610bc192840190612d1f565b6123108484846120d0565b61231c8484848461277b565b6118c35760405162461bcd60e51b8152600401808060200182810382526032815260200180612dda6032913960400191505060405180910390fd5b606081612398575060408051808201909152600181527f300000000000000000000000000000000000000000000000000000000000000060208201526108a8565b8160005b81156123b057600101600a8204915061239c565b6060816040519080825280601f01601f1916602001820160405280156123dd576020820181803883390190505b50859350905060001982015b831561244657600a840660300160f81b8282806001900393508151811061240c57fe5b60200101907effffffffffffffffffffffffffffffffffffffffffffffffffffffffffffff1916908160001a905350600a840493506123e9565b50949350505050565b6000610d96836001600160a01b03841661296f565b60009081526001919091016020526040902054151590565b6000610d968383612464565b5490565b6000610d96838361251e565b6000610d96838361296f565b600061227e84846001600160a01b0385166129b9565b815460009082106124fc5760405162461bcd60e51b8152600401808060200182810382526022815260200180612db86022913960400191505060405180910390fd5b82600001828154811061250b57fe5b9060005260206000200154905092915050565b600081815260018301602052604081205480156125da578354600019808301919081019060009087908390811061255157fe5b906000526020600020015490508087600001848154811061256e57fe5b60009182526020808320909101929092558281526001898101909252604090209084019055865487908061259e57fe5b60019003818190600052602060002001600090559055866001016000878152602001908152602001600020600090556001945050505050610d99565b6000915050610d99565b8154600090819083106126285760405162461bcd60e51b8152600401808060200182810382526022815260200180612f0d6022913960400191505060405180910390fd5b600084600001848154811061263957fe5b906000526020600020906002020190508060000154816001015492509250509250929050565b600082815260018401602052604081205482816126fa5760405162461bcd60e51b81526004018080602001828103825283818151815260200191508051906020019080838360005b838110156126bf5781810151838201526020016126a7565b50505050905090810190601f1680156126ec5780820380516001836020036101000a031916815260200191505b509250505060405180910390fd5b5084600001600182038154811061270d57fe5b9060005260206000209060020201600101549150509392505050565b6127338383612a50565b612740600084848461277b565b610bc15760405162461bcd60e51b8152600401808060200182810382526032815260200180612dda6032913960400191505060405180910390fd5b600061278f846001600160a01b031661223a565b61279b575060016120c8565b60606129047f150b7a02000000000000000000000000000000000000000000000000000000006127c9611f97565b88878760405160240180856001600160a01b03166001600160a01b03168152602001846001600160a01b03166001600160a01b0316815260200183815260200180602001828103825283818151815260200191508051906020019080838360005b8381101561284257818101518382015260200161282a565b50505050905090810190601f16801561286f5780820380516001836020036101000a031916815260200191505b5095505050505050604051602081830303815290604052907bffffffffffffffffffffffffffffffffffffffffffffffffffffffff19166020820180517bffffffffffffffffffffffffffffffffffffffffffffffffffffffff8381831617835250505050604051806060016040528060328152602001612dda603291396001600160a01b038816919063ffffffff612b8a16565b9050600081806020019051602081101561291d57600080fd5b50517fffffffff00000000000000000000000000000000000000000000000000000000167f150b7a02000000000000000000000000000000000000000000000000000000001492505050949350505050565b600061297b8383612464565b6129b157508154600181810184556000848152602080822090930184905584548482528286019093526040902091909155610d99565b506000610d99565b600082815260018401602052604081205480612a1e575050604080518082018252838152602080820184815286546001818101895560008981528481209551600290930290950191825591519082015586548684528188019092529290912055612281565b82856000016001830381548110612a3157fe5b9060005260206000209060020201600101819055506000915050612281565b6001600160a01b038216612aab576040805162461bcd60e51b815260206004820181905260248201527f4552433732313a206d696e7420746f20746865207a65726f2061646472657373604482015290519081900360640190fd5b612ab481611f84565b15612b06576040805162461bcd60e51b815260206004820152601c60248201527f4552433732313a20746f6b656e20616c7265616479206d696e74656400000000604482015290519081900360640190fd5b612b1260008383610bc1565b6001600160a01b0382166000908152600160205260409020612b3a908263ffffffff61249816565b50612b4d6002828463ffffffff6124a416565b5060405181906001600160a01b038416906000907fddf252ad1be2c89b69c2b068fc378daa952ba7f163c4a11628f55a4df523b3ef908290a45050565b606061227e84846000856060612b9f8561223a565b612bf0576040805162461bcd60e51b815260206004820152601d60248201527f416464726573733a2063616c6c20746f206e6f6e2d636f6e7472616374000000604482015290519081900360640190fd5b60006060866001600160a01b031685876040518082805190602001908083835b60208310612c4d57805182527fffffffffffffffffffffffffffffffffffffffffffffffffffffffffffffffe09092019160209182019101612c10565b6001836020036101000a03801982511681845116808217855250505050505090500191505060006040518083038185875af1925050503d8060008114612caf576040519150601f19603f3d011682016040523d82523d6000602084013e612cb4565b606091505b50915091508115612cc85791506120c89050565b805115612cd85780518082602001fd5b60405162461bcd60e51b81526020600482018181528651602484015286518793919283926044019190850190808383600083156126bf5781810151838201526020016126a7565b828054600181600116156101000203166002900490600052602060002090601f016020900481019282601f10612d6057805160ff1916838001178555612d8d565b82800160010185558215612d8d579182015b82811115612d8d578251825591602001919060010190612d72565b50612d99929150612d9d565b5090565b610a8691905b80821115612d995760008155600101612da356fe456e756d657261626c655365743a20696e646578206f7574206f6620626f756e64734552433732313a207472616e7366657220746f206e6f6e20455243373231526563656976657220696d706c656d656e7465724f776e61626c653a206e6577206f776e657220697320746865207a65726f20616464726573734552433732313a207472616e7366657220746f20746865207a65726f20616464726573734552433732313a206f70657261746f7220717565727920666f72206e6f6e6578697374656e7420746f6b656e4552433732313a20617070726f76652063616c6c6572206973206e6f74206f776e6572206e6f7220617070726f76656420666f7220616c6c4552433732313a2062616c616e636520717565727920666f7220746865207a65726f20616464726573734552433732313a206f776e657220717565727920666f72206e6f6e6578697374656e7420746f6b656e456e756d657261626c654d61703a20696e646578206f7574206f6620626f756e64734552433732313a20617070726f76656420717565727920666f72206e6f6e6578697374656e7420746f6b656e4552433732314d657461646174613a2055524920736574206f66206e6f6e6578697374656e7420746f6b656e4552433732313a207472616e73666572206f6620746f6b656e2074686174206973206e6f74206f776e4552433732314d657461646174613a2055524920717565727920666f72206e6f6e6578697374656e7420746f6b656e4552433732313a20617070726f76616c20746f2063757272656e74206f776e65724552433732313a207472616e736665722063616c6c6572206973206e6f74206f776e6572206e6f7220617070726f766564a2646970667358221220134919877c7b8c4f300412c739119d676f7479e54029df50bce12cc869b3d0e164736f6c63430006020033",
  "source": "pragma solidity ^0.6.0;\n\nimport \"../common/hotpotinterface.sol\";\nimport \"@openzeppelin/contracts/token/ERC721/ERC721.sol\";\nimport \"@openzeppelin/contracts/access/Ownable.sol\";\nimport \"@openzeppelin/contracts/utils/Address.sol\";\nimport \"@openzeppelin/contracts/utils/EnumerableSet.sol\";\n\n\ncontract NFTokenHotPot is ERC721, IHotPot, Ownable {\n    using Address for address;\n    using EnumerableSet for EnumerableSet.AddressSet;\n\n    mapping(uint256 => uint8) internal grades;\n    mapping(uint256 => uint256) internal useTimes;\n    mapping(uint8 => uint256) internal gradeCount;\n\n    EnumerableSet.AddressSet internal poolContractSet;\n\n    address public rewardContract;\n    address public exchangeContract;\n    address public gachaContract;\n\n    uint constant public MAX_NUM = 1000;\n\n    event UseTicket(\n        address indexed owner,\n        uint256 indexed useTime,\n        uint256 indexed tokenId\n    );\n\n    event TicketUpdate(\n        address indexed owner,\n        uint8 indexed grade,\n        uint256 indexed tokenId\n    );\n\n    constructor(string memory name, string memory symbol)\n        public\n        ERC721(name, symbol)\n    {\n        \n    }\n\n    modifier validNFToken(uint256 _tokenId) {\n        require(_exists(_tokenId), \"It is not a NFT token!\");\n        _;\n    }\n\n    modifier onlyCanUse() {\n        address sender = msg.sender;\n\n        bool canUse = false;\n\n        if (sender == rewardContract) {\n            canUse = true;\n        }else{\n            canUse = poolContractSet.contains(sender);\n        }\n\n        require(canUse, \"No permission!\");\n        _;\n    }\n\n    modifier onlyCanMint() {\n        require(msg.sender == gachaContract, \"Only gacha contract can mint!\");\n        _;\n    }\n\n    /**\n     * @dev Mints a new NFT.\n     * @param _to The address that will own the minted NFT.\n     * @param _tokenId of the NFT to be minted by the msg.sender.\n     * @param _uri String representing RFC 3986 URI.\n     */\n    function mint(\n        address _to,\n        uint256 _tokenId,\n        uint8 _grade,\n        string calldata _uri\n    ) external override onlyCanMint {\n        require(totalSupply()<=MAX_NUM,\"The max supply is 1000!\");\n        _safeMint(_to, _tokenId);\n        _setTokenURI(_tokenId, _uri);\n        grades[_tokenId] = _grade;\n        uint256 count = gradeCount[_grade] + 1;\n        gradeCount[_grade] = count;\n    }\n\n    function getGradeCount(uint8 _grade)\n        external\n        override\n        view\n        returns (uint256)\n    {\n        return gradeCount[_grade];\n    }\n\n    function getGrade(uint256 _tokenId)\n        external\n        override\n        view\n        validNFToken(_tokenId)\n        returns (uint8)\n    {\n        return grades[_tokenId];\n    }\n\n    function update(uint256 _tokenId, uint8 _grade)\n        external\n        override\n        validNFToken(_tokenId)\n    {\n        require(\n            msg.sender == exchangeContract,\n            \"Only exchange can update NFT!\"\n        );\n        require(_grade > this.getGrade(_tokenId), \"Update fail!\");\n        grades[_tokenId] = _grade;\n        emit TicketUpdate(ownerOf(_tokenId),_grade,_tokenId);\n    }\n\n    function getUseTime(uint256 _tokenId)\n        external\n        override\n        view\n        validNFToken(_tokenId)\n        returns (uint256)\n    {\n        return useTimes[_tokenId];\n    }\n\n    function setExchange(address _addr) external onlyOwner {\n        require(_addr.isContract(), \"It's not contract address!\");\n        exchangeContract = _addr;\n    }\n\n    function setGacha(address _addr) external onlyOwner {\n        require(_addr.isContract(), \"It's not contract address!\");\n        gachaContract = _addr;\n    }\n\n    function setReward(address reward) external onlyOwner {\n        require(reward.isContract(), \"It's not contract address!\");\n        rewardContract = reward;\n    }\n\n    function addPool(address pool) external onlyOwner {\n        require(pool.isContract(), \"It's not contract address!\");\n        poolContractSet.add(pool);\n    }\n\n    function removePool(address pool) external onlyOwner {\n        require(pool.isContract(), \"It's not contract address!\");\n\n        require(poolContractSet.remove(pool),\"This pool is not exist!\");\n    }\n\n    function setUse(uint256 _tokenId)\n        external\n        override\n        onlyCanUse\n        validNFToken(_tokenId)\n    {\n        useTimes[_tokenId] = now;\n        // address _owner = ownerOf(_tokenId);\n        emit UseTicket(ownerOf(_tokenId), now, _tokenId);\n    }\n\n    function setUse(uint256 _tokenId, uint256 timestamp)\n        external\n        override\n        onlyCanUse\n        validNFToken(_tokenId)\n    {\n        require(timestamp > now);\n        useTimes[_tokenId] = timestamp;\n        // address _owner = ownerOf(_tokenId);\n        emit UseTicket(ownerOf(_tokenId), timestamp, _tokenId);\n    }\n}\n",
  "sourcePath": "/Users/junhu/git/hotpotcontract/truffle/contracts/nft/hotpot-token.sol",
  "compiler": {
    "name": "solc",
    "version": "0.6.2+commit.bacdbe57.Emscripten.clang"
  },
  "schemaVersion": "3.3.0",
  "updatedAt": "2020-10-29T06:34:33.941Z",
  "networkType": "ethereum",
  "devdoc": {
    "methods": {
      "approve(address,uint256)": {
        "details": "See {IERC721-approve}."
      },
      "balanceOf(address)": {
        "details": "See {IERC721-balanceOf}."
      },
      "baseURI()": {
        "details": "Returns the base URI set via {_setBaseURI}. This will be automatically added as a prefix in {tokenURI} to each token's URI, or to the token ID if no specific URI is set for that token ID."
      },
      "getApproved(uint256)": {
        "details": "See {IERC721-getApproved}."
      },
      "isApprovedForAll(address,address)": {
        "details": "See {IERC721-isApprovedForAll}."
      },
      "mint(address,uint256,uint8,string)": {
        "details": "Mints a new NFT.",
        "params": {
          "_to": "The address that will own the minted NFT.",
          "_tokenId": "of the NFT to be minted by the msg.sender.",
          "_uri": "String representing RFC 3986 URI."
        }
      },
      "name()": {
        "details": "See {IERC721Metadata-name}."
      },
      "owner()": {
        "details": "Returns the address of the current owner."
      },
      "ownerOf(uint256)": {
        "details": "See {IERC721-ownerOf}."
      },
      "renounceOwnership()": {
        "details": "Leaves the contract without owner. It will not be possible to call `onlyOwner` functions anymore. Can only be called by the current owner.     * NOTE: Renouncing ownership will leave the contract without an owner, thereby removing any functionality that is only available to the owner."
      },
      "safeTransferFrom(address,address,uint256)": {
        "details": "See {IERC721-safeTransferFrom}."
      },
      "safeTransferFrom(address,address,uint256,bytes)": {
        "details": "See {IERC721-safeTransferFrom}."
      },
      "setApprovalForAll(address,bool)": {
        "details": "See {IERC721-setApprovalForAll}."
      },
      "supportsInterface(bytes4)": {
        "details": "See {IERC165-supportsInterface}.     * Time complexity O(1), guaranteed to always use less than 30 000 gas."
      },
      "symbol()": {
        "details": "See {IERC721Metadata-symbol}."
      },
      "tokenByIndex(uint256)": {
        "details": "See {IERC721Enumerable-tokenByIndex}."
      },
      "tokenOfOwnerByIndex(address,uint256)": {
        "details": "See {IERC721Enumerable-tokenOfOwnerByIndex}."
      },
      "tokenURI(uint256)": {
        "details": "See {IERC721Metadata-tokenURI}."
      },
      "totalSupply()": {
        "details": "See {IERC721Enumerable-totalSupply}."
      },
      "transferFrom(address,address,uint256)": {
        "details": "See {IERC721-transferFrom}."
      },
      "transferOwnership(address)": {
        "details": "Transfers ownership of the contract to a new account (`newOwner`). Can only be called by the current owner."
      }
    }
  },
  "userdoc": {
    "methods": {}
  }
}