{
  "contractName": "NFTokenHotPot",
  "abi": [
    {
      "inputs": [
        {
          "internalType": "string",
          "name": "name",
          "type": "string"
        },
        {
          "internalType": "string",
          "name": "symbol",
          "type": "string"
        }
      ],
      "stateMutability": "nonpayable",
      "type": "constructor"
    },
    {
      "anonymous": false,
      "inputs": [
        {
          "indexed": true,
          "internalType": "address",
          "name": "owner",
          "type": "address"
        },
        {
          "indexed": true,
          "internalType": "address",
          "name": "approved",
          "type": "address"
        },
        {
          "indexed": true,
          "internalType": "uint256",
          "name": "tokenId",
          "type": "uint256"
        }
      ],
      "name": "Approval",
      "type": "event"
    },
    {
      "anonymous": false,
      "inputs": [
        {
          "indexed": true,
          "internalType": "address",
          "name": "owner",
          "type": "address"
        },
        {
          "indexed": true,
          "internalType": "address",
          "name": "operator",
          "type": "address"
        },
        {
          "indexed": false,
          "internalType": "bool",
          "name": "approved",
          "type": "bool"
        }
      ],
      "name": "ApprovalForAll",
      "type": "event"
    },
    {
      "anonymous": false,
      "inputs": [
        {
          "indexed": true,
          "internalType": "address",
          "name": "previousOwner",
          "type": "address"
        },
        {
          "indexed": true,
          "internalType": "address",
          "name": "newOwner",
          "type": "address"
        }
      ],
      "name": "OwnershipTransferred",
      "type": "event"
    },
    {
      "anonymous": false,
      "inputs": [
        {
          "indexed": true,
          "internalType": "address",
          "name": "from",
          "type": "address"
        },
        {
          "indexed": true,
          "internalType": "address",
          "name": "to",
          "type": "address"
        },
        {
          "indexed": true,
          "internalType": "uint256",
          "name": "tokenId",
          "type": "uint256"
        }
      ],
      "name": "Transfer",
      "type": "event"
    },
    {
      "anonymous": false,
      "inputs": [
        {
          "indexed": true,
          "internalType": "address",
          "name": "_owner",
          "type": "address"
        },
        {
          "indexed": true,
          "internalType": "uint256",
          "name": "_useTime",
          "type": "uint256"
        },
        {
          "indexed": true,
          "internalType": "uint256",
          "name": "_tokenId",
          "type": "uint256"
        }
      ],
      "name": "UseTicket",
      "type": "event"
    },
    {
      "inputs": [],
      "name": "MAX_NUM",
      "outputs": [
        {
          "internalType": "uint256",
          "name": "",
          "type": "uint256"
        }
      ],
      "stateMutability": "view",
      "type": "function",
      "constant": true
    },
    {
      "inputs": [
        {
          "internalType": "address",
          "name": "to",
          "type": "address"
        },
        {
          "internalType": "uint256",
          "name": "tokenId",
          "type": "uint256"
        }
      ],
      "name": "approve",
      "outputs": [],
      "stateMutability": "nonpayable",
      "type": "function"
    },
    {
      "inputs": [
        {
          "internalType": "address",
          "name": "owner",
          "type": "address"
        }
      ],
      "name": "balanceOf",
      "outputs": [
        {
          "internalType": "uint256",
          "name": "",
          "type": "uint256"
        }
      ],
      "stateMutability": "view",
      "type": "function",
      "constant": true
    },
    {
      "inputs": [],
      "name": "baseURI",
      "outputs": [
        {
          "internalType": "string",
          "name": "",
          "type": "string"
        }
      ],
      "stateMutability": "view",
      "type": "function",
      "constant": true
    },
    {
      "inputs": [],
      "name": "exchangeContract",
      "outputs": [
        {
          "internalType": "address",
          "name": "",
          "type": "address"
        }
      ],
      "stateMutability": "view",
      "type": "function",
      "constant": true
    },
    {
      "inputs": [],
      "name": "gachaContract",
      "outputs": [
        {
          "internalType": "address",
          "name": "",
          "type": "address"
        }
      ],
      "stateMutability": "view",
      "type": "function",
      "constant": true
    },
    {
      "inputs": [
        {
          "internalType": "uint256",
          "name": "tokenId",
          "type": "uint256"
        }
      ],
      "name": "getApproved",
      "outputs": [
        {
          "internalType": "address",
          "name": "",
          "type": "address"
        }
      ],
      "stateMutability": "view",
      "type": "function",
      "constant": true
    },
    {
      "inputs": [
        {
          "internalType": "address",
          "name": "owner",
          "type": "address"
        },
        {
          "internalType": "address",
          "name": "operator",
          "type": "address"
        }
      ],
      "name": "isApprovedForAll",
      "outputs": [
        {
          "internalType": "bool",
          "name": "",
          "type": "bool"
        }
      ],
      "stateMutability": "view",
      "type": "function",
      "constant": true
    },
    {
      "inputs": [],
      "name": "name",
      "outputs": [
        {
          "internalType": "string",
          "name": "",
          "type": "string"
        }
      ],
      "stateMutability": "view",
      "type": "function",
      "constant": true
    },
    {
      "inputs": [],
      "name": "owner",
      "outputs": [
        {
          "internalType": "address",
          "name": "",
          "type": "address"
        }
      ],
      "stateMutability": "view",
      "type": "function",
      "constant": true
    },
    {
      "inputs": [
        {
          "internalType": "uint256",
          "name": "tokenId",
          "type": "uint256"
        }
      ],
      "name": "ownerOf",
      "outputs": [
        {
          "internalType": "address",
          "name": "",
          "type": "address"
        }
      ],
      "stateMutability": "view",
      "type": "function",
      "constant": true
    },
    {
      "inputs": [
        {
          "internalType": "uint256",
          "name": "",
          "type": "uint256"
        }
      ],
      "name": "poolContracts",
      "outputs": [
        {
          "internalType": "address",
          "name": "",
          "type": "address"
        }
      ],
      "stateMutability": "view",
      "type": "function",
      "constant": true
    },
    {
      "inputs": [],
      "name": "renounceOwnership",
      "outputs": [],
      "stateMutability": "nonpayable",
      "type": "function"
    },
    {
      "inputs": [],
      "name": "rentalContract",
      "outputs": [
        {
          "internalType": "address",
          "name": "",
          "type": "address"
        }
      ],
      "stateMutability": "view",
      "type": "function",
      "constant": true
    },
    {
      "inputs": [],
      "name": "rewardContract",
      "outputs": [
        {
          "internalType": "address",
          "name": "",
          "type": "address"
        }
      ],
      "stateMutability": "view",
      "type": "function",
      "constant": true
    },
    {
      "inputs": [
        {
          "internalType": "address",
          "name": "from",
          "type": "address"
        },
        {
          "internalType": "address",
          "name": "to",
          "type": "address"
        },
        {
          "internalType": "uint256",
          "name": "tokenId",
          "type": "uint256"
        }
      ],
      "name": "safeTransferFrom",
      "outputs": [],
      "stateMutability": "nonpayable",
      "type": "function"
    },
    {
      "inputs": [
        {
          "internalType": "address",
          "name": "from",
          "type": "address"
        },
        {
          "internalType": "address",
          "name": "to",
          "type": "address"
        },
        {
          "internalType": "uint256",
          "name": "tokenId",
          "type": "uint256"
        },
        {
          "internalType": "bytes",
          "name": "_data",
          "type": "bytes"
        }
      ],
      "name": "safeTransferFrom",
      "outputs": [],
      "stateMutability": "nonpayable",
      "type": "function"
    },
    {
      "inputs": [
        {
          "internalType": "address",
          "name": "operator",
          "type": "address"
        },
        {
          "internalType": "bool",
          "name": "approved",
          "type": "bool"
        }
      ],
      "name": "setApprovalForAll",
      "outputs": [],
      "stateMutability": "nonpayable",
      "type": "function"
    },
    {
      "inputs": [
        {
          "internalType": "bytes4",
          "name": "interfaceId",
          "type": "bytes4"
        }
      ],
      "name": "supportsInterface",
      "outputs": [
        {
          "internalType": "bool",
          "name": "",
          "type": "bool"
        }
      ],
      "stateMutability": "view",
      "type": "function",
      "constant": true
    },
    {
      "inputs": [],
      "name": "symbol",
      "outputs": [
        {
          "internalType": "string",
          "name": "",
          "type": "string"
        }
      ],
      "stateMutability": "view",
      "type": "function",
      "constant": true
    },
    {
      "inputs": [
        {
          "internalType": "uint256",
          "name": "index",
          "type": "uint256"
        }
      ],
      "name": "tokenByIndex",
      "outputs": [
        {
          "internalType": "uint256",
          "name": "",
          "type": "uint256"
        }
      ],
      "stateMutability": "view",
      "type": "function",
      "constant": true
    },
    {
      "inputs": [
        {
          "internalType": "address",
          "name": "owner",
          "type": "address"
        },
        {
          "internalType": "uint256",
          "name": "index",
          "type": "uint256"
        }
      ],
      "name": "tokenOfOwnerByIndex",
      "outputs": [
        {
          "internalType": "uint256",
          "name": "",
          "type": "uint256"
        }
      ],
      "stateMutability": "view",
      "type": "function",
      "constant": true
    },
    {
      "inputs": [
        {
          "internalType": "uint256",
          "name": "tokenId",
          "type": "uint256"
        }
      ],
      "name": "tokenURI",
      "outputs": [
        {
          "internalType": "string",
          "name": "",
          "type": "string"
        }
      ],
      "stateMutability": "view",
      "type": "function",
      "constant": true
    },
    {
      "inputs": [],
      "name": "totalSupply",
      "outputs": [
        {
          "internalType": "uint256",
          "name": "",
          "type": "uint256"
        }
      ],
      "stateMutability": "view",
      "type": "function",
      "constant": true
    },
    {
      "inputs": [
        {
          "internalType": "address",
          "name": "from",
          "type": "address"
        },
        {
          "internalType": "address",
          "name": "to",
          "type": "address"
        },
        {
          "internalType": "uint256",
          "name": "tokenId",
          "type": "uint256"
        }
      ],
      "name": "transferFrom",
      "outputs": [],
      "stateMutability": "nonpayable",
      "type": "function"
    },
    {
      "inputs": [
        {
          "internalType": "address",
          "name": "newOwner",
          "type": "address"
        }
      ],
      "name": "transferOwnership",
      "outputs": [],
      "stateMutability": "nonpayable",
      "type": "function"
    },
    {
      "inputs": [
        {
          "internalType": "address",
          "name": "_to",
          "type": "address"
        },
        {
          "internalType": "uint256",
          "name": "_tokenId",
          "type": "uint256"
        },
        {
          "internalType": "uint8",
          "name": "_grade",
          "type": "uint8"
        },
        {
          "internalType": "string",
          "name": "_uri",
          "type": "string"
        }
      ],
      "name": "mint",
      "outputs": [],
      "stateMutability": "nonpayable",
      "type": "function"
    },
    {
      "inputs": [
        {
          "internalType": "uint8",
          "name": "_grade",
          "type": "uint8"
        }
      ],
      "name": "getGradeCount",
      "outputs": [
        {
          "internalType": "uint256",
          "name": "",
          "type": "uint256"
        }
      ],
      "stateMutability": "view",
      "type": "function",
      "constant": true
    },
    {
      "inputs": [
        {
          "internalType": "uint256",
          "name": "_tokenId",
          "type": "uint256"
        }
      ],
      "name": "getGrade",
      "outputs": [
        {
          "internalType": "uint8",
          "name": "",
          "type": "uint8"
        }
      ],
      "stateMutability": "view",
      "type": "function",
      "constant": true
    },
    {
      "inputs": [
        {
          "internalType": "uint256",
          "name": "_tokenId",
          "type": "uint256"
        },
        {
          "internalType": "uint8",
          "name": "_grade",
          "type": "uint8"
        }
      ],
      "name": "update",
      "outputs": [],
      "stateMutability": "nonpayable",
      "type": "function"
    },
    {
      "inputs": [
        {
          "internalType": "uint256",
          "name": "_tokenId",
          "type": "uint256"
        }
      ],
      "name": "getUseTime",
      "outputs": [
        {
          "internalType": "uint256",
          "name": "",
          "type": "uint256"
        }
      ],
      "stateMutability": "view",
      "type": "function",
      "constant": true
    },
    {
      "inputs": [
        {
          "internalType": "address",
          "name": "_addr",
          "type": "address"
        }
      ],
      "name": "setExchange",
      "outputs": [],
      "stateMutability": "nonpayable",
      "type": "function"
    },
    {
      "inputs": [
        {
          "internalType": "address",
          "name": "_addr",
          "type": "address"
        }
      ],
      "name": "setGacha",
      "outputs": [],
      "stateMutability": "nonpayable",
      "type": "function"
    },
    {
      "inputs": [
        {
          "internalType": "address",
          "name": "reward",
          "type": "address"
        }
      ],
      "name": "setReward",
      "outputs": [],
      "stateMutability": "nonpayable",
      "type": "function"
    },
    {
      "inputs": [
        {
          "internalType": "address",
          "name": "_addr",
          "type": "address"
        }
      ],
      "name": "setRental",
      "outputs": [],
      "stateMutability": "nonpayable",
      "type": "function"
    },
    {
      "inputs": [
        {
          "internalType": "address",
          "name": "pool",
          "type": "address"
        }
      ],
      "name": "addPool",
      "outputs": [],
      "stateMutability": "nonpayable",
      "type": "function"
    },
    {
      "inputs": [
        {
          "internalType": "address",
          "name": "pool",
          "type": "address"
        }
      ],
      "name": "removePool",
      "outputs": [],
      "stateMutability": "nonpayable",
      "type": "function"
    },
    {
      "inputs": [
        {
          "internalType": "uint256",
          "name": "_tokenId",
          "type": "uint256"
        },
        {
          "internalType": "uint256",
          "name": "timestamp",
          "type": "uint256"
        }
      ],
      "name": "setUse",
      "outputs": [],
      "stateMutability": "nonpayable",
      "type": "function"
    },
    {
      "inputs": [
        {
          "internalType": "uint256",
          "name": "_tokenId",
          "type": "uint256"
        }
      ],
      "name": "setUse",
      "outputs": [],
      "stateMutability": "nonpayable",
      "type": "function"
    }
  ],
  "bytecode": "0x60806040523480156200001157600080fd5b506040516200368038038062003680833981810160405260408110156200003757600080fd5b81019080805160405193929190846401000000008211156200005857600080fd5b9083019060208201858111156200006e57600080fd5b82516401000000008111828201881017156200008957600080fd5b82525081516020918201929091019080838360005b83811015620000b85781810151838201526020016200009e565b50505050905090810190601f168015620000e65780820380516001836020036101000a031916815260200191505b50604052602001805160405193929190846401000000008211156200010a57600080fd5b9083019060208201858111156200012057600080fd5b82516401000000008111828201881017156200013b57600080fd5b82525081516020918201929091019080838360005b838110156200016a57818101518382015260200162000150565b50505050905090810190601f168015620001985780820380516001836020036101000a031916815260200191505b5060405250839150829050620001be6301ffc9a760e01b6001600160e01b03620002a916565b8151620001d390600690602085019062000333565b508051620001e990600790602084019062000333565b50620002056380ac58cd60e01b6001600160e01b03620002a916565b62000220635b5e139f60e01b6001600160e01b03620002a916565b6200023b63780e9d6360e01b6001600160e01b03620002a916565b5060009050620002536001600160e01b036200032e16565b600a80546001600160a01b0319166001600160a01b038316908117909155604051919250906000907f8be0079c531659141344cd1fd0a4f28419497f9722a3daafe3b4186f6b6457e0908290a3505050620003d5565b6001600160e01b0319808216141562000309576040805162461bcd60e51b815260206004820152601c60248201527f4552433136353a20696e76616c696420696e7465726661636520696400000000604482015290519081900360640190fd5b6001600160e01b0319166000908152602081905260409020805460ff19166001179055565b335b90565b828054600181600116156101000203166002900490600052602060002090601f016020900481019282601f106200037657805160ff1916838001178555620003a6565b82800160010185558215620003a6579182015b82811115620003a657825182559160200191906001019062000389565b50620003b4929150620003b8565b5090565b6200033091905b80821115620003b45760008155600101620003bf565b61329b80620003e56000396000f3fe608060405234801561001057600080fd5b50600436106102ad5760003560e01c8063644acc601161017b578063b2305d6a116100d8578063e1e0485e1161008c578063e8f4e9d411610071578063e8f4e9d4146108b2578063e985e9c5146108ba578063f2fde38b146108e8576102ad565b8063e1e0485e14610859578063e5932c401461088c576102ad565b8063c87b56dd116100bd578063c87b56dd146107f6578063d394dd7914610813578063d914cd4b14610833576102ad565b8063b2305d6a1461070a578063b88d4fde14610730576102ad565b8063715018a61161012f57806395d89b411161011457806395d89b41146106cc5780639d304e85146106d4578063a22cb465146106dc576102ad565b8063715018a6146106bc5780638da5cb5b146106c4576102ad565b80636c0360eb116101605780636c0360eb146106865780636ea69d621461068e57806370a0823114610696576102ad565b8063644acc60146105d157806367b1f5df14610660576102ad565b806323b872dd116102295780633f0a0797116101dd5780634f6ccce7116101c25780634f6ccce71461057a5780635840e659146105975780636352211e146105b4576102ad565b80633f0a07971461053c57806342842e0e14610544576102ad565b8063306a69481161020e578063306a6948146104ca5780633b7d0946146104f05780633c6bd5db14610516576102ad565b806323b872dd146104685780632f745c591461049e576102ad565b8063095ea7b31161028057806318160ddd1161026557806318160ddd146104295780631e3024fe1461044357806322142e6c1461044b576102ad565b8063095ea7b3146103e05780631810feb81461040c576102ad565b806301ffc9a7146102b257806303ab6e761461030557806306fdde031461032a578063081812fc146103a7575b600080fd5b6102f1600480360360208110156102c857600080fd5b50357fffffffff000000000000000000000000000000000000000000000000000000001661090e565b604080519115158252519081900360200190f35b6103286004803603604081101561031b57600080fd5b5080359060200135610949565b005b610332610abd565b6040805160208082528351818301528351919283929083019185019080838360005b8381101561036c578181015183820152602001610354565b50505050905090810190601f1680156103995780820380516001836020036101000a031916815260200191505b509250505060405180910390f35b6103c4600480360360208110156103bd57600080fd5b5035610b54565b604080516001600160a01b039092168252519081900360200190f35b610328600480360360408110156103f657600080fd5b506001600160a01b038135169060200135610bb6565b6103c46004803603602081101561042257600080fd5b5035610c91565b610431610cb8565b60408051918252519081900360200190f35b610431610cc9565b6103286004803603602081101561046157600080fd5b5035610ccf565b6103286004803603606081101561047e57600080fd5b506001600160a01b03813581169160208101359091169060400135610e38565b610431600480360360408110156104b457600080fd5b506001600160a01b038135169060200135610e8f565b610328600480360360408110156104e057600080fd5b508035906020013560ff16610ec0565b6103286004803603602081101561050657600080fd5b50356001600160a01b0316611085565b6103286004803603602081101561052c57600080fd5b50356001600160a01b03166111dc565b6103c46112e3565b6103286004803603606081101561055a57600080fd5b506001600160a01b038135811691602081013590911690604001356112f2565b6104316004803603602081101561059057600080fd5b503561130d565b610431600480360360208110156105ad57600080fd5b5035611329565b6103c4600480360360208110156105ca57600080fd5b503561139a565b610328600480360360808110156105e757600080fd5b6001600160a01b038235169160208101359160ff604083013516919081019060808101606082013564010000000081111561062157600080fd5b82018360208201111561063357600080fd5b8035906020019184600183028401116401000000008311171561065557600080fd5b5090925090506113c8565b6103286004803603602081101561067657600080fd5b50356001600160a01b0316611527565b61033261162e565b6103c461168f565b610431600480360360208110156106ac57600080fd5b50356001600160a01b031661169e565b610328611706565b6103c46117d2565b6103326117e1565b6103c4611842565b610328600480360360408110156106f257600080fd5b506001600160a01b0381351690602001351515611851565b6103286004803603602081101561072057600080fd5b50356001600160a01b0316611974565b6103286004803603608081101561074657600080fd5b6001600160a01b0382358116926020810135909116916040820135919081019060808101606082013564010000000081111561078157600080fd5b82018360208201111561079357600080fd5b803590602001918460018302840111640100000000831117156107b557600080fd5b91908080601f016020809104026020016040519081016040528093929190818152602001838380828437600092019190915250929550611a7b945050505050565b6103326004803603602081101561080c57600080fd5b5035611ad9565b6104316004803603602081101561082957600080fd5b503560ff16611dbc565b6103286004803603602081101561084957600080fd5b50356001600160a01b0316611dd1565b6108766004803603602081101561086f57600080fd5b5035611f08565b6040805160ff9092168252519081900360200190f35b610328600480360360208110156108a257600080fd5b50356001600160a01b0316611f7c565b6103c4612083565b6102f1600480360360408110156108d057600080fd5b506001600160a01b0381358116916020013516612092565b610328600480360360208110156108fe57600080fd5b50356001600160a01b03166120c0565b7fffffffff00000000000000000000000000000000000000000000000000000000811660009081526020819052604090205460ff165b919050565b600f5433906000906001600160a01b0316821415610965575060015b60005b600e548110156109ab57600e818154811061097f57fe5b6000918252602090912001546001600160a01b03848116911614156109a357600191505b600101610968565b50806109fe576040805162461bcd60e51b815260206004820152600e60248201527f4e6f207065726d697373696f6e21000000000000000000000000000000000000604482015290519081900360640190fd5b83610a08816121e3565b610a59576040805162461bcd60e51b815260206004820152601660248201527f4974206973206e6f742061204e465420746f6b656e2100000000000000000000604482015290519081900360640190fd5b428411610a6557600080fd5b6000858152600c602052604090208490558484610a818261139a565b6001600160a01b03167ff7cf4f010b9ba9eb8187d83b403259363e22a140e99f8fb721bcfdcf0bc16e1260405160405180910390a45050505050565b60068054604080516020601f6002600019610100600188161502019095169490940493840181900481028201810190925282815260609390929091830182828015610b495780601f10610b1e57610100808354040283529160200191610b49565b820191906000526020600020905b815481529060010190602001808311610b2c57829003601f168201915b505050505090505b90565b6000610b5f826121e3565b610b9a5760405162461bcd60e51b815260040180806020018281038252602c815260200180613164602c913960400191505060405180910390fd5b506000908152600460205260409020546001600160a01b031690565b6000610bc18261139a565b9050806001600160a01b0316836001600160a01b03161415610c145760405162461bcd60e51b81526004018080602001828103825260218152602001806132146021913960400191505060405180910390fd5b806001600160a01b0316610c266121f6565b6001600160a01b03161480610c475750610c4781610c426121f6565b612092565b610c825760405162461bcd60e51b81526004018080602001828103825260388152602001806130b76038913960400191505060405180910390fd5b610c8c83836121fa565b505050565b600e8181548110610c9e57fe5b6000918252602090912001546001600160a01b0316905081565b6000610cc46002612280565b905090565b6103e881565b600f5433906000906001600160a01b0316821415610ceb575060015b60005b600e54811015610d3157600e8181548110610d0557fe5b6000918252602090912001546001600160a01b0384811691161415610d2957600191505b600101610cee565b5080610d84576040805162461bcd60e51b815260206004820152600e60248201527f4e6f207065726d697373696f6e21000000000000000000000000000000000000604482015290519081900360640190fd5b82610d8e816121e3565b610ddf576040805162461bcd60e51b815260206004820152601660248201527f4974206973206e6f742061204e465420746f6b656e2100000000000000000000604482015290519081900360640190fd5b6000848152600c6020526040902042908190558490610dfd8261139a565b6001600160a01b03167ff7cf4f010b9ba9eb8187d83b403259363e22a140e99f8fb721bcfdcf0bc16e1260405160405180910390a450505050565b610e49610e436121f6565b8261228b565b610e845760405162461bcd60e51b81526004018080602001828103825260318152602001806132356031913960400191505060405180910390fd5b610c8c83838361232f565b6001600160a01b0382166000908152600160205260408120610eb7908363ffffffff61248d16565b90505b92915050565b81610eca816121e3565b610f1b576040805162461bcd60e51b815260206004820152601660248201527f4974206973206e6f742061204e465420746f6b656e2100000000000000000000604482015290519081900360640190fd5b6010546001600160a01b03163314610f7a576040805162461bcd60e51b815260206004820152601d60248201527f4f6e6c792065786368616e67652063616e20757064617465204e465421000000604482015290519081900360640190fd5b306001600160a01b031663e1e0485e846040518263ffffffff1660e01b81526004018082815260200191505060206040518083038186803b158015610fbe57600080fd5b505afa158015610fd2573d6000803e3d6000fd5b505050506040513d6020811015610fe857600080fd5b505160ff90811690831611611044576040805162461bcd60e51b815260206004820152600c60248201527f557064617465206661696c210000000000000000000000000000000000000000604482015290519081900360640190fd5b506000918252600b602052604090912080547fffffffffffffffffffffffffffffffffffffffffffffffffffffffffffffff001660ff909216919091179055565b61108d6121f6565b600a546001600160a01b039081169116146110ef576040805162461bcd60e51b815260206004820181905260248201527f4f776e61626c653a2063616c6c6572206973206e6f7420746865206f776e6572604482015290519081900360640190fd5b611101816001600160a01b0316612499565b611152576040805162461bcd60e51b815260206004820152601a60248201527f49742773206e6f7420636f6e7472616374206164647265737321000000000000604482015290519081900360640190fd5b60005b600e548110156111d757600e818154811061116c57fe5b6000918252602090912001546001600160a01b03838116911614156111cf57600e818154811061119857fe5b600091825260209091200180547fffffffffffffffffffffffff0000000000000000000000000000000000000000169055506111d9565b600101611155565b505b50565b6111e46121f6565b600a546001600160a01b03908116911614611246576040805162461bcd60e51b815260206004820181905260248201527f4f776e61626c653a2063616c6c6572206973206e6f7420746865206f776e6572604482015290519081900360640190fd5b611258816001600160a01b0316612499565b6112a9576040805162461bcd60e51b815260206004820152601a60248201527f49742773206e6f7420636f6e7472616374206164647265737321000000000000604482015290519081900360640190fd5b601280547fffffffffffffffffffffffff0000000000000000000000000000000000000000166001600160a01b0392909216919091179055565b6010546001600160a01b031681565b610c8c83838360405180602001604052806000815250611a7b565b60008061132160028463ffffffff61249f16565b509392505050565b600081611335816121e3565b611386576040805162461bcd60e51b815260206004820152601660248201527f4974206973206e6f742061204e465420746f6b656e2100000000000000000000604482015290519081900360640190fd5b50506000908152600c602052604090205490565b6000610eba82604051806060016040528060298152602001613119602991396002919063ffffffff6124bb16565b6012546001600160a01b03163314611427576040805162461bcd60e51b815260206004820152601d60248201527f4f6e6c7920676163686120636f6e74726163742063616e206d696e7421000000604482015290519081900360640190fd5b61143185856124d2565b6114718483838080601f0160208091040260200160405190810160405280939291908181526020018383808284376000920191909152506124ec92505050565b6000848152600b6020908152604080832080547fffffffffffffffffffffffffffffffffffffffffffffffffffffffffffffff001660ff88169081179091558352600d90915290208054600101908190556103e86114cd610cb8565b1061151f576040805162461bcd60e51b815260206004820152601760248201527f546865206d617820737570706c79206973203130303021000000000000000000604482015290519081900360640190fd5b505050505050565b61152f6121f6565b600a546001600160a01b03908116911614611591576040805162461bcd60e51b815260206004820181905260248201527f4f776e61626c653a2063616c6c6572206973206e6f7420746865206f776e6572604482015290519081900360640190fd5b6115a3816001600160a01b0316612499565b6115f4576040805162461bcd60e51b815260206004820152601a60248201527f49742773206e6f7420636f6e7472616374206164647265737321000000000000604482015290519081900360640190fd5b601080547fffffffffffffffffffffffff0000000000000000000000000000000000000000166001600160a01b0392909216919091179055565b60098054604080516020601f6002600019610100600188161502019095169490940493840181900481028201810190925282815260609390929091830182828015610b495780601f10610b1e57610100808354040283529160200191610b49565b600f546001600160a01b031681565b60006001600160a01b0382166116e55760405162461bcd60e51b815260040180806020018281038252602a8152602001806130ef602a913960400191505060405180910390fd5b6001600160a01b0382166000908152600160205260409020610eba90612280565b61170e6121f6565b600a546001600160a01b03908116911614611770576040805162461bcd60e51b815260206004820181905260248201527f4f776e61626c653a2063616c6c6572206973206e6f7420746865206f776e6572604482015290519081900360640190fd5b600a546040516000916001600160a01b0316907f8be0079c531659141344cd1fd0a4f28419497f9722a3daafe3b4186f6b6457e0908390a3600a80547fffffffffffffffffffffffff0000000000000000000000000000000000000000169055565b600a546001600160a01b031690565b60078054604080516020601f6002600019610100600188161502019095169490940493840181900481028201810190925282815260609390929091830182828015610b495780601f10610b1e57610100808354040283529160200191610b49565b6012546001600160a01b031681565b6118596121f6565b6001600160a01b0316826001600160a01b031614156118bf576040805162461bcd60e51b815260206004820152601960248201527f4552433732313a20617070726f766520746f2063616c6c657200000000000000604482015290519081900360640190fd5b80600560006118cc6121f6565b6001600160a01b0390811682526020808301939093526040918201600090812091871680825291909352912080547fffffffffffffffffffffffffffffffffffffffffffffffffffffffffffffff00169215159290921790915561192e6121f6565b60408051841515815290516001600160a01b0392909216917f17307eab39ab6107e8899845ad3d59bd9653f200f220920489ca2b5937696c319181900360200190a35050565b61197c6121f6565b600a546001600160a01b039081169116146119de576040805162461bcd60e51b815260206004820181905260248201527f4f776e61626c653a2063616c6c6572206973206e6f7420746865206f776e6572604482015290519081900360640190fd5b6119f0816001600160a01b0316612499565b611a41576040805162461bcd60e51b815260206004820152601a60248201527f49742773206e6f7420636f6e7472616374206164647265737321000000000000604482015290519081900360640190fd5b601180547fffffffffffffffffffffffff0000000000000000000000000000000000000000166001600160a01b0392909216919091179055565b611a8c611a866121f6565b8361228b565b611ac75760405162461bcd60e51b81526004018080602001828103825260318152602001806132356031913960400191505060405180910390fd5b611ad38484848461254f565b50505050565b6060611ae4826121e3565b611b1f5760405162461bcd60e51b815260040180806020018281038252602f8152602001806131e5602f913960400191505060405180910390fd5b60008281526008602090815260409182902080548351601f6002600019610100600186161502019093169290920491820184900484028101840190945280845260609392830182828015611bb45780601f10611b8957610100808354040283529160200191611bb4565b820191906000526020600020905b815481529060010190602001808311611b9757829003601f168201915b505060095493945050505060026000196101006001841615020190911604611bdd579050610944565b805115611ccc576009816040516020018083805460018160011615610100020316600290048015611c455780601f10611c23576101008083540402835291820191611c45565b820191906000526020600020905b815481529060010190602001808311611c31575b5050825160208401908083835b60208310611c8f57805182527fffffffffffffffffffffffffffffffffffffffffffffffffffffffffffffffe09092019160209182019101611c52565b6001836020036101000a03801982511681845116808217855250505050505090500192505050604051602081830303815290604052915050610944565b6009611cd7846125a1565b6040516020018083805460018160011615610100020316600290048015611d355780601f10611d13576101008083540402835291820191611d35565b820191906000526020600020905b815481529060010190602001808311611d21575b5050825160208401908083835b60208310611d7f57805182527fffffffffffffffffffffffffffffffffffffffffffffffffffffffffffffffe09092019160209182019101611d42565b6001836020036101000a03801982511681845116808217855250505050505090500192505050604051602081830303815290604052915050919050565b60ff166000908152600d602052604090205490565b611dd96121f6565b600a546001600160a01b03908116911614611e3b576040805162461bcd60e51b815260206004820181905260248201527f4f776e61626c653a2063616c6c6572206973206e6f7420746865206f776e6572604482015290519081900360640190fd5b611e4d816001600160a01b0316612499565b611e9e576040805162461bcd60e51b815260206004820152601a60248201527f49742773206e6f7420636f6e7472616374206164647265737321000000000000604482015290519081900360640190fd5b600e80546001810182556000919091527fbb7b4a454dc3493923482f07822329ed19e8244eff582cc204f8554c3620c3fd0180547fffffffffffffffffffffffff0000000000000000000000000000000000000000166001600160a01b0392909216919091179055565b600081611f14816121e3565b611f65576040805162461bcd60e51b815260206004820152601660248201527f4974206973206e6f742061204e465420746f6b656e2100000000000000000000604482015290519081900360640190fd5b50506000908152600b602052604090205460ff1690565b611f846121f6565b600a546001600160a01b03908116911614611fe6576040805162461bcd60e51b815260206004820181905260248201527f4f776e61626c653a2063616c6c6572206973206e6f7420746865206f776e6572604482015290519081900360640190fd5b611ff8816001600160a01b0316612499565b612049576040805162461bcd60e51b815260206004820152601a60248201527f49742773206e6f7420636f6e7472616374206164647265737321000000000000604482015290519081900360640190fd5b600f80547fffffffffffffffffffffffff0000000000000000000000000000000000000000166001600160a01b0392909216919091179055565b6011546001600160a01b031681565b6001600160a01b03918216600090815260056020908152604080832093909416825291909152205460ff1690565b6120c86121f6565b600a546001600160a01b0390811691161461212a576040805162461bcd60e51b815260206004820181905260248201527f4f776e61626c653a2063616c6c6572206973206e6f7420746865206f776e6572604482015290519081900360640190fd5b6001600160a01b03811661216f5760405162461bcd60e51b81526004018080602001828103825260268152602001806130416026913960400191505060405180910390fd5b600a546040516001600160a01b038084169216907f8be0079c531659141344cd1fd0a4f28419497f9722a3daafe3b4186f6b6457e090600090a3600a80547fffffffffffffffffffffffff0000000000000000000000000000000000000000166001600160a01b0392909216919091179055565b6000610eba60028363ffffffff61269916565b3390565b600081815260046020526040902080547fffffffffffffffffffffffff0000000000000000000000000000000000000000166001600160a01b03841690811790915581906122478261139a565b6001600160a01b03167f8c5be1e5ebec7d5bd14f71427d1e84f3dd0314c0f7b2291e5b200ac8c7c3b92560405160405180910390a45050565b6000610eba826126a5565b6000612296826121e3565b6122d15760405162461bcd60e51b815260040180806020018281038252602c81526020018061308b602c913960400191505060405180910390fd5b60006122dc8361139a565b9050806001600160a01b0316846001600160a01b031614806123175750836001600160a01b031661230c84610b54565b6001600160a01b0316145b8061232757506123278185612092565b949350505050565b826001600160a01b03166123428261139a565b6001600160a01b0316146123875760405162461bcd60e51b81526004018080602001828103825260298152602001806131bc6029913960400191505060405180910390fd5b6001600160a01b0382166123cc5760405162461bcd60e51b81526004018080602001828103825260248152602001806130676024913960400191505060405180910390fd5b6123d7838383610c8c565b6123e26000826121fa565b6001600160a01b038316600090815260016020526040902061240a908263ffffffff6126a916565b506001600160a01b0382166000908152600160205260409020612433908263ffffffff6126b516565b506124466002828463ffffffff6126c116565b5080826001600160a01b0316846001600160a01b03167fddf252ad1be2c89b69c2b068fc378daa952ba7f163c4a11628f55a4df523b3ef60405160405180910390a4505050565b6000610eb783836126d7565b3b151590565b60008080806124ae868661273b565b9097909650945050505050565b60006124c88484846127b6565b90505b9392505050565b6111d7828260405180602001604052806000815250612880565b6124f5826121e3565b6125305760405162461bcd60e51b815260040180806020018281038252602c815260200180613190602c913960400191505060405180910390fd5b60008281526008602090815260409091208251610c8c92840190612f54565b61255a84848461232f565b612566848484846128d2565b611ad35760405162461bcd60e51b815260040180806020018281038252603281526020018061300f6032913960400191505060405180910390fd5b6060816125e2575060408051808201909152600181527f30000000000000000000000000000000000000000000000000000000000000006020820152610944565b8160005b81156125fa57600101600a820491506125e6565b6060816040519080825280601f01601f191660200182016040528015612627576020820181803883390190505b50859350905060001982015b831561269057600a840660300160f81b8282806001900393508151811061265657fe5b60200101907effffffffffffffffffffffffffffffffffffffffffffffffffffffffffffff1916908160001a905350600a84049350612633565b50949350505050565b6000610eb78383612ac6565b5490565b6000610eb78383612ade565b6000610eb78383612ba4565b60006124c884846001600160a01b038516612bee565b815460009082106127195760405162461bcd60e51b8152600401808060200182810382526022815260200180612fed6022913960400191505060405180910390fd5b82600001828154811061272857fe5b9060005260206000200154905092915050565b81546000908190831061277f5760405162461bcd60e51b81526004018080602001828103825260228152602001806131426022913960400191505060405180910390fd5b600084600001848154811061279057fe5b906000526020600020906002020190508060000154816001015492509250509250929050565b600082815260018401602052604081205482816128515760405162461bcd60e51b81526004018080602001828103825283818151815260200191508051906020019080838360005b838110156128165781810151838201526020016127fe565b50505050905090810190601f1680156128435780820380516001836020036101000a031916815260200191505b509250505060405180910390fd5b5084600001600182038154811061286457fe5b9060005260206000209060020201600101549150509392505050565b61288a8383612c85565b61289760008484846128d2565b610c8c5760405162461bcd60e51b815260040180806020018281038252603281526020018061300f6032913960400191505060405180910390fd5b60006128e6846001600160a01b0316612499565b6128f257506001612327565b6060612a5b7f150b7a02000000000000000000000000000000000000000000000000000000006129206121f6565b88878760405160240180856001600160a01b03166001600160a01b03168152602001846001600160a01b03166001600160a01b0316815260200183815260200180602001828103825283818151815260200191508051906020019080838360005b83811015612999578181015183820152602001612981565b50505050905090810190601f1680156129c65780820380516001836020036101000a031916815260200191505b5095505050505050604051602081830303815290604052907bffffffffffffffffffffffffffffffffffffffffffffffffffffffff19166020820180517bffffffffffffffffffffffffffffffffffffffffffffffffffffffff838183161783525050505060405180606001604052806032815260200161300f603291396001600160a01b038816919063ffffffff612dbf16565b90506000818060200190516020811015612a7457600080fd5b50517fffffffff00000000000000000000000000000000000000000000000000000000167f150b7a02000000000000000000000000000000000000000000000000000000001492505050949350505050565b60009081526001919091016020526040902054151590565b60008181526001830160205260408120548015612b9a5783546000198083019190810190600090879083908110612b1157fe5b9060005260206000200154905080876000018481548110612b2e57fe5b600091825260208083209091019290925582815260018981019092526040902090840190558654879080612b5e57fe5b60019003818190600052602060002001600090559055866001016000878152602001908152602001600020600090556001945050505050610eba565b6000915050610eba565b6000612bb08383612ac6565b612be657508154600181810184556000848152602080822090930184905584548482528286019093526040902091909155610eba565b506000610eba565b600082815260018401602052604081205480612c535750506040805180820182528381526020808201848152865460018181018955600089815284812095516002909302909501918255915190820155865486845281880190925292909120556124cb565b82856000016001830381548110612c6657fe5b90600052602060002090600202016001018190555060009150506124cb565b6001600160a01b038216612ce0576040805162461bcd60e51b815260206004820181905260248201527f4552433732313a206d696e7420746f20746865207a65726f2061646472657373604482015290519081900360640190fd5b612ce9816121e3565b15612d3b576040805162461bcd60e51b815260206004820152601c60248201527f4552433732313a20746f6b656e20616c7265616479206d696e74656400000000604482015290519081900360640190fd5b612d4760008383610c8c565b6001600160a01b0382166000908152600160205260409020612d6f908263ffffffff6126b516565b50612d826002828463ffffffff6126c116565b5060405181906001600160a01b038416906000907fddf252ad1be2c89b69c2b068fc378daa952ba7f163c4a11628f55a4df523b3ef908290a45050565b60606124c884846000856060612dd485612499565b612e25576040805162461bcd60e51b815260206004820152601d60248201527f416464726573733a2063616c6c20746f206e6f6e2d636f6e7472616374000000604482015290519081900360640190fd5b60006060866001600160a01b031685876040518082805190602001908083835b60208310612e8257805182527fffffffffffffffffffffffffffffffffffffffffffffffffffffffffffffffe09092019160209182019101612e45565b6001836020036101000a03801982511681845116808217855250505050505090500191505060006040518083038185875af1925050503d8060008114612ee4576040519150601f19603f3d011682016040523d82523d6000602084013e612ee9565b606091505b50915091508115612efd5791506123279050565b805115612f0d5780518082602001fd5b60405162461bcd60e51b81526020600482018181528651602484015286518793919283926044019190850190808383600083156128165781810151838201526020016127fe565b828054600181600116156101000203166002900490600052602060002090601f016020900481019282601f10612f9557805160ff1916838001178555612fc2565b82800160010185558215612fc2579182015b82811115612fc2578251825591602001919060010190612fa7565b50612fce929150612fd2565b5090565b610b5191905b80821115612fce5760008155600101612fd856fe456e756d657261626c655365743a20696e646578206f7574206f6620626f756e64734552433732313a207472616e7366657220746f206e6f6e20455243373231526563656976657220696d706c656d656e7465724f776e61626c653a206e6577206f776e657220697320746865207a65726f20616464726573734552433732313a207472616e7366657220746f20746865207a65726f20616464726573734552433732313a206f70657261746f7220717565727920666f72206e6f6e6578697374656e7420746f6b656e4552433732313a20617070726f76652063616c6c6572206973206e6f74206f776e6572206e6f7220617070726f76656420666f7220616c6c4552433732313a2062616c616e636520717565727920666f7220746865207a65726f20616464726573734552433732313a206f776e657220717565727920666f72206e6f6e6578697374656e7420746f6b656e456e756d657261626c654d61703a20696e646578206f7574206f6620626f756e64734552433732313a20617070726f76656420717565727920666f72206e6f6e6578697374656e7420746f6b656e4552433732314d657461646174613a2055524920736574206f66206e6f6e6578697374656e7420746f6b656e4552433732313a207472616e73666572206f6620746f6b656e2074686174206973206e6f74206f776e4552433732314d657461646174613a2055524920717565727920666f72206e6f6e6578697374656e7420746f6b656e4552433732313a20617070726f76616c20746f2063757272656e74206f776e65724552433732313a207472616e736665722063616c6c6572206973206e6f74206f776e6572206e6f7220617070726f766564a26469706673582212208cc84e1f1dc6d38c613a2dc14048eb118b7e9c8846081221b8e8a9f1bd4ce8b064736f6c63430006020033",
  "source": "pragma solidity ^0.6.0;\n\nimport \"../common/hotpotinterface.sol\";\nimport \"@openzeppelin/contracts/token/ERC721/ERC721.sol\";\nimport \"@openzeppelin/contracts/access/Ownable.sol\";\nimport \"@openzeppelin/contracts/utils/Address.sol\";\n\ncontract NFTokenHotPot is ERC721, IHotPot, Ownable {\n    mapping(uint256 => uint8) internal grades;\n    mapping(uint256 => uint256) internal useTimes;\n    mapping(uint8 => uint256) internal gradeCount;\n\n    address[] public poolContracts;\n    address public rewardContract;\n    address public exchangeContract;\n    address public rentalContract;\n    address public gachaContract;\n\n    uint constant public MAX_NUM = 1000;\n\n    event UseTicket(\n        address indexed _owner,\n        uint256 indexed _useTime,\n        uint256 indexed _tokenId\n    );\n\n    constructor(string memory name, string memory symbol)\n        public\n        ERC721(name, symbol)\n    {\n        \n    }\n\n    modifier validNFToken(uint256 _tokenId) {\n        require(_exists(_tokenId), \"It is not a NFT token!\");\n        _;\n    }\n\n    modifier onlyCanUse() {\n        address sender = msg.sender;\n\n        bool canUse = false;\n\n        if (sender == rewardContract) {\n            canUse = true;\n        }\n\n        for (uint256 i = 0; i < poolContracts.length; i++) {\n            if (sender == poolContracts[i]) {\n                canUse = true;\n            }\n        }\n        require(canUse, \"No permission!\");\n        _;\n    }\n\n    modifier onlyCanMint() {\n        require(msg.sender == gachaContract, \"Only gacha contract can mint!\");\n        _;\n    }\n\n    /**\n     * @dev Mints a new NFT.\n     * @param _to The address that will own the minted NFT.\n     * @param _tokenId of the NFT to be minted by the msg.sender.\n     * @param _uri String representing RFC 3986 URI.\n     */\n    function mint(\n        address _to,\n        uint256 _tokenId,\n        uint8 _grade,\n        string calldata _uri\n    ) external override onlyCanMint {\n        _safeMint(_to, _tokenId);\n        _setTokenURI(_tokenId, _uri);\n        grades[_tokenId] = _grade;\n        uint256 count = gradeCount[_grade] + 1;\n        gradeCount[_grade] = count;\n        require(totalSupply()<MAX_NUM,\"The max supply is 1000!\");\n    }\n\n    function getGradeCount(uint8 _grade)\n        external\n        override\n        view\n        returns (uint256)\n    {\n        return gradeCount[_grade];\n    }\n\n    function getGrade(uint256 _tokenId)\n        external\n        override\n        view\n        validNFToken(_tokenId)\n        returns (uint8)\n    {\n        return grades[_tokenId];\n    }\n\n    function update(uint256 _tokenId, uint8 _grade)\n        external\n        override\n        validNFToken(_tokenId)\n    {\n        require(\n            msg.sender == exchangeContract,\n            \"Only exchange can update NFT!\"\n        );\n        require(_grade > this.getGrade(_tokenId), \"Update fail!\");\n        grades[_tokenId] = _grade;\n    }\n\n    function getUseTime(uint256 _tokenId)\n        external\n        override\n        view\n        validNFToken(_tokenId)\n        returns (uint256)\n    {\n        return useTimes[_tokenId];\n    }\n\n    function setExchange(address _addr) external onlyOwner {\n        require(_addr.isContract(), \"It's not contract address!\");\n        exchangeContract = _addr;\n    }\n\n    function setGacha(address _addr) external onlyOwner {\n        require(_addr.isContract(), \"It's not contract address!\");\n        gachaContract = _addr;\n    }\n\n    function setReward(address reward) external onlyOwner {\n        require(reward.isContract(), \"It's not contract address!\");\n        rewardContract = reward;\n    }\n\n    function setRental(address _addr) external onlyOwner {\n        require(_addr.isContract(), \"It's not contract address!\");\n        rentalContract = _addr;\n    }\n\n    function addPool(address pool) external onlyOwner {\n        require(pool.isContract(), \"It's not contract address!\");\n        poolContracts.push(pool);\n    }\n\n    function removePool(address pool) external onlyOwner {\n        require(pool.isContract(), \"It's not contract address!\");\n\n        for (uint256 i = 0; i < poolContracts.length; i++) {\n            if (pool == poolContracts[i]) {\n                delete poolContracts[i];\n                return;\n            }\n        }\n    }\n\n    function setUse(uint256 _tokenId)\n        external\n        override\n        onlyCanUse\n        validNFToken(_tokenId)\n    {\n        useTimes[_tokenId] = now;\n        // address _owner = ownerOf(_tokenId);\n        emit UseTicket(ownerOf(_tokenId), now, _tokenId);\n    }\n\n    function setUse(uint256 _tokenId, uint256 timestamp)\n        external\n        override\n        onlyCanUse\n        validNFToken(_tokenId)\n    {\n        require(timestamp > now);\n        useTimes[_tokenId] = timestamp;\n        // address _owner = ownerOf(_tokenId);\n        emit UseTicket(ownerOf(_tokenId), timestamp, _tokenId);\n    }\n}\n",
  "sourcePath": "/Users/junhu/git/hotpotcontract/truffle/contracts/nft/hotpot-token.sol",
  "compiler": {
    "name": "solc",
    "version": "0.6.2+commit.bacdbe57.Emscripten.clang"
  },
  "schemaVersion": "3.3.0",
  "updatedAt": "2020-10-15T06:16:30.435Z",
  "networkType": "ethereum",
  "devdoc": {
    "methods": {
      "approve(address,uint256)": {
        "details": "See {IERC721-approve}."
      },
      "balanceOf(address)": {
        "details": "See {IERC721-balanceOf}."
      },
      "baseURI()": {
        "details": "Returns the base URI set via {_setBaseURI}. This will be automatically added as a prefix in {tokenURI} to each token's URI, or to the token ID if no specific URI is set for that token ID."
      },
      "getApproved(uint256)": {
        "details": "See {IERC721-getApproved}."
      },
      "isApprovedForAll(address,address)": {
        "details": "See {IERC721-isApprovedForAll}."
      },
      "mint(address,uint256,uint8,string)": {
        "details": "Mints a new NFT.",
        "params": {
          "_to": "The address that will own the minted NFT.",
          "_tokenId": "of the NFT to be minted by the msg.sender.",
          "_uri": "String representing RFC 3986 URI."
        }
      },
      "name()": {
        "details": "See {IERC721Metadata-name}."
      },
      "owner()": {
        "details": "Returns the address of the current owner."
      },
      "ownerOf(uint256)": {
        "details": "See {IERC721-ownerOf}."
      },
      "renounceOwnership()": {
        "details": "Leaves the contract without owner. It will not be possible to call `onlyOwner` functions anymore. Can only be called by the current owner.     * NOTE: Renouncing ownership will leave the contract without an owner, thereby removing any functionality that is only available to the owner."
      },
      "safeTransferFrom(address,address,uint256)": {
        "details": "See {IERC721-safeTransferFrom}."
      },
      "safeTransferFrom(address,address,uint256,bytes)": {
        "details": "See {IERC721-safeTransferFrom}."
      },
      "setApprovalForAll(address,bool)": {
        "details": "See {IERC721-setApprovalForAll}."
      },
      "supportsInterface(bytes4)": {
        "details": "See {IERC165-supportsInterface}.     * Time complexity O(1), guaranteed to always use less than 30 000 gas."
      },
      "symbol()": {
        "details": "See {IERC721Metadata-symbol}."
      },
      "tokenByIndex(uint256)": {
        "details": "See {IERC721Enumerable-tokenByIndex}."
      },
      "tokenOfOwnerByIndex(address,uint256)": {
        "details": "See {IERC721Enumerable-tokenOfOwnerByIndex}."
      },
      "tokenURI(uint256)": {
        "details": "See {IERC721Metadata-tokenURI}."
      },
      "totalSupply()": {
        "details": "See {IERC721Enumerable-totalSupply}."
      },
      "transferFrom(address,address,uint256)": {
        "details": "See {IERC721-transferFrom}."
      },
      "transferOwnership(address)": {
        "details": "Transfers ownership of the contract to a new account (`newOwner`). Can only be called by the current owner."
      }
    }
  },
  "userdoc": {
    "methods": {}
  }
}