{
  "contractName": "NFTokenHotPot",
  "abi": [
    {
      "inputs": [
        {
          "internalType": "string",
          "name": "name",
          "type": "string"
        },
        {
          "internalType": "string",
          "name": "symbol",
          "type": "string"
        }
      ],
      "stateMutability": "nonpayable",
      "type": "constructor"
    },
    {
      "anonymous": false,
      "inputs": [
        {
          "indexed": true,
          "internalType": "address",
          "name": "owner",
          "type": "address"
        },
        {
          "indexed": true,
          "internalType": "address",
          "name": "approved",
          "type": "address"
        },
        {
          "indexed": true,
          "internalType": "uint256",
          "name": "tokenId",
          "type": "uint256"
        }
      ],
      "name": "Approval",
      "type": "event"
    },
    {
      "anonymous": false,
      "inputs": [
        {
          "indexed": true,
          "internalType": "address",
          "name": "owner",
          "type": "address"
        },
        {
          "indexed": true,
          "internalType": "address",
          "name": "operator",
          "type": "address"
        },
        {
          "indexed": false,
          "internalType": "bool",
          "name": "approved",
          "type": "bool"
        }
      ],
      "name": "ApprovalForAll",
      "type": "event"
    },
    {
      "anonymous": false,
      "inputs": [
        {
          "indexed": true,
          "internalType": "address",
          "name": "previousOwner",
          "type": "address"
        },
        {
          "indexed": true,
          "internalType": "address",
          "name": "newOwner",
          "type": "address"
        }
      ],
      "name": "OwnershipTransferred",
      "type": "event"
    },
    {
      "anonymous": false,
      "inputs": [
        {
          "indexed": true,
          "internalType": "address",
          "name": "owner",
          "type": "address"
        },
        {
          "indexed": true,
          "internalType": "uint8",
          "name": "grade",
          "type": "uint8"
        },
        {
          "indexed": true,
          "internalType": "uint256",
          "name": "tokenId",
          "type": "uint256"
        }
      ],
      "name": "TicketUpdate",
      "type": "event"
    },
    {
      "anonymous": false,
      "inputs": [
        {
          "indexed": true,
          "internalType": "address",
          "name": "from",
          "type": "address"
        },
        {
          "indexed": true,
          "internalType": "address",
          "name": "to",
          "type": "address"
        },
        {
          "indexed": true,
          "internalType": "uint256",
          "name": "tokenId",
          "type": "uint256"
        }
      ],
      "name": "Transfer",
      "type": "event"
    },
    {
      "anonymous": false,
      "inputs": [
        {
          "indexed": true,
          "internalType": "address",
          "name": "owner",
          "type": "address"
        },
        {
          "indexed": true,
          "internalType": "uint256",
          "name": "useTime",
          "type": "uint256"
        },
        {
          "indexed": true,
          "internalType": "uint256",
          "name": "tokenId",
          "type": "uint256"
        }
      ],
      "name": "UseTicket",
      "type": "event"
    },
    {
      "inputs": [],
      "name": "MAX_NUM",
      "outputs": [
        {
          "internalType": "uint256",
          "name": "",
          "type": "uint256"
        }
      ],
      "stateMutability": "view",
      "type": "function"
    },
    {
      "inputs": [
        {
          "internalType": "address",
          "name": "to",
          "type": "address"
        },
        {
          "internalType": "uint256",
          "name": "tokenId",
          "type": "uint256"
        }
      ],
      "name": "approve",
      "outputs": [],
      "stateMutability": "nonpayable",
      "type": "function"
    },
    {
      "inputs": [
        {
          "internalType": "address",
          "name": "owner",
          "type": "address"
        }
      ],
      "name": "balanceOf",
      "outputs": [
        {
          "internalType": "uint256",
          "name": "",
          "type": "uint256"
        }
      ],
      "stateMutability": "view",
      "type": "function"
    },
    {
      "inputs": [],
      "name": "baseURI",
      "outputs": [
        {
          "internalType": "string",
          "name": "",
          "type": "string"
        }
      ],
      "stateMutability": "view",
      "type": "function"
    },
    {
      "inputs": [],
      "name": "exchangeContract",
      "outputs": [
        {
          "internalType": "address",
          "name": "",
          "type": "address"
        }
      ],
      "stateMutability": "view",
      "type": "function"
    },
    {
      "inputs": [],
      "name": "gachaContract",
      "outputs": [
        {
          "internalType": "address",
          "name": "",
          "type": "address"
        }
      ],
      "stateMutability": "view",
      "type": "function"
    },
    {
      "inputs": [
        {
          "internalType": "uint256",
          "name": "tokenId",
          "type": "uint256"
        }
      ],
      "name": "getApproved",
      "outputs": [
        {
          "internalType": "address",
          "name": "",
          "type": "address"
        }
      ],
      "stateMutability": "view",
      "type": "function"
    },
    {
      "inputs": [
        {
          "internalType": "address",
          "name": "owner",
          "type": "address"
        },
        {
          "internalType": "address",
          "name": "operator",
          "type": "address"
        }
      ],
      "name": "isApprovedForAll",
      "outputs": [
        {
          "internalType": "bool",
          "name": "",
          "type": "bool"
        }
      ],
      "stateMutability": "view",
      "type": "function"
    },
    {
      "inputs": [],
      "name": "loan",
      "outputs": [
        {
          "internalType": "contract ILoan",
          "name": "",
          "type": "address"
        }
      ],
      "stateMutability": "view",
      "type": "function"
    },
    {
      "inputs": [],
      "name": "name",
      "outputs": [
        {
          "internalType": "string",
          "name": "",
          "type": "string"
        }
      ],
      "stateMutability": "view",
      "type": "function"
    },
    {
      "inputs": [],
      "name": "owner",
      "outputs": [
        {
          "internalType": "address",
          "name": "",
          "type": "address"
        }
      ],
      "stateMutability": "view",
      "type": "function"
    },
    {
      "inputs": [
        {
          "internalType": "uint256",
          "name": "tokenId",
          "type": "uint256"
        }
      ],
      "name": "ownerOf",
      "outputs": [
        {
          "internalType": "address",
          "name": "",
          "type": "address"
        }
      ],
      "stateMutability": "view",
      "type": "function"
    },
    {
      "inputs": [
        {
          "internalType": "uint256",
          "name": "",
          "type": "uint256"
        }
      ],
      "name": "poolContracts",
      "outputs": [
        {
          "internalType": "address",
          "name": "",
          "type": "address"
        }
      ],
      "stateMutability": "view",
      "type": "function"
    },
    {
      "inputs": [],
      "name": "renounceOwnership",
      "outputs": [],
      "stateMutability": "nonpayable",
      "type": "function"
    },
    {
      "inputs": [],
      "name": "rentalContract",
      "outputs": [
        {
          "internalType": "address",
          "name": "",
          "type": "address"
        }
      ],
      "stateMutability": "view",
      "type": "function"
    },
    {
      "inputs": [],
      "name": "rewardContract",
      "outputs": [
        {
          "internalType": "address",
          "name": "",
          "type": "address"
        }
      ],
      "stateMutability": "view",
      "type": "function"
    },
    {
      "inputs": [
        {
          "internalType": "address",
          "name": "operator",
          "type": "address"
        },
        {
          "internalType": "bool",
          "name": "approved",
          "type": "bool"
        }
      ],
      "name": "setApprovalForAll",
      "outputs": [],
      "stateMutability": "nonpayable",
      "type": "function"
    },
    {
      "inputs": [
        {
          "internalType": "bytes4",
          "name": "interfaceId",
          "type": "bytes4"
        }
      ],
      "name": "supportsInterface",
      "outputs": [
        {
          "internalType": "bool",
          "name": "",
          "type": "bool"
        }
      ],
      "stateMutability": "view",
      "type": "function"
    },
    {
      "inputs": [],
      "name": "symbol",
      "outputs": [
        {
          "internalType": "string",
          "name": "",
          "type": "string"
        }
      ],
      "stateMutability": "view",
      "type": "function"
    },
    {
      "inputs": [
        {
          "internalType": "uint256",
          "name": "index",
          "type": "uint256"
        }
      ],
      "name": "tokenByIndex",
      "outputs": [
        {
          "internalType": "uint256",
          "name": "",
          "type": "uint256"
        }
      ],
      "stateMutability": "view",
      "type": "function"
    },
    {
      "inputs": [
        {
          "internalType": "address",
          "name": "owner",
          "type": "address"
        },
        {
          "internalType": "uint256",
          "name": "index",
          "type": "uint256"
        }
      ],
      "name": "tokenOfOwnerByIndex",
      "outputs": [
        {
          "internalType": "uint256",
          "name": "",
          "type": "uint256"
        }
      ],
      "stateMutability": "view",
      "type": "function"
    },
    {
      "inputs": [
        {
          "internalType": "uint256",
          "name": "tokenId",
          "type": "uint256"
        }
      ],
      "name": "tokenURI",
      "outputs": [
        {
          "internalType": "string",
          "name": "",
          "type": "string"
        }
      ],
      "stateMutability": "view",
      "type": "function"
    },
    {
      "inputs": [],
      "name": "totalSupply",
      "outputs": [
        {
          "internalType": "uint256",
          "name": "",
          "type": "uint256"
        }
      ],
      "stateMutability": "view",
      "type": "function"
    },
    {
      "inputs": [
        {
          "internalType": "address",
          "name": "from",
          "type": "address"
        },
        {
          "internalType": "address",
          "name": "to",
          "type": "address"
        },
        {
          "internalType": "uint256",
          "name": "tokenId",
          "type": "uint256"
        }
      ],
      "name": "transferFrom",
      "outputs": [],
      "stateMutability": "nonpayable",
      "type": "function"
    },
    {
      "inputs": [
        {
          "internalType": "address",
          "name": "newOwner",
          "type": "address"
        }
      ],
      "name": "transferOwnership",
      "outputs": [],
      "stateMutability": "nonpayable",
      "type": "function"
    },
    {
      "inputs": [
        {
          "internalType": "address",
          "name": "_to",
          "type": "address"
        },
        {
          "internalType": "uint256",
          "name": "_tokenId",
          "type": "uint256"
        },
        {
          "internalType": "uint8",
          "name": "_grade",
          "type": "uint8"
        },
        {
          "internalType": "string",
          "name": "_uri",
          "type": "string"
        }
      ],
      "name": "mint",
      "outputs": [],
      "stateMutability": "nonpayable",
      "type": "function"
    },
    {
      "inputs": [
        {
          "internalType": "uint8",
          "name": "_grade",
          "type": "uint8"
        }
      ],
      "name": "getGradeCount",
      "outputs": [
        {
          "internalType": "uint256",
          "name": "",
          "type": "uint256"
        }
      ],
      "stateMutability": "view",
      "type": "function"
    },
    {
      "inputs": [
        {
          "internalType": "uint256",
          "name": "_tokenId",
          "type": "uint256"
        }
      ],
      "name": "getGrade",
      "outputs": [
        {
          "internalType": "uint8",
          "name": "",
          "type": "uint8"
        }
      ],
      "stateMutability": "view",
      "type": "function"
    },
    {
      "inputs": [
        {
          "internalType": "uint256",
          "name": "_tokenId",
          "type": "uint256"
        },
        {
          "internalType": "uint8",
          "name": "_grade",
          "type": "uint8"
        }
      ],
      "name": "update",
      "outputs": [],
      "stateMutability": "nonpayable",
      "type": "function"
    },
    {
      "inputs": [
        {
          "internalType": "uint256",
          "name": "_tokenId",
          "type": "uint256"
        }
      ],
      "name": "getUseTime",
      "outputs": [
        {
          "internalType": "uint256",
          "name": "",
          "type": "uint256"
        }
      ],
      "stateMutability": "view",
      "type": "function"
    },
    {
      "inputs": [
        {
          "internalType": "address",
          "name": "_addr",
          "type": "address"
        }
      ],
      "name": "setExchange",
      "outputs": [],
      "stateMutability": "nonpayable",
      "type": "function"
    },
    {
      "inputs": [
        {
          "internalType": "address",
          "name": "_addr",
          "type": "address"
        }
      ],
      "name": "setGacha",
      "outputs": [],
      "stateMutability": "nonpayable",
      "type": "function"
    },
    {
      "inputs": [
        {
          "internalType": "address",
          "name": "reward",
          "type": "address"
        }
      ],
      "name": "setReward",
      "outputs": [],
      "stateMutability": "nonpayable",
      "type": "function"
    },
    {
      "inputs": [
        {
          "internalType": "address",
          "name": "_addr",
          "type": "address"
        }
      ],
      "name": "setRental",
      "outputs": [],
      "stateMutability": "nonpayable",
      "type": "function"
    },
    {
      "inputs": [
        {
          "internalType": "address",
          "name": "pool",
          "type": "address"
        }
      ],
      "name": "addPool",
      "outputs": [],
      "stateMutability": "nonpayable",
      "type": "function"
    },
    {
      "inputs": [
        {
          "internalType": "address",
          "name": "pool",
          "type": "address"
        }
      ],
      "name": "removePool",
      "outputs": [],
      "stateMutability": "nonpayable",
      "type": "function"
    },
    {
      "inputs": [
        {
          "internalType": "uint256",
          "name": "_tokenId",
          "type": "uint256"
        },
        {
          "internalType": "uint256",
          "name": "timestamp",
          "type": "uint256"
        }
      ],
      "name": "setUse",
      "outputs": [],
      "stateMutability": "nonpayable",
      "type": "function"
    },
    {
      "inputs": [
        {
          "internalType": "uint256",
          "name": "_tokenId",
          "type": "uint256"
        }
      ],
      "name": "setUse",
      "outputs": [],
      "stateMutability": "nonpayable",
      "type": "function"
    },
    {
      "inputs": [
        {
          "internalType": "address",
          "name": "_loan",
          "type": "address"
        }
      ],
      "name": "setLoan",
      "outputs": [],
      "stateMutability": "nonpayable",
      "type": "function"
    },
    {
      "inputs": [
        {
          "internalType": "address",
          "name": "from",
          "type": "address"
        },
        {
          "internalType": "address",
          "name": "to",
          "type": "address"
        },
        {
          "internalType": "uint256",
          "name": "tokenId",
          "type": "uint256"
        }
      ],
      "name": "safeTransferFrom",
      "outputs": [],
      "stateMutability": "nonpayable",
      "type": "function"
    },
    {
      "inputs": [
        {
          "internalType": "address",
          "name": "from",
          "type": "address"
        },
        {
          "internalType": "address",
          "name": "to",
          "type": "address"
        },
        {
          "internalType": "uint256",
          "name": "tokenId",
          "type": "uint256"
        },
        {
          "internalType": "bytes",
          "name": "_data",
          "type": "bytes"
        }
      ],
      "name": "safeTransferFrom",
      "outputs": [],
      "stateMutability": "nonpayable",
      "type": "function"
    }
  ],
  "bytecode": "0x60806040523480156200001157600080fd5b50604051620039b9380380620039b9833981810160405260408110156200003757600080fd5b81019080805160405193929190846401000000008211156200005857600080fd5b9083019060208201858111156200006e57600080fd5b82516401000000008111828201881017156200008957600080fd5b82525081516020918201929091019080838360005b83811015620000b85781810151838201526020016200009e565b50505050905090810190601f168015620000e65780820380516001836020036101000a031916815260200191505b50604052602001805160405193929190846401000000008211156200010a57600080fd5b9083019060208201858111156200012057600080fd5b82516401000000008111828201881017156200013b57600080fd5b82525081516020918201929091019080838360005b838110156200016a57818101518382015260200162000150565b50505050905090810190601f168015620001985780820380516001836020036101000a031916815260200191505b5060405250839150829050620001be6301ffc9a760e01b6001600160e01b03620002a916565b8151620001d390600690602085019062000333565b508051620001e990600790602084019062000333565b50620002056380ac58cd60e01b6001600160e01b03620002a916565b62000220635b5e139f60e01b6001600160e01b03620002a916565b6200023b63780e9d6360e01b6001600160e01b03620002a916565b5060009050620002536001600160e01b036200032e16565b600a80546001600160a01b0319166001600160a01b038316908117909155604051919250906000907f8be0079c531659141344cd1fd0a4f28419497f9722a3daafe3b4186f6b6457e0908290a3505050620003d5565b6001600160e01b0319808216141562000309576040805162461bcd60e51b815260206004820152601c60248201527f4552433136353a20696e76616c696420696e7465726661636520696400000000604482015290519081900360640190fd5b6001600160e01b0319166000908152602081905260409020805460ff19166001179055565b335b90565b828054600181600116156101000203166002900490600052602060002090601f016020900481019282601f106200037657805160ff1916838001178555620003a6565b82800160010185558215620003a6579182015b82811115620003a657825182559160200191906001019062000389565b50620003b4929150620003b8565b5090565b6200033091905b80821115620003b45760008155600101620003bf565b6135d480620003e56000396000f3fe608060405234801561001057600080fd5b50600436106102d35760003560e01c8063644acc6011610186578063b2305d6a116100e3578063d914cd4b11610097578063e8f4e9d411610071578063e8f4e9d414610906578063e985e9c51461090e578063f2fde38b1461093c576102d3565b8063d914cd4b14610887578063e1e0485e146108ad578063e5932c40146108e0576102d3565b8063c87b56dd116100c8578063c87b56dd14610842578063d285b7b41461085f578063d394dd7914610867576102d3565b8063b2305d6a14610756578063b88d4fde1461077c576102d3565b8063715018a61161013a57806395d89b411161011f57806395d89b41146107185780639d304e8514610720578063a22cb46514610728576102d3565b8063715018a6146107085780638da5cb5b14610710576102d3565b80636c0360eb1161016b5780636c0360eb146106d25780636ea69d62146106da57806370a08231146106e2576102d3565b8063644acc601461061d57806367b1f5df146106ac576102d3565b80632f745c591161023457806341f7b092116101e85780634f6ccce7116101cd5780634f6ccce7146105c65780635840e659146105e35780636352211e14610600576102d3565b806341f7b0921461056a57806342842e0e14610590576102d3565b80633b7d0946116102195780633b7d0946146105165780633c6bd5db1461053c5780633f0a079714610562576102d3565b80632f745c59146104c4578063306a6948146104f0576102d3565b80631810feb81161028b5780631e3024fe116102705780631e3024fe1461046957806322142e6c1461047157806323b872dd1461048e576102d3565b80631810feb81461043257806318160ddd1461044f576102d3565b806306fdde03116102bc57806306fdde0314610350578063081812fc146103cd578063095ea7b314610406576102d3565b806301ffc9a7146102d857806303ab6e761461032b575b600080fd5b610317600480360360208110156102ee57600080fd5b50357fffffffff0000000000000000000000000000000000000000000000000000000016610962565b604080519115158252519081900360200190f35b61034e6004803603604081101561034157600080fd5b508035906020013561099d565b005b610358610b11565b6040805160208082528351818301528351919283929083019185019080838360005b8381101561039257818101518382015260200161037a565b50505050905090810190601f1680156103bf5780820380516001836020036101000a031916815260200191505b509250505060405180910390f35b6103ea600480360360208110156103e357600080fd5b5035610ba8565b604080516001600160a01b039092168252519081900360200190f35b61034e6004803603604081101561041c57600080fd5b506001600160a01b038135169060200135610c0a565b6103ea6004803603602081101561044857600080fd5b5035610ce5565b610457610d0c565b60408051918252519081900360200190f35b610457610d1d565b61034e6004803603602081101561048757600080fd5b5035610d23565b61034e600480360360608110156104a457600080fd5b506001600160a01b03813581169160208101359091169060400135610e8c565b610457600480360360408110156104da57600080fd5b506001600160a01b038135169060200135610ee3565b61034e6004803603604081101561050657600080fd5b508035906020013560ff16610f14565b61034e6004803603602081101561052c57600080fd5b50356001600160a01b0316611119565b61034e6004803603602081101561055257600080fd5b50356001600160a01b0316611243565b6103ea61133f565b61034e6004803603602081101561058057600080fd5b50356001600160a01b031661134e565b61034e600480360360608110156105a657600080fd5b506001600160a01b0381358116916020810135909116906040013561144a565b610457600480360360208110156105dc57600080fd5b5035611555565b610457600480360360208110156105f957600080fd5b5035611571565b6103ea6004803603602081101561061657600080fd5b50356115e2565b61034e6004803603608081101561063357600080fd5b6001600160a01b038235169160208101359160ff604083013516919081019060808101606082013564010000000081111561066d57600080fd5b82018360208201111561067f57600080fd5b803590602001918460018302840111640100000000831117156106a157600080fd5b509092509050611610565b61034e600480360360208110156106c257600080fd5b50356001600160a01b031661176c565b610358611868565b6103ea6118c9565b610457600480360360208110156106f857600080fd5b50356001600160a01b03166118d8565b61034e611940565b6103ea611a01565b610358611a10565b6103ea611a71565b61034e6004803603604081101561073e57600080fd5b506001600160a01b0381351690602001351515611a80565b61034e6004803603602081101561076c57600080fd5b50356001600160a01b0316611ba3565b61034e6004803603608081101561079257600080fd5b6001600160a01b038235811692602081013590911691604082013591908101906080810160608201356401000000008111156107cd57600080fd5b8201836020820111156107df57600080fd5b8035906020019184600183028401116401000000008311171561080157600080fd5b91908080601f016020809104026020016040519081016040528093929190818152602001838380828437600092019190915250929550611c9f945050505050565b6103586004803603602081101561085857600080fd5b5035611cfd565b6103ea611fe0565b6104576004803603602081101561087d57600080fd5b503560ff16611fef565b61034e6004803603602081101561089d57600080fd5b50356001600160a01b0316612004565b6108ca600480360360208110156108c357600080fd5b5035612130565b6040805160ff9092168252519081900360200190f35b61034e600480360360208110156108f657600080fd5b50356001600160a01b03166121a4565b6103ea6122a0565b6103176004803603604081101561092457600080fd5b506001600160a01b03813581169160200135166122af565b61034e6004803603602081101561095257600080fd5b50356001600160a01b03166122dd565b7fffffffff00000000000000000000000000000000000000000000000000000000811660009081526020819052604090205460ff165b919050565b600f5433906000906001600160a01b03168214156109b9575060015b60005b600e548110156109ff57600e81815481106109d357fe5b6000918252602090912001546001600160a01b03848116911614156109f757600191505b6001016109bc565b5080610a52576040805162461bcd60e51b815260206004820152600e60248201527f4e6f207065726d697373696f6e21000000000000000000000000000000000000604482015290519081900360640190fd5b83610a5c816123f5565b610aad576040805162461bcd60e51b815260206004820152601660248201527f4974206973206e6f742061204e465420746f6b656e2100000000000000000000604482015290519081900360640190fd5b428411610ab957600080fd5b6000858152600c602052604090208490558484610ad5826115e2565b6001600160a01b03167ff7cf4f010b9ba9eb8187d83b403259363e22a140e99f8fb721bcfdcf0bc16e1260405160405180910390a45050505050565b60068054604080516020601f6002600019610100600188161502019095169490940493840181900481028201810190925282815260609390929091830182828015610b9d5780601f10610b7257610100808354040283529160200191610b9d565b820191906000526020600020905b815481529060010190602001808311610b8057829003601f168201915b505050505090505b90565b6000610bb3826123f5565b610bee5760405162461bcd60e51b815260040180806020018281038252602c81526020018061349d602c913960400191505060405180910390fd5b506000908152600460205260409020546001600160a01b031690565b6000610c15826115e2565b9050806001600160a01b0316836001600160a01b03161415610c685760405162461bcd60e51b815260040180806020018281038252602181526020018061354d6021913960400191505060405180910390fd5b806001600160a01b0316610c7a612408565b6001600160a01b03161480610c9b5750610c9b81610c96612408565b6122af565b610cd65760405162461bcd60e51b81526004018080602001828103825260388152602001806133f06038913960400191505060405180910390fd5b610ce0838361240c565b505050565b600e8181548110610cf257fe5b6000918252602090912001546001600160a01b0316905081565b6000610d186002612487565b905090565b6103e881565b600f5433906000906001600160a01b0316821415610d3f575060015b60005b600e54811015610d8557600e8181548110610d5957fe5b6000918252602090912001546001600160a01b0384811691161415610d7d57600191505b600101610d42565b5080610dd8576040805162461bcd60e51b815260206004820152600e60248201527f4e6f207065726d697373696f6e21000000000000000000000000000000000000604482015290519081900360640190fd5b82610de2816123f5565b610e33576040805162461bcd60e51b815260206004820152601660248201527f4974206973206e6f742061204e465420746f6b656e2100000000000000000000604482015290519081900360640190fd5b6000848152600c6020526040902042908190558490610e51826115e2565b6001600160a01b03167ff7cf4f010b9ba9eb8187d83b403259363e22a140e99f8fb721bcfdcf0bc16e1260405160405180910390a450505050565b610e9d610e97612408565b82612492565b610ed85760405162461bcd60e51b815260040180806020018281038252603181526020018061356e6031913960400191505060405180910390fd5b610ce0838383612536565b6001600160a01b0382166000908152600160205260408120610f0b908363ffffffff61269416565b90505b92915050565b81610f1e816123f5565b610f6f576040805162461bcd60e51b815260206004820152601660248201527f4974206973206e6f742061204e465420746f6b656e2100000000000000000000604482015290519081900360640190fd5b6010546001600160a01b03163314610fce576040805162461bcd60e51b815260206004820152601d60248201527f4f6e6c792065786368616e67652063616e20757064617465204e465421000000604482015290519081900360640190fd5b306001600160a01b031663e1e0485e846040518263ffffffff1660e01b81526004018082815260200191505060206040518083038186803b15801561101257600080fd5b505afa158015611026573d6000803e3d6000fd5b505050506040513d602081101561103c57600080fd5b505160ff90811690831611611098576040805162461bcd60e51b815260206004820152600c60248201527f557064617465206661696c210000000000000000000000000000000000000000604482015290519081900360640190fd5b6000838152600b6020526040902080547fffffffffffffffffffffffffffffffffffffffffffffffffffffffffffffff001660ff841690811790915583906110df826115e2565b6001600160a01b03167f1441e2202458495432f071d4c62463070b2ba668bf711f7a6aca8002db7a631760405160405180910390a4505050565b611121612408565b600a546001600160a01b03908116911614611183576040805162461bcd60e51b815260206004820181905260248201527f4f776e61626c653a2063616c6c6572206973206e6f7420746865206f776e6572604482015290519081900360640190fd5b611195816001600160a01b03166126a0565b6111e6576040805162461bcd60e51b815260206004820152601a60248201527f49742773206e6f7420636f6e7472616374206164647265737321000000000000604482015290519081900360640190fd5b6111ef816126a6565b611240576040805162461bcd60e51b815260206004820152601760248201527f5468697320706f6f6c206973206e6f7420657869737421000000000000000000604482015290519081900360640190fd5b50565b61124b612408565b600a546001600160a01b039081169116146112ad576040805162461bcd60e51b815260206004820181905260248201527f4f776e61626c653a2063616c6c6572206973206e6f7420746865206f776e6572604482015290519081900360640190fd5b6112bf816001600160a01b03166126a0565b611310576040805162461bcd60e51b815260206004820152601a60248201527f49742773206e6f7420636f6e7472616374206164647265737321000000000000604482015290519081900360640190fd5b6012805473ffffffffffffffffffffffffffffffffffffffff19166001600160a01b0392909216919091179055565b6010546001600160a01b031681565b611356612408565b600a546001600160a01b039081169116146113b8576040805162461bcd60e51b815260206004820181905260248201527f4f776e61626c653a2063616c6c6572206973206e6f7420746865206f776e6572604482015290519081900360640190fd5b6113ca816001600160a01b03166126a0565b61141b576040805162461bcd60e51b815260206004820152601a60248201527f49742773206e6f7420636f6e7472616374206164647265737321000000000000604482015290519081900360640190fd5b6013805473ffffffffffffffffffffffffffffffffffffffff19166001600160a01b0392909216919091179055565b61146583838360405180602001604052806000815250611c9f565b601354604080517f3130c3ae0000000000000000000000000000000000000000000000000000000081526001600160a01b0386811660048301526024820185905242604483015291519190921691633130c3ae916064808301926020929190829003018186803b1580156114d857600080fd5b505afa1580156114ec573d6000803e3d6000fd5b505050506040513d602081101561150257600080fd5b5051610ce0576040805162461bcd60e51b815260206004820152601660248201527f5468697320746f6b656e20697320696e206c6f616e2100000000000000000000604482015290519081900360640190fd5b60008061156960028463ffffffff6127d416565b509392505050565b60008161157d816123f5565b6115ce576040805162461bcd60e51b815260206004820152601660248201527f4974206973206e6f742061204e465420746f6b656e2100000000000000000000604482015290519081900360640190fd5b50506000908152600c602052604090205490565b6000610f0e82604051806060016040528060298152602001613452602991396002919063ffffffff6127f016565b6012546001600160a01b0316331461166f576040805162461bcd60e51b815260206004820152601d60248201527f4f6e6c7920676163686120636f6e74726163742063616e206d696e7421000000604482015290519081900360640190fd5b6103e861167a610d0c565b11156116cd576040805162461bcd60e51b815260206004820152601760248201527f546865206d617820737570706c79206973203130303021000000000000000000604482015290519081900360640190fd5b6116d78585612807565b6117178483838080601f01602080910402602001604051908101604052809392919081815260200183838082843760009201919091525061282592505050565b50506000918252600b60209081526040808420805460ff9094167fffffffffffffffffffffffffffffffffffffffffffffffffffffffffffffff0090941684179055918352600d905290208054600101905550565b611774612408565b600a546001600160a01b039081169116146117d6576040805162461bcd60e51b815260206004820181905260248201527f4f776e61626c653a2063616c6c6572206973206e6f7420746865206f776e6572604482015290519081900360640190fd5b6117e8816001600160a01b03166126a0565b611839576040805162461bcd60e51b815260206004820152601a60248201527f49742773206e6f7420636f6e7472616374206164647265737321000000000000604482015290519081900360640190fd5b6010805473ffffffffffffffffffffffffffffffffffffffff19166001600160a01b0392909216919091179055565b60098054604080516020601f6002600019610100600188161502019095169490940493840181900481028201810190925282815260609390929091830182828015610b9d5780601f10610b7257610100808354040283529160200191610b9d565b600f546001600160a01b031681565b60006001600160a01b03821661191f5760405162461bcd60e51b815260040180806020018281038252602a815260200180613428602a913960400191505060405180910390fd5b6001600160a01b0382166000908152600160205260409020610f0e90612487565b611948612408565b600a546001600160a01b039081169116146119aa576040805162461bcd60e51b815260206004820181905260248201527f4f776e61626c653a2063616c6c6572206973206e6f7420746865206f776e6572604482015290519081900360640190fd5b600a546040516000916001600160a01b0316907f8be0079c531659141344cd1fd0a4f28419497f9722a3daafe3b4186f6b6457e0908390a3600a805473ffffffffffffffffffffffffffffffffffffffff19169055565b600a546001600160a01b031690565b60078054604080516020601f6002600019610100600188161502019095169490940493840181900481028201810190925282815260609390929091830182828015610b9d5780601f10610b7257610100808354040283529160200191610b9d565b6012546001600160a01b031681565b611a88612408565b6001600160a01b0316826001600160a01b03161415611aee576040805162461bcd60e51b815260206004820152601960248201527f4552433732313a20617070726f766520746f2063616c6c657200000000000000604482015290519081900360640190fd5b8060056000611afb612408565b6001600160a01b0390811682526020808301939093526040918201600090812091871680825291909352912080547fffffffffffffffffffffffffffffffffffffffffffffffffffffffffffffff001692151592909217909155611b5d612408565b60408051841515815290516001600160a01b0392909216917f17307eab39ab6107e8899845ad3d59bd9653f200f220920489ca2b5937696c319181900360200190a35050565b611bab612408565b600a546001600160a01b03908116911614611c0d576040805162461bcd60e51b815260206004820181905260248201527f4f776e61626c653a2063616c6c6572206973206e6f7420746865206f776e6572604482015290519081900360640190fd5b611c1f816001600160a01b03166126a0565b611c70576040805162461bcd60e51b815260206004820152601a60248201527f49742773206e6f7420636f6e7472616374206164647265737321000000000000604482015290519081900360640190fd5b6011805473ffffffffffffffffffffffffffffffffffffffff19166001600160a01b0392909216919091179055565b611cb0611caa612408565b83612492565b611ceb5760405162461bcd60e51b815260040180806020018281038252603181526020018061356e6031913960400191505060405180910390fd5b611cf784848484612888565b50505050565b6060611d08826123f5565b611d435760405162461bcd60e51b815260040180806020018281038252602f81526020018061351e602f913960400191505060405180910390fd5b60008281526008602090815260409182902080548351601f6002600019610100600186161502019093169290920491820184900484028101840190945280845260609392830182828015611dd85780601f10611dad57610100808354040283529160200191611dd8565b820191906000526020600020905b815481529060010190602001808311611dbb57829003601f168201915b505060095493945050505060026000196101006001841615020190911604611e01579050610998565b805115611ef0576009816040516020018083805460018160011615610100020316600290048015611e695780601f10611e47576101008083540402835291820191611e69565b820191906000526020600020905b815481529060010190602001808311611e55575b5050825160208401908083835b60208310611eb357805182527fffffffffffffffffffffffffffffffffffffffffffffffffffffffffffffffe09092019160209182019101611e76565b6001836020036101000a03801982511681845116808217855250505050505090500192505050604051602081830303815290604052915050610998565b6009611efb846128da565b6040516020018083805460018160011615610100020316600290048015611f595780601f10611f37576101008083540402835291820191611f59565b820191906000526020600020905b815481529060010190602001808311611f45575b5050825160208401908083835b60208310611fa357805182527fffffffffffffffffffffffffffffffffffffffffffffffffffffffffffffffe09092019160209182019101611f66565b6001836020036101000a03801982511681845116808217855250505050505090500192505050604051602081830303815290604052915050919050565b6013546001600160a01b031681565b60ff166000908152600d602052604090205490565b61200c612408565b600a546001600160a01b0390811691161461206e576040805162461bcd60e51b815260206004820181905260248201527f4f776e61626c653a2063616c6c6572206973206e6f7420746865206f776e6572604482015290519081900360640190fd5b612080816001600160a01b03166126a0565b6120d1576040805162461bcd60e51b815260206004820152601a60248201527f49742773206e6f7420636f6e7472616374206164647265737321000000000000604482015290519081900360640190fd5b600e80546001810182556000919091527fbb7b4a454dc3493923482f07822329ed19e8244eff582cc204f8554c3620c3fd01805473ffffffffffffffffffffffffffffffffffffffff19166001600160a01b0392909216919091179055565b60008161213c816123f5565b61218d576040805162461bcd60e51b815260206004820152601660248201527f4974206973206e6f742061204e465420746f6b656e2100000000000000000000604482015290519081900360640190fd5b50506000908152600b602052604090205460ff1690565b6121ac612408565b600a546001600160a01b0390811691161461220e576040805162461bcd60e51b815260206004820181905260248201527f4f776e61626c653a2063616c6c6572206973206e6f7420746865206f776e6572604482015290519081900360640190fd5b612220816001600160a01b03166126a0565b612271576040805162461bcd60e51b815260206004820152601a60248201527f49742773206e6f7420636f6e7472616374206164647265737321000000000000604482015290519081900360640190fd5b600f805473ffffffffffffffffffffffffffffffffffffffff19166001600160a01b0392909216919091179055565b6011546001600160a01b031681565b6001600160a01b03918216600090815260056020908152604080832093909416825291909152205460ff1690565b6122e5612408565b600a546001600160a01b03908116911614612347576040805162461bcd60e51b815260206004820181905260248201527f4f776e61626c653a2063616c6c6572206973206e6f7420746865206f776e6572604482015290519081900360640190fd5b6001600160a01b03811661238c5760405162461bcd60e51b815260040180806020018281038252602681526020018061337a6026913960400191505060405180910390fd5b600a546040516001600160a01b038084169216907f8be0079c531659141344cd1fd0a4f28419497f9722a3daafe3b4186f6b6457e090600090a3600a805473ffffffffffffffffffffffffffffffffffffffff19166001600160a01b0392909216919091179055565b6000610f0e60028363ffffffff6129d216565b3390565b6000818152600460205260409020805473ffffffffffffffffffffffffffffffffffffffff19166001600160a01b038416908117909155819061244e826115e2565b6001600160a01b03167f8c5be1e5ebec7d5bd14f71427d1e84f3dd0314c0f7b2291e5b200ac8c7c3b92560405160405180910390a45050565b6000610f0e826129de565b600061249d826123f5565b6124d85760405162461bcd60e51b815260040180806020018281038252602c8152602001806133c4602c913960400191505060405180910390fd5b60006124e3836115e2565b9050806001600160a01b0316846001600160a01b0316148061251e5750836001600160a01b031661251384610ba8565b6001600160a01b0316145b8061252e575061252e81856122af565b949350505050565b826001600160a01b0316612549826115e2565b6001600160a01b03161461258e5760405162461bcd60e51b81526004018080602001828103825260298152602001806134f56029913960400191505060405180910390fd5b6001600160a01b0382166125d35760405162461bcd60e51b81526004018080602001828103825260248152602001806133a06024913960400191505060405180910390fd5b6125de838383610ce0565b6125e960008261240c565b6001600160a01b0383166000908152600160205260409020612611908263ffffffff6129e216565b506001600160a01b038216600090815260016020526040902061263a908263ffffffff6129ee16565b5061264d6002828463ffffffff6129fa16565b5080826001600160a01b0316846001600160a01b03167fddf252ad1be2c89b69c2b068fc378daa952ba7f163c4a11628f55a4df523b3ef60405160405180910390a4505050565b6000610f0b8383612a10565b3b151590565b60008080805b600e548110156126fc57846001600160a01b0316600e82815481106126cd57fe5b6000918252602090912001546001600160a01b031614156126f457809250600191506126fc565b6001016126ac565b508061270d57600092505050610998565b815b600e546000190181101561279157600e816001018154811061272d57fe5b600091825260209091200154600e80546001600160a01b03909216918390811061275357fe5b6000918252602090912001805473ffffffffffffffffffffffffffffffffffffffff19166001600160a01b039290921691909117905560010161270f565b50600e805460001981019081106127a457fe5b6000918252602090912001805473ffffffffffffffffffffffffffffffffffffffff191690555060019392505050565b60008080806127e38686612a74565b9097909650945050505050565b60006127fd848484612aef565b90505b9392505050565b612821828260405180602001604052806000815250612bb9565b5050565b61282e826123f5565b6128695760405162461bcd60e51b815260040180806020018281038252602c8152602001806134c9602c913960400191505060405180910390fd5b60008281526008602090815260409091208251610ce09284019061328d565b612893848484612536565b61289f84848484612c0b565b611cf75760405162461bcd60e51b81526004018080602001828103825260328152602001806133486032913960400191505060405180910390fd5b60608161291b575060408051808201909152600181527f30000000000000000000000000000000000000000000000000000000000000006020820152610998565b8160005b811561293357600101600a8204915061291f565b6060816040519080825280601f01601f191660200182016040528015612960576020820181803883390190505b50859350905060001982015b83156129c957600a840660300160f81b8282806001900393508151811061298f57fe5b60200101907effffffffffffffffffffffffffffffffffffffffffffffffffffffffffffff1916908160001a905350600a8404935061296c565b50949350505050565b6000610f0b8383612dff565b5490565b6000610f0b8383612e17565b6000610f0b8383612edd565b60006127fd84846001600160a01b038516612f27565b81546000908210612a525760405162461bcd60e51b81526004018080602001828103825260228152602001806133266022913960400191505060405180910390fd5b826000018281548110612a6157fe5b9060005260206000200154905092915050565b815460009081908310612ab85760405162461bcd60e51b815260040180806020018281038252602281526020018061347b6022913960400191505060405180910390fd5b6000846000018481548110612ac957fe5b906000526020600020906002020190508060000154816001015492509250509250929050565b60008281526001840160205260408120548281612b8a5760405162461bcd60e51b81526004018080602001828103825283818151815260200191508051906020019080838360005b83811015612b4f578181015183820152602001612b37565b50505050905090810190601f168015612b7c5780820380516001836020036101000a031916815260200191505b509250505060405180910390fd5b50846000016001820381548110612b9d57fe5b9060005260206000209060020201600101549150509392505050565b612bc38383612fbe565b612bd06000848484612c0b565b610ce05760405162461bcd60e51b81526004018080602001828103825260328152602001806133486032913960400191505060405180910390fd5b6000612c1f846001600160a01b03166126a0565b612c2b5750600161252e565b6060612d947f150b7a0200000000000000000000000000000000000000000000000000000000612c59612408565b88878760405160240180856001600160a01b03166001600160a01b03168152602001846001600160a01b03166001600160a01b0316815260200183815260200180602001828103825283818151815260200191508051906020019080838360005b83811015612cd2578181015183820152602001612cba565b50505050905090810190601f168015612cff5780820380516001836020036101000a031916815260200191505b5095505050505050604051602081830303815290604052907bffffffffffffffffffffffffffffffffffffffffffffffffffffffff19166020820180517bffffffffffffffffffffffffffffffffffffffffffffffffffffffff8381831617835250505050604051806060016040528060328152602001613348603291396001600160a01b038816919063ffffffff6130f816565b90506000818060200190516020811015612dad57600080fd5b50517fffffffff00000000000000000000000000000000000000000000000000000000167f150b7a02000000000000000000000000000000000000000000000000000000001492505050949350505050565b60009081526001919091016020526040902054151590565b60008181526001830160205260408120548015612ed35783546000198083019190810190600090879083908110612e4a57fe5b9060005260206000200154905080876000018481548110612e6757fe5b600091825260208083209091019290925582815260018981019092526040902090840190558654879080612e9757fe5b60019003818190600052602060002001600090559055866001016000878152602001908152602001600020600090556001945050505050610f0e565b6000915050610f0e565b6000612ee98383612dff565b612f1f57508154600181810184556000848152602080822090930184905584548482528286019093526040902091909155610f0e565b506000610f0e565b600082815260018401602052604081205480612f8c575050604080518082018252838152602080820184815286546001818101895560008981528481209551600290930290950191825591519082015586548684528188019092529290912055612800565b82856000016001830381548110612f9f57fe5b9060005260206000209060020201600101819055506000915050612800565b6001600160a01b038216613019576040805162461bcd60e51b815260206004820181905260248201527f4552433732313a206d696e7420746f20746865207a65726f2061646472657373604482015290519081900360640190fd5b613022816123f5565b15613074576040805162461bcd60e51b815260206004820152601c60248201527f4552433732313a20746f6b656e20616c7265616479206d696e74656400000000604482015290519081900360640190fd5b61308060008383610ce0565b6001600160a01b03821660009081526001602052604090206130a8908263ffffffff6129ee16565b506130bb6002828463ffffffff6129fa16565b5060405181906001600160a01b038416906000907fddf252ad1be2c89b69c2b068fc378daa952ba7f163c4a11628f55a4df523b3ef908290a45050565b60606127fd8484600085606061310d856126a0565b61315e576040805162461bcd60e51b815260206004820152601d60248201527f416464726573733a2063616c6c20746f206e6f6e2d636f6e7472616374000000604482015290519081900360640190fd5b60006060866001600160a01b031685876040518082805190602001908083835b602083106131bb57805182527fffffffffffffffffffffffffffffffffffffffffffffffffffffffffffffffe0909201916020918201910161317e565b6001836020036101000a03801982511681845116808217855250505050505090500191505060006040518083038185875af1925050503d806000811461321d576040519150601f19603f3d011682016040523d82523d6000602084013e613222565b606091505b5091509150811561323657915061252e9050565b8051156132465780518082602001fd5b60405162461bcd60e51b8152602060048201818152865160248401528651879391928392604401919085019080838360008315612b4f578181015183820152602001612b37565b828054600181600116156101000203166002900490600052602060002090601f016020900481019282601f106132ce57805160ff19168380011785556132fb565b828001600101855582156132fb579182015b828111156132fb5782518255916020019190600101906132e0565b5061330792915061330b565b5090565b610ba591905b80821115613307576000815560010161331156fe456e756d657261626c655365743a20696e646578206f7574206f6620626f756e64734552433732313a207472616e7366657220746f206e6f6e20455243373231526563656976657220696d706c656d656e7465724f776e61626c653a206e6577206f776e657220697320746865207a65726f20616464726573734552433732313a207472616e7366657220746f20746865207a65726f20616464726573734552433732313a206f70657261746f7220717565727920666f72206e6f6e6578697374656e7420746f6b656e4552433732313a20617070726f76652063616c6c6572206973206e6f74206f776e6572206e6f7220617070726f76656420666f7220616c6c4552433732313a2062616c616e636520717565727920666f7220746865207a65726f20616464726573734552433732313a206f776e657220717565727920666f72206e6f6e6578697374656e7420746f6b656e456e756d657261626c654d61703a20696e646578206f7574206f6620626f756e64734552433732313a20617070726f76656420717565727920666f72206e6f6e6578697374656e7420746f6b656e4552433732314d657461646174613a2055524920736574206f66206e6f6e6578697374656e7420746f6b656e4552433732313a207472616e73666572206f6620746f6b656e2074686174206973206e6f74206f776e4552433732314d657461646174613a2055524920717565727920666f72206e6f6e6578697374656e7420746f6b656e4552433732313a20617070726f76616c20746f2063757272656e74206f776e65724552433732313a207472616e736665722063616c6c6572206973206e6f74206f776e6572206e6f7220617070726f766564a2646970667358221220de4b5019f539955ebc968a54143ea2c8ec4f4dc717794f0b656aa4a602aaaf9264736f6c63430006020033",
  "source": "pragma solidity ^0.6.0;\n\nimport \"../common/hotpotinterface.sol\";\nimport \"../common/ILoan.sol\";\nimport \"@openzeppelin/contracts/token/ERC721/ERC721.sol\";\nimport \"@openzeppelin/contracts/access/Ownable.sol\";\nimport \"@openzeppelin/contracts/utils/Address.sol\";\n\n\ncontract NFTokenHotPot is ERC721, IHotPot, Ownable {\n    mapping(uint256 => uint8) internal grades;\n    mapping(uint256 => uint256) internal useTimes;\n    mapping(uint8 => uint256) internal gradeCount;\n    \n    using Address for address;\n\n    address[] public poolContracts;\n    address public rewardContract;\n    address public exchangeContract;\n    address public rentalContract;\n    address public gachaContract;\n\n    ILoan public loan;\n\n    uint constant public MAX_NUM = 1000;\n\n    event UseTicket(\n        address indexed owner,\n        uint256 indexed useTime,\n        uint256 indexed tokenId\n    );\n\n    event TicketUpdate(\n        address indexed owner,\n        uint8 indexed grade,\n        uint256 indexed tokenId\n    );\n\n    constructor(string memory name, string memory symbol)\n        public\n        ERC721(name, symbol)\n    {\n        \n    }\n\n    modifier validNFToken(uint256 _tokenId) {\n        require(_exists(_tokenId), \"It is not a NFT token!\");\n        _;\n    }\n\n    modifier onlyCanUse() {\n        address sender = msg.sender;\n\n        bool canUse = false;\n\n        if (sender == rewardContract) {\n            canUse = true;\n        }\n\n        for (uint256 i = 0; i < poolContracts.length; i++) {\n            if (sender == poolContracts[i]) {\n                canUse = true;\n            }\n        }\n        require(canUse, \"No permission!\");\n        _;\n    }\n\n    modifier onlyCanMint() {\n        require(msg.sender == gachaContract, \"Only gacha contract can mint!\");\n        _;\n    }\n\n    /**\n     * @dev Mints a new NFT.\n     * @param _to The address that will own the minted NFT.\n     * @param _tokenId of the NFT to be minted by the msg.sender.\n     * @param _uri String representing RFC 3986 URI.\n     */\n    function mint(\n        address _to,\n        uint256 _tokenId,\n        uint8 _grade,\n        string calldata _uri\n    ) external override onlyCanMint {\n        require(totalSupply()<=MAX_NUM,\"The max supply is 1000!\");\n        _safeMint(_to, _tokenId);\n        _setTokenURI(_tokenId, _uri);\n        grades[_tokenId] = _grade;\n        uint256 count = gradeCount[_grade] + 1;\n        gradeCount[_grade] = count;\n    }\n\n    function getGradeCount(uint8 _grade)\n        external\n        override\n        view\n        returns (uint256)\n    {\n        return gradeCount[_grade];\n    }\n\n    function getGrade(uint256 _tokenId)\n        external\n        override\n        view\n        validNFToken(_tokenId)\n        returns (uint8)\n    {\n        return grades[_tokenId];\n    }\n\n\n    // event TicketUpdate(\n    //     address indexed owner,\n    //     uint256 indexed grade,\n    //     uint256 indexed tokenId\n    // );\n\n    function update(uint256 _tokenId, uint8 _grade)\n        external\n        override\n        validNFToken(_tokenId)\n    {\n        require(\n            msg.sender == exchangeContract,\n            \"Only exchange can update NFT!\"\n        );\n        require(_grade > this.getGrade(_tokenId), \"Update fail!\");\n        grades[_tokenId] = _grade;\n        emit TicketUpdate(ownerOf(_tokenId),_grade,_tokenId);\n    }\n\n    function getUseTime(uint256 _tokenId)\n        external\n        override\n        view\n        validNFToken(_tokenId)\n        returns (uint256)\n    {\n        return useTimes[_tokenId];\n    }\n\n    function setExchange(address _addr) external onlyOwner {\n        require(_addr.isContract(), \"It's not contract address!\");\n        exchangeContract = _addr;\n    }\n\n    function setGacha(address _addr) external onlyOwner {\n        require(_addr.isContract(), \"It's not contract address!\");\n        gachaContract = _addr;\n    }\n\n    function setReward(address reward) external onlyOwner {\n        require(reward.isContract(), \"It's not contract address!\");\n        rewardContract = reward;\n    }\n\n    function setRental(address _addr) external onlyOwner {\n        require(_addr.isContract(), \"It's not contract address!\");\n        rentalContract = _addr;\n    }\n\n    function addPool(address pool) external onlyOwner {\n        require(pool.isContract(), \"It's not contract address!\");\n        poolContracts.push(pool);\n    }\n\n    function removePool(address pool) external onlyOwner {\n        require(pool.isContract(), \"It's not contract address!\");\n        require(_remove(pool),\"This pool is not exist!\");\n    }\n\n    function _remove(address pool) internal returns(bool){\n        uint256 index = 0;\n        bool haveToken = false;\n        for (uint256 i = 0; i < poolContracts.length; i++) {\n            if (poolContracts[i] == pool) {\n                index = i;\n                haveToken = true;\n                break;\n            }\n        }\n\n        if (!haveToken) return false;\n\n        for (uint256 i = index; i < poolContracts.length - 1; i++) {\n            poolContracts[i] = poolContracts[i + 1];\n        }\n        delete poolContracts[poolContracts.length - 1];\n\n        return true;\n    }\n\n    function setUse(uint256 _tokenId)\n        external\n        override\n        onlyCanUse\n        validNFToken(_tokenId)\n    {\n        useTimes[_tokenId] = now;\n        // address _owner = ownerOf(_tokenId);\n        emit UseTicket(ownerOf(_tokenId), now, _tokenId);\n    }\n\n    function setUse(uint256 _tokenId, uint256 timestamp)\n        external\n        override\n        onlyCanUse\n        validNFToken(_tokenId)\n    {\n        require(timestamp > now);\n        useTimes[_tokenId] = timestamp;\n        // address _owner = ownerOf(_tokenId);\n        emit UseTicket(ownerOf(_tokenId), timestamp, _tokenId);\n    }\n\n    function setLoan(address _loan) external onlyOwner{\n        require(_loan.isContract(), \"It's not contract address!\");\n        loan = ILoan(_loan);\n    }\n\n    /**\n     * @dev See {IERC721-safeTransferFrom}.\n     */\n    function safeTransferFrom(address from, address to, uint256 tokenId) public virtual override {\n        ERC721.safeTransferFrom(from, to, tokenId, \"\");\n        //check loan\n        //checkPrivilege(address _user,uint256 _tokenId,uint256 _time) external view returns(bool);\n        require(loan.checkPrivilege(from,tokenId,now),\"This token is in loan!\");\n    }\n}\n",
  "sourcePath": "/Users/junhu/git/hotpotcontract/truffle/contracts/nft/hotpot-token.sol",
  "compiler": {
    "name": "solc",
    "version": "0.6.2+commit.bacdbe57.Emscripten.clang"
  },
  "schemaVersion": "3.3.0",
  "updatedAt": "2020-10-25T06:58:17.979Z",
  "devdoc": {
    "methods": {
      "approve(address,uint256)": {
        "details": "See {IERC721-approve}."
      },
      "balanceOf(address)": {
        "details": "See {IERC721-balanceOf}."
      },
      "baseURI()": {
        "details": "Returns the base URI set via {_setBaseURI}. This will be automatically added as a prefix in {tokenURI} to each token's URI, or to the token ID if no specific URI is set for that token ID."
      },
      "getApproved(uint256)": {
        "details": "See {IERC721-getApproved}."
      },
      "isApprovedForAll(address,address)": {
        "details": "See {IERC721-isApprovedForAll}."
      },
      "mint(address,uint256,uint8,string)": {
        "details": "Mints a new NFT.",
        "params": {
          "_to": "The address that will own the minted NFT.",
          "_tokenId": "of the NFT to be minted by the msg.sender.",
          "_uri": "String representing RFC 3986 URI."
        }
      },
      "name()": {
        "details": "See {IERC721Metadata-name}."
      },
      "owner()": {
        "details": "Returns the address of the current owner."
      },
      "ownerOf(uint256)": {
        "details": "See {IERC721-ownerOf}."
      },
      "renounceOwnership()": {
        "details": "Leaves the contract without owner. It will not be possible to call `onlyOwner` functions anymore. Can only be called by the current owner.     * NOTE: Renouncing ownership will leave the contract without an owner, thereby removing any functionality that is only available to the owner."
      },
      "safeTransferFrom(address,address,uint256)": {
        "details": "See {IERC721-safeTransferFrom}."
      },
      "safeTransferFrom(address,address,uint256,bytes)": {
        "details": "See {IERC721-safeTransferFrom}."
      },
      "setApprovalForAll(address,bool)": {
        "details": "See {IERC721-setApprovalForAll}."
      },
      "supportsInterface(bytes4)": {
        "details": "See {IERC165-supportsInterface}.     * Time complexity O(1), guaranteed to always use less than 30 000 gas."
      },
      "symbol()": {
        "details": "See {IERC721Metadata-symbol}."
      },
      "tokenByIndex(uint256)": {
        "details": "See {IERC721Enumerable-tokenByIndex}."
      },
      "tokenOfOwnerByIndex(address,uint256)": {
        "details": "See {IERC721Enumerable-tokenOfOwnerByIndex}."
      },
      "tokenURI(uint256)": {
        "details": "See {IERC721Metadata-tokenURI}."
      },
      "totalSupply()": {
        "details": "See {IERC721Enumerable-totalSupply}."
      },
      "transferFrom(address,address,uint256)": {
        "details": "See {IERC721-transferFrom}."
      },
      "transferOwnership(address)": {
        "details": "Transfers ownership of the contract to a new account (`newOwner`). Can only be called by the current owner."
      }
    }
  },
  "userdoc": {
    "methods": {}
  }
}