{
  "contractName": "NFTokenHotPot",
  "abi": [
    {
      "inputs": [
        {
          "internalType": "string",
          "name": "name",
          "type": "string"
        },
        {
          "internalType": "string",
          "name": "symbol",
          "type": "string"
        }
      ],
      "stateMutability": "nonpayable",
      "type": "constructor"
    },
    {
      "anonymous": false,
      "inputs": [
        {
          "indexed": true,
          "internalType": "address",
          "name": "owner",
          "type": "address"
        },
        {
          "indexed": true,
          "internalType": "address",
          "name": "approved",
          "type": "address"
        },
        {
          "indexed": true,
          "internalType": "uint256",
          "name": "tokenId",
          "type": "uint256"
        }
      ],
      "name": "Approval",
      "type": "event"
    },
    {
      "anonymous": false,
      "inputs": [
        {
          "indexed": true,
          "internalType": "address",
          "name": "owner",
          "type": "address"
        },
        {
          "indexed": true,
          "internalType": "address",
          "name": "operator",
          "type": "address"
        },
        {
          "indexed": false,
          "internalType": "bool",
          "name": "approved",
          "type": "bool"
        }
      ],
      "name": "ApprovalForAll",
      "type": "event"
    },
    {
      "anonymous": false,
      "inputs": [
        {
          "indexed": true,
          "internalType": "address",
          "name": "previousOwner",
          "type": "address"
        },
        {
          "indexed": true,
          "internalType": "address",
          "name": "newOwner",
          "type": "address"
        }
      ],
      "name": "OwnershipTransferred",
      "type": "event"
    },
    {
      "anonymous": false,
      "inputs": [
        {
          "indexed": true,
          "internalType": "address",
          "name": "owner",
          "type": "address"
        },
        {
          "indexed": true,
          "internalType": "uint8",
          "name": "grade",
          "type": "uint8"
        },
        {
          "indexed": true,
          "internalType": "uint256",
          "name": "tokenId",
          "type": "uint256"
        }
      ],
      "name": "TicketUpdate",
      "type": "event"
    },
    {
      "anonymous": false,
      "inputs": [
        {
          "indexed": true,
          "internalType": "address",
          "name": "from",
          "type": "address"
        },
        {
          "indexed": true,
          "internalType": "address",
          "name": "to",
          "type": "address"
        },
        {
          "indexed": true,
          "internalType": "uint256",
          "name": "tokenId",
          "type": "uint256"
        }
      ],
      "name": "Transfer",
      "type": "event"
    },
    {
      "anonymous": false,
      "inputs": [
        {
          "indexed": true,
          "internalType": "address",
          "name": "owner",
          "type": "address"
        },
        {
          "indexed": true,
          "internalType": "uint256",
          "name": "useTime",
          "type": "uint256"
        },
        {
          "indexed": true,
          "internalType": "uint256",
          "name": "tokenId",
          "type": "uint256"
        }
      ],
      "name": "UseTicket",
      "type": "event"
    },
    {
      "inputs": [],
      "name": "MAX_NUM",
      "outputs": [
        {
          "internalType": "uint256",
          "name": "",
          "type": "uint256"
        }
      ],
      "stateMutability": "view",
      "type": "function",
      "constant": true
    },
    {
      "inputs": [
        {
          "internalType": "address",
          "name": "to",
          "type": "address"
        },
        {
          "internalType": "uint256",
          "name": "tokenId",
          "type": "uint256"
        }
      ],
      "name": "approve",
      "outputs": [],
      "stateMutability": "nonpayable",
      "type": "function"
    },
    {
      "inputs": [
        {
          "internalType": "address",
          "name": "owner",
          "type": "address"
        }
      ],
      "name": "balanceOf",
      "outputs": [
        {
          "internalType": "uint256",
          "name": "",
          "type": "uint256"
        }
      ],
      "stateMutability": "view",
      "type": "function",
      "constant": true
    },
    {
      "inputs": [],
      "name": "baseURI",
      "outputs": [
        {
          "internalType": "string",
          "name": "",
          "type": "string"
        }
      ],
      "stateMutability": "view",
      "type": "function",
      "constant": true
    },
    {
      "inputs": [],
      "name": "exchangeContract",
      "outputs": [
        {
          "internalType": "address",
          "name": "",
          "type": "address"
        }
      ],
      "stateMutability": "view",
      "type": "function",
      "constant": true
    },
    {
      "inputs": [],
      "name": "gachaContract",
      "outputs": [
        {
          "internalType": "address",
          "name": "",
          "type": "address"
        }
      ],
      "stateMutability": "view",
      "type": "function",
      "constant": true
    },
    {
      "inputs": [
        {
          "internalType": "uint256",
          "name": "tokenId",
          "type": "uint256"
        }
      ],
      "name": "getApproved",
      "outputs": [
        {
          "internalType": "address",
          "name": "",
          "type": "address"
        }
      ],
      "stateMutability": "view",
      "type": "function",
      "constant": true
    },
    {
      "inputs": [
        {
          "internalType": "address",
          "name": "owner",
          "type": "address"
        },
        {
          "internalType": "address",
          "name": "operator",
          "type": "address"
        }
      ],
      "name": "isApprovedForAll",
      "outputs": [
        {
          "internalType": "bool",
          "name": "",
          "type": "bool"
        }
      ],
      "stateMutability": "view",
      "type": "function",
      "constant": true
    },
    {
      "inputs": [],
      "name": "name",
      "outputs": [
        {
          "internalType": "string",
          "name": "",
          "type": "string"
        }
      ],
      "stateMutability": "view",
      "type": "function",
      "constant": true
    },
    {
      "inputs": [],
      "name": "owner",
      "outputs": [
        {
          "internalType": "address",
          "name": "",
          "type": "address"
        }
      ],
      "stateMutability": "view",
      "type": "function",
      "constant": true
    },
    {
      "inputs": [
        {
          "internalType": "uint256",
          "name": "tokenId",
          "type": "uint256"
        }
      ],
      "name": "ownerOf",
      "outputs": [
        {
          "internalType": "address",
          "name": "",
          "type": "address"
        }
      ],
      "stateMutability": "view",
      "type": "function",
      "constant": true
    },
    {
      "inputs": [
        {
          "internalType": "uint256",
          "name": "",
          "type": "uint256"
        }
      ],
      "name": "poolContracts",
      "outputs": [
        {
          "internalType": "address",
          "name": "",
          "type": "address"
        }
      ],
      "stateMutability": "view",
      "type": "function",
      "constant": true
    },
    {
      "inputs": [],
      "name": "renounceOwnership",
      "outputs": [],
      "stateMutability": "nonpayable",
      "type": "function"
    },
    {
      "inputs": [],
      "name": "rentalContract",
      "outputs": [
        {
          "internalType": "address",
          "name": "",
          "type": "address"
        }
      ],
      "stateMutability": "view",
      "type": "function",
      "constant": true
    },
    {
      "inputs": [],
      "name": "rewardContract",
      "outputs": [
        {
          "internalType": "address",
          "name": "",
          "type": "address"
        }
      ],
      "stateMutability": "view",
      "type": "function",
      "constant": true
    },
    {
      "inputs": [
        {
          "internalType": "address",
          "name": "from",
          "type": "address"
        },
        {
          "internalType": "address",
          "name": "to",
          "type": "address"
        },
        {
          "internalType": "uint256",
          "name": "tokenId",
          "type": "uint256"
        }
      ],
      "name": "safeTransferFrom",
      "outputs": [],
      "stateMutability": "nonpayable",
      "type": "function"
    },
    {
      "inputs": [
        {
          "internalType": "address",
          "name": "from",
          "type": "address"
        },
        {
          "internalType": "address",
          "name": "to",
          "type": "address"
        },
        {
          "internalType": "uint256",
          "name": "tokenId",
          "type": "uint256"
        },
        {
          "internalType": "bytes",
          "name": "_data",
          "type": "bytes"
        }
      ],
      "name": "safeTransferFrom",
      "outputs": [],
      "stateMutability": "nonpayable",
      "type": "function"
    },
    {
      "inputs": [
        {
          "internalType": "address",
          "name": "operator",
          "type": "address"
        },
        {
          "internalType": "bool",
          "name": "approved",
          "type": "bool"
        }
      ],
      "name": "setApprovalForAll",
      "outputs": [],
      "stateMutability": "nonpayable",
      "type": "function"
    },
    {
      "inputs": [
        {
          "internalType": "bytes4",
          "name": "interfaceId",
          "type": "bytes4"
        }
      ],
      "name": "supportsInterface",
      "outputs": [
        {
          "internalType": "bool",
          "name": "",
          "type": "bool"
        }
      ],
      "stateMutability": "view",
      "type": "function",
      "constant": true
    },
    {
      "inputs": [],
      "name": "symbol",
      "outputs": [
        {
          "internalType": "string",
          "name": "",
          "type": "string"
        }
      ],
      "stateMutability": "view",
      "type": "function",
      "constant": true
    },
    {
      "inputs": [
        {
          "internalType": "uint256",
          "name": "index",
          "type": "uint256"
        }
      ],
      "name": "tokenByIndex",
      "outputs": [
        {
          "internalType": "uint256",
          "name": "",
          "type": "uint256"
        }
      ],
      "stateMutability": "view",
      "type": "function",
      "constant": true
    },
    {
      "inputs": [
        {
          "internalType": "address",
          "name": "owner",
          "type": "address"
        },
        {
          "internalType": "uint256",
          "name": "index",
          "type": "uint256"
        }
      ],
      "name": "tokenOfOwnerByIndex",
      "outputs": [
        {
          "internalType": "uint256",
          "name": "",
          "type": "uint256"
        }
      ],
      "stateMutability": "view",
      "type": "function",
      "constant": true
    },
    {
      "inputs": [
        {
          "internalType": "uint256",
          "name": "tokenId",
          "type": "uint256"
        }
      ],
      "name": "tokenURI",
      "outputs": [
        {
          "internalType": "string",
          "name": "",
          "type": "string"
        }
      ],
      "stateMutability": "view",
      "type": "function",
      "constant": true
    },
    {
      "inputs": [],
      "name": "totalSupply",
      "outputs": [
        {
          "internalType": "uint256",
          "name": "",
          "type": "uint256"
        }
      ],
      "stateMutability": "view",
      "type": "function",
      "constant": true
    },
    {
      "inputs": [
        {
          "internalType": "address",
          "name": "from",
          "type": "address"
        },
        {
          "internalType": "address",
          "name": "to",
          "type": "address"
        },
        {
          "internalType": "uint256",
          "name": "tokenId",
          "type": "uint256"
        }
      ],
      "name": "transferFrom",
      "outputs": [],
      "stateMutability": "nonpayable",
      "type": "function"
    },
    {
      "inputs": [
        {
          "internalType": "address",
          "name": "newOwner",
          "type": "address"
        }
      ],
      "name": "transferOwnership",
      "outputs": [],
      "stateMutability": "nonpayable",
      "type": "function"
    },
    {
      "inputs": [
        {
          "internalType": "address",
          "name": "_to",
          "type": "address"
        },
        {
          "internalType": "uint256",
          "name": "_tokenId",
          "type": "uint256"
        },
        {
          "internalType": "uint8",
          "name": "_grade",
          "type": "uint8"
        },
        {
          "internalType": "string",
          "name": "_uri",
          "type": "string"
        }
      ],
      "name": "mint",
      "outputs": [],
      "stateMutability": "nonpayable",
      "type": "function"
    },
    {
      "inputs": [
        {
          "internalType": "uint8",
          "name": "_grade",
          "type": "uint8"
        }
      ],
      "name": "getGradeCount",
      "outputs": [
        {
          "internalType": "uint256",
          "name": "",
          "type": "uint256"
        }
      ],
      "stateMutability": "view",
      "type": "function",
      "constant": true
    },
    {
      "inputs": [
        {
          "internalType": "uint256",
          "name": "_tokenId",
          "type": "uint256"
        }
      ],
      "name": "getGrade",
      "outputs": [
        {
          "internalType": "uint8",
          "name": "",
          "type": "uint8"
        }
      ],
      "stateMutability": "view",
      "type": "function",
      "constant": true
    },
    {
      "inputs": [
        {
          "internalType": "uint256",
          "name": "_tokenId",
          "type": "uint256"
        },
        {
          "internalType": "uint8",
          "name": "_grade",
          "type": "uint8"
        }
      ],
      "name": "update",
      "outputs": [],
      "stateMutability": "nonpayable",
      "type": "function"
    },
    {
      "inputs": [
        {
          "internalType": "uint256",
          "name": "_tokenId",
          "type": "uint256"
        }
      ],
      "name": "getUseTime",
      "outputs": [
        {
          "internalType": "uint256",
          "name": "",
          "type": "uint256"
        }
      ],
      "stateMutability": "view",
      "type": "function",
      "constant": true
    },
    {
      "inputs": [
        {
          "internalType": "address",
          "name": "_addr",
          "type": "address"
        }
      ],
      "name": "setExchange",
      "outputs": [],
      "stateMutability": "nonpayable",
      "type": "function"
    },
    {
      "inputs": [
        {
          "internalType": "address",
          "name": "_addr",
          "type": "address"
        }
      ],
      "name": "setGacha",
      "outputs": [],
      "stateMutability": "nonpayable",
      "type": "function"
    },
    {
      "inputs": [
        {
          "internalType": "address",
          "name": "reward",
          "type": "address"
        }
      ],
      "name": "setReward",
      "outputs": [],
      "stateMutability": "nonpayable",
      "type": "function"
    },
    {
      "inputs": [
        {
          "internalType": "address",
          "name": "_addr",
          "type": "address"
        }
      ],
      "name": "setRental",
      "outputs": [],
      "stateMutability": "nonpayable",
      "type": "function"
    },
    {
      "inputs": [
        {
          "internalType": "address",
          "name": "pool",
          "type": "address"
        }
      ],
      "name": "addPool",
      "outputs": [],
      "stateMutability": "nonpayable",
      "type": "function"
    },
    {
      "inputs": [
        {
          "internalType": "address",
          "name": "pool",
          "type": "address"
        }
      ],
      "name": "removePool",
      "outputs": [],
      "stateMutability": "nonpayable",
      "type": "function"
    },
    {
      "inputs": [
        {
          "internalType": "uint256",
          "name": "_delay",
          "type": "uint256"
        }
      ],
      "name": "setDelayTime",
      "outputs": [],
      "stateMutability": "nonpayable",
      "type": "function"
    },
    {
      "inputs": [
        {
          "internalType": "uint256",
          "name": "_tokenId",
          "type": "uint256"
        },
        {
          "internalType": "uint256",
          "name": "timestamp",
          "type": "uint256"
        }
      ],
      "name": "setUse",
      "outputs": [],
      "stateMutability": "nonpayable",
      "type": "function"
    },
    {
      "inputs": [
        {
          "internalType": "uint256",
          "name": "_tokenId",
          "type": "uint256"
        }
      ],
      "name": "setUse",
      "outputs": [],
      "stateMutability": "nonpayable",
      "type": "function"
    }
  ],
  "bytecode": "0x608060405260006013553480156200001657600080fd5b506040516200377038038062003770833981810160405260408110156200003c57600080fd5b81019080805160405193929190846401000000008211156200005d57600080fd5b9083019060208201858111156200007357600080fd5b82516401000000008111828201881017156200008e57600080fd5b82525081516020918201929091019080838360005b83811015620000bd578181015183820152602001620000a3565b50505050905090810190601f168015620000eb5780820380516001836020036101000a031916815260200191505b50604052602001805160405193929190846401000000008211156200010f57600080fd5b9083019060208201858111156200012557600080fd5b82516401000000008111828201881017156200014057600080fd5b82525081516020918201929091019080838360005b838110156200016f57818101518382015260200162000155565b50505050905090810190601f1680156200019d5780820380516001836020036101000a031916815260200191505b5060405250839150829050620001c36301ffc9a760e01b6001600160e01b03620002ae16565b8151620001d890600690602085019062000338565b508051620001ee90600790602084019062000338565b506200020a6380ac58cd60e01b6001600160e01b03620002ae16565b62000225635b5e139f60e01b6001600160e01b03620002ae16565b6200024063780e9d6360e01b6001600160e01b03620002ae16565b5060009050620002586001600160e01b036200033316565b600a80546001600160a01b0319166001600160a01b038316908117909155604051919250906000907f8be0079c531659141344cd1fd0a4f28419497f9722a3daafe3b4186f6b6457e0908290a3505050620003da565b6001600160e01b031980821614156200030e576040805162461bcd60e51b815260206004820152601c60248201527f4552433136353a20696e76616c696420696e7465726661636520696400000000604482015290519081900360640190fd5b6001600160e01b0319166000908152602081905260409020805460ff19166001179055565b335b90565b828054600181600116156101000203166002900490600052602060002090601f016020900481019282601f106200037b57805160ff1916838001178555620003ab565b82800160010185558215620003ab579182015b82811115620003ab5782518255916020019190600101906200038e565b50620003b9929150620003bd565b5090565b6200033591905b80821115620003b95760008155600101620003c4565b61338680620003ea6000396000f3fe608060405234801561001057600080fd5b50600436106102c85760003560e01c806367b1f5df1161017b578063b2305d6a116100d8578063e1e0485e1161008c578063e8f4e9d411610071578063e8f4e9d4146108ea578063e985e9c5146108f2578063f2fde38b14610920576102c8565b8063e1e0485e14610891578063e5932c40146108c4576102c8565b8063c87b56dd116100bd578063c87b56dd1461082e578063d394dd791461084b578063d914cd4b1461086b576102c8565b8063b2305d6a14610742578063b88d4fde14610768576102c8565b80638951ed181161012f57806395d89b411161011457806395d89b41146107045780639d304e851461070c578063a22cb46514610714576102c8565b80638951ed18146106df5780638da5cb5b146106fc576102c8565b80636ea69d62116101605780636ea69d62146106a957806370a08231146106b1578063715018a6146106d7576102c8565b806367b1f5df1461067b5780636c0360eb146106a1576102c8565b80632f745c591161022957806342842e0e116101dd5780635840e659116101c25780635840e659146105b25780636352211e146105cf578063644acc60146105ec576102c8565b806342842e0e1461055f5780634f6ccce714610595576102c8565b80633b7d09461161020e5780633b7d09461461050b5780633c6bd5db146105315780633f0a079714610557576102c8565b80632f745c59146104b9578063306a6948146104e5576102c8565b80631810feb8116102805780631e3024fe116102655780631e3024fe1461045e57806322142e6c1461046657806323b872dd14610483576102c8565b80631810feb81461042757806318160ddd14610444576102c8565b806306fdde03116102b157806306fdde0314610345578063081812fc146103c2578063095ea7b3146103fb576102c8565b806301ffc9a7146102cd57806303ab6e7614610320575b600080fd5b61030c600480360360208110156102e357600080fd5b50357fffffffff0000000000000000000000000000000000000000000000000000000016610946565b604080519115158252519081900360200190f35b6103436004803603604081101561033657600080fd5b5080359060200135610981565b005b61034d610af5565b6040805160208082528351818301528351919283929083019185019080838360005b8381101561038757818101518382015260200161036f565b50505050905090810190601f1680156103b45780820380516001836020036101000a031916815260200191505b509250505060405180910390f35b6103df600480360360208110156103d857600080fd5b5035610b8c565b604080516001600160a01b039092168252519081900360200190f35b6103436004803603604081101561041157600080fd5b506001600160a01b038135169060200135610bee565b6103df6004803603602081101561043d57600080fd5b5035610cc9565b61044c610cf0565b60408051918252519081900360200190f35b61044c610d01565b6103436004803603602081101561047c57600080fd5b5035610d07565b6103436004803603606081101561049957600080fd5b506001600160a01b03813581169160208101359091169060400135610e74565b61044c600480360360408110156104cf57600080fd5b506001600160a01b038135169060200135610ecb565b610343600480360360408110156104fb57600080fd5b508035906020013560ff16610efc565b6103436004803603602081101561052157600080fd5b50356001600160a01b0316611101565b6103436004803603602081101561054757600080fd5b50356001600160a01b0316611258565b6103df61135f565b6103436004803603606081101561057557600080fd5b506001600160a01b0381358116916020810135909116906040013561136e565b61044c600480360360208110156105ab57600080fd5b5035611389565b61044c600480360360208110156105c857600080fd5b50356113a5565b6103df600480360360208110156105e557600080fd5b5035611416565b6103436004803603608081101561060257600080fd5b6001600160a01b038235169160208101359160ff604083013516919081019060808101606082013564010000000081111561063c57600080fd5b82018360208201111561064e57600080fd5b8035906020019184600183028401116401000000008311171561067057600080fd5b509092509050611444565b6103436004803603602081101561069157600080fd5b50356001600160a01b03166115a3565b61034d6116aa565b6103df61170b565b61044c600480360360208110156106c757600080fd5b50356001600160a01b031661171a565b610343611782565b610343600480360360208110156106f557600080fd5b503561184e565b6103df6118bd565b61034d6118cc565b6103df61192d565b6103436004803603604081101561072a57600080fd5b506001600160a01b038135169060200135151561193c565b6103436004803603602081101561075857600080fd5b50356001600160a01b0316611a5f565b6103436004803603608081101561077e57600080fd5b6001600160a01b038235811692602081013590911691604082013591908101906080810160608201356401000000008111156107b957600080fd5b8201836020820111156107cb57600080fd5b803590602001918460018302840111640100000000831117156107ed57600080fd5b91908080601f016020809104026020016040519081016040528093929190818152602001838380828437600092019190915250929550611b66945050505050565b61034d6004803603602081101561084457600080fd5b5035611bc4565b61044c6004803603602081101561086157600080fd5b503560ff16611ea7565b6103436004803603602081101561088157600080fd5b50356001600160a01b0316611ebc565b6108ae600480360360208110156108a757600080fd5b5035611ff3565b6040805160ff9092168252519081900360200190f35b610343600480360360208110156108da57600080fd5b50356001600160a01b0316612067565b6103df61216e565b61030c6004803603604081101561090857600080fd5b506001600160a01b038135811691602001351661217d565b6103436004803603602081101561093657600080fd5b50356001600160a01b03166121ab565b7fffffffff00000000000000000000000000000000000000000000000000000000811660009081526020819052604090205460ff165b919050565b600f5433906000906001600160a01b031682141561099d575060015b60005b600e548110156109e357600e81815481106109b757fe5b6000918252602090912001546001600160a01b03848116911614156109db57600191505b6001016109a0565b5080610a36576040805162461bcd60e51b815260206004820152600e60248201527f4e6f207065726d697373696f6e21000000000000000000000000000000000000604482015290519081900360640190fd5b83610a40816122ce565b610a91576040805162461bcd60e51b815260206004820152601660248201527f4974206973206e6f742061204e465420746f6b656e2100000000000000000000604482015290519081900360640190fd5b428411610a9d57600080fd5b6000858152600c602052604090208490558484610ab982611416565b6001600160a01b03167ff7cf4f010b9ba9eb8187d83b403259363e22a140e99f8fb721bcfdcf0bc16e1260405160405180910390a45050505050565b60068054604080516020601f6002600019610100600188161502019095169490940493840181900481028201810190925282815260609390929091830182828015610b815780601f10610b5657610100808354040283529160200191610b81565b820191906000526020600020905b815481529060010190602001808311610b6457829003601f168201915b505050505090505b90565b6000610b97826122ce565b610bd25760405162461bcd60e51b815260040180806020018281038252602c81526020018061324f602c913960400191505060405180910390fd5b506000908152600460205260409020546001600160a01b031690565b6000610bf982611416565b9050806001600160a01b0316836001600160a01b03161415610c4c5760405162461bcd60e51b81526004018080602001828103825260218152602001806132ff6021913960400191505060405180910390fd5b806001600160a01b0316610c5e6122e1565b6001600160a01b03161480610c7f5750610c7f81610c7a6122e1565b61217d565b610cba5760405162461bcd60e51b81526004018080602001828103825260388152602001806131a26038913960400191505060405180910390fd5b610cc483836122e5565b505050565b600e8181548110610cd657fe5b6000918252602090912001546001600160a01b0316905081565b6000610cfc600261236b565b905090565b6103e881565b600f5433906000906001600160a01b0316821415610d23575060015b60005b600e54811015610d6957600e8181548110610d3d57fe5b6000918252602090912001546001600160a01b0384811691161415610d6157600191505b600101610d26565b5080610dbc576040805162461bcd60e51b815260206004820152600e60248201527f4e6f207065726d697373696f6e21000000000000000000000000000000000000604482015290519081900360640190fd5b82610dc6816122ce565b610e17576040805162461bcd60e51b815260206004820152601660248201527f4974206973206e6f742061204e465420746f6b656e2100000000000000000000604482015290519081900360640190fd5b6013546000858152600c602052604090204291820390558490610e3982611416565b6001600160a01b03167ff7cf4f010b9ba9eb8187d83b403259363e22a140e99f8fb721bcfdcf0bc16e1260405160405180910390a450505050565b610e85610e7f6122e1565b82612376565b610ec05760405162461bcd60e51b81526004018080602001828103825260318152602001806133206031913960400191505060405180910390fd5b610cc483838361241a565b6001600160a01b0382166000908152600160205260408120610ef3908363ffffffff61257816565b90505b92915050565b81610f06816122ce565b610f57576040805162461bcd60e51b815260206004820152601660248201527f4974206973206e6f742061204e465420746f6b656e2100000000000000000000604482015290519081900360640190fd5b6010546001600160a01b03163314610fb6576040805162461bcd60e51b815260206004820152601d60248201527f4f6e6c792065786368616e67652063616e20757064617465204e465421000000604482015290519081900360640190fd5b306001600160a01b031663e1e0485e846040518263ffffffff1660e01b81526004018082815260200191505060206040518083038186803b158015610ffa57600080fd5b505afa15801561100e573d6000803e3d6000fd5b505050506040513d602081101561102457600080fd5b505160ff90811690831611611080576040805162461bcd60e51b815260206004820152600c60248201527f557064617465206661696c210000000000000000000000000000000000000000604482015290519081900360640190fd5b6000838152600b6020526040902080547fffffffffffffffffffffffffffffffffffffffffffffffffffffffffffffff001660ff841690811790915583906110c782611416565b6001600160a01b03167f1441e2202458495432f071d4c62463070b2ba668bf711f7a6aca8002db7a631760405160405180910390a4505050565b6111096122e1565b600a546001600160a01b0390811691161461116b576040805162461bcd60e51b815260206004820181905260248201527f4f776e61626c653a2063616c6c6572206973206e6f7420746865206f776e6572604482015290519081900360640190fd5b61117d816001600160a01b0316612584565b6111ce576040805162461bcd60e51b815260206004820152601a60248201527f49742773206e6f7420636f6e7472616374206164647265737321000000000000604482015290519081900360640190fd5b60005b600e5481101561125357600e81815481106111e857fe5b6000918252602090912001546001600160a01b038381169116141561124b57600e818154811061121457fe5b600091825260209091200180547fffffffffffffffffffffffff000000000000000000000000000000000000000016905550611255565b6001016111d1565b505b50565b6112606122e1565b600a546001600160a01b039081169116146112c2576040805162461bcd60e51b815260206004820181905260248201527f4f776e61626c653a2063616c6c6572206973206e6f7420746865206f776e6572604482015290519081900360640190fd5b6112d4816001600160a01b0316612584565b611325576040805162461bcd60e51b815260206004820152601a60248201527f49742773206e6f7420636f6e7472616374206164647265737321000000000000604482015290519081900360640190fd5b601280547fffffffffffffffffffffffff0000000000000000000000000000000000000000166001600160a01b0392909216919091179055565b6010546001600160a01b031681565b610cc483838360405180602001604052806000815250611b66565b60008061139d60028463ffffffff61258a16565b509392505050565b6000816113b1816122ce565b611402576040805162461bcd60e51b815260206004820152601660248201527f4974206973206e6f742061204e465420746f6b656e2100000000000000000000604482015290519081900360640190fd5b50506000908152600c602052604090205490565b6000610ef682604051806060016040528060298152602001613204602991396002919063ffffffff6125a616565b6012546001600160a01b031633146114a3576040805162461bcd60e51b815260206004820152601d60248201527f4f6e6c7920676163686120636f6e74726163742063616e206d696e7421000000604482015290519081900360640190fd5b6114ad85856125bd565b6114ed8483838080601f0160208091040260200160405190810160405280939291908181526020018383808284376000920191909152506125d792505050565b6000848152600b6020908152604080832080547fffffffffffffffffffffffffffffffffffffffffffffffffffffffffffffff001660ff88169081179091558352600d90915290208054600101908190556103e8611549610cf0565b1061159b576040805162461bcd60e51b815260206004820152601760248201527f546865206d617820737570706c79206973203130303021000000000000000000604482015290519081900360640190fd5b505050505050565b6115ab6122e1565b600a546001600160a01b0390811691161461160d576040805162461bcd60e51b815260206004820181905260248201527f4f776e61626c653a2063616c6c6572206973206e6f7420746865206f776e6572604482015290519081900360640190fd5b61161f816001600160a01b0316612584565b611670576040805162461bcd60e51b815260206004820152601a60248201527f49742773206e6f7420636f6e7472616374206164647265737321000000000000604482015290519081900360640190fd5b601080547fffffffffffffffffffffffff0000000000000000000000000000000000000000166001600160a01b0392909216919091179055565b60098054604080516020601f6002600019610100600188161502019095169490940493840181900481028201810190925282815260609390929091830182828015610b815780601f10610b5657610100808354040283529160200191610b81565b600f546001600160a01b031681565b60006001600160a01b0382166117615760405162461bcd60e51b815260040180806020018281038252602a8152602001806131da602a913960400191505060405180910390fd5b6001600160a01b0382166000908152600160205260409020610ef69061236b565b61178a6122e1565b600a546001600160a01b039081169116146117ec576040805162461bcd60e51b815260206004820181905260248201527f4f776e61626c653a2063616c6c6572206973206e6f7420746865206f776e6572604482015290519081900360640190fd5b600a546040516000916001600160a01b0316907f8be0079c531659141344cd1fd0a4f28419497f9722a3daafe3b4186f6b6457e0908390a3600a80547fffffffffffffffffffffffff0000000000000000000000000000000000000000169055565b6118566122e1565b600a546001600160a01b039081169116146118b8576040805162461bcd60e51b815260206004820181905260248201527f4f776e61626c653a2063616c6c6572206973206e6f7420746865206f776e6572604482015290519081900360640190fd5b601355565b600a546001600160a01b031690565b60078054604080516020601f6002600019610100600188161502019095169490940493840181900481028201810190925282815260609390929091830182828015610b815780601f10610b5657610100808354040283529160200191610b81565b6012546001600160a01b031681565b6119446122e1565b6001600160a01b0316826001600160a01b031614156119aa576040805162461bcd60e51b815260206004820152601960248201527f4552433732313a20617070726f766520746f2063616c6c657200000000000000604482015290519081900360640190fd5b80600560006119b76122e1565b6001600160a01b0390811682526020808301939093526040918201600090812091871680825291909352912080547fffffffffffffffffffffffffffffffffffffffffffffffffffffffffffffff001692151592909217909155611a196122e1565b60408051841515815290516001600160a01b0392909216917f17307eab39ab6107e8899845ad3d59bd9653f200f220920489ca2b5937696c319181900360200190a35050565b611a676122e1565b600a546001600160a01b03908116911614611ac9576040805162461bcd60e51b815260206004820181905260248201527f4f776e61626c653a2063616c6c6572206973206e6f7420746865206f776e6572604482015290519081900360640190fd5b611adb816001600160a01b0316612584565b611b2c576040805162461bcd60e51b815260206004820152601a60248201527f49742773206e6f7420636f6e7472616374206164647265737321000000000000604482015290519081900360640190fd5b601180547fffffffffffffffffffffffff0000000000000000000000000000000000000000166001600160a01b0392909216919091179055565b611b77611b716122e1565b83612376565b611bb25760405162461bcd60e51b81526004018080602001828103825260318152602001806133206031913960400191505060405180910390fd5b611bbe8484848461263a565b50505050565b6060611bcf826122ce565b611c0a5760405162461bcd60e51b815260040180806020018281038252602f8152602001806132d0602f913960400191505060405180910390fd5b60008281526008602090815260409182902080548351601f6002600019610100600186161502019093169290920491820184900484028101840190945280845260609392830182828015611c9f5780601f10611c7457610100808354040283529160200191611c9f565b820191906000526020600020905b815481529060010190602001808311611c8257829003601f168201915b505060095493945050505060026000196101006001841615020190911604611cc857905061097c565b805115611db7576009816040516020018083805460018160011615610100020316600290048015611d305780601f10611d0e576101008083540402835291820191611d30565b820191906000526020600020905b815481529060010190602001808311611d1c575b5050825160208401908083835b60208310611d7a57805182527fffffffffffffffffffffffffffffffffffffffffffffffffffffffffffffffe09092019160209182019101611d3d565b6001836020036101000a0380198251168184511680821785525050505050509050019250505060405160208183030381529060405291505061097c565b6009611dc28461268c565b6040516020018083805460018160011615610100020316600290048015611e205780601f10611dfe576101008083540402835291820191611e20565b820191906000526020600020905b815481529060010190602001808311611e0c575b5050825160208401908083835b60208310611e6a57805182527fffffffffffffffffffffffffffffffffffffffffffffffffffffffffffffffe09092019160209182019101611e2d565b6001836020036101000a03801982511681845116808217855250505050505090500192505050604051602081830303815290604052915050919050565b60ff166000908152600d602052604090205490565b611ec46122e1565b600a546001600160a01b03908116911614611f26576040805162461bcd60e51b815260206004820181905260248201527f4f776e61626c653a2063616c6c6572206973206e6f7420746865206f776e6572604482015290519081900360640190fd5b611f38816001600160a01b0316612584565b611f89576040805162461bcd60e51b815260206004820152601a60248201527f49742773206e6f7420636f6e7472616374206164647265737321000000000000604482015290519081900360640190fd5b600e80546001810182556000919091527fbb7b4a454dc3493923482f07822329ed19e8244eff582cc204f8554c3620c3fd0180547fffffffffffffffffffffffff0000000000000000000000000000000000000000166001600160a01b0392909216919091179055565b600081611fff816122ce565b612050576040805162461bcd60e51b815260206004820152601660248201527f4974206973206e6f742061204e465420746f6b656e2100000000000000000000604482015290519081900360640190fd5b50506000908152600b602052604090205460ff1690565b61206f6122e1565b600a546001600160a01b039081169116146120d1576040805162461bcd60e51b815260206004820181905260248201527f4f776e61626c653a2063616c6c6572206973206e6f7420746865206f776e6572604482015290519081900360640190fd5b6120e3816001600160a01b0316612584565b612134576040805162461bcd60e51b815260206004820152601a60248201527f49742773206e6f7420636f6e7472616374206164647265737321000000000000604482015290519081900360640190fd5b600f80547fffffffffffffffffffffffff0000000000000000000000000000000000000000166001600160a01b0392909216919091179055565b6011546001600160a01b031681565b6001600160a01b03918216600090815260056020908152604080832093909416825291909152205460ff1690565b6121b36122e1565b600a546001600160a01b03908116911614612215576040805162461bcd60e51b815260206004820181905260248201527f4f776e61626c653a2063616c6c6572206973206e6f7420746865206f776e6572604482015290519081900360640190fd5b6001600160a01b03811661225a5760405162461bcd60e51b815260040180806020018281038252602681526020018061312c6026913960400191505060405180910390fd5b600a546040516001600160a01b038084169216907f8be0079c531659141344cd1fd0a4f28419497f9722a3daafe3b4186f6b6457e090600090a3600a80547fffffffffffffffffffffffff0000000000000000000000000000000000000000166001600160a01b0392909216919091179055565b6000610ef660028363ffffffff61278416565b3390565b600081815260046020526040902080547fffffffffffffffffffffffff0000000000000000000000000000000000000000166001600160a01b038416908117909155819061233282611416565b6001600160a01b03167f8c5be1e5ebec7d5bd14f71427d1e84f3dd0314c0f7b2291e5b200ac8c7c3b92560405160405180910390a45050565b6000610ef682612790565b6000612381826122ce565b6123bc5760405162461bcd60e51b815260040180806020018281038252602c815260200180613176602c913960400191505060405180910390fd5b60006123c783611416565b9050806001600160a01b0316846001600160a01b031614806124025750836001600160a01b03166123f784610b8c565b6001600160a01b0316145b806124125750612412818561217d565b949350505050565b826001600160a01b031661242d82611416565b6001600160a01b0316146124725760405162461bcd60e51b81526004018080602001828103825260298152602001806132a76029913960400191505060405180910390fd5b6001600160a01b0382166124b75760405162461bcd60e51b81526004018080602001828103825260248152602001806131526024913960400191505060405180910390fd5b6124c2838383610cc4565b6124cd6000826122e5565b6001600160a01b03831660009081526001602052604090206124f5908263ffffffff61279416565b506001600160a01b038216600090815260016020526040902061251e908263ffffffff6127a016565b506125316002828463ffffffff6127ac16565b5080826001600160a01b0316846001600160a01b03167fddf252ad1be2c89b69c2b068fc378daa952ba7f163c4a11628f55a4df523b3ef60405160405180910390a4505050565b6000610ef383836127c2565b3b151590565b60008080806125998686612826565b9097909650945050505050565b60006125b38484846128a1565b90505b9392505050565b61125382826040518060200160405280600081525061296b565b6125e0826122ce565b61261b5760405162461bcd60e51b815260040180806020018281038252602c81526020018061327b602c913960400191505060405180910390fd5b60008281526008602090815260409091208251610cc49284019061303f565b61264584848461241a565b612651848484846129bd565b611bbe5760405162461bcd60e51b81526004018080602001828103825260328152602001806130fa6032913960400191505060405180910390fd5b6060816126cd575060408051808201909152600181527f3000000000000000000000000000000000000000000000000000000000000000602082015261097c565b8160005b81156126e557600101600a820491506126d1565b6060816040519080825280601f01601f191660200182016040528015612712576020820181803883390190505b50859350905060001982015b831561277b57600a840660300160f81b8282806001900393508151811061274157fe5b60200101907effffffffffffffffffffffffffffffffffffffffffffffffffffffffffffff1916908160001a905350600a8404935061271e565b50949350505050565b6000610ef38383612bb1565b5490565b6000610ef38383612bc9565b6000610ef38383612c8f565b60006125b384846001600160a01b038516612cd9565b815460009082106128045760405162461bcd60e51b81526004018080602001828103825260228152602001806130d86022913960400191505060405180910390fd5b82600001828154811061281357fe5b9060005260206000200154905092915050565b81546000908190831061286a5760405162461bcd60e51b815260040180806020018281038252602281526020018061322d6022913960400191505060405180910390fd5b600084600001848154811061287b57fe5b906000526020600020906002020190508060000154816001015492509250509250929050565b6000828152600184016020526040812054828161293c5760405162461bcd60e51b81526004018080602001828103825283818151815260200191508051906020019080838360005b838110156129015781810151838201526020016128e9565b50505050905090810190601f16801561292e5780820380516001836020036101000a031916815260200191505b509250505060405180910390fd5b5084600001600182038154811061294f57fe5b9060005260206000209060020201600101549150509392505050565b6129758383612d70565b61298260008484846129bd565b610cc45760405162461bcd60e51b81526004018080602001828103825260328152602001806130fa6032913960400191505060405180910390fd5b60006129d1846001600160a01b0316612584565b6129dd57506001612412565b6060612b467f150b7a0200000000000000000000000000000000000000000000000000000000612a0b6122e1565b88878760405160240180856001600160a01b03166001600160a01b03168152602001846001600160a01b03166001600160a01b0316815260200183815260200180602001828103825283818151815260200191508051906020019080838360005b83811015612a84578181015183820152602001612a6c565b50505050905090810190601f168015612ab15780820380516001836020036101000a031916815260200191505b5095505050505050604051602081830303815290604052907bffffffffffffffffffffffffffffffffffffffffffffffffffffffff19166020820180517bffffffffffffffffffffffffffffffffffffffffffffffffffffffff83818316178352505050506040518060600160405280603281526020016130fa603291396001600160a01b038816919063ffffffff612eaa16565b90506000818060200190516020811015612b5f57600080fd5b50517fffffffff00000000000000000000000000000000000000000000000000000000167f150b7a02000000000000000000000000000000000000000000000000000000001492505050949350505050565b60009081526001919091016020526040902054151590565b60008181526001830160205260408120548015612c855783546000198083019190810190600090879083908110612bfc57fe5b9060005260206000200154905080876000018481548110612c1957fe5b600091825260208083209091019290925582815260018981019092526040902090840190558654879080612c4957fe5b60019003818190600052602060002001600090559055866001016000878152602001908152602001600020600090556001945050505050610ef6565b6000915050610ef6565b6000612c9b8383612bb1565b612cd157508154600181810184556000848152602080822090930184905584548482528286019093526040902091909155610ef6565b506000610ef6565b600082815260018401602052604081205480612d3e5750506040805180820182528381526020808201848152865460018181018955600089815284812095516002909302909501918255915190820155865486845281880190925292909120556125b6565b82856000016001830381548110612d5157fe5b90600052602060002090600202016001018190555060009150506125b6565b6001600160a01b038216612dcb576040805162461bcd60e51b815260206004820181905260248201527f4552433732313a206d696e7420746f20746865207a65726f2061646472657373604482015290519081900360640190fd5b612dd4816122ce565b15612e26576040805162461bcd60e51b815260206004820152601c60248201527f4552433732313a20746f6b656e20616c7265616479206d696e74656400000000604482015290519081900360640190fd5b612e3260008383610cc4565b6001600160a01b0382166000908152600160205260409020612e5a908263ffffffff6127a016565b50612e6d6002828463ffffffff6127ac16565b5060405181906001600160a01b038416906000907fddf252ad1be2c89b69c2b068fc378daa952ba7f163c4a11628f55a4df523b3ef908290a45050565b60606125b384846000856060612ebf85612584565b612f10576040805162461bcd60e51b815260206004820152601d60248201527f416464726573733a2063616c6c20746f206e6f6e2d636f6e7472616374000000604482015290519081900360640190fd5b60006060866001600160a01b031685876040518082805190602001908083835b60208310612f6d57805182527fffffffffffffffffffffffffffffffffffffffffffffffffffffffffffffffe09092019160209182019101612f30565b6001836020036101000a03801982511681845116808217855250505050505090500191505060006040518083038185875af1925050503d8060008114612fcf576040519150601f19603f3d011682016040523d82523d6000602084013e612fd4565b606091505b50915091508115612fe85791506124129050565b805115612ff85780518082602001fd5b60405162461bcd60e51b81526020600482018181528651602484015286518793919283926044019190850190808383600083156129015781810151838201526020016128e9565b828054600181600116156101000203166002900490600052602060002090601f016020900481019282601f1061308057805160ff19168380011785556130ad565b828001600101855582156130ad579182015b828111156130ad578251825591602001919060010190613092565b506130b99291506130bd565b5090565b610b8991905b808211156130b957600081556001016130c356fe456e756d657261626c655365743a20696e646578206f7574206f6620626f756e64734552433732313a207472616e7366657220746f206e6f6e20455243373231526563656976657220696d706c656d656e7465724f776e61626c653a206e6577206f776e657220697320746865207a65726f20616464726573734552433732313a207472616e7366657220746f20746865207a65726f20616464726573734552433732313a206f70657261746f7220717565727920666f72206e6f6e6578697374656e7420746f6b656e4552433732313a20617070726f76652063616c6c6572206973206e6f74206f776e6572206e6f7220617070726f76656420666f7220616c6c4552433732313a2062616c616e636520717565727920666f7220746865207a65726f20616464726573734552433732313a206f776e657220717565727920666f72206e6f6e6578697374656e7420746f6b656e456e756d657261626c654d61703a20696e646578206f7574206f6620626f756e64734552433732313a20617070726f76656420717565727920666f72206e6f6e6578697374656e7420746f6b656e4552433732314d657461646174613a2055524920736574206f66206e6f6e6578697374656e7420746f6b656e4552433732313a207472616e73666572206f6620746f6b656e2074686174206973206e6f74206f776e4552433732314d657461646174613a2055524920717565727920666f72206e6f6e6578697374656e7420746f6b656e4552433732313a20617070726f76616c20746f2063757272656e74206f776e65724552433732313a207472616e736665722063616c6c6572206973206e6f74206f776e6572206e6f7220617070726f766564a264697066735822122009c78b8de9514dc8ab863e9723b88de6705e4764ff685a7b09c120c99f00531464736f6c63430006020033",
  "source": "pragma solidity ^0.6.0;\n\nimport \"../common/hotpotinterface.sol\";\nimport \"@openzeppelin/contracts/token/ERC721/ERC721.sol\";\nimport \"@openzeppelin/contracts/access/Ownable.sol\";\nimport \"@openzeppelin/contracts/utils/Address.sol\";\n\ncontract NFTokenHotPot is ERC721, IHotPot, Ownable {\n    mapping(uint256 => uint8) internal grades;\n    mapping(uint256 => uint256) internal useTimes;\n    mapping(uint8 => uint256) internal gradeCount;\n\n    address[] public poolContracts;\n    address public rewardContract;\n    address public exchangeContract;\n    address public rentalContract;\n    address public gachaContract;\n\n    uint constant public MAX_NUM = 1000;\n\n    uint256 internal delayTime=0;\n\n    event UseTicket(\n        address indexed owner,\n        uint256 indexed useTime,\n        uint256 indexed tokenId\n    );\n\n    event TicketUpdate(\n        address indexed owner,\n        uint8 indexed grade,\n        uint256 indexed tokenId\n    );\n\n    constructor(string memory name, string memory symbol)\n        public\n        ERC721(name, symbol)\n    {\n        \n    }\n\n    modifier validNFToken(uint256 _tokenId) {\n        require(_exists(_tokenId), \"It is not a NFT token!\");\n        _;\n    }\n\n    modifier onlyCanUse() {\n        address sender = msg.sender;\n\n        bool canUse = false;\n\n        if (sender == rewardContract) {\n            canUse = true;\n        }\n\n        for (uint256 i = 0; i < poolContracts.length; i++) {\n            if (sender == poolContracts[i]) {\n                canUse = true;\n            }\n        }\n        require(canUse, \"No permission!\");\n        _;\n    }\n\n    modifier onlyCanMint() {\n        require(msg.sender == gachaContract, \"Only gacha contract can mint!\");\n        _;\n    }\n\n    /**\n     * @dev Mints a new NFT.\n     * @param _to The address that will own the minted NFT.\n     * @param _tokenId of the NFT to be minted by the msg.sender.\n     * @param _uri String representing RFC 3986 URI.\n     */\n    function mint(\n        address _to,\n        uint256 _tokenId,\n        uint8 _grade,\n        string calldata _uri\n    ) external override onlyCanMint {\n        _safeMint(_to, _tokenId);\n        _setTokenURI(_tokenId, _uri);\n        grades[_tokenId] = _grade;\n        uint256 count = gradeCount[_grade] + 1;\n        gradeCount[_grade] = count;\n        require(totalSupply()<MAX_NUM,\"The max supply is 1000!\");\n    }\n\n    function getGradeCount(uint8 _grade)\n        external\n        override\n        view\n        returns (uint256)\n    {\n        return gradeCount[_grade];\n    }\n\n    function getGrade(uint256 _tokenId)\n        external\n        override\n        view\n        validNFToken(_tokenId)\n        returns (uint8)\n    {\n        return grades[_tokenId];\n    }\n\n\n    // event TicketUpdate(\n    //     address indexed owner,\n    //     uint256 indexed grade,\n    //     uint256 indexed tokenId\n    // );\n\n    function update(uint256 _tokenId, uint8 _grade)\n        external\n        override\n        validNFToken(_tokenId)\n    {\n        require(\n            msg.sender == exchangeContract,\n            \"Only exchange can update NFT!\"\n        );\n        require(_grade > this.getGrade(_tokenId), \"Update fail!\");\n        grades[_tokenId] = _grade;\n        emit TicketUpdate(ownerOf(_tokenId),_grade,_tokenId);\n    }\n\n    function getUseTime(uint256 _tokenId)\n        external\n        override\n        view\n        validNFToken(_tokenId)\n        returns (uint256)\n    {\n        return useTimes[_tokenId];\n    }\n\n    function setExchange(address _addr) external onlyOwner {\n        require(_addr.isContract(), \"It's not contract address!\");\n        exchangeContract = _addr;\n    }\n\n    function setGacha(address _addr) external onlyOwner {\n        require(_addr.isContract(), \"It's not contract address!\");\n        gachaContract = _addr;\n    }\n\n    function setReward(address reward) external onlyOwner {\n        require(reward.isContract(), \"It's not contract address!\");\n        rewardContract = reward;\n    }\n\n    function setRental(address _addr) external onlyOwner {\n        require(_addr.isContract(), \"It's not contract address!\");\n        rentalContract = _addr;\n    }\n\n    function addPool(address pool) external onlyOwner {\n        require(pool.isContract(), \"It's not contract address!\");\n        poolContracts.push(pool);\n    }\n\n    function removePool(address pool) external onlyOwner {\n        require(pool.isContract(), \"It's not contract address!\");\n\n        for (uint256 i = 0; i < poolContracts.length; i++) {\n            if (pool == poolContracts[i]) {\n                delete poolContracts[i];\n                return;\n            }\n        }\n    }\n\n    function setDelayTime(uint256 _delay) external onlyOwner{\n        delayTime = _delay;\n    }\n\n    function setUse(uint256 _tokenId)\n        external\n        override\n        onlyCanUse\n        validNFToken(_tokenId)\n    {\n        useTimes[_tokenId] = now - delayTime;\n        // address _owner = ownerOf(_tokenId);\n        emit UseTicket(ownerOf(_tokenId), now, _tokenId);\n    }\n\n    function setUse(uint256 _tokenId, uint256 timestamp)\n        external\n        override\n        onlyCanUse\n        validNFToken(_tokenId)\n    {\n        require(timestamp > now);\n        useTimes[_tokenId] = timestamp;\n        // address _owner = ownerOf(_tokenId);\n        emit UseTicket(ownerOf(_tokenId), timestamp, _tokenId);\n    }\n}\n",
  "sourcePath": "/Users/junhu/git/hotpotcontract/truffle/contracts/nft/hotpot-token.sol",
  "compiler": {
    "name": "solc",
    "version": "0.6.2+commit.bacdbe57.Emscripten.clang"
  },
  "schemaVersion": "3.3.0",
  "updatedAt": "2020-10-20T06:47:38.397Z",
  "networkType": "ethereum",
  "devdoc": {
    "methods": {
      "approve(address,uint256)": {
        "details": "See {IERC721-approve}."
      },
      "balanceOf(address)": {
        "details": "See {IERC721-balanceOf}."
      },
      "baseURI()": {
        "details": "Returns the base URI set via {_setBaseURI}. This will be automatically added as a prefix in {tokenURI} to each token's URI, or to the token ID if no specific URI is set for that token ID."
      },
      "getApproved(uint256)": {
        "details": "See {IERC721-getApproved}."
      },
      "isApprovedForAll(address,address)": {
        "details": "See {IERC721-isApprovedForAll}."
      },
      "mint(address,uint256,uint8,string)": {
        "details": "Mints a new NFT.",
        "params": {
          "_to": "The address that will own the minted NFT.",
          "_tokenId": "of the NFT to be minted by the msg.sender.",
          "_uri": "String representing RFC 3986 URI."
        }
      },
      "name()": {
        "details": "See {IERC721Metadata-name}."
      },
      "owner()": {
        "details": "Returns the address of the current owner."
      },
      "ownerOf(uint256)": {
        "details": "See {IERC721-ownerOf}."
      },
      "renounceOwnership()": {
        "details": "Leaves the contract without owner. It will not be possible to call `onlyOwner` functions anymore. Can only be called by the current owner.     * NOTE: Renouncing ownership will leave the contract without an owner, thereby removing any functionality that is only available to the owner."
      },
      "safeTransferFrom(address,address,uint256)": {
        "details": "See {IERC721-safeTransferFrom}."
      },
      "safeTransferFrom(address,address,uint256,bytes)": {
        "details": "See {IERC721-safeTransferFrom}."
      },
      "setApprovalForAll(address,bool)": {
        "details": "See {IERC721-setApprovalForAll}."
      },
      "supportsInterface(bytes4)": {
        "details": "See {IERC165-supportsInterface}.     * Time complexity O(1), guaranteed to always use less than 30 000 gas."
      },
      "symbol()": {
        "details": "See {IERC721Metadata-symbol}."
      },
      "tokenByIndex(uint256)": {
        "details": "See {IERC721Enumerable-tokenByIndex}."
      },
      "tokenOfOwnerByIndex(address,uint256)": {
        "details": "See {IERC721Enumerable-tokenOfOwnerByIndex}."
      },
      "tokenURI(uint256)": {
        "details": "See {IERC721Metadata-tokenURI}."
      },
      "totalSupply()": {
        "details": "See {IERC721Enumerable-totalSupply}."
      },
      "transferFrom(address,address,uint256)": {
        "details": "See {IERC721-transferFrom}."
      },
      "transferOwnership(address)": {
        "details": "Transfers ownership of the contract to a new account (`newOwner`). Can only be called by the current owner."
      }
    }
  },
  "userdoc": {
    "methods": {}
  }
}