{
  "contractName": "Reward",
  "abi": [
    {
      "inputs": [
        {
          "internalType": "address",
          "name": "_dev",
          "type": "address"
        },
        {
          "internalType": "address",
          "name": "_nft",
          "type": "address"
        },
        {
          "internalType": "address",
          "name": "_hotpot",
          "type": "address"
        }
      ],
      "stateMutability": "nonpayable",
      "type": "constructor"
    },
    {
      "anonymous": false,
      "inputs": [
        {
          "indexed": true,
          "internalType": "address",
          "name": "previousOwner",
          "type": "address"
        },
        {
          "indexed": true,
          "internalType": "address",
          "name": "newOwner",
          "type": "address"
        }
      ],
      "name": "OwnershipTransferred",
      "type": "event"
    },
    {
      "anonymous": false,
      "inputs": [
        {
          "indexed": true,
          "internalType": "address",
          "name": "dst",
          "type": "address"
        },
        {
          "indexed": false,
          "internalType": "uint256",
          "name": "sad",
          "type": "uint256"
        }
      ],
      "name": "Rescue",
      "type": "event"
    },
    {
      "anonymous": false,
      "inputs": [
        {
          "indexed": true,
          "internalType": "address",
          "name": "dst",
          "type": "address"
        },
        {
          "indexed": true,
          "internalType": "address",
          "name": "token",
          "type": "address"
        },
        {
          "indexed": false,
          "internalType": "uint256",
          "name": "sad",
          "type": "uint256"
        }
      ],
      "name": "RescueToken",
      "type": "event"
    },
    {
      "anonymous": false,
      "inputs": [
        {
          "indexed": false,
          "internalType": "address",
          "name": "_user",
          "type": "address"
        },
        {
          "indexed": false,
          "internalType": "uint256",
          "name": "_tokenId",
          "type": "uint256"
        },
        {
          "indexed": false,
          "internalType": "uint256",
          "name": "_amount",
          "type": "uint256"
        }
      ],
      "name": "WithdrawReward",
      "type": "event"
    },
    {
      "inputs": [],
      "name": "availableRewardRatio",
      "outputs": [
        {
          "internalType": "uint256",
          "name": "",
          "type": "uint256"
        }
      ],
      "stateMutability": "view",
      "type": "function",
      "constant": true
    },
    {
      "inputs": [],
      "name": "devAddress",
      "outputs": [
        {
          "internalType": "address",
          "name": "",
          "type": "address"
        }
      ],
      "stateMutability": "view",
      "type": "function",
      "constant": true
    },
    {
      "inputs": [],
      "name": "devRewardRatio",
      "outputs": [
        {
          "internalType": "uint256",
          "name": "",
          "type": "uint256"
        }
      ],
      "stateMutability": "view",
      "type": "function",
      "constant": true
    },
    {
      "inputs": [],
      "name": "erc20",
      "outputs": [
        {
          "internalType": "contract IERC20",
          "name": "",
          "type": "address"
        }
      ],
      "stateMutability": "view",
      "type": "function",
      "constant": true
    },
    {
      "inputs": [],
      "name": "erc721",
      "outputs": [
        {
          "internalType": "contract IERC721Enumerable",
          "name": "",
          "type": "address"
        }
      ],
      "stateMutability": "view",
      "type": "function",
      "constant": true
    },
    {
      "inputs": [],
      "name": "hotpot",
      "outputs": [
        {
          "internalType": "contract IHotPot",
          "name": "",
          "type": "address"
        }
      ],
      "stateMutability": "view",
      "type": "function",
      "constant": true
    },
    {
      "inputs": [],
      "name": "loan",
      "outputs": [
        {
          "internalType": "contract ILoan",
          "name": "",
          "type": "address"
        }
      ],
      "stateMutability": "view",
      "type": "function",
      "constant": true
    },
    {
      "inputs": [],
      "name": "owner",
      "outputs": [
        {
          "internalType": "address",
          "name": "",
          "type": "address"
        }
      ],
      "stateMutability": "view",
      "type": "function",
      "constant": true
    },
    {
      "inputs": [],
      "name": "renounceOwnership",
      "outputs": [],
      "stateMutability": "nonpayable",
      "type": "function"
    },
    {
      "inputs": [
        {
          "internalType": "address",
          "name": "newOwner",
          "type": "address"
        }
      ],
      "name": "transferOwnership",
      "outputs": [],
      "stateMutability": "nonpayable",
      "type": "function"
    },
    {
      "inputs": [],
      "name": "weightGrade1",
      "outputs": [
        {
          "internalType": "uint256",
          "name": "",
          "type": "uint256"
        }
      ],
      "stateMutability": "view",
      "type": "function",
      "constant": true
    },
    {
      "inputs": [],
      "name": "weightGrade2",
      "outputs": [
        {
          "internalType": "uint256",
          "name": "",
          "type": "uint256"
        }
      ],
      "stateMutability": "view",
      "type": "function",
      "constant": true
    },
    {
      "inputs": [],
      "name": "weightGrade3",
      "outputs": [
        {
          "internalType": "uint256",
          "name": "",
          "type": "uint256"
        }
      ],
      "stateMutability": "view",
      "type": "function",
      "constant": true
    },
    {
      "inputs": [
        {
          "internalType": "uint8",
          "name": "_ratio",
          "type": "uint8"
        }
      ],
      "name": "setDevRatio",
      "outputs": [],
      "stateMutability": "nonpayable",
      "type": "function"
    },
    {
      "inputs": [
        {
          "internalType": "address",
          "name": "_dev",
          "type": "address"
        }
      ],
      "name": "setDevAddress",
      "outputs": [],
      "stateMutability": "nonpayable",
      "type": "function"
    },
    {
      "inputs": [],
      "name": "getBalance",
      "outputs": [
        {
          "internalType": "uint256",
          "name": "",
          "type": "uint256"
        }
      ],
      "stateMutability": "view",
      "type": "function",
      "constant": true
    },
    {
      "inputs": [
        {
          "internalType": "address",
          "name": "_addr",
          "type": "address"
        }
      ],
      "name": "setHotPotTicket",
      "outputs": [],
      "stateMutability": "nonpayable",
      "type": "function"
    },
    {
      "inputs": [
        {
          "internalType": "address",
          "name": "_addr",
          "type": "address"
        }
      ],
      "name": "setHotPot",
      "outputs": [],
      "stateMutability": "nonpayable",
      "type": "function"
    },
    {
      "inputs": [
        {
          "internalType": "address",
          "name": "_addr",
          "type": "address"
        }
      ],
      "name": "setLoan",
      "outputs": [],
      "stateMutability": "nonpayable",
      "type": "function"
    },
    {
      "inputs": [
        {
          "internalType": "uint256",
          "name": "_tokenId",
          "type": "uint256"
        }
      ],
      "name": "calNormalReward",
      "outputs": [
        {
          "internalType": "uint256",
          "name": "",
          "type": "uint256"
        }
      ],
      "stateMutability": "view",
      "type": "function",
      "constant": true
    },
    {
      "inputs": [
        {
          "internalType": "uint256",
          "name": "_tokenId",
          "type": "uint256"
        }
      ],
      "name": "calReward",
      "outputs": [
        {
          "internalType": "uint256",
          "name": "",
          "type": "uint256"
        }
      ],
      "stateMutability": "view",
      "type": "function",
      "constant": true
    },
    {
      "inputs": [
        {
          "internalType": "uint256",
          "name": "_tokenId",
          "type": "uint256"
        }
      ],
      "name": "getReward",
      "outputs": [],
      "stateMutability": "nonpayable",
      "type": "function"
    },
    {
      "inputs": [
        {
          "internalType": "address",
          "name": "to_",
          "type": "address"
        },
        {
          "internalType": "contract IERC20",
          "name": "token_",
          "type": "address"
        },
        {
          "internalType": "uint256",
          "name": "amount_",
          "type": "uint256"
        }
      ],
      "name": "rescue",
      "outputs": [],
      "stateMutability": "nonpayable",
      "type": "function"
    },
    {
      "inputs": [
        {
          "internalType": "address payable",
          "name": "to_",
          "type": "address"
        },
        {
          "internalType": "uint256",
          "name": "amount_",
          "type": "uint256"
        }
      ],
      "name": "rescue",
      "outputs": [],
      "stateMutability": "nonpayable",
      "type": "function"
    }
  ],
  "bytecode": "0x608060405260646006556078600755609660085560146009556007600a553480156200002a57600080fd5b506040516200202538038062002025833981810160405260608110156200005057600080fd5b50805160208201516040909201519091906000620000766001600160e01b036200022a16565b600080546001600160a01b0319166001600160a01b0383169081178255604051929350917f8be0079c531659141344cd1fd0a4f28419497f9722a3daafe3b4186f6b6457e0908290a3506001600160a01b038316620000d457600080fd5b6001600160a01b038216620000e857600080fd5b6001600160a01b038116620000fc57600080fd5b6200011b826001600160a01b03166200022e60201b620019ab1760201c565b6200016d576040805162461bcd60e51b815260206004820152601a60248201527f49742773206e6f7420636f6e7472616374206164647265737321000000000000604482015290519081900360640190fd5b6200018c816001600160a01b03166200022e60201b620019ab1760201c565b620001de576040805162461bcd60e51b815260206004820152601a60248201527f49742773206e6f7420636f6e7472616374206164647265737321000000000000604482015290519081900360640190fd5b600180546001600160a01b039485166001600160a01b03199182161790915560028054938516938216841790556003805482169093179092556004805491909316911617905562000234565b3390565b3b151590565b611de180620002446000396000f3fe608060405234801561001057600080fd5b50600436106101985760003560e01c80636fa04ecc116100e3578063d0d41fe11161008c578063ef48188e11610066578063ef48188e14610381578063f2fde38b1461039e578063ff8c1865146103c457610198565b8063d0d41fe11461032d578063d285b7b414610353578063e6db6a301461035b57610198565b80637a4e4ecf116100bd5780637a4e4ecf146102f15780638da5cb5b1461031d578063bca6ce641461032557610198565b80636fa04ecc146102d9578063715018a6146102e1578063785e9e86146102e957610198565b806320ff430b1161014557806341f7b0921161011f57806341f7b092146102765780634971e6291461029c5780635a75e2ef146102b957610198565b806320ff430b146102305780633ad10ef614610266578063413c6d7e1461026e57610198565b806312065fe01161017657806312065fe0146101e757806315ea88c4146101ef5780631c4b774b1461021357610198565b8063049b205b1461019d57806305af51cc146101c55780630e9ea29b146101df575b600080fd5b6101c3600480360360208110156101b357600080fd5b50356001600160a01b03166103cc565b005b6101cd6104d3565b60408051918252519081900360200190f35b6101cd6104d9565b6101cd6104df565b6101f7610578565b604080516001600160a01b039092168252519081900360200190f35b6101c36004803603602081101561022957600080fd5b5035610587565b6101c36004803603606081101561024657600080fd5b506001600160a01b03813581169160208101359091169060400135610a8f565b6101f7610c7d565b6101cd610c8c565b6101c36004803603602081101561028c57600080fd5b50356001600160a01b0316610c92565b6101cd600480360360208110156102b257600080fd5b5035610d99565b6101c3600480360360208110156102cf57600080fd5b503560ff16610fdd565b6101cd611091565b6101c3611097565b6101f7611163565b6101c36004803603604081101561030757600080fd5b506001600160a01b038135169060200135611172565b6101f7611306565b6101f7611315565b6101c36004803603602081101561034357600080fd5b50356001600160a01b0316611324565b6101f76113db565b6101c36004803603602081101561037157600080fd5b50356001600160a01b03166113ea565b6101cd6004803603602081101561039757600080fd5b50356114fb565b6101c3600480360360208110156103b457600080fd5b50356001600160a01b031661187f565b6101cd6119a1565b6103d46119a7565b6000546001600160a01b03908116911614610436576040805162461bcd60e51b815260206004820181905260248201527f4f776e61626c653a2063616c6c6572206973206e6f7420746865206f776e6572604482015290519081900360640190fd5b610448816001600160a01b03166119ab565b610499576040805162461bcd60e51b815260206004820152601a60248201527f49742773206e6f7420636f6e7472616374206164647265737321000000000000604482015290519081900360640190fd5b600480547fffffffffffffffffffffffff0000000000000000000000000000000000000000166001600160a01b0392909216919091179055565b60085481565b60075481565b60048054604080517f70a082310000000000000000000000000000000000000000000000000000000081523093810193909352516000926001600160a01b03909216916370a08231916024808301926020929190829003018186803b15801561054757600080fd5b505afa15801561055b573d6000803e3d6000fd5b505050506040513d602081101561057157600080fd5b5051905090565b6002546001600160a01b031681565b6002546001600160a01b03166105e4576040805162461bcd60e51b815260206004820181905260248201527f436f6e7472616374204e4654206973206e6f7420696e697469616c697a656421604482015290519081900360640190fd5b6003546001600160a01b031661062b5760405162461bcd60e51b8152600401808060200182810382526023815260200180611d166023913960400191505060405180910390fd5b6004546001600160a01b0316610688576040805162461bcd60e51b815260206004820152601c60248201527f436f6e7472616374206973206e6f7420696e697469616c697a65642100000000604482015290519081900360640190fd5b600254604080517f5840e6590000000000000000000000000000000000000000000000000000000081526004810184905290516000926001600160a01b031691635840e659916024808301926020929190829003018186803b1580156106ed57600080fd5b505afa158015610701573d6000803e3d6000fd5b505050506040513d602081101561071757600080fd5b505190507ffffffffffffffffffffffffffffffffffffffffffffffffffffffffffffeae804201811061077b5760405162461bcd60e51b8152600401808060200182810382526024815260200180611d396024913960400191505060405180910390fd5b6000306001600160a01b03166312065fe06040518163ffffffff1660e01b815260040160206040518083038186803b1580156107b657600080fd5b505afa1580156107ca573d6000803e3d6000fd5b505050506040513d60208110156107e057600080fd5b505111610834576040805162461bcd60e51b815260206004820152601960248201527f5468652072657761726420706f6f6c20697320656d7074792100000000000000604482015290519081900360640190fd5b600554604080517f3130c3ae0000000000000000000000000000000000000000000000000000000081523360048201526024810185905242604482015290516001600160a01b0390921691633130c3ae91606480820192602092909190829003018186803b1580156108a557600080fd5b505afa1580156108b9573d6000803e3d6000fd5b505050506040513d60208110156108cf57600080fd5b505161090c5760405162461bcd60e51b8152600401808060200182810382526028815260200180611cc86028913960400191505060405180910390fd5b6000306001600160a01b0316634971e629846040518263ffffffff1660e01b81526004018082815260200191505060206040518083038186803b15801561095257600080fd5b505afa158015610966573d6000803e3d6000fd5b505050506040513d602081101561097c57600080fd5b5051600a549091506109ad903390606490810384025b6004546001600160a01b03169291900463ffffffff6119b116565b600154600a546109cb916001600160a01b0316906064908402610992565b600254604080517f22142e6c0000000000000000000000000000000000000000000000000000000081526004810186905290516001600160a01b03909216916322142e6c9160248082019260009290919082900301818387803b158015610a3157600080fd5b505af1158015610a45573d6000803e3d6000fd5b5050604080513381526020810187905280820185905290517f48f1e4b8fb0469595617480e6784e40ab6b8c49209761b8e09305bf7b73e53de9350908190036060019150a1505050565b610a976119a7565b6000546001600160a01b03908116911614610af9576040805162461bcd60e51b815260206004820181905260248201527f4f776e61626c653a2063616c6c6572206973206e6f7420746865206f776e6572604482015290519081900360640190fd5b6001600160a01b038316610b54576040805162461bcd60e51b815260206004820152600a60248201527f6d757374206e6f74203000000000000000000000000000000000000000000000604482015290519081900360640190fd5b60008111610ba9576040805162461bcd60e51b815260206004820152600960248201527f6d75737420677420300000000000000000000000000000000000000000000000604482015290519081900360640190fd5b816001600160a01b031663a9059cbb84836040518363ffffffff1660e01b815260040180836001600160a01b03166001600160a01b0316815260200182815260200192505050602060405180830381600087803b158015610c0957600080fd5b505af1158015610c1d573d6000803e3d6000fd5b505050506040513d6020811015610c3357600080fd5b50506040805182815290516001600160a01b0380851692908616917faabf44ab9d5bef08d1b60f287a337f0d11a248e49741ad189b429e47e98ba9109181900360200190a3505050565b6001546001600160a01b031681565b60065481565b610c9a6119a7565b6000546001600160a01b03908116911614610cfc576040805162461bcd60e51b815260206004820181905260248201527f4f776e61626c653a2063616c6c6572206973206e6f7420746865206f776e6572604482015290519081900360640190fd5b610d0e816001600160a01b03166119ab565b610d5f576040805162461bcd60e51b815260206004820152601a60248201527f49742773206e6f7420636f6e7472616374206164647265737321000000000000604482015290519081900360640190fd5b600580547fffffffffffffffffffffffff0000000000000000000000000000000000000000166001600160a01b0392909216919091179055565b6002546000906001600160a01b0316610df9576040805162461bcd60e51b815260206004820181905260248201527f436f6e7472616374204e4654206973206e6f7420696e697469616c697a656421604482015290519081900360640190fd5b6003546001600160a01b0316610e405760405162461bcd60e51b8152600401808060200182810382526023815260200180611d166023913960400191505060405180910390fd5b6004546001600160a01b0316610e9d576040805162461bcd60e51b815260206004820152601c60248201527f436f6e7472616374206973206e6f7420696e697469616c697a65642100000000604482015290519081900360640190fd5b600254604080517f5840e6590000000000000000000000000000000000000000000000000000000081526004810185905290516000926001600160a01b031691635840e659916024808301926020929190829003018186803b158015610f0257600080fd5b505afa158015610f16573d6000803e3d6000fd5b505050506040513d6020811015610f2c57600080fd5b505190507ffffffffffffffffffffffffffffffffffffffffffffffffffffffffffffeae804201811115610f64576000915050610fd8565b306001600160a01b031663ef48188e846040518263ffffffff1660e01b81526004018082815260200191505060206040518083038186803b158015610fa857600080fd5b505afa158015610fbc573d6000803e3d6000fd5b505050506040513d6020811015610fd257600080fd5b50519150505b919050565b610fe56119a7565b6000546001600160a01b03908116911614611047576040805162461bcd60e51b815260206004820181905260248201527f4f776e61626c653a2063616c6c6572206973206e6f7420746865206f776e6572604482015290519081900360640190fd5b600a8160ff16106110895760405162461bcd60e51b8152600401808060200182810382526025815260200180611d876025913960400191505060405180910390fd5b60ff16600a55565b60095481565b61109f6119a7565b6000546001600160a01b03908116911614611101576040805162461bcd60e51b815260206004820181905260248201527f4f776e61626c653a2063616c6c6572206973206e6f7420746865206f776e6572604482015290519081900360640190fd5b600080546040516001600160a01b03909116907f8be0079c531659141344cd1fd0a4f28419497f9722a3daafe3b4186f6b6457e0908390a3600080547fffffffffffffffffffffffff0000000000000000000000000000000000000000169055565b6004546001600160a01b031681565b61117a6119a7565b6000546001600160a01b039081169116146111dc576040805162461bcd60e51b815260206004820181905260248201527f4f776e61626c653a2063616c6c6572206973206e6f7420746865206f776e6572604482015290519081900360640190fd5b6001600160a01b038216611237576040805162461bcd60e51b815260206004820152600a60248201527f6d757374206e6f74203000000000000000000000000000000000000000000000604482015290519081900360640190fd5b6000811161128c576040805162461bcd60e51b815260206004820152600960248201527f6d75737420677420300000000000000000000000000000000000000000000000604482015290519081900360640190fd5b6040516001600160a01b0383169082156108fc029083906000818181858888f193505050501580156112c2573d6000803e3d6000fd5b506040805182815290516001600160a01b038416917f542fa6bfee3b4746210fbdd1d83f9e49b65adde3639f8d8f165dd18347938af2919081900360200190a25050565b6000546001600160a01b031690565b6003546001600160a01b031681565b61132c6119a7565b6000546001600160a01b0390811691161461138e576040805162461bcd60e51b815260206004820181905260248201527f4f776e61626c653a2063616c6c6572206973206e6f7420746865206f776e6572604482015290519081900360640190fd5b6001600160a01b0381166113a157600080fd5b600180547fffffffffffffffffffffffff0000000000000000000000000000000000000000166001600160a01b0392909216919091179055565b6005546001600160a01b031681565b6113f26119a7565b6000546001600160a01b03908116911614611454576040805162461bcd60e51b815260206004820181905260248201527f4f776e61626c653a2063616c6c6572206973206e6f7420746865206f776e6572604482015290519081900360640190fd5b611466816001600160a01b03166119ab565b6114b7576040805162461bcd60e51b815260206004820152601a60248201527f49742773206e6f7420636f6e7472616374206164647265737321000000000000604482015290519081900360640190fd5b600280546001600160a01b039092167fffffffffffffffffffffffff0000000000000000000000000000000000000000928316811790915560038054909216179055565b600254604080517fd394dd7900000000000000000000000000000000000000000000000000000000815260016004820152905160009283926001600160a01b039091169163d394dd7991602480820192602092909190829003018186803b15801561156557600080fd5b505afa158015611579573d6000803e3d6000fd5b505050506040513d602081101561158f57600080fd5b505160028054604080517fd394dd790000000000000000000000000000000000000000000000000000000081526004810193909352519293506000926001600160a01b039091169163d394dd79916024808301926020929190829003018186803b1580156115fc57600080fd5b505afa158015611610573d6000803e3d6000fd5b505050506040513d602081101561162657600080fd5b5051600254604080517fd394dd790000000000000000000000000000000000000000000000000000000081526003600482015290519293506000926001600160a01b039092169163d394dd7991602480820192602092909190829003018186803b15801561169357600080fd5b505afa1580156116a7573d6000803e3d6000fd5b505050506040513d60208110156116bd57600080fd5b5051600254604080517fe1e0485e0000000000000000000000000000000000000000000000000000000081526004810189905290519293506000926001600160a01b039092169163e1e0485e91602480820192602092909190829003018186803b15801561172a57600080fd5b505afa15801561173e573d6000803e3d6000fd5b505050506040513d602081101561175457600080fd5b5051600854600754600654929350868302908602019084020190600160ff8416141561178357506006546117a9565b8260ff166002141561179857506007546117a9565b8260ff16600314156117a957506008545b60048054604080517f70a082310000000000000000000000000000000000000000000000000000000081523093810193909352516000926001600160a01b03909216916370a08231916024808301926020929190829003018186803b15801561181157600080fd5b505afa158015611825573d6000803e3d6000fd5b505050506040513d602081101561183b57600080fd5b5051600954909150606490820204600084620186a085028161185957fe5b049050614e2081111561186b5750614e205b620186a09102049998505050505050505050565b6118876119a7565b6000546001600160a01b039081169116146118e9576040805162461bcd60e51b815260206004820181905260248201527f4f776e61626c653a2063616c6c6572206973206e6f7420746865206f776e6572604482015290519081900360640190fd5b6001600160a01b03811661192e5760405162461bcd60e51b8152600401808060200182810382526026815260200180611cf06026913960400191505060405180910390fd5b600080546040516001600160a01b03808516939216917f8be0079c531659141344cd1fd0a4f28419497f9722a3daafe3b4186f6b6457e091a3600080547fffffffffffffffffffffffff0000000000000000000000000000000000000000166001600160a01b0392909216919091179055565b600a5481565b3390565b3b151590565b604080516001600160a01b038416602482015260448082018490528251808303909101815260649091019091526020810180517bffffffffffffffffffffffffffffffffffffffffffffffffffffffff167fa9059cbb00000000000000000000000000000000000000000000000000000000179052611a31908490611a36565b505050565b6060611a8b826040518060400160405280602081526020017f5361666545524332303a206c6f772d6c6576656c2063616c6c206661696c6564815250856001600160a01b0316611ae79092919063ffffffff16565b805190915015611a3157808060200190516020811015611aaa57600080fd5b5051611a315760405162461bcd60e51b815260040180806020018281038252602a815260200180611d5d602a913960400191505060405180910390fd5b6060611af68484600085611afe565b949350505050565b6060611b09856119ab565b611b5a576040805162461bcd60e51b815260206004820152601d60248201527f416464726573733a2063616c6c20746f206e6f6e2d636f6e7472616374000000604482015290519081900360640190fd5b60006060866001600160a01b031685876040518082805190602001908083835b60208310611bb757805182527fffffffffffffffffffffffffffffffffffffffffffffffffffffffffffffffe09092019160209182019101611b7a565b6001836020036101000a03801982511681845116808217855250505050505090500191505060006040518083038185875af1925050503d8060008114611c19576040519150601f19603f3d011682016040523d82523d6000602084013e611c1e565b606091505b50915091508115611c32579150611af69050565b805115611c425780518082602001fd5b8360405162461bcd60e51b81526004018080602001828103825283818151815260200191508051906020019080838360005b83811015611c8c578181015183820152602001611c74565b50505050905090810190601f168015611cb95780820380516001836020036101000a031916815260200191505b509250505060405180910390fdfe596f7520646f206e6f74206861766520726967687420746f20757365207468697320746f6b656e214f776e61626c653a206e6577206f776e657220697320746865207a65726f2061646472657373436f6e747261637420486f74506f74206973206e6f7420696e697469616c697a65642154686973207469636b657420697320757365642077697468696e20323420686f757273215361666545524332303a204552433230206f7065726174696f6e20646964206e6f74207375636365656444657620726174696f2063616e206e6f742062652067726561746572207468616e20313025a26469706673582212209b762bdc1c1436cd80117c92ec6034aae46ef192e4907433ad619b6b847caa1564736f6c63430006020033",
  "source": "pragma solidity ^0.6.0;\n\nimport \"@openzeppelin/contracts/token/ERC721/IERC721Enumerable.sol\";\nimport \"../common/hotpotinterface.sol\";\nimport \"../common/ILoan.sol\";\nimport \"@openzeppelin/contracts/math/Math.sol\";\nimport \"@openzeppelin/contracts/math/SafeMath.sol\";\nimport \"@openzeppelin/contracts/token/ERC20/IERC20.sol\";\nimport \"@openzeppelin/contracts/token/ERC20/SafeERC20.sol\";\nimport \"@openzeppelin/contracts/access/Ownable.sol\";\nimport \"@openzeppelin/contracts/utils/Address.sol\";\n\ncontract Reward is Ownable {\n    using SafeMath for uint256;\n    using SafeERC20 for IERC20;\n    using Address for address;\n\n    address public devAddress;\n\n    IHotPot public hotpot;\n    IERC721Enumerable public erc721;\n    IERC20 public erc20;\n    ILoan public loan;\n\n    event WithdrawReward(address _user, uint256 _tokenId, uint256 _amount);\n\n    event Rescue(address indexed dst, uint256 sad);\n    event RescueToken(address indexed dst, address indexed token, uint256 sad);\n\n    //weight,percent\n    uint256 public weightGrade1 = 100;\n    uint256 public weightGrade2 = 120;\n    uint256 public weightGrade3 = 150;\n\n    //can withdraw total reward daily, percent\n    uint256 public availableRewardRatio = 20;\n\n    uint256 public devRewardRatio = 7;\n\n    modifier checkAllAddress() {\n        require(hotpot != IHotPot(0), \"Contract NFT is not initialized!\");\n        require(erc721 != IERC721Enumerable(0), \"Contract HotPot is not initialized!\");\n        require(erc20 != IERC20(0), \"Contract is not initialized!\");\n        _;\n    }\n\n    constructor(\n        address _dev,\n        address _nft,\n        address _hotpot\n    ) public {\n        require(_dev != address(0));\n        require(_nft != address(0));\n        require(_hotpot != address(0));\n        require(_nft.isContract(), \"It's not contract address!\");\n        require(_hotpot.isContract(), \"It's not contract address!\");\n\n        devAddress = _dev;\n        hotpot = IHotPot(_nft);\n        erc721 = IERC721Enumerable(_nft);\n        erc20 = IERC20(_hotpot);\n    }\n\n    function setDevRatio(uint8 _ratio) external onlyOwner {\n        require(_ratio<10,\"Dev ratio can not be greater than 10%\");\n        devRewardRatio = _ratio;\n    }\n\n    function setDevAddress(address _dev) external onlyOwner {\n        require(_dev != address(0));\n        devAddress = _dev;\n    }\n\n    function getBalance() external view returns (uint256) {\n        return erc20.balanceOf(address(this));\n    }\n\n    function setHotPotTicket(address _addr) external onlyOwner {\n        require(_addr.isContract(), \"It's not contract address!\");\n\n        hotpot = IHotPot(_addr);\n        erc721 = IERC721Enumerable(_addr);\n    }\n\n    function setHotPot(address _addr) external onlyOwner {\n        require(_addr.isContract(), \"It's not contract address!\");\n        erc20 = IERC20(_addr);\n    }\n\n    function setLoan(address _addr) external onlyOwner {\n        require(_addr.isContract(), \"It's not contract address!\");\n        loan = ILoan(_addr);\n    }\n\n    function calNormalReward(uint256 _tokenId) external view returns(uint256){\n\n        //3.calculate the Reward\n        uint256 grade1 = hotpot.getGradeCount(1);\n        uint256 grade2 = hotpot.getGradeCount(2);\n        uint256 grade3 = hotpot.getGradeCount(3);\n\n        uint8 grade = hotpot.getGrade(_tokenId);\n\n        uint256 totalWeight = grade1 *\n            weightGrade1 +\n            grade2 *\n            weightGrade2 +\n            grade3 *\n            weightGrade3;\n        uint256 weight = weightGrade1;\n        if (grade == 1) {\n            weight = weightGrade1;\n        } else if (grade == 2) {\n            weight = weightGrade2;\n        } else if (grade == 3) {\n            weight = weightGrade3;\n        }\n\n        uint256 totalReward = erc20.balanceOf(address(this));\n        uint256 available = (totalReward * availableRewardRatio) / 100;\n\n        uint256 ratio = (100000 * weight) / totalWeight;\n        if (ratio > 20000) {\n            ratio = 20000;\n        }\n\n        uint256 reward = (available * ratio) / 100000;\n        return reward;\n    }\n\n    function calReward(uint256 _tokenId)\n        external\n        view\n        checkAllAddress\n        returns (uint256)\n    {\n        //1.check the NFT is used?\n        uint256 time = hotpot.getUseTime(_tokenId);\n        if (time > now - 24 * 60 * 60) {\n            return 0;\n        }\n\n        return this.calNormalReward(_tokenId);\n    }\n\n    // event WithdrawReward(address _user,uint256 _tokenId, uint256 _amount);\n\n    function getReward(uint256 _tokenId) external checkAllAddress {\n        //1.check the NFT is used?\n        uint256 time = hotpot.getUseTime(_tokenId);\n        require(\n            time < now - 24 * 60 * 60,\n            \"This ticket is used within 24 hours!\"\n        );\n\n        require(this.getBalance() > 0, \"The reward pool is empty!\");\n\n        //2. check ownership\n        require(\n           loan.checkPrivilege(msg.sender, _tokenId, now),\n            \"You do not have right to use this token!\"\n        );\n\n        uint256 reward = this.calReward(_tokenId);\n\n        //send to user and dev\n        erc20.safeTransfer(msg.sender, (reward * (100 - devRewardRatio)) / 100);\n\n        erc20.safeTransfer(devAddress, (reward * devRewardRatio) / 100);\n\n        //2.set use\n        hotpot.setUse(_tokenId);\n\n        emit WithdrawReward(msg.sender, _tokenId, reward);\n    }\n\n    function rescue(address payable to_, uint256 amount_) external onlyOwner {\n        require(to_ != address(0), \"must not 0\");\n        require(amount_ > 0, \"must gt 0\");\n\n        to_.transfer(amount_);\n        emit Rescue(to_, amount_);\n    }\n\n    function rescue(\n        address to_,\n        IERC20 token_,\n        uint256 amount_\n    ) external onlyOwner {\n        require(to_ != address(0), \"must not 0\");\n        require(amount_ > 0, \"must gt 0\");\n\n        token_.transfer(to_, amount_);\n        emit RescueToken(to_, address(token_), amount_);\n    }\n}\n",
  "sourcePath": "/Users/junhu/git/hotpotcontract/truffle/contracts/reward/Reward.sol",
  "compiler": {
    "name": "solc",
    "version": "0.6.2+commit.bacdbe57.Emscripten.clang"
  },
  "schemaVersion": "3.3.0",
  "updatedAt": "2020-10-20T06:47:38.445Z",
  "networkType": "ethereum",
  "devdoc": {
    "methods": {
      "owner()": {
        "details": "Returns the address of the current owner."
      },
      "renounceOwnership()": {
        "details": "Leaves the contract without owner. It will not be possible to call `onlyOwner` functions anymore. Can only be called by the current owner.     * NOTE: Renouncing ownership will leave the contract without an owner, thereby removing any functionality that is only available to the owner."
      },
      "transferOwnership(address)": {
        "details": "Transfers ownership of the contract to a new account (`newOwner`). Can only be called by the current owner."
      }
    }
  },
  "userdoc": {
    "methods": {}
  }
}