{
  "contractName": "Reward",
  "abi": [
    {
      "inputs": [
        {
          "internalType": "address",
          "name": "_dev",
          "type": "address"
        },
        {
          "internalType": "address",
          "name": "_nft",
          "type": "address"
        },
        {
          "internalType": "address",
          "name": "_hotpot",
          "type": "address"
        }
      ],
      "stateMutability": "nonpayable",
      "type": "constructor"
    },
    {
      "anonymous": false,
      "inputs": [
        {
          "indexed": true,
          "internalType": "address",
          "name": "previousOwner",
          "type": "address"
        },
        {
          "indexed": true,
          "internalType": "address",
          "name": "newOwner",
          "type": "address"
        }
      ],
      "name": "OwnershipTransferred",
      "type": "event"
    },
    {
      "anonymous": false,
      "inputs": [
        {
          "indexed": false,
          "internalType": "address",
          "name": "account",
          "type": "address"
        }
      ],
      "name": "Paused",
      "type": "event"
    },
    {
      "anonymous": false,
      "inputs": [
        {
          "indexed": true,
          "internalType": "address",
          "name": "dst",
          "type": "address"
        },
        {
          "indexed": false,
          "internalType": "uint256",
          "name": "sad",
          "type": "uint256"
        }
      ],
      "name": "Rescue",
      "type": "event"
    },
    {
      "anonymous": false,
      "inputs": [
        {
          "indexed": true,
          "internalType": "address",
          "name": "dst",
          "type": "address"
        },
        {
          "indexed": true,
          "internalType": "address",
          "name": "token",
          "type": "address"
        },
        {
          "indexed": false,
          "internalType": "uint256",
          "name": "sad",
          "type": "uint256"
        }
      ],
      "name": "RescueToken",
      "type": "event"
    },
    {
      "anonymous": false,
      "inputs": [
        {
          "indexed": false,
          "internalType": "address",
          "name": "account",
          "type": "address"
        }
      ],
      "name": "Unpaused",
      "type": "event"
    },
    {
      "anonymous": false,
      "inputs": [
        {
          "indexed": false,
          "internalType": "address",
          "name": "_user",
          "type": "address"
        },
        {
          "indexed": false,
          "internalType": "uint256",
          "name": "_tokenId",
          "type": "uint256"
        },
        {
          "indexed": false,
          "internalType": "uint256",
          "name": "_amount",
          "type": "uint256"
        }
      ],
      "name": "WithdrawReward",
      "type": "event"
    },
    {
      "inputs": [],
      "name": "availableRewardRatio",
      "outputs": [
        {
          "internalType": "uint256",
          "name": "",
          "type": "uint256"
        }
      ],
      "stateMutability": "view",
      "type": "function",
      "constant": true
    },
    {
      "inputs": [],
      "name": "devAddress",
      "outputs": [
        {
          "internalType": "address",
          "name": "",
          "type": "address"
        }
      ],
      "stateMutability": "view",
      "type": "function",
      "constant": true
    },
    {
      "inputs": [],
      "name": "devRewardRatio",
      "outputs": [
        {
          "internalType": "uint256",
          "name": "",
          "type": "uint256"
        }
      ],
      "stateMutability": "view",
      "type": "function",
      "constant": true
    },
    {
      "inputs": [],
      "name": "erc20",
      "outputs": [
        {
          "internalType": "contract IERC20",
          "name": "",
          "type": "address"
        }
      ],
      "stateMutability": "view",
      "type": "function",
      "constant": true
    },
    {
      "inputs": [],
      "name": "erc721",
      "outputs": [
        {
          "internalType": "contract IERC721Enumerable",
          "name": "",
          "type": "address"
        }
      ],
      "stateMutability": "view",
      "type": "function",
      "constant": true
    },
    {
      "inputs": [],
      "name": "hotpot",
      "outputs": [
        {
          "internalType": "contract IHotPot",
          "name": "",
          "type": "address"
        }
      ],
      "stateMutability": "view",
      "type": "function",
      "constant": true
    },
    {
      "inputs": [],
      "name": "loan",
      "outputs": [
        {
          "internalType": "contract ILoan",
          "name": "",
          "type": "address"
        }
      ],
      "stateMutability": "view",
      "type": "function",
      "constant": true
    },
    {
      "inputs": [],
      "name": "owner",
      "outputs": [
        {
          "internalType": "address",
          "name": "",
          "type": "address"
        }
      ],
      "stateMutability": "view",
      "type": "function",
      "constant": true
    },
    {
      "inputs": [],
      "name": "paused",
      "outputs": [
        {
          "internalType": "bool",
          "name": "",
          "type": "bool"
        }
      ],
      "stateMutability": "view",
      "type": "function",
      "constant": true
    },
    {
      "inputs": [],
      "name": "renounceOwnership",
      "outputs": [],
      "stateMutability": "nonpayable",
      "type": "function"
    },
    {
      "inputs": [
        {
          "internalType": "address",
          "name": "newOwner",
          "type": "address"
        }
      ],
      "name": "transferOwnership",
      "outputs": [],
      "stateMutability": "nonpayable",
      "type": "function"
    },
    {
      "inputs": [],
      "name": "weightGrade1",
      "outputs": [
        {
          "internalType": "uint256",
          "name": "",
          "type": "uint256"
        }
      ],
      "stateMutability": "view",
      "type": "function",
      "constant": true
    },
    {
      "inputs": [],
      "name": "weightGrade2",
      "outputs": [
        {
          "internalType": "uint256",
          "name": "",
          "type": "uint256"
        }
      ],
      "stateMutability": "view",
      "type": "function",
      "constant": true
    },
    {
      "inputs": [],
      "name": "weightGrade3",
      "outputs": [
        {
          "internalType": "uint256",
          "name": "",
          "type": "uint256"
        }
      ],
      "stateMutability": "view",
      "type": "function",
      "constant": true
    },
    {
      "inputs": [
        {
          "internalType": "uint8",
          "name": "_ratio",
          "type": "uint8"
        }
      ],
      "name": "setDevRatio",
      "outputs": [],
      "stateMutability": "nonpayable",
      "type": "function"
    },
    {
      "inputs": [
        {
          "internalType": "address",
          "name": "_dev",
          "type": "address"
        }
      ],
      "name": "setDevAddress",
      "outputs": [],
      "stateMutability": "nonpayable",
      "type": "function"
    },
    {
      "inputs": [],
      "name": "getBalance",
      "outputs": [
        {
          "internalType": "uint256",
          "name": "",
          "type": "uint256"
        }
      ],
      "stateMutability": "view",
      "type": "function",
      "constant": true
    },
    {
      "inputs": [
        {
          "internalType": "address",
          "name": "_addr",
          "type": "address"
        }
      ],
      "name": "setHotPotTicket",
      "outputs": [],
      "stateMutability": "nonpayable",
      "type": "function"
    },
    {
      "inputs": [
        {
          "internalType": "address",
          "name": "_addr",
          "type": "address"
        }
      ],
      "name": "setHotPot",
      "outputs": [],
      "stateMutability": "nonpayable",
      "type": "function"
    },
    {
      "inputs": [
        {
          "internalType": "address",
          "name": "_addr",
          "type": "address"
        }
      ],
      "name": "setLoan",
      "outputs": [],
      "stateMutability": "nonpayable",
      "type": "function"
    },
    {
      "inputs": [
        {
          "internalType": "uint256",
          "name": "_tokenId",
          "type": "uint256"
        }
      ],
      "name": "calNormalReward",
      "outputs": [
        {
          "internalType": "uint256",
          "name": "",
          "type": "uint256"
        }
      ],
      "stateMutability": "view",
      "type": "function",
      "constant": true
    },
    {
      "inputs": [
        {
          "internalType": "uint256",
          "name": "_tokenId",
          "type": "uint256"
        }
      ],
      "name": "calReward",
      "outputs": [
        {
          "internalType": "uint256",
          "name": "",
          "type": "uint256"
        }
      ],
      "stateMutability": "view",
      "type": "function",
      "constant": true
    },
    {
      "inputs": [
        {
          "internalType": "uint256",
          "name": "_tokenId",
          "type": "uint256"
        }
      ],
      "name": "getReward",
      "outputs": [],
      "stateMutability": "nonpayable",
      "type": "function"
    },
    {
      "inputs": [
        {
          "internalType": "address",
          "name": "to_",
          "type": "address"
        },
        {
          "internalType": "contract IERC20",
          "name": "token_",
          "type": "address"
        },
        {
          "internalType": "uint256",
          "name": "amount_",
          "type": "uint256"
        }
      ],
      "name": "rescue",
      "outputs": [],
      "stateMutability": "nonpayable",
      "type": "function"
    },
    {
      "inputs": [
        {
          "internalType": "address payable",
          "name": "to_",
          "type": "address"
        },
        {
          "internalType": "uint256",
          "name": "amount_",
          "type": "uint256"
        }
      ],
      "name": "rescue",
      "outputs": [],
      "stateMutability": "nonpayable",
      "type": "function"
    },
    {
      "inputs": [],
      "name": "pause",
      "outputs": [],
      "stateMutability": "nonpayable",
      "type": "function"
    },
    {
      "inputs": [],
      "name": "unpause",
      "outputs": [],
      "stateMutability": "nonpayable",
      "type": "function"
    }
  ],
  "bytecode": "0x60806040526064600755607860085560966009556014600a556007600b553480156200002a57600080fd5b506040516200280a3803806200280a833981810160405260608110156200005057600080fd5b50805160208201516040909201519091906000620000766001600160e01b036200024516565b600080546001600160a01b0319166001600160a01b0383169081178255604051929350917f8be0079c531659141344cd1fd0a4f28419497f9722a3daafe3b4186f6b6457e0908290a350600180556002805460ff191690556001600160a01b038316620000e257600080fd5b6001600160a01b038216620000f657600080fd5b6001600160a01b0381166200010a57600080fd5b62000129826001600160a01b03166200024960201b62001e3f1760201c565b6200017b576040805162461bcd60e51b815260206004820152601a60248201527f49742773206e6f7420636f6e7472616374206164647265737321000000000000604482015290519081900360640190fd5b6200019a816001600160a01b03166200024960201b62001e3f1760201c565b620001ec576040805162461bcd60e51b815260206004820152601a60248201527f49742773206e6f7420636f6e7472616374206164647265737321000000000000604482015290519081900360640190fd5b600280546001600160a01b0394851661010002610100600160a81b0319909116179055600380549284166001600160a01b031993841681179091556004805484169091179055600580549190931691161790556200024f565b3390565b3b151590565b6125ab806200025f6000396000f3fe608060405234801561001057600080fd5b50600436106101b95760003560e01c80635c975abb116100f9578063bca6ce6411610097578063e6db6a3011610071578063e6db6a30146103a8578063ef48188e146103ce578063f2fde38b146103eb578063ff8c186514610411576101b9565b8063bca6ce6414610372578063d0d41fe11461037a578063d285b7b4146103a0576101b9565b8063785e9e86116100d3578063785e9e861461032e5780637a4e4ecf146103365780638456cb59146103625780638da5cb5b1461036a576101b9565b80635c975abb146103025780636fa04ecc1461031e578063715018a614610326576101b9565b806320ff430b11610166578063413c6d7e11610140578063413c6d7e1461029757806341f7b0921461029f5780634971e629146102c55780635a75e2ef146102e2576101b9565b806320ff430b146102515780633ad10ef6146102875780633f4ba83a1461028f576101b9565b806312065fe01161019757806312065fe01461020857806315ea88c4146102105780631c4b774b14610234576101b9565b8063049b205b146101be57806305af51cc146101e65780630e9ea29b14610200575b600080fd5b6101e4600480360360208110156101d457600080fd5b50356001600160a01b0316610419565b005b6101ee610520565b60408051918252519081900360200190f35b6101ee610526565b6101ee61052c565b6102186105c1565b604080516001600160a01b039092168252519081900360200190f35b6101e46004803603602081101561024a57600080fd5b50356105d0565b6101e46004803603606081101561026757600080fd5b506001600160a01b03813581169160208101359091169060400135610ca2565b610218610e90565b6101e4610ea4565b6101ee610f18565b6101e4600480360360208110156102b557600080fd5b50356001600160a01b0316610f1e565b6101ee600480360360208110156102db57600080fd5b5035611025565b6101e4600480360360208110156102f857600080fd5b503560ff1661133c565b61030a6113f0565b604080519115158252519081900360200190f35b6101ee6113f9565b6101e46113ff565b6102186114cb565b6101e46004803603604081101561034c57600080fd5b506001600160a01b0381351690602001356114da565b6101e461166e565b6102186116e0565b6102186116ef565b6101e46004803603602081101561039057600080fd5b50356001600160a01b03166116fe565b6102186117ba565b6101e4600480360360208110156103be57600080fd5b50356001600160a01b03166117c9565b6101ee600480360360208110156103e457600080fd5b50356118da565b6101e46004803603602081101561040157600080fd5b50356001600160a01b0316611d13565b6101ee611e35565b610421611e3b565b6000546001600160a01b03908116911614610483576040805162461bcd60e51b815260206004820181905260248201527f4f776e61626c653a2063616c6c6572206973206e6f7420746865206f776e6572604482015290519081900360640190fd5b610495816001600160a01b0316611e3f565b6104e6576040805162461bcd60e51b815260206004820152601a60248201527f49742773206e6f7420636f6e7472616374206164647265737321000000000000604482015290519081900360640190fd5b600580547fffffffffffffffffffffffff0000000000000000000000000000000000000000166001600160a01b0392909216919091179055565b60095481565b60085481565b600554604080517f70a0823100000000000000000000000000000000000000000000000000000000815230600482015290516000926001600160a01b0316916370a08231916024808301926020929190829003018186803b15801561059057600080fd5b505afa1580156105a4573d6000803e3d6000fd5b505050506040513d60208110156105ba57600080fd5b5051905090565b6003546001600160a01b031681565b6003546001600160a01b031661062d576040805162461bcd60e51b815260206004820181905260248201527f436f6e7472616374204e4654206973206e6f7420696e697469616c697a656421604482015290519081900360640190fd5b6004546001600160a01b03166106745760405162461bcd60e51b81526004018080602001828103825260238152602001806124e06023913960400191505060405180910390fd5b6005546001600160a01b03166106d1576040805162461bcd60e51b815260206004820152601c60248201527f436f6e7472616374206973206e6f7420696e697469616c697a65642100000000604482015290519081900360640190fd5b60048054604080517f6352211e0000000000000000000000000000000000000000000000000000000081529283018490525183926000926001600160a01b031691636352211e91602480820192602092909190829003018186803b15801561073857600080fd5b505afa15801561074c573d6000803e3d6000fd5b505050506040513d602081101561076257600080fd5b50516001600160a01b031614156107c0576040805162461bcd60e51b815260206004820152601660248201527f4974206973206e6f742061204e465420746f6b656e2100000000000000000000604482015290519081900360640190fd5b60026001541415610818576040805162461bcd60e51b815260206004820152601f60248201527f5265656e7472616e637947756172643a207265656e7472616e742063616c6c00604482015290519081900360640190fd5b600260018190555460ff1615610875576040805162461bcd60e51b815260206004820152601060248201527f5061757361626c653a2070617573656400000000000000000000000000000000604482015290519081900360640190fd5b600354604080517f5840e6590000000000000000000000000000000000000000000000000000000081526004810185905290516000926001600160a01b031691635840e659916024808301926020929190829003018186803b1580156108da57600080fd5b505afa1580156108ee573d6000803e3d6000fd5b505050506040513d602081101561090457600080fd5b50519050426201518082011061094b5760405162461bcd60e51b81526004018080602001828103825260248152602001806125036024913960400191505060405180910390fd5b6000306001600160a01b03166312065fe06040518163ffffffff1660e01b815260040160206040518083038186803b15801561098657600080fd5b505afa15801561099a573d6000803e3d6000fd5b505050506040513d60208110156109b057600080fd5b505111610a04576040805162461bcd60e51b815260206004820152601960248201527f5468652072657761726420706f6f6c20697320656d7074792100000000000000604482015290519081900360640190fd5b600654604080517f3130c3ae0000000000000000000000000000000000000000000000000000000081523360048201526024810186905242604482015290516001600160a01b0390921691633130c3ae91606480820192602092909190829003018186803b158015610a7557600080fd5b505afa158015610a89573d6000803e3d6000fd5b505050506040513d6020811015610a9f57600080fd5b5051610adc5760405162461bcd60e51b81526004018080602001828103825260288152602001806124716028913960400191505060405180910390fd5b6000306001600160a01b0316634971e629856040518263ffffffff1660e01b81526004018082815260200191505060206040518083038186803b158015610b2257600080fd5b505afa158015610b36573d6000803e3d6000fd5b505050506040513d6020811015610b4c57600080fd5b5051600b54909150600090610b7b90606490610b6f90859063ffffffff611e4516565b9063ffffffff611ea716565b90506000610b8f838363ffffffff611ee916565b600354604080517f22142e6c000000000000000000000000000000000000000000000000000000008152600481018a905290519293506001600160a01b03909116916322142e6c9160248082019260009290919082900301818387803b158015610bf857600080fd5b505af1158015610c0c573d6000803e3d6000fd5b5050600254600554610c3993506001600160a01b039081169250610100909104168463ffffffff611f2b16565b600554610c56906001600160a01b0316338363ffffffff611f2b16565b604080513381526020810188905280820185905290517f48f1e4b8fb0469595617480e6784e40ab6b8c49209761b8e09305bf7b73e53de9181900360600190a150506001805550505050565b610caa611e3b565b6000546001600160a01b03908116911614610d0c576040805162461bcd60e51b815260206004820181905260248201527f4f776e61626c653a2063616c6c6572206973206e6f7420746865206f776e6572604482015290519081900360640190fd5b6001600160a01b038316610d67576040805162461bcd60e51b815260206004820152600a60248201527f6d757374206e6f74203000000000000000000000000000000000000000000000604482015290519081900360640190fd5b60008111610dbc576040805162461bcd60e51b815260206004820152600960248201527f6d75737420677420300000000000000000000000000000000000000000000000604482015290519081900360640190fd5b816001600160a01b031663a9059cbb84836040518363ffffffff1660e01b815260040180836001600160a01b03166001600160a01b0316815260200182815260200192505050602060405180830381600087803b158015610e1c57600080fd5b505af1158015610e30573d6000803e3d6000fd5b505050506040513d6020811015610e4657600080fd5b50506040805182815290516001600160a01b0380851692908616917faabf44ab9d5bef08d1b60f287a337f0d11a248e49741ad189b429e47e98ba9109181900360200190a3505050565b60025461010090046001600160a01b031681565b610eac611e3b565b6000546001600160a01b03908116911614610f0e576040805162461bcd60e51b815260206004820181905260248201527f4f776e61626c653a2063616c6c6572206973206e6f7420746865206f776e6572604482015290519081900360640190fd5b610f16611fb0565b565b60075481565b610f26611e3b565b6000546001600160a01b03908116911614610f88576040805162461bcd60e51b815260206004820181905260248201527f4f776e61626c653a2063616c6c6572206973206e6f7420746865206f776e6572604482015290519081900360640190fd5b610f9a816001600160a01b0316611e3f565b610feb576040805162461bcd60e51b815260206004820152601a60248201527f49742773206e6f7420636f6e7472616374206164647265737321000000000000604482015290519081900360640190fd5b600680547fffffffffffffffffffffffff0000000000000000000000000000000000000000166001600160a01b0392909216919091179055565b6003546000906001600160a01b0316611085576040805162461bcd60e51b815260206004820181905260248201527f436f6e7472616374204e4654206973206e6f7420696e697469616c697a656421604482015290519081900360640190fd5b6004546001600160a01b03166110cc5760405162461bcd60e51b81526004018080602001828103825260238152602001806124e06023913960400191505060405180910390fd5b6005546001600160a01b0316611129576040805162461bcd60e51b815260206004820152601c60248201527f436f6e7472616374206973206e6f7420696e697469616c697a65642100000000604482015290519081900360640190fd5b60048054604080517f6352211e0000000000000000000000000000000000000000000000000000000081529283018590525184926000926001600160a01b031691636352211e91602480820192602092909190829003018186803b15801561119057600080fd5b505afa1580156111a4573d6000803e3d6000fd5b505050506040513d60208110156111ba57600080fd5b50516001600160a01b03161415611218576040805162461bcd60e51b815260206004820152601660248201527f4974206973206e6f742061204e465420746f6b656e2100000000000000000000604482015290519081900360640190fd5b600354604080517f5840e6590000000000000000000000000000000000000000000000000000000081526004810186905290516000926001600160a01b031691635840e659916024808301926020929190829003018186803b15801561127d57600080fd5b505afa158015611291573d6000803e3d6000fd5b505050506040513d60208110156112a757600080fd5b505190504262015180820111156112c2576000925050611336565b306001600160a01b031663ef48188e856040518263ffffffff1660e01b81526004018082815260200191505060206040518083038186803b15801561130657600080fd5b505afa15801561131a573d6000803e3d6000fd5b505050506040513d602081101561133057600080fd5b50519250505b50919050565b611344611e3b565b6000546001600160a01b039081169116146113a6576040805162461bcd60e51b815260206004820181905260248201527f4f776e61626c653a2063616c6c6572206973206e6f7420746865206f776e6572604482015290519081900360640190fd5b600a8160ff16106113e85760405162461bcd60e51b81526004018080602001828103825260258152602001806125516025913960400191505060405180910390fd5b60ff16600b55565b60025460ff1690565b600a5481565b611407611e3b565b6000546001600160a01b03908116911614611469576040805162461bcd60e51b815260206004820181905260248201527f4f776e61626c653a2063616c6c6572206973206e6f7420746865206f776e6572604482015290519081900360640190fd5b600080546040516001600160a01b03909116907f8be0079c531659141344cd1fd0a4f28419497f9722a3daafe3b4186f6b6457e0908390a3600080547fffffffffffffffffffffffff0000000000000000000000000000000000000000169055565b6005546001600160a01b031681565b6114e2611e3b565b6000546001600160a01b03908116911614611544576040805162461bcd60e51b815260206004820181905260248201527f4f776e61626c653a2063616c6c6572206973206e6f7420746865206f776e6572604482015290519081900360640190fd5b6001600160a01b03821661159f576040805162461bcd60e51b815260206004820152600a60248201527f6d757374206e6f74203000000000000000000000000000000000000000000000604482015290519081900360640190fd5b600081116115f4576040805162461bcd60e51b815260206004820152600960248201527f6d75737420677420300000000000000000000000000000000000000000000000604482015290519081900360640190fd5b6040516001600160a01b0383169082156108fc029083906000818181858888f1935050505015801561162a573d6000803e3d6000fd5b506040805182815290516001600160a01b038416917f542fa6bfee3b4746210fbdd1d83f9e49b65adde3639f8d8f165dd18347938af2919081900360200190a25050565b611676611e3b565b6000546001600160a01b039081169116146116d8576040805162461bcd60e51b815260206004820181905260248201527f4f776e61626c653a2063616c6c6572206973206e6f7420746865206f776e6572604482015290519081900360640190fd5b610f16612075565b6000546001600160a01b031690565b6004546001600160a01b031681565b611706611e3b565b6000546001600160a01b03908116911614611768576040805162461bcd60e51b815260206004820181905260248201527f4f776e61626c653a2063616c6c6572206973206e6f7420746865206f776e6572604482015290519081900360640190fd5b6001600160a01b03811661177b57600080fd5b600280546001600160a01b03909216610100027fffffffffffffffffffffff0000000000000000000000000000000000000000ff909216919091179055565b6006546001600160a01b031681565b6117d1611e3b565b6000546001600160a01b03908116911614611833576040805162461bcd60e51b815260206004820181905260248201527f4f776e61626c653a2063616c6c6572206973206e6f7420746865206f776e6572604482015290519081900360640190fd5b611845816001600160a01b0316611e3f565b611896576040805162461bcd60e51b815260206004820152601a60248201527f49742773206e6f7420636f6e7472616374206164647265737321000000000000604482015290519081900360640190fd5b600380546001600160a01b039092167fffffffffffffffffffffffff0000000000000000000000000000000000000000928316811790915560048054909216179055565b6000600460009054906101000a90046001600160a01b03166001600160a01b03166318160ddd6040518163ffffffff1660e01b815260040160206040518083038186803b15801561192a57600080fd5b505afa15801561193e573d6000803e3d6000fd5b505050506040513d602081101561195457600080fd5b505161196257506000611d0e565b600354604080517fd394dd790000000000000000000000000000000000000000000000000000000081526001600482015290516000926001600160a01b03169163d394dd79916024808301926020929190829003018186803b1580156119c757600080fd5b505afa1580156119db573d6000803e3d6000fd5b505050506040513d60208110156119f157600080fd5b5051600354604080517fd394dd790000000000000000000000000000000000000000000000000000000081526002600482015290519293506000926001600160a01b039092169163d394dd7991602480820192602092909190829003018186803b158015611a5e57600080fd5b505afa158015611a72573d6000803e3d6000fd5b505050506040513d6020811015611a8857600080fd5b505160038054604080517fd394dd790000000000000000000000000000000000000000000000000000000081526004810193909352519293506000926001600160a01b039091169163d394dd79916024808301926020929190829003018186803b158015611af557600080fd5b505afa158015611b09573d6000803e3d6000fd5b505050506040513d6020811015611b1f57600080fd5b5051600354604080517fe1e0485e0000000000000000000000000000000000000000000000000000000081526004810189905290519293506000926001600160a01b039092169163e1e0485e91602480820192602092909190829003018186803b158015611b8c57600080fd5b505afa158015611ba0573d6000803e3d6000fd5b505050506040513d6020811015611bb657600080fd5b5051600954600854600754929350868302908602019084020190600160ff84161415611be55750600754611c0b565b8260ff1660021415611bfa5750600854611c0b565b8260ff1660031415611c0b57506009545b600554604080517f70a0823100000000000000000000000000000000000000000000000000000000815230600482015290516000926001600160a01b0316916370a08231916024808301926020929190829003018186803b158015611c6f57600080fd5b505afa158015611c83573d6000803e3d6000fd5b505050506040513d6020811015611c9957600080fd5b5051600a54909150600090611cbc90606490610b6f90859063ffffffff611e4516565b90506000611cd785610b6f86620186a063ffffffff611e4516565b9050614e20811115611ce85750614e205b6000611d01620186a0610b6f858563ffffffff611e4516565b9a50505050505050505050505b919050565b611d1b611e3b565b6000546001600160a01b03908116911614611d7d576040805162461bcd60e51b815260206004820181905260248201527f4f776e61626c653a2063616c6c6572206973206e6f7420746865206f776e6572604482015290519081900360640190fd5b6001600160a01b038116611dc25760405162461bcd60e51b81526004018080602001828103825260268152602001806124996026913960400191505060405180910390fd5b600080546040516001600160a01b03808516939216917f8be0079c531659141344cd1fd0a4f28419497f9722a3daafe3b4186f6b6457e091a3600080547fffffffffffffffffffffffff0000000000000000000000000000000000000000166001600160a01b0392909216919091179055565b600b5481565b3390565b3b151590565b600082611e5457506000611ea1565b82820282848281611e6157fe5b0414611e9e5760405162461bcd60e51b81526004018080602001828103825260218152602001806124bf6021913960400191505060405180910390fd5b90505b92915050565b6000611e9e83836040518060400160405280601a81526020017f536166654d6174683a206469766973696f6e206279207a65726f000000000000815250612121565b6000611e9e83836040518060400160405280601e81526020017f536166654d6174683a207375627472616374696f6e206f766572666c6f7700008152506121c3565b604080516001600160a01b038416602482015260448082018490528251808303909101815260649091019091526020810180517bffffffffffffffffffffffffffffffffffffffffffffffffffffffff167fa9059cbb00000000000000000000000000000000000000000000000000000000179052611fab90849061221d565b505050565b60025460ff16612007576040805162461bcd60e51b815260206004820152601460248201527f5061757361626c653a206e6f7420706175736564000000000000000000000000604482015290519081900360640190fd5b600280547fffffffffffffffffffffffffffffffffffffffffffffffffffffffffffffff001690557f5db9ee0a495bf2e6ff9c91a7834c1ba4fdd244a5e8aa4e537bd38aeae4b073aa612058611e3b565b604080516001600160a01b039092168252519081900360200190a1565b60025460ff16156120cd576040805162461bcd60e51b815260206004820152601060248201527f5061757361626c653a2070617573656400000000000000000000000000000000604482015290519081900360640190fd5b600280547fffffffffffffffffffffffffffffffffffffffffffffffffffffffffffffff001660011790557f62e78cea01bee320cd4e420270b5ea74000d11b0c9f74754ebdbfc544b05a258612058611e3b565b600081836121ad5760405162461bcd60e51b81526004018080602001828103825283818151815260200191508051906020019080838360005b8381101561217257818101518382015260200161215a565b50505050905090810190601f16801561219f5780820380516001836020036101000a031916815260200191505b509250505060405180910390fd5b5060008385816121b957fe5b0495945050505050565b600081848411156122155760405162461bcd60e51b815260206004820181815283516024840152835190928392604490910191908501908083836000831561217257818101518382015260200161215a565b505050900390565b6060612272826040518060400160405280602081526020017f5361666545524332303a206c6f772d6c6576656c2063616c6c206661696c6564815250856001600160a01b03166122ce9092919063ffffffff16565b805190915015611fab5780806020019051602081101561229157600080fd5b5051611fab5760405162461bcd60e51b815260040180806020018281038252602a815260200180612527602a913960400191505060405180910390fd5b60606122dd84846000856122e5565b949350505050565b60606122f085611e3f565b612341576040805162461bcd60e51b815260206004820152601d60248201527f416464726573733a2063616c6c20746f206e6f6e2d636f6e7472616374000000604482015290519081900360640190fd5b60006060866001600160a01b031685876040518082805190602001908083835b6020831061239e57805182527fffffffffffffffffffffffffffffffffffffffffffffffffffffffffffffffe09092019160209182019101612361565b6001836020036101000a03801982511681845116808217855250505050505090500191505060006040518083038185875af1925050503d8060008114612400576040519150601f19603f3d011682016040523d82523d6000602084013e612405565b606091505b509150915081156124195791506122dd9050565b8051156124295780518082602001fd5b60405162461bcd60e51b815260206004820181815286516024840152865187939192839260440191908501908083836000831561217257818101518382015260200161215a56fe596f7520646f206e6f74206861766520726967687420746f20757365207468697320746f6b656e214f776e61626c653a206e6577206f776e657220697320746865207a65726f2061646472657373536166654d6174683a206d756c7469706c69636174696f6e206f766572666c6f77436f6e747261637420486f74506f74206973206e6f7420696e697469616c697a65642154686973207469636b657420697320757365642077697468696e20323420686f757273215361666545524332303a204552433230206f7065726174696f6e20646964206e6f74207375636365656444657620726174696f2063616e206e6f742062652067726561746572207468616e20313025a2646970667358221220f4d0592319c559bc46b4fda024a78319a78c75d0cb55b2c90a6845408ad9b06564736f6c63430006020033",
  "source": "pragma solidity ^0.6.0;\n\nimport \"@openzeppelin/contracts/token/ERC721/IERC721Enumerable.sol\";\nimport \"../common/hotpotinterface.sol\";\nimport \"../common/ILoan.sol\";\nimport \"@openzeppelin/contracts/math/Math.sol\";\nimport \"@openzeppelin/contracts/math/SafeMath.sol\";\nimport \"@openzeppelin/contracts/token/ERC20/IERC20.sol\";\nimport \"@openzeppelin/contracts/token/ERC20/SafeERC20.sol\";\nimport \"@openzeppelin/contracts/access/Ownable.sol\";\nimport \"@openzeppelin/contracts/utils/Address.sol\";\nimport \"@openzeppelin/contracts/utils/ReentrancyGuard.sol\";\nimport \"@openzeppelin/contracts/utils/Pausable.sol\";\n\ncontract Reward is Ownable, ReentrancyGuard, Pausable {\n    using SafeMath for uint256;\n    using SafeERC20 for IERC20;\n    using Address for address;\n\n    address public devAddress;\n\n    IHotPot public hotpot;\n    IERC721Enumerable public erc721;\n    IERC20 public erc20;\n    ILoan public loan;\n\n    event WithdrawReward(address _user, uint256 _tokenId, uint256 _amount);\n\n    event Rescue(address indexed dst, uint256 sad);\n    event RescueToken(address indexed dst, address indexed token, uint256 sad);\n\n    //weight,percent\n    uint256 public weightGrade1 = 100;\n    uint256 public weightGrade2 = 120;\n    uint256 public weightGrade3 = 150;\n\n    //can withdraw total reward daily, percent\n    uint256 public availableRewardRatio = 20;\n\n    uint256 public devRewardRatio = 7;\n\n    modifier checkAllAddress() {\n        require(hotpot != IHotPot(0), \"Contract NFT is not initialized!\");\n        require(\n            erc721 != IERC721Enumerable(0),\n            \"Contract HotPot is not initialized!\"\n        );\n        require(erc20 != IERC20(0), \"Contract is not initialized!\");\n        _;\n    }\n\n    modifier validNFToken(uint256 _tokenId) {\n        require(\n            erc721.ownerOf(_tokenId) != address(0),\n            \"It is not a NFT token!\"\n        );\n        _;\n    }\n\n    constructor(\n        address _dev,\n        address _nft,\n        address _hotpot\n    ) public {\n        require(_dev != address(0));\n        require(_nft != address(0));\n        require(_hotpot != address(0));\n        require(_nft.isContract(), \"It's not contract address!\");\n        require(_hotpot.isContract(), \"It's not contract address!\");\n\n        devAddress = _dev;\n        hotpot = IHotPot(_nft);\n        erc721 = IERC721Enumerable(_nft);\n        erc20 = IERC20(_hotpot);\n    }\n\n    function setDevRatio(uint8 _ratio) external onlyOwner {\n        require(_ratio < 10, \"Dev ratio can not be greater than 10%\");\n        devRewardRatio = _ratio;\n    }\n\n    function setDevAddress(address _dev) external onlyOwner {\n        require(_dev != address(0));\n        devAddress = _dev;\n    }\n\n    function getBalance() external view returns (uint256) {\n        return erc20.balanceOf(address(this));\n    }\n\n    function setHotPotTicket(address _addr) external onlyOwner {\n        require(_addr.isContract(), \"It's not contract address!\");\n\n        hotpot = IHotPot(_addr);\n        erc721 = IERC721Enumerable(_addr);\n    }\n\n    function setHotPot(address _addr) external onlyOwner {\n        require(_addr.isContract(), \"It's not contract address!\");\n        erc20 = IERC20(_addr);\n    }\n\n    function setLoan(address _addr) external onlyOwner {\n        require(_addr.isContract(), \"It's not contract address!\");\n        loan = ILoan(_addr);\n    }\n\n    function calNormalReward(uint256 _tokenId) external view returns (uint256) {\n        if (erc721.totalSupply() == 0) {\n            return 0;\n        }\n        //3.calculate the Reward\n        uint256 grade1 = hotpot.getGradeCount(1);\n        uint256 grade2 = hotpot.getGradeCount(2);\n        uint256 grade3 = hotpot.getGradeCount(3);\n\n        uint8 grade = hotpot.getGrade(_tokenId);\n\n        uint256 totalWeight = grade1 *\n            weightGrade1 +\n            grade2 *\n            weightGrade2 +\n            grade3 *\n            weightGrade3;\n        uint256 weight = weightGrade1;\n        if (grade == 1) {\n            weight = weightGrade1;\n        } else if (grade == 2) {\n            weight = weightGrade2;\n        } else if (grade == 3) {\n            weight = weightGrade3;\n        }\n\n        uint256 totalReward = erc20.balanceOf(address(this));\n        uint256 available = totalReward.mul(availableRewardRatio).div(100);\n\n        uint256 ratio = weight.mul(100000).div(totalWeight);\n        if (ratio > 20000) {\n            ratio = 20000;\n        }\n\n        uint256 reward = available.mul(ratio).div(100000);\n        return reward;\n    }\n\n    function calReward(uint256 _tokenId)\n        external\n        view\n        checkAllAddress\n        validNFToken(_tokenId)\n        returns (uint256)\n    {\n        //1.check the NFT is used?\n        uint256 time = hotpot.getUseTime(_tokenId);\n        if (time + 86400 > now) {\n            return 0;\n        }\n\n        return this.calNormalReward(_tokenId);\n    }\n\n    // event WithdrawReward(address _user,uint256 _tokenId, uint256 _amount);\n\n    function getReward(uint256 _tokenId)\n        external\n        checkAllAddress\n        validNFToken(_tokenId)\n        nonReentrant\n        whenNotPaused\n    {\n        //1.check the NFT is used?\n        uint256 time = hotpot.getUseTime(_tokenId);\n        require(time + 86400 < now, \"This ticket is used within 24 hours!\");\n\n        require(this.getBalance() > 0, \"The reward pool is empty!\");\n\n        //2. check ownership\n        require(\n            loan.checkPrivilege(msg.sender, _tokenId, now),\n            \"You do not have right to use this token!\"\n        );\n\n        uint256 reward = this.calReward(_tokenId);\n\n        uint256 devReward = reward.mul(devRewardRatio).div(100);\n        uint256 userReward = reward.sub(devReward);\n\n        //2.set use\n        hotpot.setUse(_tokenId);\n\n        erc20.safeTransfer(devAddress, devReward);\n        //send to user and dev\n        erc20.safeTransfer(msg.sender, userReward);\n\n        emit WithdrawReward(msg.sender, _tokenId, reward);\n    }\n\n    function rescue(address payable to_, uint256 amount_) external onlyOwner {\n        require(to_ != address(0), \"must not 0\");\n        require(amount_ > 0, \"must gt 0\");\n\n        to_.transfer(amount_);\n        emit Rescue(to_, amount_);\n    }\n\n    function rescue(\n        address to_,\n        IERC20 token_,\n        uint256 amount_\n    ) external onlyOwner {\n        require(to_ != address(0), \"must not 0\");\n        require(amount_ > 0, \"must gt 0\");\n\n        token_.transfer(to_, amount_);\n        emit RescueToken(to_, address(token_), amount_);\n    }\n\n    function pause() external onlyOwner{\n        _pause();\n    }\n\n    function unpause() external onlyOwner{\n        _unpause();\n    }\n}\n",
  "sourcePath": "/Users/junhu/git/hotpotcontract/truffle/contracts/reward/Reward.sol",
  "compiler": {
    "name": "solc",
    "version": "0.6.2+commit.bacdbe57.Emscripten.clang"
  },
  "schemaVersion": "3.3.0",
  "updatedAt": "2020-11-03T06:23:58.081Z",
  "networkType": "ethereum",
  "devdoc": {
    "methods": {
      "owner()": {
        "details": "Returns the address of the current owner."
      },
      "paused()": {
        "details": "Returns true if the contract is paused, and false otherwise."
      },
      "renounceOwnership()": {
        "details": "Leaves the contract without owner. It will not be possible to call `onlyOwner` functions anymore. Can only be called by the current owner.     * NOTE: Renouncing ownership will leave the contract without an owner, thereby removing any functionality that is only available to the owner."
      },
      "transferOwnership(address)": {
        "details": "Transfers ownership of the contract to a new account (`newOwner`). Can only be called by the current owner."
      }
    }
  },
  "userdoc": {
    "methods": {}
  }
}