{
  "contractName": "Reward",
  "abi": [
    {
      "inputs": [
        {
          "internalType": "address",
          "name": "_dev",
          "type": "address"
        },
        {
          "internalType": "address",
          "name": "_nft",
          "type": "address"
        },
        {
          "internalType": "address",
          "name": "_hotpot",
          "type": "address"
        }
      ],
      "stateMutability": "nonpayable",
      "type": "constructor"
    },
    {
      "anonymous": false,
      "inputs": [
        {
          "indexed": true,
          "internalType": "address",
          "name": "previousOwner",
          "type": "address"
        },
        {
          "indexed": true,
          "internalType": "address",
          "name": "newOwner",
          "type": "address"
        }
      ],
      "name": "OwnershipTransferred",
      "type": "event"
    },
    {
      "anonymous": false,
      "inputs": [
        {
          "indexed": true,
          "internalType": "address",
          "name": "dst",
          "type": "address"
        },
        {
          "indexed": false,
          "internalType": "uint256",
          "name": "sad",
          "type": "uint256"
        }
      ],
      "name": "Rescue",
      "type": "event"
    },
    {
      "anonymous": false,
      "inputs": [
        {
          "indexed": true,
          "internalType": "address",
          "name": "dst",
          "type": "address"
        },
        {
          "indexed": true,
          "internalType": "address",
          "name": "token",
          "type": "address"
        },
        {
          "indexed": false,
          "internalType": "uint256",
          "name": "sad",
          "type": "uint256"
        }
      ],
      "name": "RescueToken",
      "type": "event"
    },
    {
      "anonymous": false,
      "inputs": [
        {
          "indexed": false,
          "internalType": "address",
          "name": "_user",
          "type": "address"
        },
        {
          "indexed": false,
          "internalType": "uint256",
          "name": "_tokenId",
          "type": "uint256"
        },
        {
          "indexed": false,
          "internalType": "uint256",
          "name": "_amount",
          "type": "uint256"
        }
      ],
      "name": "WithdrawReward",
      "type": "event"
    },
    {
      "inputs": [],
      "name": "availableRewardRatio",
      "outputs": [
        {
          "internalType": "uint256",
          "name": "",
          "type": "uint256"
        }
      ],
      "stateMutability": "view",
      "type": "function"
    },
    {
      "inputs": [],
      "name": "devAddress",
      "outputs": [
        {
          "internalType": "address",
          "name": "",
          "type": "address"
        }
      ],
      "stateMutability": "view",
      "type": "function"
    },
    {
      "inputs": [],
      "name": "devRewardRatio",
      "outputs": [
        {
          "internalType": "uint256",
          "name": "",
          "type": "uint256"
        }
      ],
      "stateMutability": "view",
      "type": "function"
    },
    {
      "inputs": [],
      "name": "erc20",
      "outputs": [
        {
          "internalType": "contract IERC20",
          "name": "",
          "type": "address"
        }
      ],
      "stateMutability": "view",
      "type": "function"
    },
    {
      "inputs": [],
      "name": "erc721",
      "outputs": [
        {
          "internalType": "contract IERC721Enumerable",
          "name": "",
          "type": "address"
        }
      ],
      "stateMutability": "view",
      "type": "function"
    },
    {
      "inputs": [],
      "name": "hotpot",
      "outputs": [
        {
          "internalType": "contract IHotPot",
          "name": "",
          "type": "address"
        }
      ],
      "stateMutability": "view",
      "type": "function"
    },
    {
      "inputs": [],
      "name": "loan",
      "outputs": [
        {
          "internalType": "contract ILoan",
          "name": "",
          "type": "address"
        }
      ],
      "stateMutability": "view",
      "type": "function"
    },
    {
      "inputs": [],
      "name": "owner",
      "outputs": [
        {
          "internalType": "address",
          "name": "",
          "type": "address"
        }
      ],
      "stateMutability": "view",
      "type": "function"
    },
    {
      "inputs": [],
      "name": "renounceOwnership",
      "outputs": [],
      "stateMutability": "nonpayable",
      "type": "function"
    },
    {
      "inputs": [
        {
          "internalType": "address",
          "name": "newOwner",
          "type": "address"
        }
      ],
      "name": "transferOwnership",
      "outputs": [],
      "stateMutability": "nonpayable",
      "type": "function"
    },
    {
      "inputs": [],
      "name": "weightGrade1",
      "outputs": [
        {
          "internalType": "uint256",
          "name": "",
          "type": "uint256"
        }
      ],
      "stateMutability": "view",
      "type": "function"
    },
    {
      "inputs": [],
      "name": "weightGrade2",
      "outputs": [
        {
          "internalType": "uint256",
          "name": "",
          "type": "uint256"
        }
      ],
      "stateMutability": "view",
      "type": "function"
    },
    {
      "inputs": [],
      "name": "weightGrade3",
      "outputs": [
        {
          "internalType": "uint256",
          "name": "",
          "type": "uint256"
        }
      ],
      "stateMutability": "view",
      "type": "function"
    },
    {
      "inputs": [
        {
          "internalType": "uint8",
          "name": "_ratio",
          "type": "uint8"
        }
      ],
      "name": "setDevRatio",
      "outputs": [],
      "stateMutability": "nonpayable",
      "type": "function"
    },
    {
      "inputs": [
        {
          "internalType": "address",
          "name": "_dev",
          "type": "address"
        }
      ],
      "name": "setDevAddress",
      "outputs": [],
      "stateMutability": "nonpayable",
      "type": "function"
    },
    {
      "inputs": [],
      "name": "getBalance",
      "outputs": [
        {
          "internalType": "uint256",
          "name": "",
          "type": "uint256"
        }
      ],
      "stateMutability": "view",
      "type": "function"
    },
    {
      "inputs": [
        {
          "internalType": "address",
          "name": "_addr",
          "type": "address"
        }
      ],
      "name": "setHotPotTicket",
      "outputs": [],
      "stateMutability": "nonpayable",
      "type": "function"
    },
    {
      "inputs": [
        {
          "internalType": "address",
          "name": "_addr",
          "type": "address"
        }
      ],
      "name": "setHotPot",
      "outputs": [],
      "stateMutability": "nonpayable",
      "type": "function"
    },
    {
      "inputs": [
        {
          "internalType": "address",
          "name": "_addr",
          "type": "address"
        }
      ],
      "name": "setLoan",
      "outputs": [],
      "stateMutability": "nonpayable",
      "type": "function"
    },
    {
      "inputs": [
        {
          "internalType": "uint256",
          "name": "_tokenId",
          "type": "uint256"
        }
      ],
      "name": "calNormalReward",
      "outputs": [
        {
          "internalType": "uint256",
          "name": "",
          "type": "uint256"
        }
      ],
      "stateMutability": "view",
      "type": "function"
    },
    {
      "inputs": [
        {
          "internalType": "uint256",
          "name": "_tokenId",
          "type": "uint256"
        }
      ],
      "name": "calReward",
      "outputs": [
        {
          "internalType": "uint256",
          "name": "",
          "type": "uint256"
        }
      ],
      "stateMutability": "view",
      "type": "function"
    },
    {
      "inputs": [
        {
          "internalType": "uint256",
          "name": "_tokenId",
          "type": "uint256"
        }
      ],
      "name": "getReward",
      "outputs": [],
      "stateMutability": "nonpayable",
      "type": "function"
    },
    {
      "inputs": [
        {
          "internalType": "address",
          "name": "to_",
          "type": "address"
        },
        {
          "internalType": "contract IERC20",
          "name": "token_",
          "type": "address"
        },
        {
          "internalType": "uint256",
          "name": "amount_",
          "type": "uint256"
        }
      ],
      "name": "rescue",
      "outputs": [],
      "stateMutability": "nonpayable",
      "type": "function"
    },
    {
      "inputs": [
        {
          "internalType": "address payable",
          "name": "to_",
          "type": "address"
        },
        {
          "internalType": "uint256",
          "name": "amount_",
          "type": "uint256"
        }
      ],
      "name": "rescue",
      "outputs": [],
      "stateMutability": "nonpayable",
      "type": "function"
    }
  ],
  "bytecode": "0x608060405260646006556078600755609660085560146009556007600a553480156200002a57600080fd5b506040516200249638038062002496833981810160405260608110156200005057600080fd5b50805160208201516040909201519091906000620000766001600160e01b036200022a16565b600080546001600160a01b0319166001600160a01b0383169081178255604051929350917f8be0079c531659141344cd1fd0a4f28419497f9722a3daafe3b4186f6b6457e0908290a3506001600160a01b038316620000d457600080fd5b6001600160a01b038216620000e857600080fd5b6001600160a01b038116620000fc57600080fd5b6200011b826001600160a01b03166200022e60201b62001c571760201c565b6200016d576040805162461bcd60e51b815260206004820152601a60248201527f49742773206e6f7420636f6e7472616374206164647265737321000000000000604482015290519081900360640190fd5b6200018c816001600160a01b03166200022e60201b62001c571760201c565b620001de576040805162461bcd60e51b815260206004820152601a60248201527f49742773206e6f7420636f6e7472616374206164647265737321000000000000604482015290519081900360640190fd5b600180546001600160a01b039485166001600160a01b03199182161790915560028054938516938216841790556003805482169093179092556004805491909316911617905562000234565b3390565b3b151590565b61225280620002446000396000f3fe608060405234801561001057600080fd5b50600436106101985760003560e01c80636fa04ecc116100e3578063d0d41fe11161008c578063ef48188e11610066578063ef48188e14610381578063f2fde38b1461039e578063ff8c1865146103c457610198565b8063d0d41fe11461032d578063d285b7b414610353578063e6db6a301461035b57610198565b80637a4e4ecf116100bd5780637a4e4ecf146102f15780638da5cb5b1461031d578063bca6ce641461032557610198565b80636fa04ecc146102d9578063715018a6146102e1578063785e9e86146102e957610198565b806320ff430b1161014557806341f7b0921161011f57806341f7b092146102765780634971e6291461029c5780635a75e2ef146102b957610198565b806320ff430b146102305780633ad10ef614610266578063413c6d7e1461026e57610198565b806312065fe01161017657806312065fe0146101e757806315ea88c4146101ef5780631c4b774b1461021357610198565b8063049b205b1461019d57806305af51cc146101c55780630e9ea29b146101df575b600080fd5b6101c3600480360360208110156101b357600080fd5b50356001600160a01b03166103cc565b005b6101cd6104d3565b60408051918252519081900360200190f35b6101cd6104d9565b6101cd6104df565b6101f7610578565b604080516001600160a01b039092168252519081900360200190f35b6101c36004803603602081101561022957600080fd5b5035610587565b6101c36004803603606081101561024657600080fd5b506001600160a01b03813581169160208101359091169060400135610b9e565b6101f7610d8c565b6101cd610d9b565b6101c36004803603602081101561028c57600080fd5b50356001600160a01b0316610da1565b6101cd600480360360208110156102b257600080fd5b5035610ea8565b6101c3600480360360208110156102cf57600080fd5b503560ff166111c2565b6101cd611276565b6101c361127c565b6101f7611348565b6101c36004803603604081101561030757600080fd5b506001600160a01b038135169060200135611357565b6101f76114eb565b6101f76114fa565b6101c36004803603602081101561034357600080fd5b50356001600160a01b0316611509565b6101f76115c0565b6101c36004803603602081101561037157600080fd5b50356001600160a01b03166115cf565b6101cd6004803603602081101561039757600080fd5b50356116e0565b6101c3600480360360208110156103b457600080fd5b50356001600160a01b0316611b2b565b6101cd611c4d565b6103d4611c53565b6000546001600160a01b03908116911614610436576040805162461bcd60e51b815260206004820181905260248201527f4f776e61626c653a2063616c6c6572206973206e6f7420746865206f776e6572604482015290519081900360640190fd5b610448816001600160a01b0316611c57565b610499576040805162461bcd60e51b815260206004820152601a60248201527f49742773206e6f7420636f6e7472616374206164647265737321000000000000604482015290519081900360640190fd5b600480547fffffffffffffffffffffffff0000000000000000000000000000000000000000166001600160a01b0392909216919091179055565b60085481565b60075481565b60048054604080517f70a082310000000000000000000000000000000000000000000000000000000081523093810193909352516000926001600160a01b03909216916370a08231916024808301926020929190829003018186803b15801561054757600080fd5b505afa15801561055b573d6000803e3d6000fd5b505050506040513d602081101561057157600080fd5b5051905090565b6002546001600160a01b031681565b6002546001600160a01b03166105e4576040805162461bcd60e51b815260206004820181905260248201527f436f6e7472616374204e4654206973206e6f7420696e697469616c697a656421604482015290519081900360640190fd5b6003546001600160a01b031661062b5760405162461bcd60e51b81526004018080602001828103825260238152602001806121876023913960400191505060405180910390fd5b6004546001600160a01b0316610688576040805162461bcd60e51b815260206004820152601c60248201527f436f6e7472616374206973206e6f7420696e697469616c697a65642100000000604482015290519081900360640190fd5b600354604080517f6352211e00000000000000000000000000000000000000000000000000000000815260048101849052905183926000926001600160a01b0390911691636352211e91602480820192602092909190829003018186803b1580156106f257600080fd5b505afa158015610706573d6000803e3d6000fd5b505050506040513d602081101561071c57600080fd5b50516001600160a01b0316141561077a576040805162461bcd60e51b815260206004820152601660248201527f4974206973206e6f742061204e465420746f6b656e2100000000000000000000604482015290519081900360640190fd5b600254604080517f5840e6590000000000000000000000000000000000000000000000000000000081526004810185905290516000926001600160a01b031691635840e659916024808301926020929190829003018186803b1580156107df57600080fd5b505afa1580156107f3573d6000803e3d6000fd5b505050506040513d602081101561080957600080fd5b5051905042620151808201106108505760405162461bcd60e51b81526004018080602001828103825260248152602001806121aa6024913960400191505060405180910390fd5b6000306001600160a01b03166312065fe06040518163ffffffff1660e01b815260040160206040518083038186803b15801561088b57600080fd5b505afa15801561089f573d6000803e3d6000fd5b505050506040513d60208110156108b557600080fd5b505111610909576040805162461bcd60e51b815260206004820152601960248201527f5468652072657761726420706f6f6c20697320656d7074792100000000000000604482015290519081900360640190fd5b600554604080517f3130c3ae0000000000000000000000000000000000000000000000000000000081523360048201526024810186905242604482015290516001600160a01b0390921691633130c3ae91606480820192602092909190829003018186803b15801561097a57600080fd5b505afa15801561098e573d6000803e3d6000fd5b505050506040513d60208110156109a457600080fd5b50516109e15760405162461bcd60e51b81526004018080602001828103825260288152602001806121186028913960400191505060405180910390fd5b6000306001600160a01b0316634971e629856040518263ffffffff1660e01b81526004018082815260200191505060206040518083038186803b158015610a2757600080fd5b505afa158015610a3b573d6000803e3d6000fd5b505050506040513d6020811015610a5157600080fd5b5051600a54909150600090610a8090606490610a7490859063ffffffff611c5d16565b9063ffffffff611cbf16565b90506000610a94838363ffffffff611d0116565b600454909150610ab4906001600160a01b0316338363ffffffff611d4316565b600154600454610ad7916001600160a01b0391821691168463ffffffff611d4316565b600254604080517f22142e6c0000000000000000000000000000000000000000000000000000000081526004810189905290516001600160a01b03909216916322142e6c9160248082019260009290919082900301818387803b158015610b3d57600080fd5b505af1158015610b51573d6000803e3d6000fd5b505060408051338152602081018a905280820187905290517f48f1e4b8fb0469595617480e6784e40ab6b8c49209761b8e09305bf7b73e53de9350908190036060019150a1505050505050565b610ba6611c53565b6000546001600160a01b03908116911614610c08576040805162461bcd60e51b815260206004820181905260248201527f4f776e61626c653a2063616c6c6572206973206e6f7420746865206f776e6572604482015290519081900360640190fd5b6001600160a01b038316610c63576040805162461bcd60e51b815260206004820152600a60248201527f6d757374206e6f74203000000000000000000000000000000000000000000000604482015290519081900360640190fd5b60008111610cb8576040805162461bcd60e51b815260206004820152600960248201527f6d75737420677420300000000000000000000000000000000000000000000000604482015290519081900360640190fd5b816001600160a01b031663a9059cbb84836040518363ffffffff1660e01b815260040180836001600160a01b03166001600160a01b0316815260200182815260200192505050602060405180830381600087803b158015610d1857600080fd5b505af1158015610d2c573d6000803e3d6000fd5b505050506040513d6020811015610d4257600080fd5b50506040805182815290516001600160a01b0380851692908616917faabf44ab9d5bef08d1b60f287a337f0d11a248e49741ad189b429e47e98ba9109181900360200190a3505050565b6001546001600160a01b031681565b60065481565b610da9611c53565b6000546001600160a01b03908116911614610e0b576040805162461bcd60e51b815260206004820181905260248201527f4f776e61626c653a2063616c6c6572206973206e6f7420746865206f776e6572604482015290519081900360640190fd5b610e1d816001600160a01b0316611c57565b610e6e576040805162461bcd60e51b815260206004820152601a60248201527f49742773206e6f7420636f6e7472616374206164647265737321000000000000604482015290519081900360640190fd5b600580547fffffffffffffffffffffffff0000000000000000000000000000000000000000166001600160a01b0392909216919091179055565b6002546000906001600160a01b0316610f08576040805162461bcd60e51b815260206004820181905260248201527f436f6e7472616374204e4654206973206e6f7420696e697469616c697a656421604482015290519081900360640190fd5b6003546001600160a01b0316610f4f5760405162461bcd60e51b81526004018080602001828103825260238152602001806121876023913960400191505060405180910390fd5b6004546001600160a01b0316610fac576040805162461bcd60e51b815260206004820152601c60248201527f436f6e7472616374206973206e6f7420696e697469616c697a65642100000000604482015290519081900360640190fd5b600354604080517f6352211e00000000000000000000000000000000000000000000000000000000815260048101859052905184926000926001600160a01b0390911691636352211e91602480820192602092909190829003018186803b15801561101657600080fd5b505afa15801561102a573d6000803e3d6000fd5b505050506040513d602081101561104057600080fd5b50516001600160a01b0316141561109e576040805162461bcd60e51b815260206004820152601660248201527f4974206973206e6f742061204e465420746f6b656e2100000000000000000000604482015290519081900360640190fd5b600254604080517f5840e6590000000000000000000000000000000000000000000000000000000081526004810186905290516000926001600160a01b031691635840e659916024808301926020929190829003018186803b15801561110357600080fd5b505afa158015611117573d6000803e3d6000fd5b505050506040513d602081101561112d57600080fd5b505190504262015180820111156111485760009250506111bc565b306001600160a01b031663ef48188e856040518263ffffffff1660e01b81526004018082815260200191505060206040518083038186803b15801561118c57600080fd5b505afa1580156111a0573d6000803e3d6000fd5b505050506040513d60208110156111b657600080fd5b50519250505b50919050565b6111ca611c53565b6000546001600160a01b0390811691161461122c576040805162461bcd60e51b815260206004820181905260248201527f4f776e61626c653a2063616c6c6572206973206e6f7420746865206f776e6572604482015290519081900360640190fd5b600a8160ff161061126e5760405162461bcd60e51b81526004018080602001828103825260258152602001806121f86025913960400191505060405180910390fd5b60ff16600a55565b60095481565b611284611c53565b6000546001600160a01b039081169116146112e6576040805162461bcd60e51b815260206004820181905260248201527f4f776e61626c653a2063616c6c6572206973206e6f7420746865206f776e6572604482015290519081900360640190fd5b600080546040516001600160a01b03909116907f8be0079c531659141344cd1fd0a4f28419497f9722a3daafe3b4186f6b6457e0908390a3600080547fffffffffffffffffffffffff0000000000000000000000000000000000000000169055565b6004546001600160a01b031681565b61135f611c53565b6000546001600160a01b039081169116146113c1576040805162461bcd60e51b815260206004820181905260248201527f4f776e61626c653a2063616c6c6572206973206e6f7420746865206f776e6572604482015290519081900360640190fd5b6001600160a01b03821661141c576040805162461bcd60e51b815260206004820152600a60248201527f6d757374206e6f74203000000000000000000000000000000000000000000000604482015290519081900360640190fd5b60008111611471576040805162461bcd60e51b815260206004820152600960248201527f6d75737420677420300000000000000000000000000000000000000000000000604482015290519081900360640190fd5b6040516001600160a01b0383169082156108fc029083906000818181858888f193505050501580156114a7573d6000803e3d6000fd5b506040805182815290516001600160a01b038416917f542fa6bfee3b4746210fbdd1d83f9e49b65adde3639f8d8f165dd18347938af2919081900360200190a25050565b6000546001600160a01b031690565b6003546001600160a01b031681565b611511611c53565b6000546001600160a01b03908116911614611573576040805162461bcd60e51b815260206004820181905260248201527f4f776e61626c653a2063616c6c6572206973206e6f7420746865206f776e6572604482015290519081900360640190fd5b6001600160a01b03811661158657600080fd5b600180547fffffffffffffffffffffffff0000000000000000000000000000000000000000166001600160a01b0392909216919091179055565b6005546001600160a01b031681565b6115d7611c53565b6000546001600160a01b03908116911614611639576040805162461bcd60e51b815260206004820181905260248201527f4f776e61626c653a2063616c6c6572206973206e6f7420746865206f776e6572604482015290519081900360640190fd5b61164b816001600160a01b0316611c57565b61169c576040805162461bcd60e51b815260206004820152601a60248201527f49742773206e6f7420636f6e7472616374206164647265737321000000000000604482015290519081900360640190fd5b600280546001600160a01b039092167fffffffffffffffffffffffff0000000000000000000000000000000000000000928316811790915560038054909216179055565b600354604080517f18160ddd00000000000000000000000000000000000000000000000000000000815290516000926001600160a01b0316916318160ddd916004808301926020929190829003018186803b15801561173e57600080fd5b505afa158015611752573d6000803e3d6000fd5b505050506040513d602081101561176857600080fd5b505161177657506000611b26565b600254604080517fd394dd790000000000000000000000000000000000000000000000000000000081526001600482015290516000926001600160a01b03169163d394dd79916024808301926020929190829003018186803b1580156117db57600080fd5b505afa1580156117ef573d6000803e3d6000fd5b505050506040513d602081101561180557600080fd5b505160028054604080517fd394dd790000000000000000000000000000000000000000000000000000000081526004810193909352519293506000926001600160a01b039091169163d394dd79916024808301926020929190829003018186803b15801561187257600080fd5b505afa158015611886573d6000803e3d6000fd5b505050506040513d602081101561189c57600080fd5b5051600254604080517fd394dd790000000000000000000000000000000000000000000000000000000081526003600482015290519293506000926001600160a01b039092169163d394dd7991602480820192602092909190829003018186803b15801561190957600080fd5b505afa15801561191d573d6000803e3d6000fd5b505050506040513d602081101561193357600080fd5b5051600254604080517fe1e0485e0000000000000000000000000000000000000000000000000000000081526004810189905290519293506000926001600160a01b039092169163e1e0485e91602480820192602092909190829003018186803b1580156119a057600080fd5b505afa1580156119b4573d6000803e3d6000fd5b505050506040513d60208110156119ca57600080fd5b5051600854600754600654929350868302908602019084020190600160ff841614156119f95750600654611a1f565b8260ff1660021415611a0e5750600754611a1f565b8260ff1660031415611a1f57506008545b60048054604080517f70a082310000000000000000000000000000000000000000000000000000000081523093810193909352516000926001600160a01b03909216916370a08231916024808301926020929190829003018186803b158015611a8757600080fd5b505afa158015611a9b573d6000803e3d6000fd5b505050506040513d6020811015611ab157600080fd5b5051600954909150600090611ad490606490610a7490859063ffffffff611c5d16565b90506000611aef85610a7486620186a063ffffffff611c5d16565b9050614e20811115611b005750614e205b6000611b19620186a0610a74858563ffffffff611c5d16565b9a50505050505050505050505b919050565b611b33611c53565b6000546001600160a01b03908116911614611b95576040805162461bcd60e51b815260206004820181905260248201527f4f776e61626c653a2063616c6c6572206973206e6f7420746865206f776e6572604482015290519081900360640190fd5b6001600160a01b038116611bda5760405162461bcd60e51b81526004018080602001828103825260268152602001806121406026913960400191505060405180910390fd5b600080546040516001600160a01b03808516939216917f8be0079c531659141344cd1fd0a4f28419497f9722a3daafe3b4186f6b6457e091a3600080547fffffffffffffffffffffffff0000000000000000000000000000000000000000166001600160a01b0392909216919091179055565b600a5481565b3390565b3b151590565b600082611c6c57506000611cb9565b82820282848281611c7957fe5b0414611cb65760405162461bcd60e51b81526004018080602001828103825260218152602001806121666021913960400191505060405180910390fd5b90505b92915050565b6000611cb683836040518060400160405280601a81526020017f536166654d6174683a206469766973696f6e206279207a65726f000000000000815250611dc8565b6000611cb683836040518060400160405280601e81526020017f536166654d6174683a207375627472616374696f6e206f766572666c6f770000815250611e6a565b604080516001600160a01b038416602482015260448082018490528251808303909101815260649091019091526020810180517bffffffffffffffffffffffffffffffffffffffffffffffffffffffff167fa9059cbb00000000000000000000000000000000000000000000000000000000179052611dc3908490611ec4565b505050565b60008183611e545760405162461bcd60e51b81526004018080602001828103825283818151815260200191508051906020019080838360005b83811015611e19578181015183820152602001611e01565b50505050905090810190601f168015611e465780820380516001836020036101000a031916815260200191505b509250505060405180910390fd5b506000838581611e6057fe5b0495945050505050565b60008184841115611ebc5760405162461bcd60e51b8152602060048201818152835160248401528351909283926044909101919085019080838360008315611e19578181015183820152602001611e01565b505050900390565b6060611f19826040518060400160405280602081526020017f5361666545524332303a206c6f772d6c6576656c2063616c6c206661696c6564815250856001600160a01b0316611f759092919063ffffffff16565b805190915015611dc357808060200190516020811015611f3857600080fd5b5051611dc35760405162461bcd60e51b815260040180806020018281038252602a8152602001806121ce602a913960400191505060405180910390fd5b6060611f848484600085611f8c565b949350505050565b6060611f9785611c57565b611fe8576040805162461bcd60e51b815260206004820152601d60248201527f416464726573733a2063616c6c20746f206e6f6e2d636f6e7472616374000000604482015290519081900360640190fd5b60006060866001600160a01b031685876040518082805190602001908083835b6020831061204557805182527fffffffffffffffffffffffffffffffffffffffffffffffffffffffffffffffe09092019160209182019101612008565b6001836020036101000a03801982511681845116808217855250505050505090500191505060006040518083038185875af1925050503d80600081146120a7576040519150601f19603f3d011682016040523d82523d6000602084013e6120ac565b606091505b509150915081156120c0579150611f849050565b8051156120d05780518082602001fd5b60405162461bcd60e51b8152602060048201818152865160248401528651879391928392604401919085019080838360008315611e19578181015183820152602001611e0156fe596f7520646f206e6f74206861766520726967687420746f20757365207468697320746f6b656e214f776e61626c653a206e6577206f776e657220697320746865207a65726f2061646472657373536166654d6174683a206d756c7469706c69636174696f6e206f766572666c6f77436f6e747261637420486f74506f74206973206e6f7420696e697469616c697a65642154686973207469636b657420697320757365642077697468696e20323420686f757273215361666545524332303a204552433230206f7065726174696f6e20646964206e6f74207375636365656444657620726174696f2063616e206e6f742062652067726561746572207468616e20313025a2646970667358221220223b56bc454ff6b2e7a5b69e2a1333ee0bab658020b3bb098c606badd36043a264736f6c63430006020033",
  "source": "pragma solidity ^0.6.0;\n\nimport \"@openzeppelin/contracts/token/ERC721/IERC721Enumerable.sol\";\nimport \"../common/hotpotinterface.sol\";\nimport \"../common/ILoan.sol\";\nimport \"@openzeppelin/contracts/math/Math.sol\";\nimport \"@openzeppelin/contracts/math/SafeMath.sol\";\nimport \"@openzeppelin/contracts/token/ERC20/IERC20.sol\";\nimport \"@openzeppelin/contracts/token/ERC20/SafeERC20.sol\";\nimport \"@openzeppelin/contracts/access/Ownable.sol\";\nimport \"@openzeppelin/contracts/utils/Address.sol\";\n\ncontract Reward is Ownable {\n    using SafeMath for uint256;\n    using SafeERC20 for IERC20;\n    using Address for address;\n\n    address public devAddress;\n\n    IHotPot public hotpot;\n    IERC721Enumerable public erc721;\n    IERC20 public erc20;\n    ILoan public loan;\n\n    event WithdrawReward(address _user, uint256 _tokenId, uint256 _amount);\n\n    event Rescue(address indexed dst, uint256 sad);\n    event RescueToken(address indexed dst, address indexed token, uint256 sad);\n\n    //weight,percent\n    uint256 public weightGrade1 = 100;\n    uint256 public weightGrade2 = 120;\n    uint256 public weightGrade3 = 150;\n\n    //can withdraw total reward daily, percent\n    uint256 public availableRewardRatio = 20;\n\n    uint256 public devRewardRatio = 7;\n\n    modifier checkAllAddress() {\n        require(hotpot != IHotPot(0), \"Contract NFT is not initialized!\");\n        require(erc721 != IERC721Enumerable(0), \"Contract HotPot is not initialized!\");\n        require(erc20 != IERC20(0), \"Contract is not initialized!\");\n        _;\n    }\n\n    modifier validNFToken(uint256 _tokenId) {\n        require(erc721.ownerOf(_tokenId)!=address(0), \"It is not a NFT token!\");\n        _;\n    }\n\n\n    constructor(\n        address _dev,\n        address _nft,\n        address _hotpot\n    ) public {\n        require(_dev != address(0));\n        require(_nft != address(0));\n        require(_hotpot != address(0));\n        require(_nft.isContract(), \"It's not contract address!\");\n        require(_hotpot.isContract(), \"It's not contract address!\");\n\n        devAddress = _dev;\n        hotpot = IHotPot(_nft);\n        erc721 = IERC721Enumerable(_nft);\n        erc20 = IERC20(_hotpot);\n    }\n\n    function setDevRatio(uint8 _ratio) external onlyOwner {\n        require(_ratio<10,\"Dev ratio can not be greater than 10%\");\n        devRewardRatio = _ratio;\n    }\n\n    function setDevAddress(address _dev) external onlyOwner {\n        require(_dev != address(0));\n        devAddress = _dev;\n    }\n\n    function getBalance() external view returns (uint256) {\n        return erc20.balanceOf(address(this));\n    }\n\n    function setHotPotTicket(address _addr) external onlyOwner {\n        require(_addr.isContract(), \"It's not contract address!\");\n\n        hotpot = IHotPot(_addr);\n        erc721 = IERC721Enumerable(_addr);\n    }\n\n    function setHotPot(address _addr) external onlyOwner {\n        require(_addr.isContract(), \"It's not contract address!\");\n        erc20 = IERC20(_addr);\n    }\n\n    function setLoan(address _addr) external onlyOwner {\n        require(_addr.isContract(), \"It's not contract address!\");\n        loan = ILoan(_addr);\n    }\n\n    function calNormalReward(uint256 _tokenId) external view returns(uint256){\n        if(erc721.totalSupply()==0){\n            return 0;\n        }\n        //3.calculate the Reward\n        uint256 grade1 = hotpot.getGradeCount(1);\n        uint256 grade2 = hotpot.getGradeCount(2);\n        uint256 grade3 = hotpot.getGradeCount(3);\n\n        uint8 grade = hotpot.getGrade(_tokenId);\n\n        uint256 totalWeight = grade1 *\n            weightGrade1 +\n            grade2 *\n            weightGrade2 +\n            grade3 *\n            weightGrade3;\n        uint256 weight = weightGrade1;\n        if (grade == 1) {\n            weight = weightGrade1;\n        } else if (grade == 2) {\n            weight = weightGrade2;\n        } else if (grade == 3) {\n            weight = weightGrade3;\n        }\n\n        uint256 totalReward = erc20.balanceOf(address(this));\n        uint256 available = totalReward.mul(availableRewardRatio).div(100);\n\n        uint256 ratio = weight.mul(100000).div(totalWeight);\n        if (ratio > 20000) {\n            ratio = 20000;\n        }\n\n        uint256 reward = available.mul(ratio).div(100000) ;\n        return reward;\n    }\n\n    function calReward(uint256 _tokenId)\n        external\n        view\n        checkAllAddress\n        validNFToken(_tokenId)\n        returns (uint256)\n    {\n        //1.check the NFT is used?\n        uint256 time = hotpot.getUseTime(_tokenId);\n        if (time + 24 * 60 * 60 > now) {\n            return 0;\n        }\n\n        return this.calNormalReward(_tokenId);\n    }\n\n    // event WithdrawReward(address _user,uint256 _tokenId, uint256 _amount);\n\n    function getReward(uint256 _tokenId) external checkAllAddress validNFToken(_tokenId){\n        //1.check the NFT is used?\n        uint256 time = hotpot.getUseTime(_tokenId);\n        require(\n            time + 24 * 60 * 60 < now,\n            \"This ticket is used within 24 hours!\"\n        );\n\n        require(this.getBalance() > 0, \"The reward pool is empty!\");\n\n        //2. check ownership\n        require(\n           loan.checkPrivilege(msg.sender, _tokenId, now),\n            \"You do not have right to use this token!\"\n        );\n\n        uint256 reward = this.calReward(_tokenId);\n\n        uint256 devReward = reward.mul(devRewardRatio).div(100);\n        uint256 userReward = reward.sub(devReward);\n\n        //send to user and dev\n        erc20.safeTransfer(msg.sender, userReward);\n\n        erc20.safeTransfer(devAddress, devReward);\n\n        //2.set use\n        hotpot.setUse(_tokenId);\n\n        emit WithdrawReward(msg.sender, _tokenId, reward);\n    }\n\n    function rescue(address payable to_, uint256 amount_) external onlyOwner {\n        require(to_ != address(0), \"must not 0\");\n        require(amount_ > 0, \"must gt 0\");\n\n        to_.transfer(amount_);\n        emit Rescue(to_, amount_);\n    }\n\n    function rescue(\n        address to_,\n        IERC20 token_,\n        uint256 amount_\n    ) external onlyOwner {\n        require(to_ != address(0), \"must not 0\");\n        require(amount_ > 0, \"must gt 0\");\n\n        token_.transfer(to_, amount_);\n        emit RescueToken(to_, address(token_), amount_);\n    }\n}\n",
  "sourcePath": "/Users/junhu/git/hotpotcontract/truffle/contracts/reward/Reward.sol",
  "compiler": {
    "name": "solc",
    "version": "0.6.2+commit.bacdbe57.Emscripten.clang"
  },
  "schemaVersion": "3.3.0",
  "updatedAt": "2020-10-25T06:58:17.990Z",
  "devdoc": {
    "methods": {
      "owner()": {
        "details": "Returns the address of the current owner."
      },
      "renounceOwnership()": {
        "details": "Leaves the contract without owner. It will not be possible to call `onlyOwner` functions anymore. Can only be called by the current owner.     * NOTE: Renouncing ownership will leave the contract without an owner, thereby removing any functionality that is only available to the owner."
      },
      "transferOwnership(address)": {
        "details": "Transfers ownership of the contract to a new account (`newOwner`). Can only be called by the current owner."
      }
    }
  },
  "userdoc": {
    "methods": {}
  }
}