{
  "contractName": "StakePool",
  "abi": [
    {
      "inputs": [
        {
          "internalType": "address",
          "name": "_stakeERC20",
          "type": "address"
        },
        {
          "internalType": "address",
          "name": "_hotpotNFT",
          "type": "address"
        },
        {
          "internalType": "address",
          "name": "_hotpotERC20",
          "type": "address"
        },
        {
          "internalType": "address",
          "name": "_loan",
          "type": "address"
        },
        {
          "internalType": "address",
          "name": "_reward",
          "type": "address"
        },
        {
          "internalType": "address",
          "name": "_invite",
          "type": "address"
        },
        {
          "internalType": "uint256",
          "name": "_starttime",
          "type": "uint256"
        },
        {
          "internalType": "uint256",
          "name": "duration",
          "type": "uint256"
        },
        {
          "internalType": "uint256",
          "name": "_rewardAmount",
          "type": "uint256"
        }
      ],
      "stateMutability": "nonpayable",
      "type": "constructor"
    },
    {
      "anonymous": false,
      "inputs": [
        {
          "indexed": true,
          "internalType": "address",
          "name": "previousOwner",
          "type": "address"
        },
        {
          "indexed": true,
          "internalType": "address",
          "name": "newOwner",
          "type": "address"
        }
      ],
      "name": "OwnershipTransferred",
      "type": "event"
    },
    {
      "anonymous": false,
      "inputs": [
        {
          "indexed": false,
          "internalType": "address",
          "name": "account",
          "type": "address"
        }
      ],
      "name": "Paused",
      "type": "event"
    },
    {
      "anonymous": false,
      "inputs": [
        {
          "indexed": true,
          "internalType": "address",
          "name": "dst",
          "type": "address"
        },
        {
          "indexed": false,
          "internalType": "uint256",
          "name": "sad",
          "type": "uint256"
        }
      ],
      "name": "Rescue",
      "type": "event"
    },
    {
      "anonymous": false,
      "inputs": [
        {
          "indexed": true,
          "internalType": "address",
          "name": "dst",
          "type": "address"
        },
        {
          "indexed": true,
          "internalType": "address",
          "name": "token",
          "type": "address"
        },
        {
          "indexed": false,
          "internalType": "uint256",
          "name": "sad",
          "type": "uint256"
        }
      ],
      "name": "RescueToken",
      "type": "event"
    },
    {
      "anonymous": false,
      "inputs": [
        {
          "indexed": false,
          "internalType": "uint256",
          "name": "reward",
          "type": "uint256"
        }
      ],
      "name": "RewardChanged",
      "type": "event"
    },
    {
      "anonymous": false,
      "inputs": [
        {
          "indexed": true,
          "internalType": "address",
          "name": "user",
          "type": "address"
        },
        {
          "indexed": false,
          "internalType": "uint256",
          "name": "reward",
          "type": "uint256"
        },
        {
          "indexed": false,
          "internalType": "uint256",
          "name": "percent",
          "type": "uint256"
        }
      ],
      "name": "RewardPaid",
      "type": "event"
    },
    {
      "anonymous": false,
      "inputs": [
        {
          "indexed": true,
          "internalType": "address",
          "name": "user",
          "type": "address"
        },
        {
          "indexed": false,
          "internalType": "uint256",
          "name": "amount",
          "type": "uint256"
        }
      ],
      "name": "Staked",
      "type": "event"
    },
    {
      "anonymous": false,
      "inputs": [
        {
          "indexed": false,
          "internalType": "address",
          "name": "account",
          "type": "address"
        }
      ],
      "name": "Unpaused",
      "type": "event"
    },
    {
      "anonymous": false,
      "inputs": [
        {
          "indexed": true,
          "internalType": "address",
          "name": "user",
          "type": "address"
        },
        {
          "indexed": false,
          "internalType": "uint256",
          "name": "amount",
          "type": "uint256"
        }
      ],
      "name": "Withdrawn",
      "type": "event"
    },
    {
      "inputs": [],
      "name": "DURATION",
      "outputs": [
        {
          "internalType": "uint256",
          "name": "",
          "type": "uint256"
        }
      ],
      "stateMutability": "view",
      "type": "function",
      "constant": true
    },
    {
      "inputs": [
        {
          "internalType": "address",
          "name": "account",
          "type": "address"
        }
      ],
      "name": "balanceOf",
      "outputs": [
        {
          "internalType": "uint256",
          "name": "",
          "type": "uint256"
        }
      ],
      "stateMutability": "view",
      "type": "function",
      "constant": true
    },
    {
      "inputs": [],
      "name": "erc20",
      "outputs": [
        {
          "internalType": "contract IERC20",
          "name": "",
          "type": "address"
        }
      ],
      "stateMutability": "view",
      "type": "function",
      "constant": true
    },
    {
      "inputs": [],
      "name": "erc721",
      "outputs": [
        {
          "internalType": "contract IERC721",
          "name": "",
          "type": "address"
        }
      ],
      "stateMutability": "view",
      "type": "function",
      "constant": true
    },
    {
      "inputs": [],
      "name": "freeRewardRatio",
      "outputs": [
        {
          "internalType": "uint256",
          "name": "",
          "type": "uint256"
        }
      ],
      "stateMutability": "view",
      "type": "function",
      "constant": true
    },
    {
      "inputs": [],
      "name": "grade1RewardRatio",
      "outputs": [
        {
          "internalType": "uint256",
          "name": "",
          "type": "uint256"
        }
      ],
      "stateMutability": "view",
      "type": "function",
      "constant": true
    },
    {
      "inputs": [],
      "name": "grade2RewardRatio",
      "outputs": [
        {
          "internalType": "uint256",
          "name": "",
          "type": "uint256"
        }
      ],
      "stateMutability": "view",
      "type": "function",
      "constant": true
    },
    {
      "inputs": [],
      "name": "grade3RewardRatio",
      "outputs": [
        {
          "internalType": "uint256",
          "name": "",
          "type": "uint256"
        }
      ],
      "stateMutability": "view",
      "type": "function",
      "constant": true
    },
    {
      "inputs": [],
      "name": "hotpot",
      "outputs": [
        {
          "internalType": "contract IHotPot",
          "name": "",
          "type": "address"
        }
      ],
      "stateMutability": "view",
      "type": "function",
      "constant": true
    },
    {
      "inputs": [],
      "name": "invite",
      "outputs": [
        {
          "internalType": "contract IInvite",
          "name": "",
          "type": "address"
        }
      ],
      "stateMutability": "view",
      "type": "function",
      "constant": true
    },
    {
      "inputs": [
        {
          "internalType": "address",
          "name": "",
          "type": "address"
        }
      ],
      "name": "lastRewardTime",
      "outputs": [
        {
          "internalType": "uint256",
          "name": "",
          "type": "uint256"
        }
      ],
      "stateMutability": "view",
      "type": "function",
      "constant": true
    },
    {
      "inputs": [],
      "name": "lastUpdateTime",
      "outputs": [
        {
          "internalType": "uint256",
          "name": "",
          "type": "uint256"
        }
      ],
      "stateMutability": "view",
      "type": "function",
      "constant": true
    },
    {
      "inputs": [],
      "name": "loan",
      "outputs": [
        {
          "internalType": "contract ILoan",
          "name": "",
          "type": "address"
        }
      ],
      "stateMutability": "view",
      "type": "function",
      "constant": true
    },
    {
      "inputs": [],
      "name": "owner",
      "outputs": [
        {
          "internalType": "address",
          "name": "",
          "type": "address"
        }
      ],
      "stateMutability": "view",
      "type": "function",
      "constant": true
    },
    {
      "inputs": [],
      "name": "paused",
      "outputs": [
        {
          "internalType": "bool",
          "name": "",
          "type": "bool"
        }
      ],
      "stateMutability": "view",
      "type": "function",
      "constant": true
    },
    {
      "inputs": [],
      "name": "periodFinish",
      "outputs": [
        {
          "internalType": "uint256",
          "name": "",
          "type": "uint256"
        }
      ],
      "stateMutability": "view",
      "type": "function",
      "constant": true
    },
    {
      "inputs": [],
      "name": "renounceOwnership",
      "outputs": [],
      "stateMutability": "nonpayable",
      "type": "function"
    },
    {
      "inputs": [],
      "name": "rewardContract",
      "outputs": [
        {
          "internalType": "address",
          "name": "",
          "type": "address"
        }
      ],
      "stateMutability": "view",
      "type": "function",
      "constant": true
    },
    {
      "inputs": [],
      "name": "rewardDistribution",
      "outputs": [
        {
          "internalType": "address",
          "name": "",
          "type": "address"
        }
      ],
      "stateMutability": "view",
      "type": "function",
      "constant": true
    },
    {
      "inputs": [],
      "name": "rewardPerTokenStored",
      "outputs": [
        {
          "internalType": "uint256",
          "name": "",
          "type": "uint256"
        }
      ],
      "stateMutability": "view",
      "type": "function",
      "constant": true
    },
    {
      "inputs": [],
      "name": "rewardRate",
      "outputs": [
        {
          "internalType": "uint256",
          "name": "",
          "type": "uint256"
        }
      ],
      "stateMutability": "view",
      "type": "function",
      "constant": true
    },
    {
      "inputs": [],
      "name": "rewardRatio",
      "outputs": [
        {
          "internalType": "uint256",
          "name": "",
          "type": "uint256"
        }
      ],
      "stateMutability": "view",
      "type": "function",
      "constant": true
    },
    {
      "inputs": [
        {
          "internalType": "address",
          "name": "",
          "type": "address"
        }
      ],
      "name": "rewards",
      "outputs": [
        {
          "internalType": "uint256",
          "name": "",
          "type": "uint256"
        }
      ],
      "stateMutability": "view",
      "type": "function",
      "constant": true
    },
    {
      "inputs": [
        {
          "internalType": "address",
          "name": "_rewardDistribution",
          "type": "address"
        }
      ],
      "name": "setRewardDistribution",
      "outputs": [],
      "stateMutability": "nonpayable",
      "type": "function"
    },
    {
      "inputs": [],
      "name": "starttime",
      "outputs": [
        {
          "internalType": "uint256",
          "name": "",
          "type": "uint256"
        }
      ],
      "stateMutability": "view",
      "type": "function",
      "constant": true
    },
    {
      "inputs": [],
      "name": "tokenAddr",
      "outputs": [
        {
          "internalType": "contract IERC20",
          "name": "",
          "type": "address"
        }
      ],
      "stateMutability": "view",
      "type": "function",
      "constant": true
    },
    {
      "inputs": [],
      "name": "totalSupply",
      "outputs": [
        {
          "internalType": "uint256",
          "name": "",
          "type": "uint256"
        }
      ],
      "stateMutability": "view",
      "type": "function",
      "constant": true
    },
    {
      "inputs": [
        {
          "internalType": "address",
          "name": "newOwner",
          "type": "address"
        }
      ],
      "name": "transferOwnership",
      "outputs": [],
      "stateMutability": "nonpayable",
      "type": "function"
    },
    {
      "inputs": [
        {
          "internalType": "address",
          "name": "",
          "type": "address"
        }
      ],
      "name": "userRewardPerTokenPaid",
      "outputs": [
        {
          "internalType": "uint256",
          "name": "",
          "type": "uint256"
        }
      ],
      "stateMutability": "view",
      "type": "function",
      "constant": true
    },
    {
      "inputs": [
        {
          "internalType": "uint256",
          "name": "reward",
          "type": "uint256"
        }
      ],
      "name": "notifyRewardAmount",
      "outputs": [],
      "stateMutability": "nonpayable",
      "type": "function"
    },
    {
      "inputs": [
        {
          "internalType": "address",
          "name": "_addr",
          "type": "address"
        }
      ],
      "name": "setLoan",
      "outputs": [],
      "stateMutability": "nonpayable",
      "type": "function"
    },
    {
      "inputs": [
        {
          "internalType": "address",
          "name": "_addr",
          "type": "address"
        }
      ],
      "name": "setInvite",
      "outputs": [],
      "stateMutability": "nonpayable",
      "type": "function"
    },
    {
      "inputs": [],
      "name": "getPoolBalance",
      "outputs": [
        {
          "internalType": "uint256",
          "name": "",
          "type": "uint256"
        }
      ],
      "stateMutability": "view",
      "type": "function",
      "constant": true
    },
    {
      "inputs": [
        {
          "internalType": "address",
          "name": "_addr",
          "type": "address"
        }
      ],
      "name": "setRewardContract",
      "outputs": [],
      "stateMutability": "nonpayable",
      "type": "function"
    },
    {
      "inputs": [],
      "name": "getBlockTime",
      "outputs": [
        {
          "internalType": "uint256",
          "name": "",
          "type": "uint256"
        }
      ],
      "stateMutability": "view",
      "type": "function",
      "constant": true
    },
    {
      "inputs": [],
      "name": "lastTimeRewardApplicable",
      "outputs": [
        {
          "internalType": "uint256",
          "name": "",
          "type": "uint256"
        }
      ],
      "stateMutability": "view",
      "type": "function",
      "constant": true
    },
    {
      "inputs": [],
      "name": "rewardPerToken",
      "outputs": [
        {
          "internalType": "uint256",
          "name": "",
          "type": "uint256"
        }
      ],
      "stateMutability": "view",
      "type": "function",
      "constant": true
    },
    {
      "inputs": [
        {
          "internalType": "address",
          "name": "account",
          "type": "address"
        }
      ],
      "name": "earned",
      "outputs": [
        {
          "internalType": "uint256",
          "name": "",
          "type": "uint256"
        }
      ],
      "stateMutability": "view",
      "type": "function",
      "constant": true
    },
    {
      "inputs": [
        {
          "internalType": "uint256",
          "name": "amount",
          "type": "uint256"
        }
      ],
      "name": "stake",
      "outputs": [],
      "stateMutability": "nonpayable",
      "type": "function"
    },
    {
      "inputs": [],
      "name": "getRewardFree",
      "outputs": [],
      "stateMutability": "nonpayable",
      "type": "function"
    },
    {
      "inputs": [
        {
          "internalType": "uint256",
          "name": "_tokenId",
          "type": "uint256"
        }
      ],
      "name": "getRewardByNFT",
      "outputs": [],
      "stateMutability": "nonpayable",
      "type": "function"
    },
    {
      "inputs": [
        {
          "internalType": "uint256",
          "name": "amount",
          "type": "uint256"
        }
      ],
      "name": "withdraw",
      "outputs": [],
      "stateMutability": "nonpayable",
      "type": "function"
    },
    {
      "inputs": [
        {
          "internalType": "address",
          "name": "to_",
          "type": "address"
        },
        {
          "internalType": "contract IERC20",
          "name": "token_",
          "type": "address"
        },
        {
          "internalType": "uint256",
          "name": "amount_",
          "type": "uint256"
        }
      ],
      "name": "rescue",
      "outputs": [],
      "stateMutability": "nonpayable",
      "type": "function"
    },
    {
      "inputs": [
        {
          "internalType": "address payable",
          "name": "to_",
          "type": "address"
        },
        {
          "internalType": "uint256",
          "name": "amount_",
          "type": "uint256"
        }
      ],
      "name": "rescue",
      "outputs": [],
      "stateMutability": "nonpayable",
      "type": "function"
    },
    {
      "inputs": [],
      "name": "pause",
      "outputs": [],
      "stateMutability": "nonpayable",
      "type": "function"
    },
    {
      "inputs": [],
      "name": "unpause",
      "outputs": [],
      "stateMutability": "nonpayable",
      "type": "function"
    }
  ],
  "bytecode": "0x608060405262093a80600c55635f734bf0600d556000600e556000600f55600a601355601480556019601555601e601655601e6017553480156200004257600080fd5b50604051620032de380380620032de83398181016040526101208110156200006957600080fd5b508051602082015160408301516060840151608085015160a086015160c087015160e0880151610100909801519697959694959394929391929091906000620000ba6001600160e01b03620001d816565b600380546001600160a01b0319166001600160a01b038316908117909155604051919250906000907f8be0079c531659141344cd1fd0a4f28419497f9722a3daafe3b4186f6b6457e0908290a3506004805460ff60a01b191690556001600555600080546001600160a01b03199081166001600160a01b038c8116919091179092556007805482168b8416908117909155600a8054831688851617905560088054831690911790556006805482168a8416179055600980548216898416179055600b805490911691871691909117905562000194620001d8565b600480546001600160a01b0319166001600160a01b0392909216919091179055600d839055600c829055620001c981620001dc565b505050505050505050620005cd565b3390565b600d54421115620002f257600e54421062000229576200020d600c54826200035d60201b620021191790919060201c565b600f55620002236001600160e01b03620003b016565b620002a4565b60006200024742600e54620003c660201b620020771790919060201c565b9050600062000267600f54836200041060201b620020c01790919060201c565b90506200029e600c546200028a83866200046e60201b6200215b1790919060201c565b6200035d60201b620021191790919060201c565b600f5550505b42601081905550620002c7600c54426200046e60201b6200215b1790919060201c565b600e55604080518281529051600080516020620032be8339815191529181900360200190a16200035a565b6200030e600c54826200035d60201b620021191790919060201c565b600f55600d546010819055600c546200033491906200046e602090811b6200215b17901c565b600e55604080518281529051600080516020620032be8339815191529181900360200190a15b50565b6000620003a783836040518060400160405280601a81526020017f536166654d6174683a206469766973696f6e206279207a65726f000000000000815250620004c960201b60201c565b90505b92915050565b6005601355600f6014908155601555601e601655565b6000620003a783836040518060400160405280601e81526020017f536166654d6174683a207375627472616374696f6e206f766572666c6f7700008152506200057060201b60201c565b6000826200042157506000620003aa565b828202828482816200042f57fe5b0414620003a75760405162461bcd60e51b81526004018080602001828103825260218152602001806200329d6021913960400191505060405180910390fd5b600082820183811015620003a7576040805162461bcd60e51b815260206004820152601b60248201527f536166654d6174683a206164646974696f6e206f766572666c6f770000000000604482015290519081900360640190fd5b60008183620005595760405162461bcd60e51b81526004018080602001828103825283818151815260200191508051906020019080838360005b838110156200051d57818101518382015260200162000503565b50505050905090810190601f1680156200054b5780820380516001836020036101000a031916815260200191505b509250505060405180910390fd5b5060008385816200056657fe5b0495945050505050565b60008184841115620005c55760405162461bcd60e51b81526020600482018181528351602484015283519092839260449091019190850190808383600083156200051d57818101518382015260200162000503565b505050900390565b612cc080620005dd6000396000f3fe608060405234801561001057600080fd5b50600436106103095760003560e01c806370a082311161019c5780638da5cb5b116100ee578063d285b7b411610097578063eec30bfd11610071578063eec30bfd1461065e578063f0bc9fa714610666578063f2fde38b1461066e57610309565b8063d285b7b414610646578063df136d651461064e578063ebe2b12b1461065657610309565b8063bca6ce64116100c8578063bca6ce641461062e578063c8f33c9114610636578063cd3daf9d1461063e57610309565b80638da5cb5b14610601578063a694fc3a14610609578063abd70aa21461062657610309565b80637b0a47ee1161015057806387ceff091161012a57806387ceff09146105cb5780638b876347146105d35780638da58897146105f957610309565b80637b0a47ee146105b357806380faa57d146105bb5780638456cb59146105c357610309565b8063785e9e8611610181578063785e9e86146105775780637a4e4ecf1461057f5780637b087fde146105ab57610309565b806370a0823114610549578063715018a61461056f57610309565b80633f4ba83a116102605780635c975abb116102095780635fbe4d1d116101e35780635fbe4d1d14610531578063646033bc146105395780636ea69d621461054157610309565b80635c975abb146104e75780635cab2c08146105035780635e0ab6801461052957610309565b8063430a06351161023a578063430a06351461049c57806347a005c6146104a457806351508f0a146104c157610309565b80633f4ba83a1461046657806341f7b0921461046e578063424ad03d1461049457610309565b806318160ddd116102c25780632e1a7d4d1161029c5780632e1a7d4d146104065780633b5d441e146104235780633c6b16ab1461044957610309565b806318160ddd146103c05780631be05289146103c857806320ff430b146103d057610309565b80630d68b761116102f35780630d68b7611461036c578063101114cf1461039457806315ea88c4146103b857610309565b80628cc2621461030e5780630700037d14610346575b600080fd5b6103346004803603602081101561032457600080fd5b50356001600160a01b0316610694565b60408051918252519081900360200190f35b6103346004803603602081101561035c57600080fd5b50356001600160a01b031661071a565b6103926004803603602081101561038257600080fd5b50356001600160a01b031661072c565b005b61039c6107d0565b604080516001600160a01b039092168252519081900360200190f35b61039c6107df565b6103346107ee565b6103346107f5565b610392600480360360608110156103e657600080fd5b506001600160a01b038135811691602081013590911690604001356107fb565b6103926004803603602081101561041c57600080fd5b5035610aaf565b6103346004803603602081101561043957600080fd5b50356001600160a01b0316610c5b565b6103926004803603602081101561045f57600080fd5b5035610c6d565b610392610d2f565b6103926004803603602081101561048457600080fd5b50356001600160a01b0316610da3565b610392610eaa565b610334611155565b610392600480360360208110156104ba57600080fd5b503561115b565b610392600480360360208110156104d757600080fd5b50356001600160a01b03166116de565b6104ef6117e5565b604080519115158252519081900360200190f35b6103926004803603602081101561051957600080fd5b50356001600160a01b0316611806565b61033461190d565b61039c611913565b610334611922565b61039c611928565b6103346004803603602081101561055f57600080fd5b50356001600160a01b0316611937565b610392611952565b61039c611a1e565b6103926004803603604081101561059557600080fd5b506001600160a01b038135169060200135611a2d565b610334611bc1565b610334611bc7565b610334611bcd565b610392611be0565b610334611c52565b610334600480360360208110156105e957600080fd5b50356001600160a01b0316611c56565b610334611c68565b61039c611c6e565b6103926004803603602081101561061f57600080fd5b5035611c7d565b610334611e26565b61039c611ebb565b610334611eca565b610334611ed0565b61039c611f24565b610334611f33565b610334611f39565b61039c611f3f565b610334611f4e565b6103926004803603602081101561068457600080fd5b50356001600160a01b0316611f54565b6001600160a01b0381166000908152601960209081526040808320546018909252822054610714919061070890670de0b6b3a7640000906106fc906106e7906106db611ed0565b9063ffffffff61207716565b6106f088611937565b9063ffffffff6120c016565b9063ffffffff61211916565b9063ffffffff61215b16565b92915050565b60196020526000908152604090205481565b6107346121b5565b6003546001600160a01b03908116911614610796576040805162461bcd60e51b815260206004820181905260248201527f4f776e61626c653a2063616c6c6572206973206e6f7420746865206f776e6572604482015290519081900360640190fd5b600480547fffffffffffffffffffffffff0000000000000000000000000000000000000000166001600160a01b0392909216919091179055565b6004546001600160a01b031681565b6007546001600160a01b031681565b6001545b90565b600c5481565b6108036121b5565b6003546001600160a01b03908116911614610865576040805162461bcd60e51b815260206004820181905260248201527f4f776e61626c653a2063616c6c6572206973206e6f7420746865206f776e6572604482015290519081900360640190fd5b6001600160a01b0383166108c0576040805162461bcd60e51b815260206004820152600a60248201527f6d757374206e6f74203000000000000000000000000000000000000000000000604482015290519081900360640190fd5b60008111610915576040805162461bcd60e51b815260206004820152600960248201527f6d75737420677420300000000000000000000000000000000000000000000000604482015290519081900360640190fd5b6006546001600160a01b0383811691161415610978576040805162461bcd60e51b815260206004820152600e60248201527f6d757374206e6f74206572633230000000000000000000000000000000000000604482015290519081900360640190fd5b6000546001600160a01b03838116911614156109db576040805162461bcd60e51b815260206004820152601560248201527f6d757374206e6f74207468697320706c546f6b656e0000000000000000000000604482015290519081900360640190fd5b816001600160a01b031663a9059cbb84836040518363ffffffff1660e01b815260040180836001600160a01b03166001600160a01b0316815260200182815260200192505050602060405180830381600087803b158015610a3b57600080fd5b505af1158015610a4f573d6000803e3d6000fd5b505050506040513d6020811015610a6557600080fd5b50506040805182815290516001600160a01b0380851692908616917faabf44ab9d5bef08d1b60f287a337f0d11a248e49741ad189b429e47e98ba9109181900360200190a3505050565b33610ab8611ed0565b601155610ac3611bcd565b6010556001600160a01b03811615610b0a57610ade81610694565b6001600160a01b0382166000908152601960209081526040808320939093556011546018909152919020555b60026005541415610b62576040805162461bcd60e51b815260206004820152601f60248201527f5265656e7472616e637947756172643a207265656e7472616e742063616c6c00604482015290519081900360640190fd5b6002600555600d54421015610bbe576040805162461bcd60e51b815260206004820152600960248201527f6e6f742073746172740000000000000000000000000000000000000000000000604482015290519081900360640190fd5b60008211610c13576040805162461bcd60e51b815260206004820152601160248201527f43616e6e6f742077697468647261772030000000000000000000000000000000604482015290519081900360640190fd5b610c1c826121b9565b60408051838152905133917f7084f5476618d8e60b11ef0d7d3f06914655adb8793e28ff7f018d4c76d505d5919081900360200190a250506001600555565b60126020526000908152604090205481565b6004546001600160a01b0316610c816121b5565b6001600160a01b031614610cc65760405162461bcd60e51b8152600401808060200182810382526021815260200180612c1c6021913960400191505060405180910390fd5b6000610cd0611ed0565b601155610cdb611bcd565b6010556001600160a01b03811615610d2257610cf681610694565b6001600160a01b0382166000908152601960209081526040808320939093556011546018909152919020555b610d2b8261221d565b5050565b610d376121b5565b6003546001600160a01b03908116911614610d99576040805162461bcd60e51b815260206004820181905260248201527f4f776e61626c653a2063616c6c6572206973206e6f7420746865206f776e6572604482015290519081900360640190fd5b610da1612362565b565b610dab6121b5565b6003546001600160a01b03908116911614610e0d576040805162461bcd60e51b815260206004820181905260248201527f4f776e61626c653a2063616c6c6572206973206e6f7420746865206f776e6572604482015290519081900360640190fd5b610e1f816001600160a01b031661243f565b610e70576040805162461bcd60e51b815260206004820152601060248201527f4d75737420626520636f6e747261637400000000000000000000000000000000604482015290519081900360640190fd5b600980547fffffffffffffffffffffffff0000000000000000000000000000000000000000166001600160a01b0392909216919091179055565b33610eb3611ed0565b601155610ebe611bcd565b6010556001600160a01b03811615610f0557610ed981610694565b6001600160a01b0382166000908152601960209081526040808320939093556011546018909152919020555b600d54421015610f5c576040805162461bcd60e51b815260206004820152600960248201527f6e6f742073746172740000000000000000000000000000000000000000000000604482015290519081900360640190fd5b60026005541415610fb4576040805162461bcd60e51b815260206004820152601f60248201527f5265656e7472616e637947756172643a207265656e7472616e742063616c6c00604482015290519081900360640190fd5b600260055560045474010000000000000000000000000000000000000000900460ff1615611029576040805162461bcd60e51b815260206004820152601060248201527f5061757361626c653a2070617573656400000000000000000000000000000000604482015290519081900360640190fd5b33600090815260126020526040902054426201518090910110611093576040805162461bcd60e51b815260206004820152601f60248201527f596f7520676574207265776172642077697468696e20323420686f7572732100604482015290519081900360640190fd5b336000818152601260209081526040808320429055600a5481517fb96a1f8b0000000000000000000000000000000000000000000000000000000081526004810195909552905192936001600160a01b039091169263b96a1f8b92602480840193919291829003018186803b15801561110b57600080fd5b505afa15801561111f573d6000803e3d6000fd5b505050506040513d602081101561113557600080fd5b5051601354909150600a02810161114b81612445565b5050600160055550565b60135481565b33611164611ed0565b60115561116f611bcd565b6010556001600160a01b038116156111b65761118a81610694565b6001600160a01b0382166000908152601960209081526040808320939093556011546018909152919020555b600d5442101561120d576040805162461bcd60e51b815260206004820152600960248201527f6e6f742073746172740000000000000000000000000000000000000000000000604482015290519081900360640190fd5b60026005541415611265576040805162461bcd60e51b815260206004820152601f60248201527f5265656e7472616e637947756172643a207265656e7472616e742063616c6c00604482015290519081900360640190fd5b6002600555600854604080517f6352211e00000000000000000000000000000000000000000000000000000000815260048101859052905184926000926001600160a01b0390911691636352211e91602480820192602092909190829003018186803b1580156112d457600080fd5b505afa1580156112e8573d6000803e3d6000fd5b505050506040513d60208110156112fe57600080fd5b50516001600160a01b0316141561135c576040805162461bcd60e51b815260206004820152601460248201527f54686973206973206e6f74206120746f6b656e21000000000000000000000000604482015290519081900360640190fd5b60045474010000000000000000000000000000000000000000900460ff16156113cc576040805162461bcd60e51b815260206004820152601060248201527f5061757361626c653a2070617573656400000000000000000000000000000000604482015290519081900360640190fd5b600754604080517f5840e6590000000000000000000000000000000000000000000000000000000081526004810186905290516000926001600160a01b031691635840e659916024808301926020929190829003018186803b15801561143157600080fd5b505afa158015611445573d6000803e3d6000fd5b505050506040513d602081101561145b57600080fd5b5051905042620151808201106114a25760405162461bcd60e51b8152600401808060200182810382526024815260200180612c3d6024913960400191505060405180910390fd5b600954604080517f3130c3ae0000000000000000000000000000000000000000000000000000000081523360048201526024810187905242604482015290516001600160a01b0390921691633130c3ae91606480820192602092909190829003018186803b15801561151357600080fd5b505afa158015611527573d6000803e3d6000fd5b505050506040513d602081101561153d57600080fd5b505161157a5760405162461bcd60e51b8152600401808060200182810382526028815260200180612bad6028913960400191505060405180910390fd5b600754604080517fe1e0485e0000000000000000000000000000000000000000000000000000000081526004810187905290516000926001600160a01b03169163e1e0485e916024808301926020929190829003018186803b1580156115df57600080fd5b505afa1580156115f3573d6000803e3d6000fd5b505050506040513d602081101561160957600080fd5b505160145460ff909116915060018214156116275750601454611647565b81600214156116395750601554611647565b816003141561164757506016545b600754604080517f22142e6c0000000000000000000000000000000000000000000000000000000081526004810189905290516001600160a01b03909216916322142e6c9160248082019260009290919082900301818387803b1580156116ad57600080fd5b505af11580156116c1573d6000803e3d6000fd5b505050506116d181600a02612445565b5050600160055550505050565b6116e66121b5565b6003546001600160a01b03908116911614611748576040805162461bcd60e51b815260206004820181905260248201527f4f776e61626c653a2063616c6c6572206973206e6f7420746865206f776e6572604482015290519081900360640190fd5b61175a816001600160a01b031661243f565b6117ab576040805162461bcd60e51b815260206004820152601b60248201527f4974206973206e6f7420636f6e74726163742061646472657373210000000000604482015290519081900360640190fd5b600b80547fffffffffffffffffffffffff0000000000000000000000000000000000000000166001600160a01b0392909216919091179055565b60045474010000000000000000000000000000000000000000900460ff1690565b61180e6121b5565b6003546001600160a01b03908116911614611870576040805162461bcd60e51b815260206004820181905260248201527f4f776e61626c653a2063616c6c6572206973206e6f7420746865206f776e6572604482015290519081900360640190fd5b611882816001600160a01b031661243f565b6118d3576040805162461bcd60e51b815260206004820152601060248201527f4d75737420626520636f6e747261637400000000000000000000000000000000604482015290519081900360640190fd5b600a80547fffffffffffffffffffffffff0000000000000000000000000000000000000000166001600160a01b0392909216919091179055565b60165481565b6000546001600160a01b031681565b60175481565b600b546001600160a01b031681565b6001600160a01b031660009081526002602052604090205490565b61195a6121b5565b6003546001600160a01b039081169116146119bc576040805162461bcd60e51b815260206004820181905260248201527f4f776e61626c653a2063616c6c6572206973206e6f7420746865206f776e6572604482015290519081900360640190fd5b6003546040516000916001600160a01b0316907f8be0079c531659141344cd1fd0a4f28419497f9722a3daafe3b4186f6b6457e0908390a3600380547fffffffffffffffffffffffff0000000000000000000000000000000000000000169055565b6006546001600160a01b031681565b611a356121b5565b6003546001600160a01b03908116911614611a97576040805162461bcd60e51b815260206004820181905260248201527f4f776e61626c653a2063616c6c6572206973206e6f7420746865206f776e6572604482015290519081900360640190fd5b6001600160a01b038216611af2576040805162461bcd60e51b815260206004820152600a60248201527f6d757374206e6f74203000000000000000000000000000000000000000000000604482015290519081900360640190fd5b60008111611b47576040805162461bcd60e51b815260206004820152600960248201527f6d75737420677420300000000000000000000000000000000000000000000000604482015290519081900360640190fd5b6040516001600160a01b0383169082156108fc029083906000818181858888f19350505050158015611b7d573d6000803e3d6000fd5b506040805182815290516001600160a01b038416917f542fa6bfee3b4746210fbdd1d83f9e49b65adde3639f8d8f165dd18347938af2919081900360200190a25050565b60155481565b600f5481565b6000611bdb42600e546125e4565b905090565b611be86121b5565b6003546001600160a01b03908116911614611c4a576040805162461bcd60e51b815260206004820181905260248201527f4f776e61626c653a2063616c6c6572206973206e6f7420746865206f776e6572604482015290519081900360640190fd5b610da16125fa565b4290565b60186020526000908152604090205481565b600d5481565b6003546001600160a01b031690565b33611c86611ed0565b601155611c91611bcd565b6010556001600160a01b03811615611cd857611cac81610694565b6001600160a01b0382166000908152601960209081526040808320939093556011546018909152919020555b600d54421015611d2f576040805162461bcd60e51b815260206004820152600960248201527f6e6f742073746172740000000000000000000000000000000000000000000000604482015290519081900360640190fd5b60026005541415611d87576040805162461bcd60e51b815260206004820152601f60248201527f5265656e7472616e637947756172643a207265656e7472616e742063616c6c00604482015290519081900360640190fd5b600260055581611dde576040805162461bcd60e51b815260206004820152600e60248201527f43616e6e6f74207374616b652030000000000000000000000000000000000000604482015290519081900360640190fd5b611de7826126d2565b60408051838152905133917f9e71bc8eea02a63969f509818f2dafb9254532904319f9dbda79b67bd34a5f3d919081900360200190a250506001600555565b600654604080517f70a0823100000000000000000000000000000000000000000000000000000000815230600482015290516000926001600160a01b0316916370a08231916024808301926020929190829003018186803b158015611e8a57600080fd5b505afa158015611e9e573d6000803e3d6000fd5b505050506040513d6020811015611eb457600080fd5b5051905090565b6008546001600160a01b031681565b60105481565b6000611eda6107ee565b611ee757506011546107f2565b611bdb611f15611ef56107ee565b6106fc670de0b6b3a76400006106f0600f546106f06010546106db611bcd565b6011549063ffffffff61215b16565b6009546001600160a01b031681565b60115481565b600e5481565b600a546001600160a01b031681565b60145481565b611f5c6121b5565b6003546001600160a01b03908116911614611fbe576040805162461bcd60e51b815260206004820181905260248201527f4f776e61626c653a2063616c6c6572206973206e6f7420746865206f776e6572604482015290519081900360640190fd5b6001600160a01b0381166120035760405162461bcd60e51b8152600401808060200182810382526026815260200180612bd56026913960400191505060405180910390fd5b6003546040516001600160a01b038084169216907f8be0079c531659141344cd1fd0a4f28419497f9722a3daafe3b4186f6b6457e090600090a3600380547fffffffffffffffffffffffff0000000000000000000000000000000000000000166001600160a01b0392909216919091179055565b60006120b983836040518060400160405280601e81526020017f536166654d6174683a207375627472616374696f6e206f766572666c6f770000815250612734565b9392505050565b6000826120cf57506000610714565b828202828482816120dc57fe5b04146120b95760405162461bcd60e51b8152600401808060200182810382526021815260200180612bfb6021913960400191505060405180910390fd5b60006120b983836040518060400160405280601a81526020017f536166654d6174683a206469766973696f6e206279207a65726f0000000000008152506127cb565b6000828201838110156120b9576040805162461bcd60e51b815260206004820152601b60248201527f536166654d6174683a206164646974696f6e206f766572666c6f770000000000604482015290519081900360640190fd5b3390565b6001546121cc908263ffffffff61207716565b600155336000908152600260205260409020546121ef908263ffffffff61207716565b33600081815260026020526040812092909255905461221a916001600160a01b039091169083612830565b50565b600d544211156122f757600e54421061225457600c5461224490829063ffffffff61211916565b600f5561224f6128b5565b6122a3565b600e5460009061226a904263ffffffff61207716565b90506000612283600f54836120c090919063ffffffff16565b600c5490915061229d906106fc858463ffffffff61215b16565b600f5550505b426010819055600c546122bc919063ffffffff61215b16565b600e556040805182815290517fba54ce5940e90276397dfc944292ed6a6a43aa64f9deb96d5f471bef49b78e149181900360200190a161221a565b600c5461230b90829063ffffffff61211916565b600f55600d546010819055600c54612329919063ffffffff61215b16565b600e556040805182815290517fba54ce5940e90276397dfc944292ed6a6a43aa64f9deb96d5f471bef49b78e149181900360200190a150565b60045474010000000000000000000000000000000000000000900460ff166123d1576040805162461bcd60e51b815260206004820152601460248201527f5061757361626c653a206e6f7420706175736564000000000000000000000000604482015290519081900360640190fd5b600480547fffffffffffffffffffffff00ffffffffffffffffffffffffffffffffffffffff1690557f5db9ee0a495bf2e6ff9c91a7834c1ba4fdd244a5e8aa4e537bd38aeae4b073aa6124226121b5565b604080516001600160a01b039092168252519081900360200190a1565b3b151590565b600d5442101561249c576040805162461bcd60e51b815260206004820152600960248201527f6e6f742073746172740000000000000000000000000000000000000000000000604482015290519081900360640190fd5b6103e881106124f2576040805162461bcd60e51b815260206004820152601160248201527f63616c20726577617264206572726f7221000000000000000000000000000000604482015290519081900360640190fd5b60006124fd33610694565b90508015610d2b57600061251d6103e86106fc848663ffffffff6120c016565b905061252f828263ffffffff61207716565b33600090815260196020526040902055600b54601754612584916001600160a01b03169061256b906064906106fc90869063ffffffff6120c016565b6006546001600160a01b0316919063ffffffff61283016565b6125a53361256b60646106fc601754606403866120c090919063ffffffff16565b6040805182815260208101859052815133927fd6f2c8500df5b44f11e9e48b91ff9f1b9d81bc496d55570c2b1b75bf65243f51928290030190a2505050565b60008183106125f357816120b9565b5090919050565b60045474010000000000000000000000000000000000000000900460ff161561266a576040805162461bcd60e51b815260206004820152601060248201527f5061757361626c653a2070617573656400000000000000000000000000000000604482015290519081900360640190fd5b600480547fffffffffffffffffffffff00ffffffffffffffffffffffffffffffffffffffff16740100000000000000000000000000000000000000001790557f62e78cea01bee320cd4e420270b5ea74000d11b0c9f74754ebdbfc544b05a2586124226121b5565b6001546126e5908263ffffffff61215b16565b60015533600090815260026020526040902054612708908263ffffffff61215b16565b33600081815260026020526040812092909255905461221a916001600160a01b039091169030846128cb565b600081848411156127c35760405162461bcd60e51b81526004018080602001828103825283818151815260200191508051906020019080838360005b83811015612788578181015183820152602001612770565b50505050905090810190601f1680156127b55780820380516001836020036101000a031916815260200191505b509250505060405180910390fd5b505050900390565b6000818361281a5760405162461bcd60e51b8152602060048201818152835160248401528351909283926044909101919085019080838360008315612788578181015183820152602001612770565b50600083858161282657fe5b0495945050505050565b604080516001600160a01b038416602482015260448082018490528251808303909101815260649091019091526020810180517bffffffffffffffffffffffffffffffffffffffffffffffffffffffff167fa9059cbb000000000000000000000000000000000000000000000000000000001790526128b0908490612959565b505050565b6005601355600f6014908155601555601e601655565b604080516001600160a01b0380861660248301528416604482015260648082018490528251808303909101815260849091019091526020810180517bffffffffffffffffffffffffffffffffffffffffffffffffffffffff167f23b872dd00000000000000000000000000000000000000000000000000000000179052612953908590612959565b50505050565b60606129ae826040518060400160405280602081526020017f5361666545524332303a206c6f772d6c6576656c2063616c6c206661696c6564815250856001600160a01b0316612a0a9092919063ffffffff16565b8051909150156128b0578080602001905160208110156129cd57600080fd5b50516128b05760405162461bcd60e51b815260040180806020018281038252602a815260200180612c61602a913960400191505060405180910390fd5b6060612a198484600085612a21565b949350505050565b6060612a2c8561243f565b612a7d576040805162461bcd60e51b815260206004820152601d60248201527f416464726573733a2063616c6c20746f206e6f6e2d636f6e7472616374000000604482015290519081900360640190fd5b60006060866001600160a01b031685876040518082805190602001908083835b60208310612ada57805182527fffffffffffffffffffffffffffffffffffffffffffffffffffffffffffffffe09092019160209182019101612a9d565b6001836020036101000a03801982511681845116808217855250505050505090500191505060006040518083038185875af1925050503d8060008114612b3c576040519150601f19603f3d011682016040523d82523d6000602084013e612b41565b606091505b50915091508115612b55579150612a199050565b805115612b655780518082602001fd5b60405162461bcd60e51b815260206004820181815286516024840152865187939192839260440191908501908083836000831561278857818101518382015260200161277056fe596f7520646f206e6f74206861766520726967687420746f20757365207468697320746f6b656e214f776e61626c653a206e6577206f776e657220697320746865207a65726f2061646472657373536166654d6174683a206d756c7469706c69636174696f6e206f766572666c6f7743616c6c6572206973206e6f742072657761726420646973747269627574696f6e54686973207469636b657420697320757365642077697468696e20323420686f757273215361666545524332303a204552433230206f7065726174696f6e20646964206e6f742073756363656564a26469706673582212208940f53c96ab062915bba811424f430ac5604e58c554141a5e99ca3451b7028664736f6c63430006020033536166654d6174683a206d756c7469706c69636174696f6e206f766572666c6f77ba54ce5940e90276397dfc944292ed6a6a43aa64f9deb96d5f471bef49b78e14",
  "source": "pragma solidity ^0.6.0;\n\nimport \"../common/hotpotinterface.sol\";\nimport \"../common/ILoan.sol\";\nimport \"@openzeppelin/contracts/math/Math.sol\";\nimport \"@openzeppelin/contracts/math/SafeMath.sol\";\nimport \"@openzeppelin/contracts/token/ERC721/IERC721.sol\";\nimport \"@openzeppelin/contracts/token/ERC20/IERC20.sol\";\nimport \"@openzeppelin/contracts/token/ERC20/SafeERC20.sol\";\nimport \"@openzeppelin/contracts/access/Ownable.sol\";\nimport \"@openzeppelin/contracts/utils/Address.sol\";\nimport \"@openzeppelin/contracts/utils/ReentrancyGuard.sol\";\nimport \"@openzeppelin/contracts/utils/Pausable.sol\";\nimport \"../common/IInvite.sol\";\n\nabstract contract IRewardDistributionRecipient is Ownable {\n    address public rewardDistribution;\n\n    function notifyRewardAmount(uint256 reward) external virtual;\n\n    modifier onlyRewardDistribution() {\n        require(\n            _msgSender() == rewardDistribution,\n            \"Caller is not reward distribution\"\n        );\n        _;\n    }\n\n    function setRewardDistribution(address _rewardDistribution)\n        external\n        onlyOwner\n    {\n        rewardDistribution = _rewardDistribution;\n    }\n}\n\ncontract LPTokenWrapper {\n    using SafeMath for uint256;\n    using SafeERC20 for IERC20;\n\n    IERC20 public tokenAddr;\n    uint256 private _totalSupply;\n    mapping(address => uint256) private _balances;\n\n    function totalSupply() public view returns (uint256) {\n        return _totalSupply;\n    }\n\n    function balanceOf(address account) public view returns (uint256) {\n        return _balances[account];\n    }\n\n    function stake(uint256 amount) public virtual {\n        _totalSupply = _totalSupply.add(amount);\n        _balances[msg.sender] = _balances[msg.sender].add(amount);\n        tokenAddr.safeTransferFrom(msg.sender, address(this), amount);\n    }\n\n    function withdraw(uint256 amount) public virtual {\n        _totalSupply = _totalSupply.sub(amount);\n        _balances[msg.sender] = _balances[msg.sender].sub(amount);\n        tokenAddr.safeTransfer(msg.sender, amount);\n    }\n}\n\ncontract StakePool is\n    LPTokenWrapper,\n    IRewardDistributionRecipient,\n    Pausable,\n    ReentrancyGuard\n{\n    using Address for address;\n    using SafeERC20 for IERC20;\n\n    IERC20 public erc20;\n    IHotPot public hotpot;\n    IERC721 public erc721;\n    ILoan public loan;\n    IInvite public invite;\n\n    address public rewardContract;\n    uint256 public DURATION = 604800;\n\n    uint256 public starttime = 1601391600;\n    uint256 public periodFinish = 0;\n    uint256 public rewardRate = 0;\n    uint256 public lastUpdateTime;\n    uint256 public rewardPerTokenStored;\n\n    mapping(address => uint256) public lastRewardTime;\n\n    uint256 public freeRewardRatio = 10;\n    uint256 public grade1RewardRatio = 20;\n    uint256 public grade2RewardRatio = 25;\n    uint256 public grade3RewardRatio = 30;\n\n    uint256 public rewardRatio = 30;\n\n    mapping(address => uint256) public userRewardPerTokenPaid;\n    mapping(address => uint256) public rewards;\n\n    event RewardChanged(uint256 reward);\n    event Staked(address indexed user, uint256 amount);\n    event Withdrawn(address indexed user, uint256 amount);\n    event RewardPaid(address indexed user, uint256 reward, uint256 percent);\n    event Rescue(address indexed dst, uint256 sad);\n    event RescueToken(address indexed dst, address indexed token, uint256 sad);\n\n    function notifyRewardAmount(uint256 reward)\n        external\n        override\n        onlyRewardDistribution\n        updateReward(address(0))\n    {\n        _nofityReward(reward);\n    }\n\n    function _nofityReward(uint256 reward) internal {\n        if (block.timestamp > starttime) {\n            if (block.timestamp >= periodFinish) {\n                rewardRate = reward.div(DURATION);\n                _decreaseRewardRatio();\n            } else {\n                uint256 remaining = periodFinish.sub(block.timestamp);\n                uint256 leftover = remaining.mul(rewardRate);\n                rewardRate = reward.add(leftover).div(DURATION);\n            }\n            lastUpdateTime = block.timestamp;\n            periodFinish = block.timestamp.add(DURATION);\n            emit RewardChanged(reward);\n        } else {\n            rewardRate = reward.div(DURATION);\n            lastUpdateTime = starttime;\n            periodFinish = starttime.add(DURATION);\n            emit RewardChanged(reward);\n        }\n    }\n\n    constructor(\n        address _stakeERC20,\n        address _hotpotNFT,\n        address _hotpotERC20,\n        address _loan,\n        address _reward,\n        address _invite,\n        uint256 _starttime,\n        uint256 duration,\n        uint256 _rewardAmount\n    ) public {\n        tokenAddr = IERC20(_stakeERC20);\n        hotpot = IHotPot(_hotpotNFT);\n        invite = IInvite(_invite);\n        erc721 = IERC721(_hotpotNFT);\n        erc20 = IERC20(_hotpotERC20);\n        loan = ILoan(_loan);\n        rewardContract = _reward;\n        rewardDistribution = _msgSender();\n        starttime = _starttime;\n        DURATION = duration;\n        _nofityReward(_rewardAmount);\n    }\n\n    function setLoan(address _addr) external onlyOwner {\n        require(_addr.isContract(), \"Must be contract\");\n        loan = ILoan(_addr);\n    }\n\n    function setInvite(address _addr) external onlyOwner {\n        require(_addr.isContract(), \"Must be contract\");\n        invite = IInvite(_addr);\n    }\n\n    function getPoolBalance() external view returns (uint256) {\n        return erc20.balanceOf(address(this));\n    }\n\n    function setRewardContract(address _addr) external onlyOwner {\n        require(_addr.isContract(), \"It is not contract address!\");\n        rewardContract = _addr;\n    }\n\n    function getBlockTime() external view returns (uint256) {\n        return block.timestamp;\n    }\n\n    modifier checkStart() {\n        require(block.timestamp >= starttime, \"not start\");\n        _;\n    }\n\n    modifier validToken(uint256 _tokenId) {\n        require(erc721.ownerOf(_tokenId) != address(0), \"This is not a token!\");\n        _;\n    }\n\n    modifier updateReward(address account) {\n        rewardPerTokenStored = rewardPerToken();\n        lastUpdateTime = lastTimeRewardApplicable();\n        if (account != address(0)) {\n            rewards[account] = earned(account);\n            userRewardPerTokenPaid[account] = rewardPerTokenStored;\n        }\n        _;\n    }\n\n    function lastTimeRewardApplicable() public view returns (uint256) {\n        return Math.min(block.timestamp, periodFinish);\n    }\n\n    function rewardPerToken() public view returns (uint256) {\n        if (totalSupply() == 0) {\n            return rewardPerTokenStored;\n        }\n        return\n            rewardPerTokenStored.add(\n                lastTimeRewardApplicable()\n                    .sub(lastUpdateTime)\n                    .mul(rewardRate)\n                    .mul(1e18)\n                    .div(totalSupply())\n            );\n    }\n\n    function earned(address account) public view returns (uint256) {\n        return\n            balanceOf(account)\n                .mul(rewardPerToken().sub(userRewardPerTokenPaid[account]))\n                .div(1e18)\n                .add(rewards[account]);\n    }\n\n    function stake(uint256 amount)\n        public\n        override\n        updateReward(msg.sender)\n        checkStart\n        nonReentrant\n    {\n        require(amount > 0, \"Cannot stake 0\");\n        super.stake(amount);\n        emit Staked(msg.sender, amount);\n    }\n\n    function _getReward(uint256 _percent) internal checkStart {\n        require(_percent < 1000, \"cal reward error!\");\n        uint256 trueReward = earned(msg.sender);\n        if (trueReward > 0) {\n            uint256 reward = trueReward.mul(_percent).div(1000);\n\n            rewards[msg.sender] = trueReward.sub(reward);\n\n            erc20.safeTransfer(\n                rewardContract,\n                reward.mul(rewardRatio).div(100)\n            );\n            erc20.safeTransfer(\n                msg.sender,\n                reward.mul(100 - rewardRatio).div(100)\n            );\n\n            emit RewardPaid(msg.sender, reward, _percent);\n        }\n    }\n\n    function getRewardFree()\n        public\n        updateReward(msg.sender)\n        checkStart\n        nonReentrant\n        whenNotPaused\n    {\n        require(\n            lastRewardTime[msg.sender] + 24 * 60 * 60 < now,\n            \"You get reward within 24 hours!\"\n        );\n        lastRewardTime[msg.sender] = now;\n        uint256 ratioUpdate = invite.calRatioUpdate(msg.sender);\n        uint256 ratio = freeRewardRatio * 10 + ratioUpdate;\n        _getReward(ratio);\n    }\n\n    function getRewardByNFT(uint256 _tokenId)\n        public\n        updateReward(msg.sender)\n        checkStart\n        nonReentrant\n        validToken(_tokenId)\n        whenNotPaused\n    {\n        //1.check the NFT is used?\n        uint256 time = hotpot.getUseTime(_tokenId);\n        require(\n            time + 24 * 60 * 60 < now,\n            \"This ticket is used within 24 hours!\"\n        );\n\n        require(\n            loan.checkPrivilege(msg.sender, _tokenId, now),\n            \"You do not have right to use this token!\"\n        );\n\n        uint256 grade = hotpot.getGrade(_tokenId);\n        uint256 percent = grade1RewardRatio;\n        if (grade == 1) {\n            percent = grade1RewardRatio;\n        } else if (grade == 2) {\n            percent = grade2RewardRatio;\n        } else if (grade == 3) {\n            percent = grade3RewardRatio;\n        }\n        hotpot.setUse(_tokenId);\n        _getReward(percent * 10);\n    }\n\n    function withdraw(uint256 amount)\n        public\n        override\n        updateReward(msg.sender)\n        nonReentrant\n        checkStart\n    {\n        require(amount > 0, \"Cannot withdraw 0\");\n        super.withdraw(amount);\n        emit Withdrawn(msg.sender, amount);\n    }\n\n    function _decreaseRewardRatio() internal {\n        freeRewardRatio = 5;\n        grade1RewardRatio = 15;\n        grade2RewardRatio = 20;\n        grade3RewardRatio = 30;\n    }\n\n    function rescue(address payable to_, uint256 amount_) external onlyOwner {\n        require(to_ != address(0), \"must not 0\");\n        require(amount_ > 0, \"must gt 0\");\n\n        to_.transfer(amount_);\n        emit Rescue(to_, amount_);\n    }\n\n    function rescue(\n        address to_,\n        IERC20 token_,\n        uint256 amount_\n    ) external onlyOwner {\n        require(to_ != address(0), \"must not 0\");\n        require(amount_ > 0, \"must gt 0\");\n        require(token_ != erc20, \"must not erc20\");\n        require(token_ != tokenAddr, \"must not this plToken\");\n\n        token_.transfer(to_, amount_);\n        emit RescueToken(to_, address(token_), amount_);\n    }\n\n    function pause() external onlyOwner {\n        _pause();\n    }\n\n    function unpause() external onlyOwner {\n        _unpause();\n    }\n}\n",
  "sourcePath": "/Users/junhu/git/hotpotcontract/truffle/contracts/stake/StakePool.sol",
  "compiler": {
    "name": "solc",
    "version": "0.6.2+commit.bacdbe57.Emscripten.clang"
  },
  "schemaVersion": "3.3.0",
  "updatedAt": "2020-11-02T06:09:33.892Z",
  "networkType": "ethereum",
  "devdoc": {
    "methods": {
      "owner()": {
        "details": "Returns the address of the current owner."
      },
      "paused()": {
        "details": "Returns true if the contract is paused, and false otherwise."
      },
      "renounceOwnership()": {
        "details": "Leaves the contract without owner. It will not be possible to call `onlyOwner` functions anymore. Can only be called by the current owner.     * NOTE: Renouncing ownership will leave the contract without an owner, thereby removing any functionality that is only available to the owner."
      },
      "transferOwnership(address)": {
        "details": "Transfers ownership of the contract to a new account (`newOwner`). Can only be called by the current owner."
      }
    }
  },
  "userdoc": {
    "methods": {}
  }
}