{
  "contractName": "StakePool",
  "abi": [
    {
      "inputs": [
        {
          "internalType": "address",
          "name": "_stakeERC20",
          "type": "address"
        },
        {
          "internalType": "address",
          "name": "_hotpotNFT",
          "type": "address"
        },
        {
          "internalType": "address",
          "name": "_hotpotERC20",
          "type": "address"
        },
        {
          "internalType": "address",
          "name": "_loan",
          "type": "address"
        },
        {
          "internalType": "uint256",
          "name": "_starttime",
          "type": "uint256"
        },
        {
          "internalType": "uint256",
          "name": "duration",
          "type": "uint256"
        },
        {
          "internalType": "uint256",
          "name": "_rewardAmount",
          "type": "uint256"
        }
      ],
      "stateMutability": "nonpayable",
      "type": "constructor"
    },
    {
      "anonymous": false,
      "inputs": [
        {
          "indexed": true,
          "internalType": "address",
          "name": "previousOwner",
          "type": "address"
        },
        {
          "indexed": true,
          "internalType": "address",
          "name": "newOwner",
          "type": "address"
        }
      ],
      "name": "OwnershipTransferred",
      "type": "event"
    },
    {
      "anonymous": false,
      "inputs": [
        {
          "indexed": true,
          "internalType": "address",
          "name": "dst",
          "type": "address"
        },
        {
          "indexed": false,
          "internalType": "uint256",
          "name": "sad",
          "type": "uint256"
        }
      ],
      "name": "Rescue",
      "type": "event"
    },
    {
      "anonymous": false,
      "inputs": [
        {
          "indexed": true,
          "internalType": "address",
          "name": "dst",
          "type": "address"
        },
        {
          "indexed": true,
          "internalType": "address",
          "name": "token",
          "type": "address"
        },
        {
          "indexed": false,
          "internalType": "uint256",
          "name": "sad",
          "type": "uint256"
        }
      ],
      "name": "RescueToken",
      "type": "event"
    },
    {
      "anonymous": false,
      "inputs": [
        {
          "indexed": false,
          "internalType": "uint256",
          "name": "reward",
          "type": "uint256"
        }
      ],
      "name": "RewardAdded",
      "type": "event"
    },
    {
      "anonymous": false,
      "inputs": [
        {
          "indexed": true,
          "internalType": "address",
          "name": "user",
          "type": "address"
        },
        {
          "indexed": false,
          "internalType": "uint256",
          "name": "reward",
          "type": "uint256"
        }
      ],
      "name": "RewardPaid",
      "type": "event"
    },
    {
      "anonymous": false,
      "inputs": [
        {
          "indexed": true,
          "internalType": "address",
          "name": "user",
          "type": "address"
        },
        {
          "indexed": false,
          "internalType": "uint256",
          "name": "amount",
          "type": "uint256"
        }
      ],
      "name": "Staked",
      "type": "event"
    },
    {
      "anonymous": false,
      "inputs": [
        {
          "indexed": true,
          "internalType": "address",
          "name": "user",
          "type": "address"
        },
        {
          "indexed": false,
          "internalType": "uint256",
          "name": "amount",
          "type": "uint256"
        }
      ],
      "name": "Withdrawn",
      "type": "event"
    },
    {
      "inputs": [],
      "name": "DURATION",
      "outputs": [
        {
          "internalType": "uint256",
          "name": "",
          "type": "uint256"
        }
      ],
      "stateMutability": "view",
      "type": "function",
      "constant": true
    },
    {
      "inputs": [
        {
          "internalType": "address",
          "name": "account",
          "type": "address"
        }
      ],
      "name": "balanceOf",
      "outputs": [
        {
          "internalType": "uint256",
          "name": "",
          "type": "uint256"
        }
      ],
      "stateMutability": "view",
      "type": "function",
      "constant": true
    },
    {
      "inputs": [],
      "name": "erc20",
      "outputs": [
        {
          "internalType": "contract IERC20",
          "name": "",
          "type": "address"
        }
      ],
      "stateMutability": "view",
      "type": "function",
      "constant": true
    },
    {
      "inputs": [],
      "name": "erc721",
      "outputs": [
        {
          "internalType": "contract IERC721",
          "name": "",
          "type": "address"
        }
      ],
      "stateMutability": "view",
      "type": "function",
      "constant": true
    },
    {
      "inputs": [],
      "name": "freeRewardRatio",
      "outputs": [
        {
          "internalType": "uint256",
          "name": "",
          "type": "uint256"
        }
      ],
      "stateMutability": "view",
      "type": "function",
      "constant": true
    },
    {
      "inputs": [],
      "name": "grade1RewardRatio",
      "outputs": [
        {
          "internalType": "uint256",
          "name": "",
          "type": "uint256"
        }
      ],
      "stateMutability": "view",
      "type": "function",
      "constant": true
    },
    {
      "inputs": [],
      "name": "grade2RewardRatio",
      "outputs": [
        {
          "internalType": "uint256",
          "name": "",
          "type": "uint256"
        }
      ],
      "stateMutability": "view",
      "type": "function",
      "constant": true
    },
    {
      "inputs": [],
      "name": "grade3RewardRatio",
      "outputs": [
        {
          "internalType": "uint256",
          "name": "",
          "type": "uint256"
        }
      ],
      "stateMutability": "view",
      "type": "function",
      "constant": true
    },
    {
      "inputs": [],
      "name": "hotpot",
      "outputs": [
        {
          "internalType": "contract IHotPot",
          "name": "",
          "type": "address"
        }
      ],
      "stateMutability": "view",
      "type": "function",
      "constant": true
    },
    {
      "inputs": [],
      "name": "lastRewardTime",
      "outputs": [
        {
          "internalType": "uint256",
          "name": "",
          "type": "uint256"
        }
      ],
      "stateMutability": "view",
      "type": "function",
      "constant": true
    },
    {
      "inputs": [],
      "name": "lastUpdateTime",
      "outputs": [
        {
          "internalType": "uint256",
          "name": "",
          "type": "uint256"
        }
      ],
      "stateMutability": "view",
      "type": "function",
      "constant": true
    },
    {
      "inputs": [],
      "name": "loan",
      "outputs": [
        {
          "internalType": "contract ILoan",
          "name": "",
          "type": "address"
        }
      ],
      "stateMutability": "view",
      "type": "function",
      "constant": true
    },
    {
      "inputs": [],
      "name": "owner",
      "outputs": [
        {
          "internalType": "address",
          "name": "",
          "type": "address"
        }
      ],
      "stateMutability": "view",
      "type": "function",
      "constant": true
    },
    {
      "inputs": [],
      "name": "periodFinish",
      "outputs": [
        {
          "internalType": "uint256",
          "name": "",
          "type": "uint256"
        }
      ],
      "stateMutability": "view",
      "type": "function",
      "constant": true
    },
    {
      "inputs": [],
      "name": "renounceOwnership",
      "outputs": [],
      "stateMutability": "nonpayable",
      "type": "function"
    },
    {
      "inputs": [],
      "name": "rewardContract",
      "outputs": [
        {
          "internalType": "address",
          "name": "",
          "type": "address"
        }
      ],
      "stateMutability": "view",
      "type": "function",
      "constant": true
    },
    {
      "inputs": [],
      "name": "rewardDistribution",
      "outputs": [
        {
          "internalType": "address",
          "name": "",
          "type": "address"
        }
      ],
      "stateMutability": "view",
      "type": "function",
      "constant": true
    },
    {
      "inputs": [],
      "name": "rewardPerTokenStored",
      "outputs": [
        {
          "internalType": "uint256",
          "name": "",
          "type": "uint256"
        }
      ],
      "stateMutability": "view",
      "type": "function",
      "constant": true
    },
    {
      "inputs": [],
      "name": "rewardRate",
      "outputs": [
        {
          "internalType": "uint256",
          "name": "",
          "type": "uint256"
        }
      ],
      "stateMutability": "view",
      "type": "function",
      "constant": true
    },
    {
      "inputs": [],
      "name": "rewardRatio",
      "outputs": [
        {
          "internalType": "uint256",
          "name": "",
          "type": "uint256"
        }
      ],
      "stateMutability": "view",
      "type": "function",
      "constant": true
    },
    {
      "inputs": [
        {
          "internalType": "address",
          "name": "",
          "type": "address"
        }
      ],
      "name": "rewards",
      "outputs": [
        {
          "internalType": "uint256",
          "name": "",
          "type": "uint256"
        }
      ],
      "stateMutability": "view",
      "type": "function",
      "constant": true
    },
    {
      "inputs": [
        {
          "internalType": "address",
          "name": "_rewardDistribution",
          "type": "address"
        }
      ],
      "name": "setRewardDistribution",
      "outputs": [],
      "stateMutability": "nonpayable",
      "type": "function"
    },
    {
      "inputs": [],
      "name": "starttime",
      "outputs": [
        {
          "internalType": "uint256",
          "name": "",
          "type": "uint256"
        }
      ],
      "stateMutability": "view",
      "type": "function",
      "constant": true
    },
    {
      "inputs": [],
      "name": "tokenAddr",
      "outputs": [
        {
          "internalType": "contract IERC20",
          "name": "",
          "type": "address"
        }
      ],
      "stateMutability": "view",
      "type": "function",
      "constant": true
    },
    {
      "inputs": [],
      "name": "totalSupply",
      "outputs": [
        {
          "internalType": "uint256",
          "name": "",
          "type": "uint256"
        }
      ],
      "stateMutability": "view",
      "type": "function",
      "constant": true
    },
    {
      "inputs": [
        {
          "internalType": "address",
          "name": "newOwner",
          "type": "address"
        }
      ],
      "name": "transferOwnership",
      "outputs": [],
      "stateMutability": "nonpayable",
      "type": "function"
    },
    {
      "inputs": [
        {
          "internalType": "address",
          "name": "",
          "type": "address"
        }
      ],
      "name": "userRewardPerTokenPaid",
      "outputs": [
        {
          "internalType": "uint256",
          "name": "",
          "type": "uint256"
        }
      ],
      "stateMutability": "view",
      "type": "function",
      "constant": true
    },
    {
      "inputs": [
        {
          "internalType": "uint256",
          "name": "reward",
          "type": "uint256"
        }
      ],
      "name": "notifyRewardAmount",
      "outputs": [],
      "stateMutability": "nonpayable",
      "type": "function"
    },
    {
      "inputs": [],
      "name": "getPoolBalance",
      "outputs": [
        {
          "internalType": "uint256",
          "name": "",
          "type": "uint256"
        }
      ],
      "stateMutability": "view",
      "type": "function",
      "constant": true
    },
    {
      "inputs": [
        {
          "internalType": "address",
          "name": "_addr",
          "type": "address"
        }
      ],
      "name": "setRewardContract",
      "outputs": [],
      "stateMutability": "nonpayable",
      "type": "function"
    },
    {
      "inputs": [],
      "name": "lastTimeRewardApplicable",
      "outputs": [
        {
          "internalType": "uint256",
          "name": "",
          "type": "uint256"
        }
      ],
      "stateMutability": "view",
      "type": "function",
      "constant": true
    },
    {
      "inputs": [],
      "name": "rewardPerToken",
      "outputs": [
        {
          "internalType": "uint256",
          "name": "",
          "type": "uint256"
        }
      ],
      "stateMutability": "view",
      "type": "function",
      "constant": true
    },
    {
      "inputs": [
        {
          "internalType": "address",
          "name": "account",
          "type": "address"
        }
      ],
      "name": "earned",
      "outputs": [
        {
          "internalType": "uint256",
          "name": "",
          "type": "uint256"
        }
      ],
      "stateMutability": "view",
      "type": "function",
      "constant": true
    },
    {
      "inputs": [
        {
          "internalType": "uint256",
          "name": "amount",
          "type": "uint256"
        }
      ],
      "name": "stake",
      "outputs": [],
      "stateMutability": "nonpayable",
      "type": "function"
    },
    {
      "inputs": [],
      "name": "getRewardFree",
      "outputs": [],
      "stateMutability": "nonpayable",
      "type": "function"
    },
    {
      "inputs": [
        {
          "internalType": "uint256",
          "name": "_tokenId",
          "type": "uint256"
        }
      ],
      "name": "getRewardByNFT",
      "outputs": [],
      "stateMutability": "nonpayable",
      "type": "function"
    },
    {
      "inputs": [
        {
          "internalType": "uint256",
          "name": "amount",
          "type": "uint256"
        }
      ],
      "name": "withdraw",
      "outputs": [],
      "stateMutability": "nonpayable",
      "type": "function"
    },
    {
      "inputs": [
        {
          "internalType": "uint256",
          "name": "amount",
          "type": "uint256"
        }
      ],
      "name": "withdrawAndGetReward",
      "outputs": [],
      "stateMutability": "nonpayable",
      "type": "function"
    },
    {
      "inputs": [],
      "name": "exit",
      "outputs": [],
      "stateMutability": "nonpayable",
      "type": "function"
    },
    {
      "inputs": [
        {
          "internalType": "address",
          "name": "to_",
          "type": "address"
        },
        {
          "internalType": "contract IERC20",
          "name": "token_",
          "type": "address"
        },
        {
          "internalType": "uint256",
          "name": "amount_",
          "type": "uint256"
        }
      ],
      "name": "rescue",
      "outputs": [],
      "stateMutability": "nonpayable",
      "type": "function"
    },
    {
      "inputs": [
        {
          "internalType": "address payable",
          "name": "to_",
          "type": "address"
        },
        {
          "internalType": "uint256",
          "name": "amount_",
          "type": "uint256"
        }
      ],
      "name": "rescue",
      "outputs": [],
      "stateMutability": "nonpayable",
      "type": "function"
    }
  ],
  "bytecode": "0x608060405262093a80600a55635f734bf0600b556000600c556000600d556005601155600a601255600f60135560148055601e6015553480156200004257600080fd5b5060405162002a4238038062002a42833981810160405260e08110156200006857600080fd5b508051602082015160408301516060840151608085015160a086015160c09096015194959394929391929091906000620000aa6001600160e01b03620001a416565b600380546001600160a01b0319166001600160a01b038316908117909155604051919250906000907f8be0079c531659141344cd1fd0a4f28419497f9722a3daafe3b4186f6b6457e0908290a350600080546001600160a01b03808a166001600160a01b0319928316179092556006805489841690831681179091556007805483169091179055600580548884169083161790556008805492871692909116919091179055620001626001600160e01b03620001a416565b600480546001600160a01b0319166001600160a01b0392909216919091179055600b839055600a8290556200019781620001a8565b5050505050505062000599565b3390565b600b54421115620002be57600c544210620001f557620001d9600a54826200032960201b62001a5b1790919060201c565b600d55620001ef6001600160e01b036200037c16565b62000270565b60006200021342600c546200039260201b620019b91790919060201c565b9050600062000233600d5483620003dc60201b62001a021790919060201c565b90506200026a600a546200025683866200043a60201b62001a9d1790919060201c565b6200032960201b62001a5b1790919060201c565b600d5550505b42600e8190555062000293600a54426200043a60201b62001a9d1790919060201c565b600c5560408051828152905160008051602062002a018339815191529181900360200190a162000326565b620002da600a54826200032960201b62001a5b1790919060201c565b600d55600b54600e819055600a546200030091906200043a602090811b62001a9d17901c565b600c5560408051828152905160008051602062002a018339815191529181900360200190a15b50565b60006200037383836040518060400160405280601a81526020017f536166654d6174683a206469766973696f6e206279207a65726f0000000000008152506200049560201b60201c565b90505b92915050565b60036011556009601255600c601355600f601455565b60006200037383836040518060400160405280601e81526020017f536166654d6174683a207375627472616374696f6e206f766572666c6f7700008152506200053c60201b60201c565b600082620003ed5750600062000376565b82820282848281620003fb57fe5b0414620003735760405162461bcd60e51b815260040180806020018281038252602181526020018062002a216021913960400191505060405180910390fd5b60008282018381101562000373576040805162461bcd60e51b815260206004820152601b60248201527f536166654d6174683a206164646974696f6e206f766572666c6f770000000000604482015290519081900360640190fd5b60008183620005255760405162461bcd60e51b81526004018080602001828103825283818151815260200191508051906020019080838360005b83811015620004e9578181015183820152602001620004cf565b50505050905090810190601f168015620005175780820380516001836020036101000a031916815260200191505b509250505060405180910390fd5b5060008385816200053257fe5b0495945050505050565b60008184841115620005915760405162461bcd60e51b8152602060048201818152835160248401528351909283926044909101919085019080838360008315620004e9578181015183820152602001620004cf565b505050900390565b61245880620005a96000396000f3fe608060405234801561001057600080fd5b50600436106102d25760003560e01c8063785e9e8611610186578063abd70aa2116100e3578063df136d6511610097578063f0bc9fa711610071578063f0bc9fa714610591578063f2fde38b14610599578063f44c407a146105bf576102d2565b8063df136d6514610579578063e9fad8ee14610581578063ebe2b12b14610589576102d2565b8063c8f33c91116100c8578063c8f33c9114610561578063cd3daf9d14610569578063d285b7b414610571576102d2565b8063abd70aa214610551578063bca6ce6414610559576102d2565b80638b8763471161013a5780638da5cb5b1161011f5780638da5cb5b146105245780639231cf741461052c578063a694fc3a14610534576102d2565b80638b876347146104f65780638da588971461051c576102d2565b80637b087fde1161016b5780637b087fde146104de5780637b0a47ee146104e657806380faa57d146104ee576102d2565b8063785e9e86146104aa5780637a4e4ecf146104b2576102d2565b8063424ad03d116102345780635fbe4d1d116101e85780636ea69d62116101cd5780636ea69d621461047457806370a082311461047c578063715018a6146104a2576102d2565b80635fbe4d1d14610464578063646033bc1461046c576102d2565b806347a005c61161021957806347a005c61461041957806351508f0a146104365780635e0ab6801461045c576102d2565b8063424ad03d14610409578063430a063514610411576102d2565b806318160ddd1161028b57806320ff430b1161027057806320ff430b146103995780632e1a7d4d146103cf5780633c6b16ab146103ec576102d2565b806318160ddd146103895780631be0528914610391576102d2565b80630d68b761116102bc5780630d68b76114610335578063101114cf1461035d57806315ea88c414610381576102d2565b80628cc262146102d75780630700037d1461030f575b600080fd5b6102fd600480360360208110156102ed57600080fd5b50356001600160a01b03166105dc565b60408051918252519081900360200190f35b6102fd6004803603602081101561032557600080fd5b50356001600160a01b0316610662565b61035b6004803603602081101561034b57600080fd5b50356001600160a01b0316610674565b005b610365610718565b604080516001600160a01b039092168252519081900360200190f35b610365610727565b6102fd610736565b6102fd61073d565b61035b600480360360608110156103af57600080fd5b506001600160a01b03813581169160208101359091169060400135610743565b61035b600480360360208110156103e557600080fd5b50356109f7565b61035b6004803603602081101561040257600080fd5b5035610b41565b61035b610c03565b6102fd610d23565b61035b6004803603602081101561042f57600080fd5b5035610d29565b61035b6004803603602081101561044c57600080fd5b50356001600160a01b0316611101565b6102fd611208565b61036561120e565b6102fd61121d565b610365611223565b6102fd6004803603602081101561049257600080fd5b50356001600160a01b0316611232565b61035b61124d565b610365611319565b61035b600480360360408110156104c857600080fd5b506001600160a01b038135169060200135611328565b6102fd6114bc565b6102fd6114c2565b6102fd6114c8565b6102fd6004803603602081101561050c57600080fd5b50356001600160a01b03166114db565b6102fd6114ed565b6103656114f3565b6102fd611502565b61035b6004803603602081101561054a57600080fd5b5035611508565b6102fd611652565b6103656116e7565b6102fd6116f6565b6102fd6116fc565b610365611750565b6102fd61175f565b61035b611765565b6102fd611780565b6102fd611786565b61035b600480360360208110156105af57600080fd5b50356001600160a01b031661178c565b61035b600480360360208110156105d557600080fd5b50356118af565b6001600160a01b038116600090815260176020908152604080832054601690925282205461065c919061065090670de0b6b3a7640000906106449061062f906106236116fc565b9063ffffffff6119b916565b61063888611232565b9063ffffffff611a0216565b9063ffffffff611a5b16565b9063ffffffff611a9d16565b92915050565b60176020526000908152604090205481565b61067c611af7565b6003546001600160a01b039081169116146106de576040805162461bcd60e51b815260206004820181905260248201527f4f776e61626c653a2063616c6c6572206973206e6f7420746865206f776e6572604482015290519081900360640190fd5b600480547fffffffffffffffffffffffff0000000000000000000000000000000000000000166001600160a01b0392909216919091179055565b6004546001600160a01b031681565b6006546001600160a01b031681565b6001545b90565b600a5481565b61074b611af7565b6003546001600160a01b039081169116146107ad576040805162461bcd60e51b815260206004820181905260248201527f4f776e61626c653a2063616c6c6572206973206e6f7420746865206f776e6572604482015290519081900360640190fd5b6001600160a01b038316610808576040805162461bcd60e51b815260206004820152600a60248201527f6d757374206e6f74203000000000000000000000000000000000000000000000604482015290519081900360640190fd5b6000811161085d576040805162461bcd60e51b815260206004820152600960248201527f6d75737420677420300000000000000000000000000000000000000000000000604482015290519081900360640190fd5b6005546001600160a01b03838116911614156108c0576040805162461bcd60e51b815260206004820152600e60248201527f6d757374206e6f74206572633230000000000000000000000000000000000000604482015290519081900360640190fd5b6000546001600160a01b0383811691161415610923576040805162461bcd60e51b815260206004820152601560248201527f6d757374206e6f74207468697320706c546f6b656e0000000000000000000000604482015290519081900360640190fd5b816001600160a01b031663a9059cbb84836040518363ffffffff1660e01b815260040180836001600160a01b03166001600160a01b0316815260200182815260200192505050602060405180830381600087803b15801561098357600080fd5b505af1158015610997573d6000803e3d6000fd5b505050506040513d60208110156109ad57600080fd5b50506040805182815290516001600160a01b0380851692908616917faabf44ab9d5bef08d1b60f287a337f0d11a248e49741ad189b429e47e98ba9109181900360200190a3505050565b33610a006116fc565b600f55610a0b6114c8565b600e556001600160a01b03811615610a5257610a26816105dc565b6001600160a01b038216600090815260176020908152604080832093909355600f546016909152919020555b600b54421015610aa9576040805162461bcd60e51b815260206004820152600960248201527f6e6f742073746172740000000000000000000000000000000000000000000000604482015290519081900360640190fd5b60008211610afe576040805162461bcd60e51b815260206004820152601160248201527f43616e6e6f742077697468647261772030000000000000000000000000000000604482015290519081900360640190fd5b610b0782611afb565b60408051838152905133917f7084f5476618d8e60b11ef0d7d3f06914655adb8793e28ff7f018d4c76d505d5919081900360200190a25050565b6004546001600160a01b0316610b55611af7565b6001600160a01b031614610b9a5760405162461bcd60e51b81526004018080602001828103825260218152602001806123926021913960400191505060405180910390fd5b6000610ba46116fc565b600f55610baf6114c8565b600e556001600160a01b03811615610bf657610bca816105dc565b6001600160a01b038216600090815260176020908152604080832093909355600f546016909152919020555b610bff82611b5c565b5050565b33610c0c6116fc565b600f55610c176114c8565b600e556001600160a01b03811615610c5e57610c32816105dc565b6001600160a01b038216600090815260176020908152604080832093909355600f546016909152919020555b600b54421015610cb5576040805162461bcd60e51b815260206004820152600960248201527f6e6f742073746172740000000000000000000000000000000000000000000000604482015290519081900360640190fd5b42601054620151800110610d10576040805162461bcd60e51b815260206004820152601f60248201527f596f7520676574207265776172642077697468696e20323420686f7572732100604482015290519081900360640190fd5b42601055601154610d2090611ca1565b50565b60115481565b33610d326116fc565b600f55610d3d6114c8565b600e556001600160a01b03811615610d8457610d58816105dc565b6001600160a01b038216600090815260176020908152604080832093909355600f546016909152919020555b600b54421015610ddb576040805162461bcd60e51b815260206004820152600960248201527f6e6f742073746172740000000000000000000000000000000000000000000000604482015290519081900360640190fd5b600654604080517f5840e6590000000000000000000000000000000000000000000000000000000081526004810185905290516000926001600160a01b031691635840e659916024808301926020929190829003018186803b158015610e4057600080fd5b505afa158015610e54573d6000803e3d6000fd5b505050506040513d6020811015610e6a57600080fd5b505190507ffffffffffffffffffffffffffffffffffffffffffffffffffffffffffffeae8042018110610ece5760405162461bcd60e51b81526004018080602001828103825260248152602001806123b36024913960400191505060405180910390fd5b600854604080517f3130c3ae0000000000000000000000000000000000000000000000000000000081523360048201526024810186905242604482015290516001600160a01b0390921691633130c3ae91606480820192602092909190829003018186803b158015610f3f57600080fd5b505afa158015610f53573d6000803e3d6000fd5b505050506040513d6020811015610f6957600080fd5b5051610fa65760405162461bcd60e51b81526004018080602001828103825260288152602001806123236028913960400191505060405180910390fd5b600654604080517fe1e0485e0000000000000000000000000000000000000000000000000000000081526004810186905290516000926001600160a01b03169163e1e0485e916024808301926020929190829003018186803b15801561100b57600080fd5b505afa15801561101f573d6000803e3d6000fd5b505050506040513d602081101561103557600080fd5b505160125460ff909116915060018214156110535750601254611073565b81600214156110655750601354611073565b816003141561107357506014545b61107c81611ca1565b600654604080517f22142e6c0000000000000000000000000000000000000000000000000000000081526004810188905290516001600160a01b03909216916322142e6c9160248082019260009290919082900301818387803b1580156110e257600080fd5b505af11580156110f6573d6000803e3d6000fd5b505050505050505050565b611109611af7565b6003546001600160a01b0390811691161461116b576040805162461bcd60e51b815260206004820181905260248201527f4f776e61626c653a2063616c6c6572206973206e6f7420746865206f776e6572604482015290519081900360640190fd5b61117d816001600160a01b0316611e31565b6111ce576040805162461bcd60e51b815260206004820152601b60248201527f4974206973206e6f7420636f6e74726163742061646472657373210000000000604482015290519081900360640190fd5b600980547fffffffffffffffffffffffff0000000000000000000000000000000000000000166001600160a01b0392909216919091179055565b60145481565b6000546001600160a01b031681565b60155481565b6009546001600160a01b031681565b6001600160a01b031660009081526002602052604090205490565b611255611af7565b6003546001600160a01b039081169116146112b7576040805162461bcd60e51b815260206004820181905260248201527f4f776e61626c653a2063616c6c6572206973206e6f7420746865206f776e6572604482015290519081900360640190fd5b6003546040516000916001600160a01b0316907f8be0079c531659141344cd1fd0a4f28419497f9722a3daafe3b4186f6b6457e0908390a3600380547fffffffffffffffffffffffff0000000000000000000000000000000000000000169055565b6005546001600160a01b031681565b611330611af7565b6003546001600160a01b03908116911614611392576040805162461bcd60e51b815260206004820181905260248201527f4f776e61626c653a2063616c6c6572206973206e6f7420746865206f776e6572604482015290519081900360640190fd5b6001600160a01b0382166113ed576040805162461bcd60e51b815260206004820152600a60248201527f6d757374206e6f74203000000000000000000000000000000000000000000000604482015290519081900360640190fd5b60008111611442576040805162461bcd60e51b815260206004820152600960248201527f6d75737420677420300000000000000000000000000000000000000000000000604482015290519081900360640190fd5b6040516001600160a01b0383169082156108fc029083906000818181858888f19350505050158015611478573d6000803e3d6000fd5b506040805182815290516001600160a01b038416917f542fa6bfee3b4746210fbdd1d83f9e49b65adde3639f8d8f165dd18347938af2919081900360200190a25050565b60135481565b600d5481565b60006114d642600c54611e37565b905090565b60166020526000908152604090205481565b600b5481565b6003546001600160a01b031690565b60105481565b336115116116fc565b600f5561151c6114c8565b600e556001600160a01b0381161561156357611537816105dc565b6001600160a01b038216600090815260176020908152604080832093909355600f546016909152919020555b600b544210156115ba576040805162461bcd60e51b815260206004820152600960248201527f6e6f742073746172740000000000000000000000000000000000000000000000604482015290519081900360640190fd5b6000821161160f576040805162461bcd60e51b815260206004820152600e60248201527f43616e6e6f74207374616b652030000000000000000000000000000000000000604482015290519081900360640190fd5b61161882611e4d565b60408051838152905133917f9e71bc8eea02a63969f509818f2dafb9254532904319f9dbda79b67bd34a5f3d919081900360200190a25050565b600554604080517f70a0823100000000000000000000000000000000000000000000000000000000815230600482015290516000926001600160a01b0316916370a08231916024808301926020929190829003018186803b1580156116b657600080fd5b505afa1580156116ca573d6000803e3d6000fd5b505050506040513d60208110156116e057600080fd5b5051905090565b6007546001600160a01b031681565b600e5481565b6000611706610736565b6117135750600f5461073a565b6114d6611741611721610736565b610644670de0b6b3a7640000610638600d54610638600e546106236114c8565b600f549063ffffffff611a9d16565b6008546001600160a01b031681565b600f5481565b61177661177133611232565b6109f7565b61177e610c03565b565b600c5481565b60125481565b611794611af7565b6003546001600160a01b039081169116146117f6576040805162461bcd60e51b815260206004820181905260248201527f4f776e61626c653a2063616c6c6572206973206e6f7420746865206f776e6572604482015290519081900360640190fd5b6001600160a01b03811661183b5760405162461bcd60e51b815260040180806020018281038252602681526020018061234b6026913960400191505060405180910390fd5b6003546040516001600160a01b038084169216907f8be0079c531659141344cd1fd0a4f28419497f9722a3daafe3b4186f6b6457e090600090a3600380547fffffffffffffffffffffffff0000000000000000000000000000000000000000166001600160a01b0392909216919091179055565b336118b86116fc565b600f556118c36114c8565b600e556001600160a01b0381161561190a576118de816105dc565b6001600160a01b038216600090815260176020908152604080832093909355600f546016909152919020555b600b54421015611961576040805162461bcd60e51b815260206004820152600960248201527f6e6f742073746172740000000000000000000000000000000000000000000000604482015290519081900360640190fd5b61196a33611232565b8211156119a85760405162461bcd60e51b81526004018080602001828103825260228152602001806124016022913960400191505060405180910390fd5b6119b1826109f7565b610bff610c03565b60006119fb83836040518060400160405280601e81526020017f536166654d6174683a207375627472616374696f6e206f766572666c6f770000815250611eaf565b9392505050565b600082611a115750600061065c565b82820282848281611a1e57fe5b04146119fb5760405162461bcd60e51b81526004018080602001828103825260218152602001806123716021913960400191505060405180910390fd5b60006119fb83836040518060400160405280601a81526020017f536166654d6174683a206469766973696f6e206279207a65726f000000000000815250611f46565b6000828201838110156119fb576040805162461bcd60e51b815260206004820152601b60248201527f536166654d6174683a206164646974696f6e206f766572666c6f770000000000604482015290519081900360640190fd5b3390565b600154611b0e908263ffffffff6119b916565b60015533600090815260026020526040902054611b31908263ffffffff6119b916565b336000818152600260205260408120929092559054610d20916001600160a01b039091169083611fab565b600b54421115611c3657600c544210611b9357600a54611b8390829063ffffffff611a5b16565b600d55611b8e61202b565b611be2565b600c54600090611ba9904263ffffffff6119b916565b90506000611bc2600d5483611a0290919063ffffffff16565b600a54909150611bdc90610644858463ffffffff611a9d16565b600d5550505b42600e819055600a54611bfb919063ffffffff611a9d16565b600c556040805182815290517fde88a922e0d3b88b24e9623efeb464919c6bf9f66857a65e2bfcf2ce87a9433d9181900360200190a1610d20565b600a54611c4a90829063ffffffff611a5b16565b600d55600b54600e819055600a54611c68919063ffffffff611a9d16565b600c556040805182815290517fde88a922e0d3b88b24e9623efeb464919c6bf9f66857a65e2bfcf2ce87a9433d9181900360200190a150565b33611caa6116fc565b600f55611cb56114c8565b600e556001600160a01b03811615611cfc57611cd0816105dc565b6001600160a01b038216600090815260176020908152604080832093909355600f546016909152919020555b600b54421015611d53576040805162461bcd60e51b815260206004820152600960248201527f6e6f742073746172740000000000000000000000000000000000000000000000604482015290519081900360640190fd5b60648210611d6057600080fd5b6000611d6b336105dc565b90508015611e2c5733600081815260176020526040902060648584028190048085039092556015549192611dbc92909190810384025b6005546001600160a01b03169291900463ffffffff611fab16565b600954601554611dda916001600160a01b0316906064908402611da1565b336001600160a01b03167fe2403640ba68fed3a2f88b7557551d1993f84b99bb10ff833f0cf8db0c5e04866064601554606403840281611e1657fe5b60408051929091048252519081900360200190a2505b505050565b3b151590565b6000818310611e4657816119fb565b5090919050565b600154611e60908263ffffffff611a9d16565b60015533600090815260026020526040902054611e83908263ffffffff611a9d16565b336000818152600260205260408120929092559054610d20916001600160a01b03909116903084612041565b60008184841115611f3e5760405162461bcd60e51b81526004018080602001828103825283818151815260200191508051906020019080838360005b83811015611f03578181015183820152602001611eeb565b50505050905090810190601f168015611f305780820380516001836020036101000a031916815260200191505b509250505060405180910390fd5b505050900390565b60008183611f955760405162461bcd60e51b8152602060048201818152835160248401528351909283926044909101919085019080838360008315611f03578181015183820152602001611eeb565b506000838581611fa157fe5b0495945050505050565b604080516001600160a01b038416602482015260448082018490528251808303909101815260649091019091526020810180517bffffffffffffffffffffffffffffffffffffffffffffffffffffffff167fa9059cbb00000000000000000000000000000000000000000000000000000000179052611e2c9084906120cf565b60036011556009601255600c601355600f601455565b604080516001600160a01b0380861660248301528416604482015260648082018490528251808303909101815260849091019091526020810180517bffffffffffffffffffffffffffffffffffffffffffffffffffffffff167f23b872dd000000000000000000000000000000000000000000000000000000001790526120c99085906120cf565b50505050565b6060612124826040518060400160405280602081526020017f5361666545524332303a206c6f772d6c6576656c2063616c6c206661696c6564815250856001600160a01b03166121809092919063ffffffff16565b805190915015611e2c5780806020019051602081101561214357600080fd5b5051611e2c5760405162461bcd60e51b815260040180806020018281038252602a8152602001806123d7602a913960400191505060405180910390fd5b606061218f8484600085612197565b949350505050565b60606121a285611e31565b6121f3576040805162461bcd60e51b815260206004820152601d60248201527f416464726573733a2063616c6c20746f206e6f6e2d636f6e7472616374000000604482015290519081900360640190fd5b60006060866001600160a01b031685876040518082805190602001908083835b6020831061225057805182527fffffffffffffffffffffffffffffffffffffffffffffffffffffffffffffffe09092019160209182019101612213565b6001836020036101000a03801982511681845116808217855250505050505090500191505060006040518083038185875af1925050503d80600081146122b2576040519150601f19603f3d011682016040523d82523d6000602084013e6122b7565b606091505b509150915081156122cb57915061218f9050565b8051156122db5780518082602001fd5b60405162461bcd60e51b8152602060048201818152865160248401528651879391928392604401919085019080838360008315611f03578181015183820152602001611eeb56fe596f7520646f206e6f74206861766520726967687420746f20757365207468697320746f6b656e214f776e61626c653a206e6577206f776e657220697320746865207a65726f2061646472657373536166654d6174683a206d756c7469706c69636174696f6e206f766572666c6f7743616c6c6572206973206e6f742072657761726420646973747269627574696f6e54686973207469636b657420697320757365642077697468696e20323420686f757273215361666545524332303a204552433230206f7065726174696f6e20646964206e6f74207375636365656443616e6e6f7420776974686472617720657863656564207468652062616c616e6365a26469706673582212206811fa288be6974a0d0ce17763ccf21c00437d4081c34bab61d32ade27e21aff64736f6c63430006020033de88a922e0d3b88b24e9623efeb464919c6bf9f66857a65e2bfcf2ce87a9433d536166654d6174683a206d756c7469706c69636174696f6e206f766572666c6f77",
  "source": "pragma solidity ^0.6.0;\n\nimport \"../common/hotpotinterface.sol\";\nimport \"../common/ILoan.sol\";\nimport \"@openzeppelin/contracts/math/Math.sol\";\nimport \"@openzeppelin/contracts/math/SafeMath.sol\";\nimport \"@openzeppelin/contracts/token/ERC721/IERC721.sol\";\nimport \"@openzeppelin/contracts/token/ERC20/IERC20.sol\";\nimport \"@openzeppelin/contracts/token/ERC20/SafeERC20.sol\";\nimport \"@openzeppelin/contracts/access/Ownable.sol\";\nimport \"@openzeppelin/contracts/utils/Address.sol\";\n\nabstract contract IRewardDistributionRecipient is Ownable {\n    address public rewardDistribution;\n\n    function notifyRewardAmount(uint256 reward) external virtual;\n\n    modifier onlyRewardDistribution() {\n        require(\n            _msgSender() == rewardDistribution,\n            \"Caller is not reward distribution\"\n        );\n        _;\n    }\n\n    function setRewardDistribution(address _rewardDistribution)\n        external\n        onlyOwner\n    {\n        rewardDistribution = _rewardDistribution;\n    }\n}\n\ncontract LPTokenWrapper {\n    using SafeMath for uint256;\n    using SafeERC20 for IERC20;\n\n    IERC20 public tokenAddr;\n    uint256 private _totalSupply;\n    mapping(address => uint256) private _balances;\n\n    function totalSupply() public view returns (uint256) {\n        return _totalSupply;\n    }\n\n    function balanceOf(address account) public view returns (uint256) {\n        return _balances[account];\n    }\n\n    function stake(uint256 amount) public virtual {\n        _totalSupply = _totalSupply.add(amount);\n        _balances[msg.sender] = _balances[msg.sender].add(amount);\n        tokenAddr.safeTransferFrom(msg.sender, address(this), amount);\n    }\n\n    function withdraw(uint256 amount) public virtual {\n        _totalSupply = _totalSupply.sub(amount);\n        _balances[msg.sender] = _balances[msg.sender].sub(amount);\n        tokenAddr.safeTransfer(msg.sender, amount);\n    }\n}\n\ncontract StakePool is LPTokenWrapper, IRewardDistributionRecipient {\n    using Address for address;\n    IERC20 public erc20;\n    IHotPot public hotpot;\n    IERC721 public erc721;\n    ILoan public loan;\n\n    address public rewardContract;\n    uint256 public DURATION = 604800;\n\n    uint256 public starttime = 1601391600;\n    uint256 public periodFinish = 0;\n    uint256 public rewardRate = 0;\n    uint256 public lastUpdateTime;\n    uint256 public rewardPerTokenStored;\n\n    uint256 public lastRewardTime;\n\n    uint256 public freeRewardRatio = 5;\n    uint256 public grade1RewardRatio = 10;\n    uint256 public grade2RewardRatio = 15;\n    uint256 public grade3RewardRatio = 20;\n\n    uint256 public rewardRatio = 30;\n\n    mapping(address => uint256) public userRewardPerTokenPaid;\n    mapping(address => uint256) public rewards;\n\n    event RewardAdded(uint256 reward);\n    event Staked(address indexed user, uint256 amount);\n    event Withdrawn(address indexed user, uint256 amount);\n    event RewardPaid(address indexed user, uint256 reward);\n    event Rescue(address indexed dst, uint256 sad);\n    event RescueToken(address indexed dst, address indexed token, uint256 sad);\n\n\n    function notifyRewardAmount(uint256 reward)\n        external\n        override\n        onlyRewardDistribution\n        updateReward(address(0))\n    {\n        _nofityReward(reward);\n    }\n\n    function _nofityReward(uint256 reward) internal{\n        if (block.timestamp > starttime) {\n            if (block.timestamp >= periodFinish) {\n                rewardRate = reward.div(DURATION);\n                _decreaseRewardRatio();\n            } else {\n                uint256 remaining = periodFinish.sub(block.timestamp);\n                uint256 leftover = remaining.mul(rewardRate);\n                rewardRate = reward.add(leftover).div(DURATION);\n            }\n            lastUpdateTime = block.timestamp;\n            periodFinish = block.timestamp.add(DURATION);\n            emit RewardAdded(reward);\n        } else {\n            rewardRate = reward.div(DURATION);\n            lastUpdateTime = starttime;\n            periodFinish = starttime.add(DURATION);\n            emit RewardAdded(reward);\n        }\n    }\n    \n    constructor(\n        address _stakeERC20,\n        address _hotpotNFT,\n        address _hotpotERC20,\n        address _loan,\n        uint256 _starttime,\n        uint256 duration,\n        uint256 _rewardAmount\n    ) public {\n        tokenAddr = IERC20(_stakeERC20);\n        hotpot = IHotPot(_hotpotNFT);\n        erc721 = IERC721(_hotpotNFT);\n        erc20 = IERC20(_hotpotERC20);\n        loan = ILoan(_loan);\n        rewardDistribution = _msgSender();\n        starttime = _starttime;\n        DURATION = duration;\n        _nofityReward(_rewardAmount);\n    }\n\n    function getPoolBalance() external view returns(uint256){\n        return erc20.balanceOf(address(this));\n    }\n\n    function setRewardContract(address _addr) external onlyOwner {\n        require(_addr.isContract(), \"It is not contract address!\");\n        rewardContract = _addr;\n    }\n\n    modifier checkStart() {\n        require(block.timestamp >= starttime, \"not start\");\n        _;\n    }\n\n    modifier updateReward(address account) {\n        rewardPerTokenStored = rewardPerToken();\n        lastUpdateTime = lastTimeRewardApplicable();\n        if (account != address(0)) {\n            rewards[account] = earned(account);\n            userRewardPerTokenPaid[account] = rewardPerTokenStored;\n        }\n        _;\n    }\n\n    function lastTimeRewardApplicable() public view returns (uint256) {\n        return Math.min(block.timestamp, periodFinish);\n    }\n\n    function rewardPerToken() public view returns (uint256) {\n        if (totalSupply() == 0) {\n            return rewardPerTokenStored;\n        }\n        return\n            rewardPerTokenStored.add(\n                lastTimeRewardApplicable()\n                    .sub(lastUpdateTime)\n                    .mul(rewardRate)\n                    .mul(1e18)\n                    .div(totalSupply())\n            );\n    }\n\n    function earned(address account) public view returns (uint256) {\n        return\n            balanceOf(account)\n                .mul(rewardPerToken().sub(userRewardPerTokenPaid[account]))\n                .div(1e18)\n                .add(rewards[account]);\n    }\n\n    function stake(uint256 amount)\n        public\n        override\n        updateReward(msg.sender)\n        checkStart\n    {\n        require(amount > 0, \"Cannot stake 0\");\n        super.stake(amount);\n        emit Staked(msg.sender, amount);\n    }\n\n    function _getReward(uint256 _percent)\n        internal\n        updateReward(msg.sender)\n        checkStart\n    {\n        require(_percent < 100);\n        uint256 trueReward = earned(msg.sender);\n        if (trueReward > 0) {\n            uint256 reward = (trueReward * _percent) / 100;\n\n            rewards[msg.sender] = trueReward - reward;\n            erc20.safeTransfer(\n                msg.sender,\n                (reward * (100 - rewardRatio)) / 100\n            );\n            erc20.safeTransfer(rewardContract, (reward * rewardRatio) / 100);\n            emit RewardPaid(msg.sender, (reward * (100 - rewardRatio)) / 100);\n        }\n    }\n\n    function getRewardFree() public updateReward(msg.sender) checkStart {\n        require(\n            lastRewardTime + 24 * 60 * 60 < now,\n            \"You get reward within 24 hours!\"\n        );\n        lastRewardTime = now;\n        _getReward(freeRewardRatio);\n    }\n\n    function getRewardByNFT(uint256 _tokenId)\n        public\n        updateReward(msg.sender)\n        checkStart\n    {\n        //1.check the NFT is used?\n        uint256 time = hotpot.getUseTime(_tokenId);\n        require(\n            time < now - 24 * 60 * 60,\n            \"This ticket is used within 24 hours!\"\n        );\n\n        require(\n            loan.checkPrivilege(msg.sender, _tokenId, now),\n            \"You do not have right to use this token!\"\n        );\n\n        uint256 grade = hotpot.getGrade(_tokenId);\n        uint256 percent = grade1RewardRatio;\n        if (grade == 1) {\n            percent = grade1RewardRatio;\n        } else if (grade == 2) {\n            percent = grade2RewardRatio;\n        } else if (grade == 3) {\n            percent = grade3RewardRatio;\n        }\n        _getReward(percent);\n        hotpot.setUse(_tokenId);\n    }\n\n    function withdraw(uint256 amount)\n        public\n        override\n        updateReward(msg.sender)\n        checkStart\n    {\n        require(amount > 0, \"Cannot withdraw 0\");\n        super.withdraw(amount);\n        emit Withdrawn(msg.sender, amount);\n    }\n\n    function withdrawAndGetReward(uint256 amount)\n        public\n        updateReward(msg.sender)\n        checkStart\n    {\n        require(\n            amount <= balanceOf(msg.sender),\n            \"Cannot withdraw exceed the balance\"\n        );\n        withdraw(amount);\n        getRewardFree();\n    }\n\n    function exit() external {\n        withdraw(balanceOf(msg.sender));\n        getRewardFree();\n    }\n\n    function _decreaseRewardRatio() internal {\n        freeRewardRatio = 3;\n        grade1RewardRatio = 9;\n        grade2RewardRatio = 12;\n        grade3RewardRatio = 15;\n    }\n\n\n    function rescue(address payable to_, uint256 amount_) external onlyOwner {\n        require(to_ != address(0), \"must not 0\");\n        require(amount_ > 0, \"must gt 0\");\n\n        to_.transfer(amount_);\n        emit Rescue(to_, amount_);\n    }\n\n    function rescue(\n        address to_,\n        IERC20 token_,\n        uint256 amount_\n    ) external onlyOwner {\n        require(to_ != address(0), \"must not 0\");\n        require(amount_ > 0, \"must gt 0\");\n        require(token_ != erc20, \"must not erc20\");\n        require(token_ != tokenAddr, \"must not this plToken\");\n\n        token_.transfer(to_, amount_);\n        emit RescueToken(to_, address(token_), amount_);\n    }\n}\n",
  "sourcePath": "/Users/junhu/git/hotpotcontract/truffle/contracts/stake/StakePool.sol",
  "compiler": {
    "name": "solc",
    "version": "0.6.2+commit.bacdbe57.Emscripten.clang"
  },
  "schemaVersion": "3.3.0",
  "updatedAt": "2020-10-18T09:35:19.663Z",
  "networkType": "ethereum",
  "devdoc": {
    "methods": {
      "owner()": {
        "details": "Returns the address of the current owner."
      },
      "renounceOwnership()": {
        "details": "Leaves the contract without owner. It will not be possible to call `onlyOwner` functions anymore. Can only be called by the current owner.     * NOTE: Renouncing ownership will leave the contract without an owner, thereby removing any functionality that is only available to the owner."
      },
      "transferOwnership(address)": {
        "details": "Transfers ownership of the contract to a new account (`newOwner`). Can only be called by the current owner."
      }
    }
  },
  "userdoc": {
    "methods": {}
  }
}