{
  "contractName": "StakePool",
  "abi": [
    {
      "inputs": [
        {
          "internalType": "address",
          "name": "_stakeERC20",
          "type": "address"
        },
        {
          "internalType": "address",
          "name": "_hotpotNFT",
          "type": "address"
        },
        {
          "internalType": "address",
          "name": "_hotpotERC20",
          "type": "address"
        },
        {
          "internalType": "address",
          "name": "_loan",
          "type": "address"
        },
        {
          "internalType": "address",
          "name": "_reward",
          "type": "address"
        },
        {
          "internalType": "uint256",
          "name": "_starttime",
          "type": "uint256"
        },
        {
          "internalType": "uint256",
          "name": "duration",
          "type": "uint256"
        },
        {
          "internalType": "uint256",
          "name": "_rewardAmount",
          "type": "uint256"
        }
      ],
      "stateMutability": "nonpayable",
      "type": "constructor"
    },
    {
      "anonymous": false,
      "inputs": [
        {
          "indexed": true,
          "internalType": "address",
          "name": "previousOwner",
          "type": "address"
        },
        {
          "indexed": true,
          "internalType": "address",
          "name": "newOwner",
          "type": "address"
        }
      ],
      "name": "OwnershipTransferred",
      "type": "event"
    },
    {
      "anonymous": false,
      "inputs": [
        {
          "indexed": true,
          "internalType": "address",
          "name": "dst",
          "type": "address"
        },
        {
          "indexed": false,
          "internalType": "uint256",
          "name": "sad",
          "type": "uint256"
        }
      ],
      "name": "Rescue",
      "type": "event"
    },
    {
      "anonymous": false,
      "inputs": [
        {
          "indexed": true,
          "internalType": "address",
          "name": "dst",
          "type": "address"
        },
        {
          "indexed": true,
          "internalType": "address",
          "name": "token",
          "type": "address"
        },
        {
          "indexed": false,
          "internalType": "uint256",
          "name": "sad",
          "type": "uint256"
        }
      ],
      "name": "RescueToken",
      "type": "event"
    },
    {
      "anonymous": false,
      "inputs": [
        {
          "indexed": false,
          "internalType": "uint256",
          "name": "reward",
          "type": "uint256"
        }
      ],
      "name": "RewardAdded",
      "type": "event"
    },
    {
      "anonymous": false,
      "inputs": [
        {
          "indexed": true,
          "internalType": "address",
          "name": "user",
          "type": "address"
        },
        {
          "indexed": false,
          "internalType": "uint256",
          "name": "reward",
          "type": "uint256"
        }
      ],
      "name": "RewardPaid",
      "type": "event"
    },
    {
      "anonymous": false,
      "inputs": [
        {
          "indexed": true,
          "internalType": "address",
          "name": "user",
          "type": "address"
        },
        {
          "indexed": false,
          "internalType": "uint256",
          "name": "amount",
          "type": "uint256"
        }
      ],
      "name": "Staked",
      "type": "event"
    },
    {
      "anonymous": false,
      "inputs": [
        {
          "indexed": true,
          "internalType": "address",
          "name": "user",
          "type": "address"
        },
        {
          "indexed": false,
          "internalType": "uint256",
          "name": "amount",
          "type": "uint256"
        }
      ],
      "name": "Withdrawn",
      "type": "event"
    },
    {
      "inputs": [],
      "name": "DURATION",
      "outputs": [
        {
          "internalType": "uint256",
          "name": "",
          "type": "uint256"
        }
      ],
      "stateMutability": "view",
      "type": "function",
      "constant": true
    },
    {
      "inputs": [
        {
          "internalType": "address",
          "name": "account",
          "type": "address"
        }
      ],
      "name": "balanceOf",
      "outputs": [
        {
          "internalType": "uint256",
          "name": "",
          "type": "uint256"
        }
      ],
      "stateMutability": "view",
      "type": "function",
      "constant": true
    },
    {
      "inputs": [],
      "name": "erc20",
      "outputs": [
        {
          "internalType": "contract IERC20",
          "name": "",
          "type": "address"
        }
      ],
      "stateMutability": "view",
      "type": "function",
      "constant": true
    },
    {
      "inputs": [],
      "name": "erc721",
      "outputs": [
        {
          "internalType": "contract IERC721",
          "name": "",
          "type": "address"
        }
      ],
      "stateMutability": "view",
      "type": "function",
      "constant": true
    },
    {
      "inputs": [],
      "name": "freeRewardRatio",
      "outputs": [
        {
          "internalType": "uint256",
          "name": "",
          "type": "uint256"
        }
      ],
      "stateMutability": "view",
      "type": "function",
      "constant": true
    },
    {
      "inputs": [],
      "name": "grade1RewardRatio",
      "outputs": [
        {
          "internalType": "uint256",
          "name": "",
          "type": "uint256"
        }
      ],
      "stateMutability": "view",
      "type": "function",
      "constant": true
    },
    {
      "inputs": [],
      "name": "grade2RewardRatio",
      "outputs": [
        {
          "internalType": "uint256",
          "name": "",
          "type": "uint256"
        }
      ],
      "stateMutability": "view",
      "type": "function",
      "constant": true
    },
    {
      "inputs": [],
      "name": "grade3RewardRatio",
      "outputs": [
        {
          "internalType": "uint256",
          "name": "",
          "type": "uint256"
        }
      ],
      "stateMutability": "view",
      "type": "function",
      "constant": true
    },
    {
      "inputs": [],
      "name": "hotpot",
      "outputs": [
        {
          "internalType": "contract IHotPot",
          "name": "",
          "type": "address"
        }
      ],
      "stateMutability": "view",
      "type": "function",
      "constant": true
    },
    {
      "inputs": [
        {
          "internalType": "address",
          "name": "",
          "type": "address"
        }
      ],
      "name": "lastRewardTime",
      "outputs": [
        {
          "internalType": "uint256",
          "name": "",
          "type": "uint256"
        }
      ],
      "stateMutability": "view",
      "type": "function",
      "constant": true
    },
    {
      "inputs": [],
      "name": "lastUpdateTime",
      "outputs": [
        {
          "internalType": "uint256",
          "name": "",
          "type": "uint256"
        }
      ],
      "stateMutability": "view",
      "type": "function",
      "constant": true
    },
    {
      "inputs": [],
      "name": "loan",
      "outputs": [
        {
          "internalType": "contract ILoan",
          "name": "",
          "type": "address"
        }
      ],
      "stateMutability": "view",
      "type": "function",
      "constant": true
    },
    {
      "inputs": [],
      "name": "owner",
      "outputs": [
        {
          "internalType": "address",
          "name": "",
          "type": "address"
        }
      ],
      "stateMutability": "view",
      "type": "function",
      "constant": true
    },
    {
      "inputs": [],
      "name": "periodFinish",
      "outputs": [
        {
          "internalType": "uint256",
          "name": "",
          "type": "uint256"
        }
      ],
      "stateMutability": "view",
      "type": "function",
      "constant": true
    },
    {
      "inputs": [],
      "name": "renounceOwnership",
      "outputs": [],
      "stateMutability": "nonpayable",
      "type": "function"
    },
    {
      "inputs": [],
      "name": "rewardContract",
      "outputs": [
        {
          "internalType": "address",
          "name": "",
          "type": "address"
        }
      ],
      "stateMutability": "view",
      "type": "function",
      "constant": true
    },
    {
      "inputs": [],
      "name": "rewardDistribution",
      "outputs": [
        {
          "internalType": "address",
          "name": "",
          "type": "address"
        }
      ],
      "stateMutability": "view",
      "type": "function",
      "constant": true
    },
    {
      "inputs": [],
      "name": "rewardPerTokenStored",
      "outputs": [
        {
          "internalType": "uint256",
          "name": "",
          "type": "uint256"
        }
      ],
      "stateMutability": "view",
      "type": "function",
      "constant": true
    },
    {
      "inputs": [],
      "name": "rewardRate",
      "outputs": [
        {
          "internalType": "uint256",
          "name": "",
          "type": "uint256"
        }
      ],
      "stateMutability": "view",
      "type": "function",
      "constant": true
    },
    {
      "inputs": [],
      "name": "rewardRatio",
      "outputs": [
        {
          "internalType": "uint256",
          "name": "",
          "type": "uint256"
        }
      ],
      "stateMutability": "view",
      "type": "function",
      "constant": true
    },
    {
      "inputs": [
        {
          "internalType": "address",
          "name": "",
          "type": "address"
        }
      ],
      "name": "rewards",
      "outputs": [
        {
          "internalType": "uint256",
          "name": "",
          "type": "uint256"
        }
      ],
      "stateMutability": "view",
      "type": "function",
      "constant": true
    },
    {
      "inputs": [
        {
          "internalType": "address",
          "name": "_rewardDistribution",
          "type": "address"
        }
      ],
      "name": "setRewardDistribution",
      "outputs": [],
      "stateMutability": "nonpayable",
      "type": "function"
    },
    {
      "inputs": [],
      "name": "starttime",
      "outputs": [
        {
          "internalType": "uint256",
          "name": "",
          "type": "uint256"
        }
      ],
      "stateMutability": "view",
      "type": "function",
      "constant": true
    },
    {
      "inputs": [],
      "name": "tokenAddr",
      "outputs": [
        {
          "internalType": "contract IERC20",
          "name": "",
          "type": "address"
        }
      ],
      "stateMutability": "view",
      "type": "function",
      "constant": true
    },
    {
      "inputs": [],
      "name": "totalSupply",
      "outputs": [
        {
          "internalType": "uint256",
          "name": "",
          "type": "uint256"
        }
      ],
      "stateMutability": "view",
      "type": "function",
      "constant": true
    },
    {
      "inputs": [
        {
          "internalType": "address",
          "name": "newOwner",
          "type": "address"
        }
      ],
      "name": "transferOwnership",
      "outputs": [],
      "stateMutability": "nonpayable",
      "type": "function"
    },
    {
      "inputs": [
        {
          "internalType": "address",
          "name": "",
          "type": "address"
        }
      ],
      "name": "userRewardPerTokenPaid",
      "outputs": [
        {
          "internalType": "uint256",
          "name": "",
          "type": "uint256"
        }
      ],
      "stateMutability": "view",
      "type": "function",
      "constant": true
    },
    {
      "inputs": [
        {
          "internalType": "uint256",
          "name": "reward",
          "type": "uint256"
        }
      ],
      "name": "notifyRewardAmount",
      "outputs": [],
      "stateMutability": "nonpayable",
      "type": "function"
    },
    {
      "inputs": [],
      "name": "getPoolBalance",
      "outputs": [
        {
          "internalType": "uint256",
          "name": "",
          "type": "uint256"
        }
      ],
      "stateMutability": "view",
      "type": "function",
      "constant": true
    },
    {
      "inputs": [
        {
          "internalType": "address",
          "name": "_addr",
          "type": "address"
        }
      ],
      "name": "setRewardContract",
      "outputs": [],
      "stateMutability": "nonpayable",
      "type": "function"
    },
    {
      "inputs": [],
      "name": "lastTimeRewardApplicable",
      "outputs": [
        {
          "internalType": "uint256",
          "name": "",
          "type": "uint256"
        }
      ],
      "stateMutability": "view",
      "type": "function",
      "constant": true
    },
    {
      "inputs": [],
      "name": "rewardPerToken",
      "outputs": [
        {
          "internalType": "uint256",
          "name": "",
          "type": "uint256"
        }
      ],
      "stateMutability": "view",
      "type": "function",
      "constant": true
    },
    {
      "inputs": [
        {
          "internalType": "address",
          "name": "account",
          "type": "address"
        }
      ],
      "name": "earned",
      "outputs": [
        {
          "internalType": "uint256",
          "name": "",
          "type": "uint256"
        }
      ],
      "stateMutability": "view",
      "type": "function",
      "constant": true
    },
    {
      "inputs": [
        {
          "internalType": "uint256",
          "name": "amount",
          "type": "uint256"
        }
      ],
      "name": "stake",
      "outputs": [],
      "stateMutability": "nonpayable",
      "type": "function"
    },
    {
      "inputs": [],
      "name": "getRewardFree",
      "outputs": [],
      "stateMutability": "nonpayable",
      "type": "function"
    },
    {
      "inputs": [
        {
          "internalType": "uint256",
          "name": "_tokenId",
          "type": "uint256"
        }
      ],
      "name": "getRewardByNFT",
      "outputs": [],
      "stateMutability": "nonpayable",
      "type": "function"
    },
    {
      "inputs": [
        {
          "internalType": "uint256",
          "name": "amount",
          "type": "uint256"
        }
      ],
      "name": "withdraw",
      "outputs": [],
      "stateMutability": "nonpayable",
      "type": "function"
    },
    {
      "inputs": [
        {
          "internalType": "uint256",
          "name": "amount",
          "type": "uint256"
        }
      ],
      "name": "withdrawAndGetReward",
      "outputs": [],
      "stateMutability": "nonpayable",
      "type": "function"
    },
    {
      "inputs": [],
      "name": "exit",
      "outputs": [],
      "stateMutability": "nonpayable",
      "type": "function"
    },
    {
      "inputs": [
        {
          "internalType": "address",
          "name": "to_",
          "type": "address"
        },
        {
          "internalType": "contract IERC20",
          "name": "token_",
          "type": "address"
        },
        {
          "internalType": "uint256",
          "name": "amount_",
          "type": "uint256"
        }
      ],
      "name": "rescue",
      "outputs": [],
      "stateMutability": "nonpayable",
      "type": "function"
    },
    {
      "inputs": [
        {
          "internalType": "address payable",
          "name": "to_",
          "type": "address"
        },
        {
          "internalType": "uint256",
          "name": "amount_",
          "type": "uint256"
        }
      ],
      "name": "rescue",
      "outputs": [],
      "stateMutability": "nonpayable",
      "type": "function"
    }
  ],
  "bytecode": "0x608060405262093a80600a55635f734bf0600b556000600c556000600d556005601155600a601255600f60135560148055601e6015553480156200004257600080fd5b5060405162002a9e38038062002a9e83398181016040526101008110156200006957600080fd5b508051602082015160408301516060840151608085015160a086015160c087015160e0909701519596949593949293919290916000620000b16001600160e01b03620001b916565b600380546001600160a01b0319166001600160a01b038316908117909155604051919250906000907f8be0079c531659141344cd1fd0a4f28419497f9722a3daafe3b4186f6b6457e0908290a350600080546001600160a01b03808b166001600160a01b031992831617909255600680548a84169083168117909155600780548316909117905560058054898416908316179055600880548884169083161790556009805492871692909116919091179055620001766001600160e01b03620001b916565b600480546001600160a01b0319166001600160a01b0392909216919091179055600b839055600a829055620001ab81620001bd565b5050505050505050620005ae565b3390565b600b54421115620002d357600c5442106200020a57620001ee600a54826200033e60201b62001aa21790919060201c565b600d55620002046001600160e01b036200039116565b62000285565b60006200022842600c54620003a760201b62001a001790919060201c565b9050600062000248600d5483620003f160201b62001a491790919060201c565b90506200027f600a546200026b83866200044f60201b62001ae41790919060201c565b6200033e60201b62001aa21790919060201c565b600d5550505b42600e81905550620002a8600a54426200044f60201b62001ae41790919060201c565b600c5560408051828152905160008051602062002a5d8339815191529181900360200190a16200033b565b620002ef600a54826200033e60201b62001aa21790919060201c565b600d55600b54600e819055600a546200031591906200044f602090811b62001ae417901c565b600c5560408051828152905160008051602062002a5d8339815191529181900360200190a15b50565b60006200038883836040518060400160405280601a81526020017f536166654d6174683a206469766973696f6e206279207a65726f000000000000815250620004aa60201b60201c565b90505b92915050565b60036011556009601255600c601355600f601455565b60006200038883836040518060400160405280601e81526020017f536166654d6174683a207375627472616374696f6e206f766572666c6f7700008152506200055160201b60201c565b60008262000402575060006200038b565b828202828482816200041057fe5b0414620003885760405162461bcd60e51b815260040180806020018281038252602181526020018062002a7d6021913960400191505060405180910390fd5b60008282018381101562000388576040805162461bcd60e51b815260206004820152601b60248201527f536166654d6174683a206164646974696f6e206f766572666c6f770000000000604482015290519081900360640190fd5b600081836200053a5760405162461bcd60e51b81526004018080602001828103825283818151815260200191508051906020019080838360005b83811015620004fe578181015183820152602001620004e4565b50505050905090810190601f1680156200052c5780820380516001836020036101000a031916815260200191505b509250505060405180910390fd5b5060008385816200054757fe5b0495945050505050565b60008184841115620005a65760405162461bcd60e51b8152602060048201818152835160248401528351909283926044909101919085019080838360008315620004fe578181015183820152602001620004e4565b505050900390565b61249f80620005be6000396000f3fe608060405234801561001057600080fd5b50600436106102d25760003560e01c8063715018a611610186578063abd70aa2116100e3578063df136d6511610097578063f0bc9fa711610071578063f0bc9fa7146105af578063f2fde38b146105b7578063f44c407a146105dd576102d2565b8063df136d6514610597578063e9fad8ee1461059f578063ebe2b12b146105a7576102d2565b8063c8f33c91116100c8578063c8f33c911461057f578063cd3daf9d14610587578063d285b7b41461058f576102d2565b8063abd70aa21461056f578063bca6ce6414610577576102d2565b806380faa57d1161013a5780638da588971161011f5780638da58897146105425780638da5cb5b1461054a578063a694fc3a14610552576102d2565b806380faa57d146105145780638b8763471461051c576102d2565b80637a4e4ecf1161016b5780637a4e4ecf146104d85780637b087fde146105045780637b0a47ee1461050c576102d2565b8063715018a6146104c8578063785e9e86146104d0576102d2565b80633c6b16ab116102345780635e0ab680116101e8578063646033bc116101cd578063646033bc146104925780636ea69d621461049a57806370a08231146104a2576102d2565b80635e0ab680146104825780635fbe4d1d1461048a576102d2565b8063430a063511610219578063430a06351461043757806347a005c61461043f57806351508f0a1461045c576102d2565b80633c6b16ab14610412578063424ad03d1461042f576102d2565b806318160ddd1161028b57806320ff430b1161027057806320ff430b146103995780632e1a7d4d146103cf5780633b5d441e146103ec576102d2565b806318160ddd146103895780631be0528914610391576102d2565b80630d68b761116102bc5780630d68b76114610335578063101114cf1461035d57806315ea88c414610381576102d2565b80628cc262146102d75780630700037d1461030f575b600080fd5b6102fd600480360360208110156102ed57600080fd5b50356001600160a01b03166105fa565b60408051918252519081900360200190f35b6102fd6004803603602081101561032557600080fd5b50356001600160a01b0316610680565b61035b6004803603602081101561034b57600080fd5b50356001600160a01b0316610692565b005b610365610736565b604080516001600160a01b039092168252519081900360200190f35b610365610745565b6102fd610754565b6102fd61075b565b61035b600480360360608110156103af57600080fd5b506001600160a01b03813581169160208101359091169060400135610761565b61035b600480360360208110156103e557600080fd5b5035610a15565b6102fd6004803603602081101561040257600080fd5b50356001600160a01b0316610b5f565b61035b6004803603602081101561042857600080fd5b5035610b71565b61035b610c33565b6102fd610d70565b61035b6004803603602081101561045557600080fd5b5035610d76565b61035b6004803603602081101561047257600080fd5b50356001600160a01b031661114e565b6102fd611255565b61036561125b565b6102fd61126a565b610365611270565b6102fd600480360360208110156104b857600080fd5b50356001600160a01b031661127f565b61035b61129a565b610365611366565b61035b600480360360408110156104ee57600080fd5b506001600160a01b038135169060200135611375565b6102fd611509565b6102fd61150f565b6102fd611515565b6102fd6004803603602081101561053257600080fd5b50356001600160a01b0316611528565b6102fd61153a565b610365611540565b61035b6004803603602081101561056857600080fd5b503561154f565b6102fd611699565b61036561172e565b6102fd61173d565b6102fd611743565b610365611797565b6102fd6117a6565b61035b6117ac565b6102fd6117c7565b6102fd6117cd565b61035b600480360360208110156105cd57600080fd5b50356001600160a01b03166117d3565b61035b600480360360208110156105f357600080fd5b50356118f6565b6001600160a01b038116600090815260176020908152604080832054601690925282205461067a919061066e90670de0b6b3a7640000906106629061064d90610641611743565b9063ffffffff611a0016565b6106568861127f565b9063ffffffff611a4916565b9063ffffffff611aa216565b9063ffffffff611ae416565b92915050565b60176020526000908152604090205481565b61069a611b3e565b6003546001600160a01b039081169116146106fc576040805162461bcd60e51b815260206004820181905260248201527f4f776e61626c653a2063616c6c6572206973206e6f7420746865206f776e6572604482015290519081900360640190fd5b600480547fffffffffffffffffffffffff0000000000000000000000000000000000000000166001600160a01b0392909216919091179055565b6004546001600160a01b031681565b6006546001600160a01b031681565b6001545b90565b600a5481565b610769611b3e565b6003546001600160a01b039081169116146107cb576040805162461bcd60e51b815260206004820181905260248201527f4f776e61626c653a2063616c6c6572206973206e6f7420746865206f776e6572604482015290519081900360640190fd5b6001600160a01b038316610826576040805162461bcd60e51b815260206004820152600a60248201527f6d757374206e6f74203000000000000000000000000000000000000000000000604482015290519081900360640190fd5b6000811161087b576040805162461bcd60e51b815260206004820152600960248201527f6d75737420677420300000000000000000000000000000000000000000000000604482015290519081900360640190fd5b6005546001600160a01b03838116911614156108de576040805162461bcd60e51b815260206004820152600e60248201527f6d757374206e6f74206572633230000000000000000000000000000000000000604482015290519081900360640190fd5b6000546001600160a01b0383811691161415610941576040805162461bcd60e51b815260206004820152601560248201527f6d757374206e6f74207468697320706c546f6b656e0000000000000000000000604482015290519081900360640190fd5b816001600160a01b031663a9059cbb84836040518363ffffffff1660e01b815260040180836001600160a01b03166001600160a01b0316815260200182815260200192505050602060405180830381600087803b1580156109a157600080fd5b505af11580156109b5573d6000803e3d6000fd5b505050506040513d60208110156109cb57600080fd5b50506040805182815290516001600160a01b0380851692908616917faabf44ab9d5bef08d1b60f287a337f0d11a248e49741ad189b429e47e98ba9109181900360200190a3505050565b33610a1e611743565b600f55610a29611515565b600e556001600160a01b03811615610a7057610a44816105fa565b6001600160a01b038216600090815260176020908152604080832093909355600f546016909152919020555b600b54421015610ac7576040805162461bcd60e51b815260206004820152600960248201527f6e6f742073746172740000000000000000000000000000000000000000000000604482015290519081900360640190fd5b60008211610b1c576040805162461bcd60e51b815260206004820152601160248201527f43616e6e6f742077697468647261772030000000000000000000000000000000604482015290519081900360640190fd5b610b2582611b42565b60408051838152905133917f7084f5476618d8e60b11ef0d7d3f06914655adb8793e28ff7f018d4c76d505d5919081900360200190a25050565b60106020526000908152604090205481565b6004546001600160a01b0316610b85611b3e565b6001600160a01b031614610bca5760405162461bcd60e51b81526004018080602001828103825260218152602001806123d96021913960400191505060405180910390fd5b6000610bd4611743565b600f55610bdf611515565b600e556001600160a01b03811615610c2657610bfa816105fa565b6001600160a01b038216600090815260176020908152604080832093909355600f546016909152919020555b610c2f82611ba3565b5050565b33610c3c611743565b600f55610c47611515565b600e556001600160a01b03811615610c8e57610c62816105fa565b6001600160a01b038216600090815260176020908152604080832093909355600f546016909152919020555b600b54421015610ce5576040805162461bcd60e51b815260206004820152600960248201527f6e6f742073746172740000000000000000000000000000000000000000000000604482015290519081900360640190fd5b33600090815260106020526040902054426201518090910110610d4f576040805162461bcd60e51b815260206004820152601f60248201527f596f7520676574207265776172642077697468696e20323420686f7572732100604482015290519081900360640190fd5b336000908152601060205260409020429055601154610d6d90611ce8565b50565b60115481565b33610d7f611743565b600f55610d8a611515565b600e556001600160a01b03811615610dd157610da5816105fa565b6001600160a01b038216600090815260176020908152604080832093909355600f546016909152919020555b600b54421015610e28576040805162461bcd60e51b815260206004820152600960248201527f6e6f742073746172740000000000000000000000000000000000000000000000604482015290519081900360640190fd5b600654604080517f5840e6590000000000000000000000000000000000000000000000000000000081526004810185905290516000926001600160a01b031691635840e659916024808301926020929190829003018186803b158015610e8d57600080fd5b505afa158015610ea1573d6000803e3d6000fd5b505050506040513d6020811015610eb757600080fd5b505190507ffffffffffffffffffffffffffffffffffffffffffffffffffffffffffffeae8042018110610f1b5760405162461bcd60e51b81526004018080602001828103825260248152602001806123fa6024913960400191505060405180910390fd5b600854604080517f3130c3ae0000000000000000000000000000000000000000000000000000000081523360048201526024810186905242604482015290516001600160a01b0390921691633130c3ae91606480820192602092909190829003018186803b158015610f8c57600080fd5b505afa158015610fa0573d6000803e3d6000fd5b505050506040513d6020811015610fb657600080fd5b5051610ff35760405162461bcd60e51b815260040180806020018281038252602881526020018061236a6028913960400191505060405180910390fd5b600654604080517fe1e0485e0000000000000000000000000000000000000000000000000000000081526004810186905290516000926001600160a01b03169163e1e0485e916024808301926020929190829003018186803b15801561105857600080fd5b505afa15801561106c573d6000803e3d6000fd5b505050506040513d602081101561108257600080fd5b505160125460ff909116915060018214156110a057506012546110c0565b81600214156110b257506013546110c0565b81600314156110c057506014545b6110c981611ce8565b600654604080517f22142e6c0000000000000000000000000000000000000000000000000000000081526004810188905290516001600160a01b03909216916322142e6c9160248082019260009290919082900301818387803b15801561112f57600080fd5b505af1158015611143573d6000803e3d6000fd5b505050505050505050565b611156611b3e565b6003546001600160a01b039081169116146111b8576040805162461bcd60e51b815260206004820181905260248201527f4f776e61626c653a2063616c6c6572206973206e6f7420746865206f776e6572604482015290519081900360640190fd5b6111ca816001600160a01b0316611e78565b61121b576040805162461bcd60e51b815260206004820152601b60248201527f4974206973206e6f7420636f6e74726163742061646472657373210000000000604482015290519081900360640190fd5b600980547fffffffffffffffffffffffff0000000000000000000000000000000000000000166001600160a01b0392909216919091179055565b60145481565b6000546001600160a01b031681565b60155481565b6009546001600160a01b031681565b6001600160a01b031660009081526002602052604090205490565b6112a2611b3e565b6003546001600160a01b03908116911614611304576040805162461bcd60e51b815260206004820181905260248201527f4f776e61626c653a2063616c6c6572206973206e6f7420746865206f776e6572604482015290519081900360640190fd5b6003546040516000916001600160a01b0316907f8be0079c531659141344cd1fd0a4f28419497f9722a3daafe3b4186f6b6457e0908390a3600380547fffffffffffffffffffffffff0000000000000000000000000000000000000000169055565b6005546001600160a01b031681565b61137d611b3e565b6003546001600160a01b039081169116146113df576040805162461bcd60e51b815260206004820181905260248201527f4f776e61626c653a2063616c6c6572206973206e6f7420746865206f776e6572604482015290519081900360640190fd5b6001600160a01b03821661143a576040805162461bcd60e51b815260206004820152600a60248201527f6d757374206e6f74203000000000000000000000000000000000000000000000604482015290519081900360640190fd5b6000811161148f576040805162461bcd60e51b815260206004820152600960248201527f6d75737420677420300000000000000000000000000000000000000000000000604482015290519081900360640190fd5b6040516001600160a01b0383169082156108fc029083906000818181858888f193505050501580156114c5573d6000803e3d6000fd5b506040805182815290516001600160a01b038416917f542fa6bfee3b4746210fbdd1d83f9e49b65adde3639f8d8f165dd18347938af2919081900360200190a25050565b60135481565b600d5481565b600061152342600c54611e7e565b905090565b60166020526000908152604090205481565b600b5481565b6003546001600160a01b031690565b33611558611743565b600f55611563611515565b600e556001600160a01b038116156115aa5761157e816105fa565b6001600160a01b038216600090815260176020908152604080832093909355600f546016909152919020555b600b54421015611601576040805162461bcd60e51b815260206004820152600960248201527f6e6f742073746172740000000000000000000000000000000000000000000000604482015290519081900360640190fd5b60008211611656576040805162461bcd60e51b815260206004820152600e60248201527f43616e6e6f74207374616b652030000000000000000000000000000000000000604482015290519081900360640190fd5b61165f82611e94565b60408051838152905133917f9e71bc8eea02a63969f509818f2dafb9254532904319f9dbda79b67bd34a5f3d919081900360200190a25050565b600554604080517f70a0823100000000000000000000000000000000000000000000000000000000815230600482015290516000926001600160a01b0316916370a08231916024808301926020929190829003018186803b1580156116fd57600080fd5b505afa158015611711573d6000803e3d6000fd5b505050506040513d602081101561172757600080fd5b5051905090565b6007546001600160a01b031681565b600e5481565b600061174d610754565b61175a5750600f54610758565b611523611788611768610754565b610662670de0b6b3a7640000610656600d54610656600e54610641611515565b600f549063ffffffff611ae416565b6008546001600160a01b031681565b600f5481565b6117bd6117b83361127f565b610a15565b6117c5610c33565b565b600c5481565b60125481565b6117db611b3e565b6003546001600160a01b0390811691161461183d576040805162461bcd60e51b815260206004820181905260248201527f4f776e61626c653a2063616c6c6572206973206e6f7420746865206f776e6572604482015290519081900360640190fd5b6001600160a01b0381166118825760405162461bcd60e51b81526004018080602001828103825260268152602001806123926026913960400191505060405180910390fd5b6003546040516001600160a01b038084169216907f8be0079c531659141344cd1fd0a4f28419497f9722a3daafe3b4186f6b6457e090600090a3600380547fffffffffffffffffffffffff0000000000000000000000000000000000000000166001600160a01b0392909216919091179055565b336118ff611743565b600f5561190a611515565b600e556001600160a01b0381161561195157611925816105fa565b6001600160a01b038216600090815260176020908152604080832093909355600f546016909152919020555b600b544210156119a8576040805162461bcd60e51b815260206004820152600960248201527f6e6f742073746172740000000000000000000000000000000000000000000000604482015290519081900360640190fd5b6119b13361127f565b8211156119ef5760405162461bcd60e51b81526004018080602001828103825260228152602001806124486022913960400191505060405180910390fd5b6119f882610a15565b610c2f610c33565b6000611a4283836040518060400160405280601e81526020017f536166654d6174683a207375627472616374696f6e206f766572666c6f770000815250611ef6565b9392505050565b600082611a585750600061067a565b82820282848281611a6557fe5b0414611a425760405162461bcd60e51b81526004018080602001828103825260218152602001806123b86021913960400191505060405180910390fd5b6000611a4283836040518060400160405280601a81526020017f536166654d6174683a206469766973696f6e206279207a65726f000000000000815250611f8d565b600082820183811015611a42576040805162461bcd60e51b815260206004820152601b60248201527f536166654d6174683a206164646974696f6e206f766572666c6f770000000000604482015290519081900360640190fd5b3390565b600154611b55908263ffffffff611a0016565b60015533600090815260026020526040902054611b78908263ffffffff611a0016565b336000818152600260205260408120929092559054610d6d916001600160a01b039091169083611ff2565b600b54421115611c7d57600c544210611bda57600a54611bca90829063ffffffff611aa216565b600d55611bd5612072565b611c29565b600c54600090611bf0904263ffffffff611a0016565b90506000611c09600d5483611a4990919063ffffffff16565b600a54909150611c2390610662858463ffffffff611ae416565b600d5550505b42600e819055600a54611c42919063ffffffff611ae416565b600c556040805182815290517fde88a922e0d3b88b24e9623efeb464919c6bf9f66857a65e2bfcf2ce87a9433d9181900360200190a1610d6d565b600a54611c9190829063ffffffff611aa216565b600d55600b54600e819055600a54611caf919063ffffffff611ae416565b600c556040805182815290517fde88a922e0d3b88b24e9623efeb464919c6bf9f66857a65e2bfcf2ce87a9433d9181900360200190a150565b33611cf1611743565b600f55611cfc611515565b600e556001600160a01b03811615611d4357611d17816105fa565b6001600160a01b038216600090815260176020908152604080832093909355600f546016909152919020555b600b54421015611d9a576040805162461bcd60e51b815260206004820152600960248201527f6e6f742073746172740000000000000000000000000000000000000000000000604482015290519081900360640190fd5b60648210611da757600080fd5b6000611db2336105fa565b90508015611e735733600081815260176020526040902060648584028190048085039092556015549192611e0392909190810384025b6005546001600160a01b03169291900463ffffffff611ff216565b600954601554611e21916001600160a01b0316906064908402611de8565b336001600160a01b03167fe2403640ba68fed3a2f88b7557551d1993f84b99bb10ff833f0cf8db0c5e04866064601554606403840281611e5d57fe5b60408051929091048252519081900360200190a2505b505050565b3b151590565b6000818310611e8d5781611a42565b5090919050565b600154611ea7908263ffffffff611ae416565b60015533600090815260026020526040902054611eca908263ffffffff611ae416565b336000818152600260205260408120929092559054610d6d916001600160a01b03909116903084612088565b60008184841115611f855760405162461bcd60e51b81526004018080602001828103825283818151815260200191508051906020019080838360005b83811015611f4a578181015183820152602001611f32565b50505050905090810190601f168015611f775780820380516001836020036101000a031916815260200191505b509250505060405180910390fd5b505050900390565b60008183611fdc5760405162461bcd60e51b8152602060048201818152835160248401528351909283926044909101919085019080838360008315611f4a578181015183820152602001611f32565b506000838581611fe857fe5b0495945050505050565b604080516001600160a01b038416602482015260448082018490528251808303909101815260649091019091526020810180517bffffffffffffffffffffffffffffffffffffffffffffffffffffffff167fa9059cbb00000000000000000000000000000000000000000000000000000000179052611e73908490612116565b60036011556009601255600c601355600f601455565b604080516001600160a01b0380861660248301528416604482015260648082018490528251808303909101815260849091019091526020810180517bffffffffffffffffffffffffffffffffffffffffffffffffffffffff167f23b872dd00000000000000000000000000000000000000000000000000000000179052612110908590612116565b50505050565b606061216b826040518060400160405280602081526020017f5361666545524332303a206c6f772d6c6576656c2063616c6c206661696c6564815250856001600160a01b03166121c79092919063ffffffff16565b805190915015611e735780806020019051602081101561218a57600080fd5b5051611e735760405162461bcd60e51b815260040180806020018281038252602a81526020018061241e602a913960400191505060405180910390fd5b60606121d684846000856121de565b949350505050565b60606121e985611e78565b61223a576040805162461bcd60e51b815260206004820152601d60248201527f416464726573733a2063616c6c20746f206e6f6e2d636f6e7472616374000000604482015290519081900360640190fd5b60006060866001600160a01b031685876040518082805190602001908083835b6020831061229757805182527fffffffffffffffffffffffffffffffffffffffffffffffffffffffffffffffe0909201916020918201910161225a565b6001836020036101000a03801982511681845116808217855250505050505090500191505060006040518083038185875af1925050503d80600081146122f9576040519150601f19603f3d011682016040523d82523d6000602084013e6122fe565b606091505b509150915081156123125791506121d69050565b8051156123225780518082602001fd5b60405162461bcd60e51b8152602060048201818152865160248401528651879391928392604401919085019080838360008315611f4a578181015183820152602001611f3256fe596f7520646f206e6f74206861766520726967687420746f20757365207468697320746f6b656e214f776e61626c653a206e6577206f776e657220697320746865207a65726f2061646472657373536166654d6174683a206d756c7469706c69636174696f6e206f766572666c6f7743616c6c6572206973206e6f742072657761726420646973747269627574696f6e54686973207469636b657420697320757365642077697468696e20323420686f757273215361666545524332303a204552433230206f7065726174696f6e20646964206e6f74207375636365656443616e6e6f7420776974686472617720657863656564207468652062616c616e6365a2646970667358221220e4877c8d5ddf8108cdab4d862a24fe8127cbb2ea668cf7553e87d1513ec001a064736f6c63430006020033de88a922e0d3b88b24e9623efeb464919c6bf9f66857a65e2bfcf2ce87a9433d536166654d6174683a206d756c7469706c69636174696f6e206f766572666c6f77",
  "source": "pragma solidity ^0.6.0;\n\nimport \"../common/hotpotinterface.sol\";\nimport \"../common/ILoan.sol\";\nimport \"@openzeppelin/contracts/math/Math.sol\";\nimport \"@openzeppelin/contracts/math/SafeMath.sol\";\nimport \"@openzeppelin/contracts/token/ERC721/IERC721.sol\";\nimport \"@openzeppelin/contracts/token/ERC20/IERC20.sol\";\nimport \"@openzeppelin/contracts/token/ERC20/SafeERC20.sol\";\nimport \"@openzeppelin/contracts/access/Ownable.sol\";\nimport \"@openzeppelin/contracts/utils/Address.sol\";\n\nabstract contract IRewardDistributionRecipient is Ownable {\n    address public rewardDistribution;\n\n    function notifyRewardAmount(uint256 reward) external virtual;\n\n    modifier onlyRewardDistribution() {\n        require(\n            _msgSender() == rewardDistribution,\n            \"Caller is not reward distribution\"\n        );\n        _;\n    }\n\n    function setRewardDistribution(address _rewardDistribution)\n        external\n        onlyOwner\n    {\n        rewardDistribution = _rewardDistribution;\n    }\n}\n\ncontract LPTokenWrapper {\n    using SafeMath for uint256;\n    using SafeERC20 for IERC20;\n\n    IERC20 public tokenAddr;\n    uint256 private _totalSupply;\n    mapping(address => uint256) private _balances;\n\n    function totalSupply() public view returns (uint256) {\n        return _totalSupply;\n    }\n\n    function balanceOf(address account) public view returns (uint256) {\n        return _balances[account];\n    }\n\n    function stake(uint256 amount) public virtual {\n        _totalSupply = _totalSupply.add(amount);\n        _balances[msg.sender] = _balances[msg.sender].add(amount);\n        tokenAddr.safeTransferFrom(msg.sender, address(this), amount);\n    }\n\n    function withdraw(uint256 amount) public virtual {\n        _totalSupply = _totalSupply.sub(amount);\n        _balances[msg.sender] = _balances[msg.sender].sub(amount);\n        tokenAddr.safeTransfer(msg.sender, amount);\n    }\n}\n\ncontract StakePool is LPTokenWrapper, IRewardDistributionRecipient {\n    using Address for address;\n    using SafeERC20 for IERC20;\n    IERC20 public erc20;\n    IHotPot public hotpot;\n    IERC721 public erc721;\n    ILoan public loan;\n\n    address public rewardContract;\n    uint256 public DURATION = 604800;\n\n    uint256 public starttime = 1601391600;\n    uint256 public periodFinish = 0;\n    uint256 public rewardRate = 0;\n    uint256 public lastUpdateTime;\n    uint256 public rewardPerTokenStored;\n\n    mapping(address => uint256) public lastRewardTime;\n\n    uint256 public freeRewardRatio = 5;\n    uint256 public grade1RewardRatio = 10;\n    uint256 public grade2RewardRatio = 15;\n    uint256 public grade3RewardRatio = 20;\n\n    uint256 public rewardRatio = 30;\n\n    mapping(address => uint256) public userRewardPerTokenPaid;\n    mapping(address => uint256) public rewards;\n\n    event RewardAdded(uint256 reward);\n    event Staked(address indexed user, uint256 amount);\n    event Withdrawn(address indexed user, uint256 amount);\n    event RewardPaid(address indexed user, uint256 reward);\n    event Rescue(address indexed dst, uint256 sad);\n    event RescueToken(address indexed dst, address indexed token, uint256 sad);\n\n\n    function notifyRewardAmount(uint256 reward)\n        external\n        override\n        onlyRewardDistribution\n        updateReward(address(0))\n    {\n        _nofityReward(reward);\n    }\n\n    function _nofityReward(uint256 reward) internal{\n        if (block.timestamp > starttime) {\n            if (block.timestamp >= periodFinish) {\n                rewardRate = reward.div(DURATION);\n                _decreaseRewardRatio();\n            } else {\n                uint256 remaining = periodFinish.sub(block.timestamp);\n                uint256 leftover = remaining.mul(rewardRate);\n                rewardRate = reward.add(leftover).div(DURATION);\n            }\n            lastUpdateTime = block.timestamp;\n            periodFinish = block.timestamp.add(DURATION);\n            emit RewardAdded(reward);\n        } else {\n            rewardRate = reward.div(DURATION);\n            lastUpdateTime = starttime;\n            periodFinish = starttime.add(DURATION);\n            emit RewardAdded(reward);\n        }\n    }\n    \n    constructor(\n        address _stakeERC20,\n        address _hotpotNFT,\n        address _hotpotERC20,\n        address _loan,\n        address _reward,\n        uint256 _starttime,\n        uint256 duration,\n        uint256 _rewardAmount\n    ) public {\n        tokenAddr = IERC20(_stakeERC20);\n        hotpot = IHotPot(_hotpotNFT);\n        erc721 = IERC721(_hotpotNFT);\n        erc20 = IERC20(_hotpotERC20);\n        loan = ILoan(_loan);\n        rewardContract = _reward;\n        rewardDistribution = _msgSender();\n        starttime = _starttime;\n        DURATION = duration;\n        _nofityReward(_rewardAmount);\n    }\n\n    function getPoolBalance() external view returns(uint256){\n        return erc20.balanceOf(address(this));\n    }\n\n    function setRewardContract(address _addr) external onlyOwner {\n        require(_addr.isContract(), \"It is not contract address!\");\n        rewardContract = _addr;\n    }\n\n    modifier checkStart() {\n        require(block.timestamp >= starttime, \"not start\");\n        _;\n    }\n\n    modifier updateReward(address account) {\n        rewardPerTokenStored = rewardPerToken();\n        lastUpdateTime = lastTimeRewardApplicable();\n        if (account != address(0)) {\n            rewards[account] = earned(account);\n            userRewardPerTokenPaid[account] = rewardPerTokenStored;\n        }\n        _;\n    }\n\n    function lastTimeRewardApplicable() public view returns (uint256) {\n        return Math.min(block.timestamp, periodFinish);\n    }\n\n    function rewardPerToken() public view returns (uint256) {\n        if (totalSupply() == 0) {\n            return rewardPerTokenStored;\n        }\n        return\n            rewardPerTokenStored.add(\n                lastTimeRewardApplicable()\n                    .sub(lastUpdateTime)\n                    .mul(rewardRate)\n                    .mul(1e18)\n                    .div(totalSupply())\n            );\n    }\n\n    function earned(address account) public view returns (uint256) {\n        return\n            balanceOf(account)\n                .mul(rewardPerToken().sub(userRewardPerTokenPaid[account]))\n                .div(1e18)\n                .add(rewards[account]);\n    }\n\n    function stake(uint256 amount)\n        public\n        override\n        updateReward(msg.sender)\n        checkStart\n    {\n        require(amount > 0, \"Cannot stake 0\");\n        super.stake(amount);\n        emit Staked(msg.sender, amount);\n    }\n\n    function _getReward(uint256 _percent)\n        internal\n        updateReward(msg.sender)\n        checkStart\n    {\n        require(_percent < 100);\n        uint256 trueReward = earned(msg.sender);\n        if (trueReward > 0) {\n            uint256 reward = (trueReward * _percent) / 100;\n\n            rewards[msg.sender] = trueReward - reward;\n            erc20.safeTransfer(\n                msg.sender,\n                (reward * (100 - rewardRatio)) / 100\n            );\n            erc20.safeTransfer(rewardContract, (reward * rewardRatio) / 100);\n            emit RewardPaid(msg.sender, (reward * (100 - rewardRatio)) / 100);\n        }\n    }\n\n    function getRewardFree() public updateReward(msg.sender) checkStart {\n        require(\n            lastRewardTime[msg.sender] + 24 * 60 * 60 < now,\n            \"You get reward within 24 hours!\"\n        );\n        lastRewardTime[msg.sender] = now;\n        _getReward(freeRewardRatio);\n    }\n\n    function getRewardByNFT(uint256 _tokenId)\n        public\n        updateReward(msg.sender)\n        checkStart\n    {\n        //1.check the NFT is used?\n        uint256 time = hotpot.getUseTime(_tokenId);\n        require(\n            time < now - 24 * 60 * 60,\n            \"This ticket is used within 24 hours!\"\n        );\n\n        require(\n            loan.checkPrivilege(msg.sender, _tokenId, now),\n            \"You do not have right to use this token!\"\n        );\n\n        uint256 grade = hotpot.getGrade(_tokenId);\n        uint256 percent = grade1RewardRatio;\n        if (grade == 1) {\n            percent = grade1RewardRatio;\n        } else if (grade == 2) {\n            percent = grade2RewardRatio;\n        } else if (grade == 3) {\n            percent = grade3RewardRatio;\n        }\n        _getReward(percent);\n        hotpot.setUse(_tokenId);\n    }\n\n    function withdraw(uint256 amount)\n        public\n        override\n        updateReward(msg.sender)\n        checkStart\n    {\n        require(amount > 0, \"Cannot withdraw 0\");\n        super.withdraw(amount);\n        emit Withdrawn(msg.sender, amount);\n    }\n\n    function withdrawAndGetReward(uint256 amount)\n        public\n        updateReward(msg.sender)\n        checkStart\n    {\n        require(\n            amount <= balanceOf(msg.sender),\n            \"Cannot withdraw exceed the balance\"\n        );\n        withdraw(amount);\n        getRewardFree();\n    }\n\n    function exit() external {\n        withdraw(balanceOf(msg.sender));\n        getRewardFree();\n    }\n\n    function _decreaseRewardRatio() internal {\n        freeRewardRatio = 3;\n        grade1RewardRatio = 9;\n        grade2RewardRatio = 12;\n        grade3RewardRatio = 15;\n    }\n\n\n    function rescue(address payable to_, uint256 amount_) external onlyOwner {\n        require(to_ != address(0), \"must not 0\");\n        require(amount_ > 0, \"must gt 0\");\n\n        to_.transfer(amount_);\n        emit Rescue(to_, amount_);\n    }\n\n    function rescue(\n        address to_,\n        IERC20 token_,\n        uint256 amount_\n    ) external onlyOwner {\n        require(to_ != address(0), \"must not 0\");\n        require(amount_ > 0, \"must gt 0\");\n        require(token_ != erc20, \"must not erc20\");\n        require(token_ != tokenAddr, \"must not this plToken\");\n\n        token_.transfer(to_, amount_);\n        emit RescueToken(to_, address(token_), amount_);\n    }\n}\n",
  "sourcePath": "/Users/junhu/git/hotpotcontract/truffle/contracts/stake/StakePool.sol",
  "compiler": {
    "name": "solc",
    "version": "0.6.2+commit.bacdbe57.Emscripten.clang"
  },
  "schemaVersion": "3.3.0",
  "updatedAt": "2020-10-20T06:47:38.412Z",
  "networkType": "ethereum",
  "devdoc": {
    "methods": {
      "owner()": {
        "details": "Returns the address of the current owner."
      },
      "renounceOwnership()": {
        "details": "Leaves the contract without owner. It will not be possible to call `onlyOwner` functions anymore. Can only be called by the current owner.     * NOTE: Renouncing ownership will leave the contract without an owner, thereby removing any functionality that is only available to the owner."
      },
      "transferOwnership(address)": {
        "details": "Transfers ownership of the contract to a new account (`newOwner`). Can only be called by the current owner."
      }
    }
  },
  "userdoc": {
    "methods": {}
  }
}