{
  "contractName": "StakePool",
  "abi": [
    {
      "inputs": [
        {
          "internalType": "address",
          "name": "_stakeERC20",
          "type": "address"
        },
        {
          "internalType": "address",
          "name": "_hotpotNFT",
          "type": "address"
        },
        {
          "internalType": "address",
          "name": "_hotpotERC20",
          "type": "address"
        },
        {
          "internalType": "address",
          "name": "_loan",
          "type": "address"
        },
        {
          "internalType": "address",
          "name": "_reward",
          "type": "address"
        },
        {
          "internalType": "uint256",
          "name": "_starttime",
          "type": "uint256"
        },
        {
          "internalType": "uint256",
          "name": "duration",
          "type": "uint256"
        },
        {
          "internalType": "uint256",
          "name": "_rewardAmount",
          "type": "uint256"
        }
      ],
      "stateMutability": "nonpayable",
      "type": "constructor"
    },
    {
      "anonymous": false,
      "inputs": [
        {
          "indexed": true,
          "internalType": "address",
          "name": "previousOwner",
          "type": "address"
        },
        {
          "indexed": true,
          "internalType": "address",
          "name": "newOwner",
          "type": "address"
        }
      ],
      "name": "OwnershipTransferred",
      "type": "event"
    },
    {
      "anonymous": false,
      "inputs": [
        {
          "indexed": true,
          "internalType": "address",
          "name": "dst",
          "type": "address"
        },
        {
          "indexed": false,
          "internalType": "uint256",
          "name": "sad",
          "type": "uint256"
        }
      ],
      "name": "Rescue",
      "type": "event"
    },
    {
      "anonymous": false,
      "inputs": [
        {
          "indexed": true,
          "internalType": "address",
          "name": "dst",
          "type": "address"
        },
        {
          "indexed": true,
          "internalType": "address",
          "name": "token",
          "type": "address"
        },
        {
          "indexed": false,
          "internalType": "uint256",
          "name": "sad",
          "type": "uint256"
        }
      ],
      "name": "RescueToken",
      "type": "event"
    },
    {
      "anonymous": false,
      "inputs": [
        {
          "indexed": false,
          "internalType": "uint256",
          "name": "reward",
          "type": "uint256"
        }
      ],
      "name": "RewardChanged",
      "type": "event"
    },
    {
      "anonymous": false,
      "inputs": [
        {
          "indexed": true,
          "internalType": "address",
          "name": "user",
          "type": "address"
        },
        {
          "indexed": false,
          "internalType": "uint256",
          "name": "reward",
          "type": "uint256"
        },
        {
          "indexed": false,
          "internalType": "uint256",
          "name": "percent",
          "type": "uint256"
        }
      ],
      "name": "RewardPaid",
      "type": "event"
    },
    {
      "anonymous": false,
      "inputs": [
        {
          "indexed": true,
          "internalType": "address",
          "name": "user",
          "type": "address"
        },
        {
          "indexed": false,
          "internalType": "uint256",
          "name": "amount",
          "type": "uint256"
        }
      ],
      "name": "Staked",
      "type": "event"
    },
    {
      "anonymous": false,
      "inputs": [
        {
          "indexed": true,
          "internalType": "address",
          "name": "user",
          "type": "address"
        },
        {
          "indexed": false,
          "internalType": "uint256",
          "name": "amount",
          "type": "uint256"
        }
      ],
      "name": "Withdrawn",
      "type": "event"
    },
    {
      "inputs": [],
      "name": "DURATION",
      "outputs": [
        {
          "internalType": "uint256",
          "name": "",
          "type": "uint256"
        }
      ],
      "stateMutability": "view",
      "type": "function"
    },
    {
      "inputs": [
        {
          "internalType": "address",
          "name": "account",
          "type": "address"
        }
      ],
      "name": "balanceOf",
      "outputs": [
        {
          "internalType": "uint256",
          "name": "",
          "type": "uint256"
        }
      ],
      "stateMutability": "view",
      "type": "function"
    },
    {
      "inputs": [],
      "name": "erc20",
      "outputs": [
        {
          "internalType": "contract IERC20",
          "name": "",
          "type": "address"
        }
      ],
      "stateMutability": "view",
      "type": "function"
    },
    {
      "inputs": [],
      "name": "erc721",
      "outputs": [
        {
          "internalType": "contract IERC721",
          "name": "",
          "type": "address"
        }
      ],
      "stateMutability": "view",
      "type": "function"
    },
    {
      "inputs": [],
      "name": "freeRewardRatio",
      "outputs": [
        {
          "internalType": "uint256",
          "name": "",
          "type": "uint256"
        }
      ],
      "stateMutability": "view",
      "type": "function"
    },
    {
      "inputs": [],
      "name": "grade1RewardRatio",
      "outputs": [
        {
          "internalType": "uint256",
          "name": "",
          "type": "uint256"
        }
      ],
      "stateMutability": "view",
      "type": "function"
    },
    {
      "inputs": [],
      "name": "grade2RewardRatio",
      "outputs": [
        {
          "internalType": "uint256",
          "name": "",
          "type": "uint256"
        }
      ],
      "stateMutability": "view",
      "type": "function"
    },
    {
      "inputs": [],
      "name": "grade3RewardRatio",
      "outputs": [
        {
          "internalType": "uint256",
          "name": "",
          "type": "uint256"
        }
      ],
      "stateMutability": "view",
      "type": "function"
    },
    {
      "inputs": [],
      "name": "hotpot",
      "outputs": [
        {
          "internalType": "contract IHotPot",
          "name": "",
          "type": "address"
        }
      ],
      "stateMutability": "view",
      "type": "function"
    },
    {
      "inputs": [
        {
          "internalType": "address",
          "name": "",
          "type": "address"
        }
      ],
      "name": "lastRewardTime",
      "outputs": [
        {
          "internalType": "uint256",
          "name": "",
          "type": "uint256"
        }
      ],
      "stateMutability": "view",
      "type": "function"
    },
    {
      "inputs": [],
      "name": "lastUpdateTime",
      "outputs": [
        {
          "internalType": "uint256",
          "name": "",
          "type": "uint256"
        }
      ],
      "stateMutability": "view",
      "type": "function"
    },
    {
      "inputs": [],
      "name": "loan",
      "outputs": [
        {
          "internalType": "contract ILoan",
          "name": "",
          "type": "address"
        }
      ],
      "stateMutability": "view",
      "type": "function"
    },
    {
      "inputs": [],
      "name": "owner",
      "outputs": [
        {
          "internalType": "address",
          "name": "",
          "type": "address"
        }
      ],
      "stateMutability": "view",
      "type": "function"
    },
    {
      "inputs": [],
      "name": "periodFinish",
      "outputs": [
        {
          "internalType": "uint256",
          "name": "",
          "type": "uint256"
        }
      ],
      "stateMutability": "view",
      "type": "function"
    },
    {
      "inputs": [],
      "name": "renounceOwnership",
      "outputs": [],
      "stateMutability": "nonpayable",
      "type": "function"
    },
    {
      "inputs": [],
      "name": "rewardContract",
      "outputs": [
        {
          "internalType": "address",
          "name": "",
          "type": "address"
        }
      ],
      "stateMutability": "view",
      "type": "function"
    },
    {
      "inputs": [],
      "name": "rewardDistribution",
      "outputs": [
        {
          "internalType": "address",
          "name": "",
          "type": "address"
        }
      ],
      "stateMutability": "view",
      "type": "function"
    },
    {
      "inputs": [],
      "name": "rewardPerTokenStored",
      "outputs": [
        {
          "internalType": "uint256",
          "name": "",
          "type": "uint256"
        }
      ],
      "stateMutability": "view",
      "type": "function"
    },
    {
      "inputs": [],
      "name": "rewardRate",
      "outputs": [
        {
          "internalType": "uint256",
          "name": "",
          "type": "uint256"
        }
      ],
      "stateMutability": "view",
      "type": "function"
    },
    {
      "inputs": [],
      "name": "rewardRatio",
      "outputs": [
        {
          "internalType": "uint256",
          "name": "",
          "type": "uint256"
        }
      ],
      "stateMutability": "view",
      "type": "function"
    },
    {
      "inputs": [
        {
          "internalType": "address",
          "name": "",
          "type": "address"
        }
      ],
      "name": "rewards",
      "outputs": [
        {
          "internalType": "uint256",
          "name": "",
          "type": "uint256"
        }
      ],
      "stateMutability": "view",
      "type": "function"
    },
    {
      "inputs": [
        {
          "internalType": "address",
          "name": "_rewardDistribution",
          "type": "address"
        }
      ],
      "name": "setRewardDistribution",
      "outputs": [],
      "stateMutability": "nonpayable",
      "type": "function"
    },
    {
      "inputs": [],
      "name": "starttime",
      "outputs": [
        {
          "internalType": "uint256",
          "name": "",
          "type": "uint256"
        }
      ],
      "stateMutability": "view",
      "type": "function"
    },
    {
      "inputs": [],
      "name": "tokenAddr",
      "outputs": [
        {
          "internalType": "contract IERC20",
          "name": "",
          "type": "address"
        }
      ],
      "stateMutability": "view",
      "type": "function"
    },
    {
      "inputs": [],
      "name": "totalSupply",
      "outputs": [
        {
          "internalType": "uint256",
          "name": "",
          "type": "uint256"
        }
      ],
      "stateMutability": "view",
      "type": "function"
    },
    {
      "inputs": [
        {
          "internalType": "address",
          "name": "newOwner",
          "type": "address"
        }
      ],
      "name": "transferOwnership",
      "outputs": [],
      "stateMutability": "nonpayable",
      "type": "function"
    },
    {
      "inputs": [
        {
          "internalType": "address",
          "name": "",
          "type": "address"
        }
      ],
      "name": "userRewardPerTokenPaid",
      "outputs": [
        {
          "internalType": "uint256",
          "name": "",
          "type": "uint256"
        }
      ],
      "stateMutability": "view",
      "type": "function"
    },
    {
      "inputs": [
        {
          "internalType": "uint256",
          "name": "reward",
          "type": "uint256"
        }
      ],
      "name": "notifyRewardAmount",
      "outputs": [],
      "stateMutability": "nonpayable",
      "type": "function"
    },
    {
      "inputs": [],
      "name": "getPoolBalance",
      "outputs": [
        {
          "internalType": "uint256",
          "name": "",
          "type": "uint256"
        }
      ],
      "stateMutability": "view",
      "type": "function"
    },
    {
      "inputs": [
        {
          "internalType": "address",
          "name": "_addr",
          "type": "address"
        }
      ],
      "name": "setRewardContract",
      "outputs": [],
      "stateMutability": "nonpayable",
      "type": "function"
    },
    {
      "inputs": [],
      "name": "getBlockTime",
      "outputs": [
        {
          "internalType": "uint256",
          "name": "",
          "type": "uint256"
        }
      ],
      "stateMutability": "view",
      "type": "function"
    },
    {
      "inputs": [],
      "name": "lastTimeRewardApplicable",
      "outputs": [
        {
          "internalType": "uint256",
          "name": "",
          "type": "uint256"
        }
      ],
      "stateMutability": "view",
      "type": "function"
    },
    {
      "inputs": [],
      "name": "rewardPerToken",
      "outputs": [
        {
          "internalType": "uint256",
          "name": "",
          "type": "uint256"
        }
      ],
      "stateMutability": "view",
      "type": "function"
    },
    {
      "inputs": [
        {
          "internalType": "address",
          "name": "account",
          "type": "address"
        }
      ],
      "name": "earned",
      "outputs": [
        {
          "internalType": "uint256",
          "name": "",
          "type": "uint256"
        }
      ],
      "stateMutability": "view",
      "type": "function"
    },
    {
      "inputs": [
        {
          "internalType": "uint256",
          "name": "amount",
          "type": "uint256"
        }
      ],
      "name": "stake",
      "outputs": [],
      "stateMutability": "nonpayable",
      "type": "function"
    },
    {
      "inputs": [],
      "name": "getRewardFree",
      "outputs": [],
      "stateMutability": "nonpayable",
      "type": "function"
    },
    {
      "inputs": [
        {
          "internalType": "uint256",
          "name": "_tokenId",
          "type": "uint256"
        }
      ],
      "name": "getRewardByNFT",
      "outputs": [],
      "stateMutability": "nonpayable",
      "type": "function"
    },
    {
      "inputs": [
        {
          "internalType": "uint256",
          "name": "amount",
          "type": "uint256"
        }
      ],
      "name": "withdraw",
      "outputs": [],
      "stateMutability": "nonpayable",
      "type": "function"
    },
    {
      "inputs": [
        {
          "internalType": "address",
          "name": "to_",
          "type": "address"
        },
        {
          "internalType": "contract IERC20",
          "name": "token_",
          "type": "address"
        },
        {
          "internalType": "uint256",
          "name": "amount_",
          "type": "uint256"
        }
      ],
      "name": "rescue",
      "outputs": [],
      "stateMutability": "nonpayable",
      "type": "function"
    },
    {
      "inputs": [
        {
          "internalType": "address payable",
          "name": "to_",
          "type": "address"
        },
        {
          "internalType": "uint256",
          "name": "amount_",
          "type": "uint256"
        }
      ],
      "name": "rescue",
      "outputs": [],
      "stateMutability": "nonpayable",
      "type": "function"
    }
  ],
  "bytecode": "0x608060405262093a80600a55635f734bf0600b556000600c556000600d556005601155600a601255600f60135560148055601e6015553480156200004257600080fd5b5060405162002a0138038062002a0183398181016040526101008110156200006957600080fd5b508051602082015160408301516060840151608085015160a086015160c087015160e0909701519596949593949293919290916000620000b16001600160e01b03620001b916565b600380546001600160a01b0319166001600160a01b038316908117909155604051919250906000907f8be0079c531659141344cd1fd0a4f28419497f9722a3daafe3b4186f6b6457e0908290a350600080546001600160a01b03808b166001600160a01b031992831617909255600680548a84169083168117909155600780548316909117905560058054898416908316179055600880548884169083161790556009805492871692909116919091179055620001766001600160e01b03620001b916565b600480546001600160a01b0319166001600160a01b0392909216919091179055600b839055600a829055620001ab81620001bd565b50505050505050506200059f565b3390565b600b54421115620002d357600c5442106200020a57620001ee600a54826200033e60201b62001a2f1790919060201c565b600d55620002046001600160e01b036200039116565b62000285565b60006200022842600c546200039860201b6200198d1790919060201c565b9050600062000248600d5483620003e260201b620019d61790919060201c565b90506200027f600a546200026b83866200044060201b62001a711790919060201c565b6200033e60201b62001a2f1790919060201c565b600d5550505b42600e81905550620002a8600a54426200044060201b62001a711790919060201c565b600c55604080518281529051600080516020620029e18339815191529181900360200190a16200033b565b620002ef600a54826200033e60201b62001a2f1790919060201c565b600d55600b54600e819055600a5462000315919062000440602090811b62001a7117901c565b600c55604080518281529051600080516020620029e18339815191529181900360200190a15b50565b60006200038883836040518060400160405280601a81526020017f536166654d6174683a206469766973696f6e206279207a65726f0000000000008152506200049b60201b60201c565b90505b92915050565b6003601155565b60006200038883836040518060400160405280601e81526020017f536166654d6174683a207375627472616374696f6e206f766572666c6f7700008152506200054260201b60201c565b600082620003f3575060006200038b565b828202828482816200040157fe5b0414620003885760405162461bcd60e51b8152600401808060200182810382526021815260200180620029c06021913960400191505060405180910390fd5b60008282018381101562000388576040805162461bcd60e51b815260206004820152601b60248201527f536166654d6174683a206164646974696f6e206f766572666c6f770000000000604482015290519081900360640190fd5b600081836200052b5760405162461bcd60e51b81526004018080602001828103825283818151815260200191508051906020019080838360005b83811015620004ef578181015183820152602001620004d5565b50505050905090810190601f1680156200051d5780820380516001836020036101000a031916815260200191505b509250505060405180910390fd5b5060008385816200053857fe5b0495945050505050565b60008184841115620005975760405162461bcd60e51b8152602060048201818152835160248401528351909283926044909101919085019080838360008315620004ef578181015183820152602001620004d5565b505050900390565b61241180620005af6000396000f3fe608060405234801561001057600080fd5b50600436106102c75760003560e01c8063715018a61161017b578063a694fc3a116100d8578063d285b7b41161008c578063ebe2b12b11610071578063ebe2b12b1461059c578063f0bc9fa7146105a4578063f2fde38b146105ac576102c7565b8063d285b7b41461058c578063df136d6514610594576102c7565b8063bca6ce64116100bd578063bca6ce6414610574578063c8f33c911461057c578063cd3daf9d14610584576102c7565b8063a694fc3a1461054f578063abd70aa21461056c576102c7565b806380faa57d1161012f5780638b876347116101145780638b876347146105195780638da588971461053f5780638da5cb5b14610547576102c7565b806380faa57d1461050957806387ceff0914610511576102c7565b80637a4e4ecf116101605780637a4e4ecf146104cd5780637b087fde146104f95780637b0a47ee14610501576102c7565b8063715018a6146104bd578063785e9e86146104c5576102c7565b80633c6b16ab116102295780635e0ab680116101dd578063646033bc116101c2578063646033bc146104875780636ea69d621461048f57806370a0823114610497576102c7565b80635e0ab680146104775780635fbe4d1d1461047f576102c7565b8063430a06351161020e578063430a06351461042c57806347a005c61461043457806351508f0a14610451576102c7565b80633c6b16ab14610407578063424ad03d14610424576102c7565b806318160ddd1161028057806320ff430b1161026557806320ff430b1461038e5780632e1a7d4d146103c45780633b5d441e146103e1576102c7565b806318160ddd1461037e5780631be0528914610386576102c7565b80630d68b761116102b15780630d68b7611461032a578063101114cf1461035257806315ea88c414610376576102c7565b80628cc262146102cc5780630700037d14610304575b600080fd5b6102f2600480360360208110156102e257600080fd5b50356001600160a01b03166105d2565b60408051918252519081900360200190f35b6102f26004803603602081101561031a57600080fd5b50356001600160a01b0316610658565b6103506004803603602081101561034057600080fd5b50356001600160a01b031661066a565b005b61035a61070e565b604080516001600160a01b039092168252519081900360200190f35b61035a61071d565b6102f261072c565b6102f2610733565b610350600480360360608110156103a457600080fd5b506001600160a01b03813581169160208101359091169060400135610739565b610350600480360360208110156103da57600080fd5b50356109ed565b6102f2600480360360208110156103f757600080fd5b50356001600160a01b0316610b37565b6103506004803603602081101561041d57600080fd5b5035610b49565b610350610c0b565b6102f2610d48565b6103506004803603602081101561044a57600080fd5b5035610d4e565b6103506004803603602081101561046757600080fd5b50356001600160a01b03166111fc565b6102f2611303565b61035a611309565b6102f2611318565b61035a61131e565b6102f2600480360360208110156104ad57600080fd5b50356001600160a01b031661132d565b610350611348565b61035a611414565b610350600480360360408110156104e357600080fd5b506001600160a01b038135169060200135611423565b6102f26115b7565b6102f26115bd565b6102f26115c3565b6102f26115d6565b6102f26004803603602081101561052f57600080fd5b50356001600160a01b03166115da565b6102f26115ec565b61035a6115f2565b6103506004803603602081101561056557600080fd5b5035611601565b6102f261174b565b61035a6117e0565b6102f26117ef565b6102f26117f5565b61035a611849565b6102f2611858565b6102f261185e565b6102f2611864565b610350600480360360208110156105c257600080fd5b50356001600160a01b031661186a565b6001600160a01b0381166000908152601760209081526040808320546016909252822054610652919061064690670de0b6b3a76400009061063a90610625906106196117f5565b9063ffffffff61198d16565b61062e8861132d565b9063ffffffff6119d616565b9063ffffffff611a2f16565b9063ffffffff611a7116565b92915050565b60176020526000908152604090205481565b610672611acb565b6003546001600160a01b039081169116146106d4576040805162461bcd60e51b815260206004820181905260248201527f4f776e61626c653a2063616c6c6572206973206e6f7420746865206f776e6572604482015290519081900360640190fd5b600480547fffffffffffffffffffffffff0000000000000000000000000000000000000000166001600160a01b0392909216919091179055565b6004546001600160a01b031681565b6006546001600160a01b031681565b6001545b90565b600a5481565b610741611acb565b6003546001600160a01b039081169116146107a3576040805162461bcd60e51b815260206004820181905260248201527f4f776e61626c653a2063616c6c6572206973206e6f7420746865206f776e6572604482015290519081900360640190fd5b6001600160a01b0383166107fe576040805162461bcd60e51b815260206004820152600a60248201527f6d757374206e6f74203000000000000000000000000000000000000000000000604482015290519081900360640190fd5b60008111610853576040805162461bcd60e51b815260206004820152600960248201527f6d75737420677420300000000000000000000000000000000000000000000000604482015290519081900360640190fd5b6005546001600160a01b03838116911614156108b6576040805162461bcd60e51b815260206004820152600e60248201527f6d757374206e6f74206572633230000000000000000000000000000000000000604482015290519081900360640190fd5b6000546001600160a01b0383811691161415610919576040805162461bcd60e51b815260206004820152601560248201527f6d757374206e6f74207468697320706c546f6b656e0000000000000000000000604482015290519081900360640190fd5b816001600160a01b031663a9059cbb84836040518363ffffffff1660e01b815260040180836001600160a01b03166001600160a01b0316815260200182815260200192505050602060405180830381600087803b15801561097957600080fd5b505af115801561098d573d6000803e3d6000fd5b505050506040513d60208110156109a357600080fd5b50506040805182815290516001600160a01b0380851692908616917faabf44ab9d5bef08d1b60f287a337f0d11a248e49741ad189b429e47e98ba9109181900360200190a3505050565b336109f66117f5565b600f55610a016115c3565b600e556001600160a01b03811615610a4857610a1c816105d2565b6001600160a01b038216600090815260176020908152604080832093909355600f546016909152919020555b600b54421015610a9f576040805162461bcd60e51b815260206004820152600960248201527f6e6f742073746172740000000000000000000000000000000000000000000000604482015290519081900360640190fd5b60008211610af4576040805162461bcd60e51b815260206004820152601160248201527f43616e6e6f742077697468647261772030000000000000000000000000000000604482015290519081900360640190fd5b610afd82611acf565b60408051838152905133917f7084f5476618d8e60b11ef0d7d3f06914655adb8793e28ff7f018d4c76d505d5919081900360200190a25050565b60106020526000908152604090205481565b6004546001600160a01b0316610b5d611acb565b6001600160a01b031614610ba25760405162461bcd60e51b815260040180806020018281038252602181526020018061236d6021913960400191505060405180910390fd5b6000610bac6117f5565b600f55610bb76115c3565b600e556001600160a01b03811615610bfe57610bd2816105d2565b6001600160a01b038216600090815260176020908152604080832093909355600f546016909152919020555b610c0782611b30565b5050565b33610c146117f5565b600f55610c1f6115c3565b600e556001600160a01b03811615610c6657610c3a816105d2565b6001600160a01b038216600090815260176020908152604080832093909355600f546016909152919020555b600b54421015610cbd576040805162461bcd60e51b815260206004820152600960248201527f6e6f742073746172740000000000000000000000000000000000000000000000604482015290519081900360640190fd5b33600090815260106020526040902054426201518090910110610d27576040805162461bcd60e51b815260206004820152601f60248201527f596f7520676574207265776172642077697468696e20323420686f7572732100604482015290519081900360640190fd5b336000908152601060205260409020429055601154610d4590611c75565b50565b60115481565b33610d576117f5565b600f55610d626115c3565b600e556001600160a01b03811615610da957610d7d816105d2565b6001600160a01b038216600090815260176020908152604080832093909355600f546016909152919020555b600b54421015610e00576040805162461bcd60e51b815260206004820152600960248201527f6e6f742073746172740000000000000000000000000000000000000000000000604482015290519081900360640190fd5b600754604080517f6352211e00000000000000000000000000000000000000000000000000000000815260048101859052905184926000926001600160a01b0390911691636352211e91602480820192602092909190829003018186803b158015610e6a57600080fd5b505afa158015610e7e573d6000803e3d6000fd5b505050506040513d6020811015610e9457600080fd5b50516001600160a01b03161415610ef2576040805162461bcd60e51b815260206004820152601460248201527f54686973206973206e6f74206120746f6b656e21000000000000000000000000604482015290519081900360640190fd5b600654604080517f5840e6590000000000000000000000000000000000000000000000000000000081526004810186905290516000926001600160a01b031691635840e659916024808301926020929190829003018186803b158015610f5757600080fd5b505afa158015610f6b573d6000803e3d6000fd5b505050506040513d6020811015610f8157600080fd5b505190504262015180820110610fc85760405162461bcd60e51b815260040180806020018281038252602481526020018061238e6024913960400191505060405180910390fd5b600854604080517f3130c3ae0000000000000000000000000000000000000000000000000000000081523360048201526024810187905242604482015290516001600160a01b0390921691633130c3ae91606480820192602092909190829003018186803b15801561103957600080fd5b505afa15801561104d573d6000803e3d6000fd5b505050506040513d602081101561106357600080fd5b50516110a05760405162461bcd60e51b81526004018080602001828103825260288152602001806122fe6028913960400191505060405180910390fd5b600654604080517fe1e0485e0000000000000000000000000000000000000000000000000000000081526004810187905290516000926001600160a01b03169163e1e0485e916024808301926020929190829003018186803b15801561110557600080fd5b505afa158015611119573d6000803e3d6000fd5b505050506040513d602081101561112f57600080fd5b505160125460ff9091169150600182141561114d575060125461116d565b816002141561115f575060135461116d565b816003141561116d57506014545b61117681611c75565b600654604080517f22142e6c0000000000000000000000000000000000000000000000000000000081526004810189905290516001600160a01b03909216916322142e6c9160248082019260009290919082900301818387803b1580156111dc57600080fd5b505af11580156111f0573d6000803e3d6000fd5b50505050505050505050565b611204611acb565b6003546001600160a01b03908116911614611266576040805162461bcd60e51b815260206004820181905260248201527f4f776e61626c653a2063616c6c6572206973206e6f7420746865206f776e6572604482015290519081900360640190fd5b611278816001600160a01b0316611e16565b6112c9576040805162461bcd60e51b815260206004820152601b60248201527f4974206973206e6f7420636f6e74726163742061646472657373210000000000604482015290519081900360640190fd5b600980547fffffffffffffffffffffffff0000000000000000000000000000000000000000166001600160a01b0392909216919091179055565b60145481565b6000546001600160a01b031681565b60155481565b6009546001600160a01b031681565b6001600160a01b031660009081526002602052604090205490565b611350611acb565b6003546001600160a01b039081169116146113b2576040805162461bcd60e51b815260206004820181905260248201527f4f776e61626c653a2063616c6c6572206973206e6f7420746865206f776e6572604482015290519081900360640190fd5b6003546040516000916001600160a01b0316907f8be0079c531659141344cd1fd0a4f28419497f9722a3daafe3b4186f6b6457e0908390a3600380547fffffffffffffffffffffffff0000000000000000000000000000000000000000169055565b6005546001600160a01b031681565b61142b611acb565b6003546001600160a01b0390811691161461148d576040805162461bcd60e51b815260206004820181905260248201527f4f776e61626c653a2063616c6c6572206973206e6f7420746865206f776e6572604482015290519081900360640190fd5b6001600160a01b0382166114e8576040805162461bcd60e51b815260206004820152600a60248201527f6d757374206e6f74203000000000000000000000000000000000000000000000604482015290519081900360640190fd5b6000811161153d576040805162461bcd60e51b815260206004820152600960248201527f6d75737420677420300000000000000000000000000000000000000000000000604482015290519081900360640190fd5b6040516001600160a01b0383169082156108fc029083906000818181858888f19350505050158015611573573d6000803e3d6000fd5b506040805182815290516001600160a01b038416917f542fa6bfee3b4746210fbdd1d83f9e49b65adde3639f8d8f165dd18347938af2919081900360200190a25050565b60135481565b600d5481565b60006115d142600c54611e1c565b905090565b4290565b60166020526000908152604090205481565b600b5481565b6003546001600160a01b031690565b3361160a6117f5565b600f556116156115c3565b600e556001600160a01b0381161561165c57611630816105d2565b6001600160a01b038216600090815260176020908152604080832093909355600f546016909152919020555b600b544210156116b3576040805162461bcd60e51b815260206004820152600960248201527f6e6f742073746172740000000000000000000000000000000000000000000000604482015290519081900360640190fd5b60008211611708576040805162461bcd60e51b815260206004820152600e60248201527f43616e6e6f74207374616b652030000000000000000000000000000000000000604482015290519081900360640190fd5b61171182611e32565b60408051838152905133917f9e71bc8eea02a63969f509818f2dafb9254532904319f9dbda79b67bd34a5f3d919081900360200190a25050565b600554604080517f70a0823100000000000000000000000000000000000000000000000000000000815230600482015290516000926001600160a01b0316916370a08231916024808301926020929190829003018186803b1580156117af57600080fd5b505afa1580156117c3573d6000803e3d6000fd5b505050506040513d60208110156117d957600080fd5b5051905090565b6007546001600160a01b031681565b600e5481565b60006117ff61072c565b61180c5750600f54610730565b6115d161183a61181a61072c565b61063a670de0b6b3a764000061062e600d5461062e600e546106196115c3565b600f549063ffffffff611a7116565b6008546001600160a01b031681565b600f5481565b600c5481565b60125481565b611872611acb565b6003546001600160a01b039081169116146118d4576040805162461bcd60e51b815260206004820181905260248201527f4f776e61626c653a2063616c6c6572206973206e6f7420746865206f776e6572604482015290519081900360640190fd5b6001600160a01b0381166119195760405162461bcd60e51b81526004018080602001828103825260268152602001806123266026913960400191505060405180910390fd5b6003546040516001600160a01b038084169216907f8be0079c531659141344cd1fd0a4f28419497f9722a3daafe3b4186f6b6457e090600090a3600380547fffffffffffffffffffffffff0000000000000000000000000000000000000000166001600160a01b0392909216919091179055565b60006119cf83836040518060400160405280601e81526020017f536166654d6174683a207375627472616374696f6e206f766572666c6f770000815250611e94565b9392505050565b6000826119e557506000610652565b828202828482816119f257fe5b04146119cf5760405162461bcd60e51b815260040180806020018281038252602181526020018061234c6021913960400191505060405180910390fd5b60006119cf83836040518060400160405280601a81526020017f536166654d6174683a206469766973696f6e206279207a65726f000000000000815250611f2b565b6000828201838110156119cf576040805162461bcd60e51b815260206004820152601b60248201527f536166654d6174683a206164646974696f6e206f766572666c6f770000000000604482015290519081900360640190fd5b3390565b600154611ae2908263ffffffff61198d16565b60015533600090815260026020526040902054611b05908263ffffffff61198d16565b336000818152600260205260408120929092559054610d45916001600160a01b039091169083611f90565b600b54421115611c0a57600c544210611b6757600a54611b5790829063ffffffff611a2f16565b600d55611b62612015565b611bb6565b600c54600090611b7d904263ffffffff61198d16565b90506000611b96600d54836119d690919063ffffffff16565b600a54909150611bb09061063a858463ffffffff611a7116565b600d5550505b42600e819055600a54611bcf919063ffffffff611a7116565b600c556040805182815290517fba54ce5940e90276397dfc944292ed6a6a43aa64f9deb96d5f471bef49b78e149181900360200190a1610d45565b600a54611c1e90829063ffffffff611a2f16565b600d55600b54600e819055600a54611c3c919063ffffffff611a7116565b600c556040805182815290517fba54ce5940e90276397dfc944292ed6a6a43aa64f9deb96d5f471bef49b78e149181900360200190a150565b600b54421015611ccc576040805162461bcd60e51b815260206004820152600960248201527f6e6f742073746172740000000000000000000000000000000000000000000000604482015290519081900360640190fd5b60648110611d21576040805162461bcd60e51b815260206004820152601160248201527f63616c20726577617264206572726f7221000000000000000000000000000000604482015290519081900360640190fd5b6000611d2c336105d2565b90508015610c07576000611d4b606461063a848663ffffffff6119d616565b9050611d5d828263ffffffff61198d16565b33600081815260176020526040902091909155601554611dab9190611d929060649061063a908690830363ffffffff6119d616565b6005546001600160a01b0316919063ffffffff611f9016565b600954601554611dd7916001600160a01b031690611d929060649061063a90869063ffffffff6119d616565b6040805182815260208101859052815133927fd6f2c8500df5b44f11e9e48b91ff9f1b9d81bc496d55570c2b1b75bf65243f51928290030190a2505050565b3b151590565b6000818310611e2b57816119cf565b5090919050565b600154611e45908263ffffffff611a7116565b60015533600090815260026020526040902054611e68908263ffffffff611a7116565b336000818152600260205260408120929092559054610d45916001600160a01b0390911690308461201c565b60008184841115611f235760405162461bcd60e51b81526004018080602001828103825283818151815260200191508051906020019080838360005b83811015611ee8578181015183820152602001611ed0565b50505050905090810190601f168015611f155780820380516001836020036101000a031916815260200191505b509250505060405180910390fd5b505050900390565b60008183611f7a5760405162461bcd60e51b8152602060048201818152835160248401528351909283926044909101919085019080838360008315611ee8578181015183820152602001611ed0565b506000838581611f8657fe5b0495945050505050565b604080516001600160a01b038416602482015260448082018490528251808303909101815260649091019091526020810180517bffffffffffffffffffffffffffffffffffffffffffffffffffffffff167fa9059cbb000000000000000000000000000000000000000000000000000000001790526120109084906120aa565b505050565b6003601155565b604080516001600160a01b0380861660248301528416604482015260648082018490528251808303909101815260849091019091526020810180517bffffffffffffffffffffffffffffffffffffffffffffffffffffffff167f23b872dd000000000000000000000000000000000000000000000000000000001790526120a49085906120aa565b50505050565b60606120ff826040518060400160405280602081526020017f5361666545524332303a206c6f772d6c6576656c2063616c6c206661696c6564815250856001600160a01b031661215b9092919063ffffffff16565b8051909150156120105780806020019051602081101561211e57600080fd5b50516120105760405162461bcd60e51b815260040180806020018281038252602a8152602001806123b2602a913960400191505060405180910390fd5b606061216a8484600085612172565b949350505050565b606061217d85611e16565b6121ce576040805162461bcd60e51b815260206004820152601d60248201527f416464726573733a2063616c6c20746f206e6f6e2d636f6e7472616374000000604482015290519081900360640190fd5b60006060866001600160a01b031685876040518082805190602001908083835b6020831061222b57805182527fffffffffffffffffffffffffffffffffffffffffffffffffffffffffffffffe090920191602091820191016121ee565b6001836020036101000a03801982511681845116808217855250505050505090500191505060006040518083038185875af1925050503d806000811461228d576040519150601f19603f3d011682016040523d82523d6000602084013e612292565b606091505b509150915081156122a657915061216a9050565b8051156122b65780518082602001fd5b60405162461bcd60e51b8152602060048201818152865160248401528651879391928392604401919085019080838360008315611ee8578181015183820152602001611ed056fe596f7520646f206e6f74206861766520726967687420746f20757365207468697320746f6b656e214f776e61626c653a206e6577206f776e657220697320746865207a65726f2061646472657373536166654d6174683a206d756c7469706c69636174696f6e206f766572666c6f7743616c6c6572206973206e6f742072657761726420646973747269627574696f6e54686973207469636b657420697320757365642077697468696e20323420686f757273215361666545524332303a204552433230206f7065726174696f6e20646964206e6f742073756363656564a264697066735822122058832290abd3e0de03aab066cb45c841c3b33e7f00d07dcead4a2e2f6520f69d64736f6c63430006020033536166654d6174683a206d756c7469706c69636174696f6e206f766572666c6f77ba54ce5940e90276397dfc944292ed6a6a43aa64f9deb96d5f471bef49b78e14",
  "source": "pragma solidity ^0.6.0;\n\nimport \"../common/hotpotinterface.sol\";\nimport \"../common/ILoan.sol\";\nimport \"@openzeppelin/contracts/math/Math.sol\";\nimport \"@openzeppelin/contracts/math/SafeMath.sol\";\nimport \"@openzeppelin/contracts/token/ERC721/IERC721.sol\";\nimport \"@openzeppelin/contracts/token/ERC20/IERC20.sol\";\nimport \"@openzeppelin/contracts/token/ERC20/SafeERC20.sol\";\nimport \"@openzeppelin/contracts/access/Ownable.sol\";\nimport \"@openzeppelin/contracts/utils/Address.sol\";\n\nabstract contract IRewardDistributionRecipient is Ownable {\n    address public rewardDistribution;\n\n    function notifyRewardAmount(uint256 reward) external virtual;\n\n    modifier onlyRewardDistribution() {\n        require(\n            _msgSender() == rewardDistribution,\n            \"Caller is not reward distribution\"\n        );\n        _;\n    }\n\n    function setRewardDistribution(address _rewardDistribution)\n        external\n        onlyOwner\n    {\n        rewardDistribution = _rewardDistribution;\n    }\n}\n\ncontract LPTokenWrapper {\n    using SafeMath for uint256;\n    using SafeERC20 for IERC20;\n\n    IERC20 public tokenAddr;\n    uint256 private _totalSupply;\n    mapping(address => uint256) private _balances;\n\n    function totalSupply() public view returns (uint256) {\n        return _totalSupply;\n    }\n\n    function balanceOf(address account) public view returns (uint256) {\n        return _balances[account];\n    }\n\n    function stake(uint256 amount) public virtual {\n        _totalSupply = _totalSupply.add(amount);\n        _balances[msg.sender] = _balances[msg.sender].add(amount);\n        tokenAddr.safeTransferFrom(msg.sender, address(this), amount);\n    }\n\n    function withdraw(uint256 amount) public virtual {\n        _totalSupply = _totalSupply.sub(amount);\n        _balances[msg.sender] = _balances[msg.sender].sub(amount);\n        tokenAddr.safeTransfer(msg.sender, amount);\n    }\n}\n\ncontract StakePool is LPTokenWrapper, IRewardDistributionRecipient {\n    using Address for address;\n    using SafeERC20 for IERC20;\n    IERC20 public erc20;\n    IHotPot public hotpot;\n    IERC721 public erc721;\n    ILoan public loan;\n\n    address public rewardContract;\n    uint256 public DURATION = 604800;\n\n    uint256 public starttime = 1601391600;\n    uint256 public periodFinish = 0;\n    uint256 public rewardRate = 0;\n    uint256 public lastUpdateTime;\n    uint256 public rewardPerTokenStored;\n\n    mapping(address => uint256) public lastRewardTime;\n\n    uint256 public freeRewardRatio = 5;\n    uint256 public grade1RewardRatio = 10;\n    uint256 public grade2RewardRatio = 15;\n    uint256 public grade3RewardRatio = 20;\n\n    uint256 public rewardRatio = 30;\n\n    mapping(address => uint256) public userRewardPerTokenPaid;\n    mapping(address => uint256) public rewards;\n\n    event RewardChanged(uint256 reward);\n    event Staked(address indexed user, uint256 amount);\n    event Withdrawn(address indexed user, uint256 amount);\n    event RewardPaid(address indexed user, uint256 reward,uint256 percent);\n    event Rescue(address indexed dst, uint256 sad);\n    event RescueToken(address indexed dst, address indexed token, uint256 sad);\n\n    function notifyRewardAmount(uint256 reward)\n        external\n        override\n        onlyRewardDistribution\n        updateReward(address(0))\n    {\n        _nofityReward(reward);\n    }\n\n    function _nofityReward(uint256 reward) internal{\n        if (block.timestamp > starttime) {\n            if (block.timestamp >= periodFinish) {\n                rewardRate = reward.div(DURATION);\n                _decreaseRewardRatio();\n            } else {\n                uint256 remaining = periodFinish.sub(block.timestamp);\n                uint256 leftover = remaining.mul(rewardRate);\n                rewardRate = reward.add(leftover).div(DURATION);\n            }\n            lastUpdateTime = block.timestamp;\n            periodFinish = block.timestamp.add(DURATION);\n            emit RewardChanged(reward);\n        } else {\n            rewardRate = reward.div(DURATION);\n            lastUpdateTime = starttime;\n            periodFinish = starttime.add(DURATION);\n            emit RewardChanged(reward);\n        }\n    }\n    \n    constructor(\n        address _stakeERC20,\n        address _hotpotNFT,\n        address _hotpotERC20,\n        address _loan,\n        address _reward,\n        uint256 _starttime,\n        uint256 duration,\n        uint256 _rewardAmount\n    ) public {\n        tokenAddr = IERC20(_stakeERC20);\n        hotpot = IHotPot(_hotpotNFT);\n        erc721 = IERC721(_hotpotNFT);\n        erc20 = IERC20(_hotpotERC20);\n        loan = ILoan(_loan);\n        rewardContract = _reward;\n        rewardDistribution = _msgSender();\n        starttime = _starttime;\n        DURATION = duration;\n        _nofityReward(_rewardAmount);\n    }\n\n    function getPoolBalance() external view returns(uint256){\n        return erc20.balanceOf(address(this));\n    }\n\n    function setRewardContract(address _addr) external onlyOwner {\n        require(_addr.isContract(), \"It is not contract address!\");\n        rewardContract = _addr;\n    }\n\n    function getBlockTime() external view returns(uint256){\n        return block.timestamp;\n    }\n\n    modifier checkStart() {\n        require(block.timestamp >= starttime, \"not start\");\n        _;\n    }\n\n    modifier validToken(uint256 _tokenId){\n        require(erc721.ownerOf(_tokenId)!=address(0),\"This is not a token!\");\n        _;\n    }\n\n    modifier updateReward(address account) {\n        rewardPerTokenStored = rewardPerToken();\n        lastUpdateTime = lastTimeRewardApplicable();\n        if (account != address(0)) {\n            rewards[account] = earned(account);\n            userRewardPerTokenPaid[account] = rewardPerTokenStored;\n        }\n        _;\n    }\n\n    function lastTimeRewardApplicable() public view returns (uint256) {\n        return Math.min(block.timestamp, periodFinish);\n    }\n\n    function rewardPerToken() public view returns (uint256) {\n        if (totalSupply() == 0) {\n            return rewardPerTokenStored;\n        }\n        return\n            rewardPerTokenStored.add(\n                lastTimeRewardApplicable()\n                    .sub(lastUpdateTime)\n                    .mul(rewardRate)\n                    .mul(1e18)\n                    .div(totalSupply())\n            );\n    }\n\n    function earned(address account) public view returns (uint256) {\n        return\n            balanceOf(account)\n                .mul(rewardPerToken().sub(userRewardPerTokenPaid[account]))\n                .div(1e18)\n                .add(rewards[account]);\n    }\n\n    function stake(uint256 amount)\n        public\n        override\n        updateReward(msg.sender)\n        checkStart\n    {\n        require(amount > 0, \"Cannot stake 0\");\n        super.stake(amount);\n        emit Staked(msg.sender, amount);\n    }\n\n    function _getReward(uint256 _percent)\n        internal\n        checkStart\n    {\n        require(_percent < 100,\"cal reward error!\");\n        uint256 trueReward = earned(msg.sender);\n        if (trueReward > 0) {\n            uint256 reward = trueReward.mul(_percent).div(100);\n\n            rewards[msg.sender] = trueReward.sub(reward);\n            \n            erc20.safeTransfer(\n                msg.sender,\n                reward.mul(100 - rewardRatio).div(100)\n            );\n            erc20.safeTransfer(rewardContract, reward.mul(rewardRatio).div(100));\n\n            emit RewardPaid(msg.sender, reward,_percent);\n        }\n    }\n\n    function getRewardFree() public updateReward(msg.sender) checkStart {\n        require(\n            lastRewardTime[msg.sender] + 24 * 60 * 60 < now,\n            \"You get reward within 24 hours!\"\n        );\n        lastRewardTime[msg.sender] = now;\n        _getReward(freeRewardRatio);\n    }\n\n    function getRewardByNFT(uint256 _tokenId)\n        public\n        updateReward(msg.sender)\n        checkStart\n        validToken(_tokenId)\n    {\n        //1.check the NFT is used?\n        uint256 time = hotpot.getUseTime(_tokenId);\n        require(\n            time + 24 * 60 * 60 < now,\n            \"This ticket is used within 24 hours!\"\n        );\n\n        require(\n            loan.checkPrivilege(msg.sender, _tokenId, now),\n            \"You do not have right to use this token!\"\n        );\n\n        uint256 grade = hotpot.getGrade(_tokenId);\n        uint256 percent = grade1RewardRatio;\n        if (grade == 1) {\n            percent = grade1RewardRatio;\n        } else if (grade == 2) {\n            percent = grade2RewardRatio;\n        } else if (grade == 3) {\n            percent = grade3RewardRatio;\n        }\n        _getReward(percent);\n        hotpot.setUse(_tokenId);\n    }\n\n    function withdraw(uint256 amount)\n        public\n        override\n        updateReward(msg.sender)\n        checkStart\n    {\n        require(amount > 0, \"Cannot withdraw 0\");\n        super.withdraw(amount);\n        emit Withdrawn(msg.sender, amount);\n    }\n\n    function _decreaseRewardRatio() internal {\n        freeRewardRatio = 3;\n    }\n\n    function rescue(address payable to_, uint256 amount_) external onlyOwner {\n        require(to_ != address(0), \"must not 0\");\n        require(amount_ > 0, \"must gt 0\");\n\n        to_.transfer(amount_);\n        emit Rescue(to_, amount_);\n    }\n\n    function rescue(\n        address to_,\n        IERC20 token_,\n        uint256 amount_\n    ) external onlyOwner {\n        require(to_ != address(0), \"must not 0\");\n        require(amount_ > 0, \"must gt 0\");\n        require(token_ != erc20, \"must not erc20\");\n        require(token_ != tokenAddr, \"must not this plToken\");\n\n        token_.transfer(to_, amount_);\n        emit RescueToken(to_, address(token_), amount_);\n    }\n}\n",
  "sourcePath": "/Users/junhu/git/hotpotcontract/truffle/contracts/stake/StakePool.sol",
  "compiler": {
    "name": "solc",
    "version": "0.6.2+commit.bacdbe57.Emscripten.clang"
  },
  "schemaVersion": "3.3.0",
  "updatedAt": "2020-10-25T06:58:18.037Z",
  "devdoc": {
    "methods": {
      "owner()": {
        "details": "Returns the address of the current owner."
      },
      "renounceOwnership()": {
        "details": "Leaves the contract without owner. It will not be possible to call `onlyOwner` functions anymore. Can only be called by the current owner.     * NOTE: Renouncing ownership will leave the contract without an owner, thereby removing any functionality that is only available to the owner."
      },
      "transferOwnership(address)": {
        "details": "Transfers ownership of the contract to a new account (`newOwner`). Can only be called by the current owner."
      }
    }
  },
  "userdoc": {
    "methods": {}
  }
}