{
  "contractName": "StakePool",
  "abi": [
    {
      "inputs": [
        {
          "internalType": "address",
          "name": "_stakeERC20",
          "type": "address"
        },
        {
          "internalType": "address",
          "name": "_hotpotNFT",
          "type": "address"
        },
        {
          "internalType": "address",
          "name": "_hotpotERC20",
          "type": "address"
        },
        {
          "internalType": "address",
          "name": "_loan",
          "type": "address"
        },
        {
          "internalType": "uint256",
          "name": "_starttime",
          "type": "uint256"
        },
        {
          "internalType": "uint256",
          "name": "duration",
          "type": "uint256"
        }
      ],
      "stateMutability": "nonpayable",
      "type": "constructor"
    },
    {
      "anonymous": false,
      "inputs": [
        {
          "indexed": true,
          "internalType": "address",
          "name": "previousOwner",
          "type": "address"
        },
        {
          "indexed": true,
          "internalType": "address",
          "name": "newOwner",
          "type": "address"
        }
      ],
      "name": "OwnershipTransferred",
      "type": "event"
    },
    {
      "anonymous": false,
      "inputs": [
        {
          "indexed": true,
          "internalType": "address",
          "name": "dst",
          "type": "address"
        },
        {
          "indexed": false,
          "internalType": "uint256",
          "name": "sad",
          "type": "uint256"
        }
      ],
      "name": "Rescue",
      "type": "event"
    },
    {
      "anonymous": false,
      "inputs": [
        {
          "indexed": true,
          "internalType": "address",
          "name": "dst",
          "type": "address"
        },
        {
          "indexed": true,
          "internalType": "address",
          "name": "token",
          "type": "address"
        },
        {
          "indexed": false,
          "internalType": "uint256",
          "name": "sad",
          "type": "uint256"
        }
      ],
      "name": "RescueToken",
      "type": "event"
    },
    {
      "anonymous": false,
      "inputs": [
        {
          "indexed": false,
          "internalType": "uint256",
          "name": "reward",
          "type": "uint256"
        }
      ],
      "name": "RewardAdded",
      "type": "event"
    },
    {
      "anonymous": false,
      "inputs": [
        {
          "indexed": true,
          "internalType": "address",
          "name": "user",
          "type": "address"
        },
        {
          "indexed": false,
          "internalType": "uint256",
          "name": "reward",
          "type": "uint256"
        }
      ],
      "name": "RewardPaid",
      "type": "event"
    },
    {
      "anonymous": false,
      "inputs": [
        {
          "indexed": true,
          "internalType": "address",
          "name": "user",
          "type": "address"
        },
        {
          "indexed": false,
          "internalType": "uint256",
          "name": "amount",
          "type": "uint256"
        }
      ],
      "name": "Staked",
      "type": "event"
    },
    {
      "anonymous": false,
      "inputs": [
        {
          "indexed": true,
          "internalType": "address",
          "name": "user",
          "type": "address"
        },
        {
          "indexed": false,
          "internalType": "uint256",
          "name": "amount",
          "type": "uint256"
        }
      ],
      "name": "Withdrawn",
      "type": "event"
    },
    {
      "inputs": [],
      "name": "DURATION",
      "outputs": [
        {
          "internalType": "uint256",
          "name": "",
          "type": "uint256"
        }
      ],
      "stateMutability": "view",
      "type": "function",
      "constant": true
    },
    {
      "inputs": [
        {
          "internalType": "address",
          "name": "account",
          "type": "address"
        }
      ],
      "name": "balanceOf",
      "outputs": [
        {
          "internalType": "uint256",
          "name": "",
          "type": "uint256"
        }
      ],
      "stateMutability": "view",
      "type": "function",
      "constant": true
    },
    {
      "inputs": [],
      "name": "erc20",
      "outputs": [
        {
          "internalType": "contract IERC20",
          "name": "",
          "type": "address"
        }
      ],
      "stateMutability": "view",
      "type": "function",
      "constant": true
    },
    {
      "inputs": [],
      "name": "erc721",
      "outputs": [
        {
          "internalType": "contract IERC721",
          "name": "",
          "type": "address"
        }
      ],
      "stateMutability": "view",
      "type": "function",
      "constant": true
    },
    {
      "inputs": [],
      "name": "freeRewardRatio",
      "outputs": [
        {
          "internalType": "uint256",
          "name": "",
          "type": "uint256"
        }
      ],
      "stateMutability": "view",
      "type": "function",
      "constant": true
    },
    {
      "inputs": [],
      "name": "grade1RewardRatio",
      "outputs": [
        {
          "internalType": "uint256",
          "name": "",
          "type": "uint256"
        }
      ],
      "stateMutability": "view",
      "type": "function",
      "constant": true
    },
    {
      "inputs": [],
      "name": "grade2RewardRatio",
      "outputs": [
        {
          "internalType": "uint256",
          "name": "",
          "type": "uint256"
        }
      ],
      "stateMutability": "view",
      "type": "function",
      "constant": true
    },
    {
      "inputs": [],
      "name": "grade3RewardRatio",
      "outputs": [
        {
          "internalType": "uint256",
          "name": "",
          "type": "uint256"
        }
      ],
      "stateMutability": "view",
      "type": "function",
      "constant": true
    },
    {
      "inputs": [],
      "name": "hotpot",
      "outputs": [
        {
          "internalType": "contract IHotPot",
          "name": "",
          "type": "address"
        }
      ],
      "stateMutability": "view",
      "type": "function",
      "constant": true
    },
    {
      "inputs": [],
      "name": "lastRewardTime",
      "outputs": [
        {
          "internalType": "uint256",
          "name": "",
          "type": "uint256"
        }
      ],
      "stateMutability": "view",
      "type": "function",
      "constant": true
    },
    {
      "inputs": [],
      "name": "lastUpdateTime",
      "outputs": [
        {
          "internalType": "uint256",
          "name": "",
          "type": "uint256"
        }
      ],
      "stateMutability": "view",
      "type": "function",
      "constant": true
    },
    {
      "inputs": [],
      "name": "loan",
      "outputs": [
        {
          "internalType": "contract ILoan",
          "name": "",
          "type": "address"
        }
      ],
      "stateMutability": "view",
      "type": "function",
      "constant": true
    },
    {
      "inputs": [],
      "name": "owner",
      "outputs": [
        {
          "internalType": "address",
          "name": "",
          "type": "address"
        }
      ],
      "stateMutability": "view",
      "type": "function",
      "constant": true
    },
    {
      "inputs": [],
      "name": "periodFinish",
      "outputs": [
        {
          "internalType": "uint256",
          "name": "",
          "type": "uint256"
        }
      ],
      "stateMutability": "view",
      "type": "function",
      "constant": true
    },
    {
      "inputs": [],
      "name": "renounceOwnership",
      "outputs": [],
      "stateMutability": "nonpayable",
      "type": "function"
    },
    {
      "inputs": [],
      "name": "rewardContract",
      "outputs": [
        {
          "internalType": "address",
          "name": "",
          "type": "address"
        }
      ],
      "stateMutability": "view",
      "type": "function",
      "constant": true
    },
    {
      "inputs": [],
      "name": "rewardDistribution",
      "outputs": [
        {
          "internalType": "address",
          "name": "",
          "type": "address"
        }
      ],
      "stateMutability": "view",
      "type": "function",
      "constant": true
    },
    {
      "inputs": [],
      "name": "rewardPerTokenStored",
      "outputs": [
        {
          "internalType": "uint256",
          "name": "",
          "type": "uint256"
        }
      ],
      "stateMutability": "view",
      "type": "function",
      "constant": true
    },
    {
      "inputs": [],
      "name": "rewardRate",
      "outputs": [
        {
          "internalType": "uint256",
          "name": "",
          "type": "uint256"
        }
      ],
      "stateMutability": "view",
      "type": "function",
      "constant": true
    },
    {
      "inputs": [],
      "name": "rewardRatio",
      "outputs": [
        {
          "internalType": "uint256",
          "name": "",
          "type": "uint256"
        }
      ],
      "stateMutability": "view",
      "type": "function",
      "constant": true
    },
    {
      "inputs": [
        {
          "internalType": "address",
          "name": "",
          "type": "address"
        }
      ],
      "name": "rewards",
      "outputs": [
        {
          "internalType": "uint256",
          "name": "",
          "type": "uint256"
        }
      ],
      "stateMutability": "view",
      "type": "function",
      "constant": true
    },
    {
      "inputs": [
        {
          "internalType": "address",
          "name": "_rewardDistribution",
          "type": "address"
        }
      ],
      "name": "setRewardDistribution",
      "outputs": [],
      "stateMutability": "nonpayable",
      "type": "function"
    },
    {
      "inputs": [],
      "name": "starttime",
      "outputs": [
        {
          "internalType": "uint256",
          "name": "",
          "type": "uint256"
        }
      ],
      "stateMutability": "view",
      "type": "function",
      "constant": true
    },
    {
      "inputs": [],
      "name": "tokenAddr",
      "outputs": [
        {
          "internalType": "contract IERC20",
          "name": "",
          "type": "address"
        }
      ],
      "stateMutability": "view",
      "type": "function",
      "constant": true
    },
    {
      "inputs": [],
      "name": "totalSupply",
      "outputs": [
        {
          "internalType": "uint256",
          "name": "",
          "type": "uint256"
        }
      ],
      "stateMutability": "view",
      "type": "function",
      "constant": true
    },
    {
      "inputs": [
        {
          "internalType": "address",
          "name": "newOwner",
          "type": "address"
        }
      ],
      "name": "transferOwnership",
      "outputs": [],
      "stateMutability": "nonpayable",
      "type": "function"
    },
    {
      "inputs": [
        {
          "internalType": "address",
          "name": "",
          "type": "address"
        }
      ],
      "name": "userRewardPerTokenPaid",
      "outputs": [
        {
          "internalType": "uint256",
          "name": "",
          "type": "uint256"
        }
      ],
      "stateMutability": "view",
      "type": "function",
      "constant": true
    },
    {
      "inputs": [
        {
          "internalType": "address",
          "name": "_addr",
          "type": "address"
        }
      ],
      "name": "setRewardContract",
      "outputs": [],
      "stateMutability": "nonpayable",
      "type": "function"
    },
    {
      "inputs": [],
      "name": "lastTimeRewardApplicable",
      "outputs": [
        {
          "internalType": "uint256",
          "name": "",
          "type": "uint256"
        }
      ],
      "stateMutability": "view",
      "type": "function",
      "constant": true
    },
    {
      "inputs": [],
      "name": "rewardPerToken",
      "outputs": [
        {
          "internalType": "uint256",
          "name": "",
          "type": "uint256"
        }
      ],
      "stateMutability": "view",
      "type": "function",
      "constant": true
    },
    {
      "inputs": [
        {
          "internalType": "address",
          "name": "account",
          "type": "address"
        }
      ],
      "name": "earned",
      "outputs": [
        {
          "internalType": "uint256",
          "name": "",
          "type": "uint256"
        }
      ],
      "stateMutability": "view",
      "type": "function",
      "constant": true
    },
    {
      "inputs": [
        {
          "internalType": "uint256",
          "name": "amount",
          "type": "uint256"
        }
      ],
      "name": "stake",
      "outputs": [],
      "stateMutability": "nonpayable",
      "type": "function"
    },
    {
      "inputs": [],
      "name": "getRewardFree",
      "outputs": [],
      "stateMutability": "nonpayable",
      "type": "function"
    },
    {
      "inputs": [
        {
          "internalType": "uint256",
          "name": "_tokenId",
          "type": "uint256"
        }
      ],
      "name": "getRewardByNFT",
      "outputs": [],
      "stateMutability": "nonpayable",
      "type": "function"
    },
    {
      "inputs": [
        {
          "internalType": "uint256",
          "name": "amount",
          "type": "uint256"
        }
      ],
      "name": "withdraw",
      "outputs": [],
      "stateMutability": "nonpayable",
      "type": "function"
    },
    {
      "inputs": [
        {
          "internalType": "uint256",
          "name": "amount",
          "type": "uint256"
        }
      ],
      "name": "withdrawAndGetReward",
      "outputs": [],
      "stateMutability": "nonpayable",
      "type": "function"
    },
    {
      "inputs": [],
      "name": "exit",
      "outputs": [],
      "stateMutability": "nonpayable",
      "type": "function"
    },
    {
      "inputs": [
        {
          "internalType": "uint256",
          "name": "reward",
          "type": "uint256"
        }
      ],
      "name": "notifyRewardAmount",
      "outputs": [],
      "stateMutability": "nonpayable",
      "type": "function"
    },
    {
      "inputs": [
        {
          "internalType": "address",
          "name": "to_",
          "type": "address"
        },
        {
          "internalType": "contract IERC20",
          "name": "token_",
          "type": "address"
        },
        {
          "internalType": "uint256",
          "name": "amount_",
          "type": "uint256"
        }
      ],
      "name": "rescue",
      "outputs": [],
      "stateMutability": "nonpayable",
      "type": "function"
    },
    {
      "inputs": [
        {
          "internalType": "address payable",
          "name": "to_",
          "type": "address"
        },
        {
          "internalType": "uint256",
          "name": "amount_",
          "type": "uint256"
        }
      ],
      "name": "rescue",
      "outputs": [],
      "stateMutability": "nonpayable",
      "type": "function"
    }
  ],
  "bytecode": "0x608060405262093a80600a55635f734bf0600b556000600c556000600d556005601155600a601255600f60135560148055601e6015553480156200004257600080fd5b5060405162003d4c38038062003d4c833981810160405260c08110156200006857600080fd5b810190808051906020019092919080519060200190929190805190602001909291908051906020019092919080519060200190929190805190602001909291905050506000620000bd6200030a60201b60201c565b905080600360006101000a81548173ffffffffffffffffffffffffffffffffffffffff021916908373ffffffffffffffffffffffffffffffffffffffff1602179055508073ffffffffffffffffffffffffffffffffffffffff16600073ffffffffffffffffffffffffffffffffffffffff167f8be0079c531659141344cd1fd0a4f28419497f9722a3daafe3b4186f6b6457e060405160405180910390a350856000806101000a81548173ffffffffffffffffffffffffffffffffffffffff021916908373ffffffffffffffffffffffffffffffffffffffff16021790555084600660006101000a81548173ffffffffffffffffffffffffffffffffffffffff021916908373ffffffffffffffffffffffffffffffffffffffff16021790555084600760006101000a81548173ffffffffffffffffffffffffffffffffffffffff021916908373ffffffffffffffffffffffffffffffffffffffff16021790555083600560006101000a81548173ffffffffffffffffffffffffffffffffffffffff021916908373ffffffffffffffffffffffffffffffffffffffff16021790555082600860006101000a81548173ffffffffffffffffffffffffffffffffffffffff021916908373ffffffffffffffffffffffffffffffffffffffff160217905550620002b06200030a60201b60201c565b600460006101000a81548173ffffffffffffffffffffffffffffffffffffffff021916908373ffffffffffffffffffffffffffffffffffffffff16021790555081600b8190555080600a8190555050505050505062000312565b600033905090565b613a2a80620003226000396000f3fe608060405234801561001057600080fd5b50600436106102475760003560e01c8063785e9e861161013b578063bca6ce64116100b8578063e9fad8ee1161007c578063e9fad8ee14610992578063ebe2b12b1461099c578063f0bc9fa7146109ba578063f2fde38b146109d8578063f44c407a14610a1c57610247565b8063bca6ce64146108a4578063c8f33c91146108ee578063cd3daf9d1461090c578063d285b7b41461092a578063df136d651461097457610247565b80638b876347116100ff5780638b876347146107985780638da58897146107f05780638da5cb5b1461080e5780639231cf7414610858578063a694fc3a1461087657610247565b8063785e9e86146106a65780637a4e4ecf146106f05780637b087fde1461073e5780637b0a47ee1461075c57806380faa57d1461077a57610247565b8063424ad03d116101c95780635fbe4d1d1161018d5780635fbe4d1d14610592578063646033bc146105dc5780636ea69d62146105fa57806370a0823114610644578063715018a61461069c57610247565b8063424ad03d146104da578063430a0635146104e457806347a005c61461050257806351508f0a146105305780635e0ab6801461057457610247565b806318160ddd1161021057806318160ddd146103d45780631be05289146103f257806320ff430b146104105780632e1a7d4d1461047e5780633c6b16ab146104ac57610247565b80628cc2621461024c5780630700037d146102a45780630d68b761146102fc578063101114cf1461034057806315ea88c41461038a575b600080fd5b61028e6004803603602081101561026257600080fd5b81019080803573ffffffffffffffffffffffffffffffffffffffff169060200190929190505050610a4a565b6040518082815260200191505060405180910390f35b6102e6600480360360208110156102ba57600080fd5b81019080803573ffffffffffffffffffffffffffffffffffffffff169060200190929190505050610b31565b6040518082815260200191505060405180910390f35b61033e6004803603602081101561031257600080fd5b81019080803573ffffffffffffffffffffffffffffffffffffffff169060200190929190505050610b49565b005b610348610c57565b604051808273ffffffffffffffffffffffffffffffffffffffff1673ffffffffffffffffffffffffffffffffffffffff16815260200191505060405180910390f35b610392610c7d565b604051808273ffffffffffffffffffffffffffffffffffffffff1673ffffffffffffffffffffffffffffffffffffffff16815260200191505060405180910390f35b6103dc610ca3565b6040518082815260200191505060405180910390f35b6103fa610cad565b6040518082815260200191505060405180910390f35b61047c6004803603606081101561042657600080fd5b81019080803573ffffffffffffffffffffffffffffffffffffffff169060200190929190803573ffffffffffffffffffffffffffffffffffffffff16906020019092919080359060200190929190505050610cb3565b005b6104aa6004803603602081101561049457600080fd5b810190808035906020019092919050505061114a565b005b6104d8600480360360208110156104c257600080fd5b8101908080359060200190929190505050611377565b005b6104e2611681565b005b6104ec61186e565b6040518082815260200191505060405180910390f35b61052e6004803603602081101561051857600080fd5b8101908080359060200190929190505050611874565b005b6105726004803603602081101561054657600080fd5b81019080803573ffffffffffffffffffffffffffffffffffffffff169060200190929190505050611dae565b005b61057c611f4d565b6040518082815260200191505060405180910390f35b61059a611f53565b604051808273ffffffffffffffffffffffffffffffffffffffff1673ffffffffffffffffffffffffffffffffffffffff16815260200191505060405180910390f35b6105e4611f78565b6040518082815260200191505060405180910390f35b610602611f7e565b604051808273ffffffffffffffffffffffffffffffffffffffff1673ffffffffffffffffffffffffffffffffffffffff16815260200191505060405180910390f35b6106866004803603602081101561065a57600080fd5b81019080803573ffffffffffffffffffffffffffffffffffffffff169060200190929190505050611fa4565b6040518082815260200191505060405180910390f35b6106a4611fed565b005b6106ae612178565b604051808273ffffffffffffffffffffffffffffffffffffffff1673ffffffffffffffffffffffffffffffffffffffff16815260200191505060405180910390f35b61073c6004803603604081101561070657600080fd5b81019080803573ffffffffffffffffffffffffffffffffffffffff1690602001909291908035906020019092919050505061219e565b005b61074661241a565b6040518082815260200191505060405180910390f35b610764612420565b6040518082815260200191505060405180910390f35b610782612426565b6040518082815260200191505060405180910390f35b6107da600480360360208110156107ae57600080fd5b81019080803573ffffffffffffffffffffffffffffffffffffffff169060200190929190505050612439565b6040518082815260200191505060405180910390f35b6107f8612451565b6040518082815260200191505060405180910390f35b610816612457565b604051808273ffffffffffffffffffffffffffffffffffffffff1673ffffffffffffffffffffffffffffffffffffffff16815260200191505060405180910390f35b610860612481565b6040518082815260200191505060405180910390f35b6108a26004803603602081101561088c57600080fd5b8101908080359060200190929190505050612487565b005b6108ac6126b4565b604051808273ffffffffffffffffffffffffffffffffffffffff1673ffffffffffffffffffffffffffffffffffffffff16815260200191505060405180910390f35b6108f66126da565b6040518082815260200191505060405180910390f35b6109146126e0565b6040518082815260200191505060405180910390f35b610932612778565b604051808273ffffffffffffffffffffffffffffffffffffffff1673ffffffffffffffffffffffffffffffffffffffff16815260200191505060405180910390f35b61097c61279e565b6040518082815260200191505060405180910390f35b61099a6127a4565b005b6109a46127bf565b6040518082815260200191505060405180910390f35b6109c26127c5565b6040518082815260200191505060405180910390f35b610a1a600480360360208110156109ee57600080fd5b81019080803573ffffffffffffffffffffffffffffffffffffffff1690602001909291905050506127cb565b005b610a4860048036036020811015610a3257600080fd5b81019080803590602001909291905050506129db565b005b6000610b2a601760008473ffffffffffffffffffffffffffffffffffffffff1673ffffffffffffffffffffffffffffffffffffffff16815260200190815260200160002054610b1c670de0b6b3a7640000610b0e610af7601660008973ffffffffffffffffffffffffffffffffffffffff1673ffffffffffffffffffffffffffffffffffffffff16815260200190815260200160002054610ae96126e0565b612bad90919063ffffffff16565b610b0088611fa4565b612bf790919063ffffffff16565b612c7d90919063ffffffff16565b612cc790919063ffffffff16565b9050919050565b60176020528060005260406000206000915090505481565b610b51612d4f565b73ffffffffffffffffffffffffffffffffffffffff16600360009054906101000a900473ffffffffffffffffffffffffffffffffffffffff1673ffffffffffffffffffffffffffffffffffffffff1614610c13576040517f08c379a00000000000000000000000000000000000000000000000000000000081526004018080602001828103825260208152602001807f4f776e61626c653a2063616c6c6572206973206e6f7420746865206f776e657281525060200191505060405180910390fd5b80600460006101000a81548173ffffffffffffffffffffffffffffffffffffffff021916908373ffffffffffffffffffffffffffffffffffffffff16021790555050565b600460009054906101000a900473ffffffffffffffffffffffffffffffffffffffff1681565b600660009054906101000a900473ffffffffffffffffffffffffffffffffffffffff1681565b6000600154905090565b600a5481565b610cbb612d4f565b73ffffffffffffffffffffffffffffffffffffffff16600360009054906101000a900473ffffffffffffffffffffffffffffffffffffffff1673ffffffffffffffffffffffffffffffffffffffff1614610d7d576040517f08c379a00000000000000000000000000000000000000000000000000000000081526004018080602001828103825260208152602001807f4f776e61626c653a2063616c6c6572206973206e6f7420746865206f776e657281525060200191505060405180910390fd5b600073ffffffffffffffffffffffffffffffffffffffff168373ffffffffffffffffffffffffffffffffffffffff161415610e20576040517f08c379a000000000000000000000000000000000000000000000000000000000815260040180806020018281038252600a8152602001807f6d757374206e6f7420300000000000000000000000000000000000000000000081525060200191505060405180910390fd5b60008111610e96576040517f08c379a00000000000000000000000000000000000000000000000000000000081526004018080602001828103825260098152602001807f6d7573742067742030000000000000000000000000000000000000000000000081525060200191505060405180910390fd5b600560009054906101000a900473ffffffffffffffffffffffffffffffffffffffff1673ffffffffffffffffffffffffffffffffffffffff168273ffffffffffffffffffffffffffffffffffffffff161415610f5a576040517f08c379a000000000000000000000000000000000000000000000000000000000815260040180806020018281038252600e8152602001807f6d757374206e6f7420657263323000000000000000000000000000000000000081525060200191505060405180910390fd5b6000809054906101000a900473ffffffffffffffffffffffffffffffffffffffff1673ffffffffffffffffffffffffffffffffffffffff168273ffffffffffffffffffffffffffffffffffffffff16141561101d576040517f08c379a00000000000000000000000000000000000000000000000000000000081526004018080602001828103825260158152602001807f6d757374206e6f74207468697320706c546f6b656e000000000000000000000081525060200191505060405180910390fd5b8173ffffffffffffffffffffffffffffffffffffffff1663a9059cbb84836040518363ffffffff1660e01b8152600401808373ffffffffffffffffffffffffffffffffffffffff1673ffffffffffffffffffffffffffffffffffffffff16815260200182815260200192505050602060405180830381600087803b1580156110a457600080fd5b505af11580156110b8573d6000803e3d6000fd5b505050506040513d60208110156110ce57600080fd5b8101908080519060200190929190505050508173ffffffffffffffffffffffffffffffffffffffff168373ffffffffffffffffffffffffffffffffffffffff167faabf44ab9d5bef08d1b60f287a337f0d11a248e49741ad189b429e47e98ba910836040518082815260200191505060405180910390a3505050565b336111536126e0565b600f81905550611161612426565b600e81905550600073ffffffffffffffffffffffffffffffffffffffff168173ffffffffffffffffffffffffffffffffffffffff161461122e576111a481610a4a565b601760008373ffffffffffffffffffffffffffffffffffffffff1673ffffffffffffffffffffffffffffffffffffffff16815260200190815260200160002081905550600f54601660008373ffffffffffffffffffffffffffffffffffffffff1673ffffffffffffffffffffffffffffffffffffffff168152602001908152602001600020819055505b600b544210156112a6576040517f08c379a00000000000000000000000000000000000000000000000000000000081526004018080602001828103825260098152602001807f6e6f74207374617274000000000000000000000000000000000000000000000081525060200191505060405180910390fd5b6000821161131c576040517f08c379a00000000000000000000000000000000000000000000000000000000081526004018080602001828103825260118152602001807f43616e6e6f74207769746864726177203000000000000000000000000000000081525060200191505060405180910390fd5b61132582612d57565b3373ffffffffffffffffffffffffffffffffffffffff167f7084f5476618d8e60b11ef0d7d3f06914655adb8793e28ff7f018d4c76d505d5836040518082815260200191505060405180910390a25050565b600460009054906101000a900473ffffffffffffffffffffffffffffffffffffffff1673ffffffffffffffffffffffffffffffffffffffff166113b8612d4f565b73ffffffffffffffffffffffffffffffffffffffff1614611424576040517f08c379a00000000000000000000000000000000000000000000000000000000081526004018080602001828103825260218152602001806139646021913960400191505060405180910390fd5b600061142e6126e0565b600f8190555061143c612426565b600e81905550600073ffffffffffffffffffffffffffffffffffffffff168173ffffffffffffffffffffffffffffffffffffffff16146115095761147f81610a4a565b601760008373ffffffffffffffffffffffffffffffffffffffff1673ffffffffffffffffffffffffffffffffffffffff16815260200190815260200160002081905550600f54601660008373ffffffffffffffffffffffffffffffffffffffff1673ffffffffffffffffffffffffffffffffffffffff168152602001908152602001600020819055505b600b5442111561160457600c54421061154457611531600a5483612c7d90919063ffffffff16565b600d8190555061153f612e56565b6115a6565b600061155b42600c54612bad90919063ffffffff16565b90506000611574600d5483612bf790919063ffffffff16565b905061159d600a5461158f8387612cc790919063ffffffff16565b612c7d90919063ffffffff16565b600d8190555050505b42600e819055506115c2600a5442612cc790919063ffffffff16565b600c819055507fde88a922e0d3b88b24e9623efeb464919c6bf9f66857a65e2bfcf2ce87a9433d826040518082815260200191505060405180910390a161167d565b611619600a5483612c7d90919063ffffffff16565b600d81905550600b54600e8190555061163f600a54600b54612cc790919063ffffffff16565b600c819055507fde88a922e0d3b88b24e9623efeb464919c6bf9f66857a65e2bfcf2ce87a9433d826040518082815260200191505060405180910390a15b5050565b3361168a6126e0565b600f81905550611698612426565b600e81905550600073ffffffffffffffffffffffffffffffffffffffff168173ffffffffffffffffffffffffffffffffffffffff1614611765576116db81610a4a565b601760008373ffffffffffffffffffffffffffffffffffffffff1673ffffffffffffffffffffffffffffffffffffffff16815260200190815260200160002081905550600f54601660008373ffffffffffffffffffffffffffffffffffffffff1673ffffffffffffffffffffffffffffffffffffffff168152602001908152602001600020819055505b600b544210156117dd576040517f08c379a00000000000000000000000000000000000000000000000000000000081526004018080602001828103825260098152602001807f6e6f74207374617274000000000000000000000000000000000000000000000081525060200191505060405180910390fd5b42620151806010540110611859576040517f08c379a000000000000000000000000000000000000000000000000000000000815260040180806020018281038252601f8152602001807f596f7520676574207265776172642077697468696e20323420686f757273210081525060200191505060405180910390fd5b4260108190555061186b601154612e78565b50565b60115481565b3361187d6126e0565b600f8190555061188b612426565b600e81905550600073ffffffffffffffffffffffffffffffffffffffff168173ffffffffffffffffffffffffffffffffffffffff1614611958576118ce81610a4a565b601760008373ffffffffffffffffffffffffffffffffffffffff1673ffffffffffffffffffffffffffffffffffffffff16815260200190815260200160002081905550600f54601660008373ffffffffffffffffffffffffffffffffffffffff1673ffffffffffffffffffffffffffffffffffffffff168152602001908152602001600020819055505b600b544210156119d0576040517f08c379a00000000000000000000000000000000000000000000000000000000081526004018080602001828103825260098152602001807f6e6f74207374617274000000000000000000000000000000000000000000000081525060200191505060405180910390fd5b6000600660009054906101000a900473ffffffffffffffffffffffffffffffffffffffff1673ffffffffffffffffffffffffffffffffffffffff16635840e659846040518263ffffffff1660e01b81526004018082815260200191505060206040518083038186803b158015611a4557600080fd5b505afa158015611a59573d6000803e3d6000fd5b505050506040513d6020811015611a6f57600080fd5b810190808051906020019092919050505090506201518042038110611adf576040517f08c379a00000000000000000000000000000000000000000000000000000000081526004018080602001828103825260248152602001806139856024913960400191505060405180910390fd5b600860009054906101000a900473ffffffffffffffffffffffffffffffffffffffff1673ffffffffffffffffffffffffffffffffffffffff16633130c3ae3385426040518463ffffffff1660e01b8152600401808473ffffffffffffffffffffffffffffffffffffffff1673ffffffffffffffffffffffffffffffffffffffff168152602001838152602001828152602001935050505060206040518083038186803b158015611b8e57600080fd5b505afa158015611ba2573d6000803e3d6000fd5b505050506040513d6020811015611bb857600080fd5b8101908080519060200190929190505050611c1e576040517f08c379a00000000000000000000000000000000000000000000000000000000081526004018080602001828103825260288152602001806138f56028913960400191505060405180910390fd5b6000600660009054906101000a900473ffffffffffffffffffffffffffffffffffffffff1673ffffffffffffffffffffffffffffffffffffffff1663e1e0485e856040518263ffffffff1660e01b81526004018082815260200191505060206040518083038186803b158015611c9357600080fd5b505afa158015611ca7573d6000803e3d6000fd5b505050506040513d6020811015611cbd57600080fd5b810190808051906020019092919050505060ff169050600060125490506001821415611ced576012549050611d11565b6002821415611d00576013549050611d10565b6003821415611d0f5760145490505b5b5b611d1a81612e78565b600660009054906101000a900473ffffffffffffffffffffffffffffffffffffffff1673ffffffffffffffffffffffffffffffffffffffff166322142e6c866040518263ffffffff1660e01b815260040180828152602001915050600060405180830381600087803b158015611d8f57600080fd5b505af1158015611da3573d6000803e3d6000fd5b505050505050505050565b611db6612d4f565b73ffffffffffffffffffffffffffffffffffffffff16600360009054906101000a900473ffffffffffffffffffffffffffffffffffffffff1673ffffffffffffffffffffffffffffffffffffffff1614611e78576040517f08c379a00000000000000000000000000000000000000000000000000000000081526004018080602001828103825260208152602001807f4f776e61626c653a2063616c6c6572206973206e6f7420746865206f776e657281525060200191505060405180910390fd5b611e978173ffffffffffffffffffffffffffffffffffffffff1661318f565b611f09576040517f08c379a000000000000000000000000000000000000000000000000000000000815260040180806020018281038252601b8152602001807f4974206973206e6f7420636f6e7472616374206164647265737321000000000081525060200191505060405180910390fd5b80600960006101000a81548173ffffffffffffffffffffffffffffffffffffffff021916908373ffffffffffffffffffffffffffffffffffffffff16021790555050565b60145481565b6000809054906101000a900473ffffffffffffffffffffffffffffffffffffffff1681565b60155481565b600960009054906101000a900473ffffffffffffffffffffffffffffffffffffffff1681565b6000600260008373ffffffffffffffffffffffffffffffffffffffff1673ffffffffffffffffffffffffffffffffffffffff168152602001908152602001600020549050919050565b611ff5612d4f565b73ffffffffffffffffffffffffffffffffffffffff16600360009054906101000a900473ffffffffffffffffffffffffffffffffffffffff1673ffffffffffffffffffffffffffffffffffffffff16146120b7576040517f08c379a00000000000000000000000000000000000000000000000000000000081526004018080602001828103825260208152602001807f4f776e61626c653a2063616c6c6572206973206e6f7420746865206f776e657281525060200191505060405180910390fd5b600073ffffffffffffffffffffffffffffffffffffffff16600360009054906101000a900473ffffffffffffffffffffffffffffffffffffffff1673ffffffffffffffffffffffffffffffffffffffff167f8be0079c531659141344cd1fd0a4f28419497f9722a3daafe3b4186f6b6457e060405160405180910390a36000600360006101000a81548173ffffffffffffffffffffffffffffffffffffffff021916908373ffffffffffffffffffffffffffffffffffffffff160217905550565b600560009054906101000a900473ffffffffffffffffffffffffffffffffffffffff1681565b6121a6612d4f565b73ffffffffffffffffffffffffffffffffffffffff16600360009054906101000a900473ffffffffffffffffffffffffffffffffffffffff1673ffffffffffffffffffffffffffffffffffffffff1614612268576040517f08c379a00000000000000000000000000000000000000000000000000000000081526004018080602001828103825260208152602001807f4f776e61626c653a2063616c6c6572206973206e6f7420746865206f776e657281525060200191505060405180910390fd5b600073ffffffffffffffffffffffffffffffffffffffff168273ffffffffffffffffffffffffffffffffffffffff16141561230b576040517f08c379a000000000000000000000000000000000000000000000000000000000815260040180806020018281038252600a8152602001807f6d757374206e6f7420300000000000000000000000000000000000000000000081525060200191505060405180910390fd5b60008111612381576040517f08c379a00000000000000000000000000000000000000000000000000000000081526004018080602001828103825260098152602001807f6d7573742067742030000000000000000000000000000000000000000000000081525060200191505060405180910390fd5b8173ffffffffffffffffffffffffffffffffffffffff166108fc829081150290604051600060405180830381858888f193505050501580156123c7573d6000803e3d6000fd5b508173ffffffffffffffffffffffffffffffffffffffff167f542fa6bfee3b4746210fbdd1d83f9e49b65adde3639f8d8f165dd18347938af2826040518082815260200191505060405180910390a25050565b60135481565b600d5481565b600061243442600c546131a2565b905090565b60166020528060005260406000206000915090505481565b600b5481565b6000600360009054906101000a900473ffffffffffffffffffffffffffffffffffffffff16905090565b60105481565b336124906126e0565b600f8190555061249e612426565b600e81905550600073ffffffffffffffffffffffffffffffffffffffff168173ffffffffffffffffffffffffffffffffffffffff161461256b576124e181610a4a565b601760008373ffffffffffffffffffffffffffffffffffffffff1673ffffffffffffffffffffffffffffffffffffffff16815260200190815260200160002081905550600f54601660008373ffffffffffffffffffffffffffffffffffffffff1673ffffffffffffffffffffffffffffffffffffffff168152602001908152602001600020819055505b600b544210156125e3576040517f08c379a00000000000000000000000000000000000000000000000000000000081526004018080602001828103825260098152602001807f6e6f74207374617274000000000000000000000000000000000000000000000081525060200191505060405180910390fd5b60008211612659576040517f08c379a000000000000000000000000000000000000000000000000000000000815260040180806020018281038252600e8152602001807f43616e6e6f74207374616b65203000000000000000000000000000000000000081525060200191505060405180910390fd5b612662826131bb565b3373ffffffffffffffffffffffffffffffffffffffff167f9e71bc8eea02a63969f509818f2dafb9254532904319f9dbda79b67bd34a5f3d836040518082815260200191505060405180910390a25050565b600760009054906101000a900473ffffffffffffffffffffffffffffffffffffffff1681565b600e5481565b6000806126eb610ca3565b14156126fb57600f549050612775565b612772612761612709610ca3565b612753670de0b6b3a7640000612745600d54612737600e54612729612426565b612bad90919063ffffffff16565b612bf790919063ffffffff16565b612bf790919063ffffffff16565b612c7d90919063ffffffff16565b600f54612cc790919063ffffffff16565b90505b90565b600860009054906101000a900473ffffffffffffffffffffffffffffffffffffffff1681565b600f5481565b6127b56127b033611fa4565b61114a565b6127bd611681565b565b600c5481565b60125481565b6127d3612d4f565b73ffffffffffffffffffffffffffffffffffffffff16600360009054906101000a900473ffffffffffffffffffffffffffffffffffffffff1673ffffffffffffffffffffffffffffffffffffffff1614612895576040517f08c379a00000000000000000000000000000000000000000000000000000000081526004018080602001828103825260208152602001807f4f776e61626c653a2063616c6c6572206973206e6f7420746865206f776e657281525060200191505060405180910390fd5b600073ffffffffffffffffffffffffffffffffffffffff168173ffffffffffffffffffffffffffffffffffffffff16141561291b576040517f08c379a000000000000000000000000000000000000000000000000000000000815260040180806020018281038252602681526020018061391d6026913960400191505060405180910390fd5b8073ffffffffffffffffffffffffffffffffffffffff16600360009054906101000a900473ffffffffffffffffffffffffffffffffffffffff1673ffffffffffffffffffffffffffffffffffffffff167f8be0079c531659141344cd1fd0a4f28419497f9722a3daafe3b4186f6b6457e060405160405180910390a380600360006101000a81548173ffffffffffffffffffffffffffffffffffffffff021916908373ffffffffffffffffffffffffffffffffffffffff16021790555050565b336129e46126e0565b600f819055506129f2612426565b600e81905550600073ffffffffffffffffffffffffffffffffffffffff168173ffffffffffffffffffffffffffffffffffffffff1614612abf57612a3581610a4a565b601760008373ffffffffffffffffffffffffffffffffffffffff1673ffffffffffffffffffffffffffffffffffffffff16815260200190815260200160002081905550600f54601660008373ffffffffffffffffffffffffffffffffffffffff1673ffffffffffffffffffffffffffffffffffffffff168152602001908152602001600020819055505b600b54421015612b37576040517f08c379a00000000000000000000000000000000000000000000000000000000081526004018080602001828103825260098152602001807f6e6f74207374617274000000000000000000000000000000000000000000000081525060200191505060405180910390fd5b612b4033611fa4565b821115612b98576040517f08c379a00000000000000000000000000000000000000000000000000000000081526004018080602001828103825260228152602001806139d36022913960400191505060405180910390fd5b612ba18261114a565b612ba9611681565b5050565b6000612bef83836040518060400160405280601e81526020017f536166654d6174683a207375627472616374696f6e206f766572666c6f7700008152506132bc565b905092915050565b600080831415612c0a5760009050612c77565b6000828402905082848281612c1b57fe5b0414612c72576040517f08c379a00000000000000000000000000000000000000000000000000000000081526004018080602001828103825260218152602001806139436021913960400191505060405180910390fd5b809150505b92915050565b6000612cbf83836040518060400160405280601a81526020017f536166654d6174683a206469766973696f6e206279207a65726f00000000000081525061337c565b905092915050565b600080828401905083811015612d45576040517f08c379a000000000000000000000000000000000000000000000000000000000815260040180806020018281038252601b8152602001807f536166654d6174683a206164646974696f6e206f766572666c6f77000000000081525060200191505060405180910390fd5b8091505092915050565b600033905090565b612d6c81600154612bad90919063ffffffff16565b600181905550612dc481600260003373ffffffffffffffffffffffffffffffffffffffff1673ffffffffffffffffffffffffffffffffffffffff16815260200190815260200160002054612bad90919063ffffffff16565b600260003373ffffffffffffffffffffffffffffffffffffffff1673ffffffffffffffffffffffffffffffffffffffff16815260200190815260200160002081905550612e5333826000809054906101000a900473ffffffffffffffffffffffffffffffffffffffff1673ffffffffffffffffffffffffffffffffffffffff166134429092919063ffffffff16565b50565b60036011819055506009601281905550600c601381905550600f601481905550565b33612e816126e0565b600f81905550612e8f612426565b600e81905550600073ffffffffffffffffffffffffffffffffffffffff168173ffffffffffffffffffffffffffffffffffffffff1614612f5c57612ed281610a4a565b601760008373ffffffffffffffffffffffffffffffffffffffff1673ffffffffffffffffffffffffffffffffffffffff16815260200190815260200160002081905550600f54601660008373ffffffffffffffffffffffffffffffffffffffff1673ffffffffffffffffffffffffffffffffffffffff168152602001908152602001600020819055505b600b54421015612fd4576040517f08c379a00000000000000000000000000000000000000000000000000000000081526004018080602001828103825260098152602001807f6e6f74207374617274000000000000000000000000000000000000000000000081525060200191505060405180910390fd5b60648210612fe157600080fd5b6000612fec33610a4a565b9050600081111561318a57600060648483028161300557fe5b049050808203601760003373ffffffffffffffffffffffffffffffffffffffff1673ffffffffffffffffffffffffffffffffffffffff168152602001908152602001600020819055506130ac33606460155460640384028161306357fe5b04600560009054906101000a900473ffffffffffffffffffffffffffffffffffffffff1673ffffffffffffffffffffffffffffffffffffffff166134429092919063ffffffff16565b613129600960009054906101000a900473ffffffffffffffffffffffffffffffffffffffff1660646015548402816130e057fe5b04600560009054906101000a900473ffffffffffffffffffffffffffffffffffffffff1673ffffffffffffffffffffffffffffffffffffffff166134429092919063ffffffff16565b3373ffffffffffffffffffffffffffffffffffffffff167fe2403640ba68fed3a2f88b7557551d1993f84b99bb10ff833f0cf8db0c5e0486606460155460640384028161317257fe5b046040518082815260200191505060405180910390a2505b505050565b600080823b905060008111915050919050565b60008183106131b157816131b3565b825b905092915050565b6131d081600154612cc790919063ffffffff16565b60018190555061322881600260003373ffffffffffffffffffffffffffffffffffffffff1673ffffffffffffffffffffffffffffffffffffffff16815260200190815260200160002054612cc790919063ffffffff16565b600260003373ffffffffffffffffffffffffffffffffffffffff1673ffffffffffffffffffffffffffffffffffffffff168152602001908152602001600020819055506132b93330836000809054906101000a900473ffffffffffffffffffffffffffffffffffffffff1673ffffffffffffffffffffffffffffffffffffffff166134fa909392919063ffffffff16565b50565b6000838311158290613369576040517f08c379a00000000000000000000000000000000000000000000000000000000081526004018080602001828103825283818151815260200191508051906020019080838360005b8381101561332e578082015181840152602081019050613313565b50505050905090810190601f16801561335b5780820380516001836020036101000a031916815260200191505b509250505060405180910390fd5b5060008385039050809150509392505050565b60008083118290613428576040517f08c379a00000000000000000000000000000000000000000000000000000000081526004018080602001828103825283818151815260200191508051906020019080838360005b838110156133ed5780820151818401526020810190506133d2565b50505050905090810190601f16801561341a5780820380516001836020036101000a031916815260200191505b509250505060405180910390fd5b50600083858161343457fe5b049050809150509392505050565b6134f58363a9059cbb60e01b8484604051602401808373ffffffffffffffffffffffffffffffffffffffff1673ffffffffffffffffffffffffffffffffffffffff16815260200182815260200192505050604051602081830303815290604052907bffffffffffffffffffffffffffffffffffffffffffffffffffffffff19166020820180517bffffffffffffffffffffffffffffffffffffffffffffffffffffffff83818316178352505050506135e7565b505050565b6135e1846323b872dd60e01b858585604051602401808473ffffffffffffffffffffffffffffffffffffffff1673ffffffffffffffffffffffffffffffffffffffff1681526020018373ffffffffffffffffffffffffffffffffffffffff1673ffffffffffffffffffffffffffffffffffffffff1681526020018281526020019350505050604051602081830303815290604052907bffffffffffffffffffffffffffffffffffffffffffffffffffffffff19166020820180517bffffffffffffffffffffffffffffffffffffffffffffffffffffffff83818316178352505050506135e7565b50505050565b6060613649826040518060400160405280602081526020017f5361666545524332303a206c6f772d6c6576656c2063616c6c206661696c65648152508573ffffffffffffffffffffffffffffffffffffffff166136d69092919063ffffffff16565b90506000815111156136d15780806020019051602081101561366a57600080fd5b81019080805190602001909291905050506136d0576040517f08c379a000000000000000000000000000000000000000000000000000000000815260040180806020018281038252602a8152602001806139a9602a913960400191505060405180910390fd5b5b505050565b60606136e584846000856136ee565b90509392505050565b60606136f98561318f565b61376b576040517f08c379a000000000000000000000000000000000000000000000000000000000815260040180806020018281038252601d8152602001807f416464726573733a2063616c6c20746f206e6f6e2d636f6e747261637400000081525060200191505060405180910390fd5b600060608673ffffffffffffffffffffffffffffffffffffffff1685876040518082805190602001908083835b602083106137bb5780518252602082019150602081019050602083039250613798565b6001836020036101000a03801982511681845116808217855250505050505090500191505060006040518083038185875af1925050503d806000811461381d576040519150601f19603f3d011682016040523d82523d6000602084013e613822565b606091505b509150915081156138375780925050506138ec565b60008151111561384a5780518082602001fd5b836040517f08c379a00000000000000000000000000000000000000000000000000000000081526004018080602001828103825283818151815260200191508051906020019080838360005b838110156138b1578082015181840152602081019050613896565b50505050905090810190601f1680156138de5780820380516001836020036101000a031916815260200191505b509250505060405180910390fd5b94935050505056fe596f7520646f206e6f74206861766520726967687420746f20757365207468697320746f6b656e214f776e61626c653a206e6577206f776e657220697320746865207a65726f2061646472657373536166654d6174683a206d756c7469706c69636174696f6e206f766572666c6f7743616c6c6572206973206e6f742072657761726420646973747269627574696f6e54686973207469636b657420697320757365642077697468696e20323420686f757273215361666545524332303a204552433230206f7065726174696f6e20646964206e6f74207375636365656443616e6e6f7420776974686472617720657863656564207468652062616c616e6365a2646970667358221220daaa03f87650a26b7826a31ffc3ef1c2e31f976c2a18eaf5f9597682d70b925864736f6c63430006020033",
  "source": "pragma solidity ^0.6.0;\n\nimport \"../common/hotpotinterface.sol\";\nimport \"../common/ILoan.sol\";\nimport \"@openzeppelin/contracts/math/Math.sol\";\nimport \"@openzeppelin/contracts/math/SafeMath.sol\";\nimport \"@openzeppelin/contracts/token/ERC721/IERC721.sol\";\nimport \"@openzeppelin/contracts/token/ERC20/IERC20.sol\";\nimport \"@openzeppelin/contracts/token/ERC20/SafeERC20.sol\";\nimport \"@openzeppelin/contracts/access/Ownable.sol\";\nimport \"@openzeppelin/contracts/utils/Address.sol\";\n\nabstract contract IRewardDistributionRecipient is Ownable {\n    address public rewardDistribution;\n\n    function notifyRewardAmount(uint256 reward) external virtual;\n\n    modifier onlyRewardDistribution() {\n        require(\n            _msgSender() == rewardDistribution,\n            \"Caller is not reward distribution\"\n        );\n        _;\n    }\n\n    function setRewardDistribution(address _rewardDistribution)\n        external\n        onlyOwner\n    {\n        rewardDistribution = _rewardDistribution;\n    }\n}\n\ncontract LPTokenWrapper {\n    using SafeMath for uint256;\n    using SafeERC20 for IERC20;\n\n    IERC20 public tokenAddr;\n    uint256 private _totalSupply;\n    mapping(address => uint256) private _balances;\n\n    function totalSupply() public view returns (uint256) {\n        return _totalSupply;\n    }\n\n    function balanceOf(address account) public view returns (uint256) {\n        return _balances[account];\n    }\n\n    function stake(uint256 amount) public virtual {\n        _totalSupply = _totalSupply.add(amount);\n        _balances[msg.sender] = _balances[msg.sender].add(amount);\n        tokenAddr.safeTransferFrom(msg.sender, address(this), amount);\n    }\n\n    function withdraw(uint256 amount) public virtual {\n        _totalSupply = _totalSupply.sub(amount);\n        _balances[msg.sender] = _balances[msg.sender].sub(amount);\n        tokenAddr.safeTransfer(msg.sender, amount);\n    }\n}\n\ncontract StakePool is LPTokenWrapper, IRewardDistributionRecipient {\n    using Address for address;\n    IERC20 public erc20;\n    IHotPot public hotpot;\n    IERC721 public erc721;\n    ILoan public loan;\n\n    address public rewardContract;\n    uint256 public DURATION = 604800;\n\n    uint256 public starttime = 1601391600;\n    uint256 public periodFinish = 0;\n    uint256 public rewardRate = 0;\n    uint256 public lastUpdateTime;\n    uint256 public rewardPerTokenStored;\n\n    uint256 public lastRewardTime;\n\n    uint256 public freeRewardRatio = 5;\n    uint256 public grade1RewardRatio = 10;\n    uint256 public grade2RewardRatio = 15;\n    uint256 public grade3RewardRatio = 20;\n\n    uint256 public rewardRatio = 30;\n\n    mapping(address => uint256) public userRewardPerTokenPaid;\n    mapping(address => uint256) public rewards;\n\n    event RewardAdded(uint256 reward);\n    event Staked(address indexed user, uint256 amount);\n    event Withdrawn(address indexed user, uint256 amount);\n    event RewardPaid(address indexed user, uint256 reward);\n    event Rescue(address indexed dst, uint256 sad);\n    event RescueToken(address indexed dst, address indexed token, uint256 sad);\n\n    constructor(\n        address _stakeERC20,\n        address _hotpotNFT,\n        address _hotpotERC20,\n        address _loan,\n        uint256 _starttime,\n        uint256 duration\n    ) public {\n        tokenAddr = IERC20(_stakeERC20);\n        hotpot = IHotPot(_hotpotNFT);\n        erc721 = IERC721(_hotpotNFT);\n        erc20 = IERC20(_hotpotERC20);\n        loan = ILoan(_loan);\n        rewardDistribution = _msgSender();\n        starttime = _starttime;\n        DURATION = duration;\n    }\n\n    function setRewardContract(address _addr) external onlyOwner {\n        require(_addr.isContract(), \"It is not contract address!\");\n        rewardContract = _addr;\n    }\n\n    modifier checkStart() {\n        require(block.timestamp >= starttime, \"not start\");\n        _;\n    }\n\n    modifier updateReward(address account) {\n        rewardPerTokenStored = rewardPerToken();\n        lastUpdateTime = lastTimeRewardApplicable();\n        if (account != address(0)) {\n            rewards[account] = earned(account);\n            userRewardPerTokenPaid[account] = rewardPerTokenStored;\n        }\n        _;\n    }\n\n    function lastTimeRewardApplicable() public view returns (uint256) {\n        return Math.min(block.timestamp, periodFinish);\n    }\n\n    function rewardPerToken() public view returns (uint256) {\n        if (totalSupply() == 0) {\n            return rewardPerTokenStored;\n        }\n        return\n            rewardPerTokenStored.add(\n                lastTimeRewardApplicable()\n                    .sub(lastUpdateTime)\n                    .mul(rewardRate)\n                    .mul(1e18)\n                    .div(totalSupply())\n            );\n    }\n\n    function earned(address account) public view returns (uint256) {\n        return\n            balanceOf(account)\n                .mul(rewardPerToken().sub(userRewardPerTokenPaid[account]))\n                .div(1e18)\n                .add(rewards[account]);\n    }\n\n    function stake(uint256 amount)\n        public\n        override\n        updateReward(msg.sender)\n        checkStart\n    {\n        require(amount > 0, \"Cannot stake 0\");\n        super.stake(amount);\n        emit Staked(msg.sender, amount);\n    }\n\n    function _getReward(uint256 _percent)\n        internal\n        updateReward(msg.sender)\n        checkStart\n    {\n        require(_percent < 100);\n        uint256 trueReward = earned(msg.sender);\n        if (trueReward > 0) {\n            uint256 reward = (trueReward * _percent) / 100;\n\n            rewards[msg.sender] = trueReward - reward;\n            erc20.safeTransfer(\n                msg.sender,\n                (reward * (100 - rewardRatio)) / 100\n            );\n            erc20.safeTransfer(rewardContract, (reward * rewardRatio) / 100);\n            emit RewardPaid(msg.sender, (reward * (100 - rewardRatio)) / 100);\n        }\n    }\n\n    function getRewardFree() public updateReward(msg.sender) checkStart {\n        require(\n            lastRewardTime + 24 * 60 * 60 < now,\n            \"You get reward within 24 hours!\"\n        );\n        lastRewardTime = now;\n        _getReward(freeRewardRatio);\n    }\n\n    function getRewardByNFT(uint256 _tokenId)\n        public\n        updateReward(msg.sender)\n        checkStart\n    {\n         //1.check the NFT is used?\n        uint256 time = hotpot.getUseTime(_tokenId);\n        require(\n            time < now - 24 * 60 * 60,\n            \"This ticket is used within 24 hours!\"\n        );\n        \n        require(\n            loan.checkPrivilege(msg.sender, _tokenId, now),\n            \"You do not have right to use this token!\"\n        );\n\n        uint256 grade = hotpot.getGrade(_tokenId);\n        uint256 percent = grade1RewardRatio;\n        if (grade == 1) {\n            percent = grade1RewardRatio;\n        } else if (grade == 2) {\n            percent = grade2RewardRatio;\n        } else if (grade == 3) {\n            percent = grade3RewardRatio;\n        }\n        _getReward(percent);\n        hotpot.setUse(_tokenId);\n    }\n\n    function withdraw(uint256 amount)\n        public\n        override\n        updateReward(msg.sender)\n        checkStart\n    {\n        require(amount > 0, \"Cannot withdraw 0\");\n        super.withdraw(amount);\n        emit Withdrawn(msg.sender, amount);\n    }\n\n    function withdrawAndGetReward(uint256 amount)\n        public\n        updateReward(msg.sender)\n        checkStart\n    {\n        require(\n            amount <= balanceOf(msg.sender),\n            \"Cannot withdraw exceed the balance\"\n        );\n        withdraw(amount);\n        getRewardFree();\n    }\n\n    function exit() external {\n        withdraw(balanceOf(msg.sender));\n        getRewardFree();\n    }\n\n    function _decreaseRewardRatio() internal {\n        freeRewardRatio = 3;\n        grade1RewardRatio = 9;\n        grade2RewardRatio = 12;\n        grade3RewardRatio = 15;\n    }\n\n    function notifyRewardAmount(uint256 reward)\n        external\n        override\n        onlyRewardDistribution\n        updateReward(address(0))\n    {\n        if (block.timestamp > starttime) {\n            if (block.timestamp >= periodFinish) {\n                rewardRate = reward.div(DURATION);\n                _decreaseRewardRatio();\n            } else {\n                uint256 remaining = periodFinish.sub(block.timestamp);\n                uint256 leftover = remaining.mul(rewardRate);\n                rewardRate = reward.add(leftover).div(DURATION);\n            }\n            lastUpdateTime = block.timestamp;\n            periodFinish = block.timestamp.add(DURATION);\n            emit RewardAdded(reward);\n        } else {\n            rewardRate = reward.div(DURATION);\n            lastUpdateTime = starttime;\n            periodFinish = starttime.add(DURATION);\n            emit RewardAdded(reward);\n        }\n    }\n\n    function rescue(address payable to_, uint256 amount_) external onlyOwner {\n        require(to_ != address(0), \"must not 0\");\n        require(amount_ > 0, \"must gt 0\");\n\n        to_.transfer(amount_);\n        emit Rescue(to_, amount_);\n    }\n\n    function rescue(\n        address to_,\n        IERC20 token_,\n        uint256 amount_\n    ) external onlyOwner {\n        require(to_ != address(0), \"must not 0\");\n        require(amount_ > 0, \"must gt 0\");\n        require(token_ != erc20, \"must not erc20\");\n        require(token_ != tokenAddr, \"must not this plToken\");\n\n        token_.transfer(to_, amount_);\n        emit RescueToken(to_, address(token_), amount_);\n    }\n}\n",
  "sourcePath": "/Users/junhu/git/hotpotcontract/truffle/contracts/stake/StakePool.sol",
  "compiler": {
    "name": "solc",
    "version": "0.6.2+commit.bacdbe57.Emscripten.clang"
  },
  "schemaVersion": "3.3.0",
  "updatedAt": "2020-10-12T07:13:08.226Z",
  "networkType": "ethereum",
  "devdoc": {
    "methods": {
      "owner()": {
        "details": "Returns the address of the current owner."
      },
      "renounceOwnership()": {
        "details": "Leaves the contract without owner. It will not be possible to call `onlyOwner` functions anymore. Can only be called by the current owner.     * NOTE: Renouncing ownership will leave the contract without an owner, thereby removing any functionality that is only available to the owner."
      },
      "transferOwnership(address)": {
        "details": "Transfers ownership of the contract to a new account (`newOwner`). Can only be called by the current owner."
      }
    }
  },
  "userdoc": {
    "methods": {}
  }
}